{
	"contracts/GLDEsrow.sol": {
		"GLDEscrow": {
			"abi": [
				{
					"anonymous": false,
					"inputs": [
						{
							"indexed": false,
							"internalType": "string",
							"name": "",
							"type": "string"
						}
					],
					"name": "Error",
					"type": "event"
				},
				{
					"anonymous": false,
					"inputs": [
						{
							"indexed": true,
							"internalType": "address",
							"name": "sender",
							"type": "address"
						},
						{
							"indexed": true,
							"internalType": "address",
							"name": "to",
							"type": "address"
						},
						{
							"indexed": false,
							"internalType": "uint256",
							"name": "value",
							"type": "uint256"
						}
					],
					"name": "LogRolledBack",
					"type": "event"
				},
				{
					"anonymous": false,
					"inputs": [
						{
							"indexed": true,
							"internalType": "address",
							"name": "sender",
							"type": "address"
						},
						{
							"indexed": true,
							"internalType": "address",
							"name": "to",
							"type": "address"
						},
						{
							"indexed": false,
							"internalType": "uint256",
							"name": "value",
							"type": "uint256"
						}
					],
					"name": "LogSend",
					"type": "event"
				},
				{
					"anonymous": false,
					"inputs": [
						{
							"indexed": true,
							"internalType": "address",
							"name": "to",
							"type": "address"
						},
						{
							"indexed": false,
							"internalType": "uint256",
							"name": "value",
							"type": "uint256"
						}
					],
					"name": "LogWithDraw",
					"type": "event"
				},
				{
					"stateMutability": "payable",
					"type": "fallback"
				},
				{
					"inputs": [],
					"name": "getEtherBalance",
					"outputs": [
						{
							"internalType": "uint256",
							"name": "",
							"type": "uint256"
						}
					],
					"stateMutability": "view",
					"type": "function"
				},
				{
					"inputs": [
						{
							"internalType": "address payable",
							"name": "to",
							"type": "address"
						}
					],
					"name": "rollbackEther",
					"outputs": [],
					"stateMutability": "payable",
					"type": "function"
				},
				{
					"inputs": [
						{
							"internalType": "address payable",
							"name": "to",
							"type": "address"
						}
					],
					"name": "rollbackGLD",
					"outputs": [],
					"stateMutability": "nonpayable",
					"type": "function"
				},
				{
					"inputs": [
						{
							"internalType": "address payable",
							"name": "to",
							"type": "address"
						}
					],
					"name": "sendEther",
					"outputs": [],
					"stateMutability": "payable",
					"type": "function"
				},
				{
					"inputs": [
						{
							"internalType": "address payable",
							"name": "to",
							"type": "address"
						},
						{
							"internalType": "uint256",
							"name": "amount",
							"type": "uint256"
						}
					],
					"name": "sendGLD",
					"outputs": [],
					"stateMutability": "nonpayable",
					"type": "function"
				},
				{
					"inputs": [],
					"name": "withdrawEther",
					"outputs": [],
					"stateMutability": "payable",
					"type": "function"
				},
				{
					"inputs": [],
					"name": "withdrawGLD",
					"outputs": [],
					"stateMutability": "nonpayable",
					"type": "function"
				},
				{
					"stateMutability": "payable",
					"type": "receive"
				}
			],
			"devdoc": {
				"kind": "dev",
				"methods": {},
				"version": 1
			},
			"evm": {
				"assembly": "    /* \"contracts/GLDEsrow.sol\":99:981  contract GLDEscrow is Escrow {\r... */\n  mstore(0x40, 0x80)\n  callvalue\n  dup1\n  iszero\n  tag_1\n  jumpi\n  0x00\n  dup1\n  revert\ntag_1:\n  pop\n  dataSize(sub_0)\n  dup1\n  dataOffset(sub_0)\n  0x00\n  codecopy\n  0x00\n  return\nstop\n\nsub_0: assembly {\n        /* \"contracts/GLDEsrow.sol\":99:981  contract GLDEscrow is Escrow {\r... */\n      mstore(0x40, 0x80)\n      jumpi(tag_1, lt(calldatasize, 0x04))\n      shr(0xe0, calldataload(0x00))\n      dup1\n      0x7362377b\n      gt\n      tag_10\n      jumpi\n      dup1\n      0x7362377b\n      eq\n      tag_6\n      jumpi\n      dup1\n      0xd2472cb6\n      eq\n      tag_7\n      jumpi\n      dup1\n      0xe0f4ba14\n      eq\n      tag_8\n      jumpi\n      dup1\n      0xea46193e\n      eq\n      tag_9\n      jumpi\n      jump(tag_2)\n    tag_10:\n      dup1\n      0x0d335f3d\n      eq\n      tag_3\n      jumpi\n      dup1\n      0x36843861\n      eq\n      tag_4\n      jumpi\n      dup1\n      0x48c981e2\n      eq\n      tag_5\n      jumpi\n      jump(tag_2)\n    tag_1:\n      jumpi(tag_2, calldatasize)\n      stop\n    tag_2:\n        /* \"contracts/Escrow.sol\":452:492  Error(\"call of a non-existent function\") */\n      0x08c379a0afcc32b1a39302f7cb8073359698411ab5fd6e3edb2c02c0b5fba8aa\n      mload(0x40)\n      tag_15\n      swap1\n      tag_16\n      jump\t// in\n    tag_15:\n      mload(0x40)\n      dup1\n      swap2\n      sub\n      swap1\n      log1\n        /* \"contracts/GLDEsrow.sol\":99:981  contract GLDEscrow is Escrow {\r... */\n      stop\n        /* \"contracts/GLDEsrow.sol\":421:856  function sendGLD(address payable to, uint256 amount) public {\r... */\n    tag_3:\n      callvalue\n      dup1\n      iszero\n      tag_17\n      jumpi\n      0x00\n      dup1\n      revert\n    tag_17:\n      pop\n      tag_18\n      0x04\n      dup1\n      calldatasize\n      sub\n      dup2\n      add\n      swap1\n      tag_19\n      swap2\n      swap1\n      tag_20\n      jump\t// in\n    tag_19:\n      tag_21\n      jump\t// in\n    tag_18:\n      stop\n        /* \"contracts/Escrow.sol\":1716:2502  function rollbackEther(address payable to) external payable {\r... */\n    tag_4:\n      tag_22\n      0x04\n      dup1\n      calldatasize\n      sub\n      dup2\n      add\n      swap1\n      tag_23\n      swap2\n      swap1\n      tag_24\n      jump\t// in\n    tag_23:\n      tag_25\n      jump\t// in\n    tag_22:\n      stop\n        /* \"contracts/Escrow.sol\":747:1129  function sendEther(address payable to) external payable {\r... */\n    tag_5:\n      tag_26\n      0x04\n      dup1\n      calldatasize\n      sub\n      dup2\n      add\n      swap1\n      tag_27\n      swap2\n      swap1\n      tag_24\n      jump\t// in\n    tag_27:\n      tag_28\n      jump\t// in\n    tag_26:\n      stop\n        /* \"contracts/Escrow.sol\":1135:1710  function withdrawEther() external payable {\r... */\n    tag_6:\n      tag_29\n      tag_30\n      jump\t// in\n    tag_29:\n      stop\n        /* \"contracts/GLDEsrow.sol\":864:912  function withdrawGLD() public {\r... */\n    tag_7:\n      callvalue\n      dup1\n      iszero\n      tag_31\n      jumpi\n      0x00\n      dup1\n      revert\n    tag_31:\n      pop\n      tag_32\n      tag_33\n      jump\t// in\n    tag_32:\n      stop\n        /* \"contracts/GLDEsrow.sol\":920:978  function rollbackGLD(address payable to) public {\r... */\n    tag_8:\n      callvalue\n      dup1\n      iszero\n      tag_34\n      jumpi\n      0x00\n      dup1\n      revert\n    tag_34:\n      pop\n      tag_35\n      0x04\n      dup1\n      calldatasize\n      sub\n      dup2\n      add\n      swap1\n      tag_36\n      swap2\n      swap1\n      tag_24\n      jump\t// in\n    tag_36:\n      tag_37\n      jump\t// in\n    tag_35:\n      stop\n        /* \"contracts/Escrow.sol\":2508:2606  function getEtherBalance() public view returns (uint256) {\r... */\n    tag_9:\n      callvalue\n      dup1\n      iszero\n      tag_38\n      jumpi\n      0x00\n      dup1\n      revert\n    tag_38:\n      pop\n      tag_39\n      tag_40\n      jump\t// in\n    tag_39:\n      mload(0x40)\n      tag_41\n      swap2\n      swap1\n      tag_42\n      jump\t// in\n    tag_41:\n      mload(0x40)\n      dup1\n      swap2\n      sub\n      swap1\n      return\n        /* \"contracts/GLDEsrow.sol\":421:856  function sendGLD(address payable to, uint256 amount) public {\r... */\n    tag_21:\n        /* \"contracts/GLDEsrow.sol\":492:504  address from */\n      0x00\n        /* \"contracts/GLDEsrow.sol\":507:517  msg.sender */\n      caller\n        /* \"contracts/GLDEsrow.sol\":492:517  address from = msg.sender */\n      swap1\n      pop\n        /* \"contracts/GLDEsrow.sol\":528:541  uint256 value */\n      0x00\n        /* \"contracts/GLDEsrow.sol\":544:550  amount */\n      dup3\n        /* \"contracts/GLDEsrow.sol\":528:550  uint256 value = amount */\n      swap1\n      pop\n        /* \"contracts/GLDEsrow.sol\":587:592  value */\n      dup1\n        /* \"contracts/GLDEsrow.sol\":561:579  receiverGLDAddress */\n      0x04\n        /* \"contracts/GLDEsrow.sol\":561:583  receiverGLDAddress[to] */\n      0x00\n        /* \"contracts/GLDEsrow.sol\":580:582  to */\n      dup7\n        /* \"contracts/GLDEsrow.sol\":561:583  receiverGLDAddress[to] */\n      0xffffffffffffffffffffffffffffffffffffffff\n      and\n      0xffffffffffffffffffffffffffffffffffffffff\n      and\n      dup2\n      mstore\n      0x20\n      add\n      swap1\n      dup2\n      mstore\n      0x20\n      add\n      0x00\n      keccak256\n      0x00\n        /* \"contracts/GLDEsrow.sol\":561:592  receiverGLDAddress[to] += value */\n      dup3\n      dup3\n      sload\n      tag_44\n      swap2\n      swap1\n      tag_45\n      jump\t// in\n    tag_44:\n      swap3\n      pop\n      pop\n      dup2\n      swap1\n      sstore\n      pop\n        /* \"contracts/GLDEsrow.sol\":608:627  rollbackGLDPossible */\n      0x06\n        /* \"contracts/GLDEsrow.sol\":608:631  rollbackGLDPossible[to] */\n      0x00\n        /* \"contracts/GLDEsrow.sol\":628:630  to */\n      dup6\n        /* \"contracts/GLDEsrow.sol\":608:631  rollbackGLDPossible[to] */\n      0xffffffffffffffffffffffffffffffffffffffff\n      and\n      0xffffffffffffffffffffffffffffffffffffffff\n      and\n      dup2\n      mstore\n      0x20\n      add\n      swap1\n      dup2\n      mstore\n      0x20\n      add\n      0x00\n      keccak256\n        /* \"contracts/GLDEsrow.sol\":608:637  rollbackGLDPossible[to][from] */\n      0x00\n        /* \"contracts/GLDEsrow.sol\":632:636  from */\n      dup4\n        /* \"contracts/GLDEsrow.sol\":608:637  rollbackGLDPossible[to][from] */\n      0xffffffffffffffffffffffffffffffffffffffff\n      and\n      0xffffffffffffffffffffffffffffffffffffffff\n      and\n      dup2\n      mstore\n      0x20\n      add\n      swap1\n      dup2\n      mstore\n      0x20\n      add\n      0x00\n      keccak256\n      0x00\n      swap1\n      sload\n      swap1\n      0x0100\n      exp\n      swap1\n      div\n      0xff\n      and\n        /* \"contracts/GLDEsrow.sol\":603:669  if (!rollbackGLDPossible[to][from]) rollbackGLDValue[to][from] = 0 */\n      tag_46\n      jumpi\n        /* \"contracts/GLDEsrow.sol\":668:669  0 */\n      0x00\n        /* \"contracts/GLDEsrow.sol\":639:655  rollbackGLDValue */\n      0x07\n        /* \"contracts/GLDEsrow.sol\":639:659  rollbackGLDValue[to] */\n      0x00\n        /* \"contracts/GLDEsrow.sol\":656:658  to */\n      dup7\n        /* \"contracts/GLDEsrow.sol\":639:659  rollbackGLDValue[to] */\n      0xffffffffffffffffffffffffffffffffffffffff\n      and\n      0xffffffffffffffffffffffffffffffffffffffff\n      and\n      dup2\n      mstore\n      0x20\n      add\n      swap1\n      dup2\n      mstore\n      0x20\n      add\n      0x00\n      keccak256\n        /* \"contracts/GLDEsrow.sol\":639:665  rollbackGLDValue[to][from] */\n      0x00\n        /* \"contracts/GLDEsrow.sol\":660:664  from */\n      dup5\n        /* \"contracts/GLDEsrow.sol\":639:665  rollbackGLDValue[to][from] */\n      0xffffffffffffffffffffffffffffffffffffffff\n      and\n      0xffffffffffffffffffffffffffffffffffffffff\n      and\n      dup2\n      mstore\n      0x20\n      add\n      swap1\n      dup2\n      mstore\n      0x20\n      add\n      0x00\n      keccak256\n        /* \"contracts/GLDEsrow.sol\":639:669  rollbackGLDValue[to][from] = 0 */\n      dup2\n      swap1\n      sstore\n      pop\n        /* \"contracts/GLDEsrow.sol\":603:669  if (!rollbackGLDPossible[to][from]) rollbackGLDValue[to][from] = 0 */\n    tag_46:\n        /* \"contracts/GLDEsrow.sol\":710:715  value */\n      dup1\n        /* \"contracts/GLDEsrow.sol\":680:696  rollbackGLDValue */\n      0x07\n        /* \"contracts/GLDEsrow.sol\":680:700  rollbackGLDValue[to] */\n      0x00\n        /* \"contracts/GLDEsrow.sol\":697:699  to */\n      dup7\n        /* \"contracts/GLDEsrow.sol\":680:700  rollbackGLDValue[to] */\n      0xffffffffffffffffffffffffffffffffffffffff\n      and\n      0xffffffffffffffffffffffffffffffffffffffff\n      and\n      dup2\n      mstore\n      0x20\n      add\n      swap1\n      dup2\n      mstore\n      0x20\n      add\n      0x00\n      keccak256\n        /* \"contracts/GLDEsrow.sol\":680:706  rollbackGLDValue[to][from] */\n      0x00\n        /* \"contracts/GLDEsrow.sol\":701:705  from */\n      dup5\n        /* \"contracts/GLDEsrow.sol\":680:706  rollbackGLDValue[to][from] */\n      0xffffffffffffffffffffffffffffffffffffffff\n      and\n      0xffffffffffffffffffffffffffffffffffffffff\n      and\n      dup2\n      mstore\n      0x20\n      add\n      swap1\n      dup2\n      mstore\n      0x20\n      add\n      0x00\n      keccak256\n      0x00\n        /* \"contracts/GLDEsrow.sol\":680:715  rollbackGLDValue[to][from] += value */\n      dup3\n      dup3\n      sload\n      tag_47\n      swap2\n      swap1\n      tag_45\n      jump\t// in\n    tag_47:\n      swap3\n      pop\n      pop\n      dup2\n      swap1\n      sstore\n      pop\n        /* \"contracts/GLDEsrow.sol\":758:762  true */\n      0x01\n        /* \"contracts/GLDEsrow.sol\":726:745  rollbackGLDPossible */\n      0x06\n        /* \"contracts/GLDEsrow.sol\":726:749  rollbackGLDPossible[to] */\n      0x00\n        /* \"contracts/GLDEsrow.sol\":746:748  to */\n      dup7\n        /* \"contracts/GLDEsrow.sol\":726:749  rollbackGLDPossible[to] */\n      0xffffffffffffffffffffffffffffffffffffffff\n      and\n      0xffffffffffffffffffffffffffffffffffffffff\n      and\n      dup2\n      mstore\n      0x20\n      add\n      swap1\n      dup2\n      mstore\n      0x20\n      add\n      0x00\n      keccak256\n        /* \"contracts/GLDEsrow.sol\":726:755  rollbackGLDPossible[to][from] */\n      0x00\n        /* \"contracts/GLDEsrow.sol\":750:754  from */\n      dup5\n        /* \"contracts/GLDEsrow.sol\":726:755  rollbackGLDPossible[to][from] */\n      0xffffffffffffffffffffffffffffffffffffffff\n      and\n      0xffffffffffffffffffffffffffffffffffffffff\n      and\n      dup2\n      mstore\n      0x20\n      add\n      swap1\n      dup2\n      mstore\n      0x20\n      add\n      0x00\n      keccak256\n      0x00\n        /* \"contracts/GLDEsrow.sol\":726:762  rollbackGLDPossible[to][from] = true */\n      0x0100\n      exp\n      dup2\n      sload\n      dup2\n      0xff\n      mul\n      not\n      and\n      swap1\n      dup4\n      iszero\n      iszero\n      mul\n      or\n      swap1\n      sstore\n      pop\n        /* \"contracts/GLDEsrow.sol\":773:793  rollbackGLDAddresses */\n      0x05\n        /* \"contracts/GLDEsrow.sol\":773:797  rollbackGLDAddresses[to] */\n      0x00\n        /* \"contracts/GLDEsrow.sol\":794:796  to */\n      dup6\n        /* \"contracts/GLDEsrow.sol\":773:797  rollbackGLDAddresses[to] */\n      0xffffffffffffffffffffffffffffffffffffffff\n      and\n      0xffffffffffffffffffffffffffffffffffffffff\n      and\n      dup2\n      mstore\n      0x20\n      add\n      swap1\n      dup2\n      mstore\n      0x20\n      add\n      0x00\n      keccak256\n        /* \"contracts/GLDEsrow.sol\":803:807  from */\n      dup3\n        /* \"contracts/GLDEsrow.sol\":773:808  rollbackGLDAddresses[to].push(from) */\n      swap1\n      dup1\n      0x01\n      dup2\n      sload\n      add\n      dup1\n      dup3\n      sstore\n      dup1\n      swap2\n      pop\n      pop\n      0x01\n      swap1\n      sub\n      swap1\n      0x00\n      mstore\n      keccak256(0x00, 0x20)\n      add\n      0x00\n      swap1\n      swap2\n      swap1\n      swap2\n      swap1\n      swap2\n      0x0100\n      exp\n      dup2\n      sload\n      dup2\n      0xffffffffffffffffffffffffffffffffffffffff\n      mul\n      not\n      and\n      swap1\n      dup4\n      0xffffffffffffffffffffffffffffffffffffffff\n      and\n      mul\n      or\n      swap1\n      sstore\n      pop\n        /* \"contracts/GLDEsrow.sol\":838:840  to */\n      dup4\n        /* \"contracts/GLDEsrow.sol\":824:848  LogSend(from, to, value) */\n      0xffffffffffffffffffffffffffffffffffffffff\n      and\n        /* \"contracts/GLDEsrow.sol\":832:836  from */\n      dup3\n        /* \"contracts/GLDEsrow.sol\":824:848  LogSend(from, to, value) */\n      0xffffffffffffffffffffffffffffffffffffffff\n      and\n      0xa343f361112b028dae2501770614271723be1d24c9f64fed2d4bd3ddf1c13e35\n        /* \"contracts/GLDEsrow.sol\":842:847  value */\n      dup4\n        /* \"contracts/GLDEsrow.sol\":824:848  LogSend(from, to, value) */\n      mload(0x40)\n      tag_49\n      swap2\n      swap1\n      tag_42\n      jump\t// in\n    tag_49:\n      mload(0x40)\n      dup1\n      swap2\n      sub\n      swap1\n      log3\n        /* \"contracts/GLDEsrow.sol\":481:856  {\r... */\n      pop\n      pop\n        /* \"contracts/GLDEsrow.sol\":421:856  function sendGLD(address payable to, uint256 amount) public {\r... */\n      pop\n      pop\n      jump\t// out\n        /* \"contracts/Escrow.sol\":1716:2502  function rollbackEther(address payable to) external payable {\r... */\n    tag_25:\n        /* \"contracts/Escrow.sol\":1783:1805  address payable sender */\n      0x00\n        /* \"contracts/Escrow.sol\":1816:1826  msg.sender */\n      caller\n        /* \"contracts/Escrow.sol\":1783:1827  address payable sender = payable(msg.sender) */\n      swap1\n      pop\n        /* \"contracts/Escrow.sol\":1850:1866  rollbackPossible */\n      0x02\n        /* \"contracts/Escrow.sol\":1850:1870  rollbackPossible[to] */\n      0x00\n        /* \"contracts/Escrow.sol\":1867:1869  to */\n      dup4\n        /* \"contracts/Escrow.sol\":1850:1870  rollbackPossible[to] */\n      0xffffffffffffffffffffffffffffffffffffffff\n      and\n      0xffffffffffffffffffffffffffffffffffffffff\n      and\n      dup2\n      mstore\n      0x20\n      add\n      swap1\n      dup2\n      mstore\n      0x20\n      add\n      0x00\n      keccak256\n        /* \"contracts/Escrow.sol\":1850:1878  rollbackPossible[to][sender] */\n      0x00\n        /* \"contracts/Escrow.sol\":1871:1877  sender */\n      dup3\n        /* \"contracts/Escrow.sol\":1850:1878  rollbackPossible[to][sender] */\n      0xffffffffffffffffffffffffffffffffffffffff\n      and\n      0xffffffffffffffffffffffffffffffffffffffff\n      and\n      dup2\n      mstore\n      0x20\n      add\n      swap1\n      dup2\n      mstore\n      0x20\n      add\n      0x00\n      keccak256\n      0x00\n      swap1\n      sload\n      swap1\n      0x0100\n      exp\n      swap1\n      div\n      0xff\n      and\n        /* \"contracts/Escrow.sol\":1834:1965  require(\r... */\n      tag_51\n      jumpi\n      mload(0x40)\n      0x08c379a000000000000000000000000000000000000000000000000000000000\n      dup2\n      mstore\n      0x04\n      add\n      tag_52\n      swap1\n      tag_53\n      jump\t// in\n    tag_52:\n      mload(0x40)\n      dup1\n      swap2\n      sub\n      swap1\n      revert\n    tag_51:\n        /* \"contracts/Escrow.sol\":1972:1986  uint256 _value */\n      0x00\n        /* \"contracts/Escrow.sol\":1989:2002  rollbackValue */\n      0x03\n        /* \"contracts/Escrow.sol\":1989:2006  rollbackValue[to] */\n      0x00\n        /* \"contracts/Escrow.sol\":2003:2005  to */\n      dup5\n        /* \"contracts/Escrow.sol\":1989:2006  rollbackValue[to] */\n      0xffffffffffffffffffffffffffffffffffffffff\n      and\n      0xffffffffffffffffffffffffffffffffffffffff\n      and\n      dup2\n      mstore\n      0x20\n      add\n      swap1\n      dup2\n      mstore\n      0x20\n      add\n      0x00\n      keccak256\n        /* \"contracts/Escrow.sol\":1989:2014  rollbackValue[to][sender] */\n      0x00\n        /* \"contracts/Escrow.sol\":2007:2013  sender */\n      dup4\n        /* \"contracts/Escrow.sol\":1989:2014  rollbackValue[to][sender] */\n      0xffffffffffffffffffffffffffffffffffffffff\n      and\n      0xffffffffffffffffffffffffffffffffffffffff\n      and\n      dup2\n      mstore\n      0x20\n      add\n      swap1\n      dup2\n      mstore\n      0x20\n      add\n      0x00\n      keccak256\n      sload\n        /* \"contracts/Escrow.sol\":1972:2014  uint256 _value = rollbackValue[to][sender] */\n      swap1\n      pop\n        /* \"contracts/Escrow.sol\":2039:2040  0 */\n      0x00\n        /* \"contracts/Escrow.sol\":2029:2035  _value */\n      dup2\n        /* \"contracts/Escrow.sol\":2029:2040  _value != 0 */\n      eq\n      iszero\n        /* \"contracts/Escrow.sol\":2021:2064  require(_value != 0, \"Rollback value is 0\") */\n      tag_54\n      jumpi\n      mload(0x40)\n      0x08c379a000000000000000000000000000000000000000000000000000000000\n      dup2\n      mstore\n      0x04\n      add\n      tag_55\n      swap1\n      tag_56\n      jump\t// in\n    tag_55:\n      mload(0x40)\n      dup1\n      swap2\n      sub\n      swap1\n      revert\n    tag_54:\n        /* \"contracts/Escrow.sol\":2072:2081  bool sent */\n      0x00\n        /* \"contracts/Escrow.sol\":2087:2093  sender */\n      dup3\n        /* \"contracts/Escrow.sol\":2087:2098  sender.call */\n      0xffffffffffffffffffffffffffffffffffffffff\n      and\n        /* \"contracts/Escrow.sol\":2106:2112  _value */\n      dup3\n        /* \"contracts/Escrow.sol\":2087:2117  sender.call{value: _value}(\"\") */\n      mload(0x40)\n      tag_57\n      swap1\n      tag_58\n      jump\t// in\n    tag_57:\n      0x00\n      mload(0x40)\n      dup1\n      dup4\n      sub\n      dup2\n      dup6\n      dup8\n      gas\n      call\n      swap3\n      pop\n      pop\n      pop\n      returndatasize\n      dup1\n      0x00\n      dup2\n      eq\n      tag_61\n      jumpi\n      mload(0x40)\n      swap2\n      pop\n      and(add(returndatasize, 0x3f), not(0x1f))\n      dup3\n      add\n      0x40\n      mstore\n      returndatasize\n      dup3\n      mstore\n      returndatasize\n      0x00\n      0x20\n      dup5\n      add\n      returndatacopy\n      jump(tag_60)\n    tag_61:\n      0x60\n      swap2\n      pop\n    tag_60:\n      pop\n        /* \"contracts/Escrow.sol\":2071:2117  (bool sent, ) = sender.call{value: _value}(\"\") */\n      pop\n      swap1\n      pop\n        /* \"contracts/Escrow.sol\":2132:2136  sent */\n      dup1\n        /* \"contracts/Escrow.sol\":2124:2161  require(sent, \"Failed to send Ether\") */\n      tag_62\n      jumpi\n      mload(0x40)\n      0x08c379a000000000000000000000000000000000000000000000000000000000\n      dup2\n      mstore\n      0x04\n      add\n      tag_63\n      swap1\n      tag_64\n      jump\t// in\n    tag_63:\n      mload(0x40)\n      dup1\n      swap2\n      sub\n      swap1\n      revert\n    tag_62:\n        /* \"contracts/Escrow.sol\":2191:2197  _value */\n      dup2\n        /* \"contracts/Escrow.sol\":2168:2183  receiverAddress */\n      0x00\n        /* \"contracts/Escrow.sol\":2168:2187  receiverAddress[to] */\n      dup1\n        /* \"contracts/Escrow.sol\":2184:2186  to */\n      dup7\n        /* \"contracts/Escrow.sol\":2168:2187  receiverAddress[to] */\n      0xffffffffffffffffffffffffffffffffffffffff\n      and\n      0xffffffffffffffffffffffffffffffffffffffff\n      and\n      dup2\n      mstore\n      0x20\n      add\n      swap1\n      dup2\n      mstore\n      0x20\n      add\n      0x00\n      keccak256\n      0x00\n        /* \"contracts/Escrow.sol\":2168:2197  receiverAddress[to] -= _value */\n      dup3\n      dup3\n      sload\n      tag_65\n      swap2\n      swap1\n      tag_66\n      jump\t// in\n    tag_65:\n      swap3\n      pop\n      pop\n      dup2\n      swap1\n      sstore\n      pop\n        /* \"contracts/Escrow.sol\":2211:2224  rollbackValue */\n      0x03\n        /* \"contracts/Escrow.sol\":2211:2228  rollbackValue[to] */\n      0x00\n        /* \"contracts/Escrow.sol\":2225:2227  to */\n      dup6\n        /* \"contracts/Escrow.sol\":2211:2228  rollbackValue[to] */\n      0xffffffffffffffffffffffffffffffffffffffff\n      and\n      0xffffffffffffffffffffffffffffffffffffffff\n      and\n      dup2\n      mstore\n      0x20\n      add\n      swap1\n      dup2\n      mstore\n      0x20\n      add\n      0x00\n      keccak256\n        /* \"contracts/Escrow.sol\":2211:2236  rollbackValue[to][sender] */\n      0x00\n        /* \"contracts/Escrow.sol\":2229:2235  sender */\n      dup5\n        /* \"contracts/Escrow.sol\":2211:2236  rollbackValue[to][sender] */\n      0xffffffffffffffffffffffffffffffffffffffff\n      and\n      0xffffffffffffffffffffffffffffffffffffffff\n      and\n      dup2\n      mstore\n      0x20\n      add\n      swap1\n      dup2\n      mstore\n      0x20\n      add\n      0x00\n      keccak256\n        /* \"contracts/Escrow.sol\":2204:2236  delete rollbackValue[to][sender] */\n      0x00\n      swap1\n      sstore\n        /* \"contracts/Escrow.sol\":2274:2279  false */\n      0x00\n        /* \"contracts/Escrow.sol\":2243:2259  rollbackPossible */\n      0x02\n        /* \"contracts/Escrow.sol\":2243:2263  rollbackPossible[to] */\n      0x00\n        /* \"contracts/Escrow.sol\":2260:2262  to */\n      dup7\n        /* \"contracts/Escrow.sol\":2243:2263  rollbackPossible[to] */\n      0xffffffffffffffffffffffffffffffffffffffff\n      and\n      0xffffffffffffffffffffffffffffffffffffffff\n      and\n      dup2\n      mstore\n      0x20\n      add\n      swap1\n      dup2\n      mstore\n      0x20\n      add\n      0x00\n      keccak256\n        /* \"contracts/Escrow.sol\":2243:2271  rollbackPossible[to][sender] */\n      0x00\n        /* \"contracts/Escrow.sol\":2264:2270  sender */\n      dup6\n        /* \"contracts/Escrow.sol\":2243:2271  rollbackPossible[to][sender] */\n      0xffffffffffffffffffffffffffffffffffffffff\n      and\n      0xffffffffffffffffffffffffffffffffffffffff\n      and\n      dup2\n      mstore\n      0x20\n      add\n      swap1\n      dup2\n      mstore\n      0x20\n      add\n      0x00\n      keccak256\n      0x00\n        /* \"contracts/Escrow.sol\":2243:2279  rollbackPossible[to][sender] = false */\n      0x0100\n      exp\n      dup2\n      sload\n      dup2\n      0xff\n      mul\n      not\n      and\n      swap1\n      dup4\n      iszero\n      iszero\n      mul\n      or\n      swap1\n      sstore\n      pop\n        /* \"contracts/Escrow.sol\":2291:2300  uint256 i */\n      0x00\n        /* \"contracts/Escrow.sol\":2286:2497  for (uint256 i = 0; i < rollbackAddresses[to].length; i++) {\r... */\n    tag_67:\n        /* \"contracts/Escrow.sol\":2310:2327  rollbackAddresses */\n      0x01\n        /* \"contracts/Escrow.sol\":2310:2331  rollbackAddresses[to] */\n      0x00\n        /* \"contracts/Escrow.sol\":2328:2330  to */\n      dup7\n        /* \"contracts/Escrow.sol\":2310:2331  rollbackAddresses[to] */\n      0xffffffffffffffffffffffffffffffffffffffff\n      and\n      0xffffffffffffffffffffffffffffffffffffffff\n      and\n      dup2\n      mstore\n      0x20\n      add\n      swap1\n      dup2\n      mstore\n      0x20\n      add\n      0x00\n      keccak256\n        /* \"contracts/Escrow.sol\":2310:2338  rollbackAddresses[to].length */\n      dup1\n      sload\n      swap1\n      pop\n        /* \"contracts/Escrow.sol\":2306:2307  i */\n      dup2\n        /* \"contracts/Escrow.sol\":2306:2338  i < rollbackAddresses[to].length */\n      lt\n        /* \"contracts/Escrow.sol\":2286:2497  for (uint256 i = 0; i < rollbackAddresses[to].length; i++) {\r... */\n      iszero\n      tag_68\n      jumpi\n        /* \"contracts/Escrow.sol\":2354:2366  address from */\n      0x00\n        /* \"contracts/Escrow.sol\":2369:2386  rollbackAddresses */\n      0x01\n        /* \"contracts/Escrow.sol\":2369:2390  rollbackAddresses[to] */\n      0x00\n        /* \"contracts/Escrow.sol\":2387:2389  to */\n      dup8\n        /* \"contracts/Escrow.sol\":2369:2390  rollbackAddresses[to] */\n      0xffffffffffffffffffffffffffffffffffffffff\n      and\n      0xffffffffffffffffffffffffffffffffffffffff\n      and\n      dup2\n      mstore\n      0x20\n      add\n      swap1\n      dup2\n      mstore\n      0x20\n      add\n      0x00\n      keccak256\n        /* \"contracts/Escrow.sol\":2391:2392  i */\n      dup3\n        /* \"contracts/Escrow.sol\":2369:2393  rollbackAddresses[to][i] */\n      dup2\n      sload\n      dup2\n      lt\n      tag_70\n      jumpi\n      tag_71\n      tag_72\n      jump\t// in\n    tag_71:\n    tag_70:\n      swap1\n      0x00\n      mstore\n      keccak256(0x00, 0x20)\n      add\n      0x00\n      swap1\n      sload\n      swap1\n      0x0100\n      exp\n      swap1\n      div\n      0xffffffffffffffffffffffffffffffffffffffff\n      and\n        /* \"contracts/Escrow.sol\":2354:2393  address from = rollbackAddresses[to][i] */\n      swap1\n      pop\n        /* \"contracts/Escrow.sol\":2414:2420  sender */\n      dup5\n        /* \"contracts/Escrow.sol\":2406:2420  from == sender */\n      0xffffffffffffffffffffffffffffffffffffffff\n      and\n        /* \"contracts/Escrow.sol\":2406:2410  from */\n      dup2\n        /* \"contracts/Escrow.sol\":2406:2420  from == sender */\n      0xffffffffffffffffffffffffffffffffffffffff\n      and\n      eq\n        /* \"contracts/Escrow.sol\":2402:2490  if (from == sender) {\r... */\n      iszero\n      tag_74\n      jumpi\n        /* \"contracts/Escrow.sol\":2440:2457  rollbackAddresses */\n      0x01\n        /* \"contracts/Escrow.sol\":2440:2461  rollbackAddresses[to] */\n      0x00\n        /* \"contracts/Escrow.sol\":2458:2460  to */\n      dup8\n        /* \"contracts/Escrow.sol\":2440:2461  rollbackAddresses[to] */\n      0xffffffffffffffffffffffffffffffffffffffff\n      and\n      0xffffffffffffffffffffffffffffffffffffffff\n      and\n      dup2\n      mstore\n      0x20\n      add\n      swap1\n      dup2\n      mstore\n      0x20\n      add\n      0x00\n      keccak256\n        /* \"contracts/Escrow.sol\":2462:2463  i */\n      dup3\n        /* \"contracts/Escrow.sol\":2440:2464  rollbackAddresses[to][i] */\n      dup2\n      sload\n      dup2\n      lt\n      tag_75\n      jumpi\n      tag_76\n      tag_72\n      jump\t// in\n    tag_76:\n    tag_75:\n      swap1\n      0x00\n      mstore\n      keccak256(0x00, 0x20)\n      add\n      0x00\n        /* \"contracts/Escrow.sol\":2433:2464  delete rollbackAddresses[to][i] */\n      0x0100\n      exp\n      dup2\n      sload\n      swap1\n      0xffffffffffffffffffffffffffffffffffffffff\n      mul\n      not\n      and\n      swap1\n      sstore\n        /* \"contracts/Escrow.sol\":2475:2480  break */\n      pop\n      jump(tag_68)\n        /* \"contracts/Escrow.sol\":2402:2490  if (from == sender) {\r... */\n    tag_74:\n        /* \"contracts/Escrow.sol\":2345:2497  {\r... */\n      pop\n        /* \"contracts/Escrow.sol\":2340:2343  i++ */\n      dup1\n      dup1\n      tag_78\n      swap1\n      tag_79\n      jump\t// in\n    tag_78:\n      swap2\n      pop\n      pop\n        /* \"contracts/Escrow.sol\":2286:2497  for (uint256 i = 0; i < rollbackAddresses[to].length; i++) {\r... */\n      jump(tag_67)\n    tag_68:\n      pop\n        /* \"contracts/Escrow.sol\":1776:2502  {\r... */\n      pop\n      pop\n      pop\n        /* \"contracts/Escrow.sol\":1716:2502  function rollbackEther(address payable to) external payable {\r... */\n      pop\n      jump\t// out\n        /* \"contracts/Escrow.sol\":747:1129  function sendEther(address payable to) external payable {\r... */\n    tag_28:\n        /* \"contracts/Escrow.sol\":810:822  address from */\n      0x00\n        /* \"contracts/Escrow.sol\":825:835  msg.sender */\n      caller\n        /* \"contracts/Escrow.sol\":810:835  address from = msg.sender */\n      swap1\n      pop\n        /* \"contracts/Escrow.sol\":842:855  uint256 value */\n      0x00\n        /* \"contracts/Escrow.sol\":858:867  msg.value */\n      callvalue\n        /* \"contracts/Escrow.sol\":842:867  uint256 value = msg.value */\n      swap1\n      pop\n        /* \"contracts/Escrow.sol\":897:902  value */\n      dup1\n        /* \"contracts/Escrow.sol\":874:889  receiverAddress */\n      0x00\n        /* \"contracts/Escrow.sol\":874:893  receiverAddress[to] */\n      dup1\n        /* \"contracts/Escrow.sol\":890:892  to */\n      dup6\n        /* \"contracts/Escrow.sol\":874:893  receiverAddress[to] */\n      0xffffffffffffffffffffffffffffffffffffffff\n      and\n      0xffffffffffffffffffffffffffffffffffffffff\n      and\n      dup2\n      mstore\n      0x20\n      add\n      swap1\n      dup2\n      mstore\n      0x20\n      add\n      0x00\n      keccak256\n      0x00\n        /* \"contracts/Escrow.sol\":874:902  receiverAddress[to] += value */\n      dup3\n      dup3\n      sload\n      tag_81\n      swap2\n      swap1\n      tag_45\n      jump\t// in\n    tag_81:\n      swap3\n      pop\n      pop\n      dup2\n      swap1\n      sstore\n      pop\n        /* \"contracts/Escrow.sol\":914:930  rollbackPossible */\n      0x02\n        /* \"contracts/Escrow.sol\":914:934  rollbackPossible[to] */\n      0x00\n        /* \"contracts/Escrow.sol\":931:933  to */\n      dup5\n        /* \"contracts/Escrow.sol\":914:934  rollbackPossible[to] */\n      0xffffffffffffffffffffffffffffffffffffffff\n      and\n      0xffffffffffffffffffffffffffffffffffffffff\n      and\n      dup2\n      mstore\n      0x20\n      add\n      swap1\n      dup2\n      mstore\n      0x20\n      add\n      0x00\n      keccak256\n        /* \"contracts/Escrow.sol\":914:940  rollbackPossible[to][from] */\n      0x00\n        /* \"contracts/Escrow.sol\":935:939  from */\n      dup4\n        /* \"contracts/Escrow.sol\":914:940  rollbackPossible[to][from] */\n      0xffffffffffffffffffffffffffffffffffffffff\n      and\n      0xffffffffffffffffffffffffffffffffffffffff\n      and\n      dup2\n      mstore\n      0x20\n      add\n      swap1\n      dup2\n      mstore\n      0x20\n      add\n      0x00\n      keccak256\n      0x00\n      swap1\n      sload\n      swap1\n      0x0100\n      exp\n      swap1\n      div\n      0xff\n      and\n        /* \"contracts/Escrow.sol\":909:969  if (!rollbackPossible[to][from]) rollbackValue[to][from] = 0 */\n      tag_82\n      jumpi\n        /* \"contracts/Escrow.sol\":968:969  0 */\n      0x00\n        /* \"contracts/Escrow.sol\":942:955  rollbackValue */\n      0x03\n        /* \"contracts/Escrow.sol\":942:959  rollbackValue[to] */\n      0x00\n        /* \"contracts/Escrow.sol\":956:958  to */\n      dup6\n        /* \"contracts/Escrow.sol\":942:959  rollbackValue[to] */\n      0xffffffffffffffffffffffffffffffffffffffff\n      and\n      0xffffffffffffffffffffffffffffffffffffffff\n      and\n      dup2\n      mstore\n      0x20\n      add\n      swap1\n      dup2\n      mstore\n      0x20\n      add\n      0x00\n      keccak256\n        /* \"contracts/Escrow.sol\":942:965  rollbackValue[to][from] */\n      0x00\n        /* \"contracts/Escrow.sol\":960:964  from */\n      dup5\n        /* \"contracts/Escrow.sol\":942:965  rollbackValue[to][from] */\n      0xffffffffffffffffffffffffffffffffffffffff\n      and\n      0xffffffffffffffffffffffffffffffffffffffff\n      and\n      dup2\n      mstore\n      0x20\n      add\n      swap1\n      dup2\n      mstore\n      0x20\n      add\n      0x00\n      keccak256\n        /* \"contracts/Escrow.sol\":942:969  rollbackValue[to][from] = 0 */\n      dup2\n      swap1\n      sstore\n      pop\n        /* \"contracts/Escrow.sol\":909:969  if (!rollbackPossible[to][from]) rollbackValue[to][from] = 0 */\n    tag_82:\n        /* \"contracts/Escrow.sol\":1003:1008  value */\n      dup1\n        /* \"contracts/Escrow.sol\":976:989  rollbackValue */\n      0x03\n        /* \"contracts/Escrow.sol\":976:993  rollbackValue[to] */\n      0x00\n        /* \"contracts/Escrow.sol\":990:992  to */\n      dup6\n        /* \"contracts/Escrow.sol\":976:993  rollbackValue[to] */\n      0xffffffffffffffffffffffffffffffffffffffff\n      and\n      0xffffffffffffffffffffffffffffffffffffffff\n      and\n      dup2\n      mstore\n      0x20\n      add\n      swap1\n      dup2\n      mstore\n      0x20\n      add\n      0x00\n      keccak256\n        /* \"contracts/Escrow.sol\":976:999  rollbackValue[to][from] */\n      0x00\n        /* \"contracts/Escrow.sol\":994:998  from */\n      dup5\n        /* \"contracts/Escrow.sol\":976:999  rollbackValue[to][from] */\n      0xffffffffffffffffffffffffffffffffffffffff\n      and\n      0xffffffffffffffffffffffffffffffffffffffff\n      and\n      dup2\n      mstore\n      0x20\n      add\n      swap1\n      dup2\n      mstore\n      0x20\n      add\n      0x00\n      keccak256\n      0x00\n        /* \"contracts/Escrow.sol\":976:1008  rollbackValue[to][from] += value */\n      dup3\n      dup3\n      sload\n      tag_83\n      swap2\n      swap1\n      tag_45\n      jump\t// in\n    tag_83:\n      swap3\n      pop\n      pop\n      dup2\n      swap1\n      sstore\n      pop\n        /* \"contracts/Escrow.sol\":1044:1048  true */\n      0x01\n        /* \"contracts/Escrow.sol\":1015:1031  rollbackPossible */\n      0x02\n        /* \"contracts/Escrow.sol\":1015:1035  rollbackPossible[to] */\n      0x00\n        /* \"contracts/Escrow.sol\":1032:1034  to */\n      dup6\n        /* \"contracts/Escrow.sol\":1015:1035  rollbackPossible[to] */\n      0xffffffffffffffffffffffffffffffffffffffff\n      and\n      0xffffffffffffffffffffffffffffffffffffffff\n      and\n      dup2\n      mstore\n      0x20\n      add\n      swap1\n      dup2\n      mstore\n      0x20\n      add\n      0x00\n      keccak256\n        /* \"contracts/Escrow.sol\":1015:1041  rollbackPossible[to][from] */\n      0x00\n        /* \"contracts/Escrow.sol\":1036:1040  from */\n      dup5\n        /* \"contracts/Escrow.sol\":1015:1041  rollbackPossible[to][from] */\n      0xffffffffffffffffffffffffffffffffffffffff\n      and\n      0xffffffffffffffffffffffffffffffffffffffff\n      and\n      dup2\n      mstore\n      0x20\n      add\n      swap1\n      dup2\n      mstore\n      0x20\n      add\n      0x00\n      keccak256\n      0x00\n        /* \"contracts/Escrow.sol\":1015:1048  rollbackPossible[to][from] = true */\n      0x0100\n      exp\n      dup2\n      sload\n      dup2\n      0xff\n      mul\n      not\n      and\n      swap1\n      dup4\n      iszero\n      iszero\n      mul\n      or\n      swap1\n      sstore\n      pop\n        /* \"contracts/Escrow.sol\":1055:1072  rollbackAddresses */\n      0x01\n        /* \"contracts/Escrow.sol\":1055:1076  rollbackAddresses[to] */\n      0x00\n        /* \"contracts/Escrow.sol\":1073:1075  to */\n      dup5\n        /* \"contracts/Escrow.sol\":1055:1076  rollbackAddresses[to] */\n      0xffffffffffffffffffffffffffffffffffffffff\n      and\n      0xffffffffffffffffffffffffffffffffffffffff\n      and\n      dup2\n      mstore\n      0x20\n      add\n      swap1\n      dup2\n      mstore\n      0x20\n      add\n      0x00\n      keccak256\n        /* \"contracts/Escrow.sol\":1082:1086  from */\n      dup3\n        /* \"contracts/Escrow.sol\":1055:1087  rollbackAddresses[to].push(from) */\n      swap1\n      dup1\n      0x01\n      dup2\n      sload\n      add\n      dup1\n      dup3\n      sstore\n      dup1\n      swap2\n      pop\n      pop\n      0x01\n      swap1\n      sub\n      swap1\n      0x00\n      mstore\n      keccak256(0x00, 0x20)\n      add\n      0x00\n      swap1\n      swap2\n      swap1\n      swap2\n      swap1\n      swap2\n      0x0100\n      exp\n      dup2\n      sload\n      dup2\n      0xffffffffffffffffffffffffffffffffffffffff\n      mul\n      not\n      and\n      swap1\n      dup4\n      0xffffffffffffffffffffffffffffffffffffffff\n      and\n      mul\n      or\n      swap1\n      sstore\n      pop\n        /* \"contracts/Escrow.sol\":1113:1115  to */\n      dup3\n        /* \"contracts/Escrow.sol\":1099:1123  LogSend(from, to, value) */\n      0xffffffffffffffffffffffffffffffffffffffff\n      and\n        /* \"contracts/Escrow.sol\":1107:1111  from */\n      dup3\n        /* \"contracts/Escrow.sol\":1099:1123  LogSend(from, to, value) */\n      0xffffffffffffffffffffffffffffffffffffffff\n      and\n      0xa343f361112b028dae2501770614271723be1d24c9f64fed2d4bd3ddf1c13e35\n        /* \"contracts/Escrow.sol\":1117:1122  value */\n      dup4\n        /* \"contracts/Escrow.sol\":1099:1123  LogSend(from, to, value) */\n      mload(0x40)\n      tag_85\n      swap2\n      swap1\n      tag_42\n      jump\t// in\n    tag_85:\n      mload(0x40)\n      dup1\n      swap2\n      sub\n      swap1\n      log3\n        /* \"contracts/Escrow.sol\":803:1129  {\r... */\n      pop\n      pop\n        /* \"contracts/Escrow.sol\":747:1129  function sendEther(address payable to) external payable {\r... */\n      pop\n      jump\t// out\n        /* \"contracts/Escrow.sol\":1135:1710  function withdrawEther() external payable {\r... */\n    tag_30:\n        /* \"contracts/Escrow.sol\":1184:1202  address payable to */\n      0x00\n        /* \"contracts/Escrow.sol\":1213:1223  msg.sender */\n      caller\n        /* \"contracts/Escrow.sol\":1184:1224  address payable to = payable(msg.sender) */\n      swap1\n      pop\n        /* \"contracts/Escrow.sol\":1231:1245  uint256 _value */\n      0x00\n        /* \"contracts/Escrow.sol\":1248:1263  receiverAddress */\n      dup1\n        /* \"contracts/Escrow.sol\":1248:1267  receiverAddress[to] */\n      0x00\n        /* \"contracts/Escrow.sol\":1264:1266  to */\n      dup4\n        /* \"contracts/Escrow.sol\":1248:1267  receiverAddress[to] */\n      0xffffffffffffffffffffffffffffffffffffffff\n      and\n      0xffffffffffffffffffffffffffffffffffffffff\n      and\n      dup2\n      mstore\n      0x20\n      add\n      swap1\n      dup2\n      mstore\n      0x20\n      add\n      0x00\n      keccak256\n      sload\n        /* \"contracts/Escrow.sol\":1231:1267  uint256 _value = receiverAddress[to] */\n      swap1\n      pop\n        /* \"contracts/Escrow.sol\":1292:1293  0 */\n      0x00\n        /* \"contracts/Escrow.sol\":1282:1288  _value */\n      dup2\n        /* \"contracts/Escrow.sol\":1282:1293  _value != 0 */\n      eq\n      iszero\n        /* \"contracts/Escrow.sol\":1274:1331  require(_value != 0, \"You don't have ethers sent to you\") */\n      tag_87\n      jumpi\n      mload(0x40)\n      0x08c379a000000000000000000000000000000000000000000000000000000000\n      dup2\n      mstore\n      0x04\n      add\n      tag_88\n      swap1\n      tag_89\n      jump\t// in\n    tag_88:\n      mload(0x40)\n      dup1\n      swap2\n      sub\n      swap1\n      revert\n    tag_87:\n        /* \"contracts/Escrow.sol\":1339:1348  bool sent */\n      0x00\n        /* \"contracts/Escrow.sol\":1354:1356  to */\n      dup3\n        /* \"contracts/Escrow.sol\":1354:1361  to.call */\n      0xffffffffffffffffffffffffffffffffffffffff\n      and\n        /* \"contracts/Escrow.sol\":1369:1375  _value */\n      dup3\n        /* \"contracts/Escrow.sol\":1354:1380  to.call{value: _value}(\"\") */\n      mload(0x40)\n      tag_90\n      swap1\n      tag_58\n      jump\t// in\n    tag_90:\n      0x00\n      mload(0x40)\n      dup1\n      dup4\n      sub\n      dup2\n      dup6\n      dup8\n      gas\n      call\n      swap3\n      pop\n      pop\n      pop\n      returndatasize\n      dup1\n      0x00\n      dup2\n      eq\n      tag_93\n      jumpi\n      mload(0x40)\n      swap2\n      pop\n      and(add(returndatasize, 0x3f), not(0x1f))\n      dup3\n      add\n      0x40\n      mstore\n      returndatasize\n      dup3\n      mstore\n      returndatasize\n      0x00\n      0x20\n      dup5\n      add\n      returndatacopy\n      jump(tag_92)\n    tag_93:\n      0x60\n      swap2\n      pop\n    tag_92:\n      pop\n        /* \"contracts/Escrow.sol\":1338:1380  (bool sent, ) = to.call{value: _value}(\"\") */\n      pop\n      swap1\n      pop\n        /* \"contracts/Escrow.sol\":1395:1399  sent */\n      dup1\n        /* \"contracts/Escrow.sol\":1387:1424  require(sent, \"Failed to send Ether\") */\n      tag_94\n      jumpi\n      mload(0x40)\n      0x08c379a000000000000000000000000000000000000000000000000000000000\n      dup2\n      mstore\n      0x04\n      add\n      tag_95\n      swap1\n      tag_64\n      jump\t// in\n    tag_95:\n      mload(0x40)\n      dup1\n      swap2\n      sub\n      swap1\n      revert\n    tag_94:\n        /* \"contracts/Escrow.sol\":1438:1453  receiverAddress */\n      0x00\n        /* \"contracts/Escrow.sol\":1438:1457  receiverAddress[to] */\n      dup1\n        /* \"contracts/Escrow.sol\":1454:1456  to */\n      dup5\n        /* \"contracts/Escrow.sol\":1438:1457  receiverAddress[to] */\n      0xffffffffffffffffffffffffffffffffffffffff\n      and\n      0xffffffffffffffffffffffffffffffffffffffff\n      and\n      dup2\n      mstore\n      0x20\n      add\n      swap1\n      dup2\n      mstore\n      0x20\n      add\n      0x00\n      keccak256\n        /* \"contracts/Escrow.sol\":1431:1457  delete receiverAddress[to] */\n      0x00\n      swap1\n      sstore\n        /* \"contracts/Escrow.sol\":1469:1478  uint256 i */\n      0x00\n        /* \"contracts/Escrow.sol\":1464:1662  for (uint256 i = 0; i < rollbackAddresses[to].length; i++) {\r... */\n    tag_96:\n        /* \"contracts/Escrow.sol\":1488:1505  rollbackAddresses */\n      0x01\n        /* \"contracts/Escrow.sol\":1488:1509  rollbackAddresses[to] */\n      0x00\n        /* \"contracts/Escrow.sol\":1506:1508  to */\n      dup6\n        /* \"contracts/Escrow.sol\":1488:1509  rollbackAddresses[to] */\n      0xffffffffffffffffffffffffffffffffffffffff\n      and\n      0xffffffffffffffffffffffffffffffffffffffff\n      and\n      dup2\n      mstore\n      0x20\n      add\n      swap1\n      dup2\n      mstore\n      0x20\n      add\n      0x00\n      keccak256\n        /* \"contracts/Escrow.sol\":1488:1516  rollbackAddresses[to].length */\n      dup1\n      sload\n      swap1\n      pop\n        /* \"contracts/Escrow.sol\":1484:1485  i */\n      dup2\n        /* \"contracts/Escrow.sol\":1484:1516  i < rollbackAddresses[to].length */\n      lt\n        /* \"contracts/Escrow.sol\":1464:1662  for (uint256 i = 0; i < rollbackAddresses[to].length; i++) {\r... */\n      iszero\n      tag_97\n      jumpi\n        /* \"contracts/Escrow.sol\":1532:1544  address from */\n      0x00\n        /* \"contracts/Escrow.sol\":1547:1564  rollbackAddresses */\n      0x01\n        /* \"contracts/Escrow.sol\":1547:1568  rollbackAddresses[to] */\n      0x00\n        /* \"contracts/Escrow.sol\":1565:1567  to */\n      dup7\n        /* \"contracts/Escrow.sol\":1547:1568  rollbackAddresses[to] */\n      0xffffffffffffffffffffffffffffffffffffffff\n      and\n      0xffffffffffffffffffffffffffffffffffffffff\n      and\n      dup2\n      mstore\n      0x20\n      add\n      swap1\n      dup2\n      mstore\n      0x20\n      add\n      0x00\n      keccak256\n        /* \"contracts/Escrow.sol\":1569:1570  i */\n      dup3\n        /* \"contracts/Escrow.sol\":1547:1571  rollbackAddresses[to][i] */\n      dup2\n      sload\n      dup2\n      lt\n      tag_99\n      jumpi\n      tag_100\n      tag_72\n      jump\t// in\n    tag_100:\n    tag_99:\n      swap1\n      0x00\n      mstore\n      keccak256(0x00, 0x20)\n      add\n      0x00\n      swap1\n      sload\n      swap1\n      0x0100\n      exp\n      swap1\n      div\n      0xffffffffffffffffffffffffffffffffffffffff\n      and\n        /* \"contracts/Escrow.sol\":1532:1571  address from = rollbackAddresses[to][i] */\n      swap1\n      pop\n        /* \"contracts/Escrow.sol\":1609:1614  false */\n      0x00\n        /* \"contracts/Escrow.sol\":1580:1596  rollbackPossible */\n      0x02\n        /* \"contracts/Escrow.sol\":1580:1600  rollbackPossible[to] */\n      0x00\n        /* \"contracts/Escrow.sol\":1597:1599  to */\n      dup8\n        /* \"contracts/Escrow.sol\":1580:1600  rollbackPossible[to] */\n      0xffffffffffffffffffffffffffffffffffffffff\n      and\n      0xffffffffffffffffffffffffffffffffffffffff\n      and\n      dup2\n      mstore\n      0x20\n      add\n      swap1\n      dup2\n      mstore\n      0x20\n      add\n      0x00\n      keccak256\n        /* \"contracts/Escrow.sol\":1580:1606  rollbackPossible[to][from] */\n      0x00\n        /* \"contracts/Escrow.sol\":1601:1605  from */\n      dup4\n        /* \"contracts/Escrow.sol\":1580:1606  rollbackPossible[to][from] */\n      0xffffffffffffffffffffffffffffffffffffffff\n      and\n      0xffffffffffffffffffffffffffffffffffffffff\n      and\n      dup2\n      mstore\n      0x20\n      add\n      swap1\n      dup2\n      mstore\n      0x20\n      add\n      0x00\n      keccak256\n      0x00\n        /* \"contracts/Escrow.sol\":1580:1614  rollbackPossible[to][from] = false */\n      0x0100\n      exp\n      dup2\n      sload\n      dup2\n      0xff\n      mul\n      not\n      and\n      swap1\n      dup4\n      iszero\n      iszero\n      mul\n      or\n      swap1\n      sstore\n      pop\n        /* \"contracts/Escrow.sol\":1630:1647  rollbackAddresses */\n      0x01\n        /* \"contracts/Escrow.sol\":1630:1651  rollbackAddresses[to] */\n      0x00\n        /* \"contracts/Escrow.sol\":1648:1650  to */\n      dup7\n        /* \"contracts/Escrow.sol\":1630:1651  rollbackAddresses[to] */\n      0xffffffffffffffffffffffffffffffffffffffff\n      and\n      0xffffffffffffffffffffffffffffffffffffffff\n      and\n      dup2\n      mstore\n      0x20\n      add\n      swap1\n      dup2\n      mstore\n      0x20\n      add\n      0x00\n      keccak256\n        /* \"contracts/Escrow.sol\":1652:1653  i */\n      dup3\n        /* \"contracts/Escrow.sol\":1630:1654  rollbackAddresses[to][i] */\n      dup2\n      sload\n      dup2\n      lt\n      tag_102\n      jumpi\n      tag_103\n      tag_72\n      jump\t// in\n    tag_103:\n    tag_102:\n      swap1\n      0x00\n      mstore\n      keccak256(0x00, 0x20)\n      add\n      0x00\n        /* \"contracts/Escrow.sol\":1623:1654  delete rollbackAddresses[to][i] */\n      0x0100\n      exp\n      dup2\n      sload\n      swap1\n      0xffffffffffffffffffffffffffffffffffffffff\n      mul\n      not\n      and\n      swap1\n      sstore\n        /* \"contracts/Escrow.sol\":1523:1662  {\r... */\n      pop\n        /* \"contracts/Escrow.sol\":1518:1521  i++ */\n      dup1\n      dup1\n      tag_105\n      swap1\n      tag_79\n      jump\t// in\n    tag_105:\n      swap2\n      pop\n      pop\n        /* \"contracts/Escrow.sol\":1464:1662  for (uint256 i = 0; i < rollbackAddresses[to].length; i++) {\r... */\n      jump(tag_96)\n    tag_97:\n      pop\n        /* \"contracts/Escrow.sol\":1685:1695  msg.sender */\n      caller\n        /* \"contracts/Escrow.sol\":1673:1704  LogWithDraw(msg.sender, _value) */\n      0xffffffffffffffffffffffffffffffffffffffff\n      and\n      0xa74fab966bfc29d4ea7866d609ac5d94324a5fe817362d6a9fee5d2f8df46759\n        /* \"contracts/Escrow.sol\":1697:1703  _value */\n      dup4\n        /* \"contracts/Escrow.sol\":1673:1704  LogWithDraw(msg.sender, _value) */\n      mload(0x40)\n      tag_106\n      swap2\n      swap1\n      tag_42\n      jump\t// in\n    tag_106:\n      mload(0x40)\n      dup1\n      swap2\n      sub\n      swap1\n      log2\n        /* \"contracts/Escrow.sol\":1177:1710  {\r... */\n      pop\n      pop\n      pop\n        /* \"contracts/Escrow.sol\":1135:1710  function withdrawEther() external payable {\r... */\n      jump\t// out\n        /* \"contracts/GLDEsrow.sol\":864:912  function withdrawGLD() public {\r... */\n    tag_33:\n      jump\t// out\n        /* \"contracts/GLDEsrow.sol\":920:978  function rollbackGLD(address payable to) public {\r... */\n    tag_37:\n      pop\n      jump\t// out\n        /* \"contracts/Escrow.sol\":2508:2606  function getEtherBalance() public view returns (uint256) {\r... */\n    tag_40:\n        /* \"contracts/Escrow.sol\":2556:2563  uint256 */\n      0x00\n        /* \"contracts/Escrow.sol\":2579:2600  address(this).balance */\n      selfbalance\n        /* \"contracts/Escrow.sol\":2572:2600  return address(this).balance */\n      swap1\n      pop\n        /* \"contracts/Escrow.sol\":2508:2606  function getEtherBalance() public view returns (uint256) {\r... */\n      swap1\n      jump\t// out\n        /* \"#utility.yul\":7:162   */\n    tag_111:\n        /* \"#utility.yul\":61:66   */\n      0x00\n        /* \"#utility.yul\":99:105   */\n      dup2\n        /* \"#utility.yul\":86:106   */\n      calldataload\n        /* \"#utility.yul\":77:106   */\n      swap1\n      pop\n        /* \"#utility.yul\":115:156   */\n      tag_113\n        /* \"#utility.yul\":150:155   */\n      dup2\n        /* \"#utility.yul\":115:156   */\n      tag_114\n      jump\t// in\n    tag_113:\n        /* \"#utility.yul\":7:162   */\n      swap3\n      swap2\n      pop\n      pop\n      jump\t// out\n        /* \"#utility.yul\":168:307   */\n    tag_115:\n        /* \"#utility.yul\":214:219   */\n      0x00\n        /* \"#utility.yul\":252:258   */\n      dup2\n        /* \"#utility.yul\":239:259   */\n      calldataload\n        /* \"#utility.yul\":230:259   */\n      swap1\n      pop\n        /* \"#utility.yul\":268:301   */\n      tag_117\n        /* \"#utility.yul\":295:300   */\n      dup2\n        /* \"#utility.yul\":268:301   */\n      tag_118\n      jump\t// in\n    tag_117:\n        /* \"#utility.yul\":168:307   */\n      swap3\n      swap2\n      pop\n      pop\n      jump\t// out\n        /* \"#utility.yul\":313:658   */\n    tag_24:\n        /* \"#utility.yul\":380:386   */\n      0x00\n        /* \"#utility.yul\":429:431   */\n      0x20\n        /* \"#utility.yul\":417:426   */\n      dup3\n        /* \"#utility.yul\":408:415   */\n      dup5\n        /* \"#utility.yul\":404:427   */\n      sub\n        /* \"#utility.yul\":400:432   */\n      slt\n        /* \"#utility.yul\":397:516   */\n      iszero\n      tag_120\n      jumpi\n        /* \"#utility.yul\":435:514   */\n      tag_121\n      tag_122\n      jump\t// in\n    tag_121:\n        /* \"#utility.yul\":397:516   */\n    tag_120:\n        /* \"#utility.yul\":555:556   */\n      0x00\n        /* \"#utility.yul\":580:641   */\n      tag_123\n        /* \"#utility.yul\":633:640   */\n      dup5\n        /* \"#utility.yul\":624:630   */\n      dup3\n        /* \"#utility.yul\":613:622   */\n      dup6\n        /* \"#utility.yul\":609:631   */\n      add\n        /* \"#utility.yul\":580:641   */\n      tag_111\n      jump\t// in\n    tag_123:\n        /* \"#utility.yul\":570:641   */\n      swap2\n      pop\n        /* \"#utility.yul\":526:651   */\n      pop\n        /* \"#utility.yul\":313:658   */\n      swap3\n      swap2\n      pop\n      pop\n      jump\t// out\n        /* \"#utility.yul\":664:1154   */\n    tag_20:\n        /* \"#utility.yul\":740:746   */\n      0x00\n        /* \"#utility.yul\":748:754   */\n      dup1\n        /* \"#utility.yul\":797:799   */\n      0x40\n        /* \"#utility.yul\":785:794   */\n      dup4\n        /* \"#utility.yul\":776:783   */\n      dup6\n        /* \"#utility.yul\":772:795   */\n      sub\n        /* \"#utility.yul\":768:800   */\n      slt\n        /* \"#utility.yul\":765:884   */\n      iszero\n      tag_125\n      jumpi\n        /* \"#utility.yul\":803:882   */\n      tag_126\n      tag_122\n      jump\t// in\n    tag_126:\n        /* \"#utility.yul\":765:884   */\n    tag_125:\n        /* \"#utility.yul\":923:924   */\n      0x00\n        /* \"#utility.yul\":948:1009   */\n      tag_127\n        /* \"#utility.yul\":1001:1008   */\n      dup6\n        /* \"#utility.yul\":992:998   */\n      dup3\n        /* \"#utility.yul\":981:990   */\n      dup7\n        /* \"#utility.yul\":977:999   */\n      add\n        /* \"#utility.yul\":948:1009   */\n      tag_111\n      jump\t// in\n    tag_127:\n        /* \"#utility.yul\":938:1009   */\n      swap3\n      pop\n        /* \"#utility.yul\":894:1019   */\n      pop\n        /* \"#utility.yul\":1058:1060   */\n      0x20\n        /* \"#utility.yul\":1084:1137   */\n      tag_128\n        /* \"#utility.yul\":1129:1136   */\n      dup6\n        /* \"#utility.yul\":1120:1126   */\n      dup3\n        /* \"#utility.yul\":1109:1118   */\n      dup7\n        /* \"#utility.yul\":1105:1127   */\n      add\n        /* \"#utility.yul\":1084:1137   */\n      tag_115\n      jump\t// in\n    tag_128:\n        /* \"#utility.yul\":1074:1137   */\n      swap2\n      pop\n        /* \"#utility.yul\":1029:1147   */\n      pop\n        /* \"#utility.yul\":664:1154   */\n      swap3\n      pop\n      swap3\n      swap1\n      pop\n      jump\t// out\n        /* \"#utility.yul\":1160:1526   */\n    tag_129:\n        /* \"#utility.yul\":1302:1305   */\n      0x00\n        /* \"#utility.yul\":1323:1390   */\n      tag_131\n        /* \"#utility.yul\":1387:1389   */\n      0x1f\n        /* \"#utility.yul\":1382:1385   */\n      dup4\n        /* \"#utility.yul\":1323:1390   */\n      tag_132\n      jump\t// in\n    tag_131:\n        /* \"#utility.yul\":1316:1390   */\n      swap2\n      pop\n        /* \"#utility.yul\":1399:1492   */\n      tag_133\n        /* \"#utility.yul\":1488:1491   */\n      dup3\n        /* \"#utility.yul\":1399:1492   */\n      tag_134\n      jump\t// in\n    tag_133:\n        /* \"#utility.yul\":1517:1519   */\n      0x20\n        /* \"#utility.yul\":1512:1515   */\n      dup3\n        /* \"#utility.yul\":1508:1520   */\n      add\n        /* \"#utility.yul\":1501:1520   */\n      swap1\n      pop\n        /* \"#utility.yul\":1160:1526   */\n      swap2\n      swap1\n      pop\n      jump\t// out\n        /* \"#utility.yul\":1532:1898   */\n    tag_135:\n        /* \"#utility.yul\":1674:1677   */\n      0x00\n        /* \"#utility.yul\":1695:1762   */\n      tag_137\n        /* \"#utility.yul\":1759:1761   */\n      0x14\n        /* \"#utility.yul\":1754:1757   */\n      dup4\n        /* \"#utility.yul\":1695:1762   */\n      tag_132\n      jump\t// in\n    tag_137:\n        /* \"#utility.yul\":1688:1762   */\n      swap2\n      pop\n        /* \"#utility.yul\":1771:1864   */\n      tag_138\n        /* \"#utility.yul\":1860:1863   */\n      dup3\n        /* \"#utility.yul\":1771:1864   */\n      tag_139\n      jump\t// in\n    tag_138:\n        /* \"#utility.yul\":1889:1891   */\n      0x20\n        /* \"#utility.yul\":1884:1887   */\n      dup3\n        /* \"#utility.yul\":1880:1892   */\n      add\n        /* \"#utility.yul\":1873:1892   */\n      swap1\n      pop\n        /* \"#utility.yul\":1532:1898   */\n      swap2\n      swap1\n      pop\n      jump\t// out\n        /* \"#utility.yul\":1904:2270   */\n    tag_140:\n        /* \"#utility.yul\":2046:2049   */\n      0x00\n        /* \"#utility.yul\":2067:2134   */\n      tag_142\n        /* \"#utility.yul\":2131:2133   */\n      0x21\n        /* \"#utility.yul\":2126:2129   */\n      dup4\n        /* \"#utility.yul\":2067:2134   */\n      tag_132\n      jump\t// in\n    tag_142:\n        /* \"#utility.yul\":2060:2134   */\n      swap2\n      pop\n        /* \"#utility.yul\":2143:2236   */\n      tag_143\n        /* \"#utility.yul\":2232:2235   */\n      dup3\n        /* \"#utility.yul\":2143:2236   */\n      tag_144\n      jump\t// in\n    tag_143:\n        /* \"#utility.yul\":2261:2263   */\n      0x40\n        /* \"#utility.yul\":2256:2259   */\n      dup3\n        /* \"#utility.yul\":2252:2264   */\n      add\n        /* \"#utility.yul\":2245:2264   */\n      swap1\n      pop\n        /* \"#utility.yul\":1904:2270   */\n      swap2\n      swap1\n      pop\n      jump\t// out\n        /* \"#utility.yul\":2276:2642   */\n    tag_145:\n        /* \"#utility.yul\":2418:2421   */\n      0x00\n        /* \"#utility.yul\":2439:2506   */\n      tag_147\n        /* \"#utility.yul\":2503:2505   */\n      0x45\n        /* \"#utility.yul\":2498:2501   */\n      dup4\n        /* \"#utility.yul\":2439:2506   */\n      tag_132\n      jump\t// in\n    tag_147:\n        /* \"#utility.yul\":2432:2506   */\n      swap2\n      pop\n        /* \"#utility.yul\":2515:2608   */\n      tag_148\n        /* \"#utility.yul\":2604:2607   */\n      dup3\n        /* \"#utility.yul\":2515:2608   */\n      tag_149\n      jump\t// in\n    tag_148:\n        /* \"#utility.yul\":2633:2635   */\n      0x60\n        /* \"#utility.yul\":2628:2631   */\n      dup3\n        /* \"#utility.yul\":2624:2636   */\n      add\n        /* \"#utility.yul\":2617:2636   */\n      swap1\n      pop\n        /* \"#utility.yul\":2276:2642   */\n      swap2\n      swap1\n      pop\n      jump\t// out\n        /* \"#utility.yul\":2648:3046   */\n    tag_150:\n        /* \"#utility.yul\":2807:2810   */\n      0x00\n        /* \"#utility.yul\":2828:2911   */\n      tag_152\n        /* \"#utility.yul\":2909:2910   */\n      0x00\n        /* \"#utility.yul\":2904:2907   */\n      dup4\n        /* \"#utility.yul\":2828:2911   */\n      tag_153\n      jump\t// in\n    tag_152:\n        /* \"#utility.yul\":2821:2911   */\n      swap2\n      pop\n        /* \"#utility.yul\":2920:3013   */\n      tag_154\n        /* \"#utility.yul\":3009:3012   */\n      dup3\n        /* \"#utility.yul\":2920:3013   */\n      tag_155\n      jump\t// in\n    tag_154:\n        /* \"#utility.yul\":3038:3039   */\n      0x00\n        /* \"#utility.yul\":3033:3036   */\n      dup3\n        /* \"#utility.yul\":3029:3040   */\n      add\n        /* \"#utility.yul\":3022:3040   */\n      swap1\n      pop\n        /* \"#utility.yul\":2648:3046   */\n      swap2\n      swap1\n      pop\n      jump\t// out\n        /* \"#utility.yul\":3052:3418   */\n    tag_156:\n        /* \"#utility.yul\":3194:3197   */\n      0x00\n        /* \"#utility.yul\":3215:3282   */\n      tag_158\n        /* \"#utility.yul\":3279:3281   */\n      0x13\n        /* \"#utility.yul\":3274:3277   */\n      dup4\n        /* \"#utility.yul\":3215:3282   */\n      tag_132\n      jump\t// in\n    tag_158:\n        /* \"#utility.yul\":3208:3282   */\n      swap2\n      pop\n        /* \"#utility.yul\":3291:3384   */\n      tag_159\n        /* \"#utility.yul\":3380:3383   */\n      dup3\n        /* \"#utility.yul\":3291:3384   */\n      tag_160\n      jump\t// in\n    tag_159:\n        /* \"#utility.yul\":3409:3411   */\n      0x20\n        /* \"#utility.yul\":3404:3407   */\n      dup3\n        /* \"#utility.yul\":3400:3412   */\n      add\n        /* \"#utility.yul\":3393:3412   */\n      swap1\n      pop\n        /* \"#utility.yul\":3052:3418   */\n      swap2\n      swap1\n      pop\n      jump\t// out\n        /* \"#utility.yul\":3424:3542   */\n    tag_161:\n        /* \"#utility.yul\":3511:3535   */\n      tag_163\n        /* \"#utility.yul\":3529:3534   */\n      dup2\n        /* \"#utility.yul\":3511:3535   */\n      tag_164\n      jump\t// in\n    tag_163:\n        /* \"#utility.yul\":3506:3509   */\n      dup3\n        /* \"#utility.yul\":3499:3536   */\n      mstore\n        /* \"#utility.yul\":3424:3542   */\n      pop\n      pop\n      jump\t// out\n        /* \"#utility.yul\":3548:3927   */\n    tag_58:\n        /* \"#utility.yul\":3732:3735   */\n      0x00\n        /* \"#utility.yul\":3754:3901   */\n      tag_166\n        /* \"#utility.yul\":3897:3900   */\n      dup3\n        /* \"#utility.yul\":3754:3901   */\n      tag_150\n      jump\t// in\n    tag_166:\n        /* \"#utility.yul\":3747:3901   */\n      swap2\n      pop\n        /* \"#utility.yul\":3918:3921   */\n      dup2\n        /* \"#utility.yul\":3911:3921   */\n      swap1\n      pop\n        /* \"#utility.yul\":3548:3927   */\n      swap2\n      swap1\n      pop\n      jump\t// out\n        /* \"#utility.yul\":3933:4352   */\n    tag_16:\n        /* \"#utility.yul\":4099:4103   */\n      0x00\n        /* \"#utility.yul\":4137:4139   */\n      0x20\n        /* \"#utility.yul\":4126:4135   */\n      dup3\n        /* \"#utility.yul\":4122:4140   */\n      add\n        /* \"#utility.yul\":4114:4140   */\n      swap1\n      pop\n        /* \"#utility.yul\":4186:4195   */\n      dup2\n        /* \"#utility.yul\":4180:4184   */\n      dup2\n        /* \"#utility.yul\":4176:4196   */\n      sub\n        /* \"#utility.yul\":4172:4173   */\n      0x00\n        /* \"#utility.yul\":4161:4170   */\n      dup4\n        /* \"#utility.yul\":4157:4174   */\n      add\n        /* \"#utility.yul\":4150:4197   */\n      mstore\n        /* \"#utility.yul\":4214:4345   */\n      tag_168\n        /* \"#utility.yul\":4340:4344   */\n      dup2\n        /* \"#utility.yul\":4214:4345   */\n      tag_129\n      jump\t// in\n    tag_168:\n        /* \"#utility.yul\":4206:4345   */\n      swap1\n      pop\n        /* \"#utility.yul\":3933:4352   */\n      swap2\n      swap1\n      pop\n      jump\t// out\n        /* \"#utility.yul\":4358:4777   */\n    tag_64:\n        /* \"#utility.yul\":4524:4528   */\n      0x00\n        /* \"#utility.yul\":4562:4564   */\n      0x20\n        /* \"#utility.yul\":4551:4560   */\n      dup3\n        /* \"#utility.yul\":4547:4565   */\n      add\n        /* \"#utility.yul\":4539:4565   */\n      swap1\n      pop\n        /* \"#utility.yul\":4611:4620   */\n      dup2\n        /* \"#utility.yul\":4605:4609   */\n      dup2\n        /* \"#utility.yul\":4601:4621   */\n      sub\n        /* \"#utility.yul\":4597:4598   */\n      0x00\n        /* \"#utility.yul\":4586:4595   */\n      dup4\n        /* \"#utility.yul\":4582:4599   */\n      add\n        /* \"#utility.yul\":4575:4622   */\n      mstore\n        /* \"#utility.yul\":4639:4770   */\n      tag_170\n        /* \"#utility.yul\":4765:4769   */\n      dup2\n        /* \"#utility.yul\":4639:4770   */\n      tag_135\n      jump\t// in\n    tag_170:\n        /* \"#utility.yul\":4631:4770   */\n      swap1\n      pop\n        /* \"#utility.yul\":4358:4777   */\n      swap2\n      swap1\n      pop\n      jump\t// out\n        /* \"#utility.yul\":4783:5202   */\n    tag_89:\n        /* \"#utility.yul\":4949:4953   */\n      0x00\n        /* \"#utility.yul\":4987:4989   */\n      0x20\n        /* \"#utility.yul\":4976:4985   */\n      dup3\n        /* \"#utility.yul\":4972:4990   */\n      add\n        /* \"#utility.yul\":4964:4990   */\n      swap1\n      pop\n        /* \"#utility.yul\":5036:5045   */\n      dup2\n        /* \"#utility.yul\":5030:5034   */\n      dup2\n        /* \"#utility.yul\":5026:5046   */\n      sub\n        /* \"#utility.yul\":5022:5023   */\n      0x00\n        /* \"#utility.yul\":5011:5020   */\n      dup4\n        /* \"#utility.yul\":5007:5024   */\n      add\n        /* \"#utility.yul\":5000:5047   */\n      mstore\n        /* \"#utility.yul\":5064:5195   */\n      tag_172\n        /* \"#utility.yul\":5190:5194   */\n      dup2\n        /* \"#utility.yul\":5064:5195   */\n      tag_140\n      jump\t// in\n    tag_172:\n        /* \"#utility.yul\":5056:5195   */\n      swap1\n      pop\n        /* \"#utility.yul\":4783:5202   */\n      swap2\n      swap1\n      pop\n      jump\t// out\n        /* \"#utility.yul\":5208:5627   */\n    tag_53:\n        /* \"#utility.yul\":5374:5378   */\n      0x00\n        /* \"#utility.yul\":5412:5414   */\n      0x20\n        /* \"#utility.yul\":5401:5410   */\n      dup3\n        /* \"#utility.yul\":5397:5415   */\n      add\n        /* \"#utility.yul\":5389:5415   */\n      swap1\n      pop\n        /* \"#utility.yul\":5461:5470   */\n      dup2\n        /* \"#utility.yul\":5455:5459   */\n      dup2\n        /* \"#utility.yul\":5451:5471   */\n      sub\n        /* \"#utility.yul\":5447:5448   */\n      0x00\n        /* \"#utility.yul\":5436:5445   */\n      dup4\n        /* \"#utility.yul\":5432:5449   */\n      add\n        /* \"#utility.yul\":5425:5472   */\n      mstore\n        /* \"#utility.yul\":5489:5620   */\n      tag_174\n        /* \"#utility.yul\":5615:5619   */\n      dup2\n        /* \"#utility.yul\":5489:5620   */\n      tag_145\n      jump\t// in\n    tag_174:\n        /* \"#utility.yul\":5481:5620   */\n      swap1\n      pop\n        /* \"#utility.yul\":5208:5627   */\n      swap2\n      swap1\n      pop\n      jump\t// out\n        /* \"#utility.yul\":5633:6052   */\n    tag_56:\n        /* \"#utility.yul\":5799:5803   */\n      0x00\n        /* \"#utility.yul\":5837:5839   */\n      0x20\n        /* \"#utility.yul\":5826:5835   */\n      dup3\n        /* \"#utility.yul\":5822:5840   */\n      add\n        /* \"#utility.yul\":5814:5840   */\n      swap1\n      pop\n        /* \"#utility.yul\":5886:5895   */\n      dup2\n        /* \"#utility.yul\":5880:5884   */\n      dup2\n        /* \"#utility.yul\":5876:5896   */\n      sub\n        /* \"#utility.yul\":5872:5873   */\n      0x00\n        /* \"#utility.yul\":5861:5870   */\n      dup4\n        /* \"#utility.yul\":5857:5874   */\n      add\n        /* \"#utility.yul\":5850:5897   */\n      mstore\n        /* \"#utility.yul\":5914:6045   */\n      tag_176\n        /* \"#utility.yul\":6040:6044   */\n      dup2\n        /* \"#utility.yul\":5914:6045   */\n      tag_156\n      jump\t// in\n    tag_176:\n        /* \"#utility.yul\":5906:6045   */\n      swap1\n      pop\n        /* \"#utility.yul\":5633:6052   */\n      swap2\n      swap1\n      pop\n      jump\t// out\n        /* \"#utility.yul\":6058:6280   */\n    tag_42:\n        /* \"#utility.yul\":6151:6155   */\n      0x00\n        /* \"#utility.yul\":6189:6191   */\n      0x20\n        /* \"#utility.yul\":6178:6187   */\n      dup3\n        /* \"#utility.yul\":6174:6192   */\n      add\n        /* \"#utility.yul\":6166:6192   */\n      swap1\n      pop\n        /* \"#utility.yul\":6202:6273   */\n      tag_178\n        /* \"#utility.yul\":6270:6271   */\n      0x00\n        /* \"#utility.yul\":6259:6268   */\n      dup4\n        /* \"#utility.yul\":6255:6272   */\n      add\n        /* \"#utility.yul\":6246:6252   */\n      dup5\n        /* \"#utility.yul\":6202:6273   */\n      tag_161\n      jump\t// in\n    tag_178:\n        /* \"#utility.yul\":6058:6280   */\n      swap3\n      swap2\n      pop\n      pop\n      jump\t// out\n        /* \"#utility.yul\":6367:6514   */\n    tag_153:\n        /* \"#utility.yul\":6468:6479   */\n      0x00\n        /* \"#utility.yul\":6505:6508   */\n      dup2\n        /* \"#utility.yul\":6490:6508   */\n      swap1\n      pop\n        /* \"#utility.yul\":6367:6514   */\n      swap3\n      swap2\n      pop\n      pop\n      jump\t// out\n        /* \"#utility.yul\":6520:6689   */\n    tag_132:\n        /* \"#utility.yul\":6604:6615   */\n      0x00\n        /* \"#utility.yul\":6638:6644   */\n      dup3\n        /* \"#utility.yul\":6633:6636   */\n      dup3\n        /* \"#utility.yul\":6626:6645   */\n      mstore\n        /* \"#utility.yul\":6678:6682   */\n      0x20\n        /* \"#utility.yul\":6673:6676   */\n      dup3\n        /* \"#utility.yul\":6669:6683   */\n      add\n        /* \"#utility.yul\":6654:6683   */\n      swap1\n      pop\n        /* \"#utility.yul\":6520:6689   */\n      swap3\n      swap2\n      pop\n      pop\n      jump\t// out\n        /* \"#utility.yul\":6695:7000   */\n    tag_45:\n        /* \"#utility.yul\":6735:6738   */\n      0x00\n        /* \"#utility.yul\":6754:6774   */\n      tag_184\n        /* \"#utility.yul\":6772:6773   */\n      dup3\n        /* \"#utility.yul\":6754:6774   */\n      tag_164\n      jump\t// in\n    tag_184:\n        /* \"#utility.yul\":6749:6774   */\n      swap2\n      pop\n        /* \"#utility.yul\":6788:6808   */\n      tag_185\n        /* \"#utility.yul\":6806:6807   */\n      dup4\n        /* \"#utility.yul\":6788:6808   */\n      tag_164\n      jump\t// in\n    tag_185:\n        /* \"#utility.yul\":6783:6808   */\n      swap3\n      pop\n        /* \"#utility.yul\":6942:6943   */\n      dup3\n        /* \"#utility.yul\":6874:6940   */\n      0xffffffffffffffffffffffffffffffffffffffffffffffffffffffffffffffff\n        /* \"#utility.yul\":6870:6944   */\n      sub\n        /* \"#utility.yul\":6867:6868   */\n      dup3\n        /* \"#utility.yul\":6864:6945   */\n      gt\n        /* \"#utility.yul\":6861:6968   */\n      iszero\n      tag_186\n      jumpi\n        /* \"#utility.yul\":6948:6966   */\n      tag_187\n      tag_188\n      jump\t// in\n    tag_187:\n        /* \"#utility.yul\":6861:6968   */\n    tag_186:\n        /* \"#utility.yul\":6992:6993   */\n      dup3\n        /* \"#utility.yul\":6989:6990   */\n      dup3\n        /* \"#utility.yul\":6985:6994   */\n      add\n        /* \"#utility.yul\":6978:6994   */\n      swap1\n      pop\n        /* \"#utility.yul\":6695:7000   */\n      swap3\n      swap2\n      pop\n      pop\n      jump\t// out\n        /* \"#utility.yul\":7006:7197   */\n    tag_66:\n        /* \"#utility.yul\":7046:7050   */\n      0x00\n        /* \"#utility.yul\":7066:7086   */\n      tag_190\n        /* \"#utility.yul\":7084:7085   */\n      dup3\n        /* \"#utility.yul\":7066:7086   */\n      tag_164\n      jump\t// in\n    tag_190:\n        /* \"#utility.yul\":7061:7086   */\n      swap2\n      pop\n        /* \"#utility.yul\":7100:7120   */\n      tag_191\n        /* \"#utility.yul\":7118:7119   */\n      dup4\n        /* \"#utility.yul\":7100:7120   */\n      tag_164\n      jump\t// in\n    tag_191:\n        /* \"#utility.yul\":7095:7120   */\n      swap3\n      pop\n        /* \"#utility.yul\":7139:7140   */\n      dup3\n        /* \"#utility.yul\":7136:7137   */\n      dup3\n        /* \"#utility.yul\":7133:7141   */\n      lt\n        /* \"#utility.yul\":7130:7164   */\n      iszero\n      tag_192\n      jumpi\n        /* \"#utility.yul\":7144:7162   */\n      tag_193\n      tag_188\n      jump\t// in\n    tag_193:\n        /* \"#utility.yul\":7130:7164   */\n    tag_192:\n        /* \"#utility.yul\":7189:7190   */\n      dup3\n        /* \"#utility.yul\":7186:7187   */\n      dup3\n        /* \"#utility.yul\":7182:7191   */\n      sub\n        /* \"#utility.yul\":7174:7191   */\n      swap1\n      pop\n        /* \"#utility.yul\":7006:7197   */\n      swap3\n      swap2\n      pop\n      pop\n      jump\t// out\n        /* \"#utility.yul\":7203:7307   */\n    tag_194:\n        /* \"#utility.yul\":7248:7255   */\n      0x00\n        /* \"#utility.yul\":7277:7301   */\n      tag_196\n        /* \"#utility.yul\":7295:7300   */\n      dup3\n        /* \"#utility.yul\":7277:7301   */\n      tag_197\n      jump\t// in\n    tag_196:\n        /* \"#utility.yul\":7266:7301   */\n      swap1\n      pop\n        /* \"#utility.yul\":7203:7307   */\n      swap2\n      swap1\n      pop\n      jump\t// out\n        /* \"#utility.yul\":7313:7439   */\n    tag_197:\n        /* \"#utility.yul\":7350:7357   */\n      0x00\n        /* \"#utility.yul\":7390:7432   */\n      0xffffffffffffffffffffffffffffffffffffffff\n        /* \"#utility.yul\":7383:7388   */\n      dup3\n        /* \"#utility.yul\":7379:7433   */\n      and\n        /* \"#utility.yul\":7368:7433   */\n      swap1\n      pop\n        /* \"#utility.yul\":7313:7439   */\n      swap2\n      swap1\n      pop\n      jump\t// out\n        /* \"#utility.yul\":7445:7522   */\n    tag_164:\n        /* \"#utility.yul\":7482:7489   */\n      0x00\n        /* \"#utility.yul\":7511:7516   */\n      dup2\n        /* \"#utility.yul\":7500:7516   */\n      swap1\n      pop\n        /* \"#utility.yul\":7445:7522   */\n      swap2\n      swap1\n      pop\n      jump\t// out\n        /* \"#utility.yul\":7528:7761   */\n    tag_79:\n        /* \"#utility.yul\":7567:7570   */\n      0x00\n        /* \"#utility.yul\":7590:7614   */\n      tag_201\n        /* \"#utility.yul\":7608:7613   */\n      dup3\n        /* \"#utility.yul\":7590:7614   */\n      tag_164\n      jump\t// in\n    tag_201:\n        /* \"#utility.yul\":7581:7614   */\n      swap2\n      pop\n        /* \"#utility.yul\":7636:7702   */\n      0xffffffffffffffffffffffffffffffffffffffffffffffffffffffffffffffff\n        /* \"#utility.yul\":7629:7634   */\n      dup3\n        /* \"#utility.yul\":7626:7703   */\n      eq\n        /* \"#utility.yul\":7623:7726   */\n      iszero\n      tag_202\n      jumpi\n        /* \"#utility.yul\":7706:7724   */\n      tag_203\n      tag_188\n      jump\t// in\n    tag_203:\n        /* \"#utility.yul\":7623:7726   */\n    tag_202:\n        /* \"#utility.yul\":7753:7754   */\n      0x01\n        /* \"#utility.yul\":7746:7751   */\n      dup3\n        /* \"#utility.yul\":7742:7755   */\n      add\n        /* \"#utility.yul\":7735:7755   */\n      swap1\n      pop\n        /* \"#utility.yul\":7528:7761   */\n      swap2\n      swap1\n      pop\n      jump\t// out\n        /* \"#utility.yul\":7767:7947   */\n    tag_188:\n        /* \"#utility.yul\":7815:7892   */\n      0x4e487b7100000000000000000000000000000000000000000000000000000000\n        /* \"#utility.yul\":7812:7813   */\n      0x00\n        /* \"#utility.yul\":7805:7893   */\n      mstore\n        /* \"#utility.yul\":7912:7916   */\n      0x11\n        /* \"#utility.yul\":7909:7910   */\n      0x04\n        /* \"#utility.yul\":7902:7917   */\n      mstore\n        /* \"#utility.yul\":7936:7940   */\n      0x24\n        /* \"#utility.yul\":7933:7934   */\n      0x00\n        /* \"#utility.yul\":7926:7941   */\n      revert\n        /* \"#utility.yul\":7953:8133   */\n    tag_72:\n        /* \"#utility.yul\":8001:8078   */\n      0x4e487b7100000000000000000000000000000000000000000000000000000000\n        /* \"#utility.yul\":7998:7999   */\n      0x00\n        /* \"#utility.yul\":7991:8079   */\n      mstore\n        /* \"#utility.yul\":8098:8102   */\n      0x32\n        /* \"#utility.yul\":8095:8096   */\n      0x04\n        /* \"#utility.yul\":8088:8103   */\n      mstore\n        /* \"#utility.yul\":8122:8126   */\n      0x24\n        /* \"#utility.yul\":8119:8120   */\n      0x00\n        /* \"#utility.yul\":8112:8127   */\n      revert\n        /* \"#utility.yul\":8262:8379   */\n    tag_122:\n        /* \"#utility.yul\":8371:8372   */\n      0x00\n        /* \"#utility.yul\":8368:8369   */\n      dup1\n        /* \"#utility.yul\":8361:8373   */\n      revert\n        /* \"#utility.yul\":8385:8566   */\n    tag_134:\n        /* \"#utility.yul\":8525:8558   */\n      0x63616c6c206f662061206e6f6e2d6578697374656e742066756e6374696f6e00\n        /* \"#utility.yul\":8521:8522   */\n      0x00\n        /* \"#utility.yul\":8513:8519   */\n      dup3\n        /* \"#utility.yul\":8509:8523   */\n      add\n        /* \"#utility.yul\":8502:8559   */\n      mstore\n        /* \"#utility.yul\":8385:8566   */\n      pop\n      jump\t// out\n        /* \"#utility.yul\":8572:8742   */\n    tag_139:\n        /* \"#utility.yul\":8712:8734   */\n      0x4661696c656420746f2073656e64204574686572000000000000000000000000\n        /* \"#utility.yul\":8708:8709   */\n      0x00\n        /* \"#utility.yul\":8700:8706   */\n      dup3\n        /* \"#utility.yul\":8696:8710   */\n      add\n        /* \"#utility.yul\":8689:8735   */\n      mstore\n        /* \"#utility.yul\":8572:8742   */\n      pop\n      jump\t// out\n        /* \"#utility.yul\":8748:8968   */\n    tag_144:\n        /* \"#utility.yul\":8888:8922   */\n      0x596f7520646f6e27742068617665206574686572732073656e7420746f20796f\n        /* \"#utility.yul\":8884:8885   */\n      0x00\n        /* \"#utility.yul\":8876:8882   */\n      dup3\n        /* \"#utility.yul\":8872:8886   */\n      add\n        /* \"#utility.yul\":8865:8923   */\n      mstore\n        /* \"#utility.yul\":8957:8960   */\n      0x7500000000000000000000000000000000000000000000000000000000000000\n        /* \"#utility.yul\":8952:8954   */\n      0x20\n        /* \"#utility.yul\":8944:8950   */\n      dup3\n        /* \"#utility.yul\":8940:8955   */\n      add\n        /* \"#utility.yul\":8933:8961   */\n      mstore\n        /* \"#utility.yul\":8748:8968   */\n      pop\n      jump\t// out\n        /* \"#utility.yul\":8974:9267   */\n    tag_149:\n        /* \"#utility.yul\":9114:9148   */\n      0x526f6c6c6261636b206973206e6f7420617661696c61626c6520666f7220796f\n        /* \"#utility.yul\":9110:9111   */\n      0x00\n        /* \"#utility.yul\":9102:9108   */\n      dup3\n        /* \"#utility.yul\":9098:9112   */\n      add\n        /* \"#utility.yul\":9091:9149   */\n      mstore\n        /* \"#utility.yul\":9183:9217   */\n      0x752e20457468657273206d6967687420626520616c7265616479207769746864\n        /* \"#utility.yul\":9178:9180   */\n      0x20\n        /* \"#utility.yul\":9170:9176   */\n      dup3\n        /* \"#utility.yul\":9166:9181   */\n      add\n        /* \"#utility.yul\":9159:9218   */\n      mstore\n        /* \"#utility.yul\":9252:9259   */\n      0x7261776564000000000000000000000000000000000000000000000000000000\n        /* \"#utility.yul\":9247:9249   */\n      0x40\n        /* \"#utility.yul\":9239:9245   */\n      dup3\n        /* \"#utility.yul\":9235:9250   */\n      add\n        /* \"#utility.yul\":9228:9260   */\n      mstore\n        /* \"#utility.yul\":8974:9267   */\n      pop\n      jump\t// out\n        /* \"#utility.yul\":9273:9387   */\n    tag_155:\n      pop\n      jump\t// out\n        /* \"#utility.yul\":9393:9562   */\n    tag_160:\n        /* \"#utility.yul\":9533:9554   */\n      0x526f6c6c6261636b2076616c7565206973203000000000000000000000000000\n        /* \"#utility.yul\":9529:9530   */\n      0x00\n        /* \"#utility.yul\":9521:9527   */\n      dup3\n        /* \"#utility.yul\":9517:9531   */\n      add\n        /* \"#utility.yul\":9510:9555   */\n      mstore\n        /* \"#utility.yul\":9393:9562   */\n      pop\n      jump\t// out\n        /* \"#utility.yul\":9568:9706   */\n    tag_114:\n        /* \"#utility.yul\":9649:9681   */\n      tag_216\n        /* \"#utility.yul\":9675:9680   */\n      dup2\n        /* \"#utility.yul\":9649:9681   */\n      tag_194\n      jump\t// in\n    tag_216:\n        /* \"#utility.yul\":9642:9647   */\n      dup2\n        /* \"#utility.yul\":9639:9682   */\n      eq\n        /* \"#utility.yul\":9629:9700   */\n      tag_217\n      jumpi\n        /* \"#utility.yul\":9696:9697   */\n      0x00\n        /* \"#utility.yul\":9693:9694   */\n      dup1\n        /* \"#utility.yul\":9686:9698   */\n      revert\n        /* \"#utility.yul\":9629:9700   */\n    tag_217:\n        /* \"#utility.yul\":9568:9706   */\n      pop\n      jump\t// out\n        /* \"#utility.yul\":9712:9834   */\n    tag_118:\n        /* \"#utility.yul\":9785:9809   */\n      tag_219\n        /* \"#utility.yul\":9803:9808   */\n      dup2\n        /* \"#utility.yul\":9785:9809   */\n      tag_164\n      jump\t// in\n    tag_219:\n        /* \"#utility.yul\":9778:9783   */\n      dup2\n        /* \"#utility.yul\":9775:9810   */\n      eq\n        /* \"#utility.yul\":9765:9828   */\n      tag_220\n      jumpi\n        /* \"#utility.yul\":9824:9825   */\n      0x00\n        /* \"#utility.yul\":9821:9822   */\n      dup1\n        /* \"#utility.yul\":9814:9826   */\n      revert\n        /* \"#utility.yul\":9765:9828   */\n    tag_220:\n        /* \"#utility.yul\":9712:9834   */\n      pop\n      jump\t// out\n\n    auxdata: 0xa2646970667358221220e74590b2ee6821abb28443896dddf8af6e5e75d3ed0933174027f0c43259c56464736f6c63430008070033\n}\n",
				"bytecode": {
					"linkReferences": {},
					"object": "608060405234801561001057600080fd5b50611762806100206000396000f3fe6080604052600436106100745760003560e01c80637362377b1161004e5780637362377b14610113578063d2472cb61461011d578063e0f4ba1414610134578063ea46193e1461015d5761007b565b80630d335f3d146100b257806336843861146100db57806348c981e2146100f75761007b565b3661007b57005b7f08c379a0afcc32b1a39302f7cb8073359698411ab5fd6e3edb2c02c0b5fba8aa6040516100a890611373565b60405180910390a1005b3480156100be57600080fd5b506100d960048036038101906100d4919061123d565b610188565b005b6100f560048036038101906100f09190611210565b61052c565b005b610111600480360381019061010c9190611210565b610a75565b005b61011b610e17565b005b34801561012957600080fd5b506101326111d9565b005b34801561014057600080fd5b5061015b60048036038101906101569190611210565b6111db565b005b34801561016957600080fd5b506101726111de565b60405161017f9190611413565b60405180910390f35b6000339050600082905080600460008673ffffffffffffffffffffffffffffffffffffffff1673ffffffffffffffffffffffffffffffffffffffff16815260200190815260200160002060008282546101e1919061144a565b92505081905550600660008573ffffffffffffffffffffffffffffffffffffffff1673ffffffffffffffffffffffffffffffffffffffff16815260200190815260200160002060008373ffffffffffffffffffffffffffffffffffffffff1673ffffffffffffffffffffffffffffffffffffffff16815260200190815260200160002060009054906101000a900460ff166102f9576000600760008673ffffffffffffffffffffffffffffffffffffffff1673ffffffffffffffffffffffffffffffffffffffff16815260200190815260200160002060008473ffffffffffffffffffffffffffffffffffffffff1673ffffffffffffffffffffffffffffffffffffffff168152602001908152602001600020819055505b80600760008673ffffffffffffffffffffffffffffffffffffffff1673ffffffffffffffffffffffffffffffffffffffff16815260200190815260200160002060008473ffffffffffffffffffffffffffffffffffffffff1673ffffffffffffffffffffffffffffffffffffffff1681526020019081526020016000206000828254610385919061144a565b925050819055506001600660008673ffffffffffffffffffffffffffffffffffffffff1673ffffffffffffffffffffffffffffffffffffffff16815260200190815260200160002060008473ffffffffffffffffffffffffffffffffffffffff1673ffffffffffffffffffffffffffffffffffffffff16815260200190815260200160002060006101000a81548160ff021916908315150217905550600560008573ffffffffffffffffffffffffffffffffffffffff1673ffffffffffffffffffffffffffffffffffffffff168152602001908152602001600020829080600181540180825580915050600190039060005260206000200160009091909190916101000a81548173ffffffffffffffffffffffffffffffffffffffff021916908373ffffffffffffffffffffffffffffffffffffffff1602179055508373ffffffffffffffffffffffffffffffffffffffff168273ffffffffffffffffffffffffffffffffffffffff167fa343f361112b028dae2501770614271723be1d24c9f64fed2d4bd3ddf1c13e358360405161051e9190611413565b60405180910390a350505050565b6000339050600260008373ffffffffffffffffffffffffffffffffffffffff1673ffffffffffffffffffffffffffffffffffffffff16815260200190815260200160002060008273ffffffffffffffffffffffffffffffffffffffff1673ffffffffffffffffffffffffffffffffffffffff16815260200190815260200160002060009054906101000a900460ff166105fa576040517f08c379a00000000000000000000000000000000000000000000000000000000081526004016105f1906113d3565b60405180910390fd5b6000600360008473ffffffffffffffffffffffffffffffffffffffff1673ffffffffffffffffffffffffffffffffffffffff16815260200190815260200160002060008373ffffffffffffffffffffffffffffffffffffffff1673ffffffffffffffffffffffffffffffffffffffff16815260200190815260200160002054905060008114156106bf576040517f08c379a00000000000000000000000000000000000000000000000000000000081526004016106b6906113f3565b60405180910390fd5b60008273ffffffffffffffffffffffffffffffffffffffff16826040516106e59061135e565b60006040518083038185875af1925050503d8060008114610722576040519150601f19603f3d011682016040523d82523d6000602084013e610727565b606091505b505090508061076b576040517f08c379a000000000000000000000000000000000000000000000000000000000815260040161076290611393565b60405180910390fd5b816000808673ffffffffffffffffffffffffffffffffffffffff1673ffffffffffffffffffffffffffffffffffffffff16815260200190815260200160002060008282546107b991906114a0565b92505081905550600360008573ffffffffffffffffffffffffffffffffffffffff1673ffffffffffffffffffffffffffffffffffffffff16815260200190815260200160002060008473ffffffffffffffffffffffffffffffffffffffff1673ffffffffffffffffffffffffffffffffffffffff168152602001908152602001600020600090556000600260008673ffffffffffffffffffffffffffffffffffffffff1673ffffffffffffffffffffffffffffffffffffffff16815260200190815260200160002060008573ffffffffffffffffffffffffffffffffffffffff1673ffffffffffffffffffffffffffffffffffffffff16815260200190815260200160002060006101000a81548160ff02191690831515021790555060005b600160008673ffffffffffffffffffffffffffffffffffffffff1673ffffffffffffffffffffffffffffffffffffffff16815260200190815260200160002080549050811015610a6e576000600160008773ffffffffffffffffffffffffffffffffffffffff1673ffffffffffffffffffffffffffffffffffffffff168152602001908152602001600020828154811061097557610974611588565b5b9060005260206000200160009054906101000a900473ffffffffffffffffffffffffffffffffffffffff1690508473ffffffffffffffffffffffffffffffffffffffff168173ffffffffffffffffffffffffffffffffffffffff161415610a5a57600160008773ffffffffffffffffffffffffffffffffffffffff1673ffffffffffffffffffffffffffffffffffffffff1681526020019081526020016000208281548110610a2757610a26611588565b5b9060005260206000200160006101000a81549073ffffffffffffffffffffffffffffffffffffffff021916905550610a6e565b508080610a6690611510565b9150506108d8565b5050505050565b60003390506000349050806000808573ffffffffffffffffffffffffffffffffffffffff1673ffffffffffffffffffffffffffffffffffffffff1681526020019081526020016000206000828254610acd919061144a565b92505081905550600260008473ffffffffffffffffffffffffffffffffffffffff1673ffffffffffffffffffffffffffffffffffffffff16815260200190815260200160002060008373ffffffffffffffffffffffffffffffffffffffff1673ffffffffffffffffffffffffffffffffffffffff16815260200190815260200160002060009054906101000a900460ff16610be5576000600360008573ffffffffffffffffffffffffffffffffffffffff1673ffffffffffffffffffffffffffffffffffffffff16815260200190815260200160002060008473ffffffffffffffffffffffffffffffffffffffff1673ffffffffffffffffffffffffffffffffffffffff168152602001908152602001600020819055505b80600360008573ffffffffffffffffffffffffffffffffffffffff1673ffffffffffffffffffffffffffffffffffffffff16815260200190815260200160002060008473ffffffffffffffffffffffffffffffffffffffff1673ffffffffffffffffffffffffffffffffffffffff1681526020019081526020016000206000828254610c71919061144a565b925050819055506001600260008573ffffffffffffffffffffffffffffffffffffffff1673ffffffffffffffffffffffffffffffffffffffff16815260200190815260200160002060008473ffffffffffffffffffffffffffffffffffffffff1673ffffffffffffffffffffffffffffffffffffffff16815260200190815260200160002060006101000a81548160ff021916908315150217905550600160008473ffffffffffffffffffffffffffffffffffffffff1673ffffffffffffffffffffffffffffffffffffffff168152602001908152602001600020829080600181540180825580915050600190039060005260206000200160009091909190916101000a81548173ffffffffffffffffffffffffffffffffffffffff021916908373ffffffffffffffffffffffffffffffffffffffff1602179055508273ffffffffffffffffffffffffffffffffffffffff168273ffffffffffffffffffffffffffffffffffffffff167fa343f361112b028dae2501770614271723be1d24c9f64fed2d4bd3ddf1c13e3583604051610e0a9190611413565b60405180910390a3505050565b600033905060008060008373ffffffffffffffffffffffffffffffffffffffff1673ffffffffffffffffffffffffffffffffffffffff1681526020019081526020016000205490506000811415610ea3576040517f08c379a0000000000000000000000000000000000000000000000000000000008152600401610e9a906113b3565b60405180910390fd5b60008273ffffffffffffffffffffffffffffffffffffffff1682604051610ec99061135e565b60006040518083038185875af1925050503d8060008114610f06576040519150601f19603f3d011682016040523d82523d6000602084013e610f0b565b606091505b5050905080610f4f576040517f08c379a0000000000000000000000000000000000000000000000000000000008152600401610f4690611393565b60405180910390fd5b6000808473ffffffffffffffffffffffffffffffffffffffff1673ffffffffffffffffffffffffffffffffffffffff1681526020019081526020016000206000905560005b600160008573ffffffffffffffffffffffffffffffffffffffff1673ffffffffffffffffffffffffffffffffffffffff16815260200190815260200160002080549050811015611185576000600160008673ffffffffffffffffffffffffffffffffffffffff1673ffffffffffffffffffffffffffffffffffffffff168152602001908152602001600020828154811061103157611030611588565b5b9060005260206000200160009054906101000a900473ffffffffffffffffffffffffffffffffffffffff1690506000600260008773ffffffffffffffffffffffffffffffffffffffff1673ffffffffffffffffffffffffffffffffffffffff16815260200190815260200160002060008373ffffffffffffffffffffffffffffffffffffffff1673ffffffffffffffffffffffffffffffffffffffff16815260200190815260200160002060006101000a81548160ff021916908315150217905550600160008673ffffffffffffffffffffffffffffffffffffffff1673ffffffffffffffffffffffffffffffffffffffff168152602001908152602001600020828154811061114457611143611588565b5b9060005260206000200160006101000a81549073ffffffffffffffffffffffffffffffffffffffff021916905550808061117d90611510565b915050610f94565b503373ffffffffffffffffffffffffffffffffffffffff167fa74fab966bfc29d4ea7866d609ac5d94324a5fe817362d6a9fee5d2f8df46759836040516111cc9190611413565b60405180910390a2505050565b565b50565b600047905090565b6000813590506111f5816116fe565b92915050565b60008135905061120a81611715565b92915050565b600060208284031215611226576112256115b7565b5b6000611234848285016111e6565b91505092915050565b60008060408385031215611254576112536115b7565b5b6000611262858286016111e6565b9250506020611273858286016111fb565b9150509250929050565b600061128a601f83611439565b9150611295826115bc565b602082019050919050565b60006112ad601483611439565b91506112b8826115e5565b602082019050919050565b60006112d0602183611439565b91506112db8261160e565b604082019050919050565b60006112f3604583611439565b91506112fe8261165d565b606082019050919050565b600061131660008361142e565b9150611321826116d2565b600082019050919050565b6000611339601383611439565b9150611344826116d5565b602082019050919050565b61135881611506565b82525050565b600061136982611309565b9150819050919050565b6000602082019050818103600083015261138c8161127d565b9050919050565b600060208201905081810360008301526113ac816112a0565b9050919050565b600060208201905081810360008301526113cc816112c3565b9050919050565b600060208201905081810360008301526113ec816112e6565b9050919050565b6000602082019050818103600083015261140c8161132c565b9050919050565b6000602082019050611428600083018461134f565b92915050565b600081905092915050565b600082825260208201905092915050565b600061145582611506565b915061146083611506565b9250827fffffffffffffffffffffffffffffffffffffffffffffffffffffffffffffffff0382111561149557611494611559565b5b828201905092915050565b60006114ab82611506565b91506114b683611506565b9250828210156114c9576114c8611559565b5b828203905092915050565b60006114df826114e6565b9050919050565b600073ffffffffffffffffffffffffffffffffffffffff82169050919050565b6000819050919050565b600061151b82611506565b91507fffffffffffffffffffffffffffffffffffffffffffffffffffffffffffffffff82141561154e5761154d611559565b5b600182019050919050565b7f4e487b7100000000000000000000000000000000000000000000000000000000600052601160045260246000fd5b7f4e487b7100000000000000000000000000000000000000000000000000000000600052603260045260246000fd5b600080fd5b7f63616c6c206f662061206e6f6e2d6578697374656e742066756e6374696f6e00600082015250565b7f4661696c656420746f2073656e64204574686572000000000000000000000000600082015250565b7f596f7520646f6e27742068617665206574686572732073656e7420746f20796f60008201527f7500000000000000000000000000000000000000000000000000000000000000602082015250565b7f526f6c6c6261636b206973206e6f7420617661696c61626c6520666f7220796f60008201527f752e20457468657273206d6967687420626520616c726561647920776974686460208201527f7261776564000000000000000000000000000000000000000000000000000000604082015250565b50565b7f526f6c6c6261636b2076616c7565206973203000000000000000000000000000600082015250565b611707816114d4565b811461171257600080fd5b50565b61171e81611506565b811461172957600080fd5b5056fea2646970667358221220e74590b2ee6821abb28443896dddf8af6e5e75d3ed0933174027f0c43259c56464736f6c63430008070033",
					"opcodes": "PUSH1 0x80 PUSH1 0x40 MSTORE CALLVALUE DUP1 ISZERO PUSH2 0x10 JUMPI PUSH1 0x0 DUP1 REVERT JUMPDEST POP PUSH2 0x1762 DUP1 PUSH2 0x20 PUSH1 0x0 CODECOPY PUSH1 0x0 RETURN INVALID PUSH1 0x80 PUSH1 0x40 MSTORE PUSH1 0x4 CALLDATASIZE LT PUSH2 0x74 JUMPI PUSH1 0x0 CALLDATALOAD PUSH1 0xE0 SHR DUP1 PUSH4 0x7362377B GT PUSH2 0x4E JUMPI DUP1 PUSH4 0x7362377B EQ PUSH2 0x113 JUMPI DUP1 PUSH4 0xD2472CB6 EQ PUSH2 0x11D JUMPI DUP1 PUSH4 0xE0F4BA14 EQ PUSH2 0x134 JUMPI DUP1 PUSH4 0xEA46193E EQ PUSH2 0x15D JUMPI PUSH2 0x7B JUMP JUMPDEST DUP1 PUSH4 0xD335F3D EQ PUSH2 0xB2 JUMPI DUP1 PUSH4 0x36843861 EQ PUSH2 0xDB JUMPI DUP1 PUSH4 0x48C981E2 EQ PUSH2 0xF7 JUMPI PUSH2 0x7B JUMP JUMPDEST CALLDATASIZE PUSH2 0x7B JUMPI STOP JUMPDEST PUSH32 0x8C379A0AFCC32B1A39302F7CB8073359698411AB5FD6E3EDB2C02C0B5FBA8AA PUSH1 0x40 MLOAD PUSH2 0xA8 SWAP1 PUSH2 0x1373 JUMP JUMPDEST PUSH1 0x40 MLOAD DUP1 SWAP2 SUB SWAP1 LOG1 STOP JUMPDEST CALLVALUE DUP1 ISZERO PUSH2 0xBE JUMPI PUSH1 0x0 DUP1 REVERT JUMPDEST POP PUSH2 0xD9 PUSH1 0x4 DUP1 CALLDATASIZE SUB DUP2 ADD SWAP1 PUSH2 0xD4 SWAP2 SWAP1 PUSH2 0x123D JUMP JUMPDEST PUSH2 0x188 JUMP JUMPDEST STOP JUMPDEST PUSH2 0xF5 PUSH1 0x4 DUP1 CALLDATASIZE SUB DUP2 ADD SWAP1 PUSH2 0xF0 SWAP2 SWAP1 PUSH2 0x1210 JUMP JUMPDEST PUSH2 0x52C JUMP JUMPDEST STOP JUMPDEST PUSH2 0x111 PUSH1 0x4 DUP1 CALLDATASIZE SUB DUP2 ADD SWAP1 PUSH2 0x10C SWAP2 SWAP1 PUSH2 0x1210 JUMP JUMPDEST PUSH2 0xA75 JUMP JUMPDEST STOP JUMPDEST PUSH2 0x11B PUSH2 0xE17 JUMP JUMPDEST STOP JUMPDEST CALLVALUE DUP1 ISZERO PUSH2 0x129 JUMPI PUSH1 0x0 DUP1 REVERT JUMPDEST POP PUSH2 0x132 PUSH2 0x11D9 JUMP JUMPDEST STOP JUMPDEST CALLVALUE DUP1 ISZERO PUSH2 0x140 JUMPI PUSH1 0x0 DUP1 REVERT JUMPDEST POP PUSH2 0x15B PUSH1 0x4 DUP1 CALLDATASIZE SUB DUP2 ADD SWAP1 PUSH2 0x156 SWAP2 SWAP1 PUSH2 0x1210 JUMP JUMPDEST PUSH2 0x11DB JUMP JUMPDEST STOP JUMPDEST CALLVALUE DUP1 ISZERO PUSH2 0x169 JUMPI PUSH1 0x0 DUP1 REVERT JUMPDEST POP PUSH2 0x172 PUSH2 0x11DE JUMP JUMPDEST PUSH1 0x40 MLOAD PUSH2 0x17F SWAP2 SWAP1 PUSH2 0x1413 JUMP JUMPDEST PUSH1 0x40 MLOAD DUP1 SWAP2 SUB SWAP1 RETURN JUMPDEST PUSH1 0x0 CALLER SWAP1 POP PUSH1 0x0 DUP3 SWAP1 POP DUP1 PUSH1 0x4 PUSH1 0x0 DUP7 PUSH20 0xFFFFFFFFFFFFFFFFFFFFFFFFFFFFFFFFFFFFFFFF AND PUSH20 0xFFFFFFFFFFFFFFFFFFFFFFFFFFFFFFFFFFFFFFFF AND DUP2 MSTORE PUSH1 0x20 ADD SWAP1 DUP2 MSTORE PUSH1 0x20 ADD PUSH1 0x0 KECCAK256 PUSH1 0x0 DUP3 DUP3 SLOAD PUSH2 0x1E1 SWAP2 SWAP1 PUSH2 0x144A JUMP JUMPDEST SWAP3 POP POP DUP2 SWAP1 SSTORE POP PUSH1 0x6 PUSH1 0x0 DUP6 PUSH20 0xFFFFFFFFFFFFFFFFFFFFFFFFFFFFFFFFFFFFFFFF AND PUSH20 0xFFFFFFFFFFFFFFFFFFFFFFFFFFFFFFFFFFFFFFFF AND DUP2 MSTORE PUSH1 0x20 ADD SWAP1 DUP2 MSTORE PUSH1 0x20 ADD PUSH1 0x0 KECCAK256 PUSH1 0x0 DUP4 PUSH20 0xFFFFFFFFFFFFFFFFFFFFFFFFFFFFFFFFFFFFFFFF AND PUSH20 0xFFFFFFFFFFFFFFFFFFFFFFFFFFFFFFFFFFFFFFFF AND DUP2 MSTORE PUSH1 0x20 ADD SWAP1 DUP2 MSTORE PUSH1 0x20 ADD PUSH1 0x0 KECCAK256 PUSH1 0x0 SWAP1 SLOAD SWAP1 PUSH2 0x100 EXP SWAP1 DIV PUSH1 0xFF AND PUSH2 0x2F9 JUMPI PUSH1 0x0 PUSH1 0x7 PUSH1 0x0 DUP7 PUSH20 0xFFFFFFFFFFFFFFFFFFFFFFFFFFFFFFFFFFFFFFFF AND PUSH20 0xFFFFFFFFFFFFFFFFFFFFFFFFFFFFFFFFFFFFFFFF AND DUP2 MSTORE PUSH1 0x20 ADD SWAP1 DUP2 MSTORE PUSH1 0x20 ADD PUSH1 0x0 KECCAK256 PUSH1 0x0 DUP5 PUSH20 0xFFFFFFFFFFFFFFFFFFFFFFFFFFFFFFFFFFFFFFFF AND PUSH20 0xFFFFFFFFFFFFFFFFFFFFFFFFFFFFFFFFFFFFFFFF AND DUP2 MSTORE PUSH1 0x20 ADD SWAP1 DUP2 MSTORE PUSH1 0x20 ADD PUSH1 0x0 KECCAK256 DUP2 SWAP1 SSTORE POP JUMPDEST DUP1 PUSH1 0x7 PUSH1 0x0 DUP7 PUSH20 0xFFFFFFFFFFFFFFFFFFFFFFFFFFFFFFFFFFFFFFFF AND PUSH20 0xFFFFFFFFFFFFFFFFFFFFFFFFFFFFFFFFFFFFFFFF AND DUP2 MSTORE PUSH1 0x20 ADD SWAP1 DUP2 MSTORE PUSH1 0x20 ADD PUSH1 0x0 KECCAK256 PUSH1 0x0 DUP5 PUSH20 0xFFFFFFFFFFFFFFFFFFFFFFFFFFFFFFFFFFFFFFFF AND PUSH20 0xFFFFFFFFFFFFFFFFFFFFFFFFFFFFFFFFFFFFFFFF AND DUP2 MSTORE PUSH1 0x20 ADD SWAP1 DUP2 MSTORE PUSH1 0x20 ADD PUSH1 0x0 KECCAK256 PUSH1 0x0 DUP3 DUP3 SLOAD PUSH2 0x385 SWAP2 SWAP1 PUSH2 0x144A JUMP JUMPDEST SWAP3 POP POP DUP2 SWAP1 SSTORE POP PUSH1 0x1 PUSH1 0x6 PUSH1 0x0 DUP7 PUSH20 0xFFFFFFFFFFFFFFFFFFFFFFFFFFFFFFFFFFFFFFFF AND PUSH20 0xFFFFFFFFFFFFFFFFFFFFFFFFFFFFFFFFFFFFFFFF AND DUP2 MSTORE PUSH1 0x20 ADD SWAP1 DUP2 MSTORE PUSH1 0x20 ADD PUSH1 0x0 KECCAK256 PUSH1 0x0 DUP5 PUSH20 0xFFFFFFFFFFFFFFFFFFFFFFFFFFFFFFFFFFFFFFFF AND PUSH20 0xFFFFFFFFFFFFFFFFFFFFFFFFFFFFFFFFFFFFFFFF AND DUP2 MSTORE PUSH1 0x20 ADD SWAP1 DUP2 MSTORE PUSH1 0x20 ADD PUSH1 0x0 KECCAK256 PUSH1 0x0 PUSH2 0x100 EXP DUP2 SLOAD DUP2 PUSH1 0xFF MUL NOT AND SWAP1 DUP4 ISZERO ISZERO MUL OR SWAP1 SSTORE POP PUSH1 0x5 PUSH1 0x0 DUP6 PUSH20 0xFFFFFFFFFFFFFFFFFFFFFFFFFFFFFFFFFFFFFFFF AND PUSH20 0xFFFFFFFFFFFFFFFFFFFFFFFFFFFFFFFFFFFFFFFF AND DUP2 MSTORE PUSH1 0x20 ADD SWAP1 DUP2 MSTORE PUSH1 0x20 ADD PUSH1 0x0 KECCAK256 DUP3 SWAP1 DUP1 PUSH1 0x1 DUP2 SLOAD ADD DUP1 DUP3 SSTORE DUP1 SWAP2 POP POP PUSH1 0x1 SWAP1 SUB SWAP1 PUSH1 0x0 MSTORE PUSH1 0x20 PUSH1 0x0 KECCAK256 ADD PUSH1 0x0 SWAP1 SWAP2 SWAP1 SWAP2 SWAP1 SWAP2 PUSH2 0x100 EXP DUP2 SLOAD DUP2 PUSH20 0xFFFFFFFFFFFFFFFFFFFFFFFFFFFFFFFFFFFFFFFF MUL NOT AND SWAP1 DUP4 PUSH20 0xFFFFFFFFFFFFFFFFFFFFFFFFFFFFFFFFFFFFFFFF AND MUL OR SWAP1 SSTORE POP DUP4 PUSH20 0xFFFFFFFFFFFFFFFFFFFFFFFFFFFFFFFFFFFFFFFF AND DUP3 PUSH20 0xFFFFFFFFFFFFFFFFFFFFFFFFFFFFFFFFFFFFFFFF AND PUSH32 0xA343F361112B028DAE2501770614271723BE1D24C9F64FED2D4BD3DDF1C13E35 DUP4 PUSH1 0x40 MLOAD PUSH2 0x51E SWAP2 SWAP1 PUSH2 0x1413 JUMP JUMPDEST PUSH1 0x40 MLOAD DUP1 SWAP2 SUB SWAP1 LOG3 POP POP POP POP JUMP JUMPDEST PUSH1 0x0 CALLER SWAP1 POP PUSH1 0x2 PUSH1 0x0 DUP4 PUSH20 0xFFFFFFFFFFFFFFFFFFFFFFFFFFFFFFFFFFFFFFFF AND PUSH20 0xFFFFFFFFFFFFFFFFFFFFFFFFFFFFFFFFFFFFFFFF AND DUP2 MSTORE PUSH1 0x20 ADD SWAP1 DUP2 MSTORE PUSH1 0x20 ADD PUSH1 0x0 KECCAK256 PUSH1 0x0 DUP3 PUSH20 0xFFFFFFFFFFFFFFFFFFFFFFFFFFFFFFFFFFFFFFFF AND PUSH20 0xFFFFFFFFFFFFFFFFFFFFFFFFFFFFFFFFFFFFFFFF AND DUP2 MSTORE PUSH1 0x20 ADD SWAP1 DUP2 MSTORE PUSH1 0x20 ADD PUSH1 0x0 KECCAK256 PUSH1 0x0 SWAP1 SLOAD SWAP1 PUSH2 0x100 EXP SWAP1 DIV PUSH1 0xFF AND PUSH2 0x5FA JUMPI PUSH1 0x40 MLOAD PUSH32 0x8C379A000000000000000000000000000000000000000000000000000000000 DUP2 MSTORE PUSH1 0x4 ADD PUSH2 0x5F1 SWAP1 PUSH2 0x13D3 JUMP JUMPDEST PUSH1 0x40 MLOAD DUP1 SWAP2 SUB SWAP1 REVERT JUMPDEST PUSH1 0x0 PUSH1 0x3 PUSH1 0x0 DUP5 PUSH20 0xFFFFFFFFFFFFFFFFFFFFFFFFFFFFFFFFFFFFFFFF AND PUSH20 0xFFFFFFFFFFFFFFFFFFFFFFFFFFFFFFFFFFFFFFFF AND DUP2 MSTORE PUSH1 0x20 ADD SWAP1 DUP2 MSTORE PUSH1 0x20 ADD PUSH1 0x0 KECCAK256 PUSH1 0x0 DUP4 PUSH20 0xFFFFFFFFFFFFFFFFFFFFFFFFFFFFFFFFFFFFFFFF AND PUSH20 0xFFFFFFFFFFFFFFFFFFFFFFFFFFFFFFFFFFFFFFFF AND DUP2 MSTORE PUSH1 0x20 ADD SWAP1 DUP2 MSTORE PUSH1 0x20 ADD PUSH1 0x0 KECCAK256 SLOAD SWAP1 POP PUSH1 0x0 DUP2 EQ ISZERO PUSH2 0x6BF JUMPI PUSH1 0x40 MLOAD PUSH32 0x8C379A000000000000000000000000000000000000000000000000000000000 DUP2 MSTORE PUSH1 0x4 ADD PUSH2 0x6B6 SWAP1 PUSH2 0x13F3 JUMP JUMPDEST PUSH1 0x40 MLOAD DUP1 SWAP2 SUB SWAP1 REVERT JUMPDEST PUSH1 0x0 DUP3 PUSH20 0xFFFFFFFFFFFFFFFFFFFFFFFFFFFFFFFFFFFFFFFF AND DUP3 PUSH1 0x40 MLOAD PUSH2 0x6E5 SWAP1 PUSH2 0x135E JUMP JUMPDEST PUSH1 0x0 PUSH1 0x40 MLOAD DUP1 DUP4 SUB DUP2 DUP6 DUP8 GAS CALL SWAP3 POP POP POP RETURNDATASIZE DUP1 PUSH1 0x0 DUP2 EQ PUSH2 0x722 JUMPI PUSH1 0x40 MLOAD SWAP2 POP PUSH1 0x1F NOT PUSH1 0x3F RETURNDATASIZE ADD AND DUP3 ADD PUSH1 0x40 MSTORE RETURNDATASIZE DUP3 MSTORE RETURNDATASIZE PUSH1 0x0 PUSH1 0x20 DUP5 ADD RETURNDATACOPY PUSH2 0x727 JUMP JUMPDEST PUSH1 0x60 SWAP2 POP JUMPDEST POP POP SWAP1 POP DUP1 PUSH2 0x76B JUMPI PUSH1 0x40 MLOAD PUSH32 0x8C379A000000000000000000000000000000000000000000000000000000000 DUP2 MSTORE PUSH1 0x4 ADD PUSH2 0x762 SWAP1 PUSH2 0x1393 JUMP JUMPDEST PUSH1 0x40 MLOAD DUP1 SWAP2 SUB SWAP1 REVERT JUMPDEST DUP2 PUSH1 0x0 DUP1 DUP7 PUSH20 0xFFFFFFFFFFFFFFFFFFFFFFFFFFFFFFFFFFFFFFFF AND PUSH20 0xFFFFFFFFFFFFFFFFFFFFFFFFFFFFFFFFFFFFFFFF AND DUP2 MSTORE PUSH1 0x20 ADD SWAP1 DUP2 MSTORE PUSH1 0x20 ADD PUSH1 0x0 KECCAK256 PUSH1 0x0 DUP3 DUP3 SLOAD PUSH2 0x7B9 SWAP2 SWAP1 PUSH2 0x14A0 JUMP JUMPDEST SWAP3 POP POP DUP2 SWAP1 SSTORE POP PUSH1 0x3 PUSH1 0x0 DUP6 PUSH20 0xFFFFFFFFFFFFFFFFFFFFFFFFFFFFFFFFFFFFFFFF AND PUSH20 0xFFFFFFFFFFFFFFFFFFFFFFFFFFFFFFFFFFFFFFFF AND DUP2 MSTORE PUSH1 0x20 ADD SWAP1 DUP2 MSTORE PUSH1 0x20 ADD PUSH1 0x0 KECCAK256 PUSH1 0x0 DUP5 PUSH20 0xFFFFFFFFFFFFFFFFFFFFFFFFFFFFFFFFFFFFFFFF AND PUSH20 0xFFFFFFFFFFFFFFFFFFFFFFFFFFFFFFFFFFFFFFFF AND DUP2 MSTORE PUSH1 0x20 ADD SWAP1 DUP2 MSTORE PUSH1 0x20 ADD PUSH1 0x0 KECCAK256 PUSH1 0x0 SWAP1 SSTORE PUSH1 0x0 PUSH1 0x2 PUSH1 0x0 DUP7 PUSH20 0xFFFFFFFFFFFFFFFFFFFFFFFFFFFFFFFFFFFFFFFF AND PUSH20 0xFFFFFFFFFFFFFFFFFFFFFFFFFFFFFFFFFFFFFFFF AND DUP2 MSTORE PUSH1 0x20 ADD SWAP1 DUP2 MSTORE PUSH1 0x20 ADD PUSH1 0x0 KECCAK256 PUSH1 0x0 DUP6 PUSH20 0xFFFFFFFFFFFFFFFFFFFFFFFFFFFFFFFFFFFFFFFF AND PUSH20 0xFFFFFFFFFFFFFFFFFFFFFFFFFFFFFFFFFFFFFFFF AND DUP2 MSTORE PUSH1 0x20 ADD SWAP1 DUP2 MSTORE PUSH1 0x20 ADD PUSH1 0x0 KECCAK256 PUSH1 0x0 PUSH2 0x100 EXP DUP2 SLOAD DUP2 PUSH1 0xFF MUL NOT AND SWAP1 DUP4 ISZERO ISZERO MUL OR SWAP1 SSTORE POP PUSH1 0x0 JUMPDEST PUSH1 0x1 PUSH1 0x0 DUP7 PUSH20 0xFFFFFFFFFFFFFFFFFFFFFFFFFFFFFFFFFFFFFFFF AND PUSH20 0xFFFFFFFFFFFFFFFFFFFFFFFFFFFFFFFFFFFFFFFF AND DUP2 MSTORE PUSH1 0x20 ADD SWAP1 DUP2 MSTORE PUSH1 0x20 ADD PUSH1 0x0 KECCAK256 DUP1 SLOAD SWAP1 POP DUP2 LT ISZERO PUSH2 0xA6E JUMPI PUSH1 0x0 PUSH1 0x1 PUSH1 0x0 DUP8 PUSH20 0xFFFFFFFFFFFFFFFFFFFFFFFFFFFFFFFFFFFFFFFF AND PUSH20 0xFFFFFFFFFFFFFFFFFFFFFFFFFFFFFFFFFFFFFFFF AND DUP2 MSTORE PUSH1 0x20 ADD SWAP1 DUP2 MSTORE PUSH1 0x20 ADD PUSH1 0x0 KECCAK256 DUP3 DUP2 SLOAD DUP2 LT PUSH2 0x975 JUMPI PUSH2 0x974 PUSH2 0x1588 JUMP JUMPDEST JUMPDEST SWAP1 PUSH1 0x0 MSTORE PUSH1 0x20 PUSH1 0x0 KECCAK256 ADD PUSH1 0x0 SWAP1 SLOAD SWAP1 PUSH2 0x100 EXP SWAP1 DIV PUSH20 0xFFFFFFFFFFFFFFFFFFFFFFFFFFFFFFFFFFFFFFFF AND SWAP1 POP DUP5 PUSH20 0xFFFFFFFFFFFFFFFFFFFFFFFFFFFFFFFFFFFFFFFF AND DUP2 PUSH20 0xFFFFFFFFFFFFFFFFFFFFFFFFFFFFFFFFFFFFFFFF AND EQ ISZERO PUSH2 0xA5A JUMPI PUSH1 0x1 PUSH1 0x0 DUP8 PUSH20 0xFFFFFFFFFFFFFFFFFFFFFFFFFFFFFFFFFFFFFFFF AND PUSH20 0xFFFFFFFFFFFFFFFFFFFFFFFFFFFFFFFFFFFFFFFF AND DUP2 MSTORE PUSH1 0x20 ADD SWAP1 DUP2 MSTORE PUSH1 0x20 ADD PUSH1 0x0 KECCAK256 DUP3 DUP2 SLOAD DUP2 LT PUSH2 0xA27 JUMPI PUSH2 0xA26 PUSH2 0x1588 JUMP JUMPDEST JUMPDEST SWAP1 PUSH1 0x0 MSTORE PUSH1 0x20 PUSH1 0x0 KECCAK256 ADD PUSH1 0x0 PUSH2 0x100 EXP DUP2 SLOAD SWAP1 PUSH20 0xFFFFFFFFFFFFFFFFFFFFFFFFFFFFFFFFFFFFFFFF MUL NOT AND SWAP1 SSTORE POP PUSH2 0xA6E JUMP JUMPDEST POP DUP1 DUP1 PUSH2 0xA66 SWAP1 PUSH2 0x1510 JUMP JUMPDEST SWAP2 POP POP PUSH2 0x8D8 JUMP JUMPDEST POP POP POP POP POP JUMP JUMPDEST PUSH1 0x0 CALLER SWAP1 POP PUSH1 0x0 CALLVALUE SWAP1 POP DUP1 PUSH1 0x0 DUP1 DUP6 PUSH20 0xFFFFFFFFFFFFFFFFFFFFFFFFFFFFFFFFFFFFFFFF AND PUSH20 0xFFFFFFFFFFFFFFFFFFFFFFFFFFFFFFFFFFFFFFFF AND DUP2 MSTORE PUSH1 0x20 ADD SWAP1 DUP2 MSTORE PUSH1 0x20 ADD PUSH1 0x0 KECCAK256 PUSH1 0x0 DUP3 DUP3 SLOAD PUSH2 0xACD SWAP2 SWAP1 PUSH2 0x144A JUMP JUMPDEST SWAP3 POP POP DUP2 SWAP1 SSTORE POP PUSH1 0x2 PUSH1 0x0 DUP5 PUSH20 0xFFFFFFFFFFFFFFFFFFFFFFFFFFFFFFFFFFFFFFFF AND PUSH20 0xFFFFFFFFFFFFFFFFFFFFFFFFFFFFFFFFFFFFFFFF AND DUP2 MSTORE PUSH1 0x20 ADD SWAP1 DUP2 MSTORE PUSH1 0x20 ADD PUSH1 0x0 KECCAK256 PUSH1 0x0 DUP4 PUSH20 0xFFFFFFFFFFFFFFFFFFFFFFFFFFFFFFFFFFFFFFFF AND PUSH20 0xFFFFFFFFFFFFFFFFFFFFFFFFFFFFFFFFFFFFFFFF AND DUP2 MSTORE PUSH1 0x20 ADD SWAP1 DUP2 MSTORE PUSH1 0x20 ADD PUSH1 0x0 KECCAK256 PUSH1 0x0 SWAP1 SLOAD SWAP1 PUSH2 0x100 EXP SWAP1 DIV PUSH1 0xFF AND PUSH2 0xBE5 JUMPI PUSH1 0x0 PUSH1 0x3 PUSH1 0x0 DUP6 PUSH20 0xFFFFFFFFFFFFFFFFFFFFFFFFFFFFFFFFFFFFFFFF AND PUSH20 0xFFFFFFFFFFFFFFFFFFFFFFFFFFFFFFFFFFFFFFFF AND DUP2 MSTORE PUSH1 0x20 ADD SWAP1 DUP2 MSTORE PUSH1 0x20 ADD PUSH1 0x0 KECCAK256 PUSH1 0x0 DUP5 PUSH20 0xFFFFFFFFFFFFFFFFFFFFFFFFFFFFFFFFFFFFFFFF AND PUSH20 0xFFFFFFFFFFFFFFFFFFFFFFFFFFFFFFFFFFFFFFFF AND DUP2 MSTORE PUSH1 0x20 ADD SWAP1 DUP2 MSTORE PUSH1 0x20 ADD PUSH1 0x0 KECCAK256 DUP2 SWAP1 SSTORE POP JUMPDEST DUP1 PUSH1 0x3 PUSH1 0x0 DUP6 PUSH20 0xFFFFFFFFFFFFFFFFFFFFFFFFFFFFFFFFFFFFFFFF AND PUSH20 0xFFFFFFFFFFFFFFFFFFFFFFFFFFFFFFFFFFFFFFFF AND DUP2 MSTORE PUSH1 0x20 ADD SWAP1 DUP2 MSTORE PUSH1 0x20 ADD PUSH1 0x0 KECCAK256 PUSH1 0x0 DUP5 PUSH20 0xFFFFFFFFFFFFFFFFFFFFFFFFFFFFFFFFFFFFFFFF AND PUSH20 0xFFFFFFFFFFFFFFFFFFFFFFFFFFFFFFFFFFFFFFFF AND DUP2 MSTORE PUSH1 0x20 ADD SWAP1 DUP2 MSTORE PUSH1 0x20 ADD PUSH1 0x0 KECCAK256 PUSH1 0x0 DUP3 DUP3 SLOAD PUSH2 0xC71 SWAP2 SWAP1 PUSH2 0x144A JUMP JUMPDEST SWAP3 POP POP DUP2 SWAP1 SSTORE POP PUSH1 0x1 PUSH1 0x2 PUSH1 0x0 DUP6 PUSH20 0xFFFFFFFFFFFFFFFFFFFFFFFFFFFFFFFFFFFFFFFF AND PUSH20 0xFFFFFFFFFFFFFFFFFFFFFFFFFFFFFFFFFFFFFFFF AND DUP2 MSTORE PUSH1 0x20 ADD SWAP1 DUP2 MSTORE PUSH1 0x20 ADD PUSH1 0x0 KECCAK256 PUSH1 0x0 DUP5 PUSH20 0xFFFFFFFFFFFFFFFFFFFFFFFFFFFFFFFFFFFFFFFF AND PUSH20 0xFFFFFFFFFFFFFFFFFFFFFFFFFFFFFFFFFFFFFFFF AND DUP2 MSTORE PUSH1 0x20 ADD SWAP1 DUP2 MSTORE PUSH1 0x20 ADD PUSH1 0x0 KECCAK256 PUSH1 0x0 PUSH2 0x100 EXP DUP2 SLOAD DUP2 PUSH1 0xFF MUL NOT AND SWAP1 DUP4 ISZERO ISZERO MUL OR SWAP1 SSTORE POP PUSH1 0x1 PUSH1 0x0 DUP5 PUSH20 0xFFFFFFFFFFFFFFFFFFFFFFFFFFFFFFFFFFFFFFFF AND PUSH20 0xFFFFFFFFFFFFFFFFFFFFFFFFFFFFFFFFFFFFFFFF AND DUP2 MSTORE PUSH1 0x20 ADD SWAP1 DUP2 MSTORE PUSH1 0x20 ADD PUSH1 0x0 KECCAK256 DUP3 SWAP1 DUP1 PUSH1 0x1 DUP2 SLOAD ADD DUP1 DUP3 SSTORE DUP1 SWAP2 POP POP PUSH1 0x1 SWAP1 SUB SWAP1 PUSH1 0x0 MSTORE PUSH1 0x20 PUSH1 0x0 KECCAK256 ADD PUSH1 0x0 SWAP1 SWAP2 SWAP1 SWAP2 SWAP1 SWAP2 PUSH2 0x100 EXP DUP2 SLOAD DUP2 PUSH20 0xFFFFFFFFFFFFFFFFFFFFFFFFFFFFFFFFFFFFFFFF MUL NOT AND SWAP1 DUP4 PUSH20 0xFFFFFFFFFFFFFFFFFFFFFFFFFFFFFFFFFFFFFFFF AND MUL OR SWAP1 SSTORE POP DUP3 PUSH20 0xFFFFFFFFFFFFFFFFFFFFFFFFFFFFFFFFFFFFFFFF AND DUP3 PUSH20 0xFFFFFFFFFFFFFFFFFFFFFFFFFFFFFFFFFFFFFFFF AND PUSH32 0xA343F361112B028DAE2501770614271723BE1D24C9F64FED2D4BD3DDF1C13E35 DUP4 PUSH1 0x40 MLOAD PUSH2 0xE0A SWAP2 SWAP1 PUSH2 0x1413 JUMP JUMPDEST PUSH1 0x40 MLOAD DUP1 SWAP2 SUB SWAP1 LOG3 POP POP POP JUMP JUMPDEST PUSH1 0x0 CALLER SWAP1 POP PUSH1 0x0 DUP1 PUSH1 0x0 DUP4 PUSH20 0xFFFFFFFFFFFFFFFFFFFFFFFFFFFFFFFFFFFFFFFF AND PUSH20 0xFFFFFFFFFFFFFFFFFFFFFFFFFFFFFFFFFFFFFFFF AND DUP2 MSTORE PUSH1 0x20 ADD SWAP1 DUP2 MSTORE PUSH1 0x20 ADD PUSH1 0x0 KECCAK256 SLOAD SWAP1 POP PUSH1 0x0 DUP2 EQ ISZERO PUSH2 0xEA3 JUMPI PUSH1 0x40 MLOAD PUSH32 0x8C379A000000000000000000000000000000000000000000000000000000000 DUP2 MSTORE PUSH1 0x4 ADD PUSH2 0xE9A SWAP1 PUSH2 0x13B3 JUMP JUMPDEST PUSH1 0x40 MLOAD DUP1 SWAP2 SUB SWAP1 REVERT JUMPDEST PUSH1 0x0 DUP3 PUSH20 0xFFFFFFFFFFFFFFFFFFFFFFFFFFFFFFFFFFFFFFFF AND DUP3 PUSH1 0x40 MLOAD PUSH2 0xEC9 SWAP1 PUSH2 0x135E JUMP JUMPDEST PUSH1 0x0 PUSH1 0x40 MLOAD DUP1 DUP4 SUB DUP2 DUP6 DUP8 GAS CALL SWAP3 POP POP POP RETURNDATASIZE DUP1 PUSH1 0x0 DUP2 EQ PUSH2 0xF06 JUMPI PUSH1 0x40 MLOAD SWAP2 POP PUSH1 0x1F NOT PUSH1 0x3F RETURNDATASIZE ADD AND DUP3 ADD PUSH1 0x40 MSTORE RETURNDATASIZE DUP3 MSTORE RETURNDATASIZE PUSH1 0x0 PUSH1 0x20 DUP5 ADD RETURNDATACOPY PUSH2 0xF0B JUMP JUMPDEST PUSH1 0x60 SWAP2 POP JUMPDEST POP POP SWAP1 POP DUP1 PUSH2 0xF4F JUMPI PUSH1 0x40 MLOAD PUSH32 0x8C379A000000000000000000000000000000000000000000000000000000000 DUP2 MSTORE PUSH1 0x4 ADD PUSH2 0xF46 SWAP1 PUSH2 0x1393 JUMP JUMPDEST PUSH1 0x40 MLOAD DUP1 SWAP2 SUB SWAP1 REVERT JUMPDEST PUSH1 0x0 DUP1 DUP5 PUSH20 0xFFFFFFFFFFFFFFFFFFFFFFFFFFFFFFFFFFFFFFFF AND PUSH20 0xFFFFFFFFFFFFFFFFFFFFFFFFFFFFFFFFFFFFFFFF AND DUP2 MSTORE PUSH1 0x20 ADD SWAP1 DUP2 MSTORE PUSH1 0x20 ADD PUSH1 0x0 KECCAK256 PUSH1 0x0 SWAP1 SSTORE PUSH1 0x0 JUMPDEST PUSH1 0x1 PUSH1 0x0 DUP6 PUSH20 0xFFFFFFFFFFFFFFFFFFFFFFFFFFFFFFFFFFFFFFFF AND PUSH20 0xFFFFFFFFFFFFFFFFFFFFFFFFFFFFFFFFFFFFFFFF AND DUP2 MSTORE PUSH1 0x20 ADD SWAP1 DUP2 MSTORE PUSH1 0x20 ADD PUSH1 0x0 KECCAK256 DUP1 SLOAD SWAP1 POP DUP2 LT ISZERO PUSH2 0x1185 JUMPI PUSH1 0x0 PUSH1 0x1 PUSH1 0x0 DUP7 PUSH20 0xFFFFFFFFFFFFFFFFFFFFFFFFFFFFFFFFFFFFFFFF AND PUSH20 0xFFFFFFFFFFFFFFFFFFFFFFFFFFFFFFFFFFFFFFFF AND DUP2 MSTORE PUSH1 0x20 ADD SWAP1 DUP2 MSTORE PUSH1 0x20 ADD PUSH1 0x0 KECCAK256 DUP3 DUP2 SLOAD DUP2 LT PUSH2 0x1031 JUMPI PUSH2 0x1030 PUSH2 0x1588 JUMP JUMPDEST JUMPDEST SWAP1 PUSH1 0x0 MSTORE PUSH1 0x20 PUSH1 0x0 KECCAK256 ADD PUSH1 0x0 SWAP1 SLOAD SWAP1 PUSH2 0x100 EXP SWAP1 DIV PUSH20 0xFFFFFFFFFFFFFFFFFFFFFFFFFFFFFFFFFFFFFFFF AND SWAP1 POP PUSH1 0x0 PUSH1 0x2 PUSH1 0x0 DUP8 PUSH20 0xFFFFFFFFFFFFFFFFFFFFFFFFFFFFFFFFFFFFFFFF AND PUSH20 0xFFFFFFFFFFFFFFFFFFFFFFFFFFFFFFFFFFFFFFFF AND DUP2 MSTORE PUSH1 0x20 ADD SWAP1 DUP2 MSTORE PUSH1 0x20 ADD PUSH1 0x0 KECCAK256 PUSH1 0x0 DUP4 PUSH20 0xFFFFFFFFFFFFFFFFFFFFFFFFFFFFFFFFFFFFFFFF AND PUSH20 0xFFFFFFFFFFFFFFFFFFFFFFFFFFFFFFFFFFFFFFFF AND DUP2 MSTORE PUSH1 0x20 ADD SWAP1 DUP2 MSTORE PUSH1 0x20 ADD PUSH1 0x0 KECCAK256 PUSH1 0x0 PUSH2 0x100 EXP DUP2 SLOAD DUP2 PUSH1 0xFF MUL NOT AND SWAP1 DUP4 ISZERO ISZERO MUL OR SWAP1 SSTORE POP PUSH1 0x1 PUSH1 0x0 DUP7 PUSH20 0xFFFFFFFFFFFFFFFFFFFFFFFFFFFFFFFFFFFFFFFF AND PUSH20 0xFFFFFFFFFFFFFFFFFFFFFFFFFFFFFFFFFFFFFFFF AND DUP2 MSTORE PUSH1 0x20 ADD SWAP1 DUP2 MSTORE PUSH1 0x20 ADD PUSH1 0x0 KECCAK256 DUP3 DUP2 SLOAD DUP2 LT PUSH2 0x1144 JUMPI PUSH2 0x1143 PUSH2 0x1588 JUMP JUMPDEST JUMPDEST SWAP1 PUSH1 0x0 MSTORE PUSH1 0x20 PUSH1 0x0 KECCAK256 ADD PUSH1 0x0 PUSH2 0x100 EXP DUP2 SLOAD SWAP1 PUSH20 0xFFFFFFFFFFFFFFFFFFFFFFFFFFFFFFFFFFFFFFFF MUL NOT AND SWAP1 SSTORE POP DUP1 DUP1 PUSH2 0x117D SWAP1 PUSH2 0x1510 JUMP JUMPDEST SWAP2 POP POP PUSH2 0xF94 JUMP JUMPDEST POP CALLER PUSH20 0xFFFFFFFFFFFFFFFFFFFFFFFFFFFFFFFFFFFFFFFF AND PUSH32 0xA74FAB966BFC29D4EA7866D609AC5D94324A5FE817362D6A9FEE5D2F8DF46759 DUP4 PUSH1 0x40 MLOAD PUSH2 0x11CC SWAP2 SWAP1 PUSH2 0x1413 JUMP JUMPDEST PUSH1 0x40 MLOAD DUP1 SWAP2 SUB SWAP1 LOG2 POP POP POP JUMP JUMPDEST JUMP JUMPDEST POP JUMP JUMPDEST PUSH1 0x0 SELFBALANCE SWAP1 POP SWAP1 JUMP JUMPDEST PUSH1 0x0 DUP2 CALLDATALOAD SWAP1 POP PUSH2 0x11F5 DUP2 PUSH2 0x16FE JUMP JUMPDEST SWAP3 SWAP2 POP POP JUMP JUMPDEST PUSH1 0x0 DUP2 CALLDATALOAD SWAP1 POP PUSH2 0x120A DUP2 PUSH2 0x1715 JUMP JUMPDEST SWAP3 SWAP2 POP POP JUMP JUMPDEST PUSH1 0x0 PUSH1 0x20 DUP3 DUP5 SUB SLT ISZERO PUSH2 0x1226 JUMPI PUSH2 0x1225 PUSH2 0x15B7 JUMP JUMPDEST JUMPDEST PUSH1 0x0 PUSH2 0x1234 DUP5 DUP3 DUP6 ADD PUSH2 0x11E6 JUMP JUMPDEST SWAP2 POP POP SWAP3 SWAP2 POP POP JUMP JUMPDEST PUSH1 0x0 DUP1 PUSH1 0x40 DUP4 DUP6 SUB SLT ISZERO PUSH2 0x1254 JUMPI PUSH2 0x1253 PUSH2 0x15B7 JUMP JUMPDEST JUMPDEST PUSH1 0x0 PUSH2 0x1262 DUP6 DUP3 DUP7 ADD PUSH2 0x11E6 JUMP JUMPDEST SWAP3 POP POP PUSH1 0x20 PUSH2 0x1273 DUP6 DUP3 DUP7 ADD PUSH2 0x11FB JUMP JUMPDEST SWAP2 POP POP SWAP3 POP SWAP3 SWAP1 POP JUMP JUMPDEST PUSH1 0x0 PUSH2 0x128A PUSH1 0x1F DUP4 PUSH2 0x1439 JUMP JUMPDEST SWAP2 POP PUSH2 0x1295 DUP3 PUSH2 0x15BC JUMP JUMPDEST PUSH1 0x20 DUP3 ADD SWAP1 POP SWAP2 SWAP1 POP JUMP JUMPDEST PUSH1 0x0 PUSH2 0x12AD PUSH1 0x14 DUP4 PUSH2 0x1439 JUMP JUMPDEST SWAP2 POP PUSH2 0x12B8 DUP3 PUSH2 0x15E5 JUMP JUMPDEST PUSH1 0x20 DUP3 ADD SWAP1 POP SWAP2 SWAP1 POP JUMP JUMPDEST PUSH1 0x0 PUSH2 0x12D0 PUSH1 0x21 DUP4 PUSH2 0x1439 JUMP JUMPDEST SWAP2 POP PUSH2 0x12DB DUP3 PUSH2 0x160E JUMP JUMPDEST PUSH1 0x40 DUP3 ADD SWAP1 POP SWAP2 SWAP1 POP JUMP JUMPDEST PUSH1 0x0 PUSH2 0x12F3 PUSH1 0x45 DUP4 PUSH2 0x1439 JUMP JUMPDEST SWAP2 POP PUSH2 0x12FE DUP3 PUSH2 0x165D JUMP JUMPDEST PUSH1 0x60 DUP3 ADD SWAP1 POP SWAP2 SWAP1 POP JUMP JUMPDEST PUSH1 0x0 PUSH2 0x1316 PUSH1 0x0 DUP4 PUSH2 0x142E JUMP JUMPDEST SWAP2 POP PUSH2 0x1321 DUP3 PUSH2 0x16D2 JUMP JUMPDEST PUSH1 0x0 DUP3 ADD SWAP1 POP SWAP2 SWAP1 POP JUMP JUMPDEST PUSH1 0x0 PUSH2 0x1339 PUSH1 0x13 DUP4 PUSH2 0x1439 JUMP JUMPDEST SWAP2 POP PUSH2 0x1344 DUP3 PUSH2 0x16D5 JUMP JUMPDEST PUSH1 0x20 DUP3 ADD SWAP1 POP SWAP2 SWAP1 POP JUMP JUMPDEST PUSH2 0x1358 DUP2 PUSH2 0x1506 JUMP JUMPDEST DUP3 MSTORE POP POP JUMP JUMPDEST PUSH1 0x0 PUSH2 0x1369 DUP3 PUSH2 0x1309 JUMP JUMPDEST SWAP2 POP DUP2 SWAP1 POP SWAP2 SWAP1 POP JUMP JUMPDEST PUSH1 0x0 PUSH1 0x20 DUP3 ADD SWAP1 POP DUP2 DUP2 SUB PUSH1 0x0 DUP4 ADD MSTORE PUSH2 0x138C DUP2 PUSH2 0x127D JUMP JUMPDEST SWAP1 POP SWAP2 SWAP1 POP JUMP JUMPDEST PUSH1 0x0 PUSH1 0x20 DUP3 ADD SWAP1 POP DUP2 DUP2 SUB PUSH1 0x0 DUP4 ADD MSTORE PUSH2 0x13AC DUP2 PUSH2 0x12A0 JUMP JUMPDEST SWAP1 POP SWAP2 SWAP1 POP JUMP JUMPDEST PUSH1 0x0 PUSH1 0x20 DUP3 ADD SWAP1 POP DUP2 DUP2 SUB PUSH1 0x0 DUP4 ADD MSTORE PUSH2 0x13CC DUP2 PUSH2 0x12C3 JUMP JUMPDEST SWAP1 POP SWAP2 SWAP1 POP JUMP JUMPDEST PUSH1 0x0 PUSH1 0x20 DUP3 ADD SWAP1 POP DUP2 DUP2 SUB PUSH1 0x0 DUP4 ADD MSTORE PUSH2 0x13EC DUP2 PUSH2 0x12E6 JUMP JUMPDEST SWAP1 POP SWAP2 SWAP1 POP JUMP JUMPDEST PUSH1 0x0 PUSH1 0x20 DUP3 ADD SWAP1 POP DUP2 DUP2 SUB PUSH1 0x0 DUP4 ADD MSTORE PUSH2 0x140C DUP2 PUSH2 0x132C JUMP JUMPDEST SWAP1 POP SWAP2 SWAP1 POP JUMP JUMPDEST PUSH1 0x0 PUSH1 0x20 DUP3 ADD SWAP1 POP PUSH2 0x1428 PUSH1 0x0 DUP4 ADD DUP5 PUSH2 0x134F JUMP JUMPDEST SWAP3 SWAP2 POP POP JUMP JUMPDEST PUSH1 0x0 DUP2 SWAP1 POP SWAP3 SWAP2 POP POP JUMP JUMPDEST PUSH1 0x0 DUP3 DUP3 MSTORE PUSH1 0x20 DUP3 ADD SWAP1 POP SWAP3 SWAP2 POP POP JUMP JUMPDEST PUSH1 0x0 PUSH2 0x1455 DUP3 PUSH2 0x1506 JUMP JUMPDEST SWAP2 POP PUSH2 0x1460 DUP4 PUSH2 0x1506 JUMP JUMPDEST SWAP3 POP DUP3 PUSH32 0xFFFFFFFFFFFFFFFFFFFFFFFFFFFFFFFFFFFFFFFFFFFFFFFFFFFFFFFFFFFFFFFF SUB DUP3 GT ISZERO PUSH2 0x1495 JUMPI PUSH2 0x1494 PUSH2 0x1559 JUMP JUMPDEST JUMPDEST DUP3 DUP3 ADD SWAP1 POP SWAP3 SWAP2 POP POP JUMP JUMPDEST PUSH1 0x0 PUSH2 0x14AB DUP3 PUSH2 0x1506 JUMP JUMPDEST SWAP2 POP PUSH2 0x14B6 DUP4 PUSH2 0x1506 JUMP JUMPDEST SWAP3 POP DUP3 DUP3 LT ISZERO PUSH2 0x14C9 JUMPI PUSH2 0x14C8 PUSH2 0x1559 JUMP JUMPDEST JUMPDEST DUP3 DUP3 SUB SWAP1 POP SWAP3 SWAP2 POP POP JUMP JUMPDEST PUSH1 0x0 PUSH2 0x14DF DUP3 PUSH2 0x14E6 JUMP JUMPDEST SWAP1 POP SWAP2 SWAP1 POP JUMP JUMPDEST PUSH1 0x0 PUSH20 0xFFFFFFFFFFFFFFFFFFFFFFFFFFFFFFFFFFFFFFFF DUP3 AND SWAP1 POP SWAP2 SWAP1 POP JUMP JUMPDEST PUSH1 0x0 DUP2 SWAP1 POP SWAP2 SWAP1 POP JUMP JUMPDEST PUSH1 0x0 PUSH2 0x151B DUP3 PUSH2 0x1506 JUMP JUMPDEST SWAP2 POP PUSH32 0xFFFFFFFFFFFFFFFFFFFFFFFFFFFFFFFFFFFFFFFFFFFFFFFFFFFFFFFFFFFFFFFF DUP3 EQ ISZERO PUSH2 0x154E JUMPI PUSH2 0x154D PUSH2 0x1559 JUMP JUMPDEST JUMPDEST PUSH1 0x1 DUP3 ADD SWAP1 POP SWAP2 SWAP1 POP JUMP JUMPDEST PUSH32 0x4E487B7100000000000000000000000000000000000000000000000000000000 PUSH1 0x0 MSTORE PUSH1 0x11 PUSH1 0x4 MSTORE PUSH1 0x24 PUSH1 0x0 REVERT JUMPDEST PUSH32 0x4E487B7100000000000000000000000000000000000000000000000000000000 PUSH1 0x0 MSTORE PUSH1 0x32 PUSH1 0x4 MSTORE PUSH1 0x24 PUSH1 0x0 REVERT JUMPDEST PUSH1 0x0 DUP1 REVERT JUMPDEST PUSH32 0x63616C6C206F662061206E6F6E2D6578697374656E742066756E6374696F6E00 PUSH1 0x0 DUP3 ADD MSTORE POP JUMP JUMPDEST PUSH32 0x4661696C656420746F2073656E64204574686572000000000000000000000000 PUSH1 0x0 DUP3 ADD MSTORE POP JUMP JUMPDEST PUSH32 0x596F7520646F6E27742068617665206574686572732073656E7420746F20796F PUSH1 0x0 DUP3 ADD MSTORE PUSH32 0x7500000000000000000000000000000000000000000000000000000000000000 PUSH1 0x20 DUP3 ADD MSTORE POP JUMP JUMPDEST PUSH32 0x526F6C6C6261636B206973206E6F7420617661696C61626C6520666F7220796F PUSH1 0x0 DUP3 ADD MSTORE PUSH32 0x752E20457468657273206D6967687420626520616C7265616479207769746864 PUSH1 0x20 DUP3 ADD MSTORE PUSH32 0x7261776564000000000000000000000000000000000000000000000000000000 PUSH1 0x40 DUP3 ADD MSTORE POP JUMP JUMPDEST POP JUMP JUMPDEST PUSH32 0x526F6C6C6261636B2076616C7565206973203000000000000000000000000000 PUSH1 0x0 DUP3 ADD MSTORE POP JUMP JUMPDEST PUSH2 0x1707 DUP2 PUSH2 0x14D4 JUMP JUMPDEST DUP2 EQ PUSH2 0x1712 JUMPI PUSH1 0x0 DUP1 REVERT JUMPDEST POP JUMP JUMPDEST PUSH2 0x171E DUP2 PUSH2 0x1506 JUMP JUMPDEST DUP2 EQ PUSH2 0x1729 JUMPI PUSH1 0x0 DUP1 REVERT JUMPDEST POP JUMP INVALID LOG2 PUSH5 0x6970667358 0x22 SLT KECCAK256 0xE7 GASLIMIT SWAP1 0xB2 0xEE PUSH9 0x21ABB28443896DDDF8 0xAF PUSH15 0x5E75D3ED0933174027F0C43259C564 PUSH5 0x736F6C6343 STOP ADDMOD SMOD STOP CALLER "
				},
				"gasEstimates": {
					"creation": {
						"codeDepositCost": "1197200",
						"executionCost": "1248",
						"totalCost": "1198448"
					},
					"external": {
						"": "1954",
						"getEtherBalance()": "405",
						"rollbackEther(address)": "infinite",
						"rollbackGLD(address)": "499",
						"sendEther(address)": "infinite",
						"sendGLD(address,uint256)": "infinite",
						"withdrawEther()": "infinite",
						"withdrawGLD()": "166"
					}
				},
				"methodIdentifiers": {
					"getEtherBalance()": "ea46193e",
					"rollbackEther(address)": "36843861",
					"rollbackGLD(address)": "e0f4ba14",
					"sendEther(address)": "48c981e2",
					"sendGLD(address,uint256)": "0d335f3d",
					"withdrawEther()": "7362377b",
					"withdrawGLD()": "d2472cb6"
				}
			},
			"storageLayout": {
				"storage": [
					{
						"astId": 5,
						"contract": "contracts/GLDEsrow.sol:GLDEscrow",
						"label": "receiverAddress",
						"offset": 0,
						"slot": "0",
						"type": "t_mapping(t_address,t_uint256)"
					},
					{
						"astId": 10,
						"contract": "contracts/GLDEsrow.sol:GLDEscrow",
						"label": "rollbackAddresses",
						"offset": 0,
						"slot": "1",
						"type": "t_mapping(t_address,t_array(t_address)dyn_storage)"
					},
					{
						"astId": 16,
						"contract": "contracts/GLDEsrow.sol:GLDEscrow",
						"label": "rollbackPossible",
						"offset": 0,
						"slot": "2",
						"type": "t_mapping(t_address,t_mapping(t_address,t_bool))"
					},
					{
						"astId": 22,
						"contract": "contracts/GLDEsrow.sol:GLDEscrow",
						"label": "rollbackValue",
						"offset": 0,
						"slot": "3",
						"type": "t_mapping(t_address,t_mapping(t_address,t_uint256))"
					},
					{
						"astId": 345,
						"contract": "contracts/GLDEsrow.sol:GLDEscrow",
						"label": "receiverGLDAddress",
						"offset": 0,
						"slot": "4",
						"type": "t_mapping(t_address,t_uint256)"
					},
					{
						"astId": 350,
						"contract": "contracts/GLDEsrow.sol:GLDEscrow",
						"label": "rollbackGLDAddresses",
						"offset": 0,
						"slot": "5",
						"type": "t_mapping(t_address,t_array(t_address)dyn_storage)"
					},
					{
						"astId": 356,
						"contract": "contracts/GLDEsrow.sol:GLDEscrow",
						"label": "rollbackGLDPossible",
						"offset": 0,
						"slot": "6",
						"type": "t_mapping(t_address,t_mapping(t_address,t_bool))"
					},
					{
						"astId": 362,
						"contract": "contracts/GLDEsrow.sol:GLDEscrow",
						"label": "rollbackGLDValue",
						"offset": 0,
						"slot": "7",
						"type": "t_mapping(t_address,t_mapping(t_address,t_uint256))"
					}
				],
				"types": {
					"t_address": {
						"encoding": "inplace",
						"label": "address",
						"numberOfBytes": "20"
					},
					"t_array(t_address)dyn_storage": {
						"base": "t_address",
						"encoding": "dynamic_array",
						"label": "address[]",
						"numberOfBytes": "32"
					},
					"t_bool": {
						"encoding": "inplace",
						"label": "bool",
						"numberOfBytes": "1"
					},
					"t_mapping(t_address,t_array(t_address)dyn_storage)": {
						"encoding": "mapping",
						"key": "t_address",
						"label": "mapping(address => address[])",
						"numberOfBytes": "32",
						"value": "t_array(t_address)dyn_storage"
					},
					"t_mapping(t_address,t_bool)": {
						"encoding": "mapping",
						"key": "t_address",
						"label": "mapping(address => bool)",
						"numberOfBytes": "32",
						"value": "t_bool"
					},
					"t_mapping(t_address,t_mapping(t_address,t_bool))": {
						"encoding": "mapping",
						"key": "t_address",
						"label": "mapping(address => mapping(address => bool))",
						"numberOfBytes": "32",
						"value": "t_mapping(t_address,t_bool)"
					},
					"t_mapping(t_address,t_mapping(t_address,t_uint256))": {
						"encoding": "mapping",
						"key": "t_address",
						"label": "mapping(address => mapping(address => uint256))",
						"numberOfBytes": "32",
						"value": "t_mapping(t_address,t_uint256)"
					},
					"t_mapping(t_address,t_uint256)": {
						"encoding": "mapping",
						"key": "t_address",
						"label": "mapping(address => uint256)",
						"numberOfBytes": "32",
						"value": "t_uint256"
					},
					"t_uint256": {
						"encoding": "inplace",
						"label": "uint256",
						"numberOfBytes": "32"
					}
				}
			},
			"userdoc": {
				"kind": "user",
				"methods": {},
				"version": 1
			}
		}
	}
}