{
	"contracts/Escrow.sol": {
		"Escrow": {
			"abi": [
				{
					"anonymous": false,
					"inputs": [
						{
							"indexed": false,
							"internalType": "string",
							"name": "",
							"type": "string"
						}
					],
					"name": "Error",
					"type": "event"
				},
				{
					"anonymous": false,
					"inputs": [
						{
							"indexed": true,
							"internalType": "address",
							"name": "sender",
							"type": "address"
						},
						{
							"indexed": true,
							"internalType": "address",
							"name": "to",
							"type": "address"
						},
						{
							"indexed": false,
							"internalType": "uint256",
							"name": "value",
							"type": "uint256"
						}
					],
					"name": "LogRolledBack",
					"type": "event"
				},
				{
					"anonymous": false,
					"inputs": [
						{
							"indexed": true,
							"internalType": "address",
							"name": "sender",
							"type": "address"
						},
						{
							"indexed": true,
							"internalType": "address",
							"name": "to",
							"type": "address"
						},
						{
							"indexed": false,
							"internalType": "uint256",
							"name": "value",
							"type": "uint256"
						}
					],
					"name": "LogSend",
					"type": "event"
				},
				{
					"anonymous": false,
					"inputs": [
						{
							"indexed": true,
							"internalType": "address",
							"name": "to",
							"type": "address"
						},
						{
							"indexed": false,
							"internalType": "uint256",
							"name": "value",
							"type": "uint256"
						}
					],
					"name": "LogWithDraw",
					"type": "event"
				},
				{
					"stateMutability": "payable",
					"type": "fallback"
				},
				{
					"inputs": [],
					"name": "getEtherBalance",
					"outputs": [
						{
							"internalType": "uint256",
							"name": "",
							"type": "uint256"
						}
					],
					"stateMutability": "view",
					"type": "function"
				},
				{
					"inputs": [
						{
							"internalType": "address payable",
							"name": "to",
							"type": "address"
						}
					],
					"name": "rollbackEther",
					"outputs": [],
					"stateMutability": "nonpayable",
					"type": "function"
				},
				{
					"inputs": [
						{
							"internalType": "address payable",
							"name": "to",
							"type": "address"
						}
					],
					"name": "sendEther",
					"outputs": [],
					"stateMutability": "payable",
					"type": "function"
				},
				{
					"inputs": [],
					"name": "withdrawEther",
					"outputs": [],
					"stateMutability": "nonpayable",
					"type": "function"
				},
				{
					"stateMutability": "payable",
					"type": "receive"
				}
			],
			"devdoc": {
				"kind": "dev",
				"methods": {},
				"version": 1
			},
			"evm": {
				"assembly": "    /* \"contracts/Escrow.sol\":64:2593  contract Escrow {\r... */\n  mstore(0x40, 0x80)\n  callvalue\n  dup1\n  iszero\n  tag_1\n  jumpi\n  0x00\n  dup1\n  revert\ntag_1:\n  pop\n  dataSize(sub_0)\n  dup1\n  dataOffset(sub_0)\n  0x00\n  codecopy\n  0x00\n  return\nstop\n\nsub_0: assembly {\n        /* \"contracts/Escrow.sol\":64:2593  contract Escrow {\r... */\n      mstore(0x40, 0x80)\n      jumpi(tag_1, lt(calldatasize, 0x04))\n      shr(0xe0, calldataload(0x00))\n      dup1\n      0x36843861\n      eq\n      tag_3\n      jumpi\n      dup1\n      0x48c981e2\n      eq\n      tag_4\n      jumpi\n      dup1\n      0x7362377b\n      eq\n      tag_5\n      jumpi\n      dup1\n      0xea46193e\n      eq\n      tag_6\n      jumpi\n      jump(tag_2)\n    tag_1:\n      jumpi(tag_2, calldatasize)\n      stop\n    tag_2:\n        /* \"contracts/Escrow.sol\":452:492  Error(\"call of a non-existent function\") */\n      0x08c379a0afcc32b1a39302f7cb8073359698411ab5fd6e3edb2c02c0b5fba8aa\n      mload(0x40)\n      tag_11\n      swap1\n      tag_12\n      jump\t// in\n    tag_11:\n      mload(0x40)\n      dup1\n      swap2\n      sub\n      swap1\n      log1\n        /* \"contracts/Escrow.sol\":64:2593  contract Escrow {\r... */\n      stop\n        /* \"contracts/Escrow.sol\":1708:2486  function rollbackEther(address payable to) external {\r... */\n    tag_3:\n      callvalue\n      dup1\n      iszero\n      tag_13\n      jumpi\n      0x00\n      dup1\n      revert\n    tag_13:\n      pop\n      tag_14\n      0x04\n      dup1\n      calldatasize\n      sub\n      dup2\n      add\n      swap1\n      tag_15\n      swap2\n      swap1\n      tag_16\n      jump\t// in\n    tag_15:\n      tag_17\n      jump\t// in\n    tag_14:\n      stop\n        /* \"contracts/Escrow.sol\":747:1129  function sendEther(address payable to) external payable {\r... */\n    tag_4:\n      tag_18\n      0x04\n      dup1\n      calldatasize\n      sub\n      dup2\n      add\n      swap1\n      tag_19\n      swap2\n      swap1\n      tag_16\n      jump\t// in\n    tag_19:\n      tag_20\n      jump\t// in\n    tag_18:\n      stop\n        /* \"contracts/Escrow.sol\":1135:1702  function withdrawEther() external {\r... */\n    tag_5:\n      callvalue\n      dup1\n      iszero\n      tag_21\n      jumpi\n      0x00\n      dup1\n      revert\n    tag_21:\n      pop\n      tag_22\n      tag_23\n      jump\t// in\n    tag_22:\n      stop\n        /* \"contracts/Escrow.sol\":2492:2590  function getEtherBalance() public view returns (uint256) {\r... */\n    tag_6:\n      callvalue\n      dup1\n      iszero\n      tag_24\n      jumpi\n      0x00\n      dup1\n      revert\n    tag_24:\n      pop\n      tag_25\n      tag_26\n      jump\t// in\n    tag_25:\n      mload(0x40)\n      tag_27\n      swap2\n      swap1\n      tag_28\n      jump\t// in\n    tag_27:\n      mload(0x40)\n      dup1\n      swap2\n      sub\n      swap1\n      return\n        /* \"contracts/Escrow.sol\":1708:2486  function rollbackEther(address payable to) external {\r... */\n    tag_17:\n        /* \"contracts/Escrow.sol\":1767:1789  address payable sender */\n      0x00\n        /* \"contracts/Escrow.sol\":1800:1810  msg.sender */\n      caller\n        /* \"contracts/Escrow.sol\":1767:1811  address payable sender = payable(msg.sender) */\n      swap1\n      pop\n        /* \"contracts/Escrow.sol\":1834:1850  rollbackPossible */\n      0x02\n        /* \"contracts/Escrow.sol\":1834:1854  rollbackPossible[to] */\n      0x00\n        /* \"contracts/Escrow.sol\":1851:1853  to */\n      dup4\n        /* \"contracts/Escrow.sol\":1834:1854  rollbackPossible[to] */\n      0xffffffffffffffffffffffffffffffffffffffff\n      and\n      0xffffffffffffffffffffffffffffffffffffffff\n      and\n      dup2\n      mstore\n      0x20\n      add\n      swap1\n      dup2\n      mstore\n      0x20\n      add\n      0x00\n      keccak256\n        /* \"contracts/Escrow.sol\":1834:1862  rollbackPossible[to][sender] */\n      0x00\n        /* \"contracts/Escrow.sol\":1855:1861  sender */\n      dup3\n        /* \"contracts/Escrow.sol\":1834:1862  rollbackPossible[to][sender] */\n      0xffffffffffffffffffffffffffffffffffffffff\n      and\n      0xffffffffffffffffffffffffffffffffffffffff\n      and\n      dup2\n      mstore\n      0x20\n      add\n      swap1\n      dup2\n      mstore\n      0x20\n      add\n      0x00\n      keccak256\n      0x00\n      swap1\n      sload\n      swap1\n      0x0100\n      exp\n      swap1\n      div\n      0xff\n      and\n        /* \"contracts/Escrow.sol\":1818:1949  require(\r... */\n      tag_30\n      jumpi\n      mload(0x40)\n      0x08c379a000000000000000000000000000000000000000000000000000000000\n      dup2\n      mstore\n      0x04\n      add\n      tag_31\n      swap1\n      tag_32\n      jump\t// in\n    tag_31:\n      mload(0x40)\n      dup1\n      swap2\n      sub\n      swap1\n      revert\n    tag_30:\n        /* \"contracts/Escrow.sol\":1956:1970  uint256 _value */\n      0x00\n        /* \"contracts/Escrow.sol\":1973:1986  rollbackValue */\n      0x03\n        /* \"contracts/Escrow.sol\":1973:1990  rollbackValue[to] */\n      0x00\n        /* \"contracts/Escrow.sol\":1987:1989  to */\n      dup5\n        /* \"contracts/Escrow.sol\":1973:1990  rollbackValue[to] */\n      0xffffffffffffffffffffffffffffffffffffffff\n      and\n      0xffffffffffffffffffffffffffffffffffffffff\n      and\n      dup2\n      mstore\n      0x20\n      add\n      swap1\n      dup2\n      mstore\n      0x20\n      add\n      0x00\n      keccak256\n        /* \"contracts/Escrow.sol\":1973:1998  rollbackValue[to][sender] */\n      0x00\n        /* \"contracts/Escrow.sol\":1991:1997  sender */\n      dup4\n        /* \"contracts/Escrow.sol\":1973:1998  rollbackValue[to][sender] */\n      0xffffffffffffffffffffffffffffffffffffffff\n      and\n      0xffffffffffffffffffffffffffffffffffffffff\n      and\n      dup2\n      mstore\n      0x20\n      add\n      swap1\n      dup2\n      mstore\n      0x20\n      add\n      0x00\n      keccak256\n      sload\n        /* \"contracts/Escrow.sol\":1956:1998  uint256 _value = rollbackValue[to][sender] */\n      swap1\n      pop\n        /* \"contracts/Escrow.sol\":2023:2024  0 */\n      0x00\n        /* \"contracts/Escrow.sol\":2013:2019  _value */\n      dup2\n        /* \"contracts/Escrow.sol\":2013:2024  _value != 0 */\n      eq\n      iszero\n        /* \"contracts/Escrow.sol\":2005:2048  require(_value != 0, \"Rollback value is 0\") */\n      tag_33\n      jumpi\n      mload(0x40)\n      0x08c379a000000000000000000000000000000000000000000000000000000000\n      dup2\n      mstore\n      0x04\n      add\n      tag_34\n      swap1\n      tag_35\n      jump\t// in\n    tag_34:\n      mload(0x40)\n      dup1\n      swap2\n      sub\n      swap1\n      revert\n    tag_33:\n        /* \"contracts/Escrow.sol\":2056:2065  bool sent */\n      0x00\n        /* \"contracts/Escrow.sol\":2071:2077  sender */\n      dup3\n        /* \"contracts/Escrow.sol\":2071:2082  sender.call */\n      0xffffffffffffffffffffffffffffffffffffffff\n      and\n        /* \"contracts/Escrow.sol\":2090:2096  _value */\n      dup3\n        /* \"contracts/Escrow.sol\":2071:2101  sender.call{value: _value}(\"\") */\n      mload(0x40)\n      tag_36\n      swap1\n      tag_37\n      jump\t// in\n    tag_36:\n      0x00\n      mload(0x40)\n      dup1\n      dup4\n      sub\n      dup2\n      dup6\n      dup8\n      gas\n      call\n      swap3\n      pop\n      pop\n      pop\n      returndatasize\n      dup1\n      0x00\n      dup2\n      eq\n      tag_40\n      jumpi\n      mload(0x40)\n      swap2\n      pop\n      and(add(returndatasize, 0x3f), not(0x1f))\n      dup3\n      add\n      0x40\n      mstore\n      returndatasize\n      dup3\n      mstore\n      returndatasize\n      0x00\n      0x20\n      dup5\n      add\n      returndatacopy\n      jump(tag_39)\n    tag_40:\n      0x60\n      swap2\n      pop\n    tag_39:\n      pop\n        /* \"contracts/Escrow.sol\":2055:2101  (bool sent, ) = sender.call{value: _value}(\"\") */\n      pop\n      swap1\n      pop\n        /* \"contracts/Escrow.sol\":2116:2120  sent */\n      dup1\n        /* \"contracts/Escrow.sol\":2108:2145  require(sent, \"Failed to send Ether\") */\n      tag_41\n      jumpi\n      mload(0x40)\n      0x08c379a000000000000000000000000000000000000000000000000000000000\n      dup2\n      mstore\n      0x04\n      add\n      tag_42\n      swap1\n      tag_43\n      jump\t// in\n    tag_42:\n      mload(0x40)\n      dup1\n      swap2\n      sub\n      swap1\n      revert\n    tag_41:\n        /* \"contracts/Escrow.sol\":2175:2181  _value */\n      dup2\n        /* \"contracts/Escrow.sol\":2152:2167  receiverAddress */\n      0x00\n        /* \"contracts/Escrow.sol\":2152:2171  receiverAddress[to] */\n      dup1\n        /* \"contracts/Escrow.sol\":2168:2170  to */\n      dup7\n        /* \"contracts/Escrow.sol\":2152:2171  receiverAddress[to] */\n      0xffffffffffffffffffffffffffffffffffffffff\n      and\n      0xffffffffffffffffffffffffffffffffffffffff\n      and\n      dup2\n      mstore\n      0x20\n      add\n      swap1\n      dup2\n      mstore\n      0x20\n      add\n      0x00\n      keccak256\n      0x00\n        /* \"contracts/Escrow.sol\":2152:2181  receiverAddress[to] -= _value */\n      dup3\n      dup3\n      sload\n      tag_44\n      swap2\n      swap1\n      tag_45\n      jump\t// in\n    tag_44:\n      swap3\n      pop\n      pop\n      dup2\n      swap1\n      sstore\n      pop\n        /* \"contracts/Escrow.sol\":2195:2208  rollbackValue */\n      0x03\n        /* \"contracts/Escrow.sol\":2195:2212  rollbackValue[to] */\n      0x00\n        /* \"contracts/Escrow.sol\":2209:2211  to */\n      dup6\n        /* \"contracts/Escrow.sol\":2195:2212  rollbackValue[to] */\n      0xffffffffffffffffffffffffffffffffffffffff\n      and\n      0xffffffffffffffffffffffffffffffffffffffff\n      and\n      dup2\n      mstore\n      0x20\n      add\n      swap1\n      dup2\n      mstore\n      0x20\n      add\n      0x00\n      keccak256\n        /* \"contracts/Escrow.sol\":2195:2220  rollbackValue[to][sender] */\n      0x00\n        /* \"contracts/Escrow.sol\":2213:2219  sender */\n      dup5\n        /* \"contracts/Escrow.sol\":2195:2220  rollbackValue[to][sender] */\n      0xffffffffffffffffffffffffffffffffffffffff\n      and\n      0xffffffffffffffffffffffffffffffffffffffff\n      and\n      dup2\n      mstore\n      0x20\n      add\n      swap1\n      dup2\n      mstore\n      0x20\n      add\n      0x00\n      keccak256\n        /* \"contracts/Escrow.sol\":2188:2220  delete rollbackValue[to][sender] */\n      0x00\n      swap1\n      sstore\n        /* \"contracts/Escrow.sol\":2258:2263  false */\n      0x00\n        /* \"contracts/Escrow.sol\":2227:2243  rollbackPossible */\n      0x02\n        /* \"contracts/Escrow.sol\":2227:2247  rollbackPossible[to] */\n      0x00\n        /* \"contracts/Escrow.sol\":2244:2246  to */\n      dup7\n        /* \"contracts/Escrow.sol\":2227:2247  rollbackPossible[to] */\n      0xffffffffffffffffffffffffffffffffffffffff\n      and\n      0xffffffffffffffffffffffffffffffffffffffff\n      and\n      dup2\n      mstore\n      0x20\n      add\n      swap1\n      dup2\n      mstore\n      0x20\n      add\n      0x00\n      keccak256\n        /* \"contracts/Escrow.sol\":2227:2255  rollbackPossible[to][sender] */\n      0x00\n        /* \"contracts/Escrow.sol\":2248:2254  sender */\n      dup6\n        /* \"contracts/Escrow.sol\":2227:2255  rollbackPossible[to][sender] */\n      0xffffffffffffffffffffffffffffffffffffffff\n      and\n      0xffffffffffffffffffffffffffffffffffffffff\n      and\n      dup2\n      mstore\n      0x20\n      add\n      swap1\n      dup2\n      mstore\n      0x20\n      add\n      0x00\n      keccak256\n      0x00\n        /* \"contracts/Escrow.sol\":2227:2263  rollbackPossible[to][sender] = false */\n      0x0100\n      exp\n      dup2\n      sload\n      dup2\n      0xff\n      mul\n      not\n      and\n      swap1\n      dup4\n      iszero\n      iszero\n      mul\n      or\n      swap1\n      sstore\n      pop\n        /* \"contracts/Escrow.sol\":2275:2284  uint256 i */\n      0x00\n        /* \"contracts/Escrow.sol\":2270:2481  for (uint256 i = 0; i < rollbackAddresses[to].length; i++) {\r... */\n    tag_46:\n        /* \"contracts/Escrow.sol\":2294:2311  rollbackAddresses */\n      0x01\n        /* \"contracts/Escrow.sol\":2294:2315  rollbackAddresses[to] */\n      0x00\n        /* \"contracts/Escrow.sol\":2312:2314  to */\n      dup7\n        /* \"contracts/Escrow.sol\":2294:2315  rollbackAddresses[to] */\n      0xffffffffffffffffffffffffffffffffffffffff\n      and\n      0xffffffffffffffffffffffffffffffffffffffff\n      and\n      dup2\n      mstore\n      0x20\n      add\n      swap1\n      dup2\n      mstore\n      0x20\n      add\n      0x00\n      keccak256\n        /* \"contracts/Escrow.sol\":2294:2322  rollbackAddresses[to].length */\n      dup1\n      sload\n      swap1\n      pop\n        /* \"contracts/Escrow.sol\":2290:2291  i */\n      dup2\n        /* \"contracts/Escrow.sol\":2290:2322  i < rollbackAddresses[to].length */\n      lt\n        /* \"contracts/Escrow.sol\":2270:2481  for (uint256 i = 0; i < rollbackAddresses[to].length; i++) {\r... */\n      iszero\n      tag_47\n      jumpi\n        /* \"contracts/Escrow.sol\":2338:2350  address from */\n      0x00\n        /* \"contracts/Escrow.sol\":2353:2370  rollbackAddresses */\n      0x01\n        /* \"contracts/Escrow.sol\":2353:2374  rollbackAddresses[to] */\n      0x00\n        /* \"contracts/Escrow.sol\":2371:2373  to */\n      dup8\n        /* \"contracts/Escrow.sol\":2353:2374  rollbackAddresses[to] */\n      0xffffffffffffffffffffffffffffffffffffffff\n      and\n      0xffffffffffffffffffffffffffffffffffffffff\n      and\n      dup2\n      mstore\n      0x20\n      add\n      swap1\n      dup2\n      mstore\n      0x20\n      add\n      0x00\n      keccak256\n        /* \"contracts/Escrow.sol\":2375:2376  i */\n      dup3\n        /* \"contracts/Escrow.sol\":2353:2377  rollbackAddresses[to][i] */\n      dup2\n      sload\n      dup2\n      lt\n      tag_49\n      jumpi\n      tag_50\n      tag_51\n      jump\t// in\n    tag_50:\n    tag_49:\n      swap1\n      0x00\n      mstore\n      keccak256(0x00, 0x20)\n      add\n      0x00\n      swap1\n      sload\n      swap1\n      0x0100\n      exp\n      swap1\n      div\n      0xffffffffffffffffffffffffffffffffffffffff\n      and\n        /* \"contracts/Escrow.sol\":2338:2377  address from = rollbackAddresses[to][i] */\n      swap1\n      pop\n        /* \"contracts/Escrow.sol\":2398:2404  sender */\n      dup5\n        /* \"contracts/Escrow.sol\":2390:2404  from == sender */\n      0xffffffffffffffffffffffffffffffffffffffff\n      and\n        /* \"contracts/Escrow.sol\":2390:2394  from */\n      dup2\n        /* \"contracts/Escrow.sol\":2390:2404  from == sender */\n      0xffffffffffffffffffffffffffffffffffffffff\n      and\n      eq\n        /* \"contracts/Escrow.sol\":2386:2474  if (from == sender) {\r... */\n      iszero\n      tag_53\n      jumpi\n        /* \"contracts/Escrow.sol\":2424:2441  rollbackAddresses */\n      0x01\n        /* \"contracts/Escrow.sol\":2424:2445  rollbackAddresses[to] */\n      0x00\n        /* \"contracts/Escrow.sol\":2442:2444  to */\n      dup8\n        /* \"contracts/Escrow.sol\":2424:2445  rollbackAddresses[to] */\n      0xffffffffffffffffffffffffffffffffffffffff\n      and\n      0xffffffffffffffffffffffffffffffffffffffff\n      and\n      dup2\n      mstore\n      0x20\n      add\n      swap1\n      dup2\n      mstore\n      0x20\n      add\n      0x00\n      keccak256\n        /* \"contracts/Escrow.sol\":2446:2447  i */\n      dup3\n        /* \"contracts/Escrow.sol\":2424:2448  rollbackAddresses[to][i] */\n      dup2\n      sload\n      dup2\n      lt\n      tag_54\n      jumpi\n      tag_55\n      tag_51\n      jump\t// in\n    tag_55:\n    tag_54:\n      swap1\n      0x00\n      mstore\n      keccak256(0x00, 0x20)\n      add\n      0x00\n        /* \"contracts/Escrow.sol\":2417:2448  delete rollbackAddresses[to][i] */\n      0x0100\n      exp\n      dup2\n      sload\n      swap1\n      0xffffffffffffffffffffffffffffffffffffffff\n      mul\n      not\n      and\n      swap1\n      sstore\n        /* \"contracts/Escrow.sol\":2459:2464  break */\n      pop\n      jump(tag_47)\n        /* \"contracts/Escrow.sol\":2386:2474  if (from == sender) {\r... */\n    tag_53:\n        /* \"contracts/Escrow.sol\":2329:2481  {\r... */\n      pop\n        /* \"contracts/Escrow.sol\":2324:2327  i++ */\n      dup1\n      dup1\n      tag_57\n      swap1\n      tag_58\n      jump\t// in\n    tag_57:\n      swap2\n      pop\n      pop\n        /* \"contracts/Escrow.sol\":2270:2481  for (uint256 i = 0; i < rollbackAddresses[to].length; i++) {\r... */\n      jump(tag_46)\n    tag_47:\n      pop\n        /* \"contracts/Escrow.sol\":1760:2486  {\r... */\n      pop\n      pop\n      pop\n        /* \"contracts/Escrow.sol\":1708:2486  function rollbackEther(address payable to) external {\r... */\n      pop\n      jump\t// out\n        /* \"contracts/Escrow.sol\":747:1129  function sendEther(address payable to) external payable {\r... */\n    tag_20:\n        /* \"contracts/Escrow.sol\":810:822  address from */\n      0x00\n        /* \"contracts/Escrow.sol\":825:835  msg.sender */\n      caller\n        /* \"contracts/Escrow.sol\":810:835  address from = msg.sender */\n      swap1\n      pop\n        /* \"contracts/Escrow.sol\":842:855  uint256 value */\n      0x00\n        /* \"contracts/Escrow.sol\":858:867  msg.value */\n      callvalue\n        /* \"contracts/Escrow.sol\":842:867  uint256 value = msg.value */\n      swap1\n      pop\n        /* \"contracts/Escrow.sol\":897:902  value */\n      dup1\n        /* \"contracts/Escrow.sol\":874:889  receiverAddress */\n      0x00\n        /* \"contracts/Escrow.sol\":874:893  receiverAddress[to] */\n      dup1\n        /* \"contracts/Escrow.sol\":890:892  to */\n      dup6\n        /* \"contracts/Escrow.sol\":874:893  receiverAddress[to] */\n      0xffffffffffffffffffffffffffffffffffffffff\n      and\n      0xffffffffffffffffffffffffffffffffffffffff\n      and\n      dup2\n      mstore\n      0x20\n      add\n      swap1\n      dup2\n      mstore\n      0x20\n      add\n      0x00\n      keccak256\n      0x00\n        /* \"contracts/Escrow.sol\":874:902  receiverAddress[to] += value */\n      dup3\n      dup3\n      sload\n      tag_60\n      swap2\n      swap1\n      tag_61\n      jump\t// in\n    tag_60:\n      swap3\n      pop\n      pop\n      dup2\n      swap1\n      sstore\n      pop\n        /* \"contracts/Escrow.sol\":914:930  rollbackPossible */\n      0x02\n        /* \"contracts/Escrow.sol\":914:934  rollbackPossible[to] */\n      0x00\n        /* \"contracts/Escrow.sol\":931:933  to */\n      dup5\n        /* \"contracts/Escrow.sol\":914:934  rollbackPossible[to] */\n      0xffffffffffffffffffffffffffffffffffffffff\n      and\n      0xffffffffffffffffffffffffffffffffffffffff\n      and\n      dup2\n      mstore\n      0x20\n      add\n      swap1\n      dup2\n      mstore\n      0x20\n      add\n      0x00\n      keccak256\n        /* \"contracts/Escrow.sol\":914:940  rollbackPossible[to][from] */\n      0x00\n        /* \"contracts/Escrow.sol\":935:939  from */\n      dup4\n        /* \"contracts/Escrow.sol\":914:940  rollbackPossible[to][from] */\n      0xffffffffffffffffffffffffffffffffffffffff\n      and\n      0xffffffffffffffffffffffffffffffffffffffff\n      and\n      dup2\n      mstore\n      0x20\n      add\n      swap1\n      dup2\n      mstore\n      0x20\n      add\n      0x00\n      keccak256\n      0x00\n      swap1\n      sload\n      swap1\n      0x0100\n      exp\n      swap1\n      div\n      0xff\n      and\n        /* \"contracts/Escrow.sol\":909:969  if (!rollbackPossible[to][from]) rollbackValue[to][from] = 0 */\n      tag_62\n      jumpi\n        /* \"contracts/Escrow.sol\":968:969  0 */\n      0x00\n        /* \"contracts/Escrow.sol\":942:955  rollbackValue */\n      0x03\n        /* \"contracts/Escrow.sol\":942:959  rollbackValue[to] */\n      0x00\n        /* \"contracts/Escrow.sol\":956:958  to */\n      dup6\n        /* \"contracts/Escrow.sol\":942:959  rollbackValue[to] */\n      0xffffffffffffffffffffffffffffffffffffffff\n      and\n      0xffffffffffffffffffffffffffffffffffffffff\n      and\n      dup2\n      mstore\n      0x20\n      add\n      swap1\n      dup2\n      mstore\n      0x20\n      add\n      0x00\n      keccak256\n        /* \"contracts/Escrow.sol\":942:965  rollbackValue[to][from] */\n      0x00\n        /* \"contracts/Escrow.sol\":960:964  from */\n      dup5\n        /* \"contracts/Escrow.sol\":942:965  rollbackValue[to][from] */\n      0xffffffffffffffffffffffffffffffffffffffff\n      and\n      0xffffffffffffffffffffffffffffffffffffffff\n      and\n      dup2\n      mstore\n      0x20\n      add\n      swap1\n      dup2\n      mstore\n      0x20\n      add\n      0x00\n      keccak256\n        /* \"contracts/Escrow.sol\":942:969  rollbackValue[to][from] = 0 */\n      dup2\n      swap1\n      sstore\n      pop\n        /* \"contracts/Escrow.sol\":909:969  if (!rollbackPossible[to][from]) rollbackValue[to][from] = 0 */\n    tag_62:\n        /* \"contracts/Escrow.sol\":1003:1008  value */\n      dup1\n        /* \"contracts/Escrow.sol\":976:989  rollbackValue */\n      0x03\n        /* \"contracts/Escrow.sol\":976:993  rollbackValue[to] */\n      0x00\n        /* \"contracts/Escrow.sol\":990:992  to */\n      dup6\n        /* \"contracts/Escrow.sol\":976:993  rollbackValue[to] */\n      0xffffffffffffffffffffffffffffffffffffffff\n      and\n      0xffffffffffffffffffffffffffffffffffffffff\n      and\n      dup2\n      mstore\n      0x20\n      add\n      swap1\n      dup2\n      mstore\n      0x20\n      add\n      0x00\n      keccak256\n        /* \"contracts/Escrow.sol\":976:999  rollbackValue[to][from] */\n      0x00\n        /* \"contracts/Escrow.sol\":994:998  from */\n      dup5\n        /* \"contracts/Escrow.sol\":976:999  rollbackValue[to][from] */\n      0xffffffffffffffffffffffffffffffffffffffff\n      and\n      0xffffffffffffffffffffffffffffffffffffffff\n      and\n      dup2\n      mstore\n      0x20\n      add\n      swap1\n      dup2\n      mstore\n      0x20\n      add\n      0x00\n      keccak256\n      0x00\n        /* \"contracts/Escrow.sol\":976:1008  rollbackValue[to][from] += value */\n      dup3\n      dup3\n      sload\n      tag_63\n      swap2\n      swap1\n      tag_61\n      jump\t// in\n    tag_63:\n      swap3\n      pop\n      pop\n      dup2\n      swap1\n      sstore\n      pop\n        /* \"contracts/Escrow.sol\":1044:1048  true */\n      0x01\n        /* \"contracts/Escrow.sol\":1015:1031  rollbackPossible */\n      0x02\n        /* \"contracts/Escrow.sol\":1015:1035  rollbackPossible[to] */\n      0x00\n        /* \"contracts/Escrow.sol\":1032:1034  to */\n      dup6\n        /* \"contracts/Escrow.sol\":1015:1035  rollbackPossible[to] */\n      0xffffffffffffffffffffffffffffffffffffffff\n      and\n      0xffffffffffffffffffffffffffffffffffffffff\n      and\n      dup2\n      mstore\n      0x20\n      add\n      swap1\n      dup2\n      mstore\n      0x20\n      add\n      0x00\n      keccak256\n        /* \"contracts/Escrow.sol\":1015:1041  rollbackPossible[to][from] */\n      0x00\n        /* \"contracts/Escrow.sol\":1036:1040  from */\n      dup5\n        /* \"contracts/Escrow.sol\":1015:1041  rollbackPossible[to][from] */\n      0xffffffffffffffffffffffffffffffffffffffff\n      and\n      0xffffffffffffffffffffffffffffffffffffffff\n      and\n      dup2\n      mstore\n      0x20\n      add\n      swap1\n      dup2\n      mstore\n      0x20\n      add\n      0x00\n      keccak256\n      0x00\n        /* \"contracts/Escrow.sol\":1015:1048  rollbackPossible[to][from] = true */\n      0x0100\n      exp\n      dup2\n      sload\n      dup2\n      0xff\n      mul\n      not\n      and\n      swap1\n      dup4\n      iszero\n      iszero\n      mul\n      or\n      swap1\n      sstore\n      pop\n        /* \"contracts/Escrow.sol\":1055:1072  rollbackAddresses */\n      0x01\n        /* \"contracts/Escrow.sol\":1055:1076  rollbackAddresses[to] */\n      0x00\n        /* \"contracts/Escrow.sol\":1073:1075  to */\n      dup5\n        /* \"contracts/Escrow.sol\":1055:1076  rollbackAddresses[to] */\n      0xffffffffffffffffffffffffffffffffffffffff\n      and\n      0xffffffffffffffffffffffffffffffffffffffff\n      and\n      dup2\n      mstore\n      0x20\n      add\n      swap1\n      dup2\n      mstore\n      0x20\n      add\n      0x00\n      keccak256\n        /* \"contracts/Escrow.sol\":1082:1086  from */\n      dup3\n        /* \"contracts/Escrow.sol\":1055:1087  rollbackAddresses[to].push(from) */\n      swap1\n      dup1\n      0x01\n      dup2\n      sload\n      add\n      dup1\n      dup3\n      sstore\n      dup1\n      swap2\n      pop\n      pop\n      0x01\n      swap1\n      sub\n      swap1\n      0x00\n      mstore\n      keccak256(0x00, 0x20)\n      add\n      0x00\n      swap1\n      swap2\n      swap1\n      swap2\n      swap1\n      swap2\n      0x0100\n      exp\n      dup2\n      sload\n      dup2\n      0xffffffffffffffffffffffffffffffffffffffff\n      mul\n      not\n      and\n      swap1\n      dup4\n      0xffffffffffffffffffffffffffffffffffffffff\n      and\n      mul\n      or\n      swap1\n      sstore\n      pop\n        /* \"contracts/Escrow.sol\":1113:1115  to */\n      dup3\n        /* \"contracts/Escrow.sol\":1099:1123  LogSend(from, to, value) */\n      0xffffffffffffffffffffffffffffffffffffffff\n      and\n        /* \"contracts/Escrow.sol\":1107:1111  from */\n      dup3\n        /* \"contracts/Escrow.sol\":1099:1123  LogSend(from, to, value) */\n      0xffffffffffffffffffffffffffffffffffffffff\n      and\n      0xa343f361112b028dae2501770614271723be1d24c9f64fed2d4bd3ddf1c13e35\n        /* \"contracts/Escrow.sol\":1117:1122  value */\n      dup4\n        /* \"contracts/Escrow.sol\":1099:1123  LogSend(from, to, value) */\n      mload(0x40)\n      tag_65\n      swap2\n      swap1\n      tag_28\n      jump\t// in\n    tag_65:\n      mload(0x40)\n      dup1\n      swap2\n      sub\n      swap1\n      log3\n        /* \"contracts/Escrow.sol\":803:1129  {\r... */\n      pop\n      pop\n        /* \"contracts/Escrow.sol\":747:1129  function sendEther(address payable to) external payable {\r... */\n      pop\n      jump\t// out\n        /* \"contracts/Escrow.sol\":1135:1702  function withdrawEther() external {\r... */\n    tag_23:\n        /* \"contracts/Escrow.sol\":1176:1194  address payable to */\n      0x00\n        /* \"contracts/Escrow.sol\":1205:1215  msg.sender */\n      caller\n        /* \"contracts/Escrow.sol\":1176:1216  address payable to = payable(msg.sender) */\n      swap1\n      pop\n        /* \"contracts/Escrow.sol\":1223:1237  uint256 _value */\n      0x00\n        /* \"contracts/Escrow.sol\":1240:1255  receiverAddress */\n      dup1\n        /* \"contracts/Escrow.sol\":1240:1259  receiverAddress[to] */\n      0x00\n        /* \"contracts/Escrow.sol\":1256:1258  to */\n      dup4\n        /* \"contracts/Escrow.sol\":1240:1259  receiverAddress[to] */\n      0xffffffffffffffffffffffffffffffffffffffff\n      and\n      0xffffffffffffffffffffffffffffffffffffffff\n      and\n      dup2\n      mstore\n      0x20\n      add\n      swap1\n      dup2\n      mstore\n      0x20\n      add\n      0x00\n      keccak256\n      sload\n        /* \"contracts/Escrow.sol\":1223:1259  uint256 _value = receiverAddress[to] */\n      swap1\n      pop\n        /* \"contracts/Escrow.sol\":1284:1285  0 */\n      0x00\n        /* \"contracts/Escrow.sol\":1274:1280  _value */\n      dup2\n        /* \"contracts/Escrow.sol\":1274:1285  _value != 0 */\n      eq\n      iszero\n        /* \"contracts/Escrow.sol\":1266:1323  require(_value != 0, \"You don't have ethers sent to you\") */\n      tag_67\n      jumpi\n      mload(0x40)\n      0x08c379a000000000000000000000000000000000000000000000000000000000\n      dup2\n      mstore\n      0x04\n      add\n      tag_68\n      swap1\n      tag_69\n      jump\t// in\n    tag_68:\n      mload(0x40)\n      dup1\n      swap2\n      sub\n      swap1\n      revert\n    tag_67:\n        /* \"contracts/Escrow.sol\":1331:1340  bool sent */\n      0x00\n        /* \"contracts/Escrow.sol\":1346:1348  to */\n      dup3\n        /* \"contracts/Escrow.sol\":1346:1353  to.call */\n      0xffffffffffffffffffffffffffffffffffffffff\n      and\n        /* \"contracts/Escrow.sol\":1361:1367  _value */\n      dup3\n        /* \"contracts/Escrow.sol\":1346:1372  to.call{value: _value}(\"\") */\n      mload(0x40)\n      tag_70\n      swap1\n      tag_37\n      jump\t// in\n    tag_70:\n      0x00\n      mload(0x40)\n      dup1\n      dup4\n      sub\n      dup2\n      dup6\n      dup8\n      gas\n      call\n      swap3\n      pop\n      pop\n      pop\n      returndatasize\n      dup1\n      0x00\n      dup2\n      eq\n      tag_73\n      jumpi\n      mload(0x40)\n      swap2\n      pop\n      and(add(returndatasize, 0x3f), not(0x1f))\n      dup3\n      add\n      0x40\n      mstore\n      returndatasize\n      dup3\n      mstore\n      returndatasize\n      0x00\n      0x20\n      dup5\n      add\n      returndatacopy\n      jump(tag_72)\n    tag_73:\n      0x60\n      swap2\n      pop\n    tag_72:\n      pop\n        /* \"contracts/Escrow.sol\":1330:1372  (bool sent, ) = to.call{value: _value}(\"\") */\n      pop\n      swap1\n      pop\n        /* \"contracts/Escrow.sol\":1387:1391  sent */\n      dup1\n        /* \"contracts/Escrow.sol\":1379:1416  require(sent, \"Failed to send Ether\") */\n      tag_74\n      jumpi\n      mload(0x40)\n      0x08c379a000000000000000000000000000000000000000000000000000000000\n      dup2\n      mstore\n      0x04\n      add\n      tag_75\n      swap1\n      tag_43\n      jump\t// in\n    tag_75:\n      mload(0x40)\n      dup1\n      swap2\n      sub\n      swap1\n      revert\n    tag_74:\n        /* \"contracts/Escrow.sol\":1430:1445  receiverAddress */\n      0x00\n        /* \"contracts/Escrow.sol\":1430:1449  receiverAddress[to] */\n      dup1\n        /* \"contracts/Escrow.sol\":1446:1448  to */\n      dup5\n        /* \"contracts/Escrow.sol\":1430:1449  receiverAddress[to] */\n      0xffffffffffffffffffffffffffffffffffffffff\n      and\n      0xffffffffffffffffffffffffffffffffffffffff\n      and\n      dup2\n      mstore\n      0x20\n      add\n      swap1\n      dup2\n      mstore\n      0x20\n      add\n      0x00\n      keccak256\n        /* \"contracts/Escrow.sol\":1423:1449  delete receiverAddress[to] */\n      0x00\n      swap1\n      sstore\n        /* \"contracts/Escrow.sol\":1461:1470  uint256 i */\n      0x00\n        /* \"contracts/Escrow.sol\":1456:1654  for (uint256 i = 0; i < rollbackAddresses[to].length; i++) {\r... */\n    tag_76:\n        /* \"contracts/Escrow.sol\":1480:1497  rollbackAddresses */\n      0x01\n        /* \"contracts/Escrow.sol\":1480:1501  rollbackAddresses[to] */\n      0x00\n        /* \"contracts/Escrow.sol\":1498:1500  to */\n      dup6\n        /* \"contracts/Escrow.sol\":1480:1501  rollbackAddresses[to] */\n      0xffffffffffffffffffffffffffffffffffffffff\n      and\n      0xffffffffffffffffffffffffffffffffffffffff\n      and\n      dup2\n      mstore\n      0x20\n      add\n      swap1\n      dup2\n      mstore\n      0x20\n      add\n      0x00\n      keccak256\n        /* \"contracts/Escrow.sol\":1480:1508  rollbackAddresses[to].length */\n      dup1\n      sload\n      swap1\n      pop\n        /* \"contracts/Escrow.sol\":1476:1477  i */\n      dup2\n        /* \"contracts/Escrow.sol\":1476:1508  i < rollbackAddresses[to].length */\n      lt\n        /* \"contracts/Escrow.sol\":1456:1654  for (uint256 i = 0; i < rollbackAddresses[to].length; i++) {\r... */\n      iszero\n      tag_77\n      jumpi\n        /* \"contracts/Escrow.sol\":1524:1536  address from */\n      0x00\n        /* \"contracts/Escrow.sol\":1539:1556  rollbackAddresses */\n      0x01\n        /* \"contracts/Escrow.sol\":1539:1560  rollbackAddresses[to] */\n      0x00\n        /* \"contracts/Escrow.sol\":1557:1559  to */\n      dup7\n        /* \"contracts/Escrow.sol\":1539:1560  rollbackAddresses[to] */\n      0xffffffffffffffffffffffffffffffffffffffff\n      and\n      0xffffffffffffffffffffffffffffffffffffffff\n      and\n      dup2\n      mstore\n      0x20\n      add\n      swap1\n      dup2\n      mstore\n      0x20\n      add\n      0x00\n      keccak256\n        /* \"contracts/Escrow.sol\":1561:1562  i */\n      dup3\n        /* \"contracts/Escrow.sol\":1539:1563  rollbackAddresses[to][i] */\n      dup2\n      sload\n      dup2\n      lt\n      tag_79\n      jumpi\n      tag_80\n      tag_51\n      jump\t// in\n    tag_80:\n    tag_79:\n      swap1\n      0x00\n      mstore\n      keccak256(0x00, 0x20)\n      add\n      0x00\n      swap1\n      sload\n      swap1\n      0x0100\n      exp\n      swap1\n      div\n      0xffffffffffffffffffffffffffffffffffffffff\n      and\n        /* \"contracts/Escrow.sol\":1524:1563  address from = rollbackAddresses[to][i] */\n      swap1\n      pop\n        /* \"contracts/Escrow.sol\":1601:1606  false */\n      0x00\n        /* \"contracts/Escrow.sol\":1572:1588  rollbackPossible */\n      0x02\n        /* \"contracts/Escrow.sol\":1572:1592  rollbackPossible[to] */\n      0x00\n        /* \"contracts/Escrow.sol\":1589:1591  to */\n      dup8\n        /* \"contracts/Escrow.sol\":1572:1592  rollbackPossible[to] */\n      0xffffffffffffffffffffffffffffffffffffffff\n      and\n      0xffffffffffffffffffffffffffffffffffffffff\n      and\n      dup2\n      mstore\n      0x20\n      add\n      swap1\n      dup2\n      mstore\n      0x20\n      add\n      0x00\n      keccak256\n        /* \"contracts/Escrow.sol\":1572:1598  rollbackPossible[to][from] */\n      0x00\n        /* \"contracts/Escrow.sol\":1593:1597  from */\n      dup4\n        /* \"contracts/Escrow.sol\":1572:1598  rollbackPossible[to][from] */\n      0xffffffffffffffffffffffffffffffffffffffff\n      and\n      0xffffffffffffffffffffffffffffffffffffffff\n      and\n      dup2\n      mstore\n      0x20\n      add\n      swap1\n      dup2\n      mstore\n      0x20\n      add\n      0x00\n      keccak256\n      0x00\n        /* \"contracts/Escrow.sol\":1572:1606  rollbackPossible[to][from] = false */\n      0x0100\n      exp\n      dup2\n      sload\n      dup2\n      0xff\n      mul\n      not\n      and\n      swap1\n      dup4\n      iszero\n      iszero\n      mul\n      or\n      swap1\n      sstore\n      pop\n        /* \"contracts/Escrow.sol\":1622:1639  rollbackAddresses */\n      0x01\n        /* \"contracts/Escrow.sol\":1622:1643  rollbackAddresses[to] */\n      0x00\n        /* \"contracts/Escrow.sol\":1640:1642  to */\n      dup7\n        /* \"contracts/Escrow.sol\":1622:1643  rollbackAddresses[to] */\n      0xffffffffffffffffffffffffffffffffffffffff\n      and\n      0xffffffffffffffffffffffffffffffffffffffff\n      and\n      dup2\n      mstore\n      0x20\n      add\n      swap1\n      dup2\n      mstore\n      0x20\n      add\n      0x00\n      keccak256\n        /* \"contracts/Escrow.sol\":1644:1645  i */\n      dup3\n        /* \"contracts/Escrow.sol\":1622:1646  rollbackAddresses[to][i] */\n      dup2\n      sload\n      dup2\n      lt\n      tag_82\n      jumpi\n      tag_83\n      tag_51\n      jump\t// in\n    tag_83:\n    tag_82:\n      swap1\n      0x00\n      mstore\n      keccak256(0x00, 0x20)\n      add\n      0x00\n        /* \"contracts/Escrow.sol\":1615:1646  delete rollbackAddresses[to][i] */\n      0x0100\n      exp\n      dup2\n      sload\n      swap1\n      0xffffffffffffffffffffffffffffffffffffffff\n      mul\n      not\n      and\n      swap1\n      sstore\n        /* \"contracts/Escrow.sol\":1515:1654  {\r... */\n      pop\n        /* \"contracts/Escrow.sol\":1510:1513  i++ */\n      dup1\n      dup1\n      tag_85\n      swap1\n      tag_58\n      jump\t// in\n    tag_85:\n      swap2\n      pop\n      pop\n        /* \"contracts/Escrow.sol\":1456:1654  for (uint256 i = 0; i < rollbackAddresses[to].length; i++) {\r... */\n      jump(tag_76)\n    tag_77:\n      pop\n        /* \"contracts/Escrow.sol\":1677:1687  msg.sender */\n      caller\n        /* \"contracts/Escrow.sol\":1665:1696  LogWithDraw(msg.sender, _value) */\n      0xffffffffffffffffffffffffffffffffffffffff\n      and\n      0xa74fab966bfc29d4ea7866d609ac5d94324a5fe817362d6a9fee5d2f8df46759\n        /* \"contracts/Escrow.sol\":1689:1695  _value */\n      dup4\n        /* \"contracts/Escrow.sol\":1665:1696  LogWithDraw(msg.sender, _value) */\n      mload(0x40)\n      tag_86\n      swap2\n      swap1\n      tag_28\n      jump\t// in\n    tag_86:\n      mload(0x40)\n      dup1\n      swap2\n      sub\n      swap1\n      log2\n        /* \"contracts/Escrow.sol\":1169:1702  {\r... */\n      pop\n      pop\n      pop\n        /* \"contracts/Escrow.sol\":1135:1702  function withdrawEther() external {\r... */\n      jump\t// out\n        /* \"contracts/Escrow.sol\":2492:2590  function getEtherBalance() public view returns (uint256) {\r... */\n    tag_26:\n        /* \"contracts/Escrow.sol\":2540:2547  uint256 */\n      0x00\n        /* \"contracts/Escrow.sol\":2563:2584  address(this).balance */\n      selfbalance\n        /* \"contracts/Escrow.sol\":2556:2584  return address(this).balance */\n      swap1\n      pop\n        /* \"contracts/Escrow.sol\":2492:2590  function getEtherBalance() public view returns (uint256) {\r... */\n      swap1\n      jump\t// out\n        /* \"#utility.yul\":7:162   */\n    tag_89:\n        /* \"#utility.yul\":61:66   */\n      0x00\n        /* \"#utility.yul\":99:105   */\n      dup2\n        /* \"#utility.yul\":86:106   */\n      calldataload\n        /* \"#utility.yul\":77:106   */\n      swap1\n      pop\n        /* \"#utility.yul\":115:156   */\n      tag_91\n        /* \"#utility.yul\":150:155   */\n      dup2\n        /* \"#utility.yul\":115:156   */\n      tag_92\n      jump\t// in\n    tag_91:\n        /* \"#utility.yul\":7:162   */\n      swap3\n      swap2\n      pop\n      pop\n      jump\t// out\n        /* \"#utility.yul\":168:513   */\n    tag_16:\n        /* \"#utility.yul\":235:241   */\n      0x00\n        /* \"#utility.yul\":284:286   */\n      0x20\n        /* \"#utility.yul\":272:281   */\n      dup3\n        /* \"#utility.yul\":263:270   */\n      dup5\n        /* \"#utility.yul\":259:282   */\n      sub\n        /* \"#utility.yul\":255:287   */\n      slt\n        /* \"#utility.yul\":252:371   */\n      iszero\n      tag_94\n      jumpi\n        /* \"#utility.yul\":290:369   */\n      tag_95\n      tag_96\n      jump\t// in\n    tag_95:\n        /* \"#utility.yul\":252:371   */\n    tag_94:\n        /* \"#utility.yul\":410:411   */\n      0x00\n        /* \"#utility.yul\":435:496   */\n      tag_97\n        /* \"#utility.yul\":488:495   */\n      dup5\n        /* \"#utility.yul\":479:485   */\n      dup3\n        /* \"#utility.yul\":468:477   */\n      dup6\n        /* \"#utility.yul\":464:486   */\n      add\n        /* \"#utility.yul\":435:496   */\n      tag_89\n      jump\t// in\n    tag_97:\n        /* \"#utility.yul\":425:496   */\n      swap2\n      pop\n        /* \"#utility.yul\":381:506   */\n      pop\n        /* \"#utility.yul\":168:513   */\n      swap3\n      swap2\n      pop\n      pop\n      jump\t// out\n        /* \"#utility.yul\":519:885   */\n    tag_98:\n        /* \"#utility.yul\":661:664   */\n      0x00\n        /* \"#utility.yul\":682:749   */\n      tag_100\n        /* \"#utility.yul\":746:748   */\n      0x1f\n        /* \"#utility.yul\":741:744   */\n      dup4\n        /* \"#utility.yul\":682:749   */\n      tag_101\n      jump\t// in\n    tag_100:\n        /* \"#utility.yul\":675:749   */\n      swap2\n      pop\n        /* \"#utility.yul\":758:851   */\n      tag_102\n        /* \"#utility.yul\":847:850   */\n      dup3\n        /* \"#utility.yul\":758:851   */\n      tag_103\n      jump\t// in\n    tag_102:\n        /* \"#utility.yul\":876:878   */\n      0x20\n        /* \"#utility.yul\":871:874   */\n      dup3\n        /* \"#utility.yul\":867:879   */\n      add\n        /* \"#utility.yul\":860:879   */\n      swap1\n      pop\n        /* \"#utility.yul\":519:885   */\n      swap2\n      swap1\n      pop\n      jump\t// out\n        /* \"#utility.yul\":891:1257   */\n    tag_104:\n        /* \"#utility.yul\":1033:1036   */\n      0x00\n        /* \"#utility.yul\":1054:1121   */\n      tag_106\n        /* \"#utility.yul\":1118:1120   */\n      0x14\n        /* \"#utility.yul\":1113:1116   */\n      dup4\n        /* \"#utility.yul\":1054:1121   */\n      tag_101\n      jump\t// in\n    tag_106:\n        /* \"#utility.yul\":1047:1121   */\n      swap2\n      pop\n        /* \"#utility.yul\":1130:1223   */\n      tag_107\n        /* \"#utility.yul\":1219:1222   */\n      dup3\n        /* \"#utility.yul\":1130:1223   */\n      tag_108\n      jump\t// in\n    tag_107:\n        /* \"#utility.yul\":1248:1250   */\n      0x20\n        /* \"#utility.yul\":1243:1246   */\n      dup3\n        /* \"#utility.yul\":1239:1251   */\n      add\n        /* \"#utility.yul\":1232:1251   */\n      swap1\n      pop\n        /* \"#utility.yul\":891:1257   */\n      swap2\n      swap1\n      pop\n      jump\t// out\n        /* \"#utility.yul\":1263:1629   */\n    tag_109:\n        /* \"#utility.yul\":1405:1408   */\n      0x00\n        /* \"#utility.yul\":1426:1493   */\n      tag_111\n        /* \"#utility.yul\":1490:1492   */\n      0x21\n        /* \"#utility.yul\":1485:1488   */\n      dup4\n        /* \"#utility.yul\":1426:1493   */\n      tag_101\n      jump\t// in\n    tag_111:\n        /* \"#utility.yul\":1419:1493   */\n      swap2\n      pop\n        /* \"#utility.yul\":1502:1595   */\n      tag_112\n        /* \"#utility.yul\":1591:1594   */\n      dup3\n        /* \"#utility.yul\":1502:1595   */\n      tag_113\n      jump\t// in\n    tag_112:\n        /* \"#utility.yul\":1620:1622   */\n      0x40\n        /* \"#utility.yul\":1615:1618   */\n      dup3\n        /* \"#utility.yul\":1611:1623   */\n      add\n        /* \"#utility.yul\":1604:1623   */\n      swap1\n      pop\n        /* \"#utility.yul\":1263:1629   */\n      swap2\n      swap1\n      pop\n      jump\t// out\n        /* \"#utility.yul\":1635:2001   */\n    tag_114:\n        /* \"#utility.yul\":1777:1780   */\n      0x00\n        /* \"#utility.yul\":1798:1865   */\n      tag_116\n        /* \"#utility.yul\":1862:1864   */\n      0x45\n        /* \"#utility.yul\":1857:1860   */\n      dup4\n        /* \"#utility.yul\":1798:1865   */\n      tag_101\n      jump\t// in\n    tag_116:\n        /* \"#utility.yul\":1791:1865   */\n      swap2\n      pop\n        /* \"#utility.yul\":1874:1967   */\n      tag_117\n        /* \"#utility.yul\":1963:1966   */\n      dup3\n        /* \"#utility.yul\":1874:1967   */\n      tag_118\n      jump\t// in\n    tag_117:\n        /* \"#utility.yul\":1992:1994   */\n      0x60\n        /* \"#utility.yul\":1987:1990   */\n      dup3\n        /* \"#utility.yul\":1983:1995   */\n      add\n        /* \"#utility.yul\":1976:1995   */\n      swap1\n      pop\n        /* \"#utility.yul\":1635:2001   */\n      swap2\n      swap1\n      pop\n      jump\t// out\n        /* \"#utility.yul\":2007:2405   */\n    tag_119:\n        /* \"#utility.yul\":2166:2169   */\n      0x00\n        /* \"#utility.yul\":2187:2270   */\n      tag_121\n        /* \"#utility.yul\":2268:2269   */\n      0x00\n        /* \"#utility.yul\":2263:2266   */\n      dup4\n        /* \"#utility.yul\":2187:2270   */\n      tag_122\n      jump\t// in\n    tag_121:\n        /* \"#utility.yul\":2180:2270   */\n      swap2\n      pop\n        /* \"#utility.yul\":2279:2372   */\n      tag_123\n        /* \"#utility.yul\":2368:2371   */\n      dup3\n        /* \"#utility.yul\":2279:2372   */\n      tag_124\n      jump\t// in\n    tag_123:\n        /* \"#utility.yul\":2397:2398   */\n      0x00\n        /* \"#utility.yul\":2392:2395   */\n      dup3\n        /* \"#utility.yul\":2388:2399   */\n      add\n        /* \"#utility.yul\":2381:2399   */\n      swap1\n      pop\n        /* \"#utility.yul\":2007:2405   */\n      swap2\n      swap1\n      pop\n      jump\t// out\n        /* \"#utility.yul\":2411:2777   */\n    tag_125:\n        /* \"#utility.yul\":2553:2556   */\n      0x00\n        /* \"#utility.yul\":2574:2641   */\n      tag_127\n        /* \"#utility.yul\":2638:2640   */\n      0x13\n        /* \"#utility.yul\":2633:2636   */\n      dup4\n        /* \"#utility.yul\":2574:2641   */\n      tag_101\n      jump\t// in\n    tag_127:\n        /* \"#utility.yul\":2567:2641   */\n      swap2\n      pop\n        /* \"#utility.yul\":2650:2743   */\n      tag_128\n        /* \"#utility.yul\":2739:2742   */\n      dup3\n        /* \"#utility.yul\":2650:2743   */\n      tag_129\n      jump\t// in\n    tag_128:\n        /* \"#utility.yul\":2768:2770   */\n      0x20\n        /* \"#utility.yul\":2763:2766   */\n      dup3\n        /* \"#utility.yul\":2759:2771   */\n      add\n        /* \"#utility.yul\":2752:2771   */\n      swap1\n      pop\n        /* \"#utility.yul\":2411:2777   */\n      swap2\n      swap1\n      pop\n      jump\t// out\n        /* \"#utility.yul\":2783:2901   */\n    tag_130:\n        /* \"#utility.yul\":2870:2894   */\n      tag_132\n        /* \"#utility.yul\":2888:2893   */\n      dup2\n        /* \"#utility.yul\":2870:2894   */\n      tag_133\n      jump\t// in\n    tag_132:\n        /* \"#utility.yul\":2865:2868   */\n      dup3\n        /* \"#utility.yul\":2858:2895   */\n      mstore\n        /* \"#utility.yul\":2783:2901   */\n      pop\n      pop\n      jump\t// out\n        /* \"#utility.yul\":2907:3286   */\n    tag_37:\n        /* \"#utility.yul\":3091:3094   */\n      0x00\n        /* \"#utility.yul\":3113:3260   */\n      tag_135\n        /* \"#utility.yul\":3256:3259   */\n      dup3\n        /* \"#utility.yul\":3113:3260   */\n      tag_119\n      jump\t// in\n    tag_135:\n        /* \"#utility.yul\":3106:3260   */\n      swap2\n      pop\n        /* \"#utility.yul\":3277:3280   */\n      dup2\n        /* \"#utility.yul\":3270:3280   */\n      swap1\n      pop\n        /* \"#utility.yul\":2907:3286   */\n      swap2\n      swap1\n      pop\n      jump\t// out\n        /* \"#utility.yul\":3292:3711   */\n    tag_12:\n        /* \"#utility.yul\":3458:3462   */\n      0x00\n        /* \"#utility.yul\":3496:3498   */\n      0x20\n        /* \"#utility.yul\":3485:3494   */\n      dup3\n        /* \"#utility.yul\":3481:3499   */\n      add\n        /* \"#utility.yul\":3473:3499   */\n      swap1\n      pop\n        /* \"#utility.yul\":3545:3554   */\n      dup2\n        /* \"#utility.yul\":3539:3543   */\n      dup2\n        /* \"#utility.yul\":3535:3555   */\n      sub\n        /* \"#utility.yul\":3531:3532   */\n      0x00\n        /* \"#utility.yul\":3520:3529   */\n      dup4\n        /* \"#utility.yul\":3516:3533   */\n      add\n        /* \"#utility.yul\":3509:3556   */\n      mstore\n        /* \"#utility.yul\":3573:3704   */\n      tag_137\n        /* \"#utility.yul\":3699:3703   */\n      dup2\n        /* \"#utility.yul\":3573:3704   */\n      tag_98\n      jump\t// in\n    tag_137:\n        /* \"#utility.yul\":3565:3704   */\n      swap1\n      pop\n        /* \"#utility.yul\":3292:3711   */\n      swap2\n      swap1\n      pop\n      jump\t// out\n        /* \"#utility.yul\":3717:4136   */\n    tag_43:\n        /* \"#utility.yul\":3883:3887   */\n      0x00\n        /* \"#utility.yul\":3921:3923   */\n      0x20\n        /* \"#utility.yul\":3910:3919   */\n      dup3\n        /* \"#utility.yul\":3906:3924   */\n      add\n        /* \"#utility.yul\":3898:3924   */\n      swap1\n      pop\n        /* \"#utility.yul\":3970:3979   */\n      dup2\n        /* \"#utility.yul\":3964:3968   */\n      dup2\n        /* \"#utility.yul\":3960:3980   */\n      sub\n        /* \"#utility.yul\":3956:3957   */\n      0x00\n        /* \"#utility.yul\":3945:3954   */\n      dup4\n        /* \"#utility.yul\":3941:3958   */\n      add\n        /* \"#utility.yul\":3934:3981   */\n      mstore\n        /* \"#utility.yul\":3998:4129   */\n      tag_139\n        /* \"#utility.yul\":4124:4128   */\n      dup2\n        /* \"#utility.yul\":3998:4129   */\n      tag_104\n      jump\t// in\n    tag_139:\n        /* \"#utility.yul\":3990:4129   */\n      swap1\n      pop\n        /* \"#utility.yul\":3717:4136   */\n      swap2\n      swap1\n      pop\n      jump\t// out\n        /* \"#utility.yul\":4142:4561   */\n    tag_69:\n        /* \"#utility.yul\":4308:4312   */\n      0x00\n        /* \"#utility.yul\":4346:4348   */\n      0x20\n        /* \"#utility.yul\":4335:4344   */\n      dup3\n        /* \"#utility.yul\":4331:4349   */\n      add\n        /* \"#utility.yul\":4323:4349   */\n      swap1\n      pop\n        /* \"#utility.yul\":4395:4404   */\n      dup2\n        /* \"#utility.yul\":4389:4393   */\n      dup2\n        /* \"#utility.yul\":4385:4405   */\n      sub\n        /* \"#utility.yul\":4381:4382   */\n      0x00\n        /* \"#utility.yul\":4370:4379   */\n      dup4\n        /* \"#utility.yul\":4366:4383   */\n      add\n        /* \"#utility.yul\":4359:4406   */\n      mstore\n        /* \"#utility.yul\":4423:4554   */\n      tag_141\n        /* \"#utility.yul\":4549:4553   */\n      dup2\n        /* \"#utility.yul\":4423:4554   */\n      tag_109\n      jump\t// in\n    tag_141:\n        /* \"#utility.yul\":4415:4554   */\n      swap1\n      pop\n        /* \"#utility.yul\":4142:4561   */\n      swap2\n      swap1\n      pop\n      jump\t// out\n        /* \"#utility.yul\":4567:4986   */\n    tag_32:\n        /* \"#utility.yul\":4733:4737   */\n      0x00\n        /* \"#utility.yul\":4771:4773   */\n      0x20\n        /* \"#utility.yul\":4760:4769   */\n      dup3\n        /* \"#utility.yul\":4756:4774   */\n      add\n        /* \"#utility.yul\":4748:4774   */\n      swap1\n      pop\n        /* \"#utility.yul\":4820:4829   */\n      dup2\n        /* \"#utility.yul\":4814:4818   */\n      dup2\n        /* \"#utility.yul\":4810:4830   */\n      sub\n        /* \"#utility.yul\":4806:4807   */\n      0x00\n        /* \"#utility.yul\":4795:4804   */\n      dup4\n        /* \"#utility.yul\":4791:4808   */\n      add\n        /* \"#utility.yul\":4784:4831   */\n      mstore\n        /* \"#utility.yul\":4848:4979   */\n      tag_143\n        /* \"#utility.yul\":4974:4978   */\n      dup2\n        /* \"#utility.yul\":4848:4979   */\n      tag_114\n      jump\t// in\n    tag_143:\n        /* \"#utility.yul\":4840:4979   */\n      swap1\n      pop\n        /* \"#utility.yul\":4567:4986   */\n      swap2\n      swap1\n      pop\n      jump\t// out\n        /* \"#utility.yul\":4992:5411   */\n    tag_35:\n        /* \"#utility.yul\":5158:5162   */\n      0x00\n        /* \"#utility.yul\":5196:5198   */\n      0x20\n        /* \"#utility.yul\":5185:5194   */\n      dup3\n        /* \"#utility.yul\":5181:5199   */\n      add\n        /* \"#utility.yul\":5173:5199   */\n      swap1\n      pop\n        /* \"#utility.yul\":5245:5254   */\n      dup2\n        /* \"#utility.yul\":5239:5243   */\n      dup2\n        /* \"#utility.yul\":5235:5255   */\n      sub\n        /* \"#utility.yul\":5231:5232   */\n      0x00\n        /* \"#utility.yul\":5220:5229   */\n      dup4\n        /* \"#utility.yul\":5216:5233   */\n      add\n        /* \"#utility.yul\":5209:5256   */\n      mstore\n        /* \"#utility.yul\":5273:5404   */\n      tag_145\n        /* \"#utility.yul\":5399:5403   */\n      dup2\n        /* \"#utility.yul\":5273:5404   */\n      tag_125\n      jump\t// in\n    tag_145:\n        /* \"#utility.yul\":5265:5404   */\n      swap1\n      pop\n        /* \"#utility.yul\":4992:5411   */\n      swap2\n      swap1\n      pop\n      jump\t// out\n        /* \"#utility.yul\":5417:5639   */\n    tag_28:\n        /* \"#utility.yul\":5510:5514   */\n      0x00\n        /* \"#utility.yul\":5548:5550   */\n      0x20\n        /* \"#utility.yul\":5537:5546   */\n      dup3\n        /* \"#utility.yul\":5533:5551   */\n      add\n        /* \"#utility.yul\":5525:5551   */\n      swap1\n      pop\n        /* \"#utility.yul\":5561:5632   */\n      tag_147\n        /* \"#utility.yul\":5629:5630   */\n      0x00\n        /* \"#utility.yul\":5618:5627   */\n      dup4\n        /* \"#utility.yul\":5614:5631   */\n      add\n        /* \"#utility.yul\":5605:5611   */\n      dup5\n        /* \"#utility.yul\":5561:5632   */\n      tag_130\n      jump\t// in\n    tag_147:\n        /* \"#utility.yul\":5417:5639   */\n      swap3\n      swap2\n      pop\n      pop\n      jump\t// out\n        /* \"#utility.yul\":5726:5873   */\n    tag_122:\n        /* \"#utility.yul\":5827:5838   */\n      0x00\n        /* \"#utility.yul\":5864:5867   */\n      dup2\n        /* \"#utility.yul\":5849:5867   */\n      swap1\n      pop\n        /* \"#utility.yul\":5726:5873   */\n      swap3\n      swap2\n      pop\n      pop\n      jump\t// out\n        /* \"#utility.yul\":5879:6048   */\n    tag_101:\n        /* \"#utility.yul\":5963:5974   */\n      0x00\n        /* \"#utility.yul\":5997:6003   */\n      dup3\n        /* \"#utility.yul\":5992:5995   */\n      dup3\n        /* \"#utility.yul\":5985:6004   */\n      mstore\n        /* \"#utility.yul\":6037:6041   */\n      0x20\n        /* \"#utility.yul\":6032:6035   */\n      dup3\n        /* \"#utility.yul\":6028:6042   */\n      add\n        /* \"#utility.yul\":6013:6042   */\n      swap1\n      pop\n        /* \"#utility.yul\":5879:6048   */\n      swap3\n      swap2\n      pop\n      pop\n      jump\t// out\n        /* \"#utility.yul\":6054:6359   */\n    tag_61:\n        /* \"#utility.yul\":6094:6097   */\n      0x00\n        /* \"#utility.yul\":6113:6133   */\n      tag_153\n        /* \"#utility.yul\":6131:6132   */\n      dup3\n        /* \"#utility.yul\":6113:6133   */\n      tag_133\n      jump\t// in\n    tag_153:\n        /* \"#utility.yul\":6108:6133   */\n      swap2\n      pop\n        /* \"#utility.yul\":6147:6167   */\n      tag_154\n        /* \"#utility.yul\":6165:6166   */\n      dup4\n        /* \"#utility.yul\":6147:6167   */\n      tag_133\n      jump\t// in\n    tag_154:\n        /* \"#utility.yul\":6142:6167   */\n      swap3\n      pop\n        /* \"#utility.yul\":6301:6302   */\n      dup3\n        /* \"#utility.yul\":6233:6299   */\n      0xffffffffffffffffffffffffffffffffffffffffffffffffffffffffffffffff\n        /* \"#utility.yul\":6229:6303   */\n      sub\n        /* \"#utility.yul\":6226:6227   */\n      dup3\n        /* \"#utility.yul\":6223:6304   */\n      gt\n        /* \"#utility.yul\":6220:6327   */\n      iszero\n      tag_155\n      jumpi\n        /* \"#utility.yul\":6307:6325   */\n      tag_156\n      tag_157\n      jump\t// in\n    tag_156:\n        /* \"#utility.yul\":6220:6327   */\n    tag_155:\n        /* \"#utility.yul\":6351:6352   */\n      dup3\n        /* \"#utility.yul\":6348:6349   */\n      dup3\n        /* \"#utility.yul\":6344:6353   */\n      add\n        /* \"#utility.yul\":6337:6353   */\n      swap1\n      pop\n        /* \"#utility.yul\":6054:6359   */\n      swap3\n      swap2\n      pop\n      pop\n      jump\t// out\n        /* \"#utility.yul\":6365:6556   */\n    tag_45:\n        /* \"#utility.yul\":6405:6409   */\n      0x00\n        /* \"#utility.yul\":6425:6445   */\n      tag_159\n        /* \"#utility.yul\":6443:6444   */\n      dup3\n        /* \"#utility.yul\":6425:6445   */\n      tag_133\n      jump\t// in\n    tag_159:\n        /* \"#utility.yul\":6420:6445   */\n      swap2\n      pop\n        /* \"#utility.yul\":6459:6479   */\n      tag_160\n        /* \"#utility.yul\":6477:6478   */\n      dup4\n        /* \"#utility.yul\":6459:6479   */\n      tag_133\n      jump\t// in\n    tag_160:\n        /* \"#utility.yul\":6454:6479   */\n      swap3\n      pop\n        /* \"#utility.yul\":6498:6499   */\n      dup3\n        /* \"#utility.yul\":6495:6496   */\n      dup3\n        /* \"#utility.yul\":6492:6500   */\n      lt\n        /* \"#utility.yul\":6489:6523   */\n      iszero\n      tag_161\n      jumpi\n        /* \"#utility.yul\":6503:6521   */\n      tag_162\n      tag_157\n      jump\t// in\n    tag_162:\n        /* \"#utility.yul\":6489:6523   */\n    tag_161:\n        /* \"#utility.yul\":6548:6549   */\n      dup3\n        /* \"#utility.yul\":6545:6546   */\n      dup3\n        /* \"#utility.yul\":6541:6550   */\n      sub\n        /* \"#utility.yul\":6533:6550   */\n      swap1\n      pop\n        /* \"#utility.yul\":6365:6556   */\n      swap3\n      swap2\n      pop\n      pop\n      jump\t// out\n        /* \"#utility.yul\":6562:6666   */\n    tag_163:\n        /* \"#utility.yul\":6607:6614   */\n      0x00\n        /* \"#utility.yul\":6636:6660   */\n      tag_165\n        /* \"#utility.yul\":6654:6659   */\n      dup3\n        /* \"#utility.yul\":6636:6660   */\n      tag_166\n      jump\t// in\n    tag_165:\n        /* \"#utility.yul\":6625:6660   */\n      swap1\n      pop\n        /* \"#utility.yul\":6562:6666   */\n      swap2\n      swap1\n      pop\n      jump\t// out\n        /* \"#utility.yul\":6672:6798   */\n    tag_166:\n        /* \"#utility.yul\":6709:6716   */\n      0x00\n        /* \"#utility.yul\":6749:6791   */\n      0xffffffffffffffffffffffffffffffffffffffff\n        /* \"#utility.yul\":6742:6747   */\n      dup3\n        /* \"#utility.yul\":6738:6792   */\n      and\n        /* \"#utility.yul\":6727:6792   */\n      swap1\n      pop\n        /* \"#utility.yul\":6672:6798   */\n      swap2\n      swap1\n      pop\n      jump\t// out\n        /* \"#utility.yul\":6804:6881   */\n    tag_133:\n        /* \"#utility.yul\":6841:6848   */\n      0x00\n        /* \"#utility.yul\":6870:6875   */\n      dup2\n        /* \"#utility.yul\":6859:6875   */\n      swap1\n      pop\n        /* \"#utility.yul\":6804:6881   */\n      swap2\n      swap1\n      pop\n      jump\t// out\n        /* \"#utility.yul\":6887:7120   */\n    tag_58:\n        /* \"#utility.yul\":6926:6929   */\n      0x00\n        /* \"#utility.yul\":6949:6973   */\n      tag_170\n        /* \"#utility.yul\":6967:6972   */\n      dup3\n        /* \"#utility.yul\":6949:6973   */\n      tag_133\n      jump\t// in\n    tag_170:\n        /* \"#utility.yul\":6940:6973   */\n      swap2\n      pop\n        /* \"#utility.yul\":6995:7061   */\n      0xffffffffffffffffffffffffffffffffffffffffffffffffffffffffffffffff\n        /* \"#utility.yul\":6988:6993   */\n      dup3\n        /* \"#utility.yul\":6985:7062   */\n      eq\n        /* \"#utility.yul\":6982:7085   */\n      iszero\n      tag_171\n      jumpi\n        /* \"#utility.yul\":7065:7083   */\n      tag_172\n      tag_157\n      jump\t// in\n    tag_172:\n        /* \"#utility.yul\":6982:7085   */\n    tag_171:\n        /* \"#utility.yul\":7112:7113   */\n      0x01\n        /* \"#utility.yul\":7105:7110   */\n      dup3\n        /* \"#utility.yul\":7101:7114   */\n      add\n        /* \"#utility.yul\":7094:7114   */\n      swap1\n      pop\n        /* \"#utility.yul\":6887:7120   */\n      swap2\n      swap1\n      pop\n      jump\t// out\n        /* \"#utility.yul\":7126:7306   */\n    tag_157:\n        /* \"#utility.yul\":7174:7251   */\n      0x4e487b7100000000000000000000000000000000000000000000000000000000\n        /* \"#utility.yul\":7171:7172   */\n      0x00\n        /* \"#utility.yul\":7164:7252   */\n      mstore\n        /* \"#utility.yul\":7271:7275   */\n      0x11\n        /* \"#utility.yul\":7268:7269   */\n      0x04\n        /* \"#utility.yul\":7261:7276   */\n      mstore\n        /* \"#utility.yul\":7295:7299   */\n      0x24\n        /* \"#utility.yul\":7292:7293   */\n      0x00\n        /* \"#utility.yul\":7285:7300   */\n      revert\n        /* \"#utility.yul\":7312:7492   */\n    tag_51:\n        /* \"#utility.yul\":7360:7437   */\n      0x4e487b7100000000000000000000000000000000000000000000000000000000\n        /* \"#utility.yul\":7357:7358   */\n      0x00\n        /* \"#utility.yul\":7350:7438   */\n      mstore\n        /* \"#utility.yul\":7457:7461   */\n      0x32\n        /* \"#utility.yul\":7454:7455   */\n      0x04\n        /* \"#utility.yul\":7447:7462   */\n      mstore\n        /* \"#utility.yul\":7481:7485   */\n      0x24\n        /* \"#utility.yul\":7478:7479   */\n      0x00\n        /* \"#utility.yul\":7471:7486   */\n      revert\n        /* \"#utility.yul\":7621:7738   */\n    tag_96:\n        /* \"#utility.yul\":7730:7731   */\n      0x00\n        /* \"#utility.yul\":7727:7728   */\n      dup1\n        /* \"#utility.yul\":7720:7732   */\n      revert\n        /* \"#utility.yul\":7744:7925   */\n    tag_103:\n        /* \"#utility.yul\":7884:7917   */\n      0x63616c6c206f662061206e6f6e2d6578697374656e742066756e6374696f6e00\n        /* \"#utility.yul\":7880:7881   */\n      0x00\n        /* \"#utility.yul\":7872:7878   */\n      dup3\n        /* \"#utility.yul\":7868:7882   */\n      add\n        /* \"#utility.yul\":7861:7918   */\n      mstore\n        /* \"#utility.yul\":7744:7925   */\n      pop\n      jump\t// out\n        /* \"#utility.yul\":7931:8101   */\n    tag_108:\n        /* \"#utility.yul\":8071:8093   */\n      0x4661696c656420746f2073656e64204574686572000000000000000000000000\n        /* \"#utility.yul\":8067:8068   */\n      0x00\n        /* \"#utility.yul\":8059:8065   */\n      dup3\n        /* \"#utility.yul\":8055:8069   */\n      add\n        /* \"#utility.yul\":8048:8094   */\n      mstore\n        /* \"#utility.yul\":7931:8101   */\n      pop\n      jump\t// out\n        /* \"#utility.yul\":8107:8327   */\n    tag_113:\n        /* \"#utility.yul\":8247:8281   */\n      0x596f7520646f6e27742068617665206574686572732073656e7420746f20796f\n        /* \"#utility.yul\":8243:8244   */\n      0x00\n        /* \"#utility.yul\":8235:8241   */\n      dup3\n        /* \"#utility.yul\":8231:8245   */\n      add\n        /* \"#utility.yul\":8224:8282   */\n      mstore\n        /* \"#utility.yul\":8316:8319   */\n      0x7500000000000000000000000000000000000000000000000000000000000000\n        /* \"#utility.yul\":8311:8313   */\n      0x20\n        /* \"#utility.yul\":8303:8309   */\n      dup3\n        /* \"#utility.yul\":8299:8314   */\n      add\n        /* \"#utility.yul\":8292:8320   */\n      mstore\n        /* \"#utility.yul\":8107:8327   */\n      pop\n      jump\t// out\n        /* \"#utility.yul\":8333:8626   */\n    tag_118:\n        /* \"#utility.yul\":8473:8507   */\n      0x526f6c6c6261636b206973206e6f7420617661696c61626c6520666f7220796f\n        /* \"#utility.yul\":8469:8470   */\n      0x00\n        /* \"#utility.yul\":8461:8467   */\n      dup3\n        /* \"#utility.yul\":8457:8471   */\n      add\n        /* \"#utility.yul\":8450:8508   */\n      mstore\n        /* \"#utility.yul\":8542:8576   */\n      0x752e20457468657273206d6967687420626520616c7265616479207769746864\n        /* \"#utility.yul\":8537:8539   */\n      0x20\n        /* \"#utility.yul\":8529:8535   */\n      dup3\n        /* \"#utility.yul\":8525:8540   */\n      add\n        /* \"#utility.yul\":8518:8577   */\n      mstore\n        /* \"#utility.yul\":8611:8618   */\n      0x7261776564000000000000000000000000000000000000000000000000000000\n        /* \"#utility.yul\":8606:8608   */\n      0x40\n        /* \"#utility.yul\":8598:8604   */\n      dup3\n        /* \"#utility.yul\":8594:8609   */\n      add\n        /* \"#utility.yul\":8587:8619   */\n      mstore\n        /* \"#utility.yul\":8333:8626   */\n      pop\n      jump\t// out\n        /* \"#utility.yul\":8632:8746   */\n    tag_124:\n      pop\n      jump\t// out\n        /* \"#utility.yul\":8752:8921   */\n    tag_129:\n        /* \"#utility.yul\":8892:8913   */\n      0x526f6c6c6261636b2076616c7565206973203000000000000000000000000000\n        /* \"#utility.yul\":8888:8889   */\n      0x00\n        /* \"#utility.yul\":8880:8886   */\n      dup3\n        /* \"#utility.yul\":8876:8890   */\n      add\n        /* \"#utility.yul\":8869:8914   */\n      mstore\n        /* \"#utility.yul\":8752:8921   */\n      pop\n      jump\t// out\n        /* \"#utility.yul\":8927:9065   */\n    tag_92:\n        /* \"#utility.yul\":9008:9040   */\n      tag_185\n        /* \"#utility.yul\":9034:9039   */\n      dup2\n        /* \"#utility.yul\":9008:9040   */\n      tag_163\n      jump\t// in\n    tag_185:\n        /* \"#utility.yul\":9001:9006   */\n      dup2\n        /* \"#utility.yul\":8998:9041   */\n      eq\n        /* \"#utility.yul\":8988:9059   */\n      tag_186\n      jumpi\n        /* \"#utility.yul\":9055:9056   */\n      0x00\n        /* \"#utility.yul\":9052:9053   */\n      dup1\n        /* \"#utility.yul\":9045:9057   */\n      revert\n        /* \"#utility.yul\":8988:9059   */\n    tag_186:\n        /* \"#utility.yul\":8927:9065   */\n      pop\n      jump\t// out\n\n    auxdata: 0xa26469706673582212200c5d81db6537cf482a7507d8c22aa8d4891e9e4caf9a88598cd73a37915f64d664736f6c63430008070033\n}\n",
				"bytecode": {
					"linkReferences": {},
					"object": "608060405234801561001057600080fd5b506112cd806100206000396000f3fe6080604052600436106100435760003560e01c8063368438611461008157806348c981e2146100aa5780637362377b146100c6578063ea46193e146100dd5761004a565b3661004a57005b7f08c379a0afcc32b1a39302f7cb8073359698411ab5fd6e3edb2c02c0b5fba8aa60405161007790610ef5565b60405180910390a1005b34801561008d57600080fd5b506100a860048036038101906100a39190610dd2565b610108565b005b6100c460048036038101906100bf9190610dd2565b610651565b005b3480156100d257600080fd5b506100db6109f3565b005b3480156100e957600080fd5b506100f2610db5565b6040516100ff9190610f95565b60405180910390f35b6000339050600260008373ffffffffffffffffffffffffffffffffffffffff1673ffffffffffffffffffffffffffffffffffffffff16815260200190815260200160002060008273ffffffffffffffffffffffffffffffffffffffff1673ffffffffffffffffffffffffffffffffffffffff16815260200190815260200160002060009054906101000a900460ff166101d6576040517f08c379a00000000000000000000000000000000000000000000000000000000081526004016101cd90610f55565b60405180910390fd5b6000600360008473ffffffffffffffffffffffffffffffffffffffff1673ffffffffffffffffffffffffffffffffffffffff16815260200190815260200160002060008373ffffffffffffffffffffffffffffffffffffffff1673ffffffffffffffffffffffffffffffffffffffff168152602001908152602001600020549050600081141561029b576040517f08c379a000000000000000000000000000000000000000000000000000000000815260040161029290610f75565b60405180910390fd5b60008273ffffffffffffffffffffffffffffffffffffffff16826040516102c190610ee0565b60006040518083038185875af1925050503d80600081146102fe576040519150601f19603f3d011682016040523d82523d6000602084013e610303565b606091505b5050905080610347576040517f08c379a000000000000000000000000000000000000000000000000000000000815260040161033e90610f15565b60405180910390fd5b816000808673ffffffffffffffffffffffffffffffffffffffff1673ffffffffffffffffffffffffffffffffffffffff16815260200190815260200160002060008282546103959190611022565b92505081905550600360008573ffffffffffffffffffffffffffffffffffffffff1673ffffffffffffffffffffffffffffffffffffffff16815260200190815260200160002060008473ffffffffffffffffffffffffffffffffffffffff1673ffffffffffffffffffffffffffffffffffffffff168152602001908152602001600020600090556000600260008673ffffffffffffffffffffffffffffffffffffffff1673ffffffffffffffffffffffffffffffffffffffff16815260200190815260200160002060008573ffffffffffffffffffffffffffffffffffffffff1673ffffffffffffffffffffffffffffffffffffffff16815260200190815260200160002060006101000a81548160ff02191690831515021790555060005b600160008673ffffffffffffffffffffffffffffffffffffffff1673ffffffffffffffffffffffffffffffffffffffff1681526020019081526020016000208054905081101561064a576000600160008773ffffffffffffffffffffffffffffffffffffffff1673ffffffffffffffffffffffffffffffffffffffff16815260200190815260200160002082815481106105515761055061110a565b5b9060005260206000200160009054906101000a900473ffffffffffffffffffffffffffffffffffffffff1690508473ffffffffffffffffffffffffffffffffffffffff168173ffffffffffffffffffffffffffffffffffffffff16141561063657600160008773ffffffffffffffffffffffffffffffffffffffff1673ffffffffffffffffffffffffffffffffffffffff16815260200190815260200160002082815481106106035761060261110a565b5b9060005260206000200160006101000a81549073ffffffffffffffffffffffffffffffffffffffff02191690555061064a565b50808061064290611092565b9150506104b4565b5050505050565b60003390506000349050806000808573ffffffffffffffffffffffffffffffffffffffff1673ffffffffffffffffffffffffffffffffffffffff16815260200190815260200160002060008282546106a99190610fcc565b92505081905550600260008473ffffffffffffffffffffffffffffffffffffffff1673ffffffffffffffffffffffffffffffffffffffff16815260200190815260200160002060008373ffffffffffffffffffffffffffffffffffffffff1673ffffffffffffffffffffffffffffffffffffffff16815260200190815260200160002060009054906101000a900460ff166107c1576000600360008573ffffffffffffffffffffffffffffffffffffffff1673ffffffffffffffffffffffffffffffffffffffff16815260200190815260200160002060008473ffffffffffffffffffffffffffffffffffffffff1673ffffffffffffffffffffffffffffffffffffffff168152602001908152602001600020819055505b80600360008573ffffffffffffffffffffffffffffffffffffffff1673ffffffffffffffffffffffffffffffffffffffff16815260200190815260200160002060008473ffffffffffffffffffffffffffffffffffffffff1673ffffffffffffffffffffffffffffffffffffffff168152602001908152602001600020600082825461084d9190610fcc565b925050819055506001600260008573ffffffffffffffffffffffffffffffffffffffff1673ffffffffffffffffffffffffffffffffffffffff16815260200190815260200160002060008473ffffffffffffffffffffffffffffffffffffffff1673ffffffffffffffffffffffffffffffffffffffff16815260200190815260200160002060006101000a81548160ff021916908315150217905550600160008473ffffffffffffffffffffffffffffffffffffffff1673ffffffffffffffffffffffffffffffffffffffff168152602001908152602001600020829080600181540180825580915050600190039060005260206000200160009091909190916101000a81548173ffffffffffffffffffffffffffffffffffffffff021916908373ffffffffffffffffffffffffffffffffffffffff1602179055508273ffffffffffffffffffffffffffffffffffffffff168273ffffffffffffffffffffffffffffffffffffffff167fa343f361112b028dae2501770614271723be1d24c9f64fed2d4bd3ddf1c13e35836040516109e69190610f95565b60405180910390a3505050565b600033905060008060008373ffffffffffffffffffffffffffffffffffffffff1673ffffffffffffffffffffffffffffffffffffffff1681526020019081526020016000205490506000811415610a7f576040517f08c379a0000000000000000000000000000000000000000000000000000000008152600401610a7690610f35565b60405180910390fd5b60008273ffffffffffffffffffffffffffffffffffffffff1682604051610aa590610ee0565b60006040518083038185875af1925050503d8060008114610ae2576040519150601f19603f3d011682016040523d82523d6000602084013e610ae7565b606091505b5050905080610b2b576040517f08c379a0000000000000000000000000000000000000000000000000000000008152600401610b2290610f15565b60405180910390fd5b6000808473ffffffffffffffffffffffffffffffffffffffff1673ffffffffffffffffffffffffffffffffffffffff1681526020019081526020016000206000905560005b600160008573ffffffffffffffffffffffffffffffffffffffff1673ffffffffffffffffffffffffffffffffffffffff16815260200190815260200160002080549050811015610d61576000600160008673ffffffffffffffffffffffffffffffffffffffff1673ffffffffffffffffffffffffffffffffffffffff1681526020019081526020016000208281548110610c0d57610c0c61110a565b5b9060005260206000200160009054906101000a900473ffffffffffffffffffffffffffffffffffffffff1690506000600260008773ffffffffffffffffffffffffffffffffffffffff1673ffffffffffffffffffffffffffffffffffffffff16815260200190815260200160002060008373ffffffffffffffffffffffffffffffffffffffff1673ffffffffffffffffffffffffffffffffffffffff16815260200190815260200160002060006101000a81548160ff021916908315150217905550600160008673ffffffffffffffffffffffffffffffffffffffff1673ffffffffffffffffffffffffffffffffffffffff1681526020019081526020016000208281548110610d2057610d1f61110a565b5b9060005260206000200160006101000a81549073ffffffffffffffffffffffffffffffffffffffff0219169055508080610d5990611092565b915050610b70565b503373ffffffffffffffffffffffffffffffffffffffff167fa74fab966bfc29d4ea7866d609ac5d94324a5fe817362d6a9fee5d2f8df4675983604051610da89190610f95565b60405180910390a2505050565b600047905090565b600081359050610dcc81611280565b92915050565b600060208284031215610de857610de7611139565b5b6000610df684828501610dbd565b91505092915050565b6000610e0c601f83610fbb565b9150610e178261113e565b602082019050919050565b6000610e2f601483610fbb565b9150610e3a82611167565b602082019050919050565b6000610e52602183610fbb565b9150610e5d82611190565b604082019050919050565b6000610e75604583610fbb565b9150610e80826111df565b606082019050919050565b6000610e98600083610fb0565b9150610ea382611254565b600082019050919050565b6000610ebb601383610fbb565b9150610ec682611257565b602082019050919050565b610eda81611088565b82525050565b6000610eeb82610e8b565b9150819050919050565b60006020820190508181036000830152610f0e81610dff565b9050919050565b60006020820190508181036000830152610f2e81610e22565b9050919050565b60006020820190508181036000830152610f4e81610e45565b9050919050565b60006020820190508181036000830152610f6e81610e68565b9050919050565b60006020820190508181036000830152610f8e81610eae565b9050919050565b6000602082019050610faa6000830184610ed1565b92915050565b600081905092915050565b600082825260208201905092915050565b6000610fd782611088565b9150610fe283611088565b9250827fffffffffffffffffffffffffffffffffffffffffffffffffffffffffffffffff03821115611017576110166110db565b5b828201905092915050565b600061102d82611088565b915061103883611088565b92508282101561104b5761104a6110db565b5b828203905092915050565b600061106182611068565b9050919050565b600073ffffffffffffffffffffffffffffffffffffffff82169050919050565b6000819050919050565b600061109d82611088565b91507fffffffffffffffffffffffffffffffffffffffffffffffffffffffffffffffff8214156110d0576110cf6110db565b5b600182019050919050565b7f4e487b7100000000000000000000000000000000000000000000000000000000600052601160045260246000fd5b7f4e487b7100000000000000000000000000000000000000000000000000000000600052603260045260246000fd5b600080fd5b7f63616c6c206f662061206e6f6e2d6578697374656e742066756e6374696f6e00600082015250565b7f4661696c656420746f2073656e64204574686572000000000000000000000000600082015250565b7f596f7520646f6e27742068617665206574686572732073656e7420746f20796f60008201527f7500000000000000000000000000000000000000000000000000000000000000602082015250565b7f526f6c6c6261636b206973206e6f7420617661696c61626c6520666f7220796f60008201527f752e20457468657273206d6967687420626520616c726561647920776974686460208201527f7261776564000000000000000000000000000000000000000000000000000000604082015250565b50565b7f526f6c6c6261636b2076616c7565206973203000000000000000000000000000600082015250565b61128981611056565b811461129457600080fd5b5056fea26469706673582212200c5d81db6537cf482a7507d8c22aa8d4891e9e4caf9a88598cd73a37915f64d664736f6c63430008070033",
					"opcodes": "PUSH1 0x80 PUSH1 0x40 MSTORE CALLVALUE DUP1 ISZERO PUSH2 0x10 JUMPI PUSH1 0x0 DUP1 REVERT JUMPDEST POP PUSH2 0x12CD DUP1 PUSH2 0x20 PUSH1 0x0 CODECOPY PUSH1 0x0 RETURN INVALID PUSH1 0x80 PUSH1 0x40 MSTORE PUSH1 0x4 CALLDATASIZE LT PUSH2 0x43 JUMPI PUSH1 0x0 CALLDATALOAD PUSH1 0xE0 SHR DUP1 PUSH4 0x36843861 EQ PUSH2 0x81 JUMPI DUP1 PUSH4 0x48C981E2 EQ PUSH2 0xAA JUMPI DUP1 PUSH4 0x7362377B EQ PUSH2 0xC6 JUMPI DUP1 PUSH4 0xEA46193E EQ PUSH2 0xDD JUMPI PUSH2 0x4A JUMP JUMPDEST CALLDATASIZE PUSH2 0x4A JUMPI STOP JUMPDEST PUSH32 0x8C379A0AFCC32B1A39302F7CB8073359698411AB5FD6E3EDB2C02C0B5FBA8AA PUSH1 0x40 MLOAD PUSH2 0x77 SWAP1 PUSH2 0xEF5 JUMP JUMPDEST PUSH1 0x40 MLOAD DUP1 SWAP2 SUB SWAP1 LOG1 STOP JUMPDEST CALLVALUE DUP1 ISZERO PUSH2 0x8D JUMPI PUSH1 0x0 DUP1 REVERT JUMPDEST POP PUSH2 0xA8 PUSH1 0x4 DUP1 CALLDATASIZE SUB DUP2 ADD SWAP1 PUSH2 0xA3 SWAP2 SWAP1 PUSH2 0xDD2 JUMP JUMPDEST PUSH2 0x108 JUMP JUMPDEST STOP JUMPDEST PUSH2 0xC4 PUSH1 0x4 DUP1 CALLDATASIZE SUB DUP2 ADD SWAP1 PUSH2 0xBF SWAP2 SWAP1 PUSH2 0xDD2 JUMP JUMPDEST PUSH2 0x651 JUMP JUMPDEST STOP JUMPDEST CALLVALUE DUP1 ISZERO PUSH2 0xD2 JUMPI PUSH1 0x0 DUP1 REVERT JUMPDEST POP PUSH2 0xDB PUSH2 0x9F3 JUMP JUMPDEST STOP JUMPDEST CALLVALUE DUP1 ISZERO PUSH2 0xE9 JUMPI PUSH1 0x0 DUP1 REVERT JUMPDEST POP PUSH2 0xF2 PUSH2 0xDB5 JUMP JUMPDEST PUSH1 0x40 MLOAD PUSH2 0xFF SWAP2 SWAP1 PUSH2 0xF95 JUMP JUMPDEST PUSH1 0x40 MLOAD DUP1 SWAP2 SUB SWAP1 RETURN JUMPDEST PUSH1 0x0 CALLER SWAP1 POP PUSH1 0x2 PUSH1 0x0 DUP4 PUSH20 0xFFFFFFFFFFFFFFFFFFFFFFFFFFFFFFFFFFFFFFFF AND PUSH20 0xFFFFFFFFFFFFFFFFFFFFFFFFFFFFFFFFFFFFFFFF AND DUP2 MSTORE PUSH1 0x20 ADD SWAP1 DUP2 MSTORE PUSH1 0x20 ADD PUSH1 0x0 KECCAK256 PUSH1 0x0 DUP3 PUSH20 0xFFFFFFFFFFFFFFFFFFFFFFFFFFFFFFFFFFFFFFFF AND PUSH20 0xFFFFFFFFFFFFFFFFFFFFFFFFFFFFFFFFFFFFFFFF AND DUP2 MSTORE PUSH1 0x20 ADD SWAP1 DUP2 MSTORE PUSH1 0x20 ADD PUSH1 0x0 KECCAK256 PUSH1 0x0 SWAP1 SLOAD SWAP1 PUSH2 0x100 EXP SWAP1 DIV PUSH1 0xFF AND PUSH2 0x1D6 JUMPI PUSH1 0x40 MLOAD PUSH32 0x8C379A000000000000000000000000000000000000000000000000000000000 DUP2 MSTORE PUSH1 0x4 ADD PUSH2 0x1CD SWAP1 PUSH2 0xF55 JUMP JUMPDEST PUSH1 0x40 MLOAD DUP1 SWAP2 SUB SWAP1 REVERT JUMPDEST PUSH1 0x0 PUSH1 0x3 PUSH1 0x0 DUP5 PUSH20 0xFFFFFFFFFFFFFFFFFFFFFFFFFFFFFFFFFFFFFFFF AND PUSH20 0xFFFFFFFFFFFFFFFFFFFFFFFFFFFFFFFFFFFFFFFF AND DUP2 MSTORE PUSH1 0x20 ADD SWAP1 DUP2 MSTORE PUSH1 0x20 ADD PUSH1 0x0 KECCAK256 PUSH1 0x0 DUP4 PUSH20 0xFFFFFFFFFFFFFFFFFFFFFFFFFFFFFFFFFFFFFFFF AND PUSH20 0xFFFFFFFFFFFFFFFFFFFFFFFFFFFFFFFFFFFFFFFF AND DUP2 MSTORE PUSH1 0x20 ADD SWAP1 DUP2 MSTORE PUSH1 0x20 ADD PUSH1 0x0 KECCAK256 SLOAD SWAP1 POP PUSH1 0x0 DUP2 EQ ISZERO PUSH2 0x29B JUMPI PUSH1 0x40 MLOAD PUSH32 0x8C379A000000000000000000000000000000000000000000000000000000000 DUP2 MSTORE PUSH1 0x4 ADD PUSH2 0x292 SWAP1 PUSH2 0xF75 JUMP JUMPDEST PUSH1 0x40 MLOAD DUP1 SWAP2 SUB SWAP1 REVERT JUMPDEST PUSH1 0x0 DUP3 PUSH20 0xFFFFFFFFFFFFFFFFFFFFFFFFFFFFFFFFFFFFFFFF AND DUP3 PUSH1 0x40 MLOAD PUSH2 0x2C1 SWAP1 PUSH2 0xEE0 JUMP JUMPDEST PUSH1 0x0 PUSH1 0x40 MLOAD DUP1 DUP4 SUB DUP2 DUP6 DUP8 GAS CALL SWAP3 POP POP POP RETURNDATASIZE DUP1 PUSH1 0x0 DUP2 EQ PUSH2 0x2FE JUMPI PUSH1 0x40 MLOAD SWAP2 POP PUSH1 0x1F NOT PUSH1 0x3F RETURNDATASIZE ADD AND DUP3 ADD PUSH1 0x40 MSTORE RETURNDATASIZE DUP3 MSTORE RETURNDATASIZE PUSH1 0x0 PUSH1 0x20 DUP5 ADD RETURNDATACOPY PUSH2 0x303 JUMP JUMPDEST PUSH1 0x60 SWAP2 POP JUMPDEST POP POP SWAP1 POP DUP1 PUSH2 0x347 JUMPI PUSH1 0x40 MLOAD PUSH32 0x8C379A000000000000000000000000000000000000000000000000000000000 DUP2 MSTORE PUSH1 0x4 ADD PUSH2 0x33E SWAP1 PUSH2 0xF15 JUMP JUMPDEST PUSH1 0x40 MLOAD DUP1 SWAP2 SUB SWAP1 REVERT JUMPDEST DUP2 PUSH1 0x0 DUP1 DUP7 PUSH20 0xFFFFFFFFFFFFFFFFFFFFFFFFFFFFFFFFFFFFFFFF AND PUSH20 0xFFFFFFFFFFFFFFFFFFFFFFFFFFFFFFFFFFFFFFFF AND DUP2 MSTORE PUSH1 0x20 ADD SWAP1 DUP2 MSTORE PUSH1 0x20 ADD PUSH1 0x0 KECCAK256 PUSH1 0x0 DUP3 DUP3 SLOAD PUSH2 0x395 SWAP2 SWAP1 PUSH2 0x1022 JUMP JUMPDEST SWAP3 POP POP DUP2 SWAP1 SSTORE POP PUSH1 0x3 PUSH1 0x0 DUP6 PUSH20 0xFFFFFFFFFFFFFFFFFFFFFFFFFFFFFFFFFFFFFFFF AND PUSH20 0xFFFFFFFFFFFFFFFFFFFFFFFFFFFFFFFFFFFFFFFF AND DUP2 MSTORE PUSH1 0x20 ADD SWAP1 DUP2 MSTORE PUSH1 0x20 ADD PUSH1 0x0 KECCAK256 PUSH1 0x0 DUP5 PUSH20 0xFFFFFFFFFFFFFFFFFFFFFFFFFFFFFFFFFFFFFFFF AND PUSH20 0xFFFFFFFFFFFFFFFFFFFFFFFFFFFFFFFFFFFFFFFF AND DUP2 MSTORE PUSH1 0x20 ADD SWAP1 DUP2 MSTORE PUSH1 0x20 ADD PUSH1 0x0 KECCAK256 PUSH1 0x0 SWAP1 SSTORE PUSH1 0x0 PUSH1 0x2 PUSH1 0x0 DUP7 PUSH20 0xFFFFFFFFFFFFFFFFFFFFFFFFFFFFFFFFFFFFFFFF AND PUSH20 0xFFFFFFFFFFFFFFFFFFFFFFFFFFFFFFFFFFFFFFFF AND DUP2 MSTORE PUSH1 0x20 ADD SWAP1 DUP2 MSTORE PUSH1 0x20 ADD PUSH1 0x0 KECCAK256 PUSH1 0x0 DUP6 PUSH20 0xFFFFFFFFFFFFFFFFFFFFFFFFFFFFFFFFFFFFFFFF AND PUSH20 0xFFFFFFFFFFFFFFFFFFFFFFFFFFFFFFFFFFFFFFFF AND DUP2 MSTORE PUSH1 0x20 ADD SWAP1 DUP2 MSTORE PUSH1 0x20 ADD PUSH1 0x0 KECCAK256 PUSH1 0x0 PUSH2 0x100 EXP DUP2 SLOAD DUP2 PUSH1 0xFF MUL NOT AND SWAP1 DUP4 ISZERO ISZERO MUL OR SWAP1 SSTORE POP PUSH1 0x0 JUMPDEST PUSH1 0x1 PUSH1 0x0 DUP7 PUSH20 0xFFFFFFFFFFFFFFFFFFFFFFFFFFFFFFFFFFFFFFFF AND PUSH20 0xFFFFFFFFFFFFFFFFFFFFFFFFFFFFFFFFFFFFFFFF AND DUP2 MSTORE PUSH1 0x20 ADD SWAP1 DUP2 MSTORE PUSH1 0x20 ADD PUSH1 0x0 KECCAK256 DUP1 SLOAD SWAP1 POP DUP2 LT ISZERO PUSH2 0x64A JUMPI PUSH1 0x0 PUSH1 0x1 PUSH1 0x0 DUP8 PUSH20 0xFFFFFFFFFFFFFFFFFFFFFFFFFFFFFFFFFFFFFFFF AND PUSH20 0xFFFFFFFFFFFFFFFFFFFFFFFFFFFFFFFFFFFFFFFF AND DUP2 MSTORE PUSH1 0x20 ADD SWAP1 DUP2 MSTORE PUSH1 0x20 ADD PUSH1 0x0 KECCAK256 DUP3 DUP2 SLOAD DUP2 LT PUSH2 0x551 JUMPI PUSH2 0x550 PUSH2 0x110A JUMP JUMPDEST JUMPDEST SWAP1 PUSH1 0x0 MSTORE PUSH1 0x20 PUSH1 0x0 KECCAK256 ADD PUSH1 0x0 SWAP1 SLOAD SWAP1 PUSH2 0x100 EXP SWAP1 DIV PUSH20 0xFFFFFFFFFFFFFFFFFFFFFFFFFFFFFFFFFFFFFFFF AND SWAP1 POP DUP5 PUSH20 0xFFFFFFFFFFFFFFFFFFFFFFFFFFFFFFFFFFFFFFFF AND DUP2 PUSH20 0xFFFFFFFFFFFFFFFFFFFFFFFFFFFFFFFFFFFFFFFF AND EQ ISZERO PUSH2 0x636 JUMPI PUSH1 0x1 PUSH1 0x0 DUP8 PUSH20 0xFFFFFFFFFFFFFFFFFFFFFFFFFFFFFFFFFFFFFFFF AND PUSH20 0xFFFFFFFFFFFFFFFFFFFFFFFFFFFFFFFFFFFFFFFF AND DUP2 MSTORE PUSH1 0x20 ADD SWAP1 DUP2 MSTORE PUSH1 0x20 ADD PUSH1 0x0 KECCAK256 DUP3 DUP2 SLOAD DUP2 LT PUSH2 0x603 JUMPI PUSH2 0x602 PUSH2 0x110A JUMP JUMPDEST JUMPDEST SWAP1 PUSH1 0x0 MSTORE PUSH1 0x20 PUSH1 0x0 KECCAK256 ADD PUSH1 0x0 PUSH2 0x100 EXP DUP2 SLOAD SWAP1 PUSH20 0xFFFFFFFFFFFFFFFFFFFFFFFFFFFFFFFFFFFFFFFF MUL NOT AND SWAP1 SSTORE POP PUSH2 0x64A JUMP JUMPDEST POP DUP1 DUP1 PUSH2 0x642 SWAP1 PUSH2 0x1092 JUMP JUMPDEST SWAP2 POP POP PUSH2 0x4B4 JUMP JUMPDEST POP POP POP POP POP JUMP JUMPDEST PUSH1 0x0 CALLER SWAP1 POP PUSH1 0x0 CALLVALUE SWAP1 POP DUP1 PUSH1 0x0 DUP1 DUP6 PUSH20 0xFFFFFFFFFFFFFFFFFFFFFFFFFFFFFFFFFFFFFFFF AND PUSH20 0xFFFFFFFFFFFFFFFFFFFFFFFFFFFFFFFFFFFFFFFF AND DUP2 MSTORE PUSH1 0x20 ADD SWAP1 DUP2 MSTORE PUSH1 0x20 ADD PUSH1 0x0 KECCAK256 PUSH1 0x0 DUP3 DUP3 SLOAD PUSH2 0x6A9 SWAP2 SWAP1 PUSH2 0xFCC JUMP JUMPDEST SWAP3 POP POP DUP2 SWAP1 SSTORE POP PUSH1 0x2 PUSH1 0x0 DUP5 PUSH20 0xFFFFFFFFFFFFFFFFFFFFFFFFFFFFFFFFFFFFFFFF AND PUSH20 0xFFFFFFFFFFFFFFFFFFFFFFFFFFFFFFFFFFFFFFFF AND DUP2 MSTORE PUSH1 0x20 ADD SWAP1 DUP2 MSTORE PUSH1 0x20 ADD PUSH1 0x0 KECCAK256 PUSH1 0x0 DUP4 PUSH20 0xFFFFFFFFFFFFFFFFFFFFFFFFFFFFFFFFFFFFFFFF AND PUSH20 0xFFFFFFFFFFFFFFFFFFFFFFFFFFFFFFFFFFFFFFFF AND DUP2 MSTORE PUSH1 0x20 ADD SWAP1 DUP2 MSTORE PUSH1 0x20 ADD PUSH1 0x0 KECCAK256 PUSH1 0x0 SWAP1 SLOAD SWAP1 PUSH2 0x100 EXP SWAP1 DIV PUSH1 0xFF AND PUSH2 0x7C1 JUMPI PUSH1 0x0 PUSH1 0x3 PUSH1 0x0 DUP6 PUSH20 0xFFFFFFFFFFFFFFFFFFFFFFFFFFFFFFFFFFFFFFFF AND PUSH20 0xFFFFFFFFFFFFFFFFFFFFFFFFFFFFFFFFFFFFFFFF AND DUP2 MSTORE PUSH1 0x20 ADD SWAP1 DUP2 MSTORE PUSH1 0x20 ADD PUSH1 0x0 KECCAK256 PUSH1 0x0 DUP5 PUSH20 0xFFFFFFFFFFFFFFFFFFFFFFFFFFFFFFFFFFFFFFFF AND PUSH20 0xFFFFFFFFFFFFFFFFFFFFFFFFFFFFFFFFFFFFFFFF AND DUP2 MSTORE PUSH1 0x20 ADD SWAP1 DUP2 MSTORE PUSH1 0x20 ADD PUSH1 0x0 KECCAK256 DUP2 SWAP1 SSTORE POP JUMPDEST DUP1 PUSH1 0x3 PUSH1 0x0 DUP6 PUSH20 0xFFFFFFFFFFFFFFFFFFFFFFFFFFFFFFFFFFFFFFFF AND PUSH20 0xFFFFFFFFFFFFFFFFFFFFFFFFFFFFFFFFFFFFFFFF AND DUP2 MSTORE PUSH1 0x20 ADD SWAP1 DUP2 MSTORE PUSH1 0x20 ADD PUSH1 0x0 KECCAK256 PUSH1 0x0 DUP5 PUSH20 0xFFFFFFFFFFFFFFFFFFFFFFFFFFFFFFFFFFFFFFFF AND PUSH20 0xFFFFFFFFFFFFFFFFFFFFFFFFFFFFFFFFFFFFFFFF AND DUP2 MSTORE PUSH1 0x20 ADD SWAP1 DUP2 MSTORE PUSH1 0x20 ADD PUSH1 0x0 KECCAK256 PUSH1 0x0 DUP3 DUP3 SLOAD PUSH2 0x84D SWAP2 SWAP1 PUSH2 0xFCC JUMP JUMPDEST SWAP3 POP POP DUP2 SWAP1 SSTORE POP PUSH1 0x1 PUSH1 0x2 PUSH1 0x0 DUP6 PUSH20 0xFFFFFFFFFFFFFFFFFFFFFFFFFFFFFFFFFFFFFFFF AND PUSH20 0xFFFFFFFFFFFFFFFFFFFFFFFFFFFFFFFFFFFFFFFF AND DUP2 MSTORE PUSH1 0x20 ADD SWAP1 DUP2 MSTORE PUSH1 0x20 ADD PUSH1 0x0 KECCAK256 PUSH1 0x0 DUP5 PUSH20 0xFFFFFFFFFFFFFFFFFFFFFFFFFFFFFFFFFFFFFFFF AND PUSH20 0xFFFFFFFFFFFFFFFFFFFFFFFFFFFFFFFFFFFFFFFF AND DUP2 MSTORE PUSH1 0x20 ADD SWAP1 DUP2 MSTORE PUSH1 0x20 ADD PUSH1 0x0 KECCAK256 PUSH1 0x0 PUSH2 0x100 EXP DUP2 SLOAD DUP2 PUSH1 0xFF MUL NOT AND SWAP1 DUP4 ISZERO ISZERO MUL OR SWAP1 SSTORE POP PUSH1 0x1 PUSH1 0x0 DUP5 PUSH20 0xFFFFFFFFFFFFFFFFFFFFFFFFFFFFFFFFFFFFFFFF AND PUSH20 0xFFFFFFFFFFFFFFFFFFFFFFFFFFFFFFFFFFFFFFFF AND DUP2 MSTORE PUSH1 0x20 ADD SWAP1 DUP2 MSTORE PUSH1 0x20 ADD PUSH1 0x0 KECCAK256 DUP3 SWAP1 DUP1 PUSH1 0x1 DUP2 SLOAD ADD DUP1 DUP3 SSTORE DUP1 SWAP2 POP POP PUSH1 0x1 SWAP1 SUB SWAP1 PUSH1 0x0 MSTORE PUSH1 0x20 PUSH1 0x0 KECCAK256 ADD PUSH1 0x0 SWAP1 SWAP2 SWAP1 SWAP2 SWAP1 SWAP2 PUSH2 0x100 EXP DUP2 SLOAD DUP2 PUSH20 0xFFFFFFFFFFFFFFFFFFFFFFFFFFFFFFFFFFFFFFFF MUL NOT AND SWAP1 DUP4 PUSH20 0xFFFFFFFFFFFFFFFFFFFFFFFFFFFFFFFFFFFFFFFF AND MUL OR SWAP1 SSTORE POP DUP3 PUSH20 0xFFFFFFFFFFFFFFFFFFFFFFFFFFFFFFFFFFFFFFFF AND DUP3 PUSH20 0xFFFFFFFFFFFFFFFFFFFFFFFFFFFFFFFFFFFFFFFF AND PUSH32 0xA343F361112B028DAE2501770614271723BE1D24C9F64FED2D4BD3DDF1C13E35 DUP4 PUSH1 0x40 MLOAD PUSH2 0x9E6 SWAP2 SWAP1 PUSH2 0xF95 JUMP JUMPDEST PUSH1 0x40 MLOAD DUP1 SWAP2 SUB SWAP1 LOG3 POP POP POP JUMP JUMPDEST PUSH1 0x0 CALLER SWAP1 POP PUSH1 0x0 DUP1 PUSH1 0x0 DUP4 PUSH20 0xFFFFFFFFFFFFFFFFFFFFFFFFFFFFFFFFFFFFFFFF AND PUSH20 0xFFFFFFFFFFFFFFFFFFFFFFFFFFFFFFFFFFFFFFFF AND DUP2 MSTORE PUSH1 0x20 ADD SWAP1 DUP2 MSTORE PUSH1 0x20 ADD PUSH1 0x0 KECCAK256 SLOAD SWAP1 POP PUSH1 0x0 DUP2 EQ ISZERO PUSH2 0xA7F JUMPI PUSH1 0x40 MLOAD PUSH32 0x8C379A000000000000000000000000000000000000000000000000000000000 DUP2 MSTORE PUSH1 0x4 ADD PUSH2 0xA76 SWAP1 PUSH2 0xF35 JUMP JUMPDEST PUSH1 0x40 MLOAD DUP1 SWAP2 SUB SWAP1 REVERT JUMPDEST PUSH1 0x0 DUP3 PUSH20 0xFFFFFFFFFFFFFFFFFFFFFFFFFFFFFFFFFFFFFFFF AND DUP3 PUSH1 0x40 MLOAD PUSH2 0xAA5 SWAP1 PUSH2 0xEE0 JUMP JUMPDEST PUSH1 0x0 PUSH1 0x40 MLOAD DUP1 DUP4 SUB DUP2 DUP6 DUP8 GAS CALL SWAP3 POP POP POP RETURNDATASIZE DUP1 PUSH1 0x0 DUP2 EQ PUSH2 0xAE2 JUMPI PUSH1 0x40 MLOAD SWAP2 POP PUSH1 0x1F NOT PUSH1 0x3F RETURNDATASIZE ADD AND DUP3 ADD PUSH1 0x40 MSTORE RETURNDATASIZE DUP3 MSTORE RETURNDATASIZE PUSH1 0x0 PUSH1 0x20 DUP5 ADD RETURNDATACOPY PUSH2 0xAE7 JUMP JUMPDEST PUSH1 0x60 SWAP2 POP JUMPDEST POP POP SWAP1 POP DUP1 PUSH2 0xB2B JUMPI PUSH1 0x40 MLOAD PUSH32 0x8C379A000000000000000000000000000000000000000000000000000000000 DUP2 MSTORE PUSH1 0x4 ADD PUSH2 0xB22 SWAP1 PUSH2 0xF15 JUMP JUMPDEST PUSH1 0x40 MLOAD DUP1 SWAP2 SUB SWAP1 REVERT JUMPDEST PUSH1 0x0 DUP1 DUP5 PUSH20 0xFFFFFFFFFFFFFFFFFFFFFFFFFFFFFFFFFFFFFFFF AND PUSH20 0xFFFFFFFFFFFFFFFFFFFFFFFFFFFFFFFFFFFFFFFF AND DUP2 MSTORE PUSH1 0x20 ADD SWAP1 DUP2 MSTORE PUSH1 0x20 ADD PUSH1 0x0 KECCAK256 PUSH1 0x0 SWAP1 SSTORE PUSH1 0x0 JUMPDEST PUSH1 0x1 PUSH1 0x0 DUP6 PUSH20 0xFFFFFFFFFFFFFFFFFFFFFFFFFFFFFFFFFFFFFFFF AND PUSH20 0xFFFFFFFFFFFFFFFFFFFFFFFFFFFFFFFFFFFFFFFF AND DUP2 MSTORE PUSH1 0x20 ADD SWAP1 DUP2 MSTORE PUSH1 0x20 ADD PUSH1 0x0 KECCAK256 DUP1 SLOAD SWAP1 POP DUP2 LT ISZERO PUSH2 0xD61 JUMPI PUSH1 0x0 PUSH1 0x1 PUSH1 0x0 DUP7 PUSH20 0xFFFFFFFFFFFFFFFFFFFFFFFFFFFFFFFFFFFFFFFF AND PUSH20 0xFFFFFFFFFFFFFFFFFFFFFFFFFFFFFFFFFFFFFFFF AND DUP2 MSTORE PUSH1 0x20 ADD SWAP1 DUP2 MSTORE PUSH1 0x20 ADD PUSH1 0x0 KECCAK256 DUP3 DUP2 SLOAD DUP2 LT PUSH2 0xC0D JUMPI PUSH2 0xC0C PUSH2 0x110A JUMP JUMPDEST JUMPDEST SWAP1 PUSH1 0x0 MSTORE PUSH1 0x20 PUSH1 0x0 KECCAK256 ADD PUSH1 0x0 SWAP1 SLOAD SWAP1 PUSH2 0x100 EXP SWAP1 DIV PUSH20 0xFFFFFFFFFFFFFFFFFFFFFFFFFFFFFFFFFFFFFFFF AND SWAP1 POP PUSH1 0x0 PUSH1 0x2 PUSH1 0x0 DUP8 PUSH20 0xFFFFFFFFFFFFFFFFFFFFFFFFFFFFFFFFFFFFFFFF AND PUSH20 0xFFFFFFFFFFFFFFFFFFFFFFFFFFFFFFFFFFFFFFFF AND DUP2 MSTORE PUSH1 0x20 ADD SWAP1 DUP2 MSTORE PUSH1 0x20 ADD PUSH1 0x0 KECCAK256 PUSH1 0x0 DUP4 PUSH20 0xFFFFFFFFFFFFFFFFFFFFFFFFFFFFFFFFFFFFFFFF AND PUSH20 0xFFFFFFFFFFFFFFFFFFFFFFFFFFFFFFFFFFFFFFFF AND DUP2 MSTORE PUSH1 0x20 ADD SWAP1 DUP2 MSTORE PUSH1 0x20 ADD PUSH1 0x0 KECCAK256 PUSH1 0x0 PUSH2 0x100 EXP DUP2 SLOAD DUP2 PUSH1 0xFF MUL NOT AND SWAP1 DUP4 ISZERO ISZERO MUL OR SWAP1 SSTORE POP PUSH1 0x1 PUSH1 0x0 DUP7 PUSH20 0xFFFFFFFFFFFFFFFFFFFFFFFFFFFFFFFFFFFFFFFF AND PUSH20 0xFFFFFFFFFFFFFFFFFFFFFFFFFFFFFFFFFFFFFFFF AND DUP2 MSTORE PUSH1 0x20 ADD SWAP1 DUP2 MSTORE PUSH1 0x20 ADD PUSH1 0x0 KECCAK256 DUP3 DUP2 SLOAD DUP2 LT PUSH2 0xD20 JUMPI PUSH2 0xD1F PUSH2 0x110A JUMP JUMPDEST JUMPDEST SWAP1 PUSH1 0x0 MSTORE PUSH1 0x20 PUSH1 0x0 KECCAK256 ADD PUSH1 0x0 PUSH2 0x100 EXP DUP2 SLOAD SWAP1 PUSH20 0xFFFFFFFFFFFFFFFFFFFFFFFFFFFFFFFFFFFFFFFF MUL NOT AND SWAP1 SSTORE POP DUP1 DUP1 PUSH2 0xD59 SWAP1 PUSH2 0x1092 JUMP JUMPDEST SWAP2 POP POP PUSH2 0xB70 JUMP JUMPDEST POP CALLER PUSH20 0xFFFFFFFFFFFFFFFFFFFFFFFFFFFFFFFFFFFFFFFF AND PUSH32 0xA74FAB966BFC29D4EA7866D609AC5D94324A5FE817362D6A9FEE5D2F8DF46759 DUP4 PUSH1 0x40 MLOAD PUSH2 0xDA8 SWAP2 SWAP1 PUSH2 0xF95 JUMP JUMPDEST PUSH1 0x40 MLOAD DUP1 SWAP2 SUB SWAP1 LOG2 POP POP POP JUMP JUMPDEST PUSH1 0x0 SELFBALANCE SWAP1 POP SWAP1 JUMP JUMPDEST PUSH1 0x0 DUP2 CALLDATALOAD SWAP1 POP PUSH2 0xDCC DUP2 PUSH2 0x1280 JUMP JUMPDEST SWAP3 SWAP2 POP POP JUMP JUMPDEST PUSH1 0x0 PUSH1 0x20 DUP3 DUP5 SUB SLT ISZERO PUSH2 0xDE8 JUMPI PUSH2 0xDE7 PUSH2 0x1139 JUMP JUMPDEST JUMPDEST PUSH1 0x0 PUSH2 0xDF6 DUP5 DUP3 DUP6 ADD PUSH2 0xDBD JUMP JUMPDEST SWAP2 POP POP SWAP3 SWAP2 POP POP JUMP JUMPDEST PUSH1 0x0 PUSH2 0xE0C PUSH1 0x1F DUP4 PUSH2 0xFBB JUMP JUMPDEST SWAP2 POP PUSH2 0xE17 DUP3 PUSH2 0x113E JUMP JUMPDEST PUSH1 0x20 DUP3 ADD SWAP1 POP SWAP2 SWAP1 POP JUMP JUMPDEST PUSH1 0x0 PUSH2 0xE2F PUSH1 0x14 DUP4 PUSH2 0xFBB JUMP JUMPDEST SWAP2 POP PUSH2 0xE3A DUP3 PUSH2 0x1167 JUMP JUMPDEST PUSH1 0x20 DUP3 ADD SWAP1 POP SWAP2 SWAP1 POP JUMP JUMPDEST PUSH1 0x0 PUSH2 0xE52 PUSH1 0x21 DUP4 PUSH2 0xFBB JUMP JUMPDEST SWAP2 POP PUSH2 0xE5D DUP3 PUSH2 0x1190 JUMP JUMPDEST PUSH1 0x40 DUP3 ADD SWAP1 POP SWAP2 SWAP1 POP JUMP JUMPDEST PUSH1 0x0 PUSH2 0xE75 PUSH1 0x45 DUP4 PUSH2 0xFBB JUMP JUMPDEST SWAP2 POP PUSH2 0xE80 DUP3 PUSH2 0x11DF JUMP JUMPDEST PUSH1 0x60 DUP3 ADD SWAP1 POP SWAP2 SWAP1 POP JUMP JUMPDEST PUSH1 0x0 PUSH2 0xE98 PUSH1 0x0 DUP4 PUSH2 0xFB0 JUMP JUMPDEST SWAP2 POP PUSH2 0xEA3 DUP3 PUSH2 0x1254 JUMP JUMPDEST PUSH1 0x0 DUP3 ADD SWAP1 POP SWAP2 SWAP1 POP JUMP JUMPDEST PUSH1 0x0 PUSH2 0xEBB PUSH1 0x13 DUP4 PUSH2 0xFBB JUMP JUMPDEST SWAP2 POP PUSH2 0xEC6 DUP3 PUSH2 0x1257 JUMP JUMPDEST PUSH1 0x20 DUP3 ADD SWAP1 POP SWAP2 SWAP1 POP JUMP JUMPDEST PUSH2 0xEDA DUP2 PUSH2 0x1088 JUMP JUMPDEST DUP3 MSTORE POP POP JUMP JUMPDEST PUSH1 0x0 PUSH2 0xEEB DUP3 PUSH2 0xE8B JUMP JUMPDEST SWAP2 POP DUP2 SWAP1 POP SWAP2 SWAP1 POP JUMP JUMPDEST PUSH1 0x0 PUSH1 0x20 DUP3 ADD SWAP1 POP DUP2 DUP2 SUB PUSH1 0x0 DUP4 ADD MSTORE PUSH2 0xF0E DUP2 PUSH2 0xDFF JUMP JUMPDEST SWAP1 POP SWAP2 SWAP1 POP JUMP JUMPDEST PUSH1 0x0 PUSH1 0x20 DUP3 ADD SWAP1 POP DUP2 DUP2 SUB PUSH1 0x0 DUP4 ADD MSTORE PUSH2 0xF2E DUP2 PUSH2 0xE22 JUMP JUMPDEST SWAP1 POP SWAP2 SWAP1 POP JUMP JUMPDEST PUSH1 0x0 PUSH1 0x20 DUP3 ADD SWAP1 POP DUP2 DUP2 SUB PUSH1 0x0 DUP4 ADD MSTORE PUSH2 0xF4E DUP2 PUSH2 0xE45 JUMP JUMPDEST SWAP1 POP SWAP2 SWAP1 POP JUMP JUMPDEST PUSH1 0x0 PUSH1 0x20 DUP3 ADD SWAP1 POP DUP2 DUP2 SUB PUSH1 0x0 DUP4 ADD MSTORE PUSH2 0xF6E DUP2 PUSH2 0xE68 JUMP JUMPDEST SWAP1 POP SWAP2 SWAP1 POP JUMP JUMPDEST PUSH1 0x0 PUSH1 0x20 DUP3 ADD SWAP1 POP DUP2 DUP2 SUB PUSH1 0x0 DUP4 ADD MSTORE PUSH2 0xF8E DUP2 PUSH2 0xEAE JUMP JUMPDEST SWAP1 POP SWAP2 SWAP1 POP JUMP JUMPDEST PUSH1 0x0 PUSH1 0x20 DUP3 ADD SWAP1 POP PUSH2 0xFAA PUSH1 0x0 DUP4 ADD DUP5 PUSH2 0xED1 JUMP JUMPDEST SWAP3 SWAP2 POP POP JUMP JUMPDEST PUSH1 0x0 DUP2 SWAP1 POP SWAP3 SWAP2 POP POP JUMP JUMPDEST PUSH1 0x0 DUP3 DUP3 MSTORE PUSH1 0x20 DUP3 ADD SWAP1 POP SWAP3 SWAP2 POP POP JUMP JUMPDEST PUSH1 0x0 PUSH2 0xFD7 DUP3 PUSH2 0x1088 JUMP JUMPDEST SWAP2 POP PUSH2 0xFE2 DUP4 PUSH2 0x1088 JUMP JUMPDEST SWAP3 POP DUP3 PUSH32 0xFFFFFFFFFFFFFFFFFFFFFFFFFFFFFFFFFFFFFFFFFFFFFFFFFFFFFFFFFFFFFFFF SUB DUP3 GT ISZERO PUSH2 0x1017 JUMPI PUSH2 0x1016 PUSH2 0x10DB JUMP JUMPDEST JUMPDEST DUP3 DUP3 ADD SWAP1 POP SWAP3 SWAP2 POP POP JUMP JUMPDEST PUSH1 0x0 PUSH2 0x102D DUP3 PUSH2 0x1088 JUMP JUMPDEST SWAP2 POP PUSH2 0x1038 DUP4 PUSH2 0x1088 JUMP JUMPDEST SWAP3 POP DUP3 DUP3 LT ISZERO PUSH2 0x104B JUMPI PUSH2 0x104A PUSH2 0x10DB JUMP JUMPDEST JUMPDEST DUP3 DUP3 SUB SWAP1 POP SWAP3 SWAP2 POP POP JUMP JUMPDEST PUSH1 0x0 PUSH2 0x1061 DUP3 PUSH2 0x1068 JUMP JUMPDEST SWAP1 POP SWAP2 SWAP1 POP JUMP JUMPDEST PUSH1 0x0 PUSH20 0xFFFFFFFFFFFFFFFFFFFFFFFFFFFFFFFFFFFFFFFF DUP3 AND SWAP1 POP SWAP2 SWAP1 POP JUMP JUMPDEST PUSH1 0x0 DUP2 SWAP1 POP SWAP2 SWAP1 POP JUMP JUMPDEST PUSH1 0x0 PUSH2 0x109D DUP3 PUSH2 0x1088 JUMP JUMPDEST SWAP2 POP PUSH32 0xFFFFFFFFFFFFFFFFFFFFFFFFFFFFFFFFFFFFFFFFFFFFFFFFFFFFFFFFFFFFFFFF DUP3 EQ ISZERO PUSH2 0x10D0 JUMPI PUSH2 0x10CF PUSH2 0x10DB JUMP JUMPDEST JUMPDEST PUSH1 0x1 DUP3 ADD SWAP1 POP SWAP2 SWAP1 POP JUMP JUMPDEST PUSH32 0x4E487B7100000000000000000000000000000000000000000000000000000000 PUSH1 0x0 MSTORE PUSH1 0x11 PUSH1 0x4 MSTORE PUSH1 0x24 PUSH1 0x0 REVERT JUMPDEST PUSH32 0x4E487B7100000000000000000000000000000000000000000000000000000000 PUSH1 0x0 MSTORE PUSH1 0x32 PUSH1 0x4 MSTORE PUSH1 0x24 PUSH1 0x0 REVERT JUMPDEST PUSH1 0x0 DUP1 REVERT JUMPDEST PUSH32 0x63616C6C206F662061206E6F6E2D6578697374656E742066756E6374696F6E00 PUSH1 0x0 DUP3 ADD MSTORE POP JUMP JUMPDEST PUSH32 0x4661696C656420746F2073656E64204574686572000000000000000000000000 PUSH1 0x0 DUP3 ADD MSTORE POP JUMP JUMPDEST PUSH32 0x596F7520646F6E27742068617665206574686572732073656E7420746F20796F PUSH1 0x0 DUP3 ADD MSTORE PUSH32 0x7500000000000000000000000000000000000000000000000000000000000000 PUSH1 0x20 DUP3 ADD MSTORE POP JUMP JUMPDEST PUSH32 0x526F6C6C6261636B206973206E6F7420617661696C61626C6520666F7220796F PUSH1 0x0 DUP3 ADD MSTORE PUSH32 0x752E20457468657273206D6967687420626520616C7265616479207769746864 PUSH1 0x20 DUP3 ADD MSTORE PUSH32 0x7261776564000000000000000000000000000000000000000000000000000000 PUSH1 0x40 DUP3 ADD MSTORE POP JUMP JUMPDEST POP JUMP JUMPDEST PUSH32 0x526F6C6C6261636B2076616C7565206973203000000000000000000000000000 PUSH1 0x0 DUP3 ADD MSTORE POP JUMP JUMPDEST PUSH2 0x1289 DUP2 PUSH2 0x1056 JUMP JUMPDEST DUP2 EQ PUSH2 0x1294 JUMPI PUSH1 0x0 DUP1 REVERT JUMPDEST POP JUMP INVALID LOG2 PUSH5 0x6970667358 0x22 SLT KECCAK256 0xC 0x5D DUP2 0xDB PUSH6 0x37CF482A7507 0xD8 0xC2 0x2A 0xA8 0xD4 DUP10 0x1E SWAP15 0x4C 0xAF SWAP11 DUP9 MSIZE DUP13 0xD7 GASPRICE CALLDATACOPY SWAP2 0x5F PUSH5 0xD664736F6C PUSH4 0x43000807 STOP CALLER "
				},
				"gasEstimates": {
					"creation": {
						"codeDepositCost": "962600",
						"executionCost": "1001",
						"totalCost": "963601"
					},
					"external": {
						"": "1953",
						"getEtherBalance()": "383",
						"rollbackEther(address)": "infinite",
						"sendEther(address)": "infinite",
						"withdrawEther()": "infinite"
					}
				},
				"methodIdentifiers": {
					"getEtherBalance()": "ea46193e",
					"rollbackEther(address)": "36843861",
					"sendEther(address)": "48c981e2",
					"withdrawEther()": "7362377b"
				}
			},
			"storageLayout": {
				"storage": [
					{
						"astId": 5,
						"contract": "contracts/Escrow.sol:Escrow",
						"label": "receiverAddress",
						"offset": 0,
						"slot": "0",
						"type": "t_mapping(t_address,t_uint256)"
					},
					{
						"astId": 10,
						"contract": "contracts/Escrow.sol:Escrow",
						"label": "rollbackAddresses",
						"offset": 0,
						"slot": "1",
						"type": "t_mapping(t_address,t_array(t_address)dyn_storage)"
					},
					{
						"astId": 16,
						"contract": "contracts/Escrow.sol:Escrow",
						"label": "rollbackPossible",
						"offset": 0,
						"slot": "2",
						"type": "t_mapping(t_address,t_mapping(t_address,t_bool))"
					},
					{
						"astId": 22,
						"contract": "contracts/Escrow.sol:Escrow",
						"label": "rollbackValue",
						"offset": 0,
						"slot": "3",
						"type": "t_mapping(t_address,t_mapping(t_address,t_uint256))"
					}
				],
				"types": {
					"t_address": {
						"encoding": "inplace",
						"label": "address",
						"numberOfBytes": "20"
					},
					"t_array(t_address)dyn_storage": {
						"base": "t_address",
						"encoding": "dynamic_array",
						"label": "address[]",
						"numberOfBytes": "32"
					},
					"t_bool": {
						"encoding": "inplace",
						"label": "bool",
						"numberOfBytes": "1"
					},
					"t_mapping(t_address,t_array(t_address)dyn_storage)": {
						"encoding": "mapping",
						"key": "t_address",
						"label": "mapping(address => address[])",
						"numberOfBytes": "32",
						"value": "t_array(t_address)dyn_storage"
					},
					"t_mapping(t_address,t_bool)": {
						"encoding": "mapping",
						"key": "t_address",
						"label": "mapping(address => bool)",
						"numberOfBytes": "32",
						"value": "t_bool"
					},
					"t_mapping(t_address,t_mapping(t_address,t_bool))": {
						"encoding": "mapping",
						"key": "t_address",
						"label": "mapping(address => mapping(address => bool))",
						"numberOfBytes": "32",
						"value": "t_mapping(t_address,t_bool)"
					},
					"t_mapping(t_address,t_mapping(t_address,t_uint256))": {
						"encoding": "mapping",
						"key": "t_address",
						"label": "mapping(address => mapping(address => uint256))",
						"numberOfBytes": "32",
						"value": "t_mapping(t_address,t_uint256)"
					},
					"t_mapping(t_address,t_uint256)": {
						"encoding": "mapping",
						"key": "t_address",
						"label": "mapping(address => uint256)",
						"numberOfBytes": "32",
						"value": "t_uint256"
					},
					"t_uint256": {
						"encoding": "inplace",
						"label": "uint256",
						"numberOfBytes": "32"
					}
				}
			},
			"userdoc": {
				"kind": "user",
				"methods": {},
				"version": 1
			}
		}
	}
}