{
	"contracts/Escrow.sol": {
		"Escrow": {
			"abi": [
				{
					"anonymous": false,
					"inputs": [
						{
							"indexed": true,
							"internalType": "address",
							"name": "sender",
							"type": "address"
						},
						{
							"indexed": true,
							"internalType": "address",
							"name": "to",
							"type": "address"
						},
						{
							"indexed": false,
							"internalType": "uint256",
							"name": "value",
							"type": "uint256"
						}
					],
					"name": "LogRolledBack",
					"type": "event"
				},
				{
					"anonymous": false,
					"inputs": [
						{
							"indexed": true,
							"internalType": "address",
							"name": "sender",
							"type": "address"
						},
						{
							"indexed": true,
							"internalType": "address",
							"name": "to",
							"type": "address"
						},
						{
							"indexed": false,
							"internalType": "uint256",
							"name": "value",
							"type": "uint256"
						}
					],
					"name": "LogSend",
					"type": "event"
				},
				{
					"anonymous": false,
					"inputs": [
						{
							"indexed": true,
							"internalType": "address",
							"name": "to",
							"type": "address"
						},
						{
							"indexed": false,
							"internalType": "uint256",
							"name": "value",
							"type": "uint256"
						}
					],
					"name": "LogWithDraw",
					"type": "event"
				},
				{
					"stateMutability": "payable",
					"type": "fallback"
				},
				{
					"inputs": [],
					"name": "getBalance",
					"outputs": [
						{
							"internalType": "uint256",
							"name": "",
							"type": "uint256"
						}
					],
					"stateMutability": "view",
					"type": "function"
				},
				{
					"inputs": [
						{
							"internalType": "address payable",
							"name": "to",
							"type": "address"
						}
					],
					"name": "rollbackEther",
					"outputs": [],
					"stateMutability": "payable",
					"type": "function"
				},
				{
					"inputs": [
						{
							"internalType": "address payable",
							"name": "to",
							"type": "address"
						}
					],
					"name": "sendEther",
					"outputs": [],
					"stateMutability": "payable",
					"type": "function"
				},
				{
					"inputs": [],
					"name": "withdrawEther",
					"outputs": [],
					"stateMutability": "payable",
					"type": "function"
				},
				{
					"stateMutability": "payable",
					"type": "receive"
				}
			],
			"devdoc": {
				"kind": "dev",
				"methods": {},
				"version": 1
			},
			"evm": {
				"assembly": "    /* \"contracts/Escrow.sol\":72:2664  contract Escrow {\r... */\n  mstore(0x40, 0x80)\n  callvalue\n  dup1\n  iszero\n  tag_1\n  jumpi\n  0x00\n  dup1\n  revert\ntag_1:\n  pop\n  dataSize(sub_0)\n  dup1\n  dataOffset(sub_0)\n  0x00\n  codecopy\n  0x00\n  return\nstop\n\nsub_0: assembly {\n        /* \"contracts/Escrow.sol\":72:2664  contract Escrow {\r... */\n      mstore(0x40, 0x80)\n      jumpi(tag_1, lt(calldatasize, 0x04))\n      shr(0xe0, calldataload(0x00))\n      dup1\n      0x12065fe0\n      eq\n      tag_3\n      jumpi\n      dup1\n      0x36843861\n      eq\n      tag_4\n      jumpi\n      dup1\n      0x48c981e2\n      eq\n      tag_5\n      jumpi\n      dup1\n      0x7362377b\n      eq\n      tag_6\n      jumpi\n      jump(tag_2)\n    tag_1:\n      jumpi(tag_2, calldatasize)\n      stop\n    tag_2:\n      stop\n        /* \"contracts/Escrow.sol\":2565:2661  function getBalance() public view returns (uint) {\r... */\n    tag_3:\n      callvalue\n      dup1\n      iszero\n      tag_11\n      jumpi\n      0x00\n      dup1\n      revert\n    tag_11:\n      pop\n      tag_12\n      tag_13\n      jump\t// in\n    tag_12:\n      mload(0x40)\n      tag_14\n      swap2\n      swap1\n      tag_15\n      jump\t// in\n    tag_14:\n      mload(0x40)\n      dup1\n      swap2\n      sub\n      swap1\n      return\n        /* \"contracts/Escrow.sol\":1718:2557  function rollbackEther(address payable to) external payable {\r... */\n    tag_4:\n      tag_16\n      0x04\n      dup1\n      calldatasize\n      sub\n      dup2\n      add\n      swap1\n      tag_17\n      swap2\n      swap1\n      tag_18\n      jump\t// in\n    tag_17:\n      tag_19\n      jump\t// in\n    tag_16:\n      stop\n        /* \"contracts/Escrow.sol\":664:1077  function sendEther(address payable to) external payable {\r... */\n    tag_5:\n      tag_20\n      0x04\n      dup1\n      calldatasize\n      sub\n      dup2\n      add\n      swap1\n      tag_21\n      swap2\n      swap1\n      tag_18\n      jump\t// in\n    tag_21:\n      tag_22\n      jump\t// in\n    tag_20:\n      stop\n        /* \"contracts/Escrow.sol\":1085:1710  function withdrawEther() external payable {\r... */\n    tag_6:\n      tag_23\n      tag_24\n      jump\t// in\n    tag_23:\n      stop\n        /* \"contracts/Escrow.sol\":2565:2661  function getBalance() public view returns (uint) {\r... */\n    tag_13:\n        /* \"contracts/Escrow.sol\":2608:2612  uint */\n      0x00\n        /* \"contracts/Escrow.sol\":2632:2653  address(this).balance */\n      selfbalance\n        /* \"contracts/Escrow.sol\":2625:2653  return address(this).balance */\n      swap1\n      pop\n        /* \"contracts/Escrow.sol\":2565:2661  function getBalance() public view returns (uint) {\r... */\n      swap1\n      jump\t// out\n        /* \"contracts/Escrow.sol\":1718:2557  function rollbackEther(address payable to) external payable {\r... */\n    tag_19:\n        /* \"contracts/Escrow.sol\":1789:1811  address payable sender */\n      0x00\n        /* \"contracts/Escrow.sol\":1822:1832  msg.sender */\n      caller\n        /* \"contracts/Escrow.sol\":1789:1833  address payable sender = payable(msg.sender) */\n      swap1\n      pop\n        /* \"contracts/Escrow.sol\":1852:1868  rollbackPossible */\n      0x02\n        /* \"contracts/Escrow.sol\":1852:1872  rollbackPossible[to] */\n      0x00\n        /* \"contracts/Escrow.sol\":1869:1871  to */\n      dup4\n        /* \"contracts/Escrow.sol\":1852:1872  rollbackPossible[to] */\n      0xffffffffffffffffffffffffffffffffffffffff\n      and\n      0xffffffffffffffffffffffffffffffffffffffff\n      and\n      dup2\n      mstore\n      0x20\n      add\n      swap1\n      dup2\n      mstore\n      0x20\n      add\n      0x00\n      keccak256\n        /* \"contracts/Escrow.sol\":1852:1880  rollbackPossible[to][sender] */\n      0x00\n        /* \"contracts/Escrow.sol\":1873:1879  sender */\n      dup3\n        /* \"contracts/Escrow.sol\":1852:1880  rollbackPossible[to][sender] */\n      0xffffffffffffffffffffffffffffffffffffffff\n      and\n      0xffffffffffffffffffffffffffffffffffffffff\n      and\n      dup2\n      mstore\n      0x20\n      add\n      swap1\n      dup2\n      mstore\n      0x20\n      add\n      0x00\n      keccak256\n      0x00\n      swap1\n      sload\n      swap1\n      0x0100\n      exp\n      swap1\n      div\n      0xff\n      and\n        /* \"contracts/Escrow.sol\":1844:1954  require(rollbackPossible[to][sender], \"Rollback is not available for you. Ethers might be already withdrawed\") */\n      tag_27\n      jumpi\n      mload(0x40)\n      0x08c379a000000000000000000000000000000000000000000000000000000000\n      dup2\n      mstore\n      0x04\n      add\n      tag_28\n      swap1\n      tag_29\n      jump\t// in\n    tag_28:\n      mload(0x40)\n      dup1\n      swap2\n      sub\n      swap1\n      revert\n    tag_27:\n        /* \"contracts/Escrow.sol\":1965:1976  uint _value */\n      0x00\n        /* \"contracts/Escrow.sol\":1979:1992  rollbackValue */\n      0x03\n        /* \"contracts/Escrow.sol\":1979:1996  rollbackValue[to] */\n      0x00\n        /* \"contracts/Escrow.sol\":1993:1995  to */\n      dup5\n        /* \"contracts/Escrow.sol\":1979:1996  rollbackValue[to] */\n      0xffffffffffffffffffffffffffffffffffffffff\n      and\n      0xffffffffffffffffffffffffffffffffffffffff\n      and\n      dup2\n      mstore\n      0x20\n      add\n      swap1\n      dup2\n      mstore\n      0x20\n      add\n      0x00\n      keccak256\n        /* \"contracts/Escrow.sol\":1979:2004  rollbackValue[to][sender] */\n      0x00\n        /* \"contracts/Escrow.sol\":1997:2003  sender */\n      dup4\n        /* \"contracts/Escrow.sol\":1979:2004  rollbackValue[to][sender] */\n      0xffffffffffffffffffffffffffffffffffffffff\n      and\n      0xffffffffffffffffffffffffffffffffffffffff\n      and\n      dup2\n      mstore\n      0x20\n      add\n      swap1\n      dup2\n      mstore\n      0x20\n      add\n      0x00\n      keccak256\n      sload\n        /* \"contracts/Escrow.sol\":1965:2004  uint _value = rollbackValue[to][sender] */\n      swap1\n      pop\n        /* \"contracts/Escrow.sol\":2033:2034  0 */\n      0x00\n        /* \"contracts/Escrow.sol\":2023:2029  _value */\n      dup2\n        /* \"contracts/Escrow.sol\":2023:2034  _value != 0 */\n      eq\n      iszero\n        /* \"contracts/Escrow.sol\":2015:2058  require(_value != 0, \"Rollback value is 0\") */\n      tag_30\n      jumpi\n      mload(0x40)\n      0x08c379a000000000000000000000000000000000000000000000000000000000\n      dup2\n      mstore\n      0x04\n      add\n      tag_31\n      swap1\n      tag_32\n      jump\t// in\n    tag_31:\n      mload(0x40)\n      dup1\n      swap2\n      sub\n      swap1\n      revert\n    tag_30:\n        /* \"contracts/Escrow.sol\":2070:2079  bool sent */\n      0x00\n        /* \"contracts/Escrow.sol\":2085:2091  sender */\n      dup3\n        /* \"contracts/Escrow.sol\":2085:2096  sender.call */\n      0xffffffffffffffffffffffffffffffffffffffff\n      and\n        /* \"contracts/Escrow.sol\":2104:2110  _value */\n      dup3\n        /* \"contracts/Escrow.sol\":2085:2115  sender.call{value: _value}(\"\") */\n      mload(0x40)\n      tag_33\n      swap1\n      tag_34\n      jump\t// in\n    tag_33:\n      0x00\n      mload(0x40)\n      dup1\n      dup4\n      sub\n      dup2\n      dup6\n      dup8\n      gas\n      call\n      swap3\n      pop\n      pop\n      pop\n      returndatasize\n      dup1\n      0x00\n      dup2\n      eq\n      tag_37\n      jumpi\n      mload(0x40)\n      swap2\n      pop\n      and(add(returndatasize, 0x3f), not(0x1f))\n      dup3\n      add\n      0x40\n      mstore\n      returndatasize\n      dup3\n      mstore\n      returndatasize\n      0x00\n      0x20\n      dup5\n      add\n      returndatacopy\n      jump(tag_36)\n    tag_37:\n      0x60\n      swap2\n      pop\n    tag_36:\n      pop\n        /* \"contracts/Escrow.sol\":2069:2115  (bool sent, ) = sender.call{value: _value}(\"\") */\n      pop\n      swap1\n      pop\n        /* \"contracts/Escrow.sol\":2134:2138  sent */\n      dup1\n        /* \"contracts/Escrow.sol\":2126:2163  require(sent, \"Failed to send Ether\") */\n      tag_38\n      jumpi\n      mload(0x40)\n      0x08c379a000000000000000000000000000000000000000000000000000000000\n      dup2\n      mstore\n      0x04\n      add\n      tag_39\n      swap1\n      tag_40\n      jump\t// in\n    tag_39:\n      mload(0x40)\n      dup1\n      swap2\n      sub\n      swap1\n      revert\n    tag_38:\n        /* \"contracts/Escrow.sol\":2197:2203  _value */\n      dup2\n        /* \"contracts/Escrow.sol\":2174:2189  receiverAddress */\n      0x00\n        /* \"contracts/Escrow.sol\":2174:2193  receiverAddress[to] */\n      dup1\n        /* \"contracts/Escrow.sol\":2190:2192  to */\n      dup7\n        /* \"contracts/Escrow.sol\":2174:2193  receiverAddress[to] */\n      0xffffffffffffffffffffffffffffffffffffffff\n      and\n      0xffffffffffffffffffffffffffffffffffffffff\n      and\n      dup2\n      mstore\n      0x20\n      add\n      swap1\n      dup2\n      mstore\n      0x20\n      add\n      0x00\n      keccak256\n      0x00\n        /* \"contracts/Escrow.sol\":2174:2203  receiverAddress[to] -= _value */\n      dup3\n      dup3\n      sload\n      tag_41\n      swap2\n      swap1\n      tag_42\n      jump\t// in\n    tag_41:\n      swap3\n      pop\n      pop\n      dup2\n      swap1\n      sstore\n      pop\n        /* \"contracts/Escrow.sol\":2221:2234  rollbackValue */\n      0x03\n        /* \"contracts/Escrow.sol\":2221:2238  rollbackValue[to] */\n      0x00\n        /* \"contracts/Escrow.sol\":2235:2237  to */\n      dup6\n        /* \"contracts/Escrow.sol\":2221:2238  rollbackValue[to] */\n      0xffffffffffffffffffffffffffffffffffffffff\n      and\n      0xffffffffffffffffffffffffffffffffffffffff\n      and\n      dup2\n      mstore\n      0x20\n      add\n      swap1\n      dup2\n      mstore\n      0x20\n      add\n      0x00\n      keccak256\n        /* \"contracts/Escrow.sol\":2221:2246  rollbackValue[to][sender] */\n      0x00\n        /* \"contracts/Escrow.sol\":2239:2245  sender */\n      dup5\n        /* \"contracts/Escrow.sol\":2221:2246  rollbackValue[to][sender] */\n      0xffffffffffffffffffffffffffffffffffffffff\n      and\n      0xffffffffffffffffffffffffffffffffffffffff\n      and\n      dup2\n      mstore\n      0x20\n      add\n      swap1\n      dup2\n      mstore\n      0x20\n      add\n      0x00\n      keccak256\n        /* \"contracts/Escrow.sol\":2214:2246  delete rollbackValue[to][sender] */\n      0x00\n      swap1\n      sstore\n        /* \"contracts/Escrow.sol\":2288:2293  false */\n      0x00\n        /* \"contracts/Escrow.sol\":2257:2273  rollbackPossible */\n      0x02\n        /* \"contracts/Escrow.sol\":2257:2277  rollbackPossible[to] */\n      0x00\n        /* \"contracts/Escrow.sol\":2274:2276  to */\n      dup7\n        /* \"contracts/Escrow.sol\":2257:2277  rollbackPossible[to] */\n      0xffffffffffffffffffffffffffffffffffffffff\n      and\n      0xffffffffffffffffffffffffffffffffffffffff\n      and\n      dup2\n      mstore\n      0x20\n      add\n      swap1\n      dup2\n      mstore\n      0x20\n      add\n      0x00\n      keccak256\n        /* \"contracts/Escrow.sol\":2257:2285  rollbackPossible[to][sender] */\n      0x00\n        /* \"contracts/Escrow.sol\":2278:2284  sender */\n      dup6\n        /* \"contracts/Escrow.sol\":2257:2285  rollbackPossible[to][sender] */\n      0xffffffffffffffffffffffffffffffffffffffff\n      and\n      0xffffffffffffffffffffffffffffffffffffffff\n      and\n      dup2\n      mstore\n      0x20\n      add\n      swap1\n      dup2\n      mstore\n      0x20\n      add\n      0x00\n      keccak256\n      0x00\n        /* \"contracts/Escrow.sol\":2257:2293  rollbackPossible[to][sender] = false */\n      0x0100\n      exp\n      dup2\n      sload\n      dup2\n      0xff\n      mul\n      not\n      and\n      swap1\n      dup4\n      iszero\n      iszero\n      mul\n      or\n      swap1\n      sstore\n      pop\n        /* \"contracts/Escrow.sol\":2309:2315  uint i */\n      0x00\n        /* \"contracts/Escrow.sol\":2304:2550  for (uint i = 0; i < rollbackAddresses[to].length; i++) {\r... */\n    tag_43:\n        /* \"contracts/Escrow.sol\":2325:2342  rollbackAddresses */\n      0x01\n        /* \"contracts/Escrow.sol\":2325:2346  rollbackAddresses[to] */\n      0x00\n        /* \"contracts/Escrow.sol\":2343:2345  to */\n      dup7\n        /* \"contracts/Escrow.sol\":2325:2346  rollbackAddresses[to] */\n      0xffffffffffffffffffffffffffffffffffffffff\n      and\n      0xffffffffffffffffffffffffffffffffffffffff\n      and\n      dup2\n      mstore\n      0x20\n      add\n      swap1\n      dup2\n      mstore\n      0x20\n      add\n      0x00\n      keccak256\n        /* \"contracts/Escrow.sol\":2325:2353  rollbackAddresses[to].length */\n      dup1\n      sload\n      swap1\n      pop\n        /* \"contracts/Escrow.sol\":2321:2322  i */\n      dup2\n        /* \"contracts/Escrow.sol\":2321:2353  i < rollbackAddresses[to].length */\n      lt\n        /* \"contracts/Escrow.sol\":2304:2550  for (uint i = 0; i < rollbackAddresses[to].length; i++) {\r... */\n      iszero\n      tag_44\n      jumpi\n        /* \"contracts/Escrow.sol\":2375:2387  address from */\n      0x00\n        /* \"contracts/Escrow.sol\":2390:2407  rollbackAddresses */\n      0x01\n        /* \"contracts/Escrow.sol\":2390:2411  rollbackAddresses[to] */\n      0x00\n        /* \"contracts/Escrow.sol\":2408:2410  to */\n      dup8\n        /* \"contracts/Escrow.sol\":2390:2411  rollbackAddresses[to] */\n      0xffffffffffffffffffffffffffffffffffffffff\n      and\n      0xffffffffffffffffffffffffffffffffffffffff\n      and\n      dup2\n      mstore\n      0x20\n      add\n      swap1\n      dup2\n      mstore\n      0x20\n      add\n      0x00\n      keccak256\n        /* \"contracts/Escrow.sol\":2412:2413  i */\n      dup3\n        /* \"contracts/Escrow.sol\":2390:2414  rollbackAddresses[to][i] */\n      dup2\n      sload\n      dup2\n      lt\n      tag_46\n      jumpi\n      tag_47\n      tag_48\n      jump\t// in\n    tag_47:\n    tag_46:\n      swap1\n      0x00\n      mstore\n      keccak256(0x00, 0x20)\n      add\n      0x00\n      swap1\n      sload\n      swap1\n      0x0100\n      exp\n      swap1\n      div\n      0xffffffffffffffffffffffffffffffffffffffff\n      and\n        /* \"contracts/Escrow.sol\":2375:2414  address from = rollbackAddresses[to][i] */\n      swap1\n      pop\n        /* \"contracts/Escrow.sol\":2441:2447  sender */\n      dup5\n        /* \"contracts/Escrow.sol\":2433:2447  from == sender */\n      0xffffffffffffffffffffffffffffffffffffffff\n      and\n        /* \"contracts/Escrow.sol\":2433:2437  from */\n      dup2\n        /* \"contracts/Escrow.sol\":2433:2447  from == sender */\n      0xffffffffffffffffffffffffffffffffffffffff\n      and\n      eq\n        /* \"contracts/Escrow.sol\":2429:2539  if (from == sender) {\r... */\n      iszero\n      tag_50\n      jumpi\n        /* \"contracts/Escrow.sol\":2475:2492  rollbackAddresses */\n      0x01\n        /* \"contracts/Escrow.sol\":2475:2496  rollbackAddresses[to] */\n      0x00\n        /* \"contracts/Escrow.sol\":2493:2495  to */\n      dup8\n        /* \"contracts/Escrow.sol\":2475:2496  rollbackAddresses[to] */\n      0xffffffffffffffffffffffffffffffffffffffff\n      and\n      0xffffffffffffffffffffffffffffffffffffffff\n      and\n      dup2\n      mstore\n      0x20\n      add\n      swap1\n      dup2\n      mstore\n      0x20\n      add\n      0x00\n      keccak256\n        /* \"contracts/Escrow.sol\":2497:2498  i */\n      dup3\n        /* \"contracts/Escrow.sol\":2475:2499  rollbackAddresses[to][i] */\n      dup2\n      sload\n      dup2\n      lt\n      tag_51\n      jumpi\n      tag_52\n      tag_48\n      jump\t// in\n    tag_52:\n    tag_51:\n      swap1\n      0x00\n      mstore\n      keccak256(0x00, 0x20)\n      add\n      0x00\n        /* \"contracts/Escrow.sol\":2468:2499  delete rollbackAddresses[to][i] */\n      0x0100\n      exp\n      dup2\n      sload\n      swap1\n      0xffffffffffffffffffffffffffffffffffffffff\n      mul\n      not\n      and\n      swap1\n      sstore\n        /* \"contracts/Escrow.sol\":2518:2523  break */\n      pop\n      jump(tag_44)\n        /* \"contracts/Escrow.sol\":2429:2539  if (from == sender) {\r... */\n    tag_50:\n        /* \"contracts/Escrow.sol\":2360:2550  {\r... */\n      pop\n        /* \"contracts/Escrow.sol\":2355:2358  i++ */\n      dup1\n      dup1\n      tag_54\n      swap1\n      tag_55\n      jump\t// in\n    tag_54:\n      swap2\n      pop\n      pop\n        /* \"contracts/Escrow.sol\":2304:2550  for (uint i = 0; i < rollbackAddresses[to].length; i++) {\r... */\n      jump(tag_43)\n    tag_44:\n      pop\n        /* \"contracts/Escrow.sol\":1778:2557  {\r... */\n      pop\n      pop\n      pop\n        /* \"contracts/Escrow.sol\":1718:2557  function rollbackEther(address payable to) external payable {\r... */\n      pop\n      jump\t// out\n        /* \"contracts/Escrow.sol\":664:1077  function sendEther(address payable to) external payable {\r... */\n    tag_22:\n        /* \"contracts/Escrow.sol\":731:743  address from */\n      0x00\n        /* \"contracts/Escrow.sol\":746:756  msg.sender */\n      caller\n        /* \"contracts/Escrow.sol\":731:756  address from = msg.sender */\n      swap1\n      pop\n        /* \"contracts/Escrow.sol\":767:777  uint value */\n      0x00\n        /* \"contracts/Escrow.sol\":780:789  msg.value */\n      callvalue\n        /* \"contracts/Escrow.sol\":767:789  uint value = msg.value */\n      swap1\n      pop\n        /* \"contracts/Escrow.sol\":823:828  value */\n      dup1\n        /* \"contracts/Escrow.sol\":800:815  receiverAddress */\n      0x00\n        /* \"contracts/Escrow.sol\":800:819  receiverAddress[to] */\n      dup1\n        /* \"contracts/Escrow.sol\":816:818  to */\n      dup6\n        /* \"contracts/Escrow.sol\":800:819  receiverAddress[to] */\n      0xffffffffffffffffffffffffffffffffffffffff\n      and\n      0xffffffffffffffffffffffffffffffffffffffff\n      and\n      dup2\n      mstore\n      0x20\n      add\n      swap1\n      dup2\n      mstore\n      0x20\n      add\n      0x00\n      keccak256\n      0x00\n        /* \"contracts/Escrow.sol\":800:828  receiverAddress[to] += value */\n      dup3\n      dup3\n      sload\n      tag_57\n      swap2\n      swap1\n      tag_58\n      jump\t// in\n    tag_57:\n      swap3\n      pop\n      pop\n      dup2\n      swap1\n      sstore\n      pop\n        /* \"contracts/Escrow.sol\":844:860  rollbackPossible */\n      0x02\n        /* \"contracts/Escrow.sol\":844:864  rollbackPossible[to] */\n      0x00\n        /* \"contracts/Escrow.sol\":861:863  to */\n      dup5\n        /* \"contracts/Escrow.sol\":844:864  rollbackPossible[to] */\n      0xffffffffffffffffffffffffffffffffffffffff\n      and\n      0xffffffffffffffffffffffffffffffffffffffff\n      and\n      dup2\n      mstore\n      0x20\n      add\n      swap1\n      dup2\n      mstore\n      0x20\n      add\n      0x00\n      keccak256\n        /* \"contracts/Escrow.sol\":844:870  rollbackPossible[to][from] */\n      0x00\n        /* \"contracts/Escrow.sol\":865:869  from */\n      dup4\n        /* \"contracts/Escrow.sol\":844:870  rollbackPossible[to][from] */\n      0xffffffffffffffffffffffffffffffffffffffff\n      and\n      0xffffffffffffffffffffffffffffffffffffffff\n      and\n      dup2\n      mstore\n      0x20\n      add\n      swap1\n      dup2\n      mstore\n      0x20\n      add\n      0x00\n      keccak256\n      0x00\n      swap1\n      sload\n      swap1\n      0x0100\n      exp\n      swap1\n      div\n      0xff\n      and\n        /* \"contracts/Escrow.sol\":839:899  if (!rollbackPossible[to][from]) rollbackValue[to][from] = 0 */\n      tag_59\n      jumpi\n        /* \"contracts/Escrow.sol\":898:899  0 */\n      0x00\n        /* \"contracts/Escrow.sol\":872:885  rollbackValue */\n      0x03\n        /* \"contracts/Escrow.sol\":872:889  rollbackValue[to] */\n      0x00\n        /* \"contracts/Escrow.sol\":886:888  to */\n      dup6\n        /* \"contracts/Escrow.sol\":872:889  rollbackValue[to] */\n      0xffffffffffffffffffffffffffffffffffffffff\n      and\n      0xffffffffffffffffffffffffffffffffffffffff\n      and\n      dup2\n      mstore\n      0x20\n      add\n      swap1\n      dup2\n      mstore\n      0x20\n      add\n      0x00\n      keccak256\n        /* \"contracts/Escrow.sol\":872:895  rollbackValue[to][from] */\n      0x00\n        /* \"contracts/Escrow.sol\":890:894  from */\n      dup5\n        /* \"contracts/Escrow.sol\":872:895  rollbackValue[to][from] */\n      0xffffffffffffffffffffffffffffffffffffffff\n      and\n      0xffffffffffffffffffffffffffffffffffffffff\n      and\n      dup2\n      mstore\n      0x20\n      add\n      swap1\n      dup2\n      mstore\n      0x20\n      add\n      0x00\n      keccak256\n        /* \"contracts/Escrow.sol\":872:899  rollbackValue[to][from] = 0 */\n      dup2\n      swap1\n      sstore\n      pop\n        /* \"contracts/Escrow.sol\":839:899  if (!rollbackPossible[to][from]) rollbackValue[to][from] = 0 */\n    tag_59:\n        /* \"contracts/Escrow.sol\":937:942  value */\n      dup1\n        /* \"contracts/Escrow.sol\":910:923  rollbackValue */\n      0x03\n        /* \"contracts/Escrow.sol\":910:927  rollbackValue[to] */\n      0x00\n        /* \"contracts/Escrow.sol\":924:926  to */\n      dup6\n        /* \"contracts/Escrow.sol\":910:927  rollbackValue[to] */\n      0xffffffffffffffffffffffffffffffffffffffff\n      and\n      0xffffffffffffffffffffffffffffffffffffffff\n      and\n      dup2\n      mstore\n      0x20\n      add\n      swap1\n      dup2\n      mstore\n      0x20\n      add\n      0x00\n      keccak256\n        /* \"contracts/Escrow.sol\":910:933  rollbackValue[to][from] */\n      0x00\n        /* \"contracts/Escrow.sol\":928:932  from */\n      dup5\n        /* \"contracts/Escrow.sol\":910:933  rollbackValue[to][from] */\n      0xffffffffffffffffffffffffffffffffffffffff\n      and\n      0xffffffffffffffffffffffffffffffffffffffff\n      and\n      dup2\n      mstore\n      0x20\n      add\n      swap1\n      dup2\n      mstore\n      0x20\n      add\n      0x00\n      keccak256\n      0x00\n        /* \"contracts/Escrow.sol\":910:942  rollbackValue[to][from] += value */\n      dup3\n      dup3\n      sload\n      tag_60\n      swap2\n      swap1\n      tag_58\n      jump\t// in\n    tag_60:\n      swap3\n      pop\n      pop\n      dup2\n      swap1\n      sstore\n      pop\n        /* \"contracts/Escrow.sol\":982:986  true */\n      0x01\n        /* \"contracts/Escrow.sol\":953:969  rollbackPossible */\n      0x02\n        /* \"contracts/Escrow.sol\":953:973  rollbackPossible[to] */\n      0x00\n        /* \"contracts/Escrow.sol\":970:972  to */\n      dup6\n        /* \"contracts/Escrow.sol\":953:973  rollbackPossible[to] */\n      0xffffffffffffffffffffffffffffffffffffffff\n      and\n      0xffffffffffffffffffffffffffffffffffffffff\n      and\n      dup2\n      mstore\n      0x20\n      add\n      swap1\n      dup2\n      mstore\n      0x20\n      add\n      0x00\n      keccak256\n        /* \"contracts/Escrow.sol\":953:979  rollbackPossible[to][from] */\n      0x00\n        /* \"contracts/Escrow.sol\":974:978  from */\n      dup5\n        /* \"contracts/Escrow.sol\":953:979  rollbackPossible[to][from] */\n      0xffffffffffffffffffffffffffffffffffffffff\n      and\n      0xffffffffffffffffffffffffffffffffffffffff\n      and\n      dup2\n      mstore\n      0x20\n      add\n      swap1\n      dup2\n      mstore\n      0x20\n      add\n      0x00\n      keccak256\n      0x00\n        /* \"contracts/Escrow.sol\":953:986  rollbackPossible[to][from] = true */\n      0x0100\n      exp\n      dup2\n      sload\n      dup2\n      0xff\n      mul\n      not\n      and\n      swap1\n      dup4\n      iszero\n      iszero\n      mul\n      or\n      swap1\n      sstore\n      pop\n        /* \"contracts/Escrow.sol\":997:1014  rollbackAddresses */\n      0x01\n        /* \"contracts/Escrow.sol\":997:1018  rollbackAddresses[to] */\n      0x00\n        /* \"contracts/Escrow.sol\":1015:1017  to */\n      dup5\n        /* \"contracts/Escrow.sol\":997:1018  rollbackAddresses[to] */\n      0xffffffffffffffffffffffffffffffffffffffff\n      and\n      0xffffffffffffffffffffffffffffffffffffffff\n      and\n      dup2\n      mstore\n      0x20\n      add\n      swap1\n      dup2\n      mstore\n      0x20\n      add\n      0x00\n      keccak256\n        /* \"contracts/Escrow.sol\":1024:1028  from */\n      dup3\n        /* \"contracts/Escrow.sol\":997:1029  rollbackAddresses[to].push(from) */\n      swap1\n      dup1\n      0x01\n      dup2\n      sload\n      add\n      dup1\n      dup3\n      sstore\n      dup1\n      swap2\n      pop\n      pop\n      0x01\n      swap1\n      sub\n      swap1\n      0x00\n      mstore\n      keccak256(0x00, 0x20)\n      add\n      0x00\n      swap1\n      swap2\n      swap1\n      swap2\n      swap1\n      swap2\n      0x0100\n      exp\n      dup2\n      sload\n      dup2\n      0xffffffffffffffffffffffffffffffffffffffff\n      mul\n      not\n      and\n      swap1\n      dup4\n      0xffffffffffffffffffffffffffffffffffffffff\n      and\n      mul\n      or\n      swap1\n      sstore\n      pop\n        /* \"contracts/Escrow.sol\":1059:1061  to */\n      dup3\n        /* \"contracts/Escrow.sol\":1045:1069  LogSend(from, to, value) */\n      0xffffffffffffffffffffffffffffffffffffffff\n      and\n        /* \"contracts/Escrow.sol\":1053:1057  from */\n      dup3\n        /* \"contracts/Escrow.sol\":1045:1069  LogSend(from, to, value) */\n      0xffffffffffffffffffffffffffffffffffffffff\n      and\n      0xa343f361112b028dae2501770614271723be1d24c9f64fed2d4bd3ddf1c13e35\n        /* \"contracts/Escrow.sol\":1063:1068  value */\n      dup4\n        /* \"contracts/Escrow.sol\":1045:1069  LogSend(from, to, value) */\n      mload(0x40)\n      tag_62\n      swap2\n      swap1\n      tag_15\n      jump\t// in\n    tag_62:\n      mload(0x40)\n      dup1\n      swap2\n      sub\n      swap1\n      log3\n        /* \"contracts/Escrow.sol\":720:1077  {\r... */\n      pop\n      pop\n        /* \"contracts/Escrow.sol\":664:1077  function sendEther(address payable to) external payable {\r... */\n      pop\n      jump\t// out\n        /* \"contracts/Escrow.sol\":1085:1710  function withdrawEther() external payable {\r... */\n    tag_24:\n        /* \"contracts/Escrow.sol\":1138:1156  address payable to */\n      0x00\n        /* \"contracts/Escrow.sol\":1167:1177  msg.sender */\n      caller\n        /* \"contracts/Escrow.sol\":1138:1178  address payable to = payable(msg.sender) */\n      swap1\n      pop\n        /* \"contracts/Escrow.sol\":1189:1200  uint _value */\n      0x00\n        /* \"contracts/Escrow.sol\":1203:1218  receiverAddress */\n      dup1\n        /* \"contracts/Escrow.sol\":1203:1222  receiverAddress[to] */\n      0x00\n        /* \"contracts/Escrow.sol\":1219:1221  to */\n      dup4\n        /* \"contracts/Escrow.sol\":1203:1222  receiverAddress[to] */\n      0xffffffffffffffffffffffffffffffffffffffff\n      and\n      0xffffffffffffffffffffffffffffffffffffffff\n      and\n      dup2\n      mstore\n      0x20\n      add\n      swap1\n      dup2\n      mstore\n      0x20\n      add\n      0x00\n      keccak256\n      sload\n        /* \"contracts/Escrow.sol\":1189:1222  uint _value = receiverAddress[to] */\n      swap1\n      pop\n        /* \"contracts/Escrow.sol\":1251:1252  0 */\n      0x00\n        /* \"contracts/Escrow.sol\":1241:1247  _value */\n      dup2\n        /* \"contracts/Escrow.sol\":1241:1252  _value != 0 */\n      eq\n      iszero\n        /* \"contracts/Escrow.sol\":1233:1290  require(_value != 0, \"You don't have ethers sent to you\") */\n      tag_64\n      jumpi\n      mload(0x40)\n      0x08c379a000000000000000000000000000000000000000000000000000000000\n      dup2\n      mstore\n      0x04\n      add\n      tag_65\n      swap1\n      tag_66\n      jump\t// in\n    tag_65:\n      mload(0x40)\n      dup1\n      swap2\n      sub\n      swap1\n      revert\n    tag_64:\n        /* \"contracts/Escrow.sol\":1302:1311  bool sent */\n      0x00\n        /* \"contracts/Escrow.sol\":1317:1319  to */\n      dup3\n        /* \"contracts/Escrow.sol\":1317:1324  to.call */\n      0xffffffffffffffffffffffffffffffffffffffff\n      and\n        /* \"contracts/Escrow.sol\":1332:1338  _value */\n      dup3\n        /* \"contracts/Escrow.sol\":1317:1343  to.call{value: _value}(\"\") */\n      mload(0x40)\n      tag_67\n      swap1\n      tag_34\n      jump\t// in\n    tag_67:\n      0x00\n      mload(0x40)\n      dup1\n      dup4\n      sub\n      dup2\n      dup6\n      dup8\n      gas\n      call\n      swap3\n      pop\n      pop\n      pop\n      returndatasize\n      dup1\n      0x00\n      dup2\n      eq\n      tag_70\n      jumpi\n      mload(0x40)\n      swap2\n      pop\n      and(add(returndatasize, 0x3f), not(0x1f))\n      dup3\n      add\n      0x40\n      mstore\n      returndatasize\n      dup3\n      mstore\n      returndatasize\n      0x00\n      0x20\n      dup5\n      add\n      returndatacopy\n      jump(tag_69)\n    tag_70:\n      0x60\n      swap2\n      pop\n    tag_69:\n      pop\n        /* \"contracts/Escrow.sol\":1301:1343  (bool sent, ) = to.call{value: _value}(\"\") */\n      pop\n      swap1\n      pop\n        /* \"contracts/Escrow.sol\":1362:1366  sent */\n      dup1\n        /* \"contracts/Escrow.sol\":1354:1391  require(sent, \"Failed to send Ether\") */\n      tag_71\n      jumpi\n      mload(0x40)\n      0x08c379a000000000000000000000000000000000000000000000000000000000\n      dup2\n      mstore\n      0x04\n      add\n      tag_72\n      swap1\n      tag_40\n      jump\t// in\n    tag_72:\n      mload(0x40)\n      dup1\n      swap2\n      sub\n      swap1\n      revert\n    tag_71:\n        /* \"contracts/Escrow.sol\":1409:1424  receiverAddress */\n      0x00\n        /* \"contracts/Escrow.sol\":1409:1428  receiverAddress[to] */\n      dup1\n        /* \"contracts/Escrow.sol\":1425:1427  to */\n      dup5\n        /* \"contracts/Escrow.sol\":1409:1428  receiverAddress[to] */\n      0xffffffffffffffffffffffffffffffffffffffff\n      and\n      0xffffffffffffffffffffffffffffffffffffffff\n      and\n      dup2\n      mstore\n      0x20\n      add\n      swap1\n      dup2\n      mstore\n      0x20\n      add\n      0x00\n      keccak256\n        /* \"contracts/Escrow.sol\":1402:1428  delete receiverAddress[to] */\n      0x00\n      swap1\n      sstore\n        /* \"contracts/Escrow.sol\":1444:1450  uint i */\n      0x00\n        /* \"contracts/Escrow.sol\":1439:1656  for (uint i = 0; i < rollbackAddresses[to].length; i++) {\r... */\n    tag_73:\n        /* \"contracts/Escrow.sol\":1460:1477  rollbackAddresses */\n      0x01\n        /* \"contracts/Escrow.sol\":1460:1481  rollbackAddresses[to] */\n      0x00\n        /* \"contracts/Escrow.sol\":1478:1480  to */\n      dup6\n        /* \"contracts/Escrow.sol\":1460:1481  rollbackAddresses[to] */\n      0xffffffffffffffffffffffffffffffffffffffff\n      and\n      0xffffffffffffffffffffffffffffffffffffffff\n      and\n      dup2\n      mstore\n      0x20\n      add\n      swap1\n      dup2\n      mstore\n      0x20\n      add\n      0x00\n      keccak256\n        /* \"contracts/Escrow.sol\":1460:1488  rollbackAddresses[to].length */\n      dup1\n      sload\n      swap1\n      pop\n        /* \"contracts/Escrow.sol\":1456:1457  i */\n      dup2\n        /* \"contracts/Escrow.sol\":1456:1488  i < rollbackAddresses[to].length */\n      lt\n        /* \"contracts/Escrow.sol\":1439:1656  for (uint i = 0; i < rollbackAddresses[to].length; i++) {\r... */\n      iszero\n      tag_74\n      jumpi\n        /* \"contracts/Escrow.sol\":1510:1522  address from */\n      0x00\n        /* \"contracts/Escrow.sol\":1525:1542  rollbackAddresses */\n      0x01\n        /* \"contracts/Escrow.sol\":1525:1546  rollbackAddresses[to] */\n      0x00\n        /* \"contracts/Escrow.sol\":1543:1545  to */\n      dup7\n        /* \"contracts/Escrow.sol\":1525:1546  rollbackAddresses[to] */\n      0xffffffffffffffffffffffffffffffffffffffff\n      and\n      0xffffffffffffffffffffffffffffffffffffffff\n      and\n      dup2\n      mstore\n      0x20\n      add\n      swap1\n      dup2\n      mstore\n      0x20\n      add\n      0x00\n      keccak256\n        /* \"contracts/Escrow.sol\":1547:1548  i */\n      dup3\n        /* \"contracts/Escrow.sol\":1525:1549  rollbackAddresses[to][i] */\n      dup2\n      sload\n      dup2\n      lt\n      tag_76\n      jumpi\n      tag_77\n      tag_48\n      jump\t// in\n    tag_77:\n    tag_76:\n      swap1\n      0x00\n      mstore\n      keccak256(0x00, 0x20)\n      add\n      0x00\n      swap1\n      sload\n      swap1\n      0x0100\n      exp\n      swap1\n      div\n      0xffffffffffffffffffffffffffffffffffffffff\n      and\n        /* \"contracts/Escrow.sol\":1510:1549  address from = rollbackAddresses[to][i] */\n      swap1\n      pop\n        /* \"contracts/Escrow.sol\":1593:1598  false */\n      0x00\n        /* \"contracts/Escrow.sol\":1564:1580  rollbackPossible */\n      0x02\n        /* \"contracts/Escrow.sol\":1564:1584  rollbackPossible[to] */\n      0x00\n        /* \"contracts/Escrow.sol\":1581:1583  to */\n      dup8\n        /* \"contracts/Escrow.sol\":1564:1584  rollbackPossible[to] */\n      0xffffffffffffffffffffffffffffffffffffffff\n      and\n      0xffffffffffffffffffffffffffffffffffffffff\n      and\n      dup2\n      mstore\n      0x20\n      add\n      swap1\n      dup2\n      mstore\n      0x20\n      add\n      0x00\n      keccak256\n        /* \"contracts/Escrow.sol\":1564:1590  rollbackPossible[to][from] */\n      0x00\n        /* \"contracts/Escrow.sol\":1585:1589  from */\n      dup4\n        /* \"contracts/Escrow.sol\":1564:1590  rollbackPossible[to][from] */\n      0xffffffffffffffffffffffffffffffffffffffff\n      and\n      0xffffffffffffffffffffffffffffffffffffffff\n      and\n      dup2\n      mstore\n      0x20\n      add\n      swap1\n      dup2\n      mstore\n      0x20\n      add\n      0x00\n      keccak256\n      0x00\n        /* \"contracts/Escrow.sol\":1564:1598  rollbackPossible[to][from] = false */\n      0x0100\n      exp\n      dup2\n      sload\n      dup2\n      0xff\n      mul\n      not\n      and\n      swap1\n      dup4\n      iszero\n      iszero\n      mul\n      or\n      swap1\n      sstore\n      pop\n        /* \"contracts/Escrow.sol\":1620:1637  rollbackAddresses */\n      0x01\n        /* \"contracts/Escrow.sol\":1620:1641  rollbackAddresses[to] */\n      0x00\n        /* \"contracts/Escrow.sol\":1638:1640  to */\n      dup7\n        /* \"contracts/Escrow.sol\":1620:1641  rollbackAddresses[to] */\n      0xffffffffffffffffffffffffffffffffffffffff\n      and\n      0xffffffffffffffffffffffffffffffffffffffff\n      and\n      dup2\n      mstore\n      0x20\n      add\n      swap1\n      dup2\n      mstore\n      0x20\n      add\n      0x00\n      keccak256\n        /* \"contracts/Escrow.sol\":1642:1643  i */\n      dup3\n        /* \"contracts/Escrow.sol\":1620:1644  rollbackAddresses[to][i] */\n      dup2\n      sload\n      dup2\n      lt\n      tag_79\n      jumpi\n      tag_80\n      tag_48\n      jump\t// in\n    tag_80:\n    tag_79:\n      swap1\n      0x00\n      mstore\n      keccak256(0x00, 0x20)\n      add\n      0x00\n        /* \"contracts/Escrow.sol\":1613:1644  delete rollbackAddresses[to][i] */\n      0x0100\n      exp\n      dup2\n      sload\n      swap1\n      0xffffffffffffffffffffffffffffffffffffffff\n      mul\n      not\n      and\n      swap1\n      sstore\n        /* \"contracts/Escrow.sol\":1495:1656  {\r... */\n      pop\n        /* \"contracts/Escrow.sol\":1490:1493  i++ */\n      dup1\n      dup1\n      tag_82\n      swap1\n      tag_55\n      jump\t// in\n    tag_82:\n      swap2\n      pop\n      pop\n        /* \"contracts/Escrow.sol\":1439:1656  for (uint i = 0; i < rollbackAddresses[to].length; i++) {\r... */\n      jump(tag_73)\n    tag_74:\n      pop\n        /* \"contracts/Escrow.sol\":1683:1693  msg.sender */\n      caller\n        /* \"contracts/Escrow.sol\":1671:1702  LogWithDraw(msg.sender, _value) */\n      0xffffffffffffffffffffffffffffffffffffffff\n      and\n      0xa74fab966bfc29d4ea7866d609ac5d94324a5fe817362d6a9fee5d2f8df46759\n        /* \"contracts/Escrow.sol\":1695:1701  _value */\n      dup4\n        /* \"contracts/Escrow.sol\":1671:1702  LogWithDraw(msg.sender, _value) */\n      mload(0x40)\n      tag_83\n      swap2\n      swap1\n      tag_15\n      jump\t// in\n    tag_83:\n      mload(0x40)\n      dup1\n      swap2\n      sub\n      swap1\n      log2\n        /* \"contracts/Escrow.sol\":1127:1710  {\r... */\n      pop\n      pop\n      pop\n        /* \"contracts/Escrow.sol\":1085:1710  function withdrawEther() external payable {\r... */\n      jump\t// out\n        /* \"#utility.yul\":7:162   */\n    tag_85:\n        /* \"#utility.yul\":61:66   */\n      0x00\n        /* \"#utility.yul\":99:105   */\n      dup2\n        /* \"#utility.yul\":86:106   */\n      calldataload\n        /* \"#utility.yul\":77:106   */\n      swap1\n      pop\n        /* \"#utility.yul\":115:156   */\n      tag_87\n        /* \"#utility.yul\":150:155   */\n      dup2\n        /* \"#utility.yul\":115:156   */\n      tag_88\n      jump\t// in\n    tag_87:\n        /* \"#utility.yul\":7:162   */\n      swap3\n      swap2\n      pop\n      pop\n      jump\t// out\n        /* \"#utility.yul\":168:513   */\n    tag_18:\n        /* \"#utility.yul\":235:241   */\n      0x00\n        /* \"#utility.yul\":284:286   */\n      0x20\n        /* \"#utility.yul\":272:281   */\n      dup3\n        /* \"#utility.yul\":263:270   */\n      dup5\n        /* \"#utility.yul\":259:282   */\n      sub\n        /* \"#utility.yul\":255:287   */\n      slt\n        /* \"#utility.yul\":252:371   */\n      iszero\n      tag_90\n      jumpi\n        /* \"#utility.yul\":290:369   */\n      tag_91\n      tag_92\n      jump\t// in\n    tag_91:\n        /* \"#utility.yul\":252:371   */\n    tag_90:\n        /* \"#utility.yul\":410:411   */\n      0x00\n        /* \"#utility.yul\":435:496   */\n      tag_93\n        /* \"#utility.yul\":488:495   */\n      dup5\n        /* \"#utility.yul\":479:485   */\n      dup3\n        /* \"#utility.yul\":468:477   */\n      dup6\n        /* \"#utility.yul\":464:486   */\n      add\n        /* \"#utility.yul\":435:496   */\n      tag_85\n      jump\t// in\n    tag_93:\n        /* \"#utility.yul\":425:496   */\n      swap2\n      pop\n        /* \"#utility.yul\":381:506   */\n      pop\n        /* \"#utility.yul\":168:513   */\n      swap3\n      swap2\n      pop\n      pop\n      jump\t// out\n        /* \"#utility.yul\":519:885   */\n    tag_94:\n        /* \"#utility.yul\":661:664   */\n      0x00\n        /* \"#utility.yul\":682:749   */\n      tag_96\n        /* \"#utility.yul\":746:748   */\n      0x14\n        /* \"#utility.yul\":741:744   */\n      dup4\n        /* \"#utility.yul\":682:749   */\n      tag_97\n      jump\t// in\n    tag_96:\n        /* \"#utility.yul\":675:749   */\n      swap2\n      pop\n        /* \"#utility.yul\":758:851   */\n      tag_98\n        /* \"#utility.yul\":847:850   */\n      dup3\n        /* \"#utility.yul\":758:851   */\n      tag_99\n      jump\t// in\n    tag_98:\n        /* \"#utility.yul\":876:878   */\n      0x20\n        /* \"#utility.yul\":871:874   */\n      dup3\n        /* \"#utility.yul\":867:879   */\n      add\n        /* \"#utility.yul\":860:879   */\n      swap1\n      pop\n        /* \"#utility.yul\":519:885   */\n      swap2\n      swap1\n      pop\n      jump\t// out\n        /* \"#utility.yul\":891:1257   */\n    tag_100:\n        /* \"#utility.yul\":1033:1036   */\n      0x00\n        /* \"#utility.yul\":1054:1121   */\n      tag_102\n        /* \"#utility.yul\":1118:1120   */\n      0x21\n        /* \"#utility.yul\":1113:1116   */\n      dup4\n        /* \"#utility.yul\":1054:1121   */\n      tag_97\n      jump\t// in\n    tag_102:\n        /* \"#utility.yul\":1047:1121   */\n      swap2\n      pop\n        /* \"#utility.yul\":1130:1223   */\n      tag_103\n        /* \"#utility.yul\":1219:1222   */\n      dup3\n        /* \"#utility.yul\":1130:1223   */\n      tag_104\n      jump\t// in\n    tag_103:\n        /* \"#utility.yul\":1248:1250   */\n      0x40\n        /* \"#utility.yul\":1243:1246   */\n      dup3\n        /* \"#utility.yul\":1239:1251   */\n      add\n        /* \"#utility.yul\":1232:1251   */\n      swap1\n      pop\n        /* \"#utility.yul\":891:1257   */\n      swap2\n      swap1\n      pop\n      jump\t// out\n        /* \"#utility.yul\":1263:1629   */\n    tag_105:\n        /* \"#utility.yul\":1405:1408   */\n      0x00\n        /* \"#utility.yul\":1426:1493   */\n      tag_107\n        /* \"#utility.yul\":1490:1492   */\n      0x45\n        /* \"#utility.yul\":1485:1488   */\n      dup4\n        /* \"#utility.yul\":1426:1493   */\n      tag_97\n      jump\t// in\n    tag_107:\n        /* \"#utility.yul\":1419:1493   */\n      swap2\n      pop\n        /* \"#utility.yul\":1502:1595   */\n      tag_108\n        /* \"#utility.yul\":1591:1594   */\n      dup3\n        /* \"#utility.yul\":1502:1595   */\n      tag_109\n      jump\t// in\n    tag_108:\n        /* \"#utility.yul\":1620:1622   */\n      0x60\n        /* \"#utility.yul\":1615:1618   */\n      dup3\n        /* \"#utility.yul\":1611:1623   */\n      add\n        /* \"#utility.yul\":1604:1623   */\n      swap1\n      pop\n        /* \"#utility.yul\":1263:1629   */\n      swap2\n      swap1\n      pop\n      jump\t// out\n        /* \"#utility.yul\":1635:2033   */\n    tag_110:\n        /* \"#utility.yul\":1794:1797   */\n      0x00\n        /* \"#utility.yul\":1815:1898   */\n      tag_112\n        /* \"#utility.yul\":1896:1897   */\n      0x00\n        /* \"#utility.yul\":1891:1894   */\n      dup4\n        /* \"#utility.yul\":1815:1898   */\n      tag_113\n      jump\t// in\n    tag_112:\n        /* \"#utility.yul\":1808:1898   */\n      swap2\n      pop\n        /* \"#utility.yul\":1907:2000   */\n      tag_114\n        /* \"#utility.yul\":1996:1999   */\n      dup3\n        /* \"#utility.yul\":1907:2000   */\n      tag_115\n      jump\t// in\n    tag_114:\n        /* \"#utility.yul\":2025:2026   */\n      0x00\n        /* \"#utility.yul\":2020:2023   */\n      dup3\n        /* \"#utility.yul\":2016:2027   */\n      add\n        /* \"#utility.yul\":2009:2027   */\n      swap1\n      pop\n        /* \"#utility.yul\":1635:2033   */\n      swap2\n      swap1\n      pop\n      jump\t// out\n        /* \"#utility.yul\":2039:2405   */\n    tag_116:\n        /* \"#utility.yul\":2181:2184   */\n      0x00\n        /* \"#utility.yul\":2202:2269   */\n      tag_118\n        /* \"#utility.yul\":2266:2268   */\n      0x13\n        /* \"#utility.yul\":2261:2264   */\n      dup4\n        /* \"#utility.yul\":2202:2269   */\n      tag_97\n      jump\t// in\n    tag_118:\n        /* \"#utility.yul\":2195:2269   */\n      swap2\n      pop\n        /* \"#utility.yul\":2278:2371   */\n      tag_119\n        /* \"#utility.yul\":2367:2370   */\n      dup3\n        /* \"#utility.yul\":2278:2371   */\n      tag_120\n      jump\t// in\n    tag_119:\n        /* \"#utility.yul\":2396:2398   */\n      0x20\n        /* \"#utility.yul\":2391:2394   */\n      dup3\n        /* \"#utility.yul\":2387:2399   */\n      add\n        /* \"#utility.yul\":2380:2399   */\n      swap1\n      pop\n        /* \"#utility.yul\":2039:2405   */\n      swap2\n      swap1\n      pop\n      jump\t// out\n        /* \"#utility.yul\":2411:2529   */\n    tag_121:\n        /* \"#utility.yul\":2498:2522   */\n      tag_123\n        /* \"#utility.yul\":2516:2521   */\n      dup2\n        /* \"#utility.yul\":2498:2522   */\n      tag_124\n      jump\t// in\n    tag_123:\n        /* \"#utility.yul\":2493:2496   */\n      dup3\n        /* \"#utility.yul\":2486:2523   */\n      mstore\n        /* \"#utility.yul\":2411:2529   */\n      pop\n      pop\n      jump\t// out\n        /* \"#utility.yul\":2535:2914   */\n    tag_34:\n        /* \"#utility.yul\":2719:2722   */\n      0x00\n        /* \"#utility.yul\":2741:2888   */\n      tag_126\n        /* \"#utility.yul\":2884:2887   */\n      dup3\n        /* \"#utility.yul\":2741:2888   */\n      tag_110\n      jump\t// in\n    tag_126:\n        /* \"#utility.yul\":2734:2888   */\n      swap2\n      pop\n        /* \"#utility.yul\":2905:2908   */\n      dup2\n        /* \"#utility.yul\":2898:2908   */\n      swap1\n      pop\n        /* \"#utility.yul\":2535:2914   */\n      swap2\n      swap1\n      pop\n      jump\t// out\n        /* \"#utility.yul\":2920:3339   */\n    tag_40:\n        /* \"#utility.yul\":3086:3090   */\n      0x00\n        /* \"#utility.yul\":3124:3126   */\n      0x20\n        /* \"#utility.yul\":3113:3122   */\n      dup3\n        /* \"#utility.yul\":3109:3127   */\n      add\n        /* \"#utility.yul\":3101:3127   */\n      swap1\n      pop\n        /* \"#utility.yul\":3173:3182   */\n      dup2\n        /* \"#utility.yul\":3167:3171   */\n      dup2\n        /* \"#utility.yul\":3163:3183   */\n      sub\n        /* \"#utility.yul\":3159:3160   */\n      0x00\n        /* \"#utility.yul\":3148:3157   */\n      dup4\n        /* \"#utility.yul\":3144:3161   */\n      add\n        /* \"#utility.yul\":3137:3184   */\n      mstore\n        /* \"#utility.yul\":3201:3332   */\n      tag_128\n        /* \"#utility.yul\":3327:3331   */\n      dup2\n        /* \"#utility.yul\":3201:3332   */\n      tag_94\n      jump\t// in\n    tag_128:\n        /* \"#utility.yul\":3193:3332   */\n      swap1\n      pop\n        /* \"#utility.yul\":2920:3339   */\n      swap2\n      swap1\n      pop\n      jump\t// out\n        /* \"#utility.yul\":3345:3764   */\n    tag_66:\n        /* \"#utility.yul\":3511:3515   */\n      0x00\n        /* \"#utility.yul\":3549:3551   */\n      0x20\n        /* \"#utility.yul\":3538:3547   */\n      dup3\n        /* \"#utility.yul\":3534:3552   */\n      add\n        /* \"#utility.yul\":3526:3552   */\n      swap1\n      pop\n        /* \"#utility.yul\":3598:3607   */\n      dup2\n        /* \"#utility.yul\":3592:3596   */\n      dup2\n        /* \"#utility.yul\":3588:3608   */\n      sub\n        /* \"#utility.yul\":3584:3585   */\n      0x00\n        /* \"#utility.yul\":3573:3582   */\n      dup4\n        /* \"#utility.yul\":3569:3586   */\n      add\n        /* \"#utility.yul\":3562:3609   */\n      mstore\n        /* \"#utility.yul\":3626:3757   */\n      tag_130\n        /* \"#utility.yul\":3752:3756   */\n      dup2\n        /* \"#utility.yul\":3626:3757   */\n      tag_100\n      jump\t// in\n    tag_130:\n        /* \"#utility.yul\":3618:3757   */\n      swap1\n      pop\n        /* \"#utility.yul\":3345:3764   */\n      swap2\n      swap1\n      pop\n      jump\t// out\n        /* \"#utility.yul\":3770:4189   */\n    tag_29:\n        /* \"#utility.yul\":3936:3940   */\n      0x00\n        /* \"#utility.yul\":3974:3976   */\n      0x20\n        /* \"#utility.yul\":3963:3972   */\n      dup3\n        /* \"#utility.yul\":3959:3977   */\n      add\n        /* \"#utility.yul\":3951:3977   */\n      swap1\n      pop\n        /* \"#utility.yul\":4023:4032   */\n      dup2\n        /* \"#utility.yul\":4017:4021   */\n      dup2\n        /* \"#utility.yul\":4013:4033   */\n      sub\n        /* \"#utility.yul\":4009:4010   */\n      0x00\n        /* \"#utility.yul\":3998:4007   */\n      dup4\n        /* \"#utility.yul\":3994:4011   */\n      add\n        /* \"#utility.yul\":3987:4034   */\n      mstore\n        /* \"#utility.yul\":4051:4182   */\n      tag_132\n        /* \"#utility.yul\":4177:4181   */\n      dup2\n        /* \"#utility.yul\":4051:4182   */\n      tag_105\n      jump\t// in\n    tag_132:\n        /* \"#utility.yul\":4043:4182   */\n      swap1\n      pop\n        /* \"#utility.yul\":3770:4189   */\n      swap2\n      swap1\n      pop\n      jump\t// out\n        /* \"#utility.yul\":4195:4614   */\n    tag_32:\n        /* \"#utility.yul\":4361:4365   */\n      0x00\n        /* \"#utility.yul\":4399:4401   */\n      0x20\n        /* \"#utility.yul\":4388:4397   */\n      dup3\n        /* \"#utility.yul\":4384:4402   */\n      add\n        /* \"#utility.yul\":4376:4402   */\n      swap1\n      pop\n        /* \"#utility.yul\":4448:4457   */\n      dup2\n        /* \"#utility.yul\":4442:4446   */\n      dup2\n        /* \"#utility.yul\":4438:4458   */\n      sub\n        /* \"#utility.yul\":4434:4435   */\n      0x00\n        /* \"#utility.yul\":4423:4432   */\n      dup4\n        /* \"#utility.yul\":4419:4436   */\n      add\n        /* \"#utility.yul\":4412:4459   */\n      mstore\n        /* \"#utility.yul\":4476:4607   */\n      tag_134\n        /* \"#utility.yul\":4602:4606   */\n      dup2\n        /* \"#utility.yul\":4476:4607   */\n      tag_116\n      jump\t// in\n    tag_134:\n        /* \"#utility.yul\":4468:4607   */\n      swap1\n      pop\n        /* \"#utility.yul\":4195:4614   */\n      swap2\n      swap1\n      pop\n      jump\t// out\n        /* \"#utility.yul\":4620:4842   */\n    tag_15:\n        /* \"#utility.yul\":4713:4717   */\n      0x00\n        /* \"#utility.yul\":4751:4753   */\n      0x20\n        /* \"#utility.yul\":4740:4749   */\n      dup3\n        /* \"#utility.yul\":4736:4754   */\n      add\n        /* \"#utility.yul\":4728:4754   */\n      swap1\n      pop\n        /* \"#utility.yul\":4764:4835   */\n      tag_136\n        /* \"#utility.yul\":4832:4833   */\n      0x00\n        /* \"#utility.yul\":4821:4830   */\n      dup4\n        /* \"#utility.yul\":4817:4834   */\n      add\n        /* \"#utility.yul\":4808:4814   */\n      dup5\n        /* \"#utility.yul\":4764:4835   */\n      tag_121\n      jump\t// in\n    tag_136:\n        /* \"#utility.yul\":4620:4842   */\n      swap3\n      swap2\n      pop\n      pop\n      jump\t// out\n        /* \"#utility.yul\":4929:5076   */\n    tag_113:\n        /* \"#utility.yul\":5030:5041   */\n      0x00\n        /* \"#utility.yul\":5067:5070   */\n      dup2\n        /* \"#utility.yul\":5052:5070   */\n      swap1\n      pop\n        /* \"#utility.yul\":4929:5076   */\n      swap3\n      swap2\n      pop\n      pop\n      jump\t// out\n        /* \"#utility.yul\":5082:5251   */\n    tag_97:\n        /* \"#utility.yul\":5166:5177   */\n      0x00\n        /* \"#utility.yul\":5200:5206   */\n      dup3\n        /* \"#utility.yul\":5195:5198   */\n      dup3\n        /* \"#utility.yul\":5188:5207   */\n      mstore\n        /* \"#utility.yul\":5240:5244   */\n      0x20\n        /* \"#utility.yul\":5235:5238   */\n      dup3\n        /* \"#utility.yul\":5231:5245   */\n      add\n        /* \"#utility.yul\":5216:5245   */\n      swap1\n      pop\n        /* \"#utility.yul\":5082:5251   */\n      swap3\n      swap2\n      pop\n      pop\n      jump\t// out\n        /* \"#utility.yul\":5257:5562   */\n    tag_58:\n        /* \"#utility.yul\":5297:5300   */\n      0x00\n        /* \"#utility.yul\":5316:5336   */\n      tag_142\n        /* \"#utility.yul\":5334:5335   */\n      dup3\n        /* \"#utility.yul\":5316:5336   */\n      tag_124\n      jump\t// in\n    tag_142:\n        /* \"#utility.yul\":5311:5336   */\n      swap2\n      pop\n        /* \"#utility.yul\":5350:5370   */\n      tag_143\n        /* \"#utility.yul\":5368:5369   */\n      dup4\n        /* \"#utility.yul\":5350:5370   */\n      tag_124\n      jump\t// in\n    tag_143:\n        /* \"#utility.yul\":5345:5370   */\n      swap3\n      pop\n        /* \"#utility.yul\":5504:5505   */\n      dup3\n        /* \"#utility.yul\":5436:5502   */\n      0xffffffffffffffffffffffffffffffffffffffffffffffffffffffffffffffff\n        /* \"#utility.yul\":5432:5506   */\n      sub\n        /* \"#utility.yul\":5429:5430   */\n      dup3\n        /* \"#utility.yul\":5426:5507   */\n      gt\n        /* \"#utility.yul\":5423:5530   */\n      iszero\n      tag_144\n      jumpi\n        /* \"#utility.yul\":5510:5528   */\n      tag_145\n      tag_146\n      jump\t// in\n    tag_145:\n        /* \"#utility.yul\":5423:5530   */\n    tag_144:\n        /* \"#utility.yul\":5554:5555   */\n      dup3\n        /* \"#utility.yul\":5551:5552   */\n      dup3\n        /* \"#utility.yul\":5547:5556   */\n      add\n        /* \"#utility.yul\":5540:5556   */\n      swap1\n      pop\n        /* \"#utility.yul\":5257:5562   */\n      swap3\n      swap2\n      pop\n      pop\n      jump\t// out\n        /* \"#utility.yul\":5568:5759   */\n    tag_42:\n        /* \"#utility.yul\":5608:5612   */\n      0x00\n        /* \"#utility.yul\":5628:5648   */\n      tag_148\n        /* \"#utility.yul\":5646:5647   */\n      dup3\n        /* \"#utility.yul\":5628:5648   */\n      tag_124\n      jump\t// in\n    tag_148:\n        /* \"#utility.yul\":5623:5648   */\n      swap2\n      pop\n        /* \"#utility.yul\":5662:5682   */\n      tag_149\n        /* \"#utility.yul\":5680:5681   */\n      dup4\n        /* \"#utility.yul\":5662:5682   */\n      tag_124\n      jump\t// in\n    tag_149:\n        /* \"#utility.yul\":5657:5682   */\n      swap3\n      pop\n        /* \"#utility.yul\":5701:5702   */\n      dup3\n        /* \"#utility.yul\":5698:5699   */\n      dup3\n        /* \"#utility.yul\":5695:5703   */\n      lt\n        /* \"#utility.yul\":5692:5726   */\n      iszero\n      tag_150\n      jumpi\n        /* \"#utility.yul\":5706:5724   */\n      tag_151\n      tag_146\n      jump\t// in\n    tag_151:\n        /* \"#utility.yul\":5692:5726   */\n    tag_150:\n        /* \"#utility.yul\":5751:5752   */\n      dup3\n        /* \"#utility.yul\":5748:5749   */\n      dup3\n        /* \"#utility.yul\":5744:5753   */\n      sub\n        /* \"#utility.yul\":5736:5753   */\n      swap1\n      pop\n        /* \"#utility.yul\":5568:5759   */\n      swap3\n      swap2\n      pop\n      pop\n      jump\t// out\n        /* \"#utility.yul\":5765:5869   */\n    tag_152:\n        /* \"#utility.yul\":5810:5817   */\n      0x00\n        /* \"#utility.yul\":5839:5863   */\n      tag_154\n        /* \"#utility.yul\":5857:5862   */\n      dup3\n        /* \"#utility.yul\":5839:5863   */\n      tag_155\n      jump\t// in\n    tag_154:\n        /* \"#utility.yul\":5828:5863   */\n      swap1\n      pop\n        /* \"#utility.yul\":5765:5869   */\n      swap2\n      swap1\n      pop\n      jump\t// out\n        /* \"#utility.yul\":5875:6001   */\n    tag_155:\n        /* \"#utility.yul\":5912:5919   */\n      0x00\n        /* \"#utility.yul\":5952:5994   */\n      0xffffffffffffffffffffffffffffffffffffffff\n        /* \"#utility.yul\":5945:5950   */\n      dup3\n        /* \"#utility.yul\":5941:5995   */\n      and\n        /* \"#utility.yul\":5930:5995   */\n      swap1\n      pop\n        /* \"#utility.yul\":5875:6001   */\n      swap2\n      swap1\n      pop\n      jump\t// out\n        /* \"#utility.yul\":6007:6084   */\n    tag_124:\n        /* \"#utility.yul\":6044:6051   */\n      0x00\n        /* \"#utility.yul\":6073:6078   */\n      dup2\n        /* \"#utility.yul\":6062:6078   */\n      swap1\n      pop\n        /* \"#utility.yul\":6007:6084   */\n      swap2\n      swap1\n      pop\n      jump\t// out\n        /* \"#utility.yul\":6090:6323   */\n    tag_55:\n        /* \"#utility.yul\":6129:6132   */\n      0x00\n        /* \"#utility.yul\":6152:6176   */\n      tag_159\n        /* \"#utility.yul\":6170:6175   */\n      dup3\n        /* \"#utility.yul\":6152:6176   */\n      tag_124\n      jump\t// in\n    tag_159:\n        /* \"#utility.yul\":6143:6176   */\n      swap2\n      pop\n        /* \"#utility.yul\":6198:6264   */\n      0xffffffffffffffffffffffffffffffffffffffffffffffffffffffffffffffff\n        /* \"#utility.yul\":6191:6196   */\n      dup3\n        /* \"#utility.yul\":6188:6265   */\n      eq\n        /* \"#utility.yul\":6185:6288   */\n      iszero\n      tag_160\n      jumpi\n        /* \"#utility.yul\":6268:6286   */\n      tag_161\n      tag_146\n      jump\t// in\n    tag_161:\n        /* \"#utility.yul\":6185:6288   */\n    tag_160:\n        /* \"#utility.yul\":6315:6316   */\n      0x01\n        /* \"#utility.yul\":6308:6313   */\n      dup3\n        /* \"#utility.yul\":6304:6317   */\n      add\n        /* \"#utility.yul\":6297:6317   */\n      swap1\n      pop\n        /* \"#utility.yul\":6090:6323   */\n      swap2\n      swap1\n      pop\n      jump\t// out\n        /* \"#utility.yul\":6329:6509   */\n    tag_146:\n        /* \"#utility.yul\":6377:6454   */\n      0x4e487b7100000000000000000000000000000000000000000000000000000000\n        /* \"#utility.yul\":6374:6375   */\n      0x00\n        /* \"#utility.yul\":6367:6455   */\n      mstore\n        /* \"#utility.yul\":6474:6478   */\n      0x11\n        /* \"#utility.yul\":6471:6472   */\n      0x04\n        /* \"#utility.yul\":6464:6479   */\n      mstore\n        /* \"#utility.yul\":6498:6502   */\n      0x24\n        /* \"#utility.yul\":6495:6496   */\n      0x00\n        /* \"#utility.yul\":6488:6503   */\n      revert\n        /* \"#utility.yul\":6515:6695   */\n    tag_48:\n        /* \"#utility.yul\":6563:6640   */\n      0x4e487b7100000000000000000000000000000000000000000000000000000000\n        /* \"#utility.yul\":6560:6561   */\n      0x00\n        /* \"#utility.yul\":6553:6641   */\n      mstore\n        /* \"#utility.yul\":6660:6664   */\n      0x32\n        /* \"#utility.yul\":6657:6658   */\n      0x04\n        /* \"#utility.yul\":6650:6665   */\n      mstore\n        /* \"#utility.yul\":6684:6688   */\n      0x24\n        /* \"#utility.yul\":6681:6682   */\n      0x00\n        /* \"#utility.yul\":6674:6689   */\n      revert\n        /* \"#utility.yul\":6824:6941   */\n    tag_92:\n        /* \"#utility.yul\":6933:6934   */\n      0x00\n        /* \"#utility.yul\":6930:6931   */\n      dup1\n        /* \"#utility.yul\":6923:6935   */\n      revert\n        /* \"#utility.yul\":6947:7117   */\n    tag_99:\n        /* \"#utility.yul\":7087:7109   */\n      0x4661696c656420746f2073656e64204574686572000000000000000000000000\n        /* \"#utility.yul\":7083:7084   */\n      0x00\n        /* \"#utility.yul\":7075:7081   */\n      dup3\n        /* \"#utility.yul\":7071:7085   */\n      add\n        /* \"#utility.yul\":7064:7110   */\n      mstore\n        /* \"#utility.yul\":6947:7117   */\n      pop\n      jump\t// out\n        /* \"#utility.yul\":7123:7343   */\n    tag_104:\n        /* \"#utility.yul\":7263:7297   */\n      0x596f7520646f6e27742068617665206574686572732073656e7420746f20796f\n        /* \"#utility.yul\":7259:7260   */\n      0x00\n        /* \"#utility.yul\":7251:7257   */\n      dup3\n        /* \"#utility.yul\":7247:7261   */\n      add\n        /* \"#utility.yul\":7240:7298   */\n      mstore\n        /* \"#utility.yul\":7332:7335   */\n      0x7500000000000000000000000000000000000000000000000000000000000000\n        /* \"#utility.yul\":7327:7329   */\n      0x20\n        /* \"#utility.yul\":7319:7325   */\n      dup3\n        /* \"#utility.yul\":7315:7330   */\n      add\n        /* \"#utility.yul\":7308:7336   */\n      mstore\n        /* \"#utility.yul\":7123:7343   */\n      pop\n      jump\t// out\n        /* \"#utility.yul\":7349:7642   */\n    tag_109:\n        /* \"#utility.yul\":7489:7523   */\n      0x526f6c6c6261636b206973206e6f7420617661696c61626c6520666f7220796f\n        /* \"#utility.yul\":7485:7486   */\n      0x00\n        /* \"#utility.yul\":7477:7483   */\n      dup3\n        /* \"#utility.yul\":7473:7487   */\n      add\n        /* \"#utility.yul\":7466:7524   */\n      mstore\n        /* \"#utility.yul\":7558:7592   */\n      0x752e20457468657273206d6967687420626520616c7265616479207769746864\n        /* \"#utility.yul\":7553:7555   */\n      0x20\n        /* \"#utility.yul\":7545:7551   */\n      dup3\n        /* \"#utility.yul\":7541:7556   */\n      add\n        /* \"#utility.yul\":7534:7593   */\n      mstore\n        /* \"#utility.yul\":7627:7634   */\n      0x7261776564000000000000000000000000000000000000000000000000000000\n        /* \"#utility.yul\":7622:7624   */\n      0x40\n        /* \"#utility.yul\":7614:7620   */\n      dup3\n        /* \"#utility.yul\":7610:7625   */\n      add\n        /* \"#utility.yul\":7603:7635   */\n      mstore\n        /* \"#utility.yul\":7349:7642   */\n      pop\n      jump\t// out\n        /* \"#utility.yul\":7648:7762   */\n    tag_115:\n      pop\n      jump\t// out\n        /* \"#utility.yul\":7768:7937   */\n    tag_120:\n        /* \"#utility.yul\":7908:7929   */\n      0x526f6c6c6261636b2076616c7565206973203000000000000000000000000000\n        /* \"#utility.yul\":7904:7905   */\n      0x00\n        /* \"#utility.yul\":7896:7902   */\n      dup3\n        /* \"#utility.yul\":7892:7906   */\n      add\n        /* \"#utility.yul\":7885:7930   */\n      mstore\n        /* \"#utility.yul\":7768:7937   */\n      pop\n      jump\t// out\n        /* \"#utility.yul\":7943:8081   */\n    tag_88:\n        /* \"#utility.yul\":8024:8056   */\n      tag_173\n        /* \"#utility.yul\":8050:8055   */\n      dup2\n        /* \"#utility.yul\":8024:8056   */\n      tag_152\n      jump\t// in\n    tag_173:\n        /* \"#utility.yul\":8017:8022   */\n      dup2\n        /* \"#utility.yul\":8014:8057   */\n      eq\n        /* \"#utility.yul\":8004:8075   */\n      tag_174\n      jumpi\n        /* \"#utility.yul\":8071:8072   */\n      0x00\n        /* \"#utility.yul\":8068:8069   */\n      dup1\n        /* \"#utility.yul\":8061:8073   */\n      revert\n        /* \"#utility.yul\":8004:8075   */\n    tag_174:\n        /* \"#utility.yul\":7943:8081   */\n      pop\n      jump\t// out\n\n    auxdata: 0xa2646970667358221220225b66b3935fa6ccd0813daa3ca7d02be485efa1cd3cb1d520f894c86753049e64736f6c63430008070033\n}\n",
				"bytecode": {
					"linkReferences": {},
					"object": "608060405234801561001057600080fd5b50611212806100206000396000f3fe6080604052600436106100435760003560e01c806312065fe01461004c578063368438611461007757806348c981e2146100935780637362377b146100af5761004a565b3661004a57005b005b34801561005857600080fd5b506100616100b9565b60405161006e9190610f03565b60405180910390f35b610091600480360381019061008c9190610d83565b6100c1565b005b6100ad60048036038101906100a89190610d83565b61060a565b005b6100b76109ac565b005b600047905090565b6000339050600260008373ffffffffffffffffffffffffffffffffffffffff1673ffffffffffffffffffffffffffffffffffffffff16815260200190815260200160002060008273ffffffffffffffffffffffffffffffffffffffff1673ffffffffffffffffffffffffffffffffffffffff16815260200190815260200160002060009054906101000a900460ff1661018f576040517f08c379a000000000000000000000000000000000000000000000000000000000815260040161018690610ec3565b60405180910390fd5b6000600360008473ffffffffffffffffffffffffffffffffffffffff1673ffffffffffffffffffffffffffffffffffffffff16815260200190815260200160002060008373ffffffffffffffffffffffffffffffffffffffff1673ffffffffffffffffffffffffffffffffffffffff1681526020019081526020016000205490506000811415610254576040517f08c379a000000000000000000000000000000000000000000000000000000000815260040161024b90610ee3565b60405180910390fd5b60008273ffffffffffffffffffffffffffffffffffffffff168260405161027a90610e6e565b60006040518083038185875af1925050503d80600081146102b7576040519150601f19603f3d011682016040523d82523d6000602084013e6102bc565b606091505b5050905080610300576040517f08c379a00000000000000000000000000000000000000000000000000000000081526004016102f790610e83565b60405180910390fd5b816000808673ffffffffffffffffffffffffffffffffffffffff1673ffffffffffffffffffffffffffffffffffffffff168152602001908152602001600020600082825461034e9190610f90565b92505081905550600360008573ffffffffffffffffffffffffffffffffffffffff1673ffffffffffffffffffffffffffffffffffffffff16815260200190815260200160002060008473ffffffffffffffffffffffffffffffffffffffff1673ffffffffffffffffffffffffffffffffffffffff168152602001908152602001600020600090556000600260008673ffffffffffffffffffffffffffffffffffffffff1673ffffffffffffffffffffffffffffffffffffffff16815260200190815260200160002060008573ffffffffffffffffffffffffffffffffffffffff1673ffffffffffffffffffffffffffffffffffffffff16815260200190815260200160002060006101000a81548160ff02191690831515021790555060005b600160008673ffffffffffffffffffffffffffffffffffffffff1673ffffffffffffffffffffffffffffffffffffffff16815260200190815260200160002080549050811015610603576000600160008773ffffffffffffffffffffffffffffffffffffffff1673ffffffffffffffffffffffffffffffffffffffff168152602001908152602001600020828154811061050a57610509611078565b5b9060005260206000200160009054906101000a900473ffffffffffffffffffffffffffffffffffffffff1690508473ffffffffffffffffffffffffffffffffffffffff168173ffffffffffffffffffffffffffffffffffffffff1614156105ef57600160008773ffffffffffffffffffffffffffffffffffffffff1673ffffffffffffffffffffffffffffffffffffffff16815260200190815260200160002082815481106105bc576105bb611078565b5b9060005260206000200160006101000a81549073ffffffffffffffffffffffffffffffffffffffff021916905550610603565b5080806105fb90611000565b91505061046d565b5050505050565b60003390506000349050806000808573ffffffffffffffffffffffffffffffffffffffff1673ffffffffffffffffffffffffffffffffffffffff16815260200190815260200160002060008282546106629190610f3a565b92505081905550600260008473ffffffffffffffffffffffffffffffffffffffff1673ffffffffffffffffffffffffffffffffffffffff16815260200190815260200160002060008373ffffffffffffffffffffffffffffffffffffffff1673ffffffffffffffffffffffffffffffffffffffff16815260200190815260200160002060009054906101000a900460ff1661077a576000600360008573ffffffffffffffffffffffffffffffffffffffff1673ffffffffffffffffffffffffffffffffffffffff16815260200190815260200160002060008473ffffffffffffffffffffffffffffffffffffffff1673ffffffffffffffffffffffffffffffffffffffff168152602001908152602001600020819055505b80600360008573ffffffffffffffffffffffffffffffffffffffff1673ffffffffffffffffffffffffffffffffffffffff16815260200190815260200160002060008473ffffffffffffffffffffffffffffffffffffffff1673ffffffffffffffffffffffffffffffffffffffff16815260200190815260200160002060008282546108069190610f3a565b925050819055506001600260008573ffffffffffffffffffffffffffffffffffffffff1673ffffffffffffffffffffffffffffffffffffffff16815260200190815260200160002060008473ffffffffffffffffffffffffffffffffffffffff1673ffffffffffffffffffffffffffffffffffffffff16815260200190815260200160002060006101000a81548160ff021916908315150217905550600160008473ffffffffffffffffffffffffffffffffffffffff1673ffffffffffffffffffffffffffffffffffffffff168152602001908152602001600020829080600181540180825580915050600190039060005260206000200160009091909190916101000a81548173ffffffffffffffffffffffffffffffffffffffff021916908373ffffffffffffffffffffffffffffffffffffffff1602179055508273ffffffffffffffffffffffffffffffffffffffff168273ffffffffffffffffffffffffffffffffffffffff167fa343f361112b028dae2501770614271723be1d24c9f64fed2d4bd3ddf1c13e358360405161099f9190610f03565b60405180910390a3505050565b600033905060008060008373ffffffffffffffffffffffffffffffffffffffff1673ffffffffffffffffffffffffffffffffffffffff1681526020019081526020016000205490506000811415610a38576040517f08c379a0000000000000000000000000000000000000000000000000000000008152600401610a2f90610ea3565b60405180910390fd5b60008273ffffffffffffffffffffffffffffffffffffffff1682604051610a5e90610e6e565b60006040518083038185875af1925050503d8060008114610a9b576040519150601f19603f3d011682016040523d82523d6000602084013e610aa0565b606091505b5050905080610ae4576040517f08c379a0000000000000000000000000000000000000000000000000000000008152600401610adb90610e83565b60405180910390fd5b6000808473ffffffffffffffffffffffffffffffffffffffff1673ffffffffffffffffffffffffffffffffffffffff1681526020019081526020016000206000905560005b600160008573ffffffffffffffffffffffffffffffffffffffff1673ffffffffffffffffffffffffffffffffffffffff16815260200190815260200160002080549050811015610d1a576000600160008673ffffffffffffffffffffffffffffffffffffffff1673ffffffffffffffffffffffffffffffffffffffff1681526020019081526020016000208281548110610bc657610bc5611078565b5b9060005260206000200160009054906101000a900473ffffffffffffffffffffffffffffffffffffffff1690506000600260008773ffffffffffffffffffffffffffffffffffffffff1673ffffffffffffffffffffffffffffffffffffffff16815260200190815260200160002060008373ffffffffffffffffffffffffffffffffffffffff1673ffffffffffffffffffffffffffffffffffffffff16815260200190815260200160002060006101000a81548160ff021916908315150217905550600160008673ffffffffffffffffffffffffffffffffffffffff1673ffffffffffffffffffffffffffffffffffffffff1681526020019081526020016000208281548110610cd957610cd8611078565b5b9060005260206000200160006101000a81549073ffffffffffffffffffffffffffffffffffffffff0219169055508080610d1290611000565b915050610b29565b503373ffffffffffffffffffffffffffffffffffffffff167fa74fab966bfc29d4ea7866d609ac5d94324a5fe817362d6a9fee5d2f8df4675983604051610d619190610f03565b60405180910390a2505050565b600081359050610d7d816111c5565b92915050565b600060208284031215610d9957610d986110a7565b5b6000610da784828501610d6e565b91505092915050565b6000610dbd601483610f29565b9150610dc8826110ac565b602082019050919050565b6000610de0602183610f29565b9150610deb826110d5565b604082019050919050565b6000610e03604583610f29565b9150610e0e82611124565b606082019050919050565b6000610e26600083610f1e565b9150610e3182611199565b600082019050919050565b6000610e49601383610f29565b9150610e548261119c565b602082019050919050565b610e6881610ff6565b82525050565b6000610e7982610e19565b9150819050919050565b60006020820190508181036000830152610e9c81610db0565b9050919050565b60006020820190508181036000830152610ebc81610dd3565b9050919050565b60006020820190508181036000830152610edc81610df6565b9050919050565b60006020820190508181036000830152610efc81610e3c565b9050919050565b6000602082019050610f186000830184610e5f565b92915050565b600081905092915050565b600082825260208201905092915050565b6000610f4582610ff6565b9150610f5083610ff6565b9250827fffffffffffffffffffffffffffffffffffffffffffffffffffffffffffffffff03821115610f8557610f84611049565b5b828201905092915050565b6000610f9b82610ff6565b9150610fa683610ff6565b925082821015610fb957610fb8611049565b5b828203905092915050565b6000610fcf82610fd6565b9050919050565b600073ffffffffffffffffffffffffffffffffffffffff82169050919050565b6000819050919050565b600061100b82610ff6565b91507fffffffffffffffffffffffffffffffffffffffffffffffffffffffffffffffff82141561103e5761103d611049565b5b600182019050919050565b7f4e487b7100000000000000000000000000000000000000000000000000000000600052601160045260246000fd5b7f4e487b7100000000000000000000000000000000000000000000000000000000600052603260045260246000fd5b600080fd5b7f4661696c656420746f2073656e64204574686572000000000000000000000000600082015250565b7f596f7520646f6e27742068617665206574686572732073656e7420746f20796f60008201527f7500000000000000000000000000000000000000000000000000000000000000602082015250565b7f526f6c6c6261636b206973206e6f7420617661696c61626c6520666f7220796f60008201527f752e20457468657273206d6967687420626520616c726561647920776974686460208201527f7261776564000000000000000000000000000000000000000000000000000000604082015250565b50565b7f526f6c6c6261636b2076616c7565206973203000000000000000000000000000600082015250565b6111ce81610fc4565b81146111d957600080fd5b5056fea2646970667358221220225b66b3935fa6ccd0813daa3ca7d02be485efa1cd3cb1d520f894c86753049e64736f6c63430008070033",
					"opcodes": "PUSH1 0x80 PUSH1 0x40 MSTORE CALLVALUE DUP1 ISZERO PUSH2 0x10 JUMPI PUSH1 0x0 DUP1 REVERT JUMPDEST POP PUSH2 0x1212 DUP1 PUSH2 0x20 PUSH1 0x0 CODECOPY PUSH1 0x0 RETURN INVALID PUSH1 0x80 PUSH1 0x40 MSTORE PUSH1 0x4 CALLDATASIZE LT PUSH2 0x43 JUMPI PUSH1 0x0 CALLDATALOAD PUSH1 0xE0 SHR DUP1 PUSH4 0x12065FE0 EQ PUSH2 0x4C JUMPI DUP1 PUSH4 0x36843861 EQ PUSH2 0x77 JUMPI DUP1 PUSH4 0x48C981E2 EQ PUSH2 0x93 JUMPI DUP1 PUSH4 0x7362377B EQ PUSH2 0xAF JUMPI PUSH2 0x4A JUMP JUMPDEST CALLDATASIZE PUSH2 0x4A JUMPI STOP JUMPDEST STOP JUMPDEST CALLVALUE DUP1 ISZERO PUSH2 0x58 JUMPI PUSH1 0x0 DUP1 REVERT JUMPDEST POP PUSH2 0x61 PUSH2 0xB9 JUMP JUMPDEST PUSH1 0x40 MLOAD PUSH2 0x6E SWAP2 SWAP1 PUSH2 0xF03 JUMP JUMPDEST PUSH1 0x40 MLOAD DUP1 SWAP2 SUB SWAP1 RETURN JUMPDEST PUSH2 0x91 PUSH1 0x4 DUP1 CALLDATASIZE SUB DUP2 ADD SWAP1 PUSH2 0x8C SWAP2 SWAP1 PUSH2 0xD83 JUMP JUMPDEST PUSH2 0xC1 JUMP JUMPDEST STOP JUMPDEST PUSH2 0xAD PUSH1 0x4 DUP1 CALLDATASIZE SUB DUP2 ADD SWAP1 PUSH2 0xA8 SWAP2 SWAP1 PUSH2 0xD83 JUMP JUMPDEST PUSH2 0x60A JUMP JUMPDEST STOP JUMPDEST PUSH2 0xB7 PUSH2 0x9AC JUMP JUMPDEST STOP JUMPDEST PUSH1 0x0 SELFBALANCE SWAP1 POP SWAP1 JUMP JUMPDEST PUSH1 0x0 CALLER SWAP1 POP PUSH1 0x2 PUSH1 0x0 DUP4 PUSH20 0xFFFFFFFFFFFFFFFFFFFFFFFFFFFFFFFFFFFFFFFF AND PUSH20 0xFFFFFFFFFFFFFFFFFFFFFFFFFFFFFFFFFFFFFFFF AND DUP2 MSTORE PUSH1 0x20 ADD SWAP1 DUP2 MSTORE PUSH1 0x20 ADD PUSH1 0x0 KECCAK256 PUSH1 0x0 DUP3 PUSH20 0xFFFFFFFFFFFFFFFFFFFFFFFFFFFFFFFFFFFFFFFF AND PUSH20 0xFFFFFFFFFFFFFFFFFFFFFFFFFFFFFFFFFFFFFFFF AND DUP2 MSTORE PUSH1 0x20 ADD SWAP1 DUP2 MSTORE PUSH1 0x20 ADD PUSH1 0x0 KECCAK256 PUSH1 0x0 SWAP1 SLOAD SWAP1 PUSH2 0x100 EXP SWAP1 DIV PUSH1 0xFF AND PUSH2 0x18F JUMPI PUSH1 0x40 MLOAD PUSH32 0x8C379A000000000000000000000000000000000000000000000000000000000 DUP2 MSTORE PUSH1 0x4 ADD PUSH2 0x186 SWAP1 PUSH2 0xEC3 JUMP JUMPDEST PUSH1 0x40 MLOAD DUP1 SWAP2 SUB SWAP1 REVERT JUMPDEST PUSH1 0x0 PUSH1 0x3 PUSH1 0x0 DUP5 PUSH20 0xFFFFFFFFFFFFFFFFFFFFFFFFFFFFFFFFFFFFFFFF AND PUSH20 0xFFFFFFFFFFFFFFFFFFFFFFFFFFFFFFFFFFFFFFFF AND DUP2 MSTORE PUSH1 0x20 ADD SWAP1 DUP2 MSTORE PUSH1 0x20 ADD PUSH1 0x0 KECCAK256 PUSH1 0x0 DUP4 PUSH20 0xFFFFFFFFFFFFFFFFFFFFFFFFFFFFFFFFFFFFFFFF AND PUSH20 0xFFFFFFFFFFFFFFFFFFFFFFFFFFFFFFFFFFFFFFFF AND DUP2 MSTORE PUSH1 0x20 ADD SWAP1 DUP2 MSTORE PUSH1 0x20 ADD PUSH1 0x0 KECCAK256 SLOAD SWAP1 POP PUSH1 0x0 DUP2 EQ ISZERO PUSH2 0x254 JUMPI PUSH1 0x40 MLOAD PUSH32 0x8C379A000000000000000000000000000000000000000000000000000000000 DUP2 MSTORE PUSH1 0x4 ADD PUSH2 0x24B SWAP1 PUSH2 0xEE3 JUMP JUMPDEST PUSH1 0x40 MLOAD DUP1 SWAP2 SUB SWAP1 REVERT JUMPDEST PUSH1 0x0 DUP3 PUSH20 0xFFFFFFFFFFFFFFFFFFFFFFFFFFFFFFFFFFFFFFFF AND DUP3 PUSH1 0x40 MLOAD PUSH2 0x27A SWAP1 PUSH2 0xE6E JUMP JUMPDEST PUSH1 0x0 PUSH1 0x40 MLOAD DUP1 DUP4 SUB DUP2 DUP6 DUP8 GAS CALL SWAP3 POP POP POP RETURNDATASIZE DUP1 PUSH1 0x0 DUP2 EQ PUSH2 0x2B7 JUMPI PUSH1 0x40 MLOAD SWAP2 POP PUSH1 0x1F NOT PUSH1 0x3F RETURNDATASIZE ADD AND DUP3 ADD PUSH1 0x40 MSTORE RETURNDATASIZE DUP3 MSTORE RETURNDATASIZE PUSH1 0x0 PUSH1 0x20 DUP5 ADD RETURNDATACOPY PUSH2 0x2BC JUMP JUMPDEST PUSH1 0x60 SWAP2 POP JUMPDEST POP POP SWAP1 POP DUP1 PUSH2 0x300 JUMPI PUSH1 0x40 MLOAD PUSH32 0x8C379A000000000000000000000000000000000000000000000000000000000 DUP2 MSTORE PUSH1 0x4 ADD PUSH2 0x2F7 SWAP1 PUSH2 0xE83 JUMP JUMPDEST PUSH1 0x40 MLOAD DUP1 SWAP2 SUB SWAP1 REVERT JUMPDEST DUP2 PUSH1 0x0 DUP1 DUP7 PUSH20 0xFFFFFFFFFFFFFFFFFFFFFFFFFFFFFFFFFFFFFFFF AND PUSH20 0xFFFFFFFFFFFFFFFFFFFFFFFFFFFFFFFFFFFFFFFF AND DUP2 MSTORE PUSH1 0x20 ADD SWAP1 DUP2 MSTORE PUSH1 0x20 ADD PUSH1 0x0 KECCAK256 PUSH1 0x0 DUP3 DUP3 SLOAD PUSH2 0x34E SWAP2 SWAP1 PUSH2 0xF90 JUMP JUMPDEST SWAP3 POP POP DUP2 SWAP1 SSTORE POP PUSH1 0x3 PUSH1 0x0 DUP6 PUSH20 0xFFFFFFFFFFFFFFFFFFFFFFFFFFFFFFFFFFFFFFFF AND PUSH20 0xFFFFFFFFFFFFFFFFFFFFFFFFFFFFFFFFFFFFFFFF AND DUP2 MSTORE PUSH1 0x20 ADD SWAP1 DUP2 MSTORE PUSH1 0x20 ADD PUSH1 0x0 KECCAK256 PUSH1 0x0 DUP5 PUSH20 0xFFFFFFFFFFFFFFFFFFFFFFFFFFFFFFFFFFFFFFFF AND PUSH20 0xFFFFFFFFFFFFFFFFFFFFFFFFFFFFFFFFFFFFFFFF AND DUP2 MSTORE PUSH1 0x20 ADD SWAP1 DUP2 MSTORE PUSH1 0x20 ADD PUSH1 0x0 KECCAK256 PUSH1 0x0 SWAP1 SSTORE PUSH1 0x0 PUSH1 0x2 PUSH1 0x0 DUP7 PUSH20 0xFFFFFFFFFFFFFFFFFFFFFFFFFFFFFFFFFFFFFFFF AND PUSH20 0xFFFFFFFFFFFFFFFFFFFFFFFFFFFFFFFFFFFFFFFF AND DUP2 MSTORE PUSH1 0x20 ADD SWAP1 DUP2 MSTORE PUSH1 0x20 ADD PUSH1 0x0 KECCAK256 PUSH1 0x0 DUP6 PUSH20 0xFFFFFFFFFFFFFFFFFFFFFFFFFFFFFFFFFFFFFFFF AND PUSH20 0xFFFFFFFFFFFFFFFFFFFFFFFFFFFFFFFFFFFFFFFF AND DUP2 MSTORE PUSH1 0x20 ADD SWAP1 DUP2 MSTORE PUSH1 0x20 ADD PUSH1 0x0 KECCAK256 PUSH1 0x0 PUSH2 0x100 EXP DUP2 SLOAD DUP2 PUSH1 0xFF MUL NOT AND SWAP1 DUP4 ISZERO ISZERO MUL OR SWAP1 SSTORE POP PUSH1 0x0 JUMPDEST PUSH1 0x1 PUSH1 0x0 DUP7 PUSH20 0xFFFFFFFFFFFFFFFFFFFFFFFFFFFFFFFFFFFFFFFF AND PUSH20 0xFFFFFFFFFFFFFFFFFFFFFFFFFFFFFFFFFFFFFFFF AND DUP2 MSTORE PUSH1 0x20 ADD SWAP1 DUP2 MSTORE PUSH1 0x20 ADD PUSH1 0x0 KECCAK256 DUP1 SLOAD SWAP1 POP DUP2 LT ISZERO PUSH2 0x603 JUMPI PUSH1 0x0 PUSH1 0x1 PUSH1 0x0 DUP8 PUSH20 0xFFFFFFFFFFFFFFFFFFFFFFFFFFFFFFFFFFFFFFFF AND PUSH20 0xFFFFFFFFFFFFFFFFFFFFFFFFFFFFFFFFFFFFFFFF AND DUP2 MSTORE PUSH1 0x20 ADD SWAP1 DUP2 MSTORE PUSH1 0x20 ADD PUSH1 0x0 KECCAK256 DUP3 DUP2 SLOAD DUP2 LT PUSH2 0x50A JUMPI PUSH2 0x509 PUSH2 0x1078 JUMP JUMPDEST JUMPDEST SWAP1 PUSH1 0x0 MSTORE PUSH1 0x20 PUSH1 0x0 KECCAK256 ADD PUSH1 0x0 SWAP1 SLOAD SWAP1 PUSH2 0x100 EXP SWAP1 DIV PUSH20 0xFFFFFFFFFFFFFFFFFFFFFFFFFFFFFFFFFFFFFFFF AND SWAP1 POP DUP5 PUSH20 0xFFFFFFFFFFFFFFFFFFFFFFFFFFFFFFFFFFFFFFFF AND DUP2 PUSH20 0xFFFFFFFFFFFFFFFFFFFFFFFFFFFFFFFFFFFFFFFF AND EQ ISZERO PUSH2 0x5EF JUMPI PUSH1 0x1 PUSH1 0x0 DUP8 PUSH20 0xFFFFFFFFFFFFFFFFFFFFFFFFFFFFFFFFFFFFFFFF AND PUSH20 0xFFFFFFFFFFFFFFFFFFFFFFFFFFFFFFFFFFFFFFFF AND DUP2 MSTORE PUSH1 0x20 ADD SWAP1 DUP2 MSTORE PUSH1 0x20 ADD PUSH1 0x0 KECCAK256 DUP3 DUP2 SLOAD DUP2 LT PUSH2 0x5BC JUMPI PUSH2 0x5BB PUSH2 0x1078 JUMP JUMPDEST JUMPDEST SWAP1 PUSH1 0x0 MSTORE PUSH1 0x20 PUSH1 0x0 KECCAK256 ADD PUSH1 0x0 PUSH2 0x100 EXP DUP2 SLOAD SWAP1 PUSH20 0xFFFFFFFFFFFFFFFFFFFFFFFFFFFFFFFFFFFFFFFF MUL NOT AND SWAP1 SSTORE POP PUSH2 0x603 JUMP JUMPDEST POP DUP1 DUP1 PUSH2 0x5FB SWAP1 PUSH2 0x1000 JUMP JUMPDEST SWAP2 POP POP PUSH2 0x46D JUMP JUMPDEST POP POP POP POP POP JUMP JUMPDEST PUSH1 0x0 CALLER SWAP1 POP PUSH1 0x0 CALLVALUE SWAP1 POP DUP1 PUSH1 0x0 DUP1 DUP6 PUSH20 0xFFFFFFFFFFFFFFFFFFFFFFFFFFFFFFFFFFFFFFFF AND PUSH20 0xFFFFFFFFFFFFFFFFFFFFFFFFFFFFFFFFFFFFFFFF AND DUP2 MSTORE PUSH1 0x20 ADD SWAP1 DUP2 MSTORE PUSH1 0x20 ADD PUSH1 0x0 KECCAK256 PUSH1 0x0 DUP3 DUP3 SLOAD PUSH2 0x662 SWAP2 SWAP1 PUSH2 0xF3A JUMP JUMPDEST SWAP3 POP POP DUP2 SWAP1 SSTORE POP PUSH1 0x2 PUSH1 0x0 DUP5 PUSH20 0xFFFFFFFFFFFFFFFFFFFFFFFFFFFFFFFFFFFFFFFF AND PUSH20 0xFFFFFFFFFFFFFFFFFFFFFFFFFFFFFFFFFFFFFFFF AND DUP2 MSTORE PUSH1 0x20 ADD SWAP1 DUP2 MSTORE PUSH1 0x20 ADD PUSH1 0x0 KECCAK256 PUSH1 0x0 DUP4 PUSH20 0xFFFFFFFFFFFFFFFFFFFFFFFFFFFFFFFFFFFFFFFF AND PUSH20 0xFFFFFFFFFFFFFFFFFFFFFFFFFFFFFFFFFFFFFFFF AND DUP2 MSTORE PUSH1 0x20 ADD SWAP1 DUP2 MSTORE PUSH1 0x20 ADD PUSH1 0x0 KECCAK256 PUSH1 0x0 SWAP1 SLOAD SWAP1 PUSH2 0x100 EXP SWAP1 DIV PUSH1 0xFF AND PUSH2 0x77A JUMPI PUSH1 0x0 PUSH1 0x3 PUSH1 0x0 DUP6 PUSH20 0xFFFFFFFFFFFFFFFFFFFFFFFFFFFFFFFFFFFFFFFF AND PUSH20 0xFFFFFFFFFFFFFFFFFFFFFFFFFFFFFFFFFFFFFFFF AND DUP2 MSTORE PUSH1 0x20 ADD SWAP1 DUP2 MSTORE PUSH1 0x20 ADD PUSH1 0x0 KECCAK256 PUSH1 0x0 DUP5 PUSH20 0xFFFFFFFFFFFFFFFFFFFFFFFFFFFFFFFFFFFFFFFF AND PUSH20 0xFFFFFFFFFFFFFFFFFFFFFFFFFFFFFFFFFFFFFFFF AND DUP2 MSTORE PUSH1 0x20 ADD SWAP1 DUP2 MSTORE PUSH1 0x20 ADD PUSH1 0x0 KECCAK256 DUP2 SWAP1 SSTORE POP JUMPDEST DUP1 PUSH1 0x3 PUSH1 0x0 DUP6 PUSH20 0xFFFFFFFFFFFFFFFFFFFFFFFFFFFFFFFFFFFFFFFF AND PUSH20 0xFFFFFFFFFFFFFFFFFFFFFFFFFFFFFFFFFFFFFFFF AND DUP2 MSTORE PUSH1 0x20 ADD SWAP1 DUP2 MSTORE PUSH1 0x20 ADD PUSH1 0x0 KECCAK256 PUSH1 0x0 DUP5 PUSH20 0xFFFFFFFFFFFFFFFFFFFFFFFFFFFFFFFFFFFFFFFF AND PUSH20 0xFFFFFFFFFFFFFFFFFFFFFFFFFFFFFFFFFFFFFFFF AND DUP2 MSTORE PUSH1 0x20 ADD SWAP1 DUP2 MSTORE PUSH1 0x20 ADD PUSH1 0x0 KECCAK256 PUSH1 0x0 DUP3 DUP3 SLOAD PUSH2 0x806 SWAP2 SWAP1 PUSH2 0xF3A JUMP JUMPDEST SWAP3 POP POP DUP2 SWAP1 SSTORE POP PUSH1 0x1 PUSH1 0x2 PUSH1 0x0 DUP6 PUSH20 0xFFFFFFFFFFFFFFFFFFFFFFFFFFFFFFFFFFFFFFFF AND PUSH20 0xFFFFFFFFFFFFFFFFFFFFFFFFFFFFFFFFFFFFFFFF AND DUP2 MSTORE PUSH1 0x20 ADD SWAP1 DUP2 MSTORE PUSH1 0x20 ADD PUSH1 0x0 KECCAK256 PUSH1 0x0 DUP5 PUSH20 0xFFFFFFFFFFFFFFFFFFFFFFFFFFFFFFFFFFFFFFFF AND PUSH20 0xFFFFFFFFFFFFFFFFFFFFFFFFFFFFFFFFFFFFFFFF AND DUP2 MSTORE PUSH1 0x20 ADD SWAP1 DUP2 MSTORE PUSH1 0x20 ADD PUSH1 0x0 KECCAK256 PUSH1 0x0 PUSH2 0x100 EXP DUP2 SLOAD DUP2 PUSH1 0xFF MUL NOT AND SWAP1 DUP4 ISZERO ISZERO MUL OR SWAP1 SSTORE POP PUSH1 0x1 PUSH1 0x0 DUP5 PUSH20 0xFFFFFFFFFFFFFFFFFFFFFFFFFFFFFFFFFFFFFFFF AND PUSH20 0xFFFFFFFFFFFFFFFFFFFFFFFFFFFFFFFFFFFFFFFF AND DUP2 MSTORE PUSH1 0x20 ADD SWAP1 DUP2 MSTORE PUSH1 0x20 ADD PUSH1 0x0 KECCAK256 DUP3 SWAP1 DUP1 PUSH1 0x1 DUP2 SLOAD ADD DUP1 DUP3 SSTORE DUP1 SWAP2 POP POP PUSH1 0x1 SWAP1 SUB SWAP1 PUSH1 0x0 MSTORE PUSH1 0x20 PUSH1 0x0 KECCAK256 ADD PUSH1 0x0 SWAP1 SWAP2 SWAP1 SWAP2 SWAP1 SWAP2 PUSH2 0x100 EXP DUP2 SLOAD DUP2 PUSH20 0xFFFFFFFFFFFFFFFFFFFFFFFFFFFFFFFFFFFFFFFF MUL NOT AND SWAP1 DUP4 PUSH20 0xFFFFFFFFFFFFFFFFFFFFFFFFFFFFFFFFFFFFFFFF AND MUL OR SWAP1 SSTORE POP DUP3 PUSH20 0xFFFFFFFFFFFFFFFFFFFFFFFFFFFFFFFFFFFFFFFF AND DUP3 PUSH20 0xFFFFFFFFFFFFFFFFFFFFFFFFFFFFFFFFFFFFFFFF AND PUSH32 0xA343F361112B028DAE2501770614271723BE1D24C9F64FED2D4BD3DDF1C13E35 DUP4 PUSH1 0x40 MLOAD PUSH2 0x99F SWAP2 SWAP1 PUSH2 0xF03 JUMP JUMPDEST PUSH1 0x40 MLOAD DUP1 SWAP2 SUB SWAP1 LOG3 POP POP POP JUMP JUMPDEST PUSH1 0x0 CALLER SWAP1 POP PUSH1 0x0 DUP1 PUSH1 0x0 DUP4 PUSH20 0xFFFFFFFFFFFFFFFFFFFFFFFFFFFFFFFFFFFFFFFF AND PUSH20 0xFFFFFFFFFFFFFFFFFFFFFFFFFFFFFFFFFFFFFFFF AND DUP2 MSTORE PUSH1 0x20 ADD SWAP1 DUP2 MSTORE PUSH1 0x20 ADD PUSH1 0x0 KECCAK256 SLOAD SWAP1 POP PUSH1 0x0 DUP2 EQ ISZERO PUSH2 0xA38 JUMPI PUSH1 0x40 MLOAD PUSH32 0x8C379A000000000000000000000000000000000000000000000000000000000 DUP2 MSTORE PUSH1 0x4 ADD PUSH2 0xA2F SWAP1 PUSH2 0xEA3 JUMP JUMPDEST PUSH1 0x40 MLOAD DUP1 SWAP2 SUB SWAP1 REVERT JUMPDEST PUSH1 0x0 DUP3 PUSH20 0xFFFFFFFFFFFFFFFFFFFFFFFFFFFFFFFFFFFFFFFF AND DUP3 PUSH1 0x40 MLOAD PUSH2 0xA5E SWAP1 PUSH2 0xE6E JUMP JUMPDEST PUSH1 0x0 PUSH1 0x40 MLOAD DUP1 DUP4 SUB DUP2 DUP6 DUP8 GAS CALL SWAP3 POP POP POP RETURNDATASIZE DUP1 PUSH1 0x0 DUP2 EQ PUSH2 0xA9B JUMPI PUSH1 0x40 MLOAD SWAP2 POP PUSH1 0x1F NOT PUSH1 0x3F RETURNDATASIZE ADD AND DUP3 ADD PUSH1 0x40 MSTORE RETURNDATASIZE DUP3 MSTORE RETURNDATASIZE PUSH1 0x0 PUSH1 0x20 DUP5 ADD RETURNDATACOPY PUSH2 0xAA0 JUMP JUMPDEST PUSH1 0x60 SWAP2 POP JUMPDEST POP POP SWAP1 POP DUP1 PUSH2 0xAE4 JUMPI PUSH1 0x40 MLOAD PUSH32 0x8C379A000000000000000000000000000000000000000000000000000000000 DUP2 MSTORE PUSH1 0x4 ADD PUSH2 0xADB SWAP1 PUSH2 0xE83 JUMP JUMPDEST PUSH1 0x40 MLOAD DUP1 SWAP2 SUB SWAP1 REVERT JUMPDEST PUSH1 0x0 DUP1 DUP5 PUSH20 0xFFFFFFFFFFFFFFFFFFFFFFFFFFFFFFFFFFFFFFFF AND PUSH20 0xFFFFFFFFFFFFFFFFFFFFFFFFFFFFFFFFFFFFFFFF AND DUP2 MSTORE PUSH1 0x20 ADD SWAP1 DUP2 MSTORE PUSH1 0x20 ADD PUSH1 0x0 KECCAK256 PUSH1 0x0 SWAP1 SSTORE PUSH1 0x0 JUMPDEST PUSH1 0x1 PUSH1 0x0 DUP6 PUSH20 0xFFFFFFFFFFFFFFFFFFFFFFFFFFFFFFFFFFFFFFFF AND PUSH20 0xFFFFFFFFFFFFFFFFFFFFFFFFFFFFFFFFFFFFFFFF AND DUP2 MSTORE PUSH1 0x20 ADD SWAP1 DUP2 MSTORE PUSH1 0x20 ADD PUSH1 0x0 KECCAK256 DUP1 SLOAD SWAP1 POP DUP2 LT ISZERO PUSH2 0xD1A JUMPI PUSH1 0x0 PUSH1 0x1 PUSH1 0x0 DUP7 PUSH20 0xFFFFFFFFFFFFFFFFFFFFFFFFFFFFFFFFFFFFFFFF AND PUSH20 0xFFFFFFFFFFFFFFFFFFFFFFFFFFFFFFFFFFFFFFFF AND DUP2 MSTORE PUSH1 0x20 ADD SWAP1 DUP2 MSTORE PUSH1 0x20 ADD PUSH1 0x0 KECCAK256 DUP3 DUP2 SLOAD DUP2 LT PUSH2 0xBC6 JUMPI PUSH2 0xBC5 PUSH2 0x1078 JUMP JUMPDEST JUMPDEST SWAP1 PUSH1 0x0 MSTORE PUSH1 0x20 PUSH1 0x0 KECCAK256 ADD PUSH1 0x0 SWAP1 SLOAD SWAP1 PUSH2 0x100 EXP SWAP1 DIV PUSH20 0xFFFFFFFFFFFFFFFFFFFFFFFFFFFFFFFFFFFFFFFF AND SWAP1 POP PUSH1 0x0 PUSH1 0x2 PUSH1 0x0 DUP8 PUSH20 0xFFFFFFFFFFFFFFFFFFFFFFFFFFFFFFFFFFFFFFFF AND PUSH20 0xFFFFFFFFFFFFFFFFFFFFFFFFFFFFFFFFFFFFFFFF AND DUP2 MSTORE PUSH1 0x20 ADD SWAP1 DUP2 MSTORE PUSH1 0x20 ADD PUSH1 0x0 KECCAK256 PUSH1 0x0 DUP4 PUSH20 0xFFFFFFFFFFFFFFFFFFFFFFFFFFFFFFFFFFFFFFFF AND PUSH20 0xFFFFFFFFFFFFFFFFFFFFFFFFFFFFFFFFFFFFFFFF AND DUP2 MSTORE PUSH1 0x20 ADD SWAP1 DUP2 MSTORE PUSH1 0x20 ADD PUSH1 0x0 KECCAK256 PUSH1 0x0 PUSH2 0x100 EXP DUP2 SLOAD DUP2 PUSH1 0xFF MUL NOT AND SWAP1 DUP4 ISZERO ISZERO MUL OR SWAP1 SSTORE POP PUSH1 0x1 PUSH1 0x0 DUP7 PUSH20 0xFFFFFFFFFFFFFFFFFFFFFFFFFFFFFFFFFFFFFFFF AND PUSH20 0xFFFFFFFFFFFFFFFFFFFFFFFFFFFFFFFFFFFFFFFF AND DUP2 MSTORE PUSH1 0x20 ADD SWAP1 DUP2 MSTORE PUSH1 0x20 ADD PUSH1 0x0 KECCAK256 DUP3 DUP2 SLOAD DUP2 LT PUSH2 0xCD9 JUMPI PUSH2 0xCD8 PUSH2 0x1078 JUMP JUMPDEST JUMPDEST SWAP1 PUSH1 0x0 MSTORE PUSH1 0x20 PUSH1 0x0 KECCAK256 ADD PUSH1 0x0 PUSH2 0x100 EXP DUP2 SLOAD SWAP1 PUSH20 0xFFFFFFFFFFFFFFFFFFFFFFFFFFFFFFFFFFFFFFFF MUL NOT AND SWAP1 SSTORE POP DUP1 DUP1 PUSH2 0xD12 SWAP1 PUSH2 0x1000 JUMP JUMPDEST SWAP2 POP POP PUSH2 0xB29 JUMP JUMPDEST POP CALLER PUSH20 0xFFFFFFFFFFFFFFFFFFFFFFFFFFFFFFFFFFFFFFFF AND PUSH32 0xA74FAB966BFC29D4EA7866D609AC5D94324A5FE817362D6A9FEE5D2F8DF46759 DUP4 PUSH1 0x40 MLOAD PUSH2 0xD61 SWAP2 SWAP1 PUSH2 0xF03 JUMP JUMPDEST PUSH1 0x40 MLOAD DUP1 SWAP2 SUB SWAP1 LOG2 POP POP POP JUMP JUMPDEST PUSH1 0x0 DUP2 CALLDATALOAD SWAP1 POP PUSH2 0xD7D DUP2 PUSH2 0x11C5 JUMP JUMPDEST SWAP3 SWAP2 POP POP JUMP JUMPDEST PUSH1 0x0 PUSH1 0x20 DUP3 DUP5 SUB SLT ISZERO PUSH2 0xD99 JUMPI PUSH2 0xD98 PUSH2 0x10A7 JUMP JUMPDEST JUMPDEST PUSH1 0x0 PUSH2 0xDA7 DUP5 DUP3 DUP6 ADD PUSH2 0xD6E JUMP JUMPDEST SWAP2 POP POP SWAP3 SWAP2 POP POP JUMP JUMPDEST PUSH1 0x0 PUSH2 0xDBD PUSH1 0x14 DUP4 PUSH2 0xF29 JUMP JUMPDEST SWAP2 POP PUSH2 0xDC8 DUP3 PUSH2 0x10AC JUMP JUMPDEST PUSH1 0x20 DUP3 ADD SWAP1 POP SWAP2 SWAP1 POP JUMP JUMPDEST PUSH1 0x0 PUSH2 0xDE0 PUSH1 0x21 DUP4 PUSH2 0xF29 JUMP JUMPDEST SWAP2 POP PUSH2 0xDEB DUP3 PUSH2 0x10D5 JUMP JUMPDEST PUSH1 0x40 DUP3 ADD SWAP1 POP SWAP2 SWAP1 POP JUMP JUMPDEST PUSH1 0x0 PUSH2 0xE03 PUSH1 0x45 DUP4 PUSH2 0xF29 JUMP JUMPDEST SWAP2 POP PUSH2 0xE0E DUP3 PUSH2 0x1124 JUMP JUMPDEST PUSH1 0x60 DUP3 ADD SWAP1 POP SWAP2 SWAP1 POP JUMP JUMPDEST PUSH1 0x0 PUSH2 0xE26 PUSH1 0x0 DUP4 PUSH2 0xF1E JUMP JUMPDEST SWAP2 POP PUSH2 0xE31 DUP3 PUSH2 0x1199 JUMP JUMPDEST PUSH1 0x0 DUP3 ADD SWAP1 POP SWAP2 SWAP1 POP JUMP JUMPDEST PUSH1 0x0 PUSH2 0xE49 PUSH1 0x13 DUP4 PUSH2 0xF29 JUMP JUMPDEST SWAP2 POP PUSH2 0xE54 DUP3 PUSH2 0x119C JUMP JUMPDEST PUSH1 0x20 DUP3 ADD SWAP1 POP SWAP2 SWAP1 POP JUMP JUMPDEST PUSH2 0xE68 DUP2 PUSH2 0xFF6 JUMP JUMPDEST DUP3 MSTORE POP POP JUMP JUMPDEST PUSH1 0x0 PUSH2 0xE79 DUP3 PUSH2 0xE19 JUMP JUMPDEST SWAP2 POP DUP2 SWAP1 POP SWAP2 SWAP1 POP JUMP JUMPDEST PUSH1 0x0 PUSH1 0x20 DUP3 ADD SWAP1 POP DUP2 DUP2 SUB PUSH1 0x0 DUP4 ADD MSTORE PUSH2 0xE9C DUP2 PUSH2 0xDB0 JUMP JUMPDEST SWAP1 POP SWAP2 SWAP1 POP JUMP JUMPDEST PUSH1 0x0 PUSH1 0x20 DUP3 ADD SWAP1 POP DUP2 DUP2 SUB PUSH1 0x0 DUP4 ADD MSTORE PUSH2 0xEBC DUP2 PUSH2 0xDD3 JUMP JUMPDEST SWAP1 POP SWAP2 SWAP1 POP JUMP JUMPDEST PUSH1 0x0 PUSH1 0x20 DUP3 ADD SWAP1 POP DUP2 DUP2 SUB PUSH1 0x0 DUP4 ADD MSTORE PUSH2 0xEDC DUP2 PUSH2 0xDF6 JUMP JUMPDEST SWAP1 POP SWAP2 SWAP1 POP JUMP JUMPDEST PUSH1 0x0 PUSH1 0x20 DUP3 ADD SWAP1 POP DUP2 DUP2 SUB PUSH1 0x0 DUP4 ADD MSTORE PUSH2 0xEFC DUP2 PUSH2 0xE3C JUMP JUMPDEST SWAP1 POP SWAP2 SWAP1 POP JUMP JUMPDEST PUSH1 0x0 PUSH1 0x20 DUP3 ADD SWAP1 POP PUSH2 0xF18 PUSH1 0x0 DUP4 ADD DUP5 PUSH2 0xE5F JUMP JUMPDEST SWAP3 SWAP2 POP POP JUMP JUMPDEST PUSH1 0x0 DUP2 SWAP1 POP SWAP3 SWAP2 POP POP JUMP JUMPDEST PUSH1 0x0 DUP3 DUP3 MSTORE PUSH1 0x20 DUP3 ADD SWAP1 POP SWAP3 SWAP2 POP POP JUMP JUMPDEST PUSH1 0x0 PUSH2 0xF45 DUP3 PUSH2 0xFF6 JUMP JUMPDEST SWAP2 POP PUSH2 0xF50 DUP4 PUSH2 0xFF6 JUMP JUMPDEST SWAP3 POP DUP3 PUSH32 0xFFFFFFFFFFFFFFFFFFFFFFFFFFFFFFFFFFFFFFFFFFFFFFFFFFFFFFFFFFFFFFFF SUB DUP3 GT ISZERO PUSH2 0xF85 JUMPI PUSH2 0xF84 PUSH2 0x1049 JUMP JUMPDEST JUMPDEST DUP3 DUP3 ADD SWAP1 POP SWAP3 SWAP2 POP POP JUMP JUMPDEST PUSH1 0x0 PUSH2 0xF9B DUP3 PUSH2 0xFF6 JUMP JUMPDEST SWAP2 POP PUSH2 0xFA6 DUP4 PUSH2 0xFF6 JUMP JUMPDEST SWAP3 POP DUP3 DUP3 LT ISZERO PUSH2 0xFB9 JUMPI PUSH2 0xFB8 PUSH2 0x1049 JUMP JUMPDEST JUMPDEST DUP3 DUP3 SUB SWAP1 POP SWAP3 SWAP2 POP POP JUMP JUMPDEST PUSH1 0x0 PUSH2 0xFCF DUP3 PUSH2 0xFD6 JUMP JUMPDEST SWAP1 POP SWAP2 SWAP1 POP JUMP JUMPDEST PUSH1 0x0 PUSH20 0xFFFFFFFFFFFFFFFFFFFFFFFFFFFFFFFFFFFFFFFF DUP3 AND SWAP1 POP SWAP2 SWAP1 POP JUMP JUMPDEST PUSH1 0x0 DUP2 SWAP1 POP SWAP2 SWAP1 POP JUMP JUMPDEST PUSH1 0x0 PUSH2 0x100B DUP3 PUSH2 0xFF6 JUMP JUMPDEST SWAP2 POP PUSH32 0xFFFFFFFFFFFFFFFFFFFFFFFFFFFFFFFFFFFFFFFFFFFFFFFFFFFFFFFFFFFFFFFF DUP3 EQ ISZERO PUSH2 0x103E JUMPI PUSH2 0x103D PUSH2 0x1049 JUMP JUMPDEST JUMPDEST PUSH1 0x1 DUP3 ADD SWAP1 POP SWAP2 SWAP1 POP JUMP JUMPDEST PUSH32 0x4E487B7100000000000000000000000000000000000000000000000000000000 PUSH1 0x0 MSTORE PUSH1 0x11 PUSH1 0x4 MSTORE PUSH1 0x24 PUSH1 0x0 REVERT JUMPDEST PUSH32 0x4E487B7100000000000000000000000000000000000000000000000000000000 PUSH1 0x0 MSTORE PUSH1 0x32 PUSH1 0x4 MSTORE PUSH1 0x24 PUSH1 0x0 REVERT JUMPDEST PUSH1 0x0 DUP1 REVERT JUMPDEST PUSH32 0x4661696C656420746F2073656E64204574686572000000000000000000000000 PUSH1 0x0 DUP3 ADD MSTORE POP JUMP JUMPDEST PUSH32 0x596F7520646F6E27742068617665206574686572732073656E7420746F20796F PUSH1 0x0 DUP3 ADD MSTORE PUSH32 0x7500000000000000000000000000000000000000000000000000000000000000 PUSH1 0x20 DUP3 ADD MSTORE POP JUMP JUMPDEST PUSH32 0x526F6C6C6261636B206973206E6F7420617661696C61626C6520666F7220796F PUSH1 0x0 DUP3 ADD MSTORE PUSH32 0x752E20457468657273206D6967687420626520616C7265616479207769746864 PUSH1 0x20 DUP3 ADD MSTORE PUSH32 0x7261776564000000000000000000000000000000000000000000000000000000 PUSH1 0x40 DUP3 ADD MSTORE POP JUMP JUMPDEST POP JUMP JUMPDEST PUSH32 0x526F6C6C6261636B2076616C7565206973203000000000000000000000000000 PUSH1 0x0 DUP3 ADD MSTORE POP JUMP JUMPDEST PUSH2 0x11CE DUP2 PUSH2 0xFC4 JUMP JUMPDEST DUP2 EQ PUSH2 0x11D9 JUMPI PUSH1 0x0 DUP1 REVERT JUMPDEST POP JUMP INVALID LOG2 PUSH5 0x6970667358 0x22 SLT KECCAK256 0x22 JUMPDEST PUSH7 0xB3935FA6CCD081 RETURNDATASIZE 0xAA EXTCODECOPY 0xA7 0xD0 0x2B 0xE4 DUP6 0xEF LOG1 0xCD EXTCODECOPY 0xB1 0xD5 KECCAK256 0xF8 SWAP5 0xC8 PUSH8 0x53049E64736F6C63 NUMBER STOP ADDMOD SMOD STOP CALLER "
				},
				"gasEstimates": {
					"creation": {
						"codeDepositCost": "925200",
						"executionCost": "962",
						"totalCost": "926162"
					},
					"external": {
						"": "151",
						"getBalance()": "317",
						"rollbackEther(address)": "infinite",
						"sendEther(address)": "infinite",
						"withdrawEther()": "infinite"
					}
				},
				"methodIdentifiers": {
					"getBalance()": "12065fe0",
					"rollbackEther(address)": "36843861",
					"sendEther(address)": "48c981e2",
					"withdrawEther()": "7362377b"
				}
			},
			"storageLayout": {
				"storage": [
					{
						"astId": 5,
						"contract": "contracts/Escrow.sol:Escrow",
						"label": "receiverAddress",
						"offset": 0,
						"slot": "0",
						"type": "t_mapping(t_address,t_uint256)"
					},
					{
						"astId": 10,
						"contract": "contracts/Escrow.sol:Escrow",
						"label": "rollbackAddresses",
						"offset": 0,
						"slot": "1",
						"type": "t_mapping(t_address,t_array(t_address)dyn_storage)"
					},
					{
						"astId": 16,
						"contract": "contracts/Escrow.sol:Escrow",
						"label": "rollbackPossible",
						"offset": 0,
						"slot": "2",
						"type": "t_mapping(t_address,t_mapping(t_address,t_bool))"
					},
					{
						"astId": 22,
						"contract": "contracts/Escrow.sol:Escrow",
						"label": "rollbackValue",
						"offset": 0,
						"slot": "3",
						"type": "t_mapping(t_address,t_mapping(t_address,t_uint256))"
					}
				],
				"types": {
					"t_address": {
						"encoding": "inplace",
						"label": "address",
						"numberOfBytes": "20"
					},
					"t_array(t_address)dyn_storage": {
						"base": "t_address",
						"encoding": "dynamic_array",
						"label": "address[]",
						"numberOfBytes": "32"
					},
					"t_bool": {
						"encoding": "inplace",
						"label": "bool",
						"numberOfBytes": "1"
					},
					"t_mapping(t_address,t_array(t_address)dyn_storage)": {
						"encoding": "mapping",
						"key": "t_address",
						"label": "mapping(address => address[])",
						"numberOfBytes": "32",
						"value": "t_array(t_address)dyn_storage"
					},
					"t_mapping(t_address,t_bool)": {
						"encoding": "mapping",
						"key": "t_address",
						"label": "mapping(address => bool)",
						"numberOfBytes": "32",
						"value": "t_bool"
					},
					"t_mapping(t_address,t_mapping(t_address,t_bool))": {
						"encoding": "mapping",
						"key": "t_address",
						"label": "mapping(address => mapping(address => bool))",
						"numberOfBytes": "32",
						"value": "t_mapping(t_address,t_bool)"
					},
					"t_mapping(t_address,t_mapping(t_address,t_uint256))": {
						"encoding": "mapping",
						"key": "t_address",
						"label": "mapping(address => mapping(address => uint256))",
						"numberOfBytes": "32",
						"value": "t_mapping(t_address,t_uint256)"
					},
					"t_mapping(t_address,t_uint256)": {
						"encoding": "mapping",
						"key": "t_address",
						"label": "mapping(address => uint256)",
						"numberOfBytes": "32",
						"value": "t_uint256"
					},
					"t_uint256": {
						"encoding": "inplace",
						"label": "uint256",
						"numberOfBytes": "32"
					}
				}
			},
			"userdoc": {
				"kind": "user",
				"methods": {},
				"version": 1
			}
		}
	}
}