{
	"contracts/GLDEsrow.sol": {
		"GLDEscrow": {
			"abi": [
				{
					"inputs": [
						{
							"internalType": "contract GLDToken",
							"name": "_token",
							"type": "address"
						}
					],
					"stateMutability": "nonpayable",
					"type": "constructor"
				},
				{
					"anonymous": false,
					"inputs": [
						{
							"indexed": false,
							"internalType": "string",
							"name": "",
							"type": "string"
						}
					],
					"name": "Error",
					"type": "event"
				},
				{
					"anonymous": false,
					"inputs": [
						{
							"indexed": true,
							"internalType": "address",
							"name": "sender",
							"type": "address"
						},
						{
							"indexed": true,
							"internalType": "address",
							"name": "to",
							"type": "address"
						},
						{
							"indexed": false,
							"internalType": "uint256",
							"name": "value",
							"type": "uint256"
						}
					],
					"name": "LogGLDRolledBack",
					"type": "event"
				},
				{
					"anonymous": false,
					"inputs": [
						{
							"indexed": true,
							"internalType": "address",
							"name": "sender",
							"type": "address"
						},
						{
							"indexed": true,
							"internalType": "address",
							"name": "to",
							"type": "address"
						},
						{
							"indexed": false,
							"internalType": "uint256",
							"name": "value",
							"type": "uint256"
						}
					],
					"name": "LogGLDSend",
					"type": "event"
				},
				{
					"anonymous": false,
					"inputs": [
						{
							"indexed": true,
							"internalType": "address",
							"name": "to",
							"type": "address"
						},
						{
							"indexed": false,
							"internalType": "uint256",
							"name": "value",
							"type": "uint256"
						}
					],
					"name": "LogGLDWithDraw",
					"type": "event"
				},
				{
					"anonymous": false,
					"inputs": [
						{
							"indexed": true,
							"internalType": "address",
							"name": "sender",
							"type": "address"
						},
						{
							"indexed": true,
							"internalType": "address",
							"name": "to",
							"type": "address"
						},
						{
							"indexed": false,
							"internalType": "uint256",
							"name": "value",
							"type": "uint256"
						}
					],
					"name": "LogRolledBack",
					"type": "event"
				},
				{
					"anonymous": false,
					"inputs": [
						{
							"indexed": true,
							"internalType": "address",
							"name": "sender",
							"type": "address"
						},
						{
							"indexed": true,
							"internalType": "address",
							"name": "to",
							"type": "address"
						},
						{
							"indexed": false,
							"internalType": "uint256",
							"name": "value",
							"type": "uint256"
						}
					],
					"name": "LogSend",
					"type": "event"
				},
				{
					"anonymous": false,
					"inputs": [
						{
							"indexed": true,
							"internalType": "address",
							"name": "to",
							"type": "address"
						},
						{
							"indexed": false,
							"internalType": "uint256",
							"name": "value",
							"type": "uint256"
						}
					],
					"name": "LogWithDraw",
					"type": "event"
				},
				{
					"stateMutability": "payable",
					"type": "fallback"
				},
				{
					"inputs": [],
					"name": "getEtherBalance",
					"outputs": [
						{
							"internalType": "uint256",
							"name": "",
							"type": "uint256"
						}
					],
					"stateMutability": "view",
					"type": "function"
				},
				{
					"inputs": [
						{
							"internalType": "address payable",
							"name": "to",
							"type": "address"
						}
					],
					"name": "rollbackEther",
					"outputs": [],
					"stateMutability": "payable",
					"type": "function"
				},
				{
					"inputs": [
						{
							"internalType": "address payable",
							"name": "to",
							"type": "address"
						}
					],
					"name": "rollbackGLD",
					"outputs": [],
					"stateMutability": "nonpayable",
					"type": "function"
				},
				{
					"inputs": [
						{
							"internalType": "address payable",
							"name": "to",
							"type": "address"
						}
					],
					"name": "sendEther",
					"outputs": [],
					"stateMutability": "payable",
					"type": "function"
				},
				{
					"inputs": [
						{
							"internalType": "address payable",
							"name": "to",
							"type": "address"
						},
						{
							"internalType": "uint256",
							"name": "amount",
							"type": "uint256"
						}
					],
					"name": "sendGLD",
					"outputs": [],
					"stateMutability": "nonpayable",
					"type": "function"
				},
				{
					"inputs": [],
					"name": "withdrawEther",
					"outputs": [],
					"stateMutability": "payable",
					"type": "function"
				},
				{
					"inputs": [],
					"name": "withdrawGLD",
					"outputs": [],
					"stateMutability": "nonpayable",
					"type": "function"
				},
				{
					"stateMutability": "payable",
					"type": "receive"
				}
			],
			"devdoc": {
				"kind": "dev",
				"methods": {},
				"version": 1
			},
			"evm": {
				"assembly": "    /* \"contracts/GLDEsrow.sol\":125:2196  contract GLDEscrow is Escrow {\r... */\n  mstore(0x40, 0x80)\n    /* \"contracts/GLDEsrow.sol\":740:802  constructor(GLDToken _token) {\r... */\n  callvalue\n  dup1\n  iszero\n  tag_1\n  jumpi\n  0x00\n  dup1\n  revert\ntag_1:\n  pop\n  mload(0x40)\n  sub(codesize, bytecodeSize)\n  dup1\n  bytecodeSize\n  dup4\n  codecopy\n  dup2\n  dup2\n  add\n  0x40\n  mstore\n  dup2\n  add\n  swap1\n  tag_2\n  swap2\n  swap1\n  tag_3\n  jump\t// in\ntag_2:\n    /* \"contracts/GLDEsrow.sol\":788:794  _token */\n  dup1\n    /* \"contracts/GLDEsrow.sol\":780:785  token */\n  0x04\n  0x00\n    /* \"contracts/GLDEsrow.sol\":780:794  token = _token */\n  0x0100\n  exp\n  dup2\n  sload\n  dup2\n  0xffffffffffffffffffffffffffffffffffffffff\n  mul\n  not\n  and\n  swap1\n  dup4\n  0xffffffffffffffffffffffffffffffffffffffff\n  and\n  mul\n  or\n  swap1\n  sstore\n  pop\n    /* \"contracts/GLDEsrow.sol\":740:802  constructor(GLDToken _token) {\r... */\n  pop\n    /* \"contracts/GLDEsrow.sol\":125:2196  contract GLDEscrow is Escrow {\r... */\n  jump(tag_6)\n    /* \"#utility.yul\":7:184   */\ntag_8:\n    /* \"#utility.yul\":81:86   */\n  0x00\n    /* \"#utility.yul\":112:118   */\n  dup2\n    /* \"#utility.yul\":106:119   */\n  mload\n    /* \"#utility.yul\":97:119   */\n  swap1\n  pop\n    /* \"#utility.yul\":128:178   */\n  tag_10\n    /* \"#utility.yul\":172:177   */\n  dup2\n    /* \"#utility.yul\":128:178   */\n  tag_11\n  jump\t// in\ntag_10:\n    /* \"#utility.yul\":7:184   */\n  swap3\n  swap2\n  pop\n  pop\n  jump\t// out\n    /* \"#utility.yul\":190:575   */\ntag_3:\n    /* \"#utility.yul\":277:283   */\n  0x00\n    /* \"#utility.yul\":326:328   */\n  0x20\n    /* \"#utility.yul\":314:323   */\n  dup3\n    /* \"#utility.yul\":305:312   */\n  dup5\n    /* \"#utility.yul\":301:324   */\n  sub\n    /* \"#utility.yul\":297:329   */\n  slt\n    /* \"#utility.yul\":294:413   */\n  iszero\n  tag_13\n  jumpi\n    /* \"#utility.yul\":332:411   */\n  tag_14\n  tag_15\n  jump\t// in\ntag_14:\n    /* \"#utility.yul\":294:413   */\ntag_13:\n    /* \"#utility.yul\":452:453   */\n  0x00\n    /* \"#utility.yul\":477:558   */\n  tag_16\n    /* \"#utility.yul\":550:557   */\n  dup5\n    /* \"#utility.yul\":541:547   */\n  dup3\n    /* \"#utility.yul\":530:539   */\n  dup6\n    /* \"#utility.yul\":526:548   */\n  add\n    /* \"#utility.yul\":477:558   */\n  tag_8\n  jump\t// in\ntag_16:\n    /* \"#utility.yul\":467:558   */\n  swap2\n  pop\n    /* \"#utility.yul\":423:568   */\n  pop\n    /* \"#utility.yul\":190:575   */\n  swap3\n  swap2\n  pop\n  pop\n  jump\t// out\n    /* \"#utility.yul\":662:758   */\ntag_19:\n    /* \"#utility.yul\":699:706   */\n  0x00\n    /* \"#utility.yul\":728:752   */\n  tag_21\n    /* \"#utility.yul\":746:751   */\n  dup3\n    /* \"#utility.yul\":728:752   */\n  tag_22\n  jump\t// in\ntag_21:\n    /* \"#utility.yul\":717:752   */\n  swap1\n  pop\n    /* \"#utility.yul\":662:758   */\n  swap2\n  swap1\n  pop\n  jump\t// out\n    /* \"#utility.yul\":764:877   */\ntag_23:\n    /* \"#utility.yul\":818:825   */\n  0x00\n    /* \"#utility.yul\":847:871   */\n  tag_25\n    /* \"#utility.yul\":865:870   */\n  dup3\n    /* \"#utility.yul\":847:871   */\n  tag_19\n  jump\t// in\ntag_25:\n    /* \"#utility.yul\":836:871   */\n  swap1\n  pop\n    /* \"#utility.yul\":764:877   */\n  swap2\n  swap1\n  pop\n  jump\t// out\n    /* \"#utility.yul\":883:1009   */\ntag_22:\n    /* \"#utility.yul\":920:927   */\n  0x00\n    /* \"#utility.yul\":960:1002   */\n  0xffffffffffffffffffffffffffffffffffffffff\n    /* \"#utility.yul\":953:958   */\n  dup3\n    /* \"#utility.yul\":949:1003   */\n  and\n    /* \"#utility.yul\":938:1003   */\n  swap1\n  pop\n    /* \"#utility.yul\":883:1009   */\n  swap2\n  swap1\n  pop\n  jump\t// out\n    /* \"#utility.yul\":1138:1255   */\ntag_15:\n    /* \"#utility.yul\":1247:1248   */\n  0x00\n    /* \"#utility.yul\":1244:1245   */\n  dup1\n    /* \"#utility.yul\":1237:1249   */\n  revert\n    /* \"#utility.yul\":1261:1417   */\ntag_11:\n    /* \"#utility.yul\":1351:1392   */\n  tag_31\n    /* \"#utility.yul\":1386:1391   */\n  dup2\n    /* \"#utility.yul\":1351:1392   */\n  tag_23\n  jump\t// in\ntag_31:\n    /* \"#utility.yul\":1344:1349   */\n  dup2\n    /* \"#utility.yul\":1341:1393   */\n  eq\n    /* \"#utility.yul\":1331:1411   */\n  tag_32\n  jumpi\n    /* \"#utility.yul\":1407:1408   */\n  0x00\n    /* \"#utility.yul\":1404:1405   */\n  dup1\n    /* \"#utility.yul\":1397:1409   */\n  revert\n    /* \"#utility.yul\":1331:1411   */\ntag_32:\n    /* \"#utility.yul\":1261:1417   */\n  pop\n  jump\t// out\n    /* \"contracts/GLDEsrow.sol\":125:2196  contract GLDEscrow is Escrow {\r... */\ntag_6:\n  dataSize(sub_0)\n  dup1\n  dataOffset(sub_0)\n  0x00\n  codecopy\n  0x00\n  return\nstop\n\nsub_0: assembly {\n        /* \"contracts/GLDEsrow.sol\":125:2196  contract GLDEscrow is Escrow {\r... */\n      mstore(0x40, 0x80)\n      jumpi(tag_1, lt(calldatasize, 0x04))\n      shr(0xe0, calldataload(0x00))\n      dup1\n      0x7362377b\n      gt\n      tag_10\n      jumpi\n      dup1\n      0x7362377b\n      eq\n      tag_6\n      jumpi\n      dup1\n      0xd2472cb6\n      eq\n      tag_7\n      jumpi\n      dup1\n      0xe0f4ba14\n      eq\n      tag_8\n      jumpi\n      dup1\n      0xea46193e\n      eq\n      tag_9\n      jumpi\n      jump(tag_2)\n    tag_10:\n      dup1\n      0x0d335f3d\n      eq\n      tag_3\n      jumpi\n      dup1\n      0x36843861\n      eq\n      tag_4\n      jumpi\n      dup1\n      0x48c981e2\n      eq\n      tag_5\n      jumpi\n      jump(tag_2)\n    tag_1:\n      jumpi(tag_2, calldatasize)\n      stop\n    tag_2:\n        /* \"contracts/Escrow.sol\":452:492  Error(\"call of a non-existent function\") */\n      0x08c379a0afcc32b1a39302f7cb8073359698411ab5fd6e3edb2c02c0b5fba8aa\n      mload(0x40)\n      tag_15\n      swap1\n      tag_16\n      jump\t// in\n    tag_15:\n      mload(0x40)\n      dup1\n      swap2\n      sub\n      swap1\n      log1\n        /* \"contracts/GLDEsrow.sol\":125:2196  contract GLDEscrow is Escrow {\r... */\n      stop\n        /* \"contracts/GLDEsrow.sol\":810:1485  function sendGLD(address payable to, uint256 amount) public {\r... */\n    tag_3:\n      callvalue\n      dup1\n      iszero\n      tag_17\n      jumpi\n      0x00\n      dup1\n      revert\n    tag_17:\n      pop\n      tag_18\n      0x04\n      dup1\n      calldatasize\n      sub\n      dup2\n      add\n      swap1\n      tag_19\n      swap2\n      swap1\n      tag_20\n      jump\t// in\n    tag_19:\n      tag_21\n      jump\t// in\n    tag_18:\n      stop\n        /* \"contracts/Escrow.sol\":1716:2502  function rollbackEther(address payable to) external payable {\r... */\n    tag_4:\n      tag_22\n      0x04\n      dup1\n      calldatasize\n      sub\n      dup2\n      add\n      swap1\n      tag_23\n      swap2\n      swap1\n      tag_24\n      jump\t// in\n    tag_23:\n      tag_25\n      jump\t// in\n    tag_22:\n      stop\n        /* \"contracts/Escrow.sol\":747:1129  function sendEther(address payable to) external payable {\r... */\n    tag_5:\n      tag_26\n      0x04\n      dup1\n      calldatasize\n      sub\n      dup2\n      add\n      swap1\n      tag_27\n      swap2\n      swap1\n      tag_24\n      jump\t// in\n    tag_27:\n      tag_28\n      jump\t// in\n    tag_26:\n      stop\n        /* \"contracts/Escrow.sol\":1135:1710  function withdrawEther() external payable {\r... */\n    tag_6:\n      tag_29\n      tag_30\n      jump\t// in\n    tag_29:\n      stop\n        /* \"contracts/GLDEsrow.sol\":1493:2127  function withdrawGLD() public {\r... */\n    tag_7:\n      callvalue\n      dup1\n      iszero\n      tag_31\n      jumpi\n      0x00\n      dup1\n      revert\n    tag_31:\n      pop\n      tag_32\n      tag_33\n      jump\t// in\n    tag_32:\n      stop\n        /* \"contracts/GLDEsrow.sol\":2135:2193  function rollbackGLD(address payable to) public {\r... */\n    tag_8:\n      callvalue\n      dup1\n      iszero\n      tag_34\n      jumpi\n      0x00\n      dup1\n      revert\n    tag_34:\n      pop\n      tag_35\n      0x04\n      dup1\n      calldatasize\n      sub\n      dup2\n      add\n      swap1\n      tag_36\n      swap2\n      swap1\n      tag_24\n      jump\t// in\n    tag_36:\n      tag_37\n      jump\t// in\n    tag_35:\n      stop\n        /* \"contracts/Escrow.sol\":2508:2606  function getEtherBalance() public view returns (uint256) {\r... */\n    tag_9:\n      callvalue\n      dup1\n      iszero\n      tag_38\n      jumpi\n      0x00\n      dup1\n      revert\n    tag_38:\n      pop\n      tag_39\n      tag_40\n      jump\t// in\n    tag_39:\n      mload(0x40)\n      tag_41\n      swap2\n      swap1\n      tag_42\n      jump\t// in\n    tag_41:\n      mload(0x40)\n      dup1\n      swap2\n      sub\n      swap1\n      return\n        /* \"contracts/GLDEsrow.sol\":810:1485  function sendGLD(address payable to, uint256 amount) public {\r... */\n    tag_21:\n        /* \"contracts/GLDEsrow.sol\":881:893  address from */\n      0x00\n        /* \"contracts/GLDEsrow.sol\":896:906  msg.sender */\n      caller\n        /* \"contracts/GLDEsrow.sol\":881:906  address from = msg.sender */\n      swap1\n      pop\n        /* \"contracts/GLDEsrow.sol\":917:930  uint256 value */\n      0x00\n        /* \"contracts/GLDEsrow.sol\":933:939  amount */\n      dup3\n        /* \"contracts/GLDEsrow.sol\":917:939  uint256 value = amount */\n      swap1\n      pop\n        /* \"contracts/GLDEsrow.sol\":967:972  token */\n      0x04\n      0x00\n      swap1\n      sload\n      swap1\n      0x0100\n      exp\n      swap1\n      div\n      0xffffffffffffffffffffffffffffffffffffffff\n      and\n        /* \"contracts/GLDEsrow.sol\":967:982  token.balanceOf */\n      0xffffffffffffffffffffffffffffffffffffffff\n      and\n      0x70a08231\n        /* \"contracts/GLDEsrow.sol\":983:993  msg.sender */\n      caller\n        /* \"contracts/GLDEsrow.sol\":967:994  token.balanceOf(msg.sender) */\n      mload(0x40)\n      dup3\n      0xffffffff\n      and\n      0xe0\n      shl\n      dup2\n      mstore\n      0x04\n      add\n      tag_44\n      swap2\n      swap1\n      tag_45\n      jump\t// in\n    tag_44:\n      0x20\n      mload(0x40)\n      dup1\n      dup4\n      sub\n      dup2\n      dup7\n      dup1\n      extcodesize\n      iszero\n      dup1\n      iszero\n      tag_46\n      jumpi\n      0x00\n      dup1\n      revert\n    tag_46:\n      pop\n      gas\n      staticcall\n      iszero\n      dup1\n      iszero\n      tag_48\n      jumpi\n      returndatasize\n      0x00\n      dup1\n      returndatacopy\n      revert(0x00, returndatasize)\n    tag_48:\n      pop\n      pop\n      pop\n      pop\n      mload(0x40)\n      returndatasize\n      not(0x1f)\n      0x1f\n      dup3\n      add\n      and\n      dup3\n      add\n      dup1\n      0x40\n      mstore\n      pop\n      dup2\n      add\n      swap1\n      tag_49\n      swap2\n      swap1\n      tag_50\n      jump\t// in\n    tag_49:\n        /* \"contracts/GLDEsrow.sol\":958:963  value */\n      dup2\n        /* \"contracts/GLDEsrow.sol\":958:994  value <= token.balanceOf(msg.sender) */\n      gt\n      iszero\n        /* \"contracts/GLDEsrow.sol\":950:1024  require(value <= token.balanceOf(msg.sender), \"You don't have enough GLD\") */\n      tag_51\n      jumpi\n      mload(0x40)\n      0x08c379a000000000000000000000000000000000000000000000000000000000\n      dup2\n      mstore\n      0x04\n      add\n      tag_52\n      swap1\n      tag_53\n      jump\t// in\n    tag_52:\n      mload(0x40)\n      dup1\n      swap2\n      sub\n      swap1\n      revert\n    tag_51:\n        /* \"contracts/GLDEsrow.sol\":1083:1088  value */\n      dup1\n        /* \"contracts/GLDEsrow.sol\":1043:1048  token */\n      0x04\n      0x00\n      swap1\n      sload\n      swap1\n      0x0100\n      exp\n      swap1\n      div\n      0xffffffffffffffffffffffffffffffffffffffff\n      and\n        /* \"contracts/GLDEsrow.sol\":1043:1058  token.allowance */\n      0xffffffffffffffffffffffffffffffffffffffff\n      and\n      0xdd62ed3e\n        /* \"contracts/GLDEsrow.sol\":1059:1063  from */\n      dup5\n        /* \"contracts/GLDEsrow.sol\":1073:1077  this */\n      address\n        /* \"contracts/GLDEsrow.sol\":1043:1079  token.allowance(from, address(this)) */\n      mload(0x40)\n      dup4\n      0xffffffff\n      and\n      0xe0\n      shl\n      dup2\n      mstore\n      0x04\n      add\n      tag_54\n      swap3\n      swap2\n      swap1\n      tag_55\n      jump\t// in\n    tag_54:\n      0x20\n      mload(0x40)\n      dup1\n      dup4\n      sub\n      dup2\n      dup7\n      dup1\n      extcodesize\n      iszero\n      dup1\n      iszero\n      tag_56\n      jumpi\n      0x00\n      dup1\n      revert\n    tag_56:\n      pop\n      gas\n      staticcall\n      iszero\n      dup1\n      iszero\n      tag_58\n      jumpi\n      returndatasize\n      0x00\n      dup1\n      returndatacopy\n      revert(0x00, returndatasize)\n    tag_58:\n      pop\n      pop\n      pop\n      pop\n      mload(0x40)\n      returndatasize\n      not(0x1f)\n      0x1f\n      dup3\n      add\n      and\n      dup3\n      add\n      dup1\n      0x40\n      mstore\n      pop\n      dup2\n      add\n      swap1\n      tag_59\n      swap2\n      swap1\n      tag_50\n      jump\t// in\n    tag_59:\n        /* \"contracts/GLDEsrow.sol\":1043:1088  token.allowance(from, address(this)) >= value */\n      lt\n      iszero\n        /* \"contracts/GLDEsrow.sol\":1035:1118  require(token.allowance(from, address(this)) >= value, \"Check the token allowance\") */\n      tag_60\n      jumpi\n      mload(0x40)\n      0x08c379a000000000000000000000000000000000000000000000000000000000\n      dup2\n      mstore\n      0x04\n      add\n      tag_61\n      swap1\n      tag_62\n      jump\t// in\n    tag_61:\n      mload(0x40)\n      dup1\n      swap2\n      sub\n      swap1\n      revert\n    tag_60:\n        /* \"contracts/GLDEsrow.sol\":1129:1134  token */\n      0x04\n      0x00\n      swap1\n      sload\n      swap1\n      0x0100\n      exp\n      swap1\n      div\n      0xffffffffffffffffffffffffffffffffffffffff\n      and\n        /* \"contracts/GLDEsrow.sol\":1129:1147  token.transferFrom */\n      0xffffffffffffffffffffffffffffffffffffffff\n      and\n      0x23b872dd\n        /* \"contracts/GLDEsrow.sol\":1148:1152  from */\n      dup4\n        /* \"contracts/GLDEsrow.sol\":1162:1166  this */\n      address\n        /* \"contracts/GLDEsrow.sol\":1169:1175  amount */\n      dup7\n        /* \"contracts/GLDEsrow.sol\":1129:1176  token.transferFrom(from, address(this), amount) */\n      mload(0x40)\n      dup5\n      0xffffffff\n      and\n      0xe0\n      shl\n      dup2\n      mstore\n      0x04\n      add\n      tag_63\n      swap4\n      swap3\n      swap2\n      swap1\n      tag_64\n      jump\t// in\n    tag_63:\n      0x20\n      mload(0x40)\n      dup1\n      dup4\n      sub\n      dup2\n      0x00\n      dup8\n      dup1\n      extcodesize\n      iszero\n      dup1\n      iszero\n      tag_65\n      jumpi\n      0x00\n      dup1\n      revert\n    tag_65:\n      pop\n      gas\n      call\n      iszero\n      dup1\n      iszero\n      tag_67\n      jumpi\n      returndatasize\n      0x00\n      dup1\n      returndatacopy\n      revert(0x00, returndatasize)\n    tag_67:\n      pop\n      pop\n      pop\n      pop\n      mload(0x40)\n      returndatasize\n      not(0x1f)\n      0x1f\n      dup3\n      add\n      and\n      dup3\n      add\n      dup1\n      0x40\n      mstore\n      pop\n      dup2\n      add\n      swap1\n      tag_68\n      swap2\n      swap1\n      tag_69\n      jump\t// in\n    tag_68:\n      pop\n        /* \"contracts/GLDEsrow.sol\":1213:1218  value */\n      dup1\n        /* \"contracts/GLDEsrow.sol\":1187:1205  receiverGLDAddress */\n      0x05\n        /* \"contracts/GLDEsrow.sol\":1187:1209  receiverGLDAddress[to] */\n      0x00\n        /* \"contracts/GLDEsrow.sol\":1206:1208  to */\n      dup7\n        /* \"contracts/GLDEsrow.sol\":1187:1209  receiverGLDAddress[to] */\n      0xffffffffffffffffffffffffffffffffffffffff\n      and\n      0xffffffffffffffffffffffffffffffffffffffff\n      and\n      dup2\n      mstore\n      0x20\n      add\n      swap1\n      dup2\n      mstore\n      0x20\n      add\n      0x00\n      keccak256\n      0x00\n        /* \"contracts/GLDEsrow.sol\":1187:1218  receiverGLDAddress[to] += value */\n      dup3\n      dup3\n      sload\n      tag_70\n      swap2\n      swap1\n      tag_71\n      jump\t// in\n    tag_70:\n      swap3\n      pop\n      pop\n      dup2\n      swap1\n      sstore\n      pop\n        /* \"contracts/GLDEsrow.sol\":1234:1253  rollbackGLDPossible */\n      0x07\n        /* \"contracts/GLDEsrow.sol\":1234:1257  rollbackGLDPossible[to] */\n      0x00\n        /* \"contracts/GLDEsrow.sol\":1254:1256  to */\n      dup6\n        /* \"contracts/GLDEsrow.sol\":1234:1257  rollbackGLDPossible[to] */\n      0xffffffffffffffffffffffffffffffffffffffff\n      and\n      0xffffffffffffffffffffffffffffffffffffffff\n      and\n      dup2\n      mstore\n      0x20\n      add\n      swap1\n      dup2\n      mstore\n      0x20\n      add\n      0x00\n      keccak256\n        /* \"contracts/GLDEsrow.sol\":1234:1263  rollbackGLDPossible[to][from] */\n      0x00\n        /* \"contracts/GLDEsrow.sol\":1258:1262  from */\n      dup4\n        /* \"contracts/GLDEsrow.sol\":1234:1263  rollbackGLDPossible[to][from] */\n      0xffffffffffffffffffffffffffffffffffffffff\n      and\n      0xffffffffffffffffffffffffffffffffffffffff\n      and\n      dup2\n      mstore\n      0x20\n      add\n      swap1\n      dup2\n      mstore\n      0x20\n      add\n      0x00\n      keccak256\n      0x00\n      swap1\n      sload\n      swap1\n      0x0100\n      exp\n      swap1\n      div\n      0xff\n      and\n        /* \"contracts/GLDEsrow.sol\":1229:1295  if (!rollbackGLDPossible[to][from]) rollbackGLDValue[to][from] = 0 */\n      tag_72\n      jumpi\n        /* \"contracts/GLDEsrow.sol\":1294:1295  0 */\n      0x00\n        /* \"contracts/GLDEsrow.sol\":1265:1281  rollbackGLDValue */\n      0x08\n        /* \"contracts/GLDEsrow.sol\":1265:1285  rollbackGLDValue[to] */\n      0x00\n        /* \"contracts/GLDEsrow.sol\":1282:1284  to */\n      dup7\n        /* \"contracts/GLDEsrow.sol\":1265:1285  rollbackGLDValue[to] */\n      0xffffffffffffffffffffffffffffffffffffffff\n      and\n      0xffffffffffffffffffffffffffffffffffffffff\n      and\n      dup2\n      mstore\n      0x20\n      add\n      swap1\n      dup2\n      mstore\n      0x20\n      add\n      0x00\n      keccak256\n        /* \"contracts/GLDEsrow.sol\":1265:1291  rollbackGLDValue[to][from] */\n      0x00\n        /* \"contracts/GLDEsrow.sol\":1286:1290  from */\n      dup5\n        /* \"contracts/GLDEsrow.sol\":1265:1291  rollbackGLDValue[to][from] */\n      0xffffffffffffffffffffffffffffffffffffffff\n      and\n      0xffffffffffffffffffffffffffffffffffffffff\n      and\n      dup2\n      mstore\n      0x20\n      add\n      swap1\n      dup2\n      mstore\n      0x20\n      add\n      0x00\n      keccak256\n        /* \"contracts/GLDEsrow.sol\":1265:1295  rollbackGLDValue[to][from] = 0 */\n      dup2\n      swap1\n      sstore\n      pop\n        /* \"contracts/GLDEsrow.sol\":1229:1295  if (!rollbackGLDPossible[to][from]) rollbackGLDValue[to][from] = 0 */\n    tag_72:\n        /* \"contracts/GLDEsrow.sol\":1336:1341  value */\n      dup1\n        /* \"contracts/GLDEsrow.sol\":1306:1322  rollbackGLDValue */\n      0x08\n        /* \"contracts/GLDEsrow.sol\":1306:1326  rollbackGLDValue[to] */\n      0x00\n        /* \"contracts/GLDEsrow.sol\":1323:1325  to */\n      dup7\n        /* \"contracts/GLDEsrow.sol\":1306:1326  rollbackGLDValue[to] */\n      0xffffffffffffffffffffffffffffffffffffffff\n      and\n      0xffffffffffffffffffffffffffffffffffffffff\n      and\n      dup2\n      mstore\n      0x20\n      add\n      swap1\n      dup2\n      mstore\n      0x20\n      add\n      0x00\n      keccak256\n        /* \"contracts/GLDEsrow.sol\":1306:1332  rollbackGLDValue[to][from] */\n      0x00\n        /* \"contracts/GLDEsrow.sol\":1327:1331  from */\n      dup5\n        /* \"contracts/GLDEsrow.sol\":1306:1332  rollbackGLDValue[to][from] */\n      0xffffffffffffffffffffffffffffffffffffffff\n      and\n      0xffffffffffffffffffffffffffffffffffffffff\n      and\n      dup2\n      mstore\n      0x20\n      add\n      swap1\n      dup2\n      mstore\n      0x20\n      add\n      0x00\n      keccak256\n      0x00\n        /* \"contracts/GLDEsrow.sol\":1306:1341  rollbackGLDValue[to][from] += value */\n      dup3\n      dup3\n      sload\n      tag_73\n      swap2\n      swap1\n      tag_71\n      jump\t// in\n    tag_73:\n      swap3\n      pop\n      pop\n      dup2\n      swap1\n      sstore\n      pop\n        /* \"contracts/GLDEsrow.sol\":1384:1388  true */\n      0x01\n        /* \"contracts/GLDEsrow.sol\":1352:1371  rollbackGLDPossible */\n      0x07\n        /* \"contracts/GLDEsrow.sol\":1352:1375  rollbackGLDPossible[to] */\n      0x00\n        /* \"contracts/GLDEsrow.sol\":1372:1374  to */\n      dup7\n        /* \"contracts/GLDEsrow.sol\":1352:1375  rollbackGLDPossible[to] */\n      0xffffffffffffffffffffffffffffffffffffffff\n      and\n      0xffffffffffffffffffffffffffffffffffffffff\n      and\n      dup2\n      mstore\n      0x20\n      add\n      swap1\n      dup2\n      mstore\n      0x20\n      add\n      0x00\n      keccak256\n        /* \"contracts/GLDEsrow.sol\":1352:1381  rollbackGLDPossible[to][from] */\n      0x00\n        /* \"contracts/GLDEsrow.sol\":1376:1380  from */\n      dup5\n        /* \"contracts/GLDEsrow.sol\":1352:1381  rollbackGLDPossible[to][from] */\n      0xffffffffffffffffffffffffffffffffffffffff\n      and\n      0xffffffffffffffffffffffffffffffffffffffff\n      and\n      dup2\n      mstore\n      0x20\n      add\n      swap1\n      dup2\n      mstore\n      0x20\n      add\n      0x00\n      keccak256\n      0x00\n        /* \"contracts/GLDEsrow.sol\":1352:1388  rollbackGLDPossible[to][from] = true */\n      0x0100\n      exp\n      dup2\n      sload\n      dup2\n      0xff\n      mul\n      not\n      and\n      swap1\n      dup4\n      iszero\n      iszero\n      mul\n      or\n      swap1\n      sstore\n      pop\n        /* \"contracts/GLDEsrow.sol\":1399:1419  rollbackGLDAddresses */\n      0x06\n        /* \"contracts/GLDEsrow.sol\":1399:1423  rollbackGLDAddresses[to] */\n      0x00\n        /* \"contracts/GLDEsrow.sol\":1420:1422  to */\n      dup6\n        /* \"contracts/GLDEsrow.sol\":1399:1423  rollbackGLDAddresses[to] */\n      0xffffffffffffffffffffffffffffffffffffffff\n      and\n      0xffffffffffffffffffffffffffffffffffffffff\n      and\n      dup2\n      mstore\n      0x20\n      add\n      swap1\n      dup2\n      mstore\n      0x20\n      add\n      0x00\n      keccak256\n        /* \"contracts/GLDEsrow.sol\":1429:1433  from */\n      dup3\n        /* \"contracts/GLDEsrow.sol\":1399:1434  rollbackGLDAddresses[to].push(from) */\n      swap1\n      dup1\n      0x01\n      dup2\n      sload\n      add\n      dup1\n      dup3\n      sstore\n      dup1\n      swap2\n      pop\n      pop\n      0x01\n      swap1\n      sub\n      swap1\n      0x00\n      mstore\n      keccak256(0x00, 0x20)\n      add\n      0x00\n      swap1\n      swap2\n      swap1\n      swap2\n      swap1\n      swap2\n      0x0100\n      exp\n      dup2\n      sload\n      dup2\n      0xffffffffffffffffffffffffffffffffffffffff\n      mul\n      not\n      and\n      swap1\n      dup4\n      0xffffffffffffffffffffffffffffffffffffffff\n      and\n      mul\n      or\n      swap1\n      sstore\n      pop\n        /* \"contracts/GLDEsrow.sol\":1467:1469  to */\n      dup4\n        /* \"contracts/GLDEsrow.sol\":1450:1477  LogGLDSend(from, to, value) */\n      0xffffffffffffffffffffffffffffffffffffffff\n      and\n        /* \"contracts/GLDEsrow.sol\":1461:1465  from */\n      dup3\n        /* \"contracts/GLDEsrow.sol\":1450:1477  LogGLDSend(from, to, value) */\n      0xffffffffffffffffffffffffffffffffffffffff\n      and\n      0x73b01460b5d0356bc41e4d618d3ac3aabc773ab762c363452c3e66ad535210fb\n        /* \"contracts/GLDEsrow.sol\":1471:1476  value */\n      dup4\n        /* \"contracts/GLDEsrow.sol\":1450:1477  LogGLDSend(from, to, value) */\n      mload(0x40)\n      tag_75\n      swap2\n      swap1\n      tag_42\n      jump\t// in\n    tag_75:\n      mload(0x40)\n      dup1\n      swap2\n      sub\n      swap1\n      log3\n        /* \"contracts/GLDEsrow.sol\":870:1485  {\r... */\n      pop\n      pop\n        /* \"contracts/GLDEsrow.sol\":810:1485  function sendGLD(address payable to, uint256 amount) public {\r... */\n      pop\n      pop\n      jump\t// out\n        /* \"contracts/Escrow.sol\":1716:2502  function rollbackEther(address payable to) external payable {\r... */\n    tag_25:\n        /* \"contracts/Escrow.sol\":1783:1805  address payable sender */\n      0x00\n        /* \"contracts/Escrow.sol\":1816:1826  msg.sender */\n      caller\n        /* \"contracts/Escrow.sol\":1783:1827  address payable sender = payable(msg.sender) */\n      swap1\n      pop\n        /* \"contracts/Escrow.sol\":1850:1866  rollbackPossible */\n      0x02\n        /* \"contracts/Escrow.sol\":1850:1870  rollbackPossible[to] */\n      0x00\n        /* \"contracts/Escrow.sol\":1867:1869  to */\n      dup4\n        /* \"contracts/Escrow.sol\":1850:1870  rollbackPossible[to] */\n      0xffffffffffffffffffffffffffffffffffffffff\n      and\n      0xffffffffffffffffffffffffffffffffffffffff\n      and\n      dup2\n      mstore\n      0x20\n      add\n      swap1\n      dup2\n      mstore\n      0x20\n      add\n      0x00\n      keccak256\n        /* \"contracts/Escrow.sol\":1850:1878  rollbackPossible[to][sender] */\n      0x00\n        /* \"contracts/Escrow.sol\":1871:1877  sender */\n      dup3\n        /* \"contracts/Escrow.sol\":1850:1878  rollbackPossible[to][sender] */\n      0xffffffffffffffffffffffffffffffffffffffff\n      and\n      0xffffffffffffffffffffffffffffffffffffffff\n      and\n      dup2\n      mstore\n      0x20\n      add\n      swap1\n      dup2\n      mstore\n      0x20\n      add\n      0x00\n      keccak256\n      0x00\n      swap1\n      sload\n      swap1\n      0x0100\n      exp\n      swap1\n      div\n      0xff\n      and\n        /* \"contracts/Escrow.sol\":1834:1965  require(\r... */\n      tag_77\n      jumpi\n      mload(0x40)\n      0x08c379a000000000000000000000000000000000000000000000000000000000\n      dup2\n      mstore\n      0x04\n      add\n      tag_78\n      swap1\n      tag_79\n      jump\t// in\n    tag_78:\n      mload(0x40)\n      dup1\n      swap2\n      sub\n      swap1\n      revert\n    tag_77:\n        /* \"contracts/Escrow.sol\":1972:1986  uint256 _value */\n      0x00\n        /* \"contracts/Escrow.sol\":1989:2002  rollbackValue */\n      0x03\n        /* \"contracts/Escrow.sol\":1989:2006  rollbackValue[to] */\n      0x00\n        /* \"contracts/Escrow.sol\":2003:2005  to */\n      dup5\n        /* \"contracts/Escrow.sol\":1989:2006  rollbackValue[to] */\n      0xffffffffffffffffffffffffffffffffffffffff\n      and\n      0xffffffffffffffffffffffffffffffffffffffff\n      and\n      dup2\n      mstore\n      0x20\n      add\n      swap1\n      dup2\n      mstore\n      0x20\n      add\n      0x00\n      keccak256\n        /* \"contracts/Escrow.sol\":1989:2014  rollbackValue[to][sender] */\n      0x00\n        /* \"contracts/Escrow.sol\":2007:2013  sender */\n      dup4\n        /* \"contracts/Escrow.sol\":1989:2014  rollbackValue[to][sender] */\n      0xffffffffffffffffffffffffffffffffffffffff\n      and\n      0xffffffffffffffffffffffffffffffffffffffff\n      and\n      dup2\n      mstore\n      0x20\n      add\n      swap1\n      dup2\n      mstore\n      0x20\n      add\n      0x00\n      keccak256\n      sload\n        /* \"contracts/Escrow.sol\":1972:2014  uint256 _value = rollbackValue[to][sender] */\n      swap1\n      pop\n        /* \"contracts/Escrow.sol\":2039:2040  0 */\n      0x00\n        /* \"contracts/Escrow.sol\":2029:2035  _value */\n      dup2\n        /* \"contracts/Escrow.sol\":2029:2040  _value != 0 */\n      eq\n      iszero\n        /* \"contracts/Escrow.sol\":2021:2064  require(_value != 0, \"Rollback value is 0\") */\n      tag_80\n      jumpi\n      mload(0x40)\n      0x08c379a000000000000000000000000000000000000000000000000000000000\n      dup2\n      mstore\n      0x04\n      add\n      tag_81\n      swap1\n      tag_82\n      jump\t// in\n    tag_81:\n      mload(0x40)\n      dup1\n      swap2\n      sub\n      swap1\n      revert\n    tag_80:\n        /* \"contracts/Escrow.sol\":2072:2081  bool sent */\n      0x00\n        /* \"contracts/Escrow.sol\":2087:2093  sender */\n      dup3\n        /* \"contracts/Escrow.sol\":2087:2098  sender.call */\n      0xffffffffffffffffffffffffffffffffffffffff\n      and\n        /* \"contracts/Escrow.sol\":2106:2112  _value */\n      dup3\n        /* \"contracts/Escrow.sol\":2087:2117  sender.call{value: _value}(\"\") */\n      mload(0x40)\n      tag_83\n      swap1\n      tag_84\n      jump\t// in\n    tag_83:\n      0x00\n      mload(0x40)\n      dup1\n      dup4\n      sub\n      dup2\n      dup6\n      dup8\n      gas\n      call\n      swap3\n      pop\n      pop\n      pop\n      returndatasize\n      dup1\n      0x00\n      dup2\n      eq\n      tag_87\n      jumpi\n      mload(0x40)\n      swap2\n      pop\n      and(add(returndatasize, 0x3f), not(0x1f))\n      dup3\n      add\n      0x40\n      mstore\n      returndatasize\n      dup3\n      mstore\n      returndatasize\n      0x00\n      0x20\n      dup5\n      add\n      returndatacopy\n      jump(tag_86)\n    tag_87:\n      0x60\n      swap2\n      pop\n    tag_86:\n      pop\n        /* \"contracts/Escrow.sol\":2071:2117  (bool sent, ) = sender.call{value: _value}(\"\") */\n      pop\n      swap1\n      pop\n        /* \"contracts/Escrow.sol\":2132:2136  sent */\n      dup1\n        /* \"contracts/Escrow.sol\":2124:2161  require(sent, \"Failed to send Ether\") */\n      tag_88\n      jumpi\n      mload(0x40)\n      0x08c379a000000000000000000000000000000000000000000000000000000000\n      dup2\n      mstore\n      0x04\n      add\n      tag_89\n      swap1\n      tag_90\n      jump\t// in\n    tag_89:\n      mload(0x40)\n      dup1\n      swap2\n      sub\n      swap1\n      revert\n    tag_88:\n        /* \"contracts/Escrow.sol\":2191:2197  _value */\n      dup2\n        /* \"contracts/Escrow.sol\":2168:2183  receiverAddress */\n      0x00\n        /* \"contracts/Escrow.sol\":2168:2187  receiverAddress[to] */\n      dup1\n        /* \"contracts/Escrow.sol\":2184:2186  to */\n      dup7\n        /* \"contracts/Escrow.sol\":2168:2187  receiverAddress[to] */\n      0xffffffffffffffffffffffffffffffffffffffff\n      and\n      0xffffffffffffffffffffffffffffffffffffffff\n      and\n      dup2\n      mstore\n      0x20\n      add\n      swap1\n      dup2\n      mstore\n      0x20\n      add\n      0x00\n      keccak256\n      0x00\n        /* \"contracts/Escrow.sol\":2168:2197  receiverAddress[to] -= _value */\n      dup3\n      dup3\n      sload\n      tag_91\n      swap2\n      swap1\n      tag_92\n      jump\t// in\n    tag_91:\n      swap3\n      pop\n      pop\n      dup2\n      swap1\n      sstore\n      pop\n        /* \"contracts/Escrow.sol\":2211:2224  rollbackValue */\n      0x03\n        /* \"contracts/Escrow.sol\":2211:2228  rollbackValue[to] */\n      0x00\n        /* \"contracts/Escrow.sol\":2225:2227  to */\n      dup6\n        /* \"contracts/Escrow.sol\":2211:2228  rollbackValue[to] */\n      0xffffffffffffffffffffffffffffffffffffffff\n      and\n      0xffffffffffffffffffffffffffffffffffffffff\n      and\n      dup2\n      mstore\n      0x20\n      add\n      swap1\n      dup2\n      mstore\n      0x20\n      add\n      0x00\n      keccak256\n        /* \"contracts/Escrow.sol\":2211:2236  rollbackValue[to][sender] */\n      0x00\n        /* \"contracts/Escrow.sol\":2229:2235  sender */\n      dup5\n        /* \"contracts/Escrow.sol\":2211:2236  rollbackValue[to][sender] */\n      0xffffffffffffffffffffffffffffffffffffffff\n      and\n      0xffffffffffffffffffffffffffffffffffffffff\n      and\n      dup2\n      mstore\n      0x20\n      add\n      swap1\n      dup2\n      mstore\n      0x20\n      add\n      0x00\n      keccak256\n        /* \"contracts/Escrow.sol\":2204:2236  delete rollbackValue[to][sender] */\n      0x00\n      swap1\n      sstore\n        /* \"contracts/Escrow.sol\":2274:2279  false */\n      0x00\n        /* \"contracts/Escrow.sol\":2243:2259  rollbackPossible */\n      0x02\n        /* \"contracts/Escrow.sol\":2243:2263  rollbackPossible[to] */\n      0x00\n        /* \"contracts/Escrow.sol\":2260:2262  to */\n      dup7\n        /* \"contracts/Escrow.sol\":2243:2263  rollbackPossible[to] */\n      0xffffffffffffffffffffffffffffffffffffffff\n      and\n      0xffffffffffffffffffffffffffffffffffffffff\n      and\n      dup2\n      mstore\n      0x20\n      add\n      swap1\n      dup2\n      mstore\n      0x20\n      add\n      0x00\n      keccak256\n        /* \"contracts/Escrow.sol\":2243:2271  rollbackPossible[to][sender] */\n      0x00\n        /* \"contracts/Escrow.sol\":2264:2270  sender */\n      dup6\n        /* \"contracts/Escrow.sol\":2243:2271  rollbackPossible[to][sender] */\n      0xffffffffffffffffffffffffffffffffffffffff\n      and\n      0xffffffffffffffffffffffffffffffffffffffff\n      and\n      dup2\n      mstore\n      0x20\n      add\n      swap1\n      dup2\n      mstore\n      0x20\n      add\n      0x00\n      keccak256\n      0x00\n        /* \"contracts/Escrow.sol\":2243:2279  rollbackPossible[to][sender] = false */\n      0x0100\n      exp\n      dup2\n      sload\n      dup2\n      0xff\n      mul\n      not\n      and\n      swap1\n      dup4\n      iszero\n      iszero\n      mul\n      or\n      swap1\n      sstore\n      pop\n        /* \"contracts/Escrow.sol\":2291:2300  uint256 i */\n      0x00\n        /* \"contracts/Escrow.sol\":2286:2497  for (uint256 i = 0; i < rollbackAddresses[to].length; i++) {\r... */\n    tag_93:\n        /* \"contracts/Escrow.sol\":2310:2327  rollbackAddresses */\n      0x01\n        /* \"contracts/Escrow.sol\":2310:2331  rollbackAddresses[to] */\n      0x00\n        /* \"contracts/Escrow.sol\":2328:2330  to */\n      dup7\n        /* \"contracts/Escrow.sol\":2310:2331  rollbackAddresses[to] */\n      0xffffffffffffffffffffffffffffffffffffffff\n      and\n      0xffffffffffffffffffffffffffffffffffffffff\n      and\n      dup2\n      mstore\n      0x20\n      add\n      swap1\n      dup2\n      mstore\n      0x20\n      add\n      0x00\n      keccak256\n        /* \"contracts/Escrow.sol\":2310:2338  rollbackAddresses[to].length */\n      dup1\n      sload\n      swap1\n      pop\n        /* \"contracts/Escrow.sol\":2306:2307  i */\n      dup2\n        /* \"contracts/Escrow.sol\":2306:2338  i < rollbackAddresses[to].length */\n      lt\n        /* \"contracts/Escrow.sol\":2286:2497  for (uint256 i = 0; i < rollbackAddresses[to].length; i++) {\r... */\n      iszero\n      tag_94\n      jumpi\n        /* \"contracts/Escrow.sol\":2354:2366  address from */\n      0x00\n        /* \"contracts/Escrow.sol\":2369:2386  rollbackAddresses */\n      0x01\n        /* \"contracts/Escrow.sol\":2369:2390  rollbackAddresses[to] */\n      0x00\n        /* \"contracts/Escrow.sol\":2387:2389  to */\n      dup8\n        /* \"contracts/Escrow.sol\":2369:2390  rollbackAddresses[to] */\n      0xffffffffffffffffffffffffffffffffffffffff\n      and\n      0xffffffffffffffffffffffffffffffffffffffff\n      and\n      dup2\n      mstore\n      0x20\n      add\n      swap1\n      dup2\n      mstore\n      0x20\n      add\n      0x00\n      keccak256\n        /* \"contracts/Escrow.sol\":2391:2392  i */\n      dup3\n        /* \"contracts/Escrow.sol\":2369:2393  rollbackAddresses[to][i] */\n      dup2\n      sload\n      dup2\n      lt\n      tag_96\n      jumpi\n      tag_97\n      tag_98\n      jump\t// in\n    tag_97:\n    tag_96:\n      swap1\n      0x00\n      mstore\n      keccak256(0x00, 0x20)\n      add\n      0x00\n      swap1\n      sload\n      swap1\n      0x0100\n      exp\n      swap1\n      div\n      0xffffffffffffffffffffffffffffffffffffffff\n      and\n        /* \"contracts/Escrow.sol\":2354:2393  address from = rollbackAddresses[to][i] */\n      swap1\n      pop\n        /* \"contracts/Escrow.sol\":2414:2420  sender */\n      dup5\n        /* \"contracts/Escrow.sol\":2406:2420  from == sender */\n      0xffffffffffffffffffffffffffffffffffffffff\n      and\n        /* \"contracts/Escrow.sol\":2406:2410  from */\n      dup2\n        /* \"contracts/Escrow.sol\":2406:2420  from == sender */\n      0xffffffffffffffffffffffffffffffffffffffff\n      and\n      eq\n        /* \"contracts/Escrow.sol\":2402:2490  if (from == sender) {\r... */\n      iszero\n      tag_100\n      jumpi\n        /* \"contracts/Escrow.sol\":2440:2457  rollbackAddresses */\n      0x01\n        /* \"contracts/Escrow.sol\":2440:2461  rollbackAddresses[to] */\n      0x00\n        /* \"contracts/Escrow.sol\":2458:2460  to */\n      dup8\n        /* \"contracts/Escrow.sol\":2440:2461  rollbackAddresses[to] */\n      0xffffffffffffffffffffffffffffffffffffffff\n      and\n      0xffffffffffffffffffffffffffffffffffffffff\n      and\n      dup2\n      mstore\n      0x20\n      add\n      swap1\n      dup2\n      mstore\n      0x20\n      add\n      0x00\n      keccak256\n        /* \"contracts/Escrow.sol\":2462:2463  i */\n      dup3\n        /* \"contracts/Escrow.sol\":2440:2464  rollbackAddresses[to][i] */\n      dup2\n      sload\n      dup2\n      lt\n      tag_101\n      jumpi\n      tag_102\n      tag_98\n      jump\t// in\n    tag_102:\n    tag_101:\n      swap1\n      0x00\n      mstore\n      keccak256(0x00, 0x20)\n      add\n      0x00\n        /* \"contracts/Escrow.sol\":2433:2464  delete rollbackAddresses[to][i] */\n      0x0100\n      exp\n      dup2\n      sload\n      swap1\n      0xffffffffffffffffffffffffffffffffffffffff\n      mul\n      not\n      and\n      swap1\n      sstore\n        /* \"contracts/Escrow.sol\":2475:2480  break */\n      pop\n      jump(tag_94)\n        /* \"contracts/Escrow.sol\":2402:2490  if (from == sender) {\r... */\n    tag_100:\n        /* \"contracts/Escrow.sol\":2345:2497  {\r... */\n      pop\n        /* \"contracts/Escrow.sol\":2340:2343  i++ */\n      dup1\n      dup1\n      tag_104\n      swap1\n      tag_105\n      jump\t// in\n    tag_104:\n      swap2\n      pop\n      pop\n        /* \"contracts/Escrow.sol\":2286:2497  for (uint256 i = 0; i < rollbackAddresses[to].length; i++) {\r... */\n      jump(tag_93)\n    tag_94:\n      pop\n        /* \"contracts/Escrow.sol\":1776:2502  {\r... */\n      pop\n      pop\n      pop\n        /* \"contracts/Escrow.sol\":1716:2502  function rollbackEther(address payable to) external payable {\r... */\n      pop\n      jump\t// out\n        /* \"contracts/Escrow.sol\":747:1129  function sendEther(address payable to) external payable {\r... */\n    tag_28:\n        /* \"contracts/Escrow.sol\":810:822  address from */\n      0x00\n        /* \"contracts/Escrow.sol\":825:835  msg.sender */\n      caller\n        /* \"contracts/Escrow.sol\":810:835  address from = msg.sender */\n      swap1\n      pop\n        /* \"contracts/Escrow.sol\":842:855  uint256 value */\n      0x00\n        /* \"contracts/Escrow.sol\":858:867  msg.value */\n      callvalue\n        /* \"contracts/Escrow.sol\":842:867  uint256 value = msg.value */\n      swap1\n      pop\n        /* \"contracts/Escrow.sol\":897:902  value */\n      dup1\n        /* \"contracts/Escrow.sol\":874:889  receiverAddress */\n      0x00\n        /* \"contracts/Escrow.sol\":874:893  receiverAddress[to] */\n      dup1\n        /* \"contracts/Escrow.sol\":890:892  to */\n      dup6\n        /* \"contracts/Escrow.sol\":874:893  receiverAddress[to] */\n      0xffffffffffffffffffffffffffffffffffffffff\n      and\n      0xffffffffffffffffffffffffffffffffffffffff\n      and\n      dup2\n      mstore\n      0x20\n      add\n      swap1\n      dup2\n      mstore\n      0x20\n      add\n      0x00\n      keccak256\n      0x00\n        /* \"contracts/Escrow.sol\":874:902  receiverAddress[to] += value */\n      dup3\n      dup3\n      sload\n      tag_107\n      swap2\n      swap1\n      tag_71\n      jump\t// in\n    tag_107:\n      swap3\n      pop\n      pop\n      dup2\n      swap1\n      sstore\n      pop\n        /* \"contracts/Escrow.sol\":914:930  rollbackPossible */\n      0x02\n        /* \"contracts/Escrow.sol\":914:934  rollbackPossible[to] */\n      0x00\n        /* \"contracts/Escrow.sol\":931:933  to */\n      dup5\n        /* \"contracts/Escrow.sol\":914:934  rollbackPossible[to] */\n      0xffffffffffffffffffffffffffffffffffffffff\n      and\n      0xffffffffffffffffffffffffffffffffffffffff\n      and\n      dup2\n      mstore\n      0x20\n      add\n      swap1\n      dup2\n      mstore\n      0x20\n      add\n      0x00\n      keccak256\n        /* \"contracts/Escrow.sol\":914:940  rollbackPossible[to][from] */\n      0x00\n        /* \"contracts/Escrow.sol\":935:939  from */\n      dup4\n        /* \"contracts/Escrow.sol\":914:940  rollbackPossible[to][from] */\n      0xffffffffffffffffffffffffffffffffffffffff\n      and\n      0xffffffffffffffffffffffffffffffffffffffff\n      and\n      dup2\n      mstore\n      0x20\n      add\n      swap1\n      dup2\n      mstore\n      0x20\n      add\n      0x00\n      keccak256\n      0x00\n      swap1\n      sload\n      swap1\n      0x0100\n      exp\n      swap1\n      div\n      0xff\n      and\n        /* \"contracts/Escrow.sol\":909:969  if (!rollbackPossible[to][from]) rollbackValue[to][from] = 0 */\n      tag_108\n      jumpi\n        /* \"contracts/Escrow.sol\":968:969  0 */\n      0x00\n        /* \"contracts/Escrow.sol\":942:955  rollbackValue */\n      0x03\n        /* \"contracts/Escrow.sol\":942:959  rollbackValue[to] */\n      0x00\n        /* \"contracts/Escrow.sol\":956:958  to */\n      dup6\n        /* \"contracts/Escrow.sol\":942:959  rollbackValue[to] */\n      0xffffffffffffffffffffffffffffffffffffffff\n      and\n      0xffffffffffffffffffffffffffffffffffffffff\n      and\n      dup2\n      mstore\n      0x20\n      add\n      swap1\n      dup2\n      mstore\n      0x20\n      add\n      0x00\n      keccak256\n        /* \"contracts/Escrow.sol\":942:965  rollbackValue[to][from] */\n      0x00\n        /* \"contracts/Escrow.sol\":960:964  from */\n      dup5\n        /* \"contracts/Escrow.sol\":942:965  rollbackValue[to][from] */\n      0xffffffffffffffffffffffffffffffffffffffff\n      and\n      0xffffffffffffffffffffffffffffffffffffffff\n      and\n      dup2\n      mstore\n      0x20\n      add\n      swap1\n      dup2\n      mstore\n      0x20\n      add\n      0x00\n      keccak256\n        /* \"contracts/Escrow.sol\":942:969  rollbackValue[to][from] = 0 */\n      dup2\n      swap1\n      sstore\n      pop\n        /* \"contracts/Escrow.sol\":909:969  if (!rollbackPossible[to][from]) rollbackValue[to][from] = 0 */\n    tag_108:\n        /* \"contracts/Escrow.sol\":1003:1008  value */\n      dup1\n        /* \"contracts/Escrow.sol\":976:989  rollbackValue */\n      0x03\n        /* \"contracts/Escrow.sol\":976:993  rollbackValue[to] */\n      0x00\n        /* \"contracts/Escrow.sol\":990:992  to */\n      dup6\n        /* \"contracts/Escrow.sol\":976:993  rollbackValue[to] */\n      0xffffffffffffffffffffffffffffffffffffffff\n      and\n      0xffffffffffffffffffffffffffffffffffffffff\n      and\n      dup2\n      mstore\n      0x20\n      add\n      swap1\n      dup2\n      mstore\n      0x20\n      add\n      0x00\n      keccak256\n        /* \"contracts/Escrow.sol\":976:999  rollbackValue[to][from] */\n      0x00\n        /* \"contracts/Escrow.sol\":994:998  from */\n      dup5\n        /* \"contracts/Escrow.sol\":976:999  rollbackValue[to][from] */\n      0xffffffffffffffffffffffffffffffffffffffff\n      and\n      0xffffffffffffffffffffffffffffffffffffffff\n      and\n      dup2\n      mstore\n      0x20\n      add\n      swap1\n      dup2\n      mstore\n      0x20\n      add\n      0x00\n      keccak256\n      0x00\n        /* \"contracts/Escrow.sol\":976:1008  rollbackValue[to][from] += value */\n      dup3\n      dup3\n      sload\n      tag_109\n      swap2\n      swap1\n      tag_71\n      jump\t// in\n    tag_109:\n      swap3\n      pop\n      pop\n      dup2\n      swap1\n      sstore\n      pop\n        /* \"contracts/Escrow.sol\":1044:1048  true */\n      0x01\n        /* \"contracts/Escrow.sol\":1015:1031  rollbackPossible */\n      0x02\n        /* \"contracts/Escrow.sol\":1015:1035  rollbackPossible[to] */\n      0x00\n        /* \"contracts/Escrow.sol\":1032:1034  to */\n      dup6\n        /* \"contracts/Escrow.sol\":1015:1035  rollbackPossible[to] */\n      0xffffffffffffffffffffffffffffffffffffffff\n      and\n      0xffffffffffffffffffffffffffffffffffffffff\n      and\n      dup2\n      mstore\n      0x20\n      add\n      swap1\n      dup2\n      mstore\n      0x20\n      add\n      0x00\n      keccak256\n        /* \"contracts/Escrow.sol\":1015:1041  rollbackPossible[to][from] */\n      0x00\n        /* \"contracts/Escrow.sol\":1036:1040  from */\n      dup5\n        /* \"contracts/Escrow.sol\":1015:1041  rollbackPossible[to][from] */\n      0xffffffffffffffffffffffffffffffffffffffff\n      and\n      0xffffffffffffffffffffffffffffffffffffffff\n      and\n      dup2\n      mstore\n      0x20\n      add\n      swap1\n      dup2\n      mstore\n      0x20\n      add\n      0x00\n      keccak256\n      0x00\n        /* \"contracts/Escrow.sol\":1015:1048  rollbackPossible[to][from] = true */\n      0x0100\n      exp\n      dup2\n      sload\n      dup2\n      0xff\n      mul\n      not\n      and\n      swap1\n      dup4\n      iszero\n      iszero\n      mul\n      or\n      swap1\n      sstore\n      pop\n        /* \"contracts/Escrow.sol\":1055:1072  rollbackAddresses */\n      0x01\n        /* \"contracts/Escrow.sol\":1055:1076  rollbackAddresses[to] */\n      0x00\n        /* \"contracts/Escrow.sol\":1073:1075  to */\n      dup5\n        /* \"contracts/Escrow.sol\":1055:1076  rollbackAddresses[to] */\n      0xffffffffffffffffffffffffffffffffffffffff\n      and\n      0xffffffffffffffffffffffffffffffffffffffff\n      and\n      dup2\n      mstore\n      0x20\n      add\n      swap1\n      dup2\n      mstore\n      0x20\n      add\n      0x00\n      keccak256\n        /* \"contracts/Escrow.sol\":1082:1086  from */\n      dup3\n        /* \"contracts/Escrow.sol\":1055:1087  rollbackAddresses[to].push(from) */\n      swap1\n      dup1\n      0x01\n      dup2\n      sload\n      add\n      dup1\n      dup3\n      sstore\n      dup1\n      swap2\n      pop\n      pop\n      0x01\n      swap1\n      sub\n      swap1\n      0x00\n      mstore\n      keccak256(0x00, 0x20)\n      add\n      0x00\n      swap1\n      swap2\n      swap1\n      swap2\n      swap1\n      swap2\n      0x0100\n      exp\n      dup2\n      sload\n      dup2\n      0xffffffffffffffffffffffffffffffffffffffff\n      mul\n      not\n      and\n      swap1\n      dup4\n      0xffffffffffffffffffffffffffffffffffffffff\n      and\n      mul\n      or\n      swap1\n      sstore\n      pop\n        /* \"contracts/Escrow.sol\":1113:1115  to */\n      dup3\n        /* \"contracts/Escrow.sol\":1099:1123  LogSend(from, to, value) */\n      0xffffffffffffffffffffffffffffffffffffffff\n      and\n        /* \"contracts/Escrow.sol\":1107:1111  from */\n      dup3\n        /* \"contracts/Escrow.sol\":1099:1123  LogSend(from, to, value) */\n      0xffffffffffffffffffffffffffffffffffffffff\n      and\n      0xa343f361112b028dae2501770614271723be1d24c9f64fed2d4bd3ddf1c13e35\n        /* \"contracts/Escrow.sol\":1117:1122  value */\n      dup4\n        /* \"contracts/Escrow.sol\":1099:1123  LogSend(from, to, value) */\n      mload(0x40)\n      tag_111\n      swap2\n      swap1\n      tag_42\n      jump\t// in\n    tag_111:\n      mload(0x40)\n      dup1\n      swap2\n      sub\n      swap1\n      log3\n        /* \"contracts/Escrow.sol\":803:1129  {\r... */\n      pop\n      pop\n        /* \"contracts/Escrow.sol\":747:1129  function sendEther(address payable to) external payable {\r... */\n      pop\n      jump\t// out\n        /* \"contracts/Escrow.sol\":1135:1710  function withdrawEther() external payable {\r... */\n    tag_30:\n        /* \"contracts/Escrow.sol\":1184:1202  address payable to */\n      0x00\n        /* \"contracts/Escrow.sol\":1213:1223  msg.sender */\n      caller\n        /* \"contracts/Escrow.sol\":1184:1224  address payable to = payable(msg.sender) */\n      swap1\n      pop\n        /* \"contracts/Escrow.sol\":1231:1245  uint256 _value */\n      0x00\n        /* \"contracts/Escrow.sol\":1248:1263  receiverAddress */\n      dup1\n        /* \"contracts/Escrow.sol\":1248:1267  receiverAddress[to] */\n      0x00\n        /* \"contracts/Escrow.sol\":1264:1266  to */\n      dup4\n        /* \"contracts/Escrow.sol\":1248:1267  receiverAddress[to] */\n      0xffffffffffffffffffffffffffffffffffffffff\n      and\n      0xffffffffffffffffffffffffffffffffffffffff\n      and\n      dup2\n      mstore\n      0x20\n      add\n      swap1\n      dup2\n      mstore\n      0x20\n      add\n      0x00\n      keccak256\n      sload\n        /* \"contracts/Escrow.sol\":1231:1267  uint256 _value = receiverAddress[to] */\n      swap1\n      pop\n        /* \"contracts/Escrow.sol\":1292:1293  0 */\n      0x00\n        /* \"contracts/Escrow.sol\":1282:1288  _value */\n      dup2\n        /* \"contracts/Escrow.sol\":1282:1293  _value != 0 */\n      eq\n      iszero\n        /* \"contracts/Escrow.sol\":1274:1331  require(_value != 0, \"You don't have ethers sent to you\") */\n      tag_113\n      jumpi\n      mload(0x40)\n      0x08c379a000000000000000000000000000000000000000000000000000000000\n      dup2\n      mstore\n      0x04\n      add\n      tag_114\n      swap1\n      tag_115\n      jump\t// in\n    tag_114:\n      mload(0x40)\n      dup1\n      swap2\n      sub\n      swap1\n      revert\n    tag_113:\n        /* \"contracts/Escrow.sol\":1339:1348  bool sent */\n      0x00\n        /* \"contracts/Escrow.sol\":1354:1356  to */\n      dup3\n        /* \"contracts/Escrow.sol\":1354:1361  to.call */\n      0xffffffffffffffffffffffffffffffffffffffff\n      and\n        /* \"contracts/Escrow.sol\":1369:1375  _value */\n      dup3\n        /* \"contracts/Escrow.sol\":1354:1380  to.call{value: _value}(\"\") */\n      mload(0x40)\n      tag_116\n      swap1\n      tag_84\n      jump\t// in\n    tag_116:\n      0x00\n      mload(0x40)\n      dup1\n      dup4\n      sub\n      dup2\n      dup6\n      dup8\n      gas\n      call\n      swap3\n      pop\n      pop\n      pop\n      returndatasize\n      dup1\n      0x00\n      dup2\n      eq\n      tag_119\n      jumpi\n      mload(0x40)\n      swap2\n      pop\n      and(add(returndatasize, 0x3f), not(0x1f))\n      dup3\n      add\n      0x40\n      mstore\n      returndatasize\n      dup3\n      mstore\n      returndatasize\n      0x00\n      0x20\n      dup5\n      add\n      returndatacopy\n      jump(tag_118)\n    tag_119:\n      0x60\n      swap2\n      pop\n    tag_118:\n      pop\n        /* \"contracts/Escrow.sol\":1338:1380  (bool sent, ) = to.call{value: _value}(\"\") */\n      pop\n      swap1\n      pop\n        /* \"contracts/Escrow.sol\":1395:1399  sent */\n      dup1\n        /* \"contracts/Escrow.sol\":1387:1424  require(sent, \"Failed to send Ether\") */\n      tag_120\n      jumpi\n      mload(0x40)\n      0x08c379a000000000000000000000000000000000000000000000000000000000\n      dup2\n      mstore\n      0x04\n      add\n      tag_121\n      swap1\n      tag_90\n      jump\t// in\n    tag_121:\n      mload(0x40)\n      dup1\n      swap2\n      sub\n      swap1\n      revert\n    tag_120:\n        /* \"contracts/Escrow.sol\":1438:1453  receiverAddress */\n      0x00\n        /* \"contracts/Escrow.sol\":1438:1457  receiverAddress[to] */\n      dup1\n        /* \"contracts/Escrow.sol\":1454:1456  to */\n      dup5\n        /* \"contracts/Escrow.sol\":1438:1457  receiverAddress[to] */\n      0xffffffffffffffffffffffffffffffffffffffff\n      and\n      0xffffffffffffffffffffffffffffffffffffffff\n      and\n      dup2\n      mstore\n      0x20\n      add\n      swap1\n      dup2\n      mstore\n      0x20\n      add\n      0x00\n      keccak256\n        /* \"contracts/Escrow.sol\":1431:1457  delete receiverAddress[to] */\n      0x00\n      swap1\n      sstore\n        /* \"contracts/Escrow.sol\":1469:1478  uint256 i */\n      0x00\n        /* \"contracts/Escrow.sol\":1464:1662  for (uint256 i = 0; i < rollbackAddresses[to].length; i++) {\r... */\n    tag_122:\n        /* \"contracts/Escrow.sol\":1488:1505  rollbackAddresses */\n      0x01\n        /* \"contracts/Escrow.sol\":1488:1509  rollbackAddresses[to] */\n      0x00\n        /* \"contracts/Escrow.sol\":1506:1508  to */\n      dup6\n        /* \"contracts/Escrow.sol\":1488:1509  rollbackAddresses[to] */\n      0xffffffffffffffffffffffffffffffffffffffff\n      and\n      0xffffffffffffffffffffffffffffffffffffffff\n      and\n      dup2\n      mstore\n      0x20\n      add\n      swap1\n      dup2\n      mstore\n      0x20\n      add\n      0x00\n      keccak256\n        /* \"contracts/Escrow.sol\":1488:1516  rollbackAddresses[to].length */\n      dup1\n      sload\n      swap1\n      pop\n        /* \"contracts/Escrow.sol\":1484:1485  i */\n      dup2\n        /* \"contracts/Escrow.sol\":1484:1516  i < rollbackAddresses[to].length */\n      lt\n        /* \"contracts/Escrow.sol\":1464:1662  for (uint256 i = 0; i < rollbackAddresses[to].length; i++) {\r... */\n      iszero\n      tag_123\n      jumpi\n        /* \"contracts/Escrow.sol\":1532:1544  address from */\n      0x00\n        /* \"contracts/Escrow.sol\":1547:1564  rollbackAddresses */\n      0x01\n        /* \"contracts/Escrow.sol\":1547:1568  rollbackAddresses[to] */\n      0x00\n        /* \"contracts/Escrow.sol\":1565:1567  to */\n      dup7\n        /* \"contracts/Escrow.sol\":1547:1568  rollbackAddresses[to] */\n      0xffffffffffffffffffffffffffffffffffffffff\n      and\n      0xffffffffffffffffffffffffffffffffffffffff\n      and\n      dup2\n      mstore\n      0x20\n      add\n      swap1\n      dup2\n      mstore\n      0x20\n      add\n      0x00\n      keccak256\n        /* \"contracts/Escrow.sol\":1569:1570  i */\n      dup3\n        /* \"contracts/Escrow.sol\":1547:1571  rollbackAddresses[to][i] */\n      dup2\n      sload\n      dup2\n      lt\n      tag_125\n      jumpi\n      tag_126\n      tag_98\n      jump\t// in\n    tag_126:\n    tag_125:\n      swap1\n      0x00\n      mstore\n      keccak256(0x00, 0x20)\n      add\n      0x00\n      swap1\n      sload\n      swap1\n      0x0100\n      exp\n      swap1\n      div\n      0xffffffffffffffffffffffffffffffffffffffff\n      and\n        /* \"contracts/Escrow.sol\":1532:1571  address from = rollbackAddresses[to][i] */\n      swap1\n      pop\n        /* \"contracts/Escrow.sol\":1609:1614  false */\n      0x00\n        /* \"contracts/Escrow.sol\":1580:1596  rollbackPossible */\n      0x02\n        /* \"contracts/Escrow.sol\":1580:1600  rollbackPossible[to] */\n      0x00\n        /* \"contracts/Escrow.sol\":1597:1599  to */\n      dup8\n        /* \"contracts/Escrow.sol\":1580:1600  rollbackPossible[to] */\n      0xffffffffffffffffffffffffffffffffffffffff\n      and\n      0xffffffffffffffffffffffffffffffffffffffff\n      and\n      dup2\n      mstore\n      0x20\n      add\n      swap1\n      dup2\n      mstore\n      0x20\n      add\n      0x00\n      keccak256\n        /* \"contracts/Escrow.sol\":1580:1606  rollbackPossible[to][from] */\n      0x00\n        /* \"contracts/Escrow.sol\":1601:1605  from */\n      dup4\n        /* \"contracts/Escrow.sol\":1580:1606  rollbackPossible[to][from] */\n      0xffffffffffffffffffffffffffffffffffffffff\n      and\n      0xffffffffffffffffffffffffffffffffffffffff\n      and\n      dup2\n      mstore\n      0x20\n      add\n      swap1\n      dup2\n      mstore\n      0x20\n      add\n      0x00\n      keccak256\n      0x00\n        /* \"contracts/Escrow.sol\":1580:1614  rollbackPossible[to][from] = false */\n      0x0100\n      exp\n      dup2\n      sload\n      dup2\n      0xff\n      mul\n      not\n      and\n      swap1\n      dup4\n      iszero\n      iszero\n      mul\n      or\n      swap1\n      sstore\n      pop\n        /* \"contracts/Escrow.sol\":1630:1647  rollbackAddresses */\n      0x01\n        /* \"contracts/Escrow.sol\":1630:1651  rollbackAddresses[to] */\n      0x00\n        /* \"contracts/Escrow.sol\":1648:1650  to */\n      dup7\n        /* \"contracts/Escrow.sol\":1630:1651  rollbackAddresses[to] */\n      0xffffffffffffffffffffffffffffffffffffffff\n      and\n      0xffffffffffffffffffffffffffffffffffffffff\n      and\n      dup2\n      mstore\n      0x20\n      add\n      swap1\n      dup2\n      mstore\n      0x20\n      add\n      0x00\n      keccak256\n        /* \"contracts/Escrow.sol\":1652:1653  i */\n      dup3\n        /* \"contracts/Escrow.sol\":1630:1654  rollbackAddresses[to][i] */\n      dup2\n      sload\n      dup2\n      lt\n      tag_128\n      jumpi\n      tag_129\n      tag_98\n      jump\t// in\n    tag_129:\n    tag_128:\n      swap1\n      0x00\n      mstore\n      keccak256(0x00, 0x20)\n      add\n      0x00\n        /* \"contracts/Escrow.sol\":1623:1654  delete rollbackAddresses[to][i] */\n      0x0100\n      exp\n      dup2\n      sload\n      swap1\n      0xffffffffffffffffffffffffffffffffffffffff\n      mul\n      not\n      and\n      swap1\n      sstore\n        /* \"contracts/Escrow.sol\":1523:1662  {\r... */\n      pop\n        /* \"contracts/Escrow.sol\":1518:1521  i++ */\n      dup1\n      dup1\n      tag_131\n      swap1\n      tag_105\n      jump\t// in\n    tag_131:\n      swap2\n      pop\n      pop\n        /* \"contracts/Escrow.sol\":1464:1662  for (uint256 i = 0; i < rollbackAddresses[to].length; i++) {\r... */\n      jump(tag_122)\n    tag_123:\n      pop\n        /* \"contracts/Escrow.sol\":1685:1695  msg.sender */\n      caller\n        /* \"contracts/Escrow.sol\":1673:1704  LogWithDraw(msg.sender, _value) */\n      0xffffffffffffffffffffffffffffffffffffffff\n      and\n      0xa74fab966bfc29d4ea7866d609ac5d94324a5fe817362d6a9fee5d2f8df46759\n        /* \"contracts/Escrow.sol\":1697:1703  _value */\n      dup4\n        /* \"contracts/Escrow.sol\":1673:1704  LogWithDraw(msg.sender, _value) */\n      mload(0x40)\n      tag_132\n      swap2\n      swap1\n      tag_42\n      jump\t// in\n    tag_132:\n      mload(0x40)\n      dup1\n      swap2\n      sub\n      swap1\n      log2\n        /* \"contracts/Escrow.sol\":1177:1710  {\r... */\n      pop\n      pop\n      pop\n        /* \"contracts/Escrow.sol\":1135:1710  function withdrawEther() external payable {\r... */\n      jump\t// out\n        /* \"contracts/GLDEsrow.sol\":1493:2127  function withdrawGLD() public {\r... */\n    tag_33:\n        /* \"contracts/GLDEsrow.sol\":1534:1552  address payable to */\n      0x00\n        /* \"contracts/GLDEsrow.sol\":1563:1573  msg.sender */\n      caller\n        /* \"contracts/GLDEsrow.sol\":1534:1574  address payable to = payable(msg.sender) */\n      swap1\n      pop\n        /* \"contracts/GLDEsrow.sol\":1585:1599  uint256 _value */\n      0x00\n        /* \"contracts/GLDEsrow.sol\":1602:1620  receiverGLDAddress */\n      0x05\n        /* \"contracts/GLDEsrow.sol\":1602:1624  receiverGLDAddress[to] */\n      0x00\n        /* \"contracts/GLDEsrow.sol\":1621:1623  to */\n      dup4\n        /* \"contracts/GLDEsrow.sol\":1602:1624  receiverGLDAddress[to] */\n      0xffffffffffffffffffffffffffffffffffffffff\n      and\n      0xffffffffffffffffffffffffffffffffffffffff\n      and\n      dup2\n      mstore\n      0x20\n      add\n      swap1\n      dup2\n      mstore\n      0x20\n      add\n      0x00\n      keccak256\n      sload\n        /* \"contracts/GLDEsrow.sol\":1585:1624  uint256 _value = receiverGLDAddress[to] */\n      swap1\n      pop\n        /* \"contracts/GLDEsrow.sol\":1653:1654  0 */\n      0x00\n        /* \"contracts/GLDEsrow.sol\":1643:1649  _value */\n      dup2\n        /* \"contracts/GLDEsrow.sol\":1643:1654  _value != 0 */\n      eq\n      iszero\n        /* \"contracts/GLDEsrow.sol\":1635:1689  require(_value != 0, \"You don't have GLD sent to you\") */\n      tag_134\n      jumpi\n      mload(0x40)\n      0x08c379a000000000000000000000000000000000000000000000000000000000\n      dup2\n      mstore\n      0x04\n      add\n      tag_135\n      swap1\n      tag_136\n      jump\t// in\n    tag_135:\n      mload(0x40)\n      dup1\n      swap2\n      sub\n      swap1\n      revert\n    tag_134:\n        /* \"contracts/GLDEsrow.sol\":1701:1710  bool sent */\n      0x00\n        /* \"contracts/GLDEsrow.sol\":1716:1718  to */\n      dup3\n        /* \"contracts/GLDEsrow.sol\":1716:1723  to.call */\n      0xffffffffffffffffffffffffffffffffffffffff\n      and\n        /* \"contracts/GLDEsrow.sol\":1731:1737  _value */\n      dup3\n        /* \"contracts/GLDEsrow.sol\":1716:1742  to.call{value: _value}(\"\") */\n      mload(0x40)\n      tag_137\n      swap1\n      tag_84\n      jump\t// in\n    tag_137:\n      0x00\n      mload(0x40)\n      dup1\n      dup4\n      sub\n      dup2\n      dup6\n      dup8\n      gas\n      call\n      swap3\n      pop\n      pop\n      pop\n      returndatasize\n      dup1\n      0x00\n      dup2\n      eq\n      tag_140\n      jumpi\n      mload(0x40)\n      swap2\n      pop\n      and(add(returndatasize, 0x3f), not(0x1f))\n      dup3\n      add\n      0x40\n      mstore\n      returndatasize\n      dup3\n      mstore\n      returndatasize\n      0x00\n      0x20\n      dup5\n      add\n      returndatacopy\n      jump(tag_139)\n    tag_140:\n      0x60\n      swap2\n      pop\n    tag_139:\n      pop\n        /* \"contracts/GLDEsrow.sol\":1700:1742  (bool sent, ) = to.call{value: _value}(\"\") */\n      pop\n      swap1\n      pop\n        /* \"contracts/GLDEsrow.sol\":1761:1765  sent */\n      dup1\n        /* \"contracts/GLDEsrow.sol\":1753:1790  require(sent, \"Failed to send Ether\") */\n      tag_141\n      jumpi\n      mload(0x40)\n      0x08c379a000000000000000000000000000000000000000000000000000000000\n      dup2\n      mstore\n      0x04\n      add\n      tag_142\n      swap1\n      tag_90\n      jump\t// in\n    tag_142:\n      mload(0x40)\n      dup1\n      swap2\n      sub\n      swap1\n      revert\n    tag_141:\n        /* \"contracts/GLDEsrow.sol\":1808:1826  receiverGLDAddress */\n      0x05\n        /* \"contracts/GLDEsrow.sol\":1808:1830  receiverGLDAddress[to] */\n      0x00\n        /* \"contracts/GLDEsrow.sol\":1827:1829  to */\n      dup5\n        /* \"contracts/GLDEsrow.sol\":1808:1830  receiverGLDAddress[to] */\n      0xffffffffffffffffffffffffffffffffffffffff\n      and\n      0xffffffffffffffffffffffffffffffffffffffff\n      and\n      dup2\n      mstore\n      0x20\n      add\n      swap1\n      dup2\n      mstore\n      0x20\n      add\n      0x00\n      keccak256\n        /* \"contracts/GLDEsrow.sol\":1801:1830  delete receiverGLDAddress[to] */\n      0x00\n      swap1\n      sstore\n        /* \"contracts/GLDEsrow.sol\":1846:1855  uint256 i */\n      0x00\n        /* \"contracts/GLDEsrow.sol\":1841:2073  for (uint256 i = 0; i < rollbackGLDAddresses[to].length; i++) {\r... */\n    tag_143:\n        /* \"contracts/GLDEsrow.sol\":1865:1885  rollbackGLDAddresses */\n      0x06\n        /* \"contracts/GLDEsrow.sol\":1865:1889  rollbackGLDAddresses[to] */\n      0x00\n        /* \"contracts/GLDEsrow.sol\":1886:1888  to */\n      dup6\n        /* \"contracts/GLDEsrow.sol\":1865:1889  rollbackGLDAddresses[to] */\n      0xffffffffffffffffffffffffffffffffffffffff\n      and\n      0xffffffffffffffffffffffffffffffffffffffff\n      and\n      dup2\n      mstore\n      0x20\n      add\n      swap1\n      dup2\n      mstore\n      0x20\n      add\n      0x00\n      keccak256\n        /* \"contracts/GLDEsrow.sol\":1865:1896  rollbackGLDAddresses[to].length */\n      dup1\n      sload\n      swap1\n      pop\n        /* \"contracts/GLDEsrow.sol\":1861:1862  i */\n      dup2\n        /* \"contracts/GLDEsrow.sol\":1861:1896  i < rollbackGLDAddresses[to].length */\n      lt\n        /* \"contracts/GLDEsrow.sol\":1841:2073  for (uint256 i = 0; i < rollbackGLDAddresses[to].length; i++) {\r... */\n      iszero\n      tag_144\n      jumpi\n        /* \"contracts/GLDEsrow.sol\":1918:1930  address from */\n      0x00\n        /* \"contracts/GLDEsrow.sol\":1933:1953  rollbackGLDAddresses */\n      0x06\n        /* \"contracts/GLDEsrow.sol\":1933:1957  rollbackGLDAddresses[to] */\n      0x00\n        /* \"contracts/GLDEsrow.sol\":1954:1956  to */\n      dup7\n        /* \"contracts/GLDEsrow.sol\":1933:1957  rollbackGLDAddresses[to] */\n      0xffffffffffffffffffffffffffffffffffffffff\n      and\n      0xffffffffffffffffffffffffffffffffffffffff\n      and\n      dup2\n      mstore\n      0x20\n      add\n      swap1\n      dup2\n      mstore\n      0x20\n      add\n      0x00\n      keccak256\n        /* \"contracts/GLDEsrow.sol\":1958:1959  i */\n      dup3\n        /* \"contracts/GLDEsrow.sol\":1933:1960  rollbackGLDAddresses[to][i] */\n      dup2\n      sload\n      dup2\n      lt\n      tag_146\n      jumpi\n      tag_147\n      tag_98\n      jump\t// in\n    tag_147:\n    tag_146:\n      swap1\n      0x00\n      mstore\n      keccak256(0x00, 0x20)\n      add\n      0x00\n      swap1\n      sload\n      swap1\n      0x0100\n      exp\n      swap1\n      div\n      0xffffffffffffffffffffffffffffffffffffffff\n      and\n        /* \"contracts/GLDEsrow.sol\":1918:1960  address from = rollbackGLDAddresses[to][i] */\n      swap1\n      pop\n        /* \"contracts/GLDEsrow.sol\":2007:2012  false */\n      0x00\n        /* \"contracts/GLDEsrow.sol\":1975:1994  rollbackGLDPossible */\n      0x07\n        /* \"contracts/GLDEsrow.sol\":1975:1998  rollbackGLDPossible[to] */\n      0x00\n        /* \"contracts/GLDEsrow.sol\":1995:1997  to */\n      dup8\n        /* \"contracts/GLDEsrow.sol\":1975:1998  rollbackGLDPossible[to] */\n      0xffffffffffffffffffffffffffffffffffffffff\n      and\n      0xffffffffffffffffffffffffffffffffffffffff\n      and\n      dup2\n      mstore\n      0x20\n      add\n      swap1\n      dup2\n      mstore\n      0x20\n      add\n      0x00\n      keccak256\n        /* \"contracts/GLDEsrow.sol\":1975:2004  rollbackGLDPossible[to][from] */\n      0x00\n        /* \"contracts/GLDEsrow.sol\":1999:2003  from */\n      dup4\n        /* \"contracts/GLDEsrow.sol\":1975:2004  rollbackGLDPossible[to][from] */\n      0xffffffffffffffffffffffffffffffffffffffff\n      and\n      0xffffffffffffffffffffffffffffffffffffffff\n      and\n      dup2\n      mstore\n      0x20\n      add\n      swap1\n      dup2\n      mstore\n      0x20\n      add\n      0x00\n      keccak256\n      0x00\n        /* \"contracts/GLDEsrow.sol\":1975:2012  rollbackGLDPossible[to][from] = false */\n      0x0100\n      exp\n      dup2\n      sload\n      dup2\n      0xff\n      mul\n      not\n      and\n      swap1\n      dup4\n      iszero\n      iszero\n      mul\n      or\n      swap1\n      sstore\n      pop\n        /* \"contracts/GLDEsrow.sol\":2034:2054  rollbackGLDAddresses */\n      0x06\n        /* \"contracts/GLDEsrow.sol\":2034:2058  rollbackGLDAddresses[to] */\n      0x00\n        /* \"contracts/GLDEsrow.sol\":2055:2057  to */\n      dup7\n        /* \"contracts/GLDEsrow.sol\":2034:2058  rollbackGLDAddresses[to] */\n      0xffffffffffffffffffffffffffffffffffffffff\n      and\n      0xffffffffffffffffffffffffffffffffffffffff\n      and\n      dup2\n      mstore\n      0x20\n      add\n      swap1\n      dup2\n      mstore\n      0x20\n      add\n      0x00\n      keccak256\n        /* \"contracts/GLDEsrow.sol\":2059:2060  i */\n      dup3\n        /* \"contracts/GLDEsrow.sol\":2034:2061  rollbackGLDAddresses[to][i] */\n      dup2\n      sload\n      dup2\n      lt\n      tag_149\n      jumpi\n      tag_150\n      tag_98\n      jump\t// in\n    tag_150:\n    tag_149:\n      swap1\n      0x00\n      mstore\n      keccak256(0x00, 0x20)\n      add\n      0x00\n        /* \"contracts/GLDEsrow.sol\":2027:2061  delete rollbackGLDAddresses[to][i] */\n      0x0100\n      exp\n      dup2\n      sload\n      swap1\n      0xffffffffffffffffffffffffffffffffffffffff\n      mul\n      not\n      and\n      swap1\n      sstore\n        /* \"contracts/GLDEsrow.sol\":1903:2073  {\r... */\n      pop\n        /* \"contracts/GLDEsrow.sol\":1898:1901  i++ */\n      dup1\n      dup1\n      tag_152\n      swap1\n      tag_105\n      jump\t// in\n    tag_152:\n      swap2\n      pop\n      pop\n        /* \"contracts/GLDEsrow.sol\":1841:2073  for (uint256 i = 0; i < rollbackGLDAddresses[to].length; i++) {\r... */\n      jump(tag_143)\n    tag_144:\n      pop\n        /* \"contracts/GLDEsrow.sol\":2100:2110  msg.sender */\n      caller\n        /* \"contracts/GLDEsrow.sol\":2088:2119  LogWithDraw(msg.sender, _value) */\n      0xffffffffffffffffffffffffffffffffffffffff\n      and\n      0xa74fab966bfc29d4ea7866d609ac5d94324a5fe817362d6a9fee5d2f8df46759\n        /* \"contracts/GLDEsrow.sol\":2112:2118  _value */\n      dup4\n        /* \"contracts/GLDEsrow.sol\":2088:2119  LogWithDraw(msg.sender, _value) */\n      mload(0x40)\n      tag_153\n      swap2\n      swap1\n      tag_42\n      jump\t// in\n    tag_153:\n      mload(0x40)\n      dup1\n      swap2\n      sub\n      swap1\n      log2\n        /* \"contracts/GLDEsrow.sol\":1523:2127  {\r... */\n      pop\n      pop\n      pop\n        /* \"contracts/GLDEsrow.sol\":1493:2127  function withdrawGLD() public {\r... */\n      jump\t// out\n        /* \"contracts/GLDEsrow.sol\":2135:2193  function rollbackGLD(address payable to) public {\r... */\n    tag_37:\n      pop\n      jump\t// out\n        /* \"contracts/Escrow.sol\":2508:2606  function getEtherBalance() public view returns (uint256) {\r... */\n    tag_40:\n        /* \"contracts/Escrow.sol\":2556:2563  uint256 */\n      0x00\n        /* \"contracts/Escrow.sol\":2579:2600  address(this).balance */\n      selfbalance\n        /* \"contracts/Escrow.sol\":2572:2600  return address(this).balance */\n      swap1\n      pop\n        /* \"contracts/Escrow.sol\":2508:2606  function getEtherBalance() public view returns (uint256) {\r... */\n      swap1\n      jump\t// out\n        /* \"#utility.yul\":7:162   */\n    tag_157:\n        /* \"#utility.yul\":61:66   */\n      0x00\n        /* \"#utility.yul\":99:105   */\n      dup2\n        /* \"#utility.yul\":86:106   */\n      calldataload\n        /* \"#utility.yul\":77:106   */\n      swap1\n      pop\n        /* \"#utility.yul\":115:156   */\n      tag_159\n        /* \"#utility.yul\":150:155   */\n      dup2\n        /* \"#utility.yul\":115:156   */\n      tag_160\n      jump\t// in\n    tag_159:\n        /* \"#utility.yul\":7:162   */\n      swap3\n      swap2\n      pop\n      pop\n      jump\t// out\n        /* \"#utility.yul\":168:305   */\n    tag_161:\n        /* \"#utility.yul\":222:227   */\n      0x00\n        /* \"#utility.yul\":253:259   */\n      dup2\n        /* \"#utility.yul\":247:260   */\n      mload\n        /* \"#utility.yul\":238:260   */\n      swap1\n      pop\n        /* \"#utility.yul\":269:299   */\n      tag_163\n        /* \"#utility.yul\":293:298   */\n      dup2\n        /* \"#utility.yul\":269:299   */\n      tag_164\n      jump\t// in\n    tag_163:\n        /* \"#utility.yul\":168:305   */\n      swap3\n      swap2\n      pop\n      pop\n      jump\t// out\n        /* \"#utility.yul\":311:450   */\n    tag_165:\n        /* \"#utility.yul\":357:362   */\n      0x00\n        /* \"#utility.yul\":395:401   */\n      dup2\n        /* \"#utility.yul\":382:402   */\n      calldataload\n        /* \"#utility.yul\":373:402   */\n      swap1\n      pop\n        /* \"#utility.yul\":411:444   */\n      tag_167\n        /* \"#utility.yul\":438:443   */\n      dup2\n        /* \"#utility.yul\":411:444   */\n      tag_168\n      jump\t// in\n    tag_167:\n        /* \"#utility.yul\":311:450   */\n      swap3\n      swap2\n      pop\n      pop\n      jump\t// out\n        /* \"#utility.yul\":456:599   */\n    tag_169:\n        /* \"#utility.yul\":513:518   */\n      0x00\n        /* \"#utility.yul\":544:550   */\n      dup2\n        /* \"#utility.yul\":538:551   */\n      mload\n        /* \"#utility.yul\":529:551   */\n      swap1\n      pop\n        /* \"#utility.yul\":560:593   */\n      tag_171\n        /* \"#utility.yul\":587:592   */\n      dup2\n        /* \"#utility.yul\":560:593   */\n      tag_168\n      jump\t// in\n    tag_171:\n        /* \"#utility.yul\":456:599   */\n      swap3\n      swap2\n      pop\n      pop\n      jump\t// out\n        /* \"#utility.yul\":605:950   */\n    tag_24:\n        /* \"#utility.yul\":672:678   */\n      0x00\n        /* \"#utility.yul\":721:723   */\n      0x20\n        /* \"#utility.yul\":709:718   */\n      dup3\n        /* \"#utility.yul\":700:707   */\n      dup5\n        /* \"#utility.yul\":696:719   */\n      sub\n        /* \"#utility.yul\":692:724   */\n      slt\n        /* \"#utility.yul\":689:808   */\n      iszero\n      tag_173\n      jumpi\n        /* \"#utility.yul\":727:806   */\n      tag_174\n      tag_175\n      jump\t// in\n    tag_174:\n        /* \"#utility.yul\":689:808   */\n    tag_173:\n        /* \"#utility.yul\":847:848   */\n      0x00\n        /* \"#utility.yul\":872:933   */\n      tag_176\n        /* \"#utility.yul\":925:932   */\n      dup5\n        /* \"#utility.yul\":916:922   */\n      dup3\n        /* \"#utility.yul\":905:914   */\n      dup6\n        /* \"#utility.yul\":901:923   */\n      add\n        /* \"#utility.yul\":872:933   */\n      tag_157\n      jump\t// in\n    tag_176:\n        /* \"#utility.yul\":862:933   */\n      swap2\n      pop\n        /* \"#utility.yul\":818:943   */\n      pop\n        /* \"#utility.yul\":605:950   */\n      swap3\n      swap2\n      pop\n      pop\n      jump\t// out\n        /* \"#utility.yul\":956:1446   */\n    tag_20:\n        /* \"#utility.yul\":1032:1038   */\n      0x00\n        /* \"#utility.yul\":1040:1046   */\n      dup1\n        /* \"#utility.yul\":1089:1091   */\n      0x40\n        /* \"#utility.yul\":1077:1086   */\n      dup4\n        /* \"#utility.yul\":1068:1075   */\n      dup6\n        /* \"#utility.yul\":1064:1087   */\n      sub\n        /* \"#utility.yul\":1060:1092   */\n      slt\n        /* \"#utility.yul\":1057:1176   */\n      iszero\n      tag_178\n      jumpi\n        /* \"#utility.yul\":1095:1174   */\n      tag_179\n      tag_175\n      jump\t// in\n    tag_179:\n        /* \"#utility.yul\":1057:1176   */\n    tag_178:\n        /* \"#utility.yul\":1215:1216   */\n      0x00\n        /* \"#utility.yul\":1240:1301   */\n      tag_180\n        /* \"#utility.yul\":1293:1300   */\n      dup6\n        /* \"#utility.yul\":1284:1290   */\n      dup3\n        /* \"#utility.yul\":1273:1282   */\n      dup7\n        /* \"#utility.yul\":1269:1291   */\n      add\n        /* \"#utility.yul\":1240:1301   */\n      tag_157\n      jump\t// in\n    tag_180:\n        /* \"#utility.yul\":1230:1301   */\n      swap3\n      pop\n        /* \"#utility.yul\":1186:1311   */\n      pop\n        /* \"#utility.yul\":1350:1352   */\n      0x20\n        /* \"#utility.yul\":1376:1429   */\n      tag_181\n        /* \"#utility.yul\":1421:1428   */\n      dup6\n        /* \"#utility.yul\":1412:1418   */\n      dup3\n        /* \"#utility.yul\":1401:1410   */\n      dup7\n        /* \"#utility.yul\":1397:1419   */\n      add\n        /* \"#utility.yul\":1376:1429   */\n      tag_165\n      jump\t// in\n    tag_181:\n        /* \"#utility.yul\":1366:1429   */\n      swap2\n      pop\n        /* \"#utility.yul\":1321:1439   */\n      pop\n        /* \"#utility.yul\":956:1446   */\n      swap3\n      pop\n      swap3\n      swap1\n      pop\n      jump\t// out\n        /* \"#utility.yul\":1452:1797   */\n    tag_69:\n        /* \"#utility.yul\":1519:1525   */\n      0x00\n        /* \"#utility.yul\":1568:1570   */\n      0x20\n        /* \"#utility.yul\":1556:1565   */\n      dup3\n        /* \"#utility.yul\":1547:1554   */\n      dup5\n        /* \"#utility.yul\":1543:1566   */\n      sub\n        /* \"#utility.yul\":1539:1571   */\n      slt\n        /* \"#utility.yul\":1536:1655   */\n      iszero\n      tag_183\n      jumpi\n        /* \"#utility.yul\":1574:1653   */\n      tag_184\n      tag_175\n      jump\t// in\n    tag_184:\n        /* \"#utility.yul\":1536:1655   */\n    tag_183:\n        /* \"#utility.yul\":1694:1695   */\n      0x00\n        /* \"#utility.yul\":1719:1780   */\n      tag_185\n        /* \"#utility.yul\":1772:1779   */\n      dup5\n        /* \"#utility.yul\":1763:1769   */\n      dup3\n        /* \"#utility.yul\":1752:1761   */\n      dup6\n        /* \"#utility.yul\":1748:1770   */\n      add\n        /* \"#utility.yul\":1719:1780   */\n      tag_161\n      jump\t// in\n    tag_185:\n        /* \"#utility.yul\":1709:1780   */\n      swap2\n      pop\n        /* \"#utility.yul\":1665:1790   */\n      pop\n        /* \"#utility.yul\":1452:1797   */\n      swap3\n      swap2\n      pop\n      pop\n      jump\t// out\n        /* \"#utility.yul\":1803:2154   */\n    tag_50:\n        /* \"#utility.yul\":1873:1879   */\n      0x00\n        /* \"#utility.yul\":1922:1924   */\n      0x20\n        /* \"#utility.yul\":1910:1919   */\n      dup3\n        /* \"#utility.yul\":1901:1908   */\n      dup5\n        /* \"#utility.yul\":1897:1920   */\n      sub\n        /* \"#utility.yul\":1893:1925   */\n      slt\n        /* \"#utility.yul\":1890:2009   */\n      iszero\n      tag_187\n      jumpi\n        /* \"#utility.yul\":1928:2007   */\n      tag_188\n      tag_175\n      jump\t// in\n    tag_188:\n        /* \"#utility.yul\":1890:2009   */\n    tag_187:\n        /* \"#utility.yul\":2048:2049   */\n      0x00\n        /* \"#utility.yul\":2073:2137   */\n      tag_189\n        /* \"#utility.yul\":2129:2136   */\n      dup5\n        /* \"#utility.yul\":2120:2126   */\n      dup3\n        /* \"#utility.yul\":2109:2118   */\n      dup6\n        /* \"#utility.yul\":2105:2127   */\n      add\n        /* \"#utility.yul\":2073:2137   */\n      tag_169\n      jump\t// in\n    tag_189:\n        /* \"#utility.yul\":2063:2137   */\n      swap2\n      pop\n        /* \"#utility.yul\":2019:2147   */\n      pop\n        /* \"#utility.yul\":1803:2154   */\n      swap3\n      swap2\n      pop\n      pop\n      jump\t// out\n        /* \"#utility.yul\":2160:2278   */\n    tag_190:\n        /* \"#utility.yul\":2247:2271   */\n      tag_192\n        /* \"#utility.yul\":2265:2270   */\n      dup2\n        /* \"#utility.yul\":2247:2271   */\n      tag_193\n      jump\t// in\n    tag_192:\n        /* \"#utility.yul\":2242:2245   */\n      dup3\n        /* \"#utility.yul\":2235:2272   */\n      mstore\n        /* \"#utility.yul\":2160:2278   */\n      pop\n      pop\n      jump\t// out\n        /* \"#utility.yul\":2284:2650   */\n    tag_194:\n        /* \"#utility.yul\":2426:2429   */\n      0x00\n        /* \"#utility.yul\":2447:2514   */\n      tag_196\n        /* \"#utility.yul\":2511:2513   */\n      0x1f\n        /* \"#utility.yul\":2506:2509   */\n      dup4\n        /* \"#utility.yul\":2447:2514   */\n      tag_197\n      jump\t// in\n    tag_196:\n        /* \"#utility.yul\":2440:2514   */\n      swap2\n      pop\n        /* \"#utility.yul\":2523:2616   */\n      tag_198\n        /* \"#utility.yul\":2612:2615   */\n      dup3\n        /* \"#utility.yul\":2523:2616   */\n      tag_199\n      jump\t// in\n    tag_198:\n        /* \"#utility.yul\":2641:2643   */\n      0x20\n        /* \"#utility.yul\":2636:2639   */\n      dup3\n        /* \"#utility.yul\":2632:2644   */\n      add\n        /* \"#utility.yul\":2625:2644   */\n      swap1\n      pop\n        /* \"#utility.yul\":2284:2650   */\n      swap2\n      swap1\n      pop\n      jump\t// out\n        /* \"#utility.yul\":2656:3022   */\n    tag_200:\n        /* \"#utility.yul\":2798:2801   */\n      0x00\n        /* \"#utility.yul\":2819:2886   */\n      tag_202\n        /* \"#utility.yul\":2883:2885   */\n      0x14\n        /* \"#utility.yul\":2878:2881   */\n      dup4\n        /* \"#utility.yul\":2819:2886   */\n      tag_197\n      jump\t// in\n    tag_202:\n        /* \"#utility.yul\":2812:2886   */\n      swap2\n      pop\n        /* \"#utility.yul\":2895:2988   */\n      tag_203\n        /* \"#utility.yul\":2984:2987   */\n      dup3\n        /* \"#utility.yul\":2895:2988   */\n      tag_204\n      jump\t// in\n    tag_203:\n        /* \"#utility.yul\":3013:3015   */\n      0x20\n        /* \"#utility.yul\":3008:3011   */\n      dup3\n        /* \"#utility.yul\":3004:3016   */\n      add\n        /* \"#utility.yul\":2997:3016   */\n      swap1\n      pop\n        /* \"#utility.yul\":2656:3022   */\n      swap2\n      swap1\n      pop\n      jump\t// out\n        /* \"#utility.yul\":3028:3394   */\n    tag_205:\n        /* \"#utility.yul\":3170:3173   */\n      0x00\n        /* \"#utility.yul\":3191:3258   */\n      tag_207\n        /* \"#utility.yul\":3255:3257   */\n      0x21\n        /* \"#utility.yul\":3250:3253   */\n      dup4\n        /* \"#utility.yul\":3191:3258   */\n      tag_197\n      jump\t// in\n    tag_207:\n        /* \"#utility.yul\":3184:3258   */\n      swap2\n      pop\n        /* \"#utility.yul\":3267:3360   */\n      tag_208\n        /* \"#utility.yul\":3356:3359   */\n      dup3\n        /* \"#utility.yul\":3267:3360   */\n      tag_209\n      jump\t// in\n    tag_208:\n        /* \"#utility.yul\":3385:3387   */\n      0x40\n        /* \"#utility.yul\":3380:3383   */\n      dup3\n        /* \"#utility.yul\":3376:3388   */\n      add\n        /* \"#utility.yul\":3369:3388   */\n      swap1\n      pop\n        /* \"#utility.yul\":3028:3394   */\n      swap2\n      swap1\n      pop\n      jump\t// out\n        /* \"#utility.yul\":3400:3766   */\n    tag_210:\n        /* \"#utility.yul\":3542:3545   */\n      0x00\n        /* \"#utility.yul\":3563:3630   */\n      tag_212\n        /* \"#utility.yul\":3627:3629   */\n      0x19\n        /* \"#utility.yul\":3622:3625   */\n      dup4\n        /* \"#utility.yul\":3563:3630   */\n      tag_197\n      jump\t// in\n    tag_212:\n        /* \"#utility.yul\":3556:3630   */\n      swap2\n      pop\n        /* \"#utility.yul\":3639:3732   */\n      tag_213\n        /* \"#utility.yul\":3728:3731   */\n      dup3\n        /* \"#utility.yul\":3639:3732   */\n      tag_214\n      jump\t// in\n    tag_213:\n        /* \"#utility.yul\":3757:3759   */\n      0x20\n        /* \"#utility.yul\":3752:3755   */\n      dup3\n        /* \"#utility.yul\":3748:3760   */\n      add\n        /* \"#utility.yul\":3741:3760   */\n      swap1\n      pop\n        /* \"#utility.yul\":3400:3766   */\n      swap2\n      swap1\n      pop\n      jump\t// out\n        /* \"#utility.yul\":3772:4138   */\n    tag_215:\n        /* \"#utility.yul\":3914:3917   */\n      0x00\n        /* \"#utility.yul\":3935:4002   */\n      tag_217\n        /* \"#utility.yul\":3999:4001   */\n      0x45\n        /* \"#utility.yul\":3994:3997   */\n      dup4\n        /* \"#utility.yul\":3935:4002   */\n      tag_197\n      jump\t// in\n    tag_217:\n        /* \"#utility.yul\":3928:4002   */\n      swap2\n      pop\n        /* \"#utility.yul\":4011:4104   */\n      tag_218\n        /* \"#utility.yul\":4100:4103   */\n      dup3\n        /* \"#utility.yul\":4011:4104   */\n      tag_219\n      jump\t// in\n    tag_218:\n        /* \"#utility.yul\":4129:4131   */\n      0x60\n        /* \"#utility.yul\":4124:4127   */\n      dup3\n        /* \"#utility.yul\":4120:4132   */\n      add\n        /* \"#utility.yul\":4113:4132   */\n      swap1\n      pop\n        /* \"#utility.yul\":3772:4138   */\n      swap2\n      swap1\n      pop\n      jump\t// out\n        /* \"#utility.yul\":4144:4542   */\n    tag_220:\n        /* \"#utility.yul\":4303:4306   */\n      0x00\n        /* \"#utility.yul\":4324:4407   */\n      tag_222\n        /* \"#utility.yul\":4405:4406   */\n      0x00\n        /* \"#utility.yul\":4400:4403   */\n      dup4\n        /* \"#utility.yul\":4324:4407   */\n      tag_223\n      jump\t// in\n    tag_222:\n        /* \"#utility.yul\":4317:4407   */\n      swap2\n      pop\n        /* \"#utility.yul\":4416:4509   */\n      tag_224\n        /* \"#utility.yul\":4505:4508   */\n      dup3\n        /* \"#utility.yul\":4416:4509   */\n      tag_225\n      jump\t// in\n    tag_224:\n        /* \"#utility.yul\":4534:4535   */\n      0x00\n        /* \"#utility.yul\":4529:4532   */\n      dup3\n        /* \"#utility.yul\":4525:4536   */\n      add\n        /* \"#utility.yul\":4518:4536   */\n      swap1\n      pop\n        /* \"#utility.yul\":4144:4542   */\n      swap2\n      swap1\n      pop\n      jump\t// out\n        /* \"#utility.yul\":4548:4914   */\n    tag_226:\n        /* \"#utility.yul\":4690:4693   */\n      0x00\n        /* \"#utility.yul\":4711:4778   */\n      tag_228\n        /* \"#utility.yul\":4775:4777   */\n      0x1e\n        /* \"#utility.yul\":4770:4773   */\n      dup4\n        /* \"#utility.yul\":4711:4778   */\n      tag_197\n      jump\t// in\n    tag_228:\n        /* \"#utility.yul\":4704:4778   */\n      swap2\n      pop\n        /* \"#utility.yul\":4787:4880   */\n      tag_229\n        /* \"#utility.yul\":4876:4879   */\n      dup3\n        /* \"#utility.yul\":4787:4880   */\n      tag_230\n      jump\t// in\n    tag_229:\n        /* \"#utility.yul\":4905:4907   */\n      0x20\n        /* \"#utility.yul\":4900:4903   */\n      dup3\n        /* \"#utility.yul\":4896:4908   */\n      add\n        /* \"#utility.yul\":4889:4908   */\n      swap1\n      pop\n        /* \"#utility.yul\":4548:4914   */\n      swap2\n      swap1\n      pop\n      jump\t// out\n        /* \"#utility.yul\":4920:5286   */\n    tag_231:\n        /* \"#utility.yul\":5062:5065   */\n      0x00\n        /* \"#utility.yul\":5083:5150   */\n      tag_233\n        /* \"#utility.yul\":5147:5149   */\n      0x13\n        /* \"#utility.yul\":5142:5145   */\n      dup4\n        /* \"#utility.yul\":5083:5150   */\n      tag_197\n      jump\t// in\n    tag_233:\n        /* \"#utility.yul\":5076:5150   */\n      swap2\n      pop\n        /* \"#utility.yul\":5159:5252   */\n      tag_234\n        /* \"#utility.yul\":5248:5251   */\n      dup3\n        /* \"#utility.yul\":5159:5252   */\n      tag_235\n      jump\t// in\n    tag_234:\n        /* \"#utility.yul\":5277:5279   */\n      0x20\n        /* \"#utility.yul\":5272:5275   */\n      dup3\n        /* \"#utility.yul\":5268:5280   */\n      add\n        /* \"#utility.yul\":5261:5280   */\n      swap1\n      pop\n        /* \"#utility.yul\":4920:5286   */\n      swap2\n      swap1\n      pop\n      jump\t// out\n        /* \"#utility.yul\":5292:5658   */\n    tag_236:\n        /* \"#utility.yul\":5434:5437   */\n      0x00\n        /* \"#utility.yul\":5455:5522   */\n      tag_238\n        /* \"#utility.yul\":5519:5521   */\n      0x19\n        /* \"#utility.yul\":5514:5517   */\n      dup4\n        /* \"#utility.yul\":5455:5522   */\n      tag_197\n      jump\t// in\n    tag_238:\n        /* \"#utility.yul\":5448:5522   */\n      swap2\n      pop\n        /* \"#utility.yul\":5531:5624   */\n      tag_239\n        /* \"#utility.yul\":5620:5623   */\n      dup3\n        /* \"#utility.yul\":5531:5624   */\n      tag_240\n      jump\t// in\n    tag_239:\n        /* \"#utility.yul\":5649:5651   */\n      0x20\n        /* \"#utility.yul\":5644:5647   */\n      dup3\n        /* \"#utility.yul\":5640:5652   */\n      add\n        /* \"#utility.yul\":5633:5652   */\n      swap1\n      pop\n        /* \"#utility.yul\":5292:5658   */\n      swap2\n      swap1\n      pop\n      jump\t// out\n        /* \"#utility.yul\":5664:5782   */\n    tag_241:\n        /* \"#utility.yul\":5751:5775   */\n      tag_243\n        /* \"#utility.yul\":5769:5774   */\n      dup2\n        /* \"#utility.yul\":5751:5775   */\n      tag_244\n      jump\t// in\n    tag_243:\n        /* \"#utility.yul\":5746:5749   */\n      dup3\n        /* \"#utility.yul\":5739:5776   */\n      mstore\n        /* \"#utility.yul\":5664:5782   */\n      pop\n      pop\n      jump\t// out\n        /* \"#utility.yul\":5788:6167   */\n    tag_84:\n        /* \"#utility.yul\":5972:5975   */\n      0x00\n        /* \"#utility.yul\":5994:6141   */\n      tag_246\n        /* \"#utility.yul\":6137:6140   */\n      dup3\n        /* \"#utility.yul\":5994:6141   */\n      tag_220\n      jump\t// in\n    tag_246:\n        /* \"#utility.yul\":5987:6141   */\n      swap2\n      pop\n        /* \"#utility.yul\":6158:6161   */\n      dup2\n        /* \"#utility.yul\":6151:6161   */\n      swap1\n      pop\n        /* \"#utility.yul\":5788:6167   */\n      swap2\n      swap1\n      pop\n      jump\t// out\n        /* \"#utility.yul\":6173:6395   */\n    tag_45:\n        /* \"#utility.yul\":6266:6270   */\n      0x00\n        /* \"#utility.yul\":6304:6306   */\n      0x20\n        /* \"#utility.yul\":6293:6302   */\n      dup3\n        /* \"#utility.yul\":6289:6307   */\n      add\n        /* \"#utility.yul\":6281:6307   */\n      swap1\n      pop\n        /* \"#utility.yul\":6317:6388   */\n      tag_248\n        /* \"#utility.yul\":6385:6386   */\n      0x00\n        /* \"#utility.yul\":6374:6383   */\n      dup4\n        /* \"#utility.yul\":6370:6387   */\n      add\n        /* \"#utility.yul\":6361:6367   */\n      dup5\n        /* \"#utility.yul\":6317:6388   */\n      tag_190\n      jump\t// in\n    tag_248:\n        /* \"#utility.yul\":6173:6395   */\n      swap3\n      swap2\n      pop\n      pop\n      jump\t// out\n        /* \"#utility.yul\":6401:6733   */\n    tag_55:\n        /* \"#utility.yul\":6522:6526   */\n      0x00\n        /* \"#utility.yul\":6560:6562   */\n      0x40\n        /* \"#utility.yul\":6549:6558   */\n      dup3\n        /* \"#utility.yul\":6545:6563   */\n      add\n        /* \"#utility.yul\":6537:6563   */\n      swap1\n      pop\n        /* \"#utility.yul\":6573:6644   */\n      tag_250\n        /* \"#utility.yul\":6641:6642   */\n      0x00\n        /* \"#utility.yul\":6630:6639   */\n      dup4\n        /* \"#utility.yul\":6626:6643   */\n      add\n        /* \"#utility.yul\":6617:6623   */\n      dup6\n        /* \"#utility.yul\":6573:6644   */\n      tag_190\n      jump\t// in\n    tag_250:\n        /* \"#utility.yul\":6654:6726   */\n      tag_251\n        /* \"#utility.yul\":6722:6724   */\n      0x20\n        /* \"#utility.yul\":6711:6720   */\n      dup4\n        /* \"#utility.yul\":6707:6725   */\n      add\n        /* \"#utility.yul\":6698:6704   */\n      dup5\n        /* \"#utility.yul\":6654:6726   */\n      tag_190\n      jump\t// in\n    tag_251:\n        /* \"#utility.yul\":6401:6733   */\n      swap4\n      swap3\n      pop\n      pop\n      pop\n      jump\t// out\n        /* \"#utility.yul\":6739:7181   */\n    tag_64:\n        /* \"#utility.yul\":6888:6892   */\n      0x00\n        /* \"#utility.yul\":6926:6928   */\n      0x60\n        /* \"#utility.yul\":6915:6924   */\n      dup3\n        /* \"#utility.yul\":6911:6929   */\n      add\n        /* \"#utility.yul\":6903:6929   */\n      swap1\n      pop\n        /* \"#utility.yul\":6939:7010   */\n      tag_253\n        /* \"#utility.yul\":7007:7008   */\n      0x00\n        /* \"#utility.yul\":6996:7005   */\n      dup4\n        /* \"#utility.yul\":6992:7009   */\n      add\n        /* \"#utility.yul\":6983:6989   */\n      dup7\n        /* \"#utility.yul\":6939:7010   */\n      tag_190\n      jump\t// in\n    tag_253:\n        /* \"#utility.yul\":7020:7092   */\n      tag_254\n        /* \"#utility.yul\":7088:7090   */\n      0x20\n        /* \"#utility.yul\":7077:7086   */\n      dup4\n        /* \"#utility.yul\":7073:7091   */\n      add\n        /* \"#utility.yul\":7064:7070   */\n      dup6\n        /* \"#utility.yul\":7020:7092   */\n      tag_190\n      jump\t// in\n    tag_254:\n        /* \"#utility.yul\":7102:7174   */\n      tag_255\n        /* \"#utility.yul\":7170:7172   */\n      0x40\n        /* \"#utility.yul\":7159:7168   */\n      dup4\n        /* \"#utility.yul\":7155:7173   */\n      add\n        /* \"#utility.yul\":7146:7152   */\n      dup5\n        /* \"#utility.yul\":7102:7174   */\n      tag_241\n      jump\t// in\n    tag_255:\n        /* \"#utility.yul\":6739:7181   */\n      swap5\n      swap4\n      pop\n      pop\n      pop\n      pop\n      jump\t// out\n        /* \"#utility.yul\":7187:7606   */\n    tag_16:\n        /* \"#utility.yul\":7353:7357   */\n      0x00\n        /* \"#utility.yul\":7391:7393   */\n      0x20\n        /* \"#utility.yul\":7380:7389   */\n      dup3\n        /* \"#utility.yul\":7376:7394   */\n      add\n        /* \"#utility.yul\":7368:7394   */\n      swap1\n      pop\n        /* \"#utility.yul\":7440:7449   */\n      dup2\n        /* \"#utility.yul\":7434:7438   */\n      dup2\n        /* \"#utility.yul\":7430:7450   */\n      sub\n        /* \"#utility.yul\":7426:7427   */\n      0x00\n        /* \"#utility.yul\":7415:7424   */\n      dup4\n        /* \"#utility.yul\":7411:7428   */\n      add\n        /* \"#utility.yul\":7404:7451   */\n      mstore\n        /* \"#utility.yul\":7468:7599   */\n      tag_257\n        /* \"#utility.yul\":7594:7598   */\n      dup2\n        /* \"#utility.yul\":7468:7599   */\n      tag_194\n      jump\t// in\n    tag_257:\n        /* \"#utility.yul\":7460:7599   */\n      swap1\n      pop\n        /* \"#utility.yul\":7187:7606   */\n      swap2\n      swap1\n      pop\n      jump\t// out\n        /* \"#utility.yul\":7612:8031   */\n    tag_90:\n        /* \"#utility.yul\":7778:7782   */\n      0x00\n        /* \"#utility.yul\":7816:7818   */\n      0x20\n        /* \"#utility.yul\":7805:7814   */\n      dup3\n        /* \"#utility.yul\":7801:7819   */\n      add\n        /* \"#utility.yul\":7793:7819   */\n      swap1\n      pop\n        /* \"#utility.yul\":7865:7874   */\n      dup2\n        /* \"#utility.yul\":7859:7863   */\n      dup2\n        /* \"#utility.yul\":7855:7875   */\n      sub\n        /* \"#utility.yul\":7851:7852   */\n      0x00\n        /* \"#utility.yul\":7840:7849   */\n      dup4\n        /* \"#utility.yul\":7836:7853   */\n      add\n        /* \"#utility.yul\":7829:7876   */\n      mstore\n        /* \"#utility.yul\":7893:8024   */\n      tag_259\n        /* \"#utility.yul\":8019:8023   */\n      dup2\n        /* \"#utility.yul\":7893:8024   */\n      tag_200\n      jump\t// in\n    tag_259:\n        /* \"#utility.yul\":7885:8024   */\n      swap1\n      pop\n        /* \"#utility.yul\":7612:8031   */\n      swap2\n      swap1\n      pop\n      jump\t// out\n        /* \"#utility.yul\":8037:8456   */\n    tag_115:\n        /* \"#utility.yul\":8203:8207   */\n      0x00\n        /* \"#utility.yul\":8241:8243   */\n      0x20\n        /* \"#utility.yul\":8230:8239   */\n      dup3\n        /* \"#utility.yul\":8226:8244   */\n      add\n        /* \"#utility.yul\":8218:8244   */\n      swap1\n      pop\n        /* \"#utility.yul\":8290:8299   */\n      dup2\n        /* \"#utility.yul\":8284:8288   */\n      dup2\n        /* \"#utility.yul\":8280:8300   */\n      sub\n        /* \"#utility.yul\":8276:8277   */\n      0x00\n        /* \"#utility.yul\":8265:8274   */\n      dup4\n        /* \"#utility.yul\":8261:8278   */\n      add\n        /* \"#utility.yul\":8254:8301   */\n      mstore\n        /* \"#utility.yul\":8318:8449   */\n      tag_261\n        /* \"#utility.yul\":8444:8448   */\n      dup2\n        /* \"#utility.yul\":8318:8449   */\n      tag_205\n      jump\t// in\n    tag_261:\n        /* \"#utility.yul\":8310:8449   */\n      swap1\n      pop\n        /* \"#utility.yul\":8037:8456   */\n      swap2\n      swap1\n      pop\n      jump\t// out\n        /* \"#utility.yul\":8462:8881   */\n    tag_62:\n        /* \"#utility.yul\":8628:8632   */\n      0x00\n        /* \"#utility.yul\":8666:8668   */\n      0x20\n        /* \"#utility.yul\":8655:8664   */\n      dup3\n        /* \"#utility.yul\":8651:8669   */\n      add\n        /* \"#utility.yul\":8643:8669   */\n      swap1\n      pop\n        /* \"#utility.yul\":8715:8724   */\n      dup2\n        /* \"#utility.yul\":8709:8713   */\n      dup2\n        /* \"#utility.yul\":8705:8725   */\n      sub\n        /* \"#utility.yul\":8701:8702   */\n      0x00\n        /* \"#utility.yul\":8690:8699   */\n      dup4\n        /* \"#utility.yul\":8686:8703   */\n      add\n        /* \"#utility.yul\":8679:8726   */\n      mstore\n        /* \"#utility.yul\":8743:8874   */\n      tag_263\n        /* \"#utility.yul\":8869:8873   */\n      dup2\n        /* \"#utility.yul\":8743:8874   */\n      tag_210\n      jump\t// in\n    tag_263:\n        /* \"#utility.yul\":8735:8874   */\n      swap1\n      pop\n        /* \"#utility.yul\":8462:8881   */\n      swap2\n      swap1\n      pop\n      jump\t// out\n        /* \"#utility.yul\":8887:9306   */\n    tag_79:\n        /* \"#utility.yul\":9053:9057   */\n      0x00\n        /* \"#utility.yul\":9091:9093   */\n      0x20\n        /* \"#utility.yul\":9080:9089   */\n      dup3\n        /* \"#utility.yul\":9076:9094   */\n      add\n        /* \"#utility.yul\":9068:9094   */\n      swap1\n      pop\n        /* \"#utility.yul\":9140:9149   */\n      dup2\n        /* \"#utility.yul\":9134:9138   */\n      dup2\n        /* \"#utility.yul\":9130:9150   */\n      sub\n        /* \"#utility.yul\":9126:9127   */\n      0x00\n        /* \"#utility.yul\":9115:9124   */\n      dup4\n        /* \"#utility.yul\":9111:9128   */\n      add\n        /* \"#utility.yul\":9104:9151   */\n      mstore\n        /* \"#utility.yul\":9168:9299   */\n      tag_265\n        /* \"#utility.yul\":9294:9298   */\n      dup2\n        /* \"#utility.yul\":9168:9299   */\n      tag_215\n      jump\t// in\n    tag_265:\n        /* \"#utility.yul\":9160:9299   */\n      swap1\n      pop\n        /* \"#utility.yul\":8887:9306   */\n      swap2\n      swap1\n      pop\n      jump\t// out\n        /* \"#utility.yul\":9312:9731   */\n    tag_136:\n        /* \"#utility.yul\":9478:9482   */\n      0x00\n        /* \"#utility.yul\":9516:9518   */\n      0x20\n        /* \"#utility.yul\":9505:9514   */\n      dup3\n        /* \"#utility.yul\":9501:9519   */\n      add\n        /* \"#utility.yul\":9493:9519   */\n      swap1\n      pop\n        /* \"#utility.yul\":9565:9574   */\n      dup2\n        /* \"#utility.yul\":9559:9563   */\n      dup2\n        /* \"#utility.yul\":9555:9575   */\n      sub\n        /* \"#utility.yul\":9551:9552   */\n      0x00\n        /* \"#utility.yul\":9540:9549   */\n      dup4\n        /* \"#utility.yul\":9536:9553   */\n      add\n        /* \"#utility.yul\":9529:9576   */\n      mstore\n        /* \"#utility.yul\":9593:9724   */\n      tag_267\n        /* \"#utility.yul\":9719:9723   */\n      dup2\n        /* \"#utility.yul\":9593:9724   */\n      tag_226\n      jump\t// in\n    tag_267:\n        /* \"#utility.yul\":9585:9724   */\n      swap1\n      pop\n        /* \"#utility.yul\":9312:9731   */\n      swap2\n      swap1\n      pop\n      jump\t// out\n        /* \"#utility.yul\":9737:10156   */\n    tag_82:\n        /* \"#utility.yul\":9903:9907   */\n      0x00\n        /* \"#utility.yul\":9941:9943   */\n      0x20\n        /* \"#utility.yul\":9930:9939   */\n      dup3\n        /* \"#utility.yul\":9926:9944   */\n      add\n        /* \"#utility.yul\":9918:9944   */\n      swap1\n      pop\n        /* \"#utility.yul\":9990:9999   */\n      dup2\n        /* \"#utility.yul\":9984:9988   */\n      dup2\n        /* \"#utility.yul\":9980:10000   */\n      sub\n        /* \"#utility.yul\":9976:9977   */\n      0x00\n        /* \"#utility.yul\":9965:9974   */\n      dup4\n        /* \"#utility.yul\":9961:9978   */\n      add\n        /* \"#utility.yul\":9954:10001   */\n      mstore\n        /* \"#utility.yul\":10018:10149   */\n      tag_269\n        /* \"#utility.yul\":10144:10148   */\n      dup2\n        /* \"#utility.yul\":10018:10149   */\n      tag_231\n      jump\t// in\n    tag_269:\n        /* \"#utility.yul\":10010:10149   */\n      swap1\n      pop\n        /* \"#utility.yul\":9737:10156   */\n      swap2\n      swap1\n      pop\n      jump\t// out\n        /* \"#utility.yul\":10162:10581   */\n    tag_53:\n        /* \"#utility.yul\":10328:10332   */\n      0x00\n        /* \"#utility.yul\":10366:10368   */\n      0x20\n        /* \"#utility.yul\":10355:10364   */\n      dup3\n        /* \"#utility.yul\":10351:10369   */\n      add\n        /* \"#utility.yul\":10343:10369   */\n      swap1\n      pop\n        /* \"#utility.yul\":10415:10424   */\n      dup2\n        /* \"#utility.yul\":10409:10413   */\n      dup2\n        /* \"#utility.yul\":10405:10425   */\n      sub\n        /* \"#utility.yul\":10401:10402   */\n      0x00\n        /* \"#utility.yul\":10390:10399   */\n      dup4\n        /* \"#utility.yul\":10386:10403   */\n      add\n        /* \"#utility.yul\":10379:10426   */\n      mstore\n        /* \"#utility.yul\":10443:10574   */\n      tag_271\n        /* \"#utility.yul\":10569:10573   */\n      dup2\n        /* \"#utility.yul\":10443:10574   */\n      tag_236\n      jump\t// in\n    tag_271:\n        /* \"#utility.yul\":10435:10574   */\n      swap1\n      pop\n        /* \"#utility.yul\":10162:10581   */\n      swap2\n      swap1\n      pop\n      jump\t// out\n        /* \"#utility.yul\":10587:10809   */\n    tag_42:\n        /* \"#utility.yul\":10680:10684   */\n      0x00\n        /* \"#utility.yul\":10718:10720   */\n      0x20\n        /* \"#utility.yul\":10707:10716   */\n      dup3\n        /* \"#utility.yul\":10703:10721   */\n      add\n        /* \"#utility.yul\":10695:10721   */\n      swap1\n      pop\n        /* \"#utility.yul\":10731:10802   */\n      tag_273\n        /* \"#utility.yul\":10799:10800   */\n      0x00\n        /* \"#utility.yul\":10788:10797   */\n      dup4\n        /* \"#utility.yul\":10784:10801   */\n      add\n        /* \"#utility.yul\":10775:10781   */\n      dup5\n        /* \"#utility.yul\":10731:10802   */\n      tag_241\n      jump\t// in\n    tag_273:\n        /* \"#utility.yul\":10587:10809   */\n      swap3\n      swap2\n      pop\n      pop\n      jump\t// out\n        /* \"#utility.yul\":10896:11043   */\n    tag_223:\n        /* \"#utility.yul\":10997:11008   */\n      0x00\n        /* \"#utility.yul\":11034:11037   */\n      dup2\n        /* \"#utility.yul\":11019:11037   */\n      swap1\n      pop\n        /* \"#utility.yul\":10896:11043   */\n      swap3\n      swap2\n      pop\n      pop\n      jump\t// out\n        /* \"#utility.yul\":11049:11218   */\n    tag_197:\n        /* \"#utility.yul\":11133:11144   */\n      0x00\n        /* \"#utility.yul\":11167:11173   */\n      dup3\n        /* \"#utility.yul\":11162:11165   */\n      dup3\n        /* \"#utility.yul\":11155:11174   */\n      mstore\n        /* \"#utility.yul\":11207:11211   */\n      0x20\n        /* \"#utility.yul\":11202:11205   */\n      dup3\n        /* \"#utility.yul\":11198:11212   */\n      add\n        /* \"#utility.yul\":11183:11212   */\n      swap1\n      pop\n        /* \"#utility.yul\":11049:11218   */\n      swap3\n      swap2\n      pop\n      pop\n      jump\t// out\n        /* \"#utility.yul\":11224:11529   */\n    tag_71:\n        /* \"#utility.yul\":11264:11267   */\n      0x00\n        /* \"#utility.yul\":11283:11303   */\n      tag_279\n        /* \"#utility.yul\":11301:11302   */\n      dup3\n        /* \"#utility.yul\":11283:11303   */\n      tag_244\n      jump\t// in\n    tag_279:\n        /* \"#utility.yul\":11278:11303   */\n      swap2\n      pop\n        /* \"#utility.yul\":11317:11337   */\n      tag_280\n        /* \"#utility.yul\":11335:11336   */\n      dup4\n        /* \"#utility.yul\":11317:11337   */\n      tag_244\n      jump\t// in\n    tag_280:\n        /* \"#utility.yul\":11312:11337   */\n      swap3\n      pop\n        /* \"#utility.yul\":11471:11472   */\n      dup3\n        /* \"#utility.yul\":11403:11469   */\n      0xffffffffffffffffffffffffffffffffffffffffffffffffffffffffffffffff\n        /* \"#utility.yul\":11399:11473   */\n      sub\n        /* \"#utility.yul\":11396:11397   */\n      dup3\n        /* \"#utility.yul\":11393:11474   */\n      gt\n        /* \"#utility.yul\":11390:11497   */\n      iszero\n      tag_281\n      jumpi\n        /* \"#utility.yul\":11477:11495   */\n      tag_282\n      tag_283\n      jump\t// in\n    tag_282:\n        /* \"#utility.yul\":11390:11497   */\n    tag_281:\n        /* \"#utility.yul\":11521:11522   */\n      dup3\n        /* \"#utility.yul\":11518:11519   */\n      dup3\n        /* \"#utility.yul\":11514:11523   */\n      add\n        /* \"#utility.yul\":11507:11523   */\n      swap1\n      pop\n        /* \"#utility.yul\":11224:11529   */\n      swap3\n      swap2\n      pop\n      pop\n      jump\t// out\n        /* \"#utility.yul\":11535:11726   */\n    tag_92:\n        /* \"#utility.yul\":11575:11579   */\n      0x00\n        /* \"#utility.yul\":11595:11615   */\n      tag_285\n        /* \"#utility.yul\":11613:11614   */\n      dup3\n        /* \"#utility.yul\":11595:11615   */\n      tag_244\n      jump\t// in\n    tag_285:\n        /* \"#utility.yul\":11590:11615   */\n      swap2\n      pop\n        /* \"#utility.yul\":11629:11649   */\n      tag_286\n        /* \"#utility.yul\":11647:11648   */\n      dup4\n        /* \"#utility.yul\":11629:11649   */\n      tag_244\n      jump\t// in\n    tag_286:\n        /* \"#utility.yul\":11624:11649   */\n      swap3\n      pop\n        /* \"#utility.yul\":11668:11669   */\n      dup3\n        /* \"#utility.yul\":11665:11666   */\n      dup3\n        /* \"#utility.yul\":11662:11670   */\n      lt\n        /* \"#utility.yul\":11659:11693   */\n      iszero\n      tag_287\n      jumpi\n        /* \"#utility.yul\":11673:11691   */\n      tag_288\n      tag_283\n      jump\t// in\n    tag_288:\n        /* \"#utility.yul\":11659:11693   */\n    tag_287:\n        /* \"#utility.yul\":11718:11719   */\n      dup3\n        /* \"#utility.yul\":11715:11716   */\n      dup3\n        /* \"#utility.yul\":11711:11720   */\n      sub\n        /* \"#utility.yul\":11703:11720   */\n      swap1\n      pop\n        /* \"#utility.yul\":11535:11726   */\n      swap3\n      swap2\n      pop\n      pop\n      jump\t// out\n        /* \"#utility.yul\":11732:11828   */\n    tag_193:\n        /* \"#utility.yul\":11769:11776   */\n      0x00\n        /* \"#utility.yul\":11798:11822   */\n      tag_290\n        /* \"#utility.yul\":11816:11821   */\n      dup3\n        /* \"#utility.yul\":11798:11822   */\n      tag_291\n      jump\t// in\n    tag_290:\n        /* \"#utility.yul\":11787:11822   */\n      swap1\n      pop\n        /* \"#utility.yul\":11732:11828   */\n      swap2\n      swap1\n      pop\n      jump\t// out\n        /* \"#utility.yul\":11834:11938   */\n    tag_292:\n        /* \"#utility.yul\":11879:11886   */\n      0x00\n        /* \"#utility.yul\":11908:11932   */\n      tag_294\n        /* \"#utility.yul\":11926:11931   */\n      dup3\n        /* \"#utility.yul\":11908:11932   */\n      tag_291\n      jump\t// in\n    tag_294:\n        /* \"#utility.yul\":11897:11932   */\n      swap1\n      pop\n        /* \"#utility.yul\":11834:11938   */\n      swap2\n      swap1\n      pop\n      jump\t// out\n        /* \"#utility.yul\":11944:12034   */\n    tag_295:\n        /* \"#utility.yul\":11978:11985   */\n      0x00\n        /* \"#utility.yul\":12021:12026   */\n      dup2\n        /* \"#utility.yul\":12014:12027   */\n      iszero\n        /* \"#utility.yul\":12007:12028   */\n      iszero\n        /* \"#utility.yul\":11996:12028   */\n      swap1\n      pop\n        /* \"#utility.yul\":11944:12034   */\n      swap2\n      swap1\n      pop\n      jump\t// out\n        /* \"#utility.yul\":12040:12166   */\n    tag_291:\n        /* \"#utility.yul\":12077:12084   */\n      0x00\n        /* \"#utility.yul\":12117:12159   */\n      0xffffffffffffffffffffffffffffffffffffffff\n        /* \"#utility.yul\":12110:12115   */\n      dup3\n        /* \"#utility.yul\":12106:12160   */\n      and\n        /* \"#utility.yul\":12095:12160   */\n      swap1\n      pop\n        /* \"#utility.yul\":12040:12166   */\n      swap2\n      swap1\n      pop\n      jump\t// out\n        /* \"#utility.yul\":12172:12249   */\n    tag_244:\n        /* \"#utility.yul\":12209:12216   */\n      0x00\n        /* \"#utility.yul\":12238:12243   */\n      dup2\n        /* \"#utility.yul\":12227:12243   */\n      swap1\n      pop\n        /* \"#utility.yul\":12172:12249   */\n      swap2\n      swap1\n      pop\n      jump\t// out\n        /* \"#utility.yul\":12255:12488   */\n    tag_105:\n        /* \"#utility.yul\":12294:12297   */\n      0x00\n        /* \"#utility.yul\":12317:12341   */\n      tag_300\n        /* \"#utility.yul\":12335:12340   */\n      dup3\n        /* \"#utility.yul\":12317:12341   */\n      tag_244\n      jump\t// in\n    tag_300:\n        /* \"#utility.yul\":12308:12341   */\n      swap2\n      pop\n        /* \"#utility.yul\":12363:12429   */\n      0xffffffffffffffffffffffffffffffffffffffffffffffffffffffffffffffff\n        /* \"#utility.yul\":12356:12361   */\n      dup3\n        /* \"#utility.yul\":12353:12430   */\n      eq\n        /* \"#utility.yul\":12350:12453   */\n      iszero\n      tag_301\n      jumpi\n        /* \"#utility.yul\":12433:12451   */\n      tag_302\n      tag_283\n      jump\t// in\n    tag_302:\n        /* \"#utility.yul\":12350:12453   */\n    tag_301:\n        /* \"#utility.yul\":12480:12481   */\n      0x01\n        /* \"#utility.yul\":12473:12478   */\n      dup3\n        /* \"#utility.yul\":12469:12482   */\n      add\n        /* \"#utility.yul\":12462:12482   */\n      swap1\n      pop\n        /* \"#utility.yul\":12255:12488   */\n      swap2\n      swap1\n      pop\n      jump\t// out\n        /* \"#utility.yul\":12494:12674   */\n    tag_283:\n        /* \"#utility.yul\":12542:12619   */\n      0x4e487b7100000000000000000000000000000000000000000000000000000000\n        /* \"#utility.yul\":12539:12540   */\n      0x00\n        /* \"#utility.yul\":12532:12620   */\n      mstore\n        /* \"#utility.yul\":12639:12643   */\n      0x11\n        /* \"#utility.yul\":12636:12637   */\n      0x04\n        /* \"#utility.yul\":12629:12644   */\n      mstore\n        /* \"#utility.yul\":12663:12667   */\n      0x24\n        /* \"#utility.yul\":12660:12661   */\n      0x00\n        /* \"#utility.yul\":12653:12668   */\n      revert\n        /* \"#utility.yul\":12680:12860   */\n    tag_98:\n        /* \"#utility.yul\":12728:12805   */\n      0x4e487b7100000000000000000000000000000000000000000000000000000000\n        /* \"#utility.yul\":12725:12726   */\n      0x00\n        /* \"#utility.yul\":12718:12806   */\n      mstore\n        /* \"#utility.yul\":12825:12829   */\n      0x32\n        /* \"#utility.yul\":12822:12823   */\n      0x04\n        /* \"#utility.yul\":12815:12830   */\n      mstore\n        /* \"#utility.yul\":12849:12853   */\n      0x24\n        /* \"#utility.yul\":12846:12847   */\n      0x00\n        /* \"#utility.yul\":12839:12854   */\n      revert\n        /* \"#utility.yul\":12989:13106   */\n    tag_175:\n        /* \"#utility.yul\":13098:13099   */\n      0x00\n        /* \"#utility.yul\":13095:13096   */\n      dup1\n        /* \"#utility.yul\":13088:13100   */\n      revert\n        /* \"#utility.yul\":13112:13293   */\n    tag_199:\n        /* \"#utility.yul\":13252:13285   */\n      0x63616c6c206f662061206e6f6e2d6578697374656e742066756e6374696f6e00\n        /* \"#utility.yul\":13248:13249   */\n      0x00\n        /* \"#utility.yul\":13240:13246   */\n      dup3\n        /* \"#utility.yul\":13236:13250   */\n      add\n        /* \"#utility.yul\":13229:13286   */\n      mstore\n        /* \"#utility.yul\":13112:13293   */\n      pop\n      jump\t// out\n        /* \"#utility.yul\":13299:13469   */\n    tag_204:\n        /* \"#utility.yul\":13439:13461   */\n      0x4661696c656420746f2073656e64204574686572000000000000000000000000\n        /* \"#utility.yul\":13435:13436   */\n      0x00\n        /* \"#utility.yul\":13427:13433   */\n      dup3\n        /* \"#utility.yul\":13423:13437   */\n      add\n        /* \"#utility.yul\":13416:13462   */\n      mstore\n        /* \"#utility.yul\":13299:13469   */\n      pop\n      jump\t// out\n        /* \"#utility.yul\":13475:13695   */\n    tag_209:\n        /* \"#utility.yul\":13615:13649   */\n      0x596f7520646f6e27742068617665206574686572732073656e7420746f20796f\n        /* \"#utility.yul\":13611:13612   */\n      0x00\n        /* \"#utility.yul\":13603:13609   */\n      dup3\n        /* \"#utility.yul\":13599:13613   */\n      add\n        /* \"#utility.yul\":13592:13650   */\n      mstore\n        /* \"#utility.yul\":13684:13687   */\n      0x7500000000000000000000000000000000000000000000000000000000000000\n        /* \"#utility.yul\":13679:13681   */\n      0x20\n        /* \"#utility.yul\":13671:13677   */\n      dup3\n        /* \"#utility.yul\":13667:13682   */\n      add\n        /* \"#utility.yul\":13660:13688   */\n      mstore\n        /* \"#utility.yul\":13475:13695   */\n      pop\n      jump\t// out\n        /* \"#utility.yul\":13701:13876   */\n    tag_214:\n        /* \"#utility.yul\":13841:13868   */\n      0x436865636b2074686520746f6b656e20616c6c6f77616e636500000000000000\n        /* \"#utility.yul\":13837:13838   */\n      0x00\n        /* \"#utility.yul\":13829:13835   */\n      dup3\n        /* \"#utility.yul\":13825:13839   */\n      add\n        /* \"#utility.yul\":13818:13869   */\n      mstore\n        /* \"#utility.yul\":13701:13876   */\n      pop\n      jump\t// out\n        /* \"#utility.yul\":13882:14175   */\n    tag_219:\n        /* \"#utility.yul\":14022:14056   */\n      0x526f6c6c6261636b206973206e6f7420617661696c61626c6520666f7220796f\n        /* \"#utility.yul\":14018:14019   */\n      0x00\n        /* \"#utility.yul\":14010:14016   */\n      dup3\n        /* \"#utility.yul\":14006:14020   */\n      add\n        /* \"#utility.yul\":13999:14057   */\n      mstore\n        /* \"#utility.yul\":14091:14125   */\n      0x752e20457468657273206d6967687420626520616c7265616479207769746864\n        /* \"#utility.yul\":14086:14088   */\n      0x20\n        /* \"#utility.yul\":14078:14084   */\n      dup3\n        /* \"#utility.yul\":14074:14089   */\n      add\n        /* \"#utility.yul\":14067:14126   */\n      mstore\n        /* \"#utility.yul\":14160:14167   */\n      0x7261776564000000000000000000000000000000000000000000000000000000\n        /* \"#utility.yul\":14155:14157   */\n      0x40\n        /* \"#utility.yul\":14147:14153   */\n      dup3\n        /* \"#utility.yul\":14143:14158   */\n      add\n        /* \"#utility.yul\":14136:14168   */\n      mstore\n        /* \"#utility.yul\":13882:14175   */\n      pop\n      jump\t// out\n        /* \"#utility.yul\":14181:14295   */\n    tag_225:\n      pop\n      jump\t// out\n        /* \"#utility.yul\":14301:14481   */\n    tag_230:\n        /* \"#utility.yul\":14441:14473   */\n      0x596f7520646f6e2774206861766520474c442073656e7420746f20796f750000\n        /* \"#utility.yul\":14437:14438   */\n      0x00\n        /* \"#utility.yul\":14429:14435   */\n      dup3\n        /* \"#utility.yul\":14425:14439   */\n      add\n        /* \"#utility.yul\":14418:14474   */\n      mstore\n        /* \"#utility.yul\":14301:14481   */\n      pop\n      jump\t// out\n        /* \"#utility.yul\":14487:14656   */\n    tag_235:\n        /* \"#utility.yul\":14627:14648   */\n      0x526f6c6c6261636b2076616c7565206973203000000000000000000000000000\n        /* \"#utility.yul\":14623:14624   */\n      0x00\n        /* \"#utility.yul\":14615:14621   */\n      dup3\n        /* \"#utility.yul\":14611:14625   */\n      add\n        /* \"#utility.yul\":14604:14649   */\n      mstore\n        /* \"#utility.yul\":14487:14656   */\n      pop\n      jump\t// out\n        /* \"#utility.yul\":14662:14837   */\n    tag_240:\n        /* \"#utility.yul\":14802:14829   */\n      0x596f7520646f6e2774206861766520656e6f75676820474c4400000000000000\n        /* \"#utility.yul\":14798:14799   */\n      0x00\n        /* \"#utility.yul\":14790:14796   */\n      dup3\n        /* \"#utility.yul\":14786:14800   */\n      add\n        /* \"#utility.yul\":14779:14830   */\n      mstore\n        /* \"#utility.yul\":14662:14837   */\n      pop\n      jump\t// out\n        /* \"#utility.yul\":14843:14981   */\n    tag_160:\n        /* \"#utility.yul\":14924:14956   */\n      tag_318\n        /* \"#utility.yul\":14950:14955   */\n      dup2\n        /* \"#utility.yul\":14924:14956   */\n      tag_292\n      jump\t// in\n    tag_318:\n        /* \"#utility.yul\":14917:14922   */\n      dup2\n        /* \"#utility.yul\":14914:14957   */\n      eq\n        /* \"#utility.yul\":14904:14975   */\n      tag_319\n      jumpi\n        /* \"#utility.yul\":14971:14972   */\n      0x00\n        /* \"#utility.yul\":14968:14969   */\n      dup1\n        /* \"#utility.yul\":14961:14973   */\n      revert\n        /* \"#utility.yul\":14904:14975   */\n    tag_319:\n        /* \"#utility.yul\":14843:14981   */\n      pop\n      jump\t// out\n        /* \"#utility.yul\":14987:15103   */\n    tag_164:\n        /* \"#utility.yul\":15057:15078   */\n      tag_321\n        /* \"#utility.yul\":15072:15077   */\n      dup2\n        /* \"#utility.yul\":15057:15078   */\n      tag_295\n      jump\t// in\n    tag_321:\n        /* \"#utility.yul\":15050:15055   */\n      dup2\n        /* \"#utility.yul\":15047:15079   */\n      eq\n        /* \"#utility.yul\":15037:15097   */\n      tag_322\n      jumpi\n        /* \"#utility.yul\":15093:15094   */\n      0x00\n        /* \"#utility.yul\":15090:15091   */\n      dup1\n        /* \"#utility.yul\":15083:15095   */\n      revert\n        /* \"#utility.yul\":15037:15097   */\n    tag_322:\n        /* \"#utility.yul\":14987:15103   */\n      pop\n      jump\t// out\n        /* \"#utility.yul\":15109:15231   */\n    tag_168:\n        /* \"#utility.yul\":15182:15206   */\n      tag_324\n        /* \"#utility.yul\":15200:15205   */\n      dup2\n        /* \"#utility.yul\":15182:15206   */\n      tag_244\n      jump\t// in\n    tag_324:\n        /* \"#utility.yul\":15175:15180   */\n      dup2\n        /* \"#utility.yul\":15172:15207   */\n      eq\n        /* \"#utility.yul\":15162:15225   */\n      tag_325\n      jumpi\n        /* \"#utility.yul\":15221:15222   */\n      0x00\n        /* \"#utility.yul\":15218:15219   */\n      dup1\n        /* \"#utility.yul\":15211:15223   */\n      revert\n        /* \"#utility.yul\":15162:15225   */\n    tag_325:\n        /* \"#utility.yul\":15109:15231   */\n      pop\n      jump\t// out\n\n    auxdata: 0xa2646970667358221220d51c2d5eb44f89009ef08c18c381410ef717ee0e8ca0bff002c8561dca7786f364736f6c63430008070033\n}\n",
				"bytecode": {
					"linkReferences": {},
					"object": "60806040523480156200001157600080fd5b506040516200217838038062002178833981810160405281019062000037919062000096565b80600460006101000a81548173ffffffffffffffffffffffffffffffffffffffff021916908373ffffffffffffffffffffffffffffffffffffffff160217905550506200012f565b600081519050620000908162000115565b92915050565b600060208284031215620000af57620000ae62000110565b5b6000620000bf848285016200007f565b91505092915050565b6000620000d582620000f0565b9050919050565b6000620000e982620000c8565b9050919050565b600073ffffffffffffffffffffffffffffffffffffffff82169050919050565b600080fd5b6200012081620000dc565b81146200012c57600080fd5b50565b612039806200013f6000396000f3fe6080604052600436106100745760003560e01c80637362377b1161004e5780637362377b14610113578063d2472cb61461011d578063e0f4ba1414610134578063ea46193e1461015d5761007b565b80630d335f3d146100b257806336843861146100db57806348c981e2146100f75761007b565b3661007b57005b7f08c379a0afcc32b1a39302f7cb8073359698411ab5fd6e3edb2c02c0b5fba8aa6040516100a890611b3a565b60405180910390a1005b3480156100be57600080fd5b506100d960048036038101906100d491906118b7565b610188565b005b6100f560048036038101906100f0919061188a565b6107ba565b005b610111600480360381019061010c919061188a565b610d03565b005b61011b6110a5565b005b34801561012957600080fd5b50610132611467565b005b34801561014057600080fd5b5061015b6004803603810190610156919061188a565b61182b565b005b34801561016957600080fd5b5061017261182e565b60405161017f9190611c3a565b60405180910390f35b60003390506000829050600460009054906101000a900473ffffffffffffffffffffffffffffffffffffffff1673ffffffffffffffffffffffffffffffffffffffff166370a08231336040518263ffffffff1660e01b81526004016101ed9190611abf565b60206040518083038186803b15801561020557600080fd5b505afa158015610219573d6000803e3d6000fd5b505050506040513d601f19601f8201168201806040525081019061023d9190611924565b81111561027f576040517f08c379a000000000000000000000000000000000000000000000000000000000815260040161027690611c1a565b60405180910390fd5b80600460009054906101000a900473ffffffffffffffffffffffffffffffffffffffff1673ffffffffffffffffffffffffffffffffffffffff1663dd62ed3e84306040518363ffffffff1660e01b81526004016102dd929190611ada565b60206040518083038186803b1580156102f557600080fd5b505afa158015610309573d6000803e3d6000fd5b505050506040513d601f19601f8201168201806040525081019061032d9190611924565b101561036e576040517f08c379a000000000000000000000000000000000000000000000000000000000815260040161036590611b9a565b60405180910390fd5b600460009054906101000a900473ffffffffffffffffffffffffffffffffffffffff1673ffffffffffffffffffffffffffffffffffffffff166323b872dd8330866040518463ffffffff1660e01b81526004016103cd93929190611b03565b602060405180830381600087803b1580156103e757600080fd5b505af11580156103fb573d6000803e3d6000fd5b505050506040513d601f19601f8201168201806040525081019061041f91906118f7565b5080600560008673ffffffffffffffffffffffffffffffffffffffff1673ffffffffffffffffffffffffffffffffffffffff168152602001908152602001600020600082825461046f9190611c71565b92505081905550600760008573ffffffffffffffffffffffffffffffffffffffff1673ffffffffffffffffffffffffffffffffffffffff16815260200190815260200160002060008373ffffffffffffffffffffffffffffffffffffffff1673ffffffffffffffffffffffffffffffffffffffff16815260200190815260200160002060009054906101000a900460ff16610587576000600860008673ffffffffffffffffffffffffffffffffffffffff1673ffffffffffffffffffffffffffffffffffffffff16815260200190815260200160002060008473ffffffffffffffffffffffffffffffffffffffff1673ffffffffffffffffffffffffffffffffffffffff168152602001908152602001600020819055505b80600860008673ffffffffffffffffffffffffffffffffffffffff1673ffffffffffffffffffffffffffffffffffffffff16815260200190815260200160002060008473ffffffffffffffffffffffffffffffffffffffff1673ffffffffffffffffffffffffffffffffffffffff16815260200190815260200160002060008282546106139190611c71565b925050819055506001600760008673ffffffffffffffffffffffffffffffffffffffff1673ffffffffffffffffffffffffffffffffffffffff16815260200190815260200160002060008473ffffffffffffffffffffffffffffffffffffffff1673ffffffffffffffffffffffffffffffffffffffff16815260200190815260200160002060006101000a81548160ff021916908315150217905550600660008573ffffffffffffffffffffffffffffffffffffffff1673ffffffffffffffffffffffffffffffffffffffff168152602001908152602001600020829080600181540180825580915050600190039060005260206000200160009091909190916101000a81548173ffffffffffffffffffffffffffffffffffffffff021916908373ffffffffffffffffffffffffffffffffffffffff1602179055508373ffffffffffffffffffffffffffffffffffffffff168273ffffffffffffffffffffffffffffffffffffffff167f73b01460b5d0356bc41e4d618d3ac3aabc773ab762c363452c3e66ad535210fb836040516107ac9190611c3a565b60405180910390a350505050565b6000339050600260008373ffffffffffffffffffffffffffffffffffffffff1673ffffffffffffffffffffffffffffffffffffffff16815260200190815260200160002060008273ffffffffffffffffffffffffffffffffffffffff1673ffffffffffffffffffffffffffffffffffffffff16815260200190815260200160002060009054906101000a900460ff16610888576040517f08c379a000000000000000000000000000000000000000000000000000000000815260040161087f90611bba565b60405180910390fd5b6000600360008473ffffffffffffffffffffffffffffffffffffffff1673ffffffffffffffffffffffffffffffffffffffff16815260200190815260200160002060008373ffffffffffffffffffffffffffffffffffffffff1673ffffffffffffffffffffffffffffffffffffffff168152602001908152602001600020549050600081141561094d576040517f08c379a000000000000000000000000000000000000000000000000000000000815260040161094490611bfa565b60405180910390fd5b60008273ffffffffffffffffffffffffffffffffffffffff168260405161097390611aaa565b60006040518083038185875af1925050503d80600081146109b0576040519150601f19603f3d011682016040523d82523d6000602084013e6109b5565b606091505b50509050806109f9576040517f08c379a00000000000000000000000000000000000000000000000000000000081526004016109f090611b5a565b60405180910390fd5b816000808673ffffffffffffffffffffffffffffffffffffffff1673ffffffffffffffffffffffffffffffffffffffff1681526020019081526020016000206000828254610a479190611cc7565b92505081905550600360008573ffffffffffffffffffffffffffffffffffffffff1673ffffffffffffffffffffffffffffffffffffffff16815260200190815260200160002060008473ffffffffffffffffffffffffffffffffffffffff1673ffffffffffffffffffffffffffffffffffffffff168152602001908152602001600020600090556000600260008673ffffffffffffffffffffffffffffffffffffffff1673ffffffffffffffffffffffffffffffffffffffff16815260200190815260200160002060008573ffffffffffffffffffffffffffffffffffffffff1673ffffffffffffffffffffffffffffffffffffffff16815260200190815260200160002060006101000a81548160ff02191690831515021790555060005b600160008673ffffffffffffffffffffffffffffffffffffffff1673ffffffffffffffffffffffffffffffffffffffff16815260200190815260200160002080549050811015610cfc576000600160008773ffffffffffffffffffffffffffffffffffffffff1673ffffffffffffffffffffffffffffffffffffffff1681526020019081526020016000208281548110610c0357610c02611dcd565b5b9060005260206000200160009054906101000a900473ffffffffffffffffffffffffffffffffffffffff1690508473ffffffffffffffffffffffffffffffffffffffff168173ffffffffffffffffffffffffffffffffffffffff161415610ce857600160008773ffffffffffffffffffffffffffffffffffffffff1673ffffffffffffffffffffffffffffffffffffffff1681526020019081526020016000208281548110610cb557610cb4611dcd565b5b9060005260206000200160006101000a81549073ffffffffffffffffffffffffffffffffffffffff021916905550610cfc565b508080610cf490611d55565b915050610b66565b5050505050565b60003390506000349050806000808573ffffffffffffffffffffffffffffffffffffffff1673ffffffffffffffffffffffffffffffffffffffff1681526020019081526020016000206000828254610d5b9190611c71565b92505081905550600260008473ffffffffffffffffffffffffffffffffffffffff1673ffffffffffffffffffffffffffffffffffffffff16815260200190815260200160002060008373ffffffffffffffffffffffffffffffffffffffff1673ffffffffffffffffffffffffffffffffffffffff16815260200190815260200160002060009054906101000a900460ff16610e73576000600360008573ffffffffffffffffffffffffffffffffffffffff1673ffffffffffffffffffffffffffffffffffffffff16815260200190815260200160002060008473ffffffffffffffffffffffffffffffffffffffff1673ffffffffffffffffffffffffffffffffffffffff168152602001908152602001600020819055505b80600360008573ffffffffffffffffffffffffffffffffffffffff1673ffffffffffffffffffffffffffffffffffffffff16815260200190815260200160002060008473ffffffffffffffffffffffffffffffffffffffff1673ffffffffffffffffffffffffffffffffffffffff1681526020019081526020016000206000828254610eff9190611c71565b925050819055506001600260008573ffffffffffffffffffffffffffffffffffffffff1673ffffffffffffffffffffffffffffffffffffffff16815260200190815260200160002060008473ffffffffffffffffffffffffffffffffffffffff1673ffffffffffffffffffffffffffffffffffffffff16815260200190815260200160002060006101000a81548160ff021916908315150217905550600160008473ffffffffffffffffffffffffffffffffffffffff1673ffffffffffffffffffffffffffffffffffffffff168152602001908152602001600020829080600181540180825580915050600190039060005260206000200160009091909190916101000a81548173ffffffffffffffffffffffffffffffffffffffff021916908373ffffffffffffffffffffffffffffffffffffffff1602179055508273ffffffffffffffffffffffffffffffffffffffff168273ffffffffffffffffffffffffffffffffffffffff167fa343f361112b028dae2501770614271723be1d24c9f64fed2d4bd3ddf1c13e35836040516110989190611c3a565b60405180910390a3505050565b600033905060008060008373ffffffffffffffffffffffffffffffffffffffff1673ffffffffffffffffffffffffffffffffffffffff1681526020019081526020016000205490506000811415611131576040517f08c379a000000000000000000000000000000000000000000000000000000000815260040161112890611b7a565b60405180910390fd5b60008273ffffffffffffffffffffffffffffffffffffffff168260405161115790611aaa565b60006040518083038185875af1925050503d8060008114611194576040519150601f19603f3d011682016040523d82523d6000602084013e611199565b606091505b50509050806111dd576040517f08c379a00000000000000000000000000000000000000000000000000000000081526004016111d490611b5a565b60405180910390fd5b6000808473ffffffffffffffffffffffffffffffffffffffff1673ffffffffffffffffffffffffffffffffffffffff1681526020019081526020016000206000905560005b600160008573ffffffffffffffffffffffffffffffffffffffff1673ffffffffffffffffffffffffffffffffffffffff16815260200190815260200160002080549050811015611413576000600160008673ffffffffffffffffffffffffffffffffffffffff1673ffffffffffffffffffffffffffffffffffffffff16815260200190815260200160002082815481106112bf576112be611dcd565b5b9060005260206000200160009054906101000a900473ffffffffffffffffffffffffffffffffffffffff1690506000600260008773ffffffffffffffffffffffffffffffffffffffff1673ffffffffffffffffffffffffffffffffffffffff16815260200190815260200160002060008373ffffffffffffffffffffffffffffffffffffffff1673ffffffffffffffffffffffffffffffffffffffff16815260200190815260200160002060006101000a81548160ff021916908315150217905550600160008673ffffffffffffffffffffffffffffffffffffffff1673ffffffffffffffffffffffffffffffffffffffff16815260200190815260200160002082815481106113d2576113d1611dcd565b5b9060005260206000200160006101000a81549073ffffffffffffffffffffffffffffffffffffffff021916905550808061140b90611d55565b915050611222565b503373ffffffffffffffffffffffffffffffffffffffff167fa74fab966bfc29d4ea7866d609ac5d94324a5fe817362d6a9fee5d2f8df467598360405161145a9190611c3a565b60405180910390a2505050565b60003390506000600560008373ffffffffffffffffffffffffffffffffffffffff1673ffffffffffffffffffffffffffffffffffffffff16815260200190815260200160002054905060008114156114f4576040517f08c379a00000000000000000000000000000000000000000000000000000000081526004016114eb90611bda565b60405180910390fd5b60008273ffffffffffffffffffffffffffffffffffffffff168260405161151a90611aaa565b60006040518083038185875af1925050503d8060008114611557576040519150601f19603f3d011682016040523d82523d6000602084013e61155c565b606091505b50509050806115a0576040517f08c379a000000000000000000000000000000000000000000000000000000000815260040161159790611b5a565b60405180910390fd5b600560008473ffffffffffffffffffffffffffffffffffffffff1673ffffffffffffffffffffffffffffffffffffffff1681526020019081526020016000206000905560005b600660008573ffffffffffffffffffffffffffffffffffffffff1673ffffffffffffffffffffffffffffffffffffffff168152602001908152602001600020805490508110156117d7576000600660008673ffffffffffffffffffffffffffffffffffffffff1673ffffffffffffffffffffffffffffffffffffffff168152602001908152602001600020828154811061168357611682611dcd565b5b9060005260206000200160009054906101000a900473ffffffffffffffffffffffffffffffffffffffff1690506000600760008773ffffffffffffffffffffffffffffffffffffffff1673ffffffffffffffffffffffffffffffffffffffff16815260200190815260200160002060008373ffffffffffffffffffffffffffffffffffffffff1673ffffffffffffffffffffffffffffffffffffffff16815260200190815260200160002060006101000a81548160ff021916908315150217905550600660008673ffffffffffffffffffffffffffffffffffffffff1673ffffffffffffffffffffffffffffffffffffffff168152602001908152602001600020828154811061179657611795611dcd565b5b9060005260206000200160006101000a81549073ffffffffffffffffffffffffffffffffffffffff02191690555080806117cf90611d55565b9150506115e6565b503373ffffffffffffffffffffffffffffffffffffffff167fa74fab966bfc29d4ea7866d609ac5d94324a5fe817362d6a9fee5d2f8df467598360405161181e9190611c3a565b60405180910390a2505050565b50565b600047905090565b60008135905061184581611fbe565b92915050565b60008151905061185a81611fd5565b92915050565b60008135905061186f81611fec565b92915050565b60008151905061188481611fec565b92915050565b6000602082840312156118a05761189f611dfc565b5b60006118ae84828501611836565b91505092915050565b600080604083850312156118ce576118cd611dfc565b5b60006118dc85828601611836565b92505060206118ed85828601611860565b9150509250929050565b60006020828403121561190d5761190c611dfc565b5b600061191b8482850161184b565b91505092915050565b60006020828403121561193a57611939611dfc565b5b600061194884828501611875565b91505092915050565b61195a81611cfb565b82525050565b600061196d601f83611c60565b915061197882611e01565b602082019050919050565b6000611990601483611c60565b915061199b82611e2a565b602082019050919050565b60006119b3602183611c60565b91506119be82611e53565b604082019050919050565b60006119d6601983611c60565b91506119e182611ea2565b602082019050919050565b60006119f9604583611c60565b9150611a0482611ecb565b606082019050919050565b6000611a1c600083611c55565b9150611a2782611f40565b600082019050919050565b6000611a3f601e83611c60565b9150611a4a82611f43565b602082019050919050565b6000611a62601383611c60565b9150611a6d82611f6c565b602082019050919050565b6000611a85601983611c60565b9150611a9082611f95565b602082019050919050565b611aa481611d4b565b82525050565b6000611ab582611a0f565b9150819050919050565b6000602082019050611ad46000830184611951565b92915050565b6000604082019050611aef6000830185611951565b611afc6020830184611951565b9392505050565b6000606082019050611b186000830186611951565b611b256020830185611951565b611b326040830184611a9b565b949350505050565b60006020820190508181036000830152611b5381611960565b9050919050565b60006020820190508181036000830152611b7381611983565b9050919050565b60006020820190508181036000830152611b93816119a6565b9050919050565b60006020820190508181036000830152611bb3816119c9565b9050919050565b60006020820190508181036000830152611bd3816119ec565b9050919050565b60006020820190508181036000830152611bf381611a32565b9050919050565b60006020820190508181036000830152611c1381611a55565b9050919050565b60006020820190508181036000830152611c3381611a78565b9050919050565b6000602082019050611c4f6000830184611a9b565b92915050565b600081905092915050565b600082825260208201905092915050565b6000611c7c82611d4b565b9150611c8783611d4b565b9250827fffffffffffffffffffffffffffffffffffffffffffffffffffffffffffffffff03821115611cbc57611cbb611d9e565b5b828201905092915050565b6000611cd282611d4b565b9150611cdd83611d4b565b925082821015611cf057611cef611d9e565b5b828203905092915050565b6000611d0682611d2b565b9050919050565b6000611d1882611d2b565b9050919050565b60008115159050919050565b600073ffffffffffffffffffffffffffffffffffffffff82169050919050565b6000819050919050565b6000611d6082611d4b565b91507fffffffffffffffffffffffffffffffffffffffffffffffffffffffffffffffff821415611d9357611d92611d9e565b5b600182019050919050565b7f4e487b7100000000000000000000000000000000000000000000000000000000600052601160045260246000fd5b7f4e487b7100000000000000000000000000000000000000000000000000000000600052603260045260246000fd5b600080fd5b7f63616c6c206f662061206e6f6e2d6578697374656e742066756e6374696f6e00600082015250565b7f4661696c656420746f2073656e64204574686572000000000000000000000000600082015250565b7f596f7520646f6e27742068617665206574686572732073656e7420746f20796f60008201527f7500000000000000000000000000000000000000000000000000000000000000602082015250565b7f436865636b2074686520746f6b656e20616c6c6f77616e636500000000000000600082015250565b7f526f6c6c6261636b206973206e6f7420617661696c61626c6520666f7220796f60008201527f752e20457468657273206d6967687420626520616c726561647920776974686460208201527f7261776564000000000000000000000000000000000000000000000000000000604082015250565b50565b7f596f7520646f6e2774206861766520474c442073656e7420746f20796f750000600082015250565b7f526f6c6c6261636b2076616c7565206973203000000000000000000000000000600082015250565b7f596f7520646f6e2774206861766520656e6f75676820474c4400000000000000600082015250565b611fc781611d0d565b8114611fd257600080fd5b50565b611fde81611d1f565b8114611fe957600080fd5b50565b611ff581611d4b565b811461200057600080fd5b5056fea2646970667358221220d51c2d5eb44f89009ef08c18c381410ef717ee0e8ca0bff002c8561dca7786f364736f6c63430008070033",
					"opcodes": "PUSH1 0x80 PUSH1 0x40 MSTORE CALLVALUE DUP1 ISZERO PUSH3 0x11 JUMPI PUSH1 0x0 DUP1 REVERT JUMPDEST POP PUSH1 0x40 MLOAD PUSH3 0x2178 CODESIZE SUB DUP1 PUSH3 0x2178 DUP4 CODECOPY DUP2 DUP2 ADD PUSH1 0x40 MSTORE DUP2 ADD SWAP1 PUSH3 0x37 SWAP2 SWAP1 PUSH3 0x96 JUMP JUMPDEST DUP1 PUSH1 0x4 PUSH1 0x0 PUSH2 0x100 EXP DUP2 SLOAD DUP2 PUSH20 0xFFFFFFFFFFFFFFFFFFFFFFFFFFFFFFFFFFFFFFFF MUL NOT AND SWAP1 DUP4 PUSH20 0xFFFFFFFFFFFFFFFFFFFFFFFFFFFFFFFFFFFFFFFF AND MUL OR SWAP1 SSTORE POP POP PUSH3 0x12F JUMP JUMPDEST PUSH1 0x0 DUP2 MLOAD SWAP1 POP PUSH3 0x90 DUP2 PUSH3 0x115 JUMP JUMPDEST SWAP3 SWAP2 POP POP JUMP JUMPDEST PUSH1 0x0 PUSH1 0x20 DUP3 DUP5 SUB SLT ISZERO PUSH3 0xAF JUMPI PUSH3 0xAE PUSH3 0x110 JUMP JUMPDEST JUMPDEST PUSH1 0x0 PUSH3 0xBF DUP5 DUP3 DUP6 ADD PUSH3 0x7F JUMP JUMPDEST SWAP2 POP POP SWAP3 SWAP2 POP POP JUMP JUMPDEST PUSH1 0x0 PUSH3 0xD5 DUP3 PUSH3 0xF0 JUMP JUMPDEST SWAP1 POP SWAP2 SWAP1 POP JUMP JUMPDEST PUSH1 0x0 PUSH3 0xE9 DUP3 PUSH3 0xC8 JUMP JUMPDEST SWAP1 POP SWAP2 SWAP1 POP JUMP JUMPDEST PUSH1 0x0 PUSH20 0xFFFFFFFFFFFFFFFFFFFFFFFFFFFFFFFFFFFFFFFF DUP3 AND SWAP1 POP SWAP2 SWAP1 POP JUMP JUMPDEST PUSH1 0x0 DUP1 REVERT JUMPDEST PUSH3 0x120 DUP2 PUSH3 0xDC JUMP JUMPDEST DUP2 EQ PUSH3 0x12C JUMPI PUSH1 0x0 DUP1 REVERT JUMPDEST POP JUMP JUMPDEST PUSH2 0x2039 DUP1 PUSH3 0x13F PUSH1 0x0 CODECOPY PUSH1 0x0 RETURN INVALID PUSH1 0x80 PUSH1 0x40 MSTORE PUSH1 0x4 CALLDATASIZE LT PUSH2 0x74 JUMPI PUSH1 0x0 CALLDATALOAD PUSH1 0xE0 SHR DUP1 PUSH4 0x7362377B GT PUSH2 0x4E JUMPI DUP1 PUSH4 0x7362377B EQ PUSH2 0x113 JUMPI DUP1 PUSH4 0xD2472CB6 EQ PUSH2 0x11D JUMPI DUP1 PUSH4 0xE0F4BA14 EQ PUSH2 0x134 JUMPI DUP1 PUSH4 0xEA46193E EQ PUSH2 0x15D JUMPI PUSH2 0x7B JUMP JUMPDEST DUP1 PUSH4 0xD335F3D EQ PUSH2 0xB2 JUMPI DUP1 PUSH4 0x36843861 EQ PUSH2 0xDB JUMPI DUP1 PUSH4 0x48C981E2 EQ PUSH2 0xF7 JUMPI PUSH2 0x7B JUMP JUMPDEST CALLDATASIZE PUSH2 0x7B JUMPI STOP JUMPDEST PUSH32 0x8C379A0AFCC32B1A39302F7CB8073359698411AB5FD6E3EDB2C02C0B5FBA8AA PUSH1 0x40 MLOAD PUSH2 0xA8 SWAP1 PUSH2 0x1B3A JUMP JUMPDEST PUSH1 0x40 MLOAD DUP1 SWAP2 SUB SWAP1 LOG1 STOP JUMPDEST CALLVALUE DUP1 ISZERO PUSH2 0xBE JUMPI PUSH1 0x0 DUP1 REVERT JUMPDEST POP PUSH2 0xD9 PUSH1 0x4 DUP1 CALLDATASIZE SUB DUP2 ADD SWAP1 PUSH2 0xD4 SWAP2 SWAP1 PUSH2 0x18B7 JUMP JUMPDEST PUSH2 0x188 JUMP JUMPDEST STOP JUMPDEST PUSH2 0xF5 PUSH1 0x4 DUP1 CALLDATASIZE SUB DUP2 ADD SWAP1 PUSH2 0xF0 SWAP2 SWAP1 PUSH2 0x188A JUMP JUMPDEST PUSH2 0x7BA JUMP JUMPDEST STOP JUMPDEST PUSH2 0x111 PUSH1 0x4 DUP1 CALLDATASIZE SUB DUP2 ADD SWAP1 PUSH2 0x10C SWAP2 SWAP1 PUSH2 0x188A JUMP JUMPDEST PUSH2 0xD03 JUMP JUMPDEST STOP JUMPDEST PUSH2 0x11B PUSH2 0x10A5 JUMP JUMPDEST STOP JUMPDEST CALLVALUE DUP1 ISZERO PUSH2 0x129 JUMPI PUSH1 0x0 DUP1 REVERT JUMPDEST POP PUSH2 0x132 PUSH2 0x1467 JUMP JUMPDEST STOP JUMPDEST CALLVALUE DUP1 ISZERO PUSH2 0x140 JUMPI PUSH1 0x0 DUP1 REVERT JUMPDEST POP PUSH2 0x15B PUSH1 0x4 DUP1 CALLDATASIZE SUB DUP2 ADD SWAP1 PUSH2 0x156 SWAP2 SWAP1 PUSH2 0x188A JUMP JUMPDEST PUSH2 0x182B JUMP JUMPDEST STOP JUMPDEST CALLVALUE DUP1 ISZERO PUSH2 0x169 JUMPI PUSH1 0x0 DUP1 REVERT JUMPDEST POP PUSH2 0x172 PUSH2 0x182E JUMP JUMPDEST PUSH1 0x40 MLOAD PUSH2 0x17F SWAP2 SWAP1 PUSH2 0x1C3A JUMP JUMPDEST PUSH1 0x40 MLOAD DUP1 SWAP2 SUB SWAP1 RETURN JUMPDEST PUSH1 0x0 CALLER SWAP1 POP PUSH1 0x0 DUP3 SWAP1 POP PUSH1 0x4 PUSH1 0x0 SWAP1 SLOAD SWAP1 PUSH2 0x100 EXP SWAP1 DIV PUSH20 0xFFFFFFFFFFFFFFFFFFFFFFFFFFFFFFFFFFFFFFFF AND PUSH20 0xFFFFFFFFFFFFFFFFFFFFFFFFFFFFFFFFFFFFFFFF AND PUSH4 0x70A08231 CALLER PUSH1 0x40 MLOAD DUP3 PUSH4 0xFFFFFFFF AND PUSH1 0xE0 SHL DUP2 MSTORE PUSH1 0x4 ADD PUSH2 0x1ED SWAP2 SWAP1 PUSH2 0x1ABF JUMP JUMPDEST PUSH1 0x20 PUSH1 0x40 MLOAD DUP1 DUP4 SUB DUP2 DUP7 DUP1 EXTCODESIZE ISZERO DUP1 ISZERO PUSH2 0x205 JUMPI PUSH1 0x0 DUP1 REVERT JUMPDEST POP GAS STATICCALL ISZERO DUP1 ISZERO PUSH2 0x219 JUMPI RETURNDATASIZE PUSH1 0x0 DUP1 RETURNDATACOPY RETURNDATASIZE PUSH1 0x0 REVERT JUMPDEST POP POP POP POP PUSH1 0x40 MLOAD RETURNDATASIZE PUSH1 0x1F NOT PUSH1 0x1F DUP3 ADD AND DUP3 ADD DUP1 PUSH1 0x40 MSTORE POP DUP2 ADD SWAP1 PUSH2 0x23D SWAP2 SWAP1 PUSH2 0x1924 JUMP JUMPDEST DUP2 GT ISZERO PUSH2 0x27F JUMPI PUSH1 0x40 MLOAD PUSH32 0x8C379A000000000000000000000000000000000000000000000000000000000 DUP2 MSTORE PUSH1 0x4 ADD PUSH2 0x276 SWAP1 PUSH2 0x1C1A JUMP JUMPDEST PUSH1 0x40 MLOAD DUP1 SWAP2 SUB SWAP1 REVERT JUMPDEST DUP1 PUSH1 0x4 PUSH1 0x0 SWAP1 SLOAD SWAP1 PUSH2 0x100 EXP SWAP1 DIV PUSH20 0xFFFFFFFFFFFFFFFFFFFFFFFFFFFFFFFFFFFFFFFF AND PUSH20 0xFFFFFFFFFFFFFFFFFFFFFFFFFFFFFFFFFFFFFFFF AND PUSH4 0xDD62ED3E DUP5 ADDRESS PUSH1 0x40 MLOAD DUP4 PUSH4 0xFFFFFFFF AND PUSH1 0xE0 SHL DUP2 MSTORE PUSH1 0x4 ADD PUSH2 0x2DD SWAP3 SWAP2 SWAP1 PUSH2 0x1ADA JUMP JUMPDEST PUSH1 0x20 PUSH1 0x40 MLOAD DUP1 DUP4 SUB DUP2 DUP7 DUP1 EXTCODESIZE ISZERO DUP1 ISZERO PUSH2 0x2F5 JUMPI PUSH1 0x0 DUP1 REVERT JUMPDEST POP GAS STATICCALL ISZERO DUP1 ISZERO PUSH2 0x309 JUMPI RETURNDATASIZE PUSH1 0x0 DUP1 RETURNDATACOPY RETURNDATASIZE PUSH1 0x0 REVERT JUMPDEST POP POP POP POP PUSH1 0x40 MLOAD RETURNDATASIZE PUSH1 0x1F NOT PUSH1 0x1F DUP3 ADD AND DUP3 ADD DUP1 PUSH1 0x40 MSTORE POP DUP2 ADD SWAP1 PUSH2 0x32D SWAP2 SWAP1 PUSH2 0x1924 JUMP JUMPDEST LT ISZERO PUSH2 0x36E JUMPI PUSH1 0x40 MLOAD PUSH32 0x8C379A000000000000000000000000000000000000000000000000000000000 DUP2 MSTORE PUSH1 0x4 ADD PUSH2 0x365 SWAP1 PUSH2 0x1B9A JUMP JUMPDEST PUSH1 0x40 MLOAD DUP1 SWAP2 SUB SWAP1 REVERT JUMPDEST PUSH1 0x4 PUSH1 0x0 SWAP1 SLOAD SWAP1 PUSH2 0x100 EXP SWAP1 DIV PUSH20 0xFFFFFFFFFFFFFFFFFFFFFFFFFFFFFFFFFFFFFFFF AND PUSH20 0xFFFFFFFFFFFFFFFFFFFFFFFFFFFFFFFFFFFFFFFF AND PUSH4 0x23B872DD DUP4 ADDRESS DUP7 PUSH1 0x40 MLOAD DUP5 PUSH4 0xFFFFFFFF AND PUSH1 0xE0 SHL DUP2 MSTORE PUSH1 0x4 ADD PUSH2 0x3CD SWAP4 SWAP3 SWAP2 SWAP1 PUSH2 0x1B03 JUMP JUMPDEST PUSH1 0x20 PUSH1 0x40 MLOAD DUP1 DUP4 SUB DUP2 PUSH1 0x0 DUP8 DUP1 EXTCODESIZE ISZERO DUP1 ISZERO PUSH2 0x3E7 JUMPI PUSH1 0x0 DUP1 REVERT JUMPDEST POP GAS CALL ISZERO DUP1 ISZERO PUSH2 0x3FB JUMPI RETURNDATASIZE PUSH1 0x0 DUP1 RETURNDATACOPY RETURNDATASIZE PUSH1 0x0 REVERT JUMPDEST POP POP POP POP PUSH1 0x40 MLOAD RETURNDATASIZE PUSH1 0x1F NOT PUSH1 0x1F DUP3 ADD AND DUP3 ADD DUP1 PUSH1 0x40 MSTORE POP DUP2 ADD SWAP1 PUSH2 0x41F SWAP2 SWAP1 PUSH2 0x18F7 JUMP JUMPDEST POP DUP1 PUSH1 0x5 PUSH1 0x0 DUP7 PUSH20 0xFFFFFFFFFFFFFFFFFFFFFFFFFFFFFFFFFFFFFFFF AND PUSH20 0xFFFFFFFFFFFFFFFFFFFFFFFFFFFFFFFFFFFFFFFF AND DUP2 MSTORE PUSH1 0x20 ADD SWAP1 DUP2 MSTORE PUSH1 0x20 ADD PUSH1 0x0 KECCAK256 PUSH1 0x0 DUP3 DUP3 SLOAD PUSH2 0x46F SWAP2 SWAP1 PUSH2 0x1C71 JUMP JUMPDEST SWAP3 POP POP DUP2 SWAP1 SSTORE POP PUSH1 0x7 PUSH1 0x0 DUP6 PUSH20 0xFFFFFFFFFFFFFFFFFFFFFFFFFFFFFFFFFFFFFFFF AND PUSH20 0xFFFFFFFFFFFFFFFFFFFFFFFFFFFFFFFFFFFFFFFF AND DUP2 MSTORE PUSH1 0x20 ADD SWAP1 DUP2 MSTORE PUSH1 0x20 ADD PUSH1 0x0 KECCAK256 PUSH1 0x0 DUP4 PUSH20 0xFFFFFFFFFFFFFFFFFFFFFFFFFFFFFFFFFFFFFFFF AND PUSH20 0xFFFFFFFFFFFFFFFFFFFFFFFFFFFFFFFFFFFFFFFF AND DUP2 MSTORE PUSH1 0x20 ADD SWAP1 DUP2 MSTORE PUSH1 0x20 ADD PUSH1 0x0 KECCAK256 PUSH1 0x0 SWAP1 SLOAD SWAP1 PUSH2 0x100 EXP SWAP1 DIV PUSH1 0xFF AND PUSH2 0x587 JUMPI PUSH1 0x0 PUSH1 0x8 PUSH1 0x0 DUP7 PUSH20 0xFFFFFFFFFFFFFFFFFFFFFFFFFFFFFFFFFFFFFFFF AND PUSH20 0xFFFFFFFFFFFFFFFFFFFFFFFFFFFFFFFFFFFFFFFF AND DUP2 MSTORE PUSH1 0x20 ADD SWAP1 DUP2 MSTORE PUSH1 0x20 ADD PUSH1 0x0 KECCAK256 PUSH1 0x0 DUP5 PUSH20 0xFFFFFFFFFFFFFFFFFFFFFFFFFFFFFFFFFFFFFFFF AND PUSH20 0xFFFFFFFFFFFFFFFFFFFFFFFFFFFFFFFFFFFFFFFF AND DUP2 MSTORE PUSH1 0x20 ADD SWAP1 DUP2 MSTORE PUSH1 0x20 ADD PUSH1 0x0 KECCAK256 DUP2 SWAP1 SSTORE POP JUMPDEST DUP1 PUSH1 0x8 PUSH1 0x0 DUP7 PUSH20 0xFFFFFFFFFFFFFFFFFFFFFFFFFFFFFFFFFFFFFFFF AND PUSH20 0xFFFFFFFFFFFFFFFFFFFFFFFFFFFFFFFFFFFFFFFF AND DUP2 MSTORE PUSH1 0x20 ADD SWAP1 DUP2 MSTORE PUSH1 0x20 ADD PUSH1 0x0 KECCAK256 PUSH1 0x0 DUP5 PUSH20 0xFFFFFFFFFFFFFFFFFFFFFFFFFFFFFFFFFFFFFFFF AND PUSH20 0xFFFFFFFFFFFFFFFFFFFFFFFFFFFFFFFFFFFFFFFF AND DUP2 MSTORE PUSH1 0x20 ADD SWAP1 DUP2 MSTORE PUSH1 0x20 ADD PUSH1 0x0 KECCAK256 PUSH1 0x0 DUP3 DUP3 SLOAD PUSH2 0x613 SWAP2 SWAP1 PUSH2 0x1C71 JUMP JUMPDEST SWAP3 POP POP DUP2 SWAP1 SSTORE POP PUSH1 0x1 PUSH1 0x7 PUSH1 0x0 DUP7 PUSH20 0xFFFFFFFFFFFFFFFFFFFFFFFFFFFFFFFFFFFFFFFF AND PUSH20 0xFFFFFFFFFFFFFFFFFFFFFFFFFFFFFFFFFFFFFFFF AND DUP2 MSTORE PUSH1 0x20 ADD SWAP1 DUP2 MSTORE PUSH1 0x20 ADD PUSH1 0x0 KECCAK256 PUSH1 0x0 DUP5 PUSH20 0xFFFFFFFFFFFFFFFFFFFFFFFFFFFFFFFFFFFFFFFF AND PUSH20 0xFFFFFFFFFFFFFFFFFFFFFFFFFFFFFFFFFFFFFFFF AND DUP2 MSTORE PUSH1 0x20 ADD SWAP1 DUP2 MSTORE PUSH1 0x20 ADD PUSH1 0x0 KECCAK256 PUSH1 0x0 PUSH2 0x100 EXP DUP2 SLOAD DUP2 PUSH1 0xFF MUL NOT AND SWAP1 DUP4 ISZERO ISZERO MUL OR SWAP1 SSTORE POP PUSH1 0x6 PUSH1 0x0 DUP6 PUSH20 0xFFFFFFFFFFFFFFFFFFFFFFFFFFFFFFFFFFFFFFFF AND PUSH20 0xFFFFFFFFFFFFFFFFFFFFFFFFFFFFFFFFFFFFFFFF AND DUP2 MSTORE PUSH1 0x20 ADD SWAP1 DUP2 MSTORE PUSH1 0x20 ADD PUSH1 0x0 KECCAK256 DUP3 SWAP1 DUP1 PUSH1 0x1 DUP2 SLOAD ADD DUP1 DUP3 SSTORE DUP1 SWAP2 POP POP PUSH1 0x1 SWAP1 SUB SWAP1 PUSH1 0x0 MSTORE PUSH1 0x20 PUSH1 0x0 KECCAK256 ADD PUSH1 0x0 SWAP1 SWAP2 SWAP1 SWAP2 SWAP1 SWAP2 PUSH2 0x100 EXP DUP2 SLOAD DUP2 PUSH20 0xFFFFFFFFFFFFFFFFFFFFFFFFFFFFFFFFFFFFFFFF MUL NOT AND SWAP1 DUP4 PUSH20 0xFFFFFFFFFFFFFFFFFFFFFFFFFFFFFFFFFFFFFFFF AND MUL OR SWAP1 SSTORE POP DUP4 PUSH20 0xFFFFFFFFFFFFFFFFFFFFFFFFFFFFFFFFFFFFFFFF AND DUP3 PUSH20 0xFFFFFFFFFFFFFFFFFFFFFFFFFFFFFFFFFFFFFFFF AND PUSH32 0x73B01460B5D0356BC41E4D618D3AC3AABC773AB762C363452C3E66AD535210FB DUP4 PUSH1 0x40 MLOAD PUSH2 0x7AC SWAP2 SWAP1 PUSH2 0x1C3A JUMP JUMPDEST PUSH1 0x40 MLOAD DUP1 SWAP2 SUB SWAP1 LOG3 POP POP POP POP JUMP JUMPDEST PUSH1 0x0 CALLER SWAP1 POP PUSH1 0x2 PUSH1 0x0 DUP4 PUSH20 0xFFFFFFFFFFFFFFFFFFFFFFFFFFFFFFFFFFFFFFFF AND PUSH20 0xFFFFFFFFFFFFFFFFFFFFFFFFFFFFFFFFFFFFFFFF AND DUP2 MSTORE PUSH1 0x20 ADD SWAP1 DUP2 MSTORE PUSH1 0x20 ADD PUSH1 0x0 KECCAK256 PUSH1 0x0 DUP3 PUSH20 0xFFFFFFFFFFFFFFFFFFFFFFFFFFFFFFFFFFFFFFFF AND PUSH20 0xFFFFFFFFFFFFFFFFFFFFFFFFFFFFFFFFFFFFFFFF AND DUP2 MSTORE PUSH1 0x20 ADD SWAP1 DUP2 MSTORE PUSH1 0x20 ADD PUSH1 0x0 KECCAK256 PUSH1 0x0 SWAP1 SLOAD SWAP1 PUSH2 0x100 EXP SWAP1 DIV PUSH1 0xFF AND PUSH2 0x888 JUMPI PUSH1 0x40 MLOAD PUSH32 0x8C379A000000000000000000000000000000000000000000000000000000000 DUP2 MSTORE PUSH1 0x4 ADD PUSH2 0x87F SWAP1 PUSH2 0x1BBA JUMP JUMPDEST PUSH1 0x40 MLOAD DUP1 SWAP2 SUB SWAP1 REVERT JUMPDEST PUSH1 0x0 PUSH1 0x3 PUSH1 0x0 DUP5 PUSH20 0xFFFFFFFFFFFFFFFFFFFFFFFFFFFFFFFFFFFFFFFF AND PUSH20 0xFFFFFFFFFFFFFFFFFFFFFFFFFFFFFFFFFFFFFFFF AND DUP2 MSTORE PUSH1 0x20 ADD SWAP1 DUP2 MSTORE PUSH1 0x20 ADD PUSH1 0x0 KECCAK256 PUSH1 0x0 DUP4 PUSH20 0xFFFFFFFFFFFFFFFFFFFFFFFFFFFFFFFFFFFFFFFF AND PUSH20 0xFFFFFFFFFFFFFFFFFFFFFFFFFFFFFFFFFFFFFFFF AND DUP2 MSTORE PUSH1 0x20 ADD SWAP1 DUP2 MSTORE PUSH1 0x20 ADD PUSH1 0x0 KECCAK256 SLOAD SWAP1 POP PUSH1 0x0 DUP2 EQ ISZERO PUSH2 0x94D JUMPI PUSH1 0x40 MLOAD PUSH32 0x8C379A000000000000000000000000000000000000000000000000000000000 DUP2 MSTORE PUSH1 0x4 ADD PUSH2 0x944 SWAP1 PUSH2 0x1BFA JUMP JUMPDEST PUSH1 0x40 MLOAD DUP1 SWAP2 SUB SWAP1 REVERT JUMPDEST PUSH1 0x0 DUP3 PUSH20 0xFFFFFFFFFFFFFFFFFFFFFFFFFFFFFFFFFFFFFFFF AND DUP3 PUSH1 0x40 MLOAD PUSH2 0x973 SWAP1 PUSH2 0x1AAA JUMP JUMPDEST PUSH1 0x0 PUSH1 0x40 MLOAD DUP1 DUP4 SUB DUP2 DUP6 DUP8 GAS CALL SWAP3 POP POP POP RETURNDATASIZE DUP1 PUSH1 0x0 DUP2 EQ PUSH2 0x9B0 JUMPI PUSH1 0x40 MLOAD SWAP2 POP PUSH1 0x1F NOT PUSH1 0x3F RETURNDATASIZE ADD AND DUP3 ADD PUSH1 0x40 MSTORE RETURNDATASIZE DUP3 MSTORE RETURNDATASIZE PUSH1 0x0 PUSH1 0x20 DUP5 ADD RETURNDATACOPY PUSH2 0x9B5 JUMP JUMPDEST PUSH1 0x60 SWAP2 POP JUMPDEST POP POP SWAP1 POP DUP1 PUSH2 0x9F9 JUMPI PUSH1 0x40 MLOAD PUSH32 0x8C379A000000000000000000000000000000000000000000000000000000000 DUP2 MSTORE PUSH1 0x4 ADD PUSH2 0x9F0 SWAP1 PUSH2 0x1B5A JUMP JUMPDEST PUSH1 0x40 MLOAD DUP1 SWAP2 SUB SWAP1 REVERT JUMPDEST DUP2 PUSH1 0x0 DUP1 DUP7 PUSH20 0xFFFFFFFFFFFFFFFFFFFFFFFFFFFFFFFFFFFFFFFF AND PUSH20 0xFFFFFFFFFFFFFFFFFFFFFFFFFFFFFFFFFFFFFFFF AND DUP2 MSTORE PUSH1 0x20 ADD SWAP1 DUP2 MSTORE PUSH1 0x20 ADD PUSH1 0x0 KECCAK256 PUSH1 0x0 DUP3 DUP3 SLOAD PUSH2 0xA47 SWAP2 SWAP1 PUSH2 0x1CC7 JUMP JUMPDEST SWAP3 POP POP DUP2 SWAP1 SSTORE POP PUSH1 0x3 PUSH1 0x0 DUP6 PUSH20 0xFFFFFFFFFFFFFFFFFFFFFFFFFFFFFFFFFFFFFFFF AND PUSH20 0xFFFFFFFFFFFFFFFFFFFFFFFFFFFFFFFFFFFFFFFF AND DUP2 MSTORE PUSH1 0x20 ADD SWAP1 DUP2 MSTORE PUSH1 0x20 ADD PUSH1 0x0 KECCAK256 PUSH1 0x0 DUP5 PUSH20 0xFFFFFFFFFFFFFFFFFFFFFFFFFFFFFFFFFFFFFFFF AND PUSH20 0xFFFFFFFFFFFFFFFFFFFFFFFFFFFFFFFFFFFFFFFF AND DUP2 MSTORE PUSH1 0x20 ADD SWAP1 DUP2 MSTORE PUSH1 0x20 ADD PUSH1 0x0 KECCAK256 PUSH1 0x0 SWAP1 SSTORE PUSH1 0x0 PUSH1 0x2 PUSH1 0x0 DUP7 PUSH20 0xFFFFFFFFFFFFFFFFFFFFFFFFFFFFFFFFFFFFFFFF AND PUSH20 0xFFFFFFFFFFFFFFFFFFFFFFFFFFFFFFFFFFFFFFFF AND DUP2 MSTORE PUSH1 0x20 ADD SWAP1 DUP2 MSTORE PUSH1 0x20 ADD PUSH1 0x0 KECCAK256 PUSH1 0x0 DUP6 PUSH20 0xFFFFFFFFFFFFFFFFFFFFFFFFFFFFFFFFFFFFFFFF AND PUSH20 0xFFFFFFFFFFFFFFFFFFFFFFFFFFFFFFFFFFFFFFFF AND DUP2 MSTORE PUSH1 0x20 ADD SWAP1 DUP2 MSTORE PUSH1 0x20 ADD PUSH1 0x0 KECCAK256 PUSH1 0x0 PUSH2 0x100 EXP DUP2 SLOAD DUP2 PUSH1 0xFF MUL NOT AND SWAP1 DUP4 ISZERO ISZERO MUL OR SWAP1 SSTORE POP PUSH1 0x0 JUMPDEST PUSH1 0x1 PUSH1 0x0 DUP7 PUSH20 0xFFFFFFFFFFFFFFFFFFFFFFFFFFFFFFFFFFFFFFFF AND PUSH20 0xFFFFFFFFFFFFFFFFFFFFFFFFFFFFFFFFFFFFFFFF AND DUP2 MSTORE PUSH1 0x20 ADD SWAP1 DUP2 MSTORE PUSH1 0x20 ADD PUSH1 0x0 KECCAK256 DUP1 SLOAD SWAP1 POP DUP2 LT ISZERO PUSH2 0xCFC JUMPI PUSH1 0x0 PUSH1 0x1 PUSH1 0x0 DUP8 PUSH20 0xFFFFFFFFFFFFFFFFFFFFFFFFFFFFFFFFFFFFFFFF AND PUSH20 0xFFFFFFFFFFFFFFFFFFFFFFFFFFFFFFFFFFFFFFFF AND DUP2 MSTORE PUSH1 0x20 ADD SWAP1 DUP2 MSTORE PUSH1 0x20 ADD PUSH1 0x0 KECCAK256 DUP3 DUP2 SLOAD DUP2 LT PUSH2 0xC03 JUMPI PUSH2 0xC02 PUSH2 0x1DCD JUMP JUMPDEST JUMPDEST SWAP1 PUSH1 0x0 MSTORE PUSH1 0x20 PUSH1 0x0 KECCAK256 ADD PUSH1 0x0 SWAP1 SLOAD SWAP1 PUSH2 0x100 EXP SWAP1 DIV PUSH20 0xFFFFFFFFFFFFFFFFFFFFFFFFFFFFFFFFFFFFFFFF AND SWAP1 POP DUP5 PUSH20 0xFFFFFFFFFFFFFFFFFFFFFFFFFFFFFFFFFFFFFFFF AND DUP2 PUSH20 0xFFFFFFFFFFFFFFFFFFFFFFFFFFFFFFFFFFFFFFFF AND EQ ISZERO PUSH2 0xCE8 JUMPI PUSH1 0x1 PUSH1 0x0 DUP8 PUSH20 0xFFFFFFFFFFFFFFFFFFFFFFFFFFFFFFFFFFFFFFFF AND PUSH20 0xFFFFFFFFFFFFFFFFFFFFFFFFFFFFFFFFFFFFFFFF AND DUP2 MSTORE PUSH1 0x20 ADD SWAP1 DUP2 MSTORE PUSH1 0x20 ADD PUSH1 0x0 KECCAK256 DUP3 DUP2 SLOAD DUP2 LT PUSH2 0xCB5 JUMPI PUSH2 0xCB4 PUSH2 0x1DCD JUMP JUMPDEST JUMPDEST SWAP1 PUSH1 0x0 MSTORE PUSH1 0x20 PUSH1 0x0 KECCAK256 ADD PUSH1 0x0 PUSH2 0x100 EXP DUP2 SLOAD SWAP1 PUSH20 0xFFFFFFFFFFFFFFFFFFFFFFFFFFFFFFFFFFFFFFFF MUL NOT AND SWAP1 SSTORE POP PUSH2 0xCFC JUMP JUMPDEST POP DUP1 DUP1 PUSH2 0xCF4 SWAP1 PUSH2 0x1D55 JUMP JUMPDEST SWAP2 POP POP PUSH2 0xB66 JUMP JUMPDEST POP POP POP POP POP JUMP JUMPDEST PUSH1 0x0 CALLER SWAP1 POP PUSH1 0x0 CALLVALUE SWAP1 POP DUP1 PUSH1 0x0 DUP1 DUP6 PUSH20 0xFFFFFFFFFFFFFFFFFFFFFFFFFFFFFFFFFFFFFFFF AND PUSH20 0xFFFFFFFFFFFFFFFFFFFFFFFFFFFFFFFFFFFFFFFF AND DUP2 MSTORE PUSH1 0x20 ADD SWAP1 DUP2 MSTORE PUSH1 0x20 ADD PUSH1 0x0 KECCAK256 PUSH1 0x0 DUP3 DUP3 SLOAD PUSH2 0xD5B SWAP2 SWAP1 PUSH2 0x1C71 JUMP JUMPDEST SWAP3 POP POP DUP2 SWAP1 SSTORE POP PUSH1 0x2 PUSH1 0x0 DUP5 PUSH20 0xFFFFFFFFFFFFFFFFFFFFFFFFFFFFFFFFFFFFFFFF AND PUSH20 0xFFFFFFFFFFFFFFFFFFFFFFFFFFFFFFFFFFFFFFFF AND DUP2 MSTORE PUSH1 0x20 ADD SWAP1 DUP2 MSTORE PUSH1 0x20 ADD PUSH1 0x0 KECCAK256 PUSH1 0x0 DUP4 PUSH20 0xFFFFFFFFFFFFFFFFFFFFFFFFFFFFFFFFFFFFFFFF AND PUSH20 0xFFFFFFFFFFFFFFFFFFFFFFFFFFFFFFFFFFFFFFFF AND DUP2 MSTORE PUSH1 0x20 ADD SWAP1 DUP2 MSTORE PUSH1 0x20 ADD PUSH1 0x0 KECCAK256 PUSH1 0x0 SWAP1 SLOAD SWAP1 PUSH2 0x100 EXP SWAP1 DIV PUSH1 0xFF AND PUSH2 0xE73 JUMPI PUSH1 0x0 PUSH1 0x3 PUSH1 0x0 DUP6 PUSH20 0xFFFFFFFFFFFFFFFFFFFFFFFFFFFFFFFFFFFFFFFF AND PUSH20 0xFFFFFFFFFFFFFFFFFFFFFFFFFFFFFFFFFFFFFFFF AND DUP2 MSTORE PUSH1 0x20 ADD SWAP1 DUP2 MSTORE PUSH1 0x20 ADD PUSH1 0x0 KECCAK256 PUSH1 0x0 DUP5 PUSH20 0xFFFFFFFFFFFFFFFFFFFFFFFFFFFFFFFFFFFFFFFF AND PUSH20 0xFFFFFFFFFFFFFFFFFFFFFFFFFFFFFFFFFFFFFFFF AND DUP2 MSTORE PUSH1 0x20 ADD SWAP1 DUP2 MSTORE PUSH1 0x20 ADD PUSH1 0x0 KECCAK256 DUP2 SWAP1 SSTORE POP JUMPDEST DUP1 PUSH1 0x3 PUSH1 0x0 DUP6 PUSH20 0xFFFFFFFFFFFFFFFFFFFFFFFFFFFFFFFFFFFFFFFF AND PUSH20 0xFFFFFFFFFFFFFFFFFFFFFFFFFFFFFFFFFFFFFFFF AND DUP2 MSTORE PUSH1 0x20 ADD SWAP1 DUP2 MSTORE PUSH1 0x20 ADD PUSH1 0x0 KECCAK256 PUSH1 0x0 DUP5 PUSH20 0xFFFFFFFFFFFFFFFFFFFFFFFFFFFFFFFFFFFFFFFF AND PUSH20 0xFFFFFFFFFFFFFFFFFFFFFFFFFFFFFFFFFFFFFFFF AND DUP2 MSTORE PUSH1 0x20 ADD SWAP1 DUP2 MSTORE PUSH1 0x20 ADD PUSH1 0x0 KECCAK256 PUSH1 0x0 DUP3 DUP3 SLOAD PUSH2 0xEFF SWAP2 SWAP1 PUSH2 0x1C71 JUMP JUMPDEST SWAP3 POP POP DUP2 SWAP1 SSTORE POP PUSH1 0x1 PUSH1 0x2 PUSH1 0x0 DUP6 PUSH20 0xFFFFFFFFFFFFFFFFFFFFFFFFFFFFFFFFFFFFFFFF AND PUSH20 0xFFFFFFFFFFFFFFFFFFFFFFFFFFFFFFFFFFFFFFFF AND DUP2 MSTORE PUSH1 0x20 ADD SWAP1 DUP2 MSTORE PUSH1 0x20 ADD PUSH1 0x0 KECCAK256 PUSH1 0x0 DUP5 PUSH20 0xFFFFFFFFFFFFFFFFFFFFFFFFFFFFFFFFFFFFFFFF AND PUSH20 0xFFFFFFFFFFFFFFFFFFFFFFFFFFFFFFFFFFFFFFFF AND DUP2 MSTORE PUSH1 0x20 ADD SWAP1 DUP2 MSTORE PUSH1 0x20 ADD PUSH1 0x0 KECCAK256 PUSH1 0x0 PUSH2 0x100 EXP DUP2 SLOAD DUP2 PUSH1 0xFF MUL NOT AND SWAP1 DUP4 ISZERO ISZERO MUL OR SWAP1 SSTORE POP PUSH1 0x1 PUSH1 0x0 DUP5 PUSH20 0xFFFFFFFFFFFFFFFFFFFFFFFFFFFFFFFFFFFFFFFF AND PUSH20 0xFFFFFFFFFFFFFFFFFFFFFFFFFFFFFFFFFFFFFFFF AND DUP2 MSTORE PUSH1 0x20 ADD SWAP1 DUP2 MSTORE PUSH1 0x20 ADD PUSH1 0x0 KECCAK256 DUP3 SWAP1 DUP1 PUSH1 0x1 DUP2 SLOAD ADD DUP1 DUP3 SSTORE DUP1 SWAP2 POP POP PUSH1 0x1 SWAP1 SUB SWAP1 PUSH1 0x0 MSTORE PUSH1 0x20 PUSH1 0x0 KECCAK256 ADD PUSH1 0x0 SWAP1 SWAP2 SWAP1 SWAP2 SWAP1 SWAP2 PUSH2 0x100 EXP DUP2 SLOAD DUP2 PUSH20 0xFFFFFFFFFFFFFFFFFFFFFFFFFFFFFFFFFFFFFFFF MUL NOT AND SWAP1 DUP4 PUSH20 0xFFFFFFFFFFFFFFFFFFFFFFFFFFFFFFFFFFFFFFFF AND MUL OR SWAP1 SSTORE POP DUP3 PUSH20 0xFFFFFFFFFFFFFFFFFFFFFFFFFFFFFFFFFFFFFFFF AND DUP3 PUSH20 0xFFFFFFFFFFFFFFFFFFFFFFFFFFFFFFFFFFFFFFFF AND PUSH32 0xA343F361112B028DAE2501770614271723BE1D24C9F64FED2D4BD3DDF1C13E35 DUP4 PUSH1 0x40 MLOAD PUSH2 0x1098 SWAP2 SWAP1 PUSH2 0x1C3A JUMP JUMPDEST PUSH1 0x40 MLOAD DUP1 SWAP2 SUB SWAP1 LOG3 POP POP POP JUMP JUMPDEST PUSH1 0x0 CALLER SWAP1 POP PUSH1 0x0 DUP1 PUSH1 0x0 DUP4 PUSH20 0xFFFFFFFFFFFFFFFFFFFFFFFFFFFFFFFFFFFFFFFF AND PUSH20 0xFFFFFFFFFFFFFFFFFFFFFFFFFFFFFFFFFFFFFFFF AND DUP2 MSTORE PUSH1 0x20 ADD SWAP1 DUP2 MSTORE PUSH1 0x20 ADD PUSH1 0x0 KECCAK256 SLOAD SWAP1 POP PUSH1 0x0 DUP2 EQ ISZERO PUSH2 0x1131 JUMPI PUSH1 0x40 MLOAD PUSH32 0x8C379A000000000000000000000000000000000000000000000000000000000 DUP2 MSTORE PUSH1 0x4 ADD PUSH2 0x1128 SWAP1 PUSH2 0x1B7A JUMP JUMPDEST PUSH1 0x40 MLOAD DUP1 SWAP2 SUB SWAP1 REVERT JUMPDEST PUSH1 0x0 DUP3 PUSH20 0xFFFFFFFFFFFFFFFFFFFFFFFFFFFFFFFFFFFFFFFF AND DUP3 PUSH1 0x40 MLOAD PUSH2 0x1157 SWAP1 PUSH2 0x1AAA JUMP JUMPDEST PUSH1 0x0 PUSH1 0x40 MLOAD DUP1 DUP4 SUB DUP2 DUP6 DUP8 GAS CALL SWAP3 POP POP POP RETURNDATASIZE DUP1 PUSH1 0x0 DUP2 EQ PUSH2 0x1194 JUMPI PUSH1 0x40 MLOAD SWAP2 POP PUSH1 0x1F NOT PUSH1 0x3F RETURNDATASIZE ADD AND DUP3 ADD PUSH1 0x40 MSTORE RETURNDATASIZE DUP3 MSTORE RETURNDATASIZE PUSH1 0x0 PUSH1 0x20 DUP5 ADD RETURNDATACOPY PUSH2 0x1199 JUMP JUMPDEST PUSH1 0x60 SWAP2 POP JUMPDEST POP POP SWAP1 POP DUP1 PUSH2 0x11DD JUMPI PUSH1 0x40 MLOAD PUSH32 0x8C379A000000000000000000000000000000000000000000000000000000000 DUP2 MSTORE PUSH1 0x4 ADD PUSH2 0x11D4 SWAP1 PUSH2 0x1B5A JUMP JUMPDEST PUSH1 0x40 MLOAD DUP1 SWAP2 SUB SWAP1 REVERT JUMPDEST PUSH1 0x0 DUP1 DUP5 PUSH20 0xFFFFFFFFFFFFFFFFFFFFFFFFFFFFFFFFFFFFFFFF AND PUSH20 0xFFFFFFFFFFFFFFFFFFFFFFFFFFFFFFFFFFFFFFFF AND DUP2 MSTORE PUSH1 0x20 ADD SWAP1 DUP2 MSTORE PUSH1 0x20 ADD PUSH1 0x0 KECCAK256 PUSH1 0x0 SWAP1 SSTORE PUSH1 0x0 JUMPDEST PUSH1 0x1 PUSH1 0x0 DUP6 PUSH20 0xFFFFFFFFFFFFFFFFFFFFFFFFFFFFFFFFFFFFFFFF AND PUSH20 0xFFFFFFFFFFFFFFFFFFFFFFFFFFFFFFFFFFFFFFFF AND DUP2 MSTORE PUSH1 0x20 ADD SWAP1 DUP2 MSTORE PUSH1 0x20 ADD PUSH1 0x0 KECCAK256 DUP1 SLOAD SWAP1 POP DUP2 LT ISZERO PUSH2 0x1413 JUMPI PUSH1 0x0 PUSH1 0x1 PUSH1 0x0 DUP7 PUSH20 0xFFFFFFFFFFFFFFFFFFFFFFFFFFFFFFFFFFFFFFFF AND PUSH20 0xFFFFFFFFFFFFFFFFFFFFFFFFFFFFFFFFFFFFFFFF AND DUP2 MSTORE PUSH1 0x20 ADD SWAP1 DUP2 MSTORE PUSH1 0x20 ADD PUSH1 0x0 KECCAK256 DUP3 DUP2 SLOAD DUP2 LT PUSH2 0x12BF JUMPI PUSH2 0x12BE PUSH2 0x1DCD JUMP JUMPDEST JUMPDEST SWAP1 PUSH1 0x0 MSTORE PUSH1 0x20 PUSH1 0x0 KECCAK256 ADD PUSH1 0x0 SWAP1 SLOAD SWAP1 PUSH2 0x100 EXP SWAP1 DIV PUSH20 0xFFFFFFFFFFFFFFFFFFFFFFFFFFFFFFFFFFFFFFFF AND SWAP1 POP PUSH1 0x0 PUSH1 0x2 PUSH1 0x0 DUP8 PUSH20 0xFFFFFFFFFFFFFFFFFFFFFFFFFFFFFFFFFFFFFFFF AND PUSH20 0xFFFFFFFFFFFFFFFFFFFFFFFFFFFFFFFFFFFFFFFF AND DUP2 MSTORE PUSH1 0x20 ADD SWAP1 DUP2 MSTORE PUSH1 0x20 ADD PUSH1 0x0 KECCAK256 PUSH1 0x0 DUP4 PUSH20 0xFFFFFFFFFFFFFFFFFFFFFFFFFFFFFFFFFFFFFFFF AND PUSH20 0xFFFFFFFFFFFFFFFFFFFFFFFFFFFFFFFFFFFFFFFF AND DUP2 MSTORE PUSH1 0x20 ADD SWAP1 DUP2 MSTORE PUSH1 0x20 ADD PUSH1 0x0 KECCAK256 PUSH1 0x0 PUSH2 0x100 EXP DUP2 SLOAD DUP2 PUSH1 0xFF MUL NOT AND SWAP1 DUP4 ISZERO ISZERO MUL OR SWAP1 SSTORE POP PUSH1 0x1 PUSH1 0x0 DUP7 PUSH20 0xFFFFFFFFFFFFFFFFFFFFFFFFFFFFFFFFFFFFFFFF AND PUSH20 0xFFFFFFFFFFFFFFFFFFFFFFFFFFFFFFFFFFFFFFFF AND DUP2 MSTORE PUSH1 0x20 ADD SWAP1 DUP2 MSTORE PUSH1 0x20 ADD PUSH1 0x0 KECCAK256 DUP3 DUP2 SLOAD DUP2 LT PUSH2 0x13D2 JUMPI PUSH2 0x13D1 PUSH2 0x1DCD JUMP JUMPDEST JUMPDEST SWAP1 PUSH1 0x0 MSTORE PUSH1 0x20 PUSH1 0x0 KECCAK256 ADD PUSH1 0x0 PUSH2 0x100 EXP DUP2 SLOAD SWAP1 PUSH20 0xFFFFFFFFFFFFFFFFFFFFFFFFFFFFFFFFFFFFFFFF MUL NOT AND SWAP1 SSTORE POP DUP1 DUP1 PUSH2 0x140B SWAP1 PUSH2 0x1D55 JUMP JUMPDEST SWAP2 POP POP PUSH2 0x1222 JUMP JUMPDEST POP CALLER PUSH20 0xFFFFFFFFFFFFFFFFFFFFFFFFFFFFFFFFFFFFFFFF AND PUSH32 0xA74FAB966BFC29D4EA7866D609AC5D94324A5FE817362D6A9FEE5D2F8DF46759 DUP4 PUSH1 0x40 MLOAD PUSH2 0x145A SWAP2 SWAP1 PUSH2 0x1C3A JUMP JUMPDEST PUSH1 0x40 MLOAD DUP1 SWAP2 SUB SWAP1 LOG2 POP POP POP JUMP JUMPDEST PUSH1 0x0 CALLER SWAP1 POP PUSH1 0x0 PUSH1 0x5 PUSH1 0x0 DUP4 PUSH20 0xFFFFFFFFFFFFFFFFFFFFFFFFFFFFFFFFFFFFFFFF AND PUSH20 0xFFFFFFFFFFFFFFFFFFFFFFFFFFFFFFFFFFFFFFFF AND DUP2 MSTORE PUSH1 0x20 ADD SWAP1 DUP2 MSTORE PUSH1 0x20 ADD PUSH1 0x0 KECCAK256 SLOAD SWAP1 POP PUSH1 0x0 DUP2 EQ ISZERO PUSH2 0x14F4 JUMPI PUSH1 0x40 MLOAD PUSH32 0x8C379A000000000000000000000000000000000000000000000000000000000 DUP2 MSTORE PUSH1 0x4 ADD PUSH2 0x14EB SWAP1 PUSH2 0x1BDA JUMP JUMPDEST PUSH1 0x40 MLOAD DUP1 SWAP2 SUB SWAP1 REVERT JUMPDEST PUSH1 0x0 DUP3 PUSH20 0xFFFFFFFFFFFFFFFFFFFFFFFFFFFFFFFFFFFFFFFF AND DUP3 PUSH1 0x40 MLOAD PUSH2 0x151A SWAP1 PUSH2 0x1AAA JUMP JUMPDEST PUSH1 0x0 PUSH1 0x40 MLOAD DUP1 DUP4 SUB DUP2 DUP6 DUP8 GAS CALL SWAP3 POP POP POP RETURNDATASIZE DUP1 PUSH1 0x0 DUP2 EQ PUSH2 0x1557 JUMPI PUSH1 0x40 MLOAD SWAP2 POP PUSH1 0x1F NOT PUSH1 0x3F RETURNDATASIZE ADD AND DUP3 ADD PUSH1 0x40 MSTORE RETURNDATASIZE DUP3 MSTORE RETURNDATASIZE PUSH1 0x0 PUSH1 0x20 DUP5 ADD RETURNDATACOPY PUSH2 0x155C JUMP JUMPDEST PUSH1 0x60 SWAP2 POP JUMPDEST POP POP SWAP1 POP DUP1 PUSH2 0x15A0 JUMPI PUSH1 0x40 MLOAD PUSH32 0x8C379A000000000000000000000000000000000000000000000000000000000 DUP2 MSTORE PUSH1 0x4 ADD PUSH2 0x1597 SWAP1 PUSH2 0x1B5A JUMP JUMPDEST PUSH1 0x40 MLOAD DUP1 SWAP2 SUB SWAP1 REVERT JUMPDEST PUSH1 0x5 PUSH1 0x0 DUP5 PUSH20 0xFFFFFFFFFFFFFFFFFFFFFFFFFFFFFFFFFFFFFFFF AND PUSH20 0xFFFFFFFFFFFFFFFFFFFFFFFFFFFFFFFFFFFFFFFF AND DUP2 MSTORE PUSH1 0x20 ADD SWAP1 DUP2 MSTORE PUSH1 0x20 ADD PUSH1 0x0 KECCAK256 PUSH1 0x0 SWAP1 SSTORE PUSH1 0x0 JUMPDEST PUSH1 0x6 PUSH1 0x0 DUP6 PUSH20 0xFFFFFFFFFFFFFFFFFFFFFFFFFFFFFFFFFFFFFFFF AND PUSH20 0xFFFFFFFFFFFFFFFFFFFFFFFFFFFFFFFFFFFFFFFF AND DUP2 MSTORE PUSH1 0x20 ADD SWAP1 DUP2 MSTORE PUSH1 0x20 ADD PUSH1 0x0 KECCAK256 DUP1 SLOAD SWAP1 POP DUP2 LT ISZERO PUSH2 0x17D7 JUMPI PUSH1 0x0 PUSH1 0x6 PUSH1 0x0 DUP7 PUSH20 0xFFFFFFFFFFFFFFFFFFFFFFFFFFFFFFFFFFFFFFFF AND PUSH20 0xFFFFFFFFFFFFFFFFFFFFFFFFFFFFFFFFFFFFFFFF AND DUP2 MSTORE PUSH1 0x20 ADD SWAP1 DUP2 MSTORE PUSH1 0x20 ADD PUSH1 0x0 KECCAK256 DUP3 DUP2 SLOAD DUP2 LT PUSH2 0x1683 JUMPI PUSH2 0x1682 PUSH2 0x1DCD JUMP JUMPDEST JUMPDEST SWAP1 PUSH1 0x0 MSTORE PUSH1 0x20 PUSH1 0x0 KECCAK256 ADD PUSH1 0x0 SWAP1 SLOAD SWAP1 PUSH2 0x100 EXP SWAP1 DIV PUSH20 0xFFFFFFFFFFFFFFFFFFFFFFFFFFFFFFFFFFFFFFFF AND SWAP1 POP PUSH1 0x0 PUSH1 0x7 PUSH1 0x0 DUP8 PUSH20 0xFFFFFFFFFFFFFFFFFFFFFFFFFFFFFFFFFFFFFFFF AND PUSH20 0xFFFFFFFFFFFFFFFFFFFFFFFFFFFFFFFFFFFFFFFF AND DUP2 MSTORE PUSH1 0x20 ADD SWAP1 DUP2 MSTORE PUSH1 0x20 ADD PUSH1 0x0 KECCAK256 PUSH1 0x0 DUP4 PUSH20 0xFFFFFFFFFFFFFFFFFFFFFFFFFFFFFFFFFFFFFFFF AND PUSH20 0xFFFFFFFFFFFFFFFFFFFFFFFFFFFFFFFFFFFFFFFF AND DUP2 MSTORE PUSH1 0x20 ADD SWAP1 DUP2 MSTORE PUSH1 0x20 ADD PUSH1 0x0 KECCAK256 PUSH1 0x0 PUSH2 0x100 EXP DUP2 SLOAD DUP2 PUSH1 0xFF MUL NOT AND SWAP1 DUP4 ISZERO ISZERO MUL OR SWAP1 SSTORE POP PUSH1 0x6 PUSH1 0x0 DUP7 PUSH20 0xFFFFFFFFFFFFFFFFFFFFFFFFFFFFFFFFFFFFFFFF AND PUSH20 0xFFFFFFFFFFFFFFFFFFFFFFFFFFFFFFFFFFFFFFFF AND DUP2 MSTORE PUSH1 0x20 ADD SWAP1 DUP2 MSTORE PUSH1 0x20 ADD PUSH1 0x0 KECCAK256 DUP3 DUP2 SLOAD DUP2 LT PUSH2 0x1796 JUMPI PUSH2 0x1795 PUSH2 0x1DCD JUMP JUMPDEST JUMPDEST SWAP1 PUSH1 0x0 MSTORE PUSH1 0x20 PUSH1 0x0 KECCAK256 ADD PUSH1 0x0 PUSH2 0x100 EXP DUP2 SLOAD SWAP1 PUSH20 0xFFFFFFFFFFFFFFFFFFFFFFFFFFFFFFFFFFFFFFFF MUL NOT AND SWAP1 SSTORE POP DUP1 DUP1 PUSH2 0x17CF SWAP1 PUSH2 0x1D55 JUMP JUMPDEST SWAP2 POP POP PUSH2 0x15E6 JUMP JUMPDEST POP CALLER PUSH20 0xFFFFFFFFFFFFFFFFFFFFFFFFFFFFFFFFFFFFFFFF AND PUSH32 0xA74FAB966BFC29D4EA7866D609AC5D94324A5FE817362D6A9FEE5D2F8DF46759 DUP4 PUSH1 0x40 MLOAD PUSH2 0x181E SWAP2 SWAP1 PUSH2 0x1C3A JUMP JUMPDEST PUSH1 0x40 MLOAD DUP1 SWAP2 SUB SWAP1 LOG2 POP POP POP JUMP JUMPDEST POP JUMP JUMPDEST PUSH1 0x0 SELFBALANCE SWAP1 POP SWAP1 JUMP JUMPDEST PUSH1 0x0 DUP2 CALLDATALOAD SWAP1 POP PUSH2 0x1845 DUP2 PUSH2 0x1FBE JUMP JUMPDEST SWAP3 SWAP2 POP POP JUMP JUMPDEST PUSH1 0x0 DUP2 MLOAD SWAP1 POP PUSH2 0x185A DUP2 PUSH2 0x1FD5 JUMP JUMPDEST SWAP3 SWAP2 POP POP JUMP JUMPDEST PUSH1 0x0 DUP2 CALLDATALOAD SWAP1 POP PUSH2 0x186F DUP2 PUSH2 0x1FEC JUMP JUMPDEST SWAP3 SWAP2 POP POP JUMP JUMPDEST PUSH1 0x0 DUP2 MLOAD SWAP1 POP PUSH2 0x1884 DUP2 PUSH2 0x1FEC JUMP JUMPDEST SWAP3 SWAP2 POP POP JUMP JUMPDEST PUSH1 0x0 PUSH1 0x20 DUP3 DUP5 SUB SLT ISZERO PUSH2 0x18A0 JUMPI PUSH2 0x189F PUSH2 0x1DFC JUMP JUMPDEST JUMPDEST PUSH1 0x0 PUSH2 0x18AE DUP5 DUP3 DUP6 ADD PUSH2 0x1836 JUMP JUMPDEST SWAP2 POP POP SWAP3 SWAP2 POP POP JUMP JUMPDEST PUSH1 0x0 DUP1 PUSH1 0x40 DUP4 DUP6 SUB SLT ISZERO PUSH2 0x18CE JUMPI PUSH2 0x18CD PUSH2 0x1DFC JUMP JUMPDEST JUMPDEST PUSH1 0x0 PUSH2 0x18DC DUP6 DUP3 DUP7 ADD PUSH2 0x1836 JUMP JUMPDEST SWAP3 POP POP PUSH1 0x20 PUSH2 0x18ED DUP6 DUP3 DUP7 ADD PUSH2 0x1860 JUMP JUMPDEST SWAP2 POP POP SWAP3 POP SWAP3 SWAP1 POP JUMP JUMPDEST PUSH1 0x0 PUSH1 0x20 DUP3 DUP5 SUB SLT ISZERO PUSH2 0x190D JUMPI PUSH2 0x190C PUSH2 0x1DFC JUMP JUMPDEST JUMPDEST PUSH1 0x0 PUSH2 0x191B DUP5 DUP3 DUP6 ADD PUSH2 0x184B JUMP JUMPDEST SWAP2 POP POP SWAP3 SWAP2 POP POP JUMP JUMPDEST PUSH1 0x0 PUSH1 0x20 DUP3 DUP5 SUB SLT ISZERO PUSH2 0x193A JUMPI PUSH2 0x1939 PUSH2 0x1DFC JUMP JUMPDEST JUMPDEST PUSH1 0x0 PUSH2 0x1948 DUP5 DUP3 DUP6 ADD PUSH2 0x1875 JUMP JUMPDEST SWAP2 POP POP SWAP3 SWAP2 POP POP JUMP JUMPDEST PUSH2 0x195A DUP2 PUSH2 0x1CFB JUMP JUMPDEST DUP3 MSTORE POP POP JUMP JUMPDEST PUSH1 0x0 PUSH2 0x196D PUSH1 0x1F DUP4 PUSH2 0x1C60 JUMP JUMPDEST SWAP2 POP PUSH2 0x1978 DUP3 PUSH2 0x1E01 JUMP JUMPDEST PUSH1 0x20 DUP3 ADD SWAP1 POP SWAP2 SWAP1 POP JUMP JUMPDEST PUSH1 0x0 PUSH2 0x1990 PUSH1 0x14 DUP4 PUSH2 0x1C60 JUMP JUMPDEST SWAP2 POP PUSH2 0x199B DUP3 PUSH2 0x1E2A JUMP JUMPDEST PUSH1 0x20 DUP3 ADD SWAP1 POP SWAP2 SWAP1 POP JUMP JUMPDEST PUSH1 0x0 PUSH2 0x19B3 PUSH1 0x21 DUP4 PUSH2 0x1C60 JUMP JUMPDEST SWAP2 POP PUSH2 0x19BE DUP3 PUSH2 0x1E53 JUMP JUMPDEST PUSH1 0x40 DUP3 ADD SWAP1 POP SWAP2 SWAP1 POP JUMP JUMPDEST PUSH1 0x0 PUSH2 0x19D6 PUSH1 0x19 DUP4 PUSH2 0x1C60 JUMP JUMPDEST SWAP2 POP PUSH2 0x19E1 DUP3 PUSH2 0x1EA2 JUMP JUMPDEST PUSH1 0x20 DUP3 ADD SWAP1 POP SWAP2 SWAP1 POP JUMP JUMPDEST PUSH1 0x0 PUSH2 0x19F9 PUSH1 0x45 DUP4 PUSH2 0x1C60 JUMP JUMPDEST SWAP2 POP PUSH2 0x1A04 DUP3 PUSH2 0x1ECB JUMP JUMPDEST PUSH1 0x60 DUP3 ADD SWAP1 POP SWAP2 SWAP1 POP JUMP JUMPDEST PUSH1 0x0 PUSH2 0x1A1C PUSH1 0x0 DUP4 PUSH2 0x1C55 JUMP JUMPDEST SWAP2 POP PUSH2 0x1A27 DUP3 PUSH2 0x1F40 JUMP JUMPDEST PUSH1 0x0 DUP3 ADD SWAP1 POP SWAP2 SWAP1 POP JUMP JUMPDEST PUSH1 0x0 PUSH2 0x1A3F PUSH1 0x1E DUP4 PUSH2 0x1C60 JUMP JUMPDEST SWAP2 POP PUSH2 0x1A4A DUP3 PUSH2 0x1F43 JUMP JUMPDEST PUSH1 0x20 DUP3 ADD SWAP1 POP SWAP2 SWAP1 POP JUMP JUMPDEST PUSH1 0x0 PUSH2 0x1A62 PUSH1 0x13 DUP4 PUSH2 0x1C60 JUMP JUMPDEST SWAP2 POP PUSH2 0x1A6D DUP3 PUSH2 0x1F6C JUMP JUMPDEST PUSH1 0x20 DUP3 ADD SWAP1 POP SWAP2 SWAP1 POP JUMP JUMPDEST PUSH1 0x0 PUSH2 0x1A85 PUSH1 0x19 DUP4 PUSH2 0x1C60 JUMP JUMPDEST SWAP2 POP PUSH2 0x1A90 DUP3 PUSH2 0x1F95 JUMP JUMPDEST PUSH1 0x20 DUP3 ADD SWAP1 POP SWAP2 SWAP1 POP JUMP JUMPDEST PUSH2 0x1AA4 DUP2 PUSH2 0x1D4B JUMP JUMPDEST DUP3 MSTORE POP POP JUMP JUMPDEST PUSH1 0x0 PUSH2 0x1AB5 DUP3 PUSH2 0x1A0F JUMP JUMPDEST SWAP2 POP DUP2 SWAP1 POP SWAP2 SWAP1 POP JUMP JUMPDEST PUSH1 0x0 PUSH1 0x20 DUP3 ADD SWAP1 POP PUSH2 0x1AD4 PUSH1 0x0 DUP4 ADD DUP5 PUSH2 0x1951 JUMP JUMPDEST SWAP3 SWAP2 POP POP JUMP JUMPDEST PUSH1 0x0 PUSH1 0x40 DUP3 ADD SWAP1 POP PUSH2 0x1AEF PUSH1 0x0 DUP4 ADD DUP6 PUSH2 0x1951 JUMP JUMPDEST PUSH2 0x1AFC PUSH1 0x20 DUP4 ADD DUP5 PUSH2 0x1951 JUMP JUMPDEST SWAP4 SWAP3 POP POP POP JUMP JUMPDEST PUSH1 0x0 PUSH1 0x60 DUP3 ADD SWAP1 POP PUSH2 0x1B18 PUSH1 0x0 DUP4 ADD DUP7 PUSH2 0x1951 JUMP JUMPDEST PUSH2 0x1B25 PUSH1 0x20 DUP4 ADD DUP6 PUSH2 0x1951 JUMP JUMPDEST PUSH2 0x1B32 PUSH1 0x40 DUP4 ADD DUP5 PUSH2 0x1A9B JUMP JUMPDEST SWAP5 SWAP4 POP POP POP POP JUMP JUMPDEST PUSH1 0x0 PUSH1 0x20 DUP3 ADD SWAP1 POP DUP2 DUP2 SUB PUSH1 0x0 DUP4 ADD MSTORE PUSH2 0x1B53 DUP2 PUSH2 0x1960 JUMP JUMPDEST SWAP1 POP SWAP2 SWAP1 POP JUMP JUMPDEST PUSH1 0x0 PUSH1 0x20 DUP3 ADD SWAP1 POP DUP2 DUP2 SUB PUSH1 0x0 DUP4 ADD MSTORE PUSH2 0x1B73 DUP2 PUSH2 0x1983 JUMP JUMPDEST SWAP1 POP SWAP2 SWAP1 POP JUMP JUMPDEST PUSH1 0x0 PUSH1 0x20 DUP3 ADD SWAP1 POP DUP2 DUP2 SUB PUSH1 0x0 DUP4 ADD MSTORE PUSH2 0x1B93 DUP2 PUSH2 0x19A6 JUMP JUMPDEST SWAP1 POP SWAP2 SWAP1 POP JUMP JUMPDEST PUSH1 0x0 PUSH1 0x20 DUP3 ADD SWAP1 POP DUP2 DUP2 SUB PUSH1 0x0 DUP4 ADD MSTORE PUSH2 0x1BB3 DUP2 PUSH2 0x19C9 JUMP JUMPDEST SWAP1 POP SWAP2 SWAP1 POP JUMP JUMPDEST PUSH1 0x0 PUSH1 0x20 DUP3 ADD SWAP1 POP DUP2 DUP2 SUB PUSH1 0x0 DUP4 ADD MSTORE PUSH2 0x1BD3 DUP2 PUSH2 0x19EC JUMP JUMPDEST SWAP1 POP SWAP2 SWAP1 POP JUMP JUMPDEST PUSH1 0x0 PUSH1 0x20 DUP3 ADD SWAP1 POP DUP2 DUP2 SUB PUSH1 0x0 DUP4 ADD MSTORE PUSH2 0x1BF3 DUP2 PUSH2 0x1A32 JUMP JUMPDEST SWAP1 POP SWAP2 SWAP1 POP JUMP JUMPDEST PUSH1 0x0 PUSH1 0x20 DUP3 ADD SWAP1 POP DUP2 DUP2 SUB PUSH1 0x0 DUP4 ADD MSTORE PUSH2 0x1C13 DUP2 PUSH2 0x1A55 JUMP JUMPDEST SWAP1 POP SWAP2 SWAP1 POP JUMP JUMPDEST PUSH1 0x0 PUSH1 0x20 DUP3 ADD SWAP1 POP DUP2 DUP2 SUB PUSH1 0x0 DUP4 ADD MSTORE PUSH2 0x1C33 DUP2 PUSH2 0x1A78 JUMP JUMPDEST SWAP1 POP SWAP2 SWAP1 POP JUMP JUMPDEST PUSH1 0x0 PUSH1 0x20 DUP3 ADD SWAP1 POP PUSH2 0x1C4F PUSH1 0x0 DUP4 ADD DUP5 PUSH2 0x1A9B JUMP JUMPDEST SWAP3 SWAP2 POP POP JUMP JUMPDEST PUSH1 0x0 DUP2 SWAP1 POP SWAP3 SWAP2 POP POP JUMP JUMPDEST PUSH1 0x0 DUP3 DUP3 MSTORE PUSH1 0x20 DUP3 ADD SWAP1 POP SWAP3 SWAP2 POP POP JUMP JUMPDEST PUSH1 0x0 PUSH2 0x1C7C DUP3 PUSH2 0x1D4B JUMP JUMPDEST SWAP2 POP PUSH2 0x1C87 DUP4 PUSH2 0x1D4B JUMP JUMPDEST SWAP3 POP DUP3 PUSH32 0xFFFFFFFFFFFFFFFFFFFFFFFFFFFFFFFFFFFFFFFFFFFFFFFFFFFFFFFFFFFFFFFF SUB DUP3 GT ISZERO PUSH2 0x1CBC JUMPI PUSH2 0x1CBB PUSH2 0x1D9E JUMP JUMPDEST JUMPDEST DUP3 DUP3 ADD SWAP1 POP SWAP3 SWAP2 POP POP JUMP JUMPDEST PUSH1 0x0 PUSH2 0x1CD2 DUP3 PUSH2 0x1D4B JUMP JUMPDEST SWAP2 POP PUSH2 0x1CDD DUP4 PUSH2 0x1D4B JUMP JUMPDEST SWAP3 POP DUP3 DUP3 LT ISZERO PUSH2 0x1CF0 JUMPI PUSH2 0x1CEF PUSH2 0x1D9E JUMP JUMPDEST JUMPDEST DUP3 DUP3 SUB SWAP1 POP SWAP3 SWAP2 POP POP JUMP JUMPDEST PUSH1 0x0 PUSH2 0x1D06 DUP3 PUSH2 0x1D2B JUMP JUMPDEST SWAP1 POP SWAP2 SWAP1 POP JUMP JUMPDEST PUSH1 0x0 PUSH2 0x1D18 DUP3 PUSH2 0x1D2B JUMP JUMPDEST SWAP1 POP SWAP2 SWAP1 POP JUMP JUMPDEST PUSH1 0x0 DUP2 ISZERO ISZERO SWAP1 POP SWAP2 SWAP1 POP JUMP JUMPDEST PUSH1 0x0 PUSH20 0xFFFFFFFFFFFFFFFFFFFFFFFFFFFFFFFFFFFFFFFF DUP3 AND SWAP1 POP SWAP2 SWAP1 POP JUMP JUMPDEST PUSH1 0x0 DUP2 SWAP1 POP SWAP2 SWAP1 POP JUMP JUMPDEST PUSH1 0x0 PUSH2 0x1D60 DUP3 PUSH2 0x1D4B JUMP JUMPDEST SWAP2 POP PUSH32 0xFFFFFFFFFFFFFFFFFFFFFFFFFFFFFFFFFFFFFFFFFFFFFFFFFFFFFFFFFFFFFFFF DUP3 EQ ISZERO PUSH2 0x1D93 JUMPI PUSH2 0x1D92 PUSH2 0x1D9E JUMP JUMPDEST JUMPDEST PUSH1 0x1 DUP3 ADD SWAP1 POP SWAP2 SWAP1 POP JUMP JUMPDEST PUSH32 0x4E487B7100000000000000000000000000000000000000000000000000000000 PUSH1 0x0 MSTORE PUSH1 0x11 PUSH1 0x4 MSTORE PUSH1 0x24 PUSH1 0x0 REVERT JUMPDEST PUSH32 0x4E487B7100000000000000000000000000000000000000000000000000000000 PUSH1 0x0 MSTORE PUSH1 0x32 PUSH1 0x4 MSTORE PUSH1 0x24 PUSH1 0x0 REVERT JUMPDEST PUSH1 0x0 DUP1 REVERT JUMPDEST PUSH32 0x63616C6C206F662061206E6F6E2D6578697374656E742066756E6374696F6E00 PUSH1 0x0 DUP3 ADD MSTORE POP JUMP JUMPDEST PUSH32 0x4661696C656420746F2073656E64204574686572000000000000000000000000 PUSH1 0x0 DUP3 ADD MSTORE POP JUMP JUMPDEST PUSH32 0x596F7520646F6E27742068617665206574686572732073656E7420746F20796F PUSH1 0x0 DUP3 ADD MSTORE PUSH32 0x7500000000000000000000000000000000000000000000000000000000000000 PUSH1 0x20 DUP3 ADD MSTORE POP JUMP JUMPDEST PUSH32 0x436865636B2074686520746F6B656E20616C6C6F77616E636500000000000000 PUSH1 0x0 DUP3 ADD MSTORE POP JUMP JUMPDEST PUSH32 0x526F6C6C6261636B206973206E6F7420617661696C61626C6520666F7220796F PUSH1 0x0 DUP3 ADD MSTORE PUSH32 0x752E20457468657273206D6967687420626520616C7265616479207769746864 PUSH1 0x20 DUP3 ADD MSTORE PUSH32 0x7261776564000000000000000000000000000000000000000000000000000000 PUSH1 0x40 DUP3 ADD MSTORE POP JUMP JUMPDEST POP JUMP JUMPDEST PUSH32 0x596F7520646F6E2774206861766520474C442073656E7420746F20796F750000 PUSH1 0x0 DUP3 ADD MSTORE POP JUMP JUMPDEST PUSH32 0x526F6C6C6261636B2076616C7565206973203000000000000000000000000000 PUSH1 0x0 DUP3 ADD MSTORE POP JUMP JUMPDEST PUSH32 0x596F7520646F6E2774206861766520656E6F75676820474C4400000000000000 PUSH1 0x0 DUP3 ADD MSTORE POP JUMP JUMPDEST PUSH2 0x1FC7 DUP2 PUSH2 0x1D0D JUMP JUMPDEST DUP2 EQ PUSH2 0x1FD2 JUMPI PUSH1 0x0 DUP1 REVERT JUMPDEST POP JUMP JUMPDEST PUSH2 0x1FDE DUP2 PUSH2 0x1D1F JUMP JUMPDEST DUP2 EQ PUSH2 0x1FE9 JUMPI PUSH1 0x0 DUP1 REVERT JUMPDEST POP JUMP JUMPDEST PUSH2 0x1FF5 DUP2 PUSH2 0x1D4B JUMP JUMPDEST DUP2 EQ PUSH2 0x2000 JUMPI PUSH1 0x0 DUP1 REVERT JUMPDEST POP JUMP INVALID LOG2 PUSH5 0x6970667358 0x22 SLT KECCAK256 0xD5 SHR 0x2D 0x5E 0xB4 0x4F DUP10 STOP SWAP15 CREATE DUP13 XOR 0xC3 DUP2 COINBASE 0xE 0xF7 OR 0xEE 0xE DUP13 LOG0 0xBF CREATE MUL 0xC8 JUMP SAR 0xCA PUSH24 0x86F364736F6C634300080700330000000000000000000000 "
				},
				"gasEstimates": {
					"creation": {
						"codeDepositCost": "1649800",
						"executionCost": "infinite",
						"totalCost": "infinite"
					},
					"external": {
						"": "1954",
						"getEtherBalance()": "405",
						"rollbackEther(address)": "infinite",
						"rollbackGLD(address)": "499",
						"sendEther(address)": "infinite",
						"sendGLD(address,uint256)": "infinite",
						"withdrawEther()": "infinite",
						"withdrawGLD()": "infinite"
					}
				},
				"methodIdentifiers": {
					"getEtherBalance()": "ea46193e",
					"rollbackEther(address)": "36843861",
					"rollbackGLD(address)": "e0f4ba14",
					"sendEther(address)": "48c981e2",
					"sendGLD(address,uint256)": "0d335f3d",
					"withdrawEther()": "7362377b",
					"withdrawGLD()": "d2472cb6"
				}
			},
			"storageLayout": {
				"storage": [
					{
						"astId": 716,
						"contract": "contracts/GLDEsrow.sol:GLDEscrow",
						"label": "receiverAddress",
						"offset": 0,
						"slot": "0",
						"type": "t_mapping(t_address,t_uint256)"
					},
					{
						"astId": 721,
						"contract": "contracts/GLDEsrow.sol:GLDEscrow",
						"label": "rollbackAddresses",
						"offset": 0,
						"slot": "1",
						"type": "t_mapping(t_address,t_array(t_address)dyn_storage)"
					},
					{
						"astId": 727,
						"contract": "contracts/GLDEsrow.sol:GLDEscrow",
						"label": "rollbackPossible",
						"offset": 0,
						"slot": "2",
						"type": "t_mapping(t_address,t_mapping(t_address,t_bool))"
					},
					{
						"astId": 733,
						"contract": "contracts/GLDEsrow.sol:GLDEscrow",
						"label": "rollbackValue",
						"offset": 0,
						"slot": "3",
						"type": "t_mapping(t_address,t_mapping(t_address,t_uint256))"
					},
					{
						"astId": 1056,
						"contract": "contracts/GLDEsrow.sol:GLDEscrow",
						"label": "token",
						"offset": 0,
						"slot": "4",
						"type": "t_contract(GLDToken)1330"
					},
					{
						"astId": 1060,
						"contract": "contracts/GLDEsrow.sol:GLDEscrow",
						"label": "receiverGLDAddress",
						"offset": 0,
						"slot": "5",
						"type": "t_mapping(t_address,t_uint256)"
					},
					{
						"astId": 1065,
						"contract": "contracts/GLDEsrow.sol:GLDEscrow",
						"label": "rollbackGLDAddresses",
						"offset": 0,
						"slot": "6",
						"type": "t_mapping(t_address,t_array(t_address)dyn_storage)"
					},
					{
						"astId": 1071,
						"contract": "contracts/GLDEsrow.sol:GLDEscrow",
						"label": "rollbackGLDPossible",
						"offset": 0,
						"slot": "7",
						"type": "t_mapping(t_address,t_mapping(t_address,t_bool))"
					},
					{
						"astId": 1077,
						"contract": "contracts/GLDEsrow.sol:GLDEscrow",
						"label": "rollbackGLDValue",
						"offset": 0,
						"slot": "8",
						"type": "t_mapping(t_address,t_mapping(t_address,t_uint256))"
					}
				],
				"types": {
					"t_address": {
						"encoding": "inplace",
						"label": "address",
						"numberOfBytes": "20"
					},
					"t_array(t_address)dyn_storage": {
						"base": "t_address",
						"encoding": "dynamic_array",
						"label": "address[]",
						"numberOfBytes": "32"
					},
					"t_bool": {
						"encoding": "inplace",
						"label": "bool",
						"numberOfBytes": "1"
					},
					"t_contract(GLDToken)1330": {
						"encoding": "inplace",
						"label": "contract GLDToken",
						"numberOfBytes": "20"
					},
					"t_mapping(t_address,t_array(t_address)dyn_storage)": {
						"encoding": "mapping",
						"key": "t_address",
						"label": "mapping(address => address[])",
						"numberOfBytes": "32",
						"value": "t_array(t_address)dyn_storage"
					},
					"t_mapping(t_address,t_bool)": {
						"encoding": "mapping",
						"key": "t_address",
						"label": "mapping(address => bool)",
						"numberOfBytes": "32",
						"value": "t_bool"
					},
					"t_mapping(t_address,t_mapping(t_address,t_bool))": {
						"encoding": "mapping",
						"key": "t_address",
						"label": "mapping(address => mapping(address => bool))",
						"numberOfBytes": "32",
						"value": "t_mapping(t_address,t_bool)"
					},
					"t_mapping(t_address,t_mapping(t_address,t_uint256))": {
						"encoding": "mapping",
						"key": "t_address",
						"label": "mapping(address => mapping(address => uint256))",
						"numberOfBytes": "32",
						"value": "t_mapping(t_address,t_uint256)"
					},
					"t_mapping(t_address,t_uint256)": {
						"encoding": "mapping",
						"key": "t_address",
						"label": "mapping(address => uint256)",
						"numberOfBytes": "32",
						"value": "t_uint256"
					},
					"t_uint256": {
						"encoding": "inplace",
						"label": "uint256",
						"numberOfBytes": "32"
					}
				}
			},
			"userdoc": {
				"kind": "user",
				"methods": {},
				"version": 1
			}
		}
	}
}