{
	"contracts/GLDEsrow.sol": {
		"GLDEscrow": {
			"abi": [
				{
					"anonymous": false,
					"inputs": [
						{
							"indexed": false,
							"internalType": "string",
							"name": "",
							"type": "string"
						}
					],
					"name": "Error",
					"type": "event"
				},
				{
					"anonymous": false,
					"inputs": [
						{
							"indexed": true,
							"internalType": "address",
							"name": "sender",
							"type": "address"
						},
						{
							"indexed": true,
							"internalType": "address",
							"name": "to",
							"type": "address"
						},
						{
							"indexed": false,
							"internalType": "uint256",
							"name": "value",
							"type": "uint256"
						}
					],
					"name": "LogRolledBack",
					"type": "event"
				},
				{
					"anonymous": false,
					"inputs": [
						{
							"indexed": true,
							"internalType": "address",
							"name": "sender",
							"type": "address"
						},
						{
							"indexed": true,
							"internalType": "address",
							"name": "to",
							"type": "address"
						},
						{
							"indexed": false,
							"internalType": "uint256",
							"name": "value",
							"type": "uint256"
						}
					],
					"name": "LogSend",
					"type": "event"
				},
				{
					"anonymous": false,
					"inputs": [
						{
							"indexed": true,
							"internalType": "address",
							"name": "to",
							"type": "address"
						},
						{
							"indexed": false,
							"internalType": "uint256",
							"name": "value",
							"type": "uint256"
						}
					],
					"name": "LogWithDraw",
					"type": "event"
				},
				{
					"stateMutability": "payable",
					"type": "fallback"
				},
				{
					"inputs": [],
					"name": "getEtherBalance",
					"outputs": [
						{
							"internalType": "uint256",
							"name": "",
							"type": "uint256"
						}
					],
					"stateMutability": "view",
					"type": "function"
				},
				{
					"inputs": [
						{
							"internalType": "address payable",
							"name": "to",
							"type": "address"
						}
					],
					"name": "rollbackEther",
					"outputs": [],
					"stateMutability": "payable",
					"type": "function"
				},
				{
					"inputs": [
						{
							"internalType": "address payable",
							"name": "to",
							"type": "address"
						}
					],
					"name": "sendEther",
					"outputs": [],
					"stateMutability": "payable",
					"type": "function"
				},
				{
					"inputs": [
						{
							"internalType": "address payable",
							"name": "to",
							"type": "address"
						},
						{
							"internalType": "int256",
							"name": "amount",
							"type": "int256"
						}
					],
					"name": "sendGLD",
					"outputs": [],
					"stateMutability": "nonpayable",
					"type": "function"
				},
				{
					"inputs": [],
					"name": "withdrawEther",
					"outputs": [],
					"stateMutability": "payable",
					"type": "function"
				},
				{
					"inputs": [],
					"name": "withdrawGLD",
					"outputs": [],
					"stateMutability": "nonpayable",
					"type": "function"
				},
				{
					"stateMutability": "payable",
					"type": "receive"
				}
			],
			"devdoc": {
				"kind": "dev",
				"methods": {},
				"version": 1
			},
			"evm": {
				"assembly": "    /* \"contracts/GLDEsrow.sol\":99:330  contract GLDEscrow is Escrow {\r... */\n  mstore(0x40, 0x80)\n  callvalue\n  dup1\n  iszero\n  tag_1\n  jumpi\n  0x00\n  dup1\n  revert\ntag_1:\n  pop\n  dataSize(sub_0)\n  dup1\n  dataOffset(sub_0)\n  0x00\n  codecopy\n  0x00\n  return\nstop\n\nsub_0: assembly {\n        /* \"contracts/GLDEsrow.sol\":99:330  contract GLDEscrow is Escrow {\r... */\n      mstore(0x40, 0x80)\n      jumpi(tag_1, lt(calldatasize, 0x04))\n      shr(0xe0, calldataload(0x00))\n      dup1\n      0x36843861\n      eq\n      tag_3\n      jumpi\n      dup1\n      0x48c981e2\n      eq\n      tag_4\n      jumpi\n      dup1\n      0x48ff6b12\n      eq\n      tag_5\n      jumpi\n      dup1\n      0x7362377b\n      eq\n      tag_6\n      jumpi\n      dup1\n      0xd2472cb6\n      eq\n      tag_7\n      jumpi\n      dup1\n      0xea46193e\n      eq\n      tag_8\n      jumpi\n      jump(tag_2)\n    tag_1:\n      jumpi(tag_2, calldatasize)\n      stop\n    tag_2:\n        /* \"contracts/Escrow.sol\":452:492  Error(\"call of a non-existent function\") */\n      0x08c379a0afcc32b1a39302f7cb8073359698411ab5fd6e3edb2c02c0b5fba8aa\n      mload(0x40)\n      tag_13\n      swap1\n      tag_14\n      jump\t// in\n    tag_13:\n      mload(0x40)\n      dup1\n      swap2\n      sub\n      swap1\n      log1\n        /* \"contracts/GLDEsrow.sol\":99:330  contract GLDEscrow is Escrow {\r... */\n      stop\n        /* \"contracts/Escrow.sol\":1716:2502  function rollbackEther(address payable to) external payable {\r... */\n    tag_3:\n      tag_15\n      0x04\n      dup1\n      calldatasize\n      sub\n      dup2\n      add\n      swap1\n      tag_16\n      swap2\n      swap1\n      tag_17\n      jump\t// in\n    tag_16:\n      tag_18\n      jump\t// in\n    tag_15:\n      stop\n        /* \"contracts/Escrow.sol\":747:1129  function sendEther(address payable to) external payable {\r... */\n    tag_4:\n      tag_19\n      0x04\n      dup1\n      calldatasize\n      sub\n      dup2\n      add\n      swap1\n      tag_20\n      swap2\n      swap1\n      tag_17\n      jump\t// in\n    tag_20:\n      tag_21\n      jump\t// in\n    tag_19:\n      stop\n        /* \"contracts/GLDEsrow.sol\":135:204  function sendGLD(address payable to, int256 amount) public {\r... */\n    tag_5:\n      callvalue\n      dup1\n      iszero\n      tag_22\n      jumpi\n      0x00\n      dup1\n      revert\n    tag_22:\n      pop\n      tag_23\n      0x04\n      dup1\n      calldatasize\n      sub\n      dup2\n      add\n      swap1\n      tag_24\n      swap2\n      swap1\n      tag_25\n      jump\t// in\n    tag_24:\n      tag_26\n      jump\t// in\n    tag_23:\n      stop\n        /* \"contracts/Escrow.sol\":1135:1710  function withdrawEther() external payable {\r... */\n    tag_6:\n      tag_27\n      tag_28\n      jump\t// in\n    tag_27:\n      stop\n        /* \"contracts/GLDEsrow.sol\":212:260  function withdrawGLD() public {\r... */\n    tag_7:\n      callvalue\n      dup1\n      iszero\n      tag_29\n      jumpi\n      0x00\n      dup1\n      revert\n    tag_29:\n      pop\n      tag_30\n      tag_31\n      jump\t// in\n    tag_30:\n      stop\n        /* \"contracts/Escrow.sol\":2508:2606  function getEtherBalance() public view returns (uint256) {\r... */\n    tag_8:\n      callvalue\n      dup1\n      iszero\n      tag_32\n      jumpi\n      0x00\n      dup1\n      revert\n    tag_32:\n      pop\n      tag_33\n      tag_34\n      jump\t// in\n    tag_33:\n      mload(0x40)\n      tag_35\n      swap2\n      swap1\n      tag_36\n      jump\t// in\n    tag_35:\n      mload(0x40)\n      dup1\n      swap2\n      sub\n      swap1\n      return\n        /* \"contracts/Escrow.sol\":1716:2502  function rollbackEther(address payable to) external payable {\r... */\n    tag_18:\n        /* \"contracts/Escrow.sol\":1783:1805  address payable sender */\n      0x00\n        /* \"contracts/Escrow.sol\":1816:1826  msg.sender */\n      caller\n        /* \"contracts/Escrow.sol\":1783:1827  address payable sender = payable(msg.sender) */\n      swap1\n      pop\n        /* \"contracts/Escrow.sol\":1850:1866  rollbackPossible */\n      0x02\n        /* \"contracts/Escrow.sol\":1850:1870  rollbackPossible[to] */\n      0x00\n        /* \"contracts/Escrow.sol\":1867:1869  to */\n      dup4\n        /* \"contracts/Escrow.sol\":1850:1870  rollbackPossible[to] */\n      0xffffffffffffffffffffffffffffffffffffffff\n      and\n      0xffffffffffffffffffffffffffffffffffffffff\n      and\n      dup2\n      mstore\n      0x20\n      add\n      swap1\n      dup2\n      mstore\n      0x20\n      add\n      0x00\n      keccak256\n        /* \"contracts/Escrow.sol\":1850:1878  rollbackPossible[to][sender] */\n      0x00\n        /* \"contracts/Escrow.sol\":1871:1877  sender */\n      dup3\n        /* \"contracts/Escrow.sol\":1850:1878  rollbackPossible[to][sender] */\n      0xffffffffffffffffffffffffffffffffffffffff\n      and\n      0xffffffffffffffffffffffffffffffffffffffff\n      and\n      dup2\n      mstore\n      0x20\n      add\n      swap1\n      dup2\n      mstore\n      0x20\n      add\n      0x00\n      keccak256\n      0x00\n      swap1\n      sload\n      swap1\n      0x0100\n      exp\n      swap1\n      div\n      0xff\n      and\n        /* \"contracts/Escrow.sol\":1834:1965  require(\r... */\n      tag_38\n      jumpi\n      mload(0x40)\n      0x08c379a000000000000000000000000000000000000000000000000000000000\n      dup2\n      mstore\n      0x04\n      add\n      tag_39\n      swap1\n      tag_40\n      jump\t// in\n    tag_39:\n      mload(0x40)\n      dup1\n      swap2\n      sub\n      swap1\n      revert\n    tag_38:\n        /* \"contracts/Escrow.sol\":1972:1986  uint256 _value */\n      0x00\n        /* \"contracts/Escrow.sol\":1989:2002  rollbackValue */\n      0x03\n        /* \"contracts/Escrow.sol\":1989:2006  rollbackValue[to] */\n      0x00\n        /* \"contracts/Escrow.sol\":2003:2005  to */\n      dup5\n        /* \"contracts/Escrow.sol\":1989:2006  rollbackValue[to] */\n      0xffffffffffffffffffffffffffffffffffffffff\n      and\n      0xffffffffffffffffffffffffffffffffffffffff\n      and\n      dup2\n      mstore\n      0x20\n      add\n      swap1\n      dup2\n      mstore\n      0x20\n      add\n      0x00\n      keccak256\n        /* \"contracts/Escrow.sol\":1989:2014  rollbackValue[to][sender] */\n      0x00\n        /* \"contracts/Escrow.sol\":2007:2013  sender */\n      dup4\n        /* \"contracts/Escrow.sol\":1989:2014  rollbackValue[to][sender] */\n      0xffffffffffffffffffffffffffffffffffffffff\n      and\n      0xffffffffffffffffffffffffffffffffffffffff\n      and\n      dup2\n      mstore\n      0x20\n      add\n      swap1\n      dup2\n      mstore\n      0x20\n      add\n      0x00\n      keccak256\n      sload\n        /* \"contracts/Escrow.sol\":1972:2014  uint256 _value = rollbackValue[to][sender] */\n      swap1\n      pop\n        /* \"contracts/Escrow.sol\":2039:2040  0 */\n      0x00\n        /* \"contracts/Escrow.sol\":2029:2035  _value */\n      dup2\n        /* \"contracts/Escrow.sol\":2029:2040  _value != 0 */\n      eq\n      iszero\n        /* \"contracts/Escrow.sol\":2021:2064  require(_value != 0, \"Rollback value is 0\") */\n      tag_41\n      jumpi\n      mload(0x40)\n      0x08c379a000000000000000000000000000000000000000000000000000000000\n      dup2\n      mstore\n      0x04\n      add\n      tag_42\n      swap1\n      tag_43\n      jump\t// in\n    tag_42:\n      mload(0x40)\n      dup1\n      swap2\n      sub\n      swap1\n      revert\n    tag_41:\n        /* \"contracts/Escrow.sol\":2072:2081  bool sent */\n      0x00\n        /* \"contracts/Escrow.sol\":2087:2093  sender */\n      dup3\n        /* \"contracts/Escrow.sol\":2087:2098  sender.call */\n      0xffffffffffffffffffffffffffffffffffffffff\n      and\n        /* \"contracts/Escrow.sol\":2106:2112  _value */\n      dup3\n        /* \"contracts/Escrow.sol\":2087:2117  sender.call{value: _value}(\"\") */\n      mload(0x40)\n      tag_44\n      swap1\n      tag_45\n      jump\t// in\n    tag_44:\n      0x00\n      mload(0x40)\n      dup1\n      dup4\n      sub\n      dup2\n      dup6\n      dup8\n      gas\n      call\n      swap3\n      pop\n      pop\n      pop\n      returndatasize\n      dup1\n      0x00\n      dup2\n      eq\n      tag_48\n      jumpi\n      mload(0x40)\n      swap2\n      pop\n      and(add(returndatasize, 0x3f), not(0x1f))\n      dup3\n      add\n      0x40\n      mstore\n      returndatasize\n      dup3\n      mstore\n      returndatasize\n      0x00\n      0x20\n      dup5\n      add\n      returndatacopy\n      jump(tag_47)\n    tag_48:\n      0x60\n      swap2\n      pop\n    tag_47:\n      pop\n        /* \"contracts/Escrow.sol\":2071:2117  (bool sent, ) = sender.call{value: _value}(\"\") */\n      pop\n      swap1\n      pop\n        /* \"contracts/Escrow.sol\":2132:2136  sent */\n      dup1\n        /* \"contracts/Escrow.sol\":2124:2161  require(sent, \"Failed to send Ether\") */\n      tag_49\n      jumpi\n      mload(0x40)\n      0x08c379a000000000000000000000000000000000000000000000000000000000\n      dup2\n      mstore\n      0x04\n      add\n      tag_50\n      swap1\n      tag_51\n      jump\t// in\n    tag_50:\n      mload(0x40)\n      dup1\n      swap2\n      sub\n      swap1\n      revert\n    tag_49:\n        /* \"contracts/Escrow.sol\":2191:2197  _value */\n      dup2\n        /* \"contracts/Escrow.sol\":2168:2183  receiverAddress */\n      0x00\n        /* \"contracts/Escrow.sol\":2168:2187  receiverAddress[to] */\n      dup1\n        /* \"contracts/Escrow.sol\":2184:2186  to */\n      dup7\n        /* \"contracts/Escrow.sol\":2168:2187  receiverAddress[to] */\n      0xffffffffffffffffffffffffffffffffffffffff\n      and\n      0xffffffffffffffffffffffffffffffffffffffff\n      and\n      dup2\n      mstore\n      0x20\n      add\n      swap1\n      dup2\n      mstore\n      0x20\n      add\n      0x00\n      keccak256\n      0x00\n        /* \"contracts/Escrow.sol\":2168:2197  receiverAddress[to] -= _value */\n      dup3\n      dup3\n      sload\n      tag_52\n      swap2\n      swap1\n      tag_53\n      jump\t// in\n    tag_52:\n      swap3\n      pop\n      pop\n      dup2\n      swap1\n      sstore\n      pop\n        /* \"contracts/Escrow.sol\":2211:2224  rollbackValue */\n      0x03\n        /* \"contracts/Escrow.sol\":2211:2228  rollbackValue[to] */\n      0x00\n        /* \"contracts/Escrow.sol\":2225:2227  to */\n      dup6\n        /* \"contracts/Escrow.sol\":2211:2228  rollbackValue[to] */\n      0xffffffffffffffffffffffffffffffffffffffff\n      and\n      0xffffffffffffffffffffffffffffffffffffffff\n      and\n      dup2\n      mstore\n      0x20\n      add\n      swap1\n      dup2\n      mstore\n      0x20\n      add\n      0x00\n      keccak256\n        /* \"contracts/Escrow.sol\":2211:2236  rollbackValue[to][sender] */\n      0x00\n        /* \"contracts/Escrow.sol\":2229:2235  sender */\n      dup5\n        /* \"contracts/Escrow.sol\":2211:2236  rollbackValue[to][sender] */\n      0xffffffffffffffffffffffffffffffffffffffff\n      and\n      0xffffffffffffffffffffffffffffffffffffffff\n      and\n      dup2\n      mstore\n      0x20\n      add\n      swap1\n      dup2\n      mstore\n      0x20\n      add\n      0x00\n      keccak256\n        /* \"contracts/Escrow.sol\":2204:2236  delete rollbackValue[to][sender] */\n      0x00\n      swap1\n      sstore\n        /* \"contracts/Escrow.sol\":2274:2279  false */\n      0x00\n        /* \"contracts/Escrow.sol\":2243:2259  rollbackPossible */\n      0x02\n        /* \"contracts/Escrow.sol\":2243:2263  rollbackPossible[to] */\n      0x00\n        /* \"contracts/Escrow.sol\":2260:2262  to */\n      dup7\n        /* \"contracts/Escrow.sol\":2243:2263  rollbackPossible[to] */\n      0xffffffffffffffffffffffffffffffffffffffff\n      and\n      0xffffffffffffffffffffffffffffffffffffffff\n      and\n      dup2\n      mstore\n      0x20\n      add\n      swap1\n      dup2\n      mstore\n      0x20\n      add\n      0x00\n      keccak256\n        /* \"contracts/Escrow.sol\":2243:2271  rollbackPossible[to][sender] */\n      0x00\n        /* \"contracts/Escrow.sol\":2264:2270  sender */\n      dup6\n        /* \"contracts/Escrow.sol\":2243:2271  rollbackPossible[to][sender] */\n      0xffffffffffffffffffffffffffffffffffffffff\n      and\n      0xffffffffffffffffffffffffffffffffffffffff\n      and\n      dup2\n      mstore\n      0x20\n      add\n      swap1\n      dup2\n      mstore\n      0x20\n      add\n      0x00\n      keccak256\n      0x00\n        /* \"contracts/Escrow.sol\":2243:2279  rollbackPossible[to][sender] = false */\n      0x0100\n      exp\n      dup2\n      sload\n      dup2\n      0xff\n      mul\n      not\n      and\n      swap1\n      dup4\n      iszero\n      iszero\n      mul\n      or\n      swap1\n      sstore\n      pop\n        /* \"contracts/Escrow.sol\":2291:2300  uint256 i */\n      0x00\n        /* \"contracts/Escrow.sol\":2286:2497  for (uint256 i = 0; i < rollbackAddresses[to].length; i++) {\r... */\n    tag_54:\n        /* \"contracts/Escrow.sol\":2310:2327  rollbackAddresses */\n      0x01\n        /* \"contracts/Escrow.sol\":2310:2331  rollbackAddresses[to] */\n      0x00\n        /* \"contracts/Escrow.sol\":2328:2330  to */\n      dup7\n        /* \"contracts/Escrow.sol\":2310:2331  rollbackAddresses[to] */\n      0xffffffffffffffffffffffffffffffffffffffff\n      and\n      0xffffffffffffffffffffffffffffffffffffffff\n      and\n      dup2\n      mstore\n      0x20\n      add\n      swap1\n      dup2\n      mstore\n      0x20\n      add\n      0x00\n      keccak256\n        /* \"contracts/Escrow.sol\":2310:2338  rollbackAddresses[to].length */\n      dup1\n      sload\n      swap1\n      pop\n        /* \"contracts/Escrow.sol\":2306:2307  i */\n      dup2\n        /* \"contracts/Escrow.sol\":2306:2338  i < rollbackAddresses[to].length */\n      lt\n        /* \"contracts/Escrow.sol\":2286:2497  for (uint256 i = 0; i < rollbackAddresses[to].length; i++) {\r... */\n      iszero\n      tag_55\n      jumpi\n        /* \"contracts/Escrow.sol\":2354:2366  address from */\n      0x00\n        /* \"contracts/Escrow.sol\":2369:2386  rollbackAddresses */\n      0x01\n        /* \"contracts/Escrow.sol\":2369:2390  rollbackAddresses[to] */\n      0x00\n        /* \"contracts/Escrow.sol\":2387:2389  to */\n      dup8\n        /* \"contracts/Escrow.sol\":2369:2390  rollbackAddresses[to] */\n      0xffffffffffffffffffffffffffffffffffffffff\n      and\n      0xffffffffffffffffffffffffffffffffffffffff\n      and\n      dup2\n      mstore\n      0x20\n      add\n      swap1\n      dup2\n      mstore\n      0x20\n      add\n      0x00\n      keccak256\n        /* \"contracts/Escrow.sol\":2391:2392  i */\n      dup3\n        /* \"contracts/Escrow.sol\":2369:2393  rollbackAddresses[to][i] */\n      dup2\n      sload\n      dup2\n      lt\n      tag_57\n      jumpi\n      tag_58\n      tag_59\n      jump\t// in\n    tag_58:\n    tag_57:\n      swap1\n      0x00\n      mstore\n      keccak256(0x00, 0x20)\n      add\n      0x00\n      swap1\n      sload\n      swap1\n      0x0100\n      exp\n      swap1\n      div\n      0xffffffffffffffffffffffffffffffffffffffff\n      and\n        /* \"contracts/Escrow.sol\":2354:2393  address from = rollbackAddresses[to][i] */\n      swap1\n      pop\n        /* \"contracts/Escrow.sol\":2414:2420  sender */\n      dup5\n        /* \"contracts/Escrow.sol\":2406:2420  from == sender */\n      0xffffffffffffffffffffffffffffffffffffffff\n      and\n        /* \"contracts/Escrow.sol\":2406:2410  from */\n      dup2\n        /* \"contracts/Escrow.sol\":2406:2420  from == sender */\n      0xffffffffffffffffffffffffffffffffffffffff\n      and\n      eq\n        /* \"contracts/Escrow.sol\":2402:2490  if (from == sender) {\r... */\n      iszero\n      tag_61\n      jumpi\n        /* \"contracts/Escrow.sol\":2440:2457  rollbackAddresses */\n      0x01\n        /* \"contracts/Escrow.sol\":2440:2461  rollbackAddresses[to] */\n      0x00\n        /* \"contracts/Escrow.sol\":2458:2460  to */\n      dup8\n        /* \"contracts/Escrow.sol\":2440:2461  rollbackAddresses[to] */\n      0xffffffffffffffffffffffffffffffffffffffff\n      and\n      0xffffffffffffffffffffffffffffffffffffffff\n      and\n      dup2\n      mstore\n      0x20\n      add\n      swap1\n      dup2\n      mstore\n      0x20\n      add\n      0x00\n      keccak256\n        /* \"contracts/Escrow.sol\":2462:2463  i */\n      dup3\n        /* \"contracts/Escrow.sol\":2440:2464  rollbackAddresses[to][i] */\n      dup2\n      sload\n      dup2\n      lt\n      tag_62\n      jumpi\n      tag_63\n      tag_59\n      jump\t// in\n    tag_63:\n    tag_62:\n      swap1\n      0x00\n      mstore\n      keccak256(0x00, 0x20)\n      add\n      0x00\n        /* \"contracts/Escrow.sol\":2433:2464  delete rollbackAddresses[to][i] */\n      0x0100\n      exp\n      dup2\n      sload\n      swap1\n      0xffffffffffffffffffffffffffffffffffffffff\n      mul\n      not\n      and\n      swap1\n      sstore\n        /* \"contracts/Escrow.sol\":2475:2480  break */\n      pop\n      jump(tag_55)\n        /* \"contracts/Escrow.sol\":2402:2490  if (from == sender) {\r... */\n    tag_61:\n        /* \"contracts/Escrow.sol\":2345:2497  {\r... */\n      pop\n        /* \"contracts/Escrow.sol\":2340:2343  i++ */\n      dup1\n      dup1\n      tag_65\n      swap1\n      tag_66\n      jump\t// in\n    tag_65:\n      swap2\n      pop\n      pop\n        /* \"contracts/Escrow.sol\":2286:2497  for (uint256 i = 0; i < rollbackAddresses[to].length; i++) {\r... */\n      jump(tag_54)\n    tag_55:\n      pop\n        /* \"contracts/Escrow.sol\":1776:2502  {\r... */\n      pop\n      pop\n      pop\n        /* \"contracts/Escrow.sol\":1716:2502  function rollbackEther(address payable to) external payable {\r... */\n      pop\n      jump\t// out\n        /* \"contracts/Escrow.sol\":747:1129  function sendEther(address payable to) external payable {\r... */\n    tag_21:\n        /* \"contracts/Escrow.sol\":810:822  address from */\n      0x00\n        /* \"contracts/Escrow.sol\":825:835  msg.sender */\n      caller\n        /* \"contracts/Escrow.sol\":810:835  address from = msg.sender */\n      swap1\n      pop\n        /* \"contracts/Escrow.sol\":842:855  uint256 value */\n      0x00\n        /* \"contracts/Escrow.sol\":858:867  msg.value */\n      callvalue\n        /* \"contracts/Escrow.sol\":842:867  uint256 value = msg.value */\n      swap1\n      pop\n        /* \"contracts/Escrow.sol\":897:902  value */\n      dup1\n        /* \"contracts/Escrow.sol\":874:889  receiverAddress */\n      0x00\n        /* \"contracts/Escrow.sol\":874:893  receiverAddress[to] */\n      dup1\n        /* \"contracts/Escrow.sol\":890:892  to */\n      dup6\n        /* \"contracts/Escrow.sol\":874:893  receiverAddress[to] */\n      0xffffffffffffffffffffffffffffffffffffffff\n      and\n      0xffffffffffffffffffffffffffffffffffffffff\n      and\n      dup2\n      mstore\n      0x20\n      add\n      swap1\n      dup2\n      mstore\n      0x20\n      add\n      0x00\n      keccak256\n      0x00\n        /* \"contracts/Escrow.sol\":874:902  receiverAddress[to] += value */\n      dup3\n      dup3\n      sload\n      tag_68\n      swap2\n      swap1\n      tag_69\n      jump\t// in\n    tag_68:\n      swap3\n      pop\n      pop\n      dup2\n      swap1\n      sstore\n      pop\n        /* \"contracts/Escrow.sol\":914:930  rollbackPossible */\n      0x02\n        /* \"contracts/Escrow.sol\":914:934  rollbackPossible[to] */\n      0x00\n        /* \"contracts/Escrow.sol\":931:933  to */\n      dup5\n        /* \"contracts/Escrow.sol\":914:934  rollbackPossible[to] */\n      0xffffffffffffffffffffffffffffffffffffffff\n      and\n      0xffffffffffffffffffffffffffffffffffffffff\n      and\n      dup2\n      mstore\n      0x20\n      add\n      swap1\n      dup2\n      mstore\n      0x20\n      add\n      0x00\n      keccak256\n        /* \"contracts/Escrow.sol\":914:940  rollbackPossible[to][from] */\n      0x00\n        /* \"contracts/Escrow.sol\":935:939  from */\n      dup4\n        /* \"contracts/Escrow.sol\":914:940  rollbackPossible[to][from] */\n      0xffffffffffffffffffffffffffffffffffffffff\n      and\n      0xffffffffffffffffffffffffffffffffffffffff\n      and\n      dup2\n      mstore\n      0x20\n      add\n      swap1\n      dup2\n      mstore\n      0x20\n      add\n      0x00\n      keccak256\n      0x00\n      swap1\n      sload\n      swap1\n      0x0100\n      exp\n      swap1\n      div\n      0xff\n      and\n        /* \"contracts/Escrow.sol\":909:969  if (!rollbackPossible[to][from]) rollbackValue[to][from] = 0 */\n      tag_70\n      jumpi\n        /* \"contracts/Escrow.sol\":968:969  0 */\n      0x00\n        /* \"contracts/Escrow.sol\":942:955  rollbackValue */\n      0x03\n        /* \"contracts/Escrow.sol\":942:959  rollbackValue[to] */\n      0x00\n        /* \"contracts/Escrow.sol\":956:958  to */\n      dup6\n        /* \"contracts/Escrow.sol\":942:959  rollbackValue[to] */\n      0xffffffffffffffffffffffffffffffffffffffff\n      and\n      0xffffffffffffffffffffffffffffffffffffffff\n      and\n      dup2\n      mstore\n      0x20\n      add\n      swap1\n      dup2\n      mstore\n      0x20\n      add\n      0x00\n      keccak256\n        /* \"contracts/Escrow.sol\":942:965  rollbackValue[to][from] */\n      0x00\n        /* \"contracts/Escrow.sol\":960:964  from */\n      dup5\n        /* \"contracts/Escrow.sol\":942:965  rollbackValue[to][from] */\n      0xffffffffffffffffffffffffffffffffffffffff\n      and\n      0xffffffffffffffffffffffffffffffffffffffff\n      and\n      dup2\n      mstore\n      0x20\n      add\n      swap1\n      dup2\n      mstore\n      0x20\n      add\n      0x00\n      keccak256\n        /* \"contracts/Escrow.sol\":942:969  rollbackValue[to][from] = 0 */\n      dup2\n      swap1\n      sstore\n      pop\n        /* \"contracts/Escrow.sol\":909:969  if (!rollbackPossible[to][from]) rollbackValue[to][from] = 0 */\n    tag_70:\n        /* \"contracts/Escrow.sol\":1003:1008  value */\n      dup1\n        /* \"contracts/Escrow.sol\":976:989  rollbackValue */\n      0x03\n        /* \"contracts/Escrow.sol\":976:993  rollbackValue[to] */\n      0x00\n        /* \"contracts/Escrow.sol\":990:992  to */\n      dup6\n        /* \"contracts/Escrow.sol\":976:993  rollbackValue[to] */\n      0xffffffffffffffffffffffffffffffffffffffff\n      and\n      0xffffffffffffffffffffffffffffffffffffffff\n      and\n      dup2\n      mstore\n      0x20\n      add\n      swap1\n      dup2\n      mstore\n      0x20\n      add\n      0x00\n      keccak256\n        /* \"contracts/Escrow.sol\":976:999  rollbackValue[to][from] */\n      0x00\n        /* \"contracts/Escrow.sol\":994:998  from */\n      dup5\n        /* \"contracts/Escrow.sol\":976:999  rollbackValue[to][from] */\n      0xffffffffffffffffffffffffffffffffffffffff\n      and\n      0xffffffffffffffffffffffffffffffffffffffff\n      and\n      dup2\n      mstore\n      0x20\n      add\n      swap1\n      dup2\n      mstore\n      0x20\n      add\n      0x00\n      keccak256\n      0x00\n        /* \"contracts/Escrow.sol\":976:1008  rollbackValue[to][from] += value */\n      dup3\n      dup3\n      sload\n      tag_71\n      swap2\n      swap1\n      tag_69\n      jump\t// in\n    tag_71:\n      swap3\n      pop\n      pop\n      dup2\n      swap1\n      sstore\n      pop\n        /* \"contracts/Escrow.sol\":1044:1048  true */\n      0x01\n        /* \"contracts/Escrow.sol\":1015:1031  rollbackPossible */\n      0x02\n        /* \"contracts/Escrow.sol\":1015:1035  rollbackPossible[to] */\n      0x00\n        /* \"contracts/Escrow.sol\":1032:1034  to */\n      dup6\n        /* \"contracts/Escrow.sol\":1015:1035  rollbackPossible[to] */\n      0xffffffffffffffffffffffffffffffffffffffff\n      and\n      0xffffffffffffffffffffffffffffffffffffffff\n      and\n      dup2\n      mstore\n      0x20\n      add\n      swap1\n      dup2\n      mstore\n      0x20\n      add\n      0x00\n      keccak256\n        /* \"contracts/Escrow.sol\":1015:1041  rollbackPossible[to][from] */\n      0x00\n        /* \"contracts/Escrow.sol\":1036:1040  from */\n      dup5\n        /* \"contracts/Escrow.sol\":1015:1041  rollbackPossible[to][from] */\n      0xffffffffffffffffffffffffffffffffffffffff\n      and\n      0xffffffffffffffffffffffffffffffffffffffff\n      and\n      dup2\n      mstore\n      0x20\n      add\n      swap1\n      dup2\n      mstore\n      0x20\n      add\n      0x00\n      keccak256\n      0x00\n        /* \"contracts/Escrow.sol\":1015:1048  rollbackPossible[to][from] = true */\n      0x0100\n      exp\n      dup2\n      sload\n      dup2\n      0xff\n      mul\n      not\n      and\n      swap1\n      dup4\n      iszero\n      iszero\n      mul\n      or\n      swap1\n      sstore\n      pop\n        /* \"contracts/Escrow.sol\":1055:1072  rollbackAddresses */\n      0x01\n        /* \"contracts/Escrow.sol\":1055:1076  rollbackAddresses[to] */\n      0x00\n        /* \"contracts/Escrow.sol\":1073:1075  to */\n      dup5\n        /* \"contracts/Escrow.sol\":1055:1076  rollbackAddresses[to] */\n      0xffffffffffffffffffffffffffffffffffffffff\n      and\n      0xffffffffffffffffffffffffffffffffffffffff\n      and\n      dup2\n      mstore\n      0x20\n      add\n      swap1\n      dup2\n      mstore\n      0x20\n      add\n      0x00\n      keccak256\n        /* \"contracts/Escrow.sol\":1082:1086  from */\n      dup3\n        /* \"contracts/Escrow.sol\":1055:1087  rollbackAddresses[to].push(from) */\n      swap1\n      dup1\n      0x01\n      dup2\n      sload\n      add\n      dup1\n      dup3\n      sstore\n      dup1\n      swap2\n      pop\n      pop\n      0x01\n      swap1\n      sub\n      swap1\n      0x00\n      mstore\n      keccak256(0x00, 0x20)\n      add\n      0x00\n      swap1\n      swap2\n      swap1\n      swap2\n      swap1\n      swap2\n      0x0100\n      exp\n      dup2\n      sload\n      dup2\n      0xffffffffffffffffffffffffffffffffffffffff\n      mul\n      not\n      and\n      swap1\n      dup4\n      0xffffffffffffffffffffffffffffffffffffffff\n      and\n      mul\n      or\n      swap1\n      sstore\n      pop\n        /* \"contracts/Escrow.sol\":1113:1115  to */\n      dup3\n        /* \"contracts/Escrow.sol\":1099:1123  LogSend(from, to, value) */\n      0xffffffffffffffffffffffffffffffffffffffff\n      and\n        /* \"contracts/Escrow.sol\":1107:1111  from */\n      dup3\n        /* \"contracts/Escrow.sol\":1099:1123  LogSend(from, to, value) */\n      0xffffffffffffffffffffffffffffffffffffffff\n      and\n      0xa343f361112b028dae2501770614271723be1d24c9f64fed2d4bd3ddf1c13e35\n        /* \"contracts/Escrow.sol\":1117:1122  value */\n      dup4\n        /* \"contracts/Escrow.sol\":1099:1123  LogSend(from, to, value) */\n      mload(0x40)\n      tag_73\n      swap2\n      swap1\n      tag_36\n      jump\t// in\n    tag_73:\n      mload(0x40)\n      dup1\n      swap2\n      sub\n      swap1\n      log3\n        /* \"contracts/Escrow.sol\":803:1129  {\r... */\n      pop\n      pop\n        /* \"contracts/Escrow.sol\":747:1129  function sendEther(address payable to) external payable {\r... */\n      pop\n      jump\t// out\n        /* \"contracts/GLDEsrow.sol\":135:204  function sendGLD(address payable to, int256 amount) public {\r... */\n    tag_26:\n      pop\n      pop\n      jump\t// out\n        /* \"contracts/Escrow.sol\":1135:1710  function withdrawEther() external payable {\r... */\n    tag_28:\n        /* \"contracts/Escrow.sol\":1184:1202  address payable to */\n      0x00\n        /* \"contracts/Escrow.sol\":1213:1223  msg.sender */\n      caller\n        /* \"contracts/Escrow.sol\":1184:1224  address payable to = payable(msg.sender) */\n      swap1\n      pop\n        /* \"contracts/Escrow.sol\":1231:1245  uint256 _value */\n      0x00\n        /* \"contracts/Escrow.sol\":1248:1263  receiverAddress */\n      dup1\n        /* \"contracts/Escrow.sol\":1248:1267  receiverAddress[to] */\n      0x00\n        /* \"contracts/Escrow.sol\":1264:1266  to */\n      dup4\n        /* \"contracts/Escrow.sol\":1248:1267  receiverAddress[to] */\n      0xffffffffffffffffffffffffffffffffffffffff\n      and\n      0xffffffffffffffffffffffffffffffffffffffff\n      and\n      dup2\n      mstore\n      0x20\n      add\n      swap1\n      dup2\n      mstore\n      0x20\n      add\n      0x00\n      keccak256\n      sload\n        /* \"contracts/Escrow.sol\":1231:1267  uint256 _value = receiverAddress[to] */\n      swap1\n      pop\n        /* \"contracts/Escrow.sol\":1292:1293  0 */\n      0x00\n        /* \"contracts/Escrow.sol\":1282:1288  _value */\n      dup2\n        /* \"contracts/Escrow.sol\":1282:1293  _value != 0 */\n      eq\n      iszero\n        /* \"contracts/Escrow.sol\":1274:1331  require(_value != 0, \"You don't have ethers sent to you\") */\n      tag_76\n      jumpi\n      mload(0x40)\n      0x08c379a000000000000000000000000000000000000000000000000000000000\n      dup2\n      mstore\n      0x04\n      add\n      tag_77\n      swap1\n      tag_78\n      jump\t// in\n    tag_77:\n      mload(0x40)\n      dup1\n      swap2\n      sub\n      swap1\n      revert\n    tag_76:\n        /* \"contracts/Escrow.sol\":1339:1348  bool sent */\n      0x00\n        /* \"contracts/Escrow.sol\":1354:1356  to */\n      dup3\n        /* \"contracts/Escrow.sol\":1354:1361  to.call */\n      0xffffffffffffffffffffffffffffffffffffffff\n      and\n        /* \"contracts/Escrow.sol\":1369:1375  _value */\n      dup3\n        /* \"contracts/Escrow.sol\":1354:1380  to.call{value: _value}(\"\") */\n      mload(0x40)\n      tag_79\n      swap1\n      tag_45\n      jump\t// in\n    tag_79:\n      0x00\n      mload(0x40)\n      dup1\n      dup4\n      sub\n      dup2\n      dup6\n      dup8\n      gas\n      call\n      swap3\n      pop\n      pop\n      pop\n      returndatasize\n      dup1\n      0x00\n      dup2\n      eq\n      tag_82\n      jumpi\n      mload(0x40)\n      swap2\n      pop\n      and(add(returndatasize, 0x3f), not(0x1f))\n      dup3\n      add\n      0x40\n      mstore\n      returndatasize\n      dup3\n      mstore\n      returndatasize\n      0x00\n      0x20\n      dup5\n      add\n      returndatacopy\n      jump(tag_81)\n    tag_82:\n      0x60\n      swap2\n      pop\n    tag_81:\n      pop\n        /* \"contracts/Escrow.sol\":1338:1380  (bool sent, ) = to.call{value: _value}(\"\") */\n      pop\n      swap1\n      pop\n        /* \"contracts/Escrow.sol\":1395:1399  sent */\n      dup1\n        /* \"contracts/Escrow.sol\":1387:1424  require(sent, \"Failed to send Ether\") */\n      tag_83\n      jumpi\n      mload(0x40)\n      0x08c379a000000000000000000000000000000000000000000000000000000000\n      dup2\n      mstore\n      0x04\n      add\n      tag_84\n      swap1\n      tag_51\n      jump\t// in\n    tag_84:\n      mload(0x40)\n      dup1\n      swap2\n      sub\n      swap1\n      revert\n    tag_83:\n        /* \"contracts/Escrow.sol\":1438:1453  receiverAddress */\n      0x00\n        /* \"contracts/Escrow.sol\":1438:1457  receiverAddress[to] */\n      dup1\n        /* \"contracts/Escrow.sol\":1454:1456  to */\n      dup5\n        /* \"contracts/Escrow.sol\":1438:1457  receiverAddress[to] */\n      0xffffffffffffffffffffffffffffffffffffffff\n      and\n      0xffffffffffffffffffffffffffffffffffffffff\n      and\n      dup2\n      mstore\n      0x20\n      add\n      swap1\n      dup2\n      mstore\n      0x20\n      add\n      0x00\n      keccak256\n        /* \"contracts/Escrow.sol\":1431:1457  delete receiverAddress[to] */\n      0x00\n      swap1\n      sstore\n        /* \"contracts/Escrow.sol\":1469:1478  uint256 i */\n      0x00\n        /* \"contracts/Escrow.sol\":1464:1662  for (uint256 i = 0; i < rollbackAddresses[to].length; i++) {\r... */\n    tag_85:\n        /* \"contracts/Escrow.sol\":1488:1505  rollbackAddresses */\n      0x01\n        /* \"contracts/Escrow.sol\":1488:1509  rollbackAddresses[to] */\n      0x00\n        /* \"contracts/Escrow.sol\":1506:1508  to */\n      dup6\n        /* \"contracts/Escrow.sol\":1488:1509  rollbackAddresses[to] */\n      0xffffffffffffffffffffffffffffffffffffffff\n      and\n      0xffffffffffffffffffffffffffffffffffffffff\n      and\n      dup2\n      mstore\n      0x20\n      add\n      swap1\n      dup2\n      mstore\n      0x20\n      add\n      0x00\n      keccak256\n        /* \"contracts/Escrow.sol\":1488:1516  rollbackAddresses[to].length */\n      dup1\n      sload\n      swap1\n      pop\n        /* \"contracts/Escrow.sol\":1484:1485  i */\n      dup2\n        /* \"contracts/Escrow.sol\":1484:1516  i < rollbackAddresses[to].length */\n      lt\n        /* \"contracts/Escrow.sol\":1464:1662  for (uint256 i = 0; i < rollbackAddresses[to].length; i++) {\r... */\n      iszero\n      tag_86\n      jumpi\n        /* \"contracts/Escrow.sol\":1532:1544  address from */\n      0x00\n        /* \"contracts/Escrow.sol\":1547:1564  rollbackAddresses */\n      0x01\n        /* \"contracts/Escrow.sol\":1547:1568  rollbackAddresses[to] */\n      0x00\n        /* \"contracts/Escrow.sol\":1565:1567  to */\n      dup7\n        /* \"contracts/Escrow.sol\":1547:1568  rollbackAddresses[to] */\n      0xffffffffffffffffffffffffffffffffffffffff\n      and\n      0xffffffffffffffffffffffffffffffffffffffff\n      and\n      dup2\n      mstore\n      0x20\n      add\n      swap1\n      dup2\n      mstore\n      0x20\n      add\n      0x00\n      keccak256\n        /* \"contracts/Escrow.sol\":1569:1570  i */\n      dup3\n        /* \"contracts/Escrow.sol\":1547:1571  rollbackAddresses[to][i] */\n      dup2\n      sload\n      dup2\n      lt\n      tag_88\n      jumpi\n      tag_89\n      tag_59\n      jump\t// in\n    tag_89:\n    tag_88:\n      swap1\n      0x00\n      mstore\n      keccak256(0x00, 0x20)\n      add\n      0x00\n      swap1\n      sload\n      swap1\n      0x0100\n      exp\n      swap1\n      div\n      0xffffffffffffffffffffffffffffffffffffffff\n      and\n        /* \"contracts/Escrow.sol\":1532:1571  address from = rollbackAddresses[to][i] */\n      swap1\n      pop\n        /* \"contracts/Escrow.sol\":1609:1614  false */\n      0x00\n        /* \"contracts/Escrow.sol\":1580:1596  rollbackPossible */\n      0x02\n        /* \"contracts/Escrow.sol\":1580:1600  rollbackPossible[to] */\n      0x00\n        /* \"contracts/Escrow.sol\":1597:1599  to */\n      dup8\n        /* \"contracts/Escrow.sol\":1580:1600  rollbackPossible[to] */\n      0xffffffffffffffffffffffffffffffffffffffff\n      and\n      0xffffffffffffffffffffffffffffffffffffffff\n      and\n      dup2\n      mstore\n      0x20\n      add\n      swap1\n      dup2\n      mstore\n      0x20\n      add\n      0x00\n      keccak256\n        /* \"contracts/Escrow.sol\":1580:1606  rollbackPossible[to][from] */\n      0x00\n        /* \"contracts/Escrow.sol\":1601:1605  from */\n      dup4\n        /* \"contracts/Escrow.sol\":1580:1606  rollbackPossible[to][from] */\n      0xffffffffffffffffffffffffffffffffffffffff\n      and\n      0xffffffffffffffffffffffffffffffffffffffff\n      and\n      dup2\n      mstore\n      0x20\n      add\n      swap1\n      dup2\n      mstore\n      0x20\n      add\n      0x00\n      keccak256\n      0x00\n        /* \"contracts/Escrow.sol\":1580:1614  rollbackPossible[to][from] = false */\n      0x0100\n      exp\n      dup2\n      sload\n      dup2\n      0xff\n      mul\n      not\n      and\n      swap1\n      dup4\n      iszero\n      iszero\n      mul\n      or\n      swap1\n      sstore\n      pop\n        /* \"contracts/Escrow.sol\":1630:1647  rollbackAddresses */\n      0x01\n        /* \"contracts/Escrow.sol\":1630:1651  rollbackAddresses[to] */\n      0x00\n        /* \"contracts/Escrow.sol\":1648:1650  to */\n      dup7\n        /* \"contracts/Escrow.sol\":1630:1651  rollbackAddresses[to] */\n      0xffffffffffffffffffffffffffffffffffffffff\n      and\n      0xffffffffffffffffffffffffffffffffffffffff\n      and\n      dup2\n      mstore\n      0x20\n      add\n      swap1\n      dup2\n      mstore\n      0x20\n      add\n      0x00\n      keccak256\n        /* \"contracts/Escrow.sol\":1652:1653  i */\n      dup3\n        /* \"contracts/Escrow.sol\":1630:1654  rollbackAddresses[to][i] */\n      dup2\n      sload\n      dup2\n      lt\n      tag_91\n      jumpi\n      tag_92\n      tag_59\n      jump\t// in\n    tag_92:\n    tag_91:\n      swap1\n      0x00\n      mstore\n      keccak256(0x00, 0x20)\n      add\n      0x00\n        /* \"contracts/Escrow.sol\":1623:1654  delete rollbackAddresses[to][i] */\n      0x0100\n      exp\n      dup2\n      sload\n      swap1\n      0xffffffffffffffffffffffffffffffffffffffff\n      mul\n      not\n      and\n      swap1\n      sstore\n        /* \"contracts/Escrow.sol\":1523:1662  {\r... */\n      pop\n        /* \"contracts/Escrow.sol\":1518:1521  i++ */\n      dup1\n      dup1\n      tag_94\n      swap1\n      tag_66\n      jump\t// in\n    tag_94:\n      swap2\n      pop\n      pop\n        /* \"contracts/Escrow.sol\":1464:1662  for (uint256 i = 0; i < rollbackAddresses[to].length; i++) {\r... */\n      jump(tag_85)\n    tag_86:\n      pop\n        /* \"contracts/Escrow.sol\":1685:1695  msg.sender */\n      caller\n        /* \"contracts/Escrow.sol\":1673:1704  LogWithDraw(msg.sender, _value) */\n      0xffffffffffffffffffffffffffffffffffffffff\n      and\n      0xa74fab966bfc29d4ea7866d609ac5d94324a5fe817362d6a9fee5d2f8df46759\n        /* \"contracts/Escrow.sol\":1697:1703  _value */\n      dup4\n        /* \"contracts/Escrow.sol\":1673:1704  LogWithDraw(msg.sender, _value) */\n      mload(0x40)\n      tag_95\n      swap2\n      swap1\n      tag_36\n      jump\t// in\n    tag_95:\n      mload(0x40)\n      dup1\n      swap2\n      sub\n      swap1\n      log2\n        /* \"contracts/Escrow.sol\":1177:1710  {\r... */\n      pop\n      pop\n      pop\n        /* \"contracts/Escrow.sol\":1135:1710  function withdrawEther() external payable {\r... */\n      jump\t// out\n        /* \"contracts/GLDEsrow.sol\":212:260  function withdrawGLD() public {\r... */\n    tag_31:\n      jump\t// out\n        /* \"contracts/Escrow.sol\":2508:2606  function getEtherBalance() public view returns (uint256) {\r... */\n    tag_34:\n        /* \"contracts/Escrow.sol\":2556:2563  uint256 */\n      0x00\n        /* \"contracts/Escrow.sol\":2579:2600  address(this).balance */\n      selfbalance\n        /* \"contracts/Escrow.sol\":2572:2600  return address(this).balance */\n      swap1\n      pop\n        /* \"contracts/Escrow.sol\":2508:2606  function getEtherBalance() public view returns (uint256) {\r... */\n      swap1\n      jump\t// out\n        /* \"#utility.yul\":7:162   */\n    tag_99:\n        /* \"#utility.yul\":61:66   */\n      0x00\n        /* \"#utility.yul\":99:105   */\n      dup2\n        /* \"#utility.yul\":86:106   */\n      calldataload\n        /* \"#utility.yul\":77:106   */\n      swap1\n      pop\n        /* \"#utility.yul\":115:156   */\n      tag_101\n        /* \"#utility.yul\":150:155   */\n      dup2\n        /* \"#utility.yul\":115:156   */\n      tag_102\n      jump\t// in\n    tag_101:\n        /* \"#utility.yul\":7:162   */\n      swap3\n      swap2\n      pop\n      pop\n      jump\t// out\n        /* \"#utility.yul\":168:305   */\n    tag_103:\n        /* \"#utility.yul\":213:218   */\n      0x00\n        /* \"#utility.yul\":251:257   */\n      dup2\n        /* \"#utility.yul\":238:258   */\n      calldataload\n        /* \"#utility.yul\":229:258   */\n      swap1\n      pop\n        /* \"#utility.yul\":267:299   */\n      tag_105\n        /* \"#utility.yul\":293:298   */\n      dup2\n        /* \"#utility.yul\":267:299   */\n      tag_106\n      jump\t// in\n    tag_105:\n        /* \"#utility.yul\":168:305   */\n      swap3\n      swap2\n      pop\n      pop\n      jump\t// out\n        /* \"#utility.yul\":311:656   */\n    tag_17:\n        /* \"#utility.yul\":378:384   */\n      0x00\n        /* \"#utility.yul\":427:429   */\n      0x20\n        /* \"#utility.yul\":415:424   */\n      dup3\n        /* \"#utility.yul\":406:413   */\n      dup5\n        /* \"#utility.yul\":402:425   */\n      sub\n        /* \"#utility.yul\":398:430   */\n      slt\n        /* \"#utility.yul\":395:514   */\n      iszero\n      tag_108\n      jumpi\n        /* \"#utility.yul\":433:512   */\n      tag_109\n      tag_110\n      jump\t// in\n    tag_109:\n        /* \"#utility.yul\":395:514   */\n    tag_108:\n        /* \"#utility.yul\":553:554   */\n      0x00\n        /* \"#utility.yul\":578:639   */\n      tag_111\n        /* \"#utility.yul\":631:638   */\n      dup5\n        /* \"#utility.yul\":622:628   */\n      dup3\n        /* \"#utility.yul\":611:620   */\n      dup6\n        /* \"#utility.yul\":607:629   */\n      add\n        /* \"#utility.yul\":578:639   */\n      tag_99\n      jump\t// in\n    tag_111:\n        /* \"#utility.yul\":568:639   */\n      swap2\n      pop\n        /* \"#utility.yul\":524:649   */\n      pop\n        /* \"#utility.yul\":311:656   */\n      swap3\n      swap2\n      pop\n      pop\n      jump\t// out\n        /* \"#utility.yul\":662:1150   */\n    tag_25:\n        /* \"#utility.yul\":737:743   */\n      0x00\n        /* \"#utility.yul\":745:751   */\n      dup1\n        /* \"#utility.yul\":794:796   */\n      0x40\n        /* \"#utility.yul\":782:791   */\n      dup4\n        /* \"#utility.yul\":773:780   */\n      dup6\n        /* \"#utility.yul\":769:792   */\n      sub\n        /* \"#utility.yul\":765:797   */\n      slt\n        /* \"#utility.yul\":762:881   */\n      iszero\n      tag_113\n      jumpi\n        /* \"#utility.yul\":800:879   */\n      tag_114\n      tag_110\n      jump\t// in\n    tag_114:\n        /* \"#utility.yul\":762:881   */\n    tag_113:\n        /* \"#utility.yul\":920:921   */\n      0x00\n        /* \"#utility.yul\":945:1006   */\n      tag_115\n        /* \"#utility.yul\":998:1005   */\n      dup6\n        /* \"#utility.yul\":989:995   */\n      dup3\n        /* \"#utility.yul\":978:987   */\n      dup7\n        /* \"#utility.yul\":974:996   */\n      add\n        /* \"#utility.yul\":945:1006   */\n      tag_99\n      jump\t// in\n    tag_115:\n        /* \"#utility.yul\":935:1006   */\n      swap3\n      pop\n        /* \"#utility.yul\":891:1016   */\n      pop\n        /* \"#utility.yul\":1055:1057   */\n      0x20\n        /* \"#utility.yul\":1081:1133   */\n      tag_116\n        /* \"#utility.yul\":1125:1132   */\n      dup6\n        /* \"#utility.yul\":1116:1122   */\n      dup3\n        /* \"#utility.yul\":1105:1114   */\n      dup7\n        /* \"#utility.yul\":1101:1123   */\n      add\n        /* \"#utility.yul\":1081:1133   */\n      tag_103\n      jump\t// in\n    tag_116:\n        /* \"#utility.yul\":1071:1133   */\n      swap2\n      pop\n        /* \"#utility.yul\":1026:1143   */\n      pop\n        /* \"#utility.yul\":662:1150   */\n      swap3\n      pop\n      swap3\n      swap1\n      pop\n      jump\t// out\n        /* \"#utility.yul\":1156:1522   */\n    tag_117:\n        /* \"#utility.yul\":1298:1301   */\n      0x00\n        /* \"#utility.yul\":1319:1386   */\n      tag_119\n        /* \"#utility.yul\":1383:1385   */\n      0x1f\n        /* \"#utility.yul\":1378:1381   */\n      dup4\n        /* \"#utility.yul\":1319:1386   */\n      tag_120\n      jump\t// in\n    tag_119:\n        /* \"#utility.yul\":1312:1386   */\n      swap2\n      pop\n        /* \"#utility.yul\":1395:1488   */\n      tag_121\n        /* \"#utility.yul\":1484:1487   */\n      dup3\n        /* \"#utility.yul\":1395:1488   */\n      tag_122\n      jump\t// in\n    tag_121:\n        /* \"#utility.yul\":1513:1515   */\n      0x20\n        /* \"#utility.yul\":1508:1511   */\n      dup3\n        /* \"#utility.yul\":1504:1516   */\n      add\n        /* \"#utility.yul\":1497:1516   */\n      swap1\n      pop\n        /* \"#utility.yul\":1156:1522   */\n      swap2\n      swap1\n      pop\n      jump\t// out\n        /* \"#utility.yul\":1528:1894   */\n    tag_123:\n        /* \"#utility.yul\":1670:1673   */\n      0x00\n        /* \"#utility.yul\":1691:1758   */\n      tag_125\n        /* \"#utility.yul\":1755:1757   */\n      0x14\n        /* \"#utility.yul\":1750:1753   */\n      dup4\n        /* \"#utility.yul\":1691:1758   */\n      tag_120\n      jump\t// in\n    tag_125:\n        /* \"#utility.yul\":1684:1758   */\n      swap2\n      pop\n        /* \"#utility.yul\":1767:1860   */\n      tag_126\n        /* \"#utility.yul\":1856:1859   */\n      dup3\n        /* \"#utility.yul\":1767:1860   */\n      tag_127\n      jump\t// in\n    tag_126:\n        /* \"#utility.yul\":1885:1887   */\n      0x20\n        /* \"#utility.yul\":1880:1883   */\n      dup3\n        /* \"#utility.yul\":1876:1888   */\n      add\n        /* \"#utility.yul\":1869:1888   */\n      swap1\n      pop\n        /* \"#utility.yul\":1528:1894   */\n      swap2\n      swap1\n      pop\n      jump\t// out\n        /* \"#utility.yul\":1900:2266   */\n    tag_128:\n        /* \"#utility.yul\":2042:2045   */\n      0x00\n        /* \"#utility.yul\":2063:2130   */\n      tag_130\n        /* \"#utility.yul\":2127:2129   */\n      0x21\n        /* \"#utility.yul\":2122:2125   */\n      dup4\n        /* \"#utility.yul\":2063:2130   */\n      tag_120\n      jump\t// in\n    tag_130:\n        /* \"#utility.yul\":2056:2130   */\n      swap2\n      pop\n        /* \"#utility.yul\":2139:2232   */\n      tag_131\n        /* \"#utility.yul\":2228:2231   */\n      dup3\n        /* \"#utility.yul\":2139:2232   */\n      tag_132\n      jump\t// in\n    tag_131:\n        /* \"#utility.yul\":2257:2259   */\n      0x40\n        /* \"#utility.yul\":2252:2255   */\n      dup3\n        /* \"#utility.yul\":2248:2260   */\n      add\n        /* \"#utility.yul\":2241:2260   */\n      swap1\n      pop\n        /* \"#utility.yul\":1900:2266   */\n      swap2\n      swap1\n      pop\n      jump\t// out\n        /* \"#utility.yul\":2272:2638   */\n    tag_133:\n        /* \"#utility.yul\":2414:2417   */\n      0x00\n        /* \"#utility.yul\":2435:2502   */\n      tag_135\n        /* \"#utility.yul\":2499:2501   */\n      0x45\n        /* \"#utility.yul\":2494:2497   */\n      dup4\n        /* \"#utility.yul\":2435:2502   */\n      tag_120\n      jump\t// in\n    tag_135:\n        /* \"#utility.yul\":2428:2502   */\n      swap2\n      pop\n        /* \"#utility.yul\":2511:2604   */\n      tag_136\n        /* \"#utility.yul\":2600:2603   */\n      dup3\n        /* \"#utility.yul\":2511:2604   */\n      tag_137\n      jump\t// in\n    tag_136:\n        /* \"#utility.yul\":2629:2631   */\n      0x60\n        /* \"#utility.yul\":2624:2627   */\n      dup3\n        /* \"#utility.yul\":2620:2632   */\n      add\n        /* \"#utility.yul\":2613:2632   */\n      swap1\n      pop\n        /* \"#utility.yul\":2272:2638   */\n      swap2\n      swap1\n      pop\n      jump\t// out\n        /* \"#utility.yul\":2644:3042   */\n    tag_138:\n        /* \"#utility.yul\":2803:2806   */\n      0x00\n        /* \"#utility.yul\":2824:2907   */\n      tag_140\n        /* \"#utility.yul\":2905:2906   */\n      0x00\n        /* \"#utility.yul\":2900:2903   */\n      dup4\n        /* \"#utility.yul\":2824:2907   */\n      tag_141\n      jump\t// in\n    tag_140:\n        /* \"#utility.yul\":2817:2907   */\n      swap2\n      pop\n        /* \"#utility.yul\":2916:3009   */\n      tag_142\n        /* \"#utility.yul\":3005:3008   */\n      dup3\n        /* \"#utility.yul\":2916:3009   */\n      tag_143\n      jump\t// in\n    tag_142:\n        /* \"#utility.yul\":3034:3035   */\n      0x00\n        /* \"#utility.yul\":3029:3032   */\n      dup3\n        /* \"#utility.yul\":3025:3036   */\n      add\n        /* \"#utility.yul\":3018:3036   */\n      swap1\n      pop\n        /* \"#utility.yul\":2644:3042   */\n      swap2\n      swap1\n      pop\n      jump\t// out\n        /* \"#utility.yul\":3048:3414   */\n    tag_144:\n        /* \"#utility.yul\":3190:3193   */\n      0x00\n        /* \"#utility.yul\":3211:3278   */\n      tag_146\n        /* \"#utility.yul\":3275:3277   */\n      0x13\n        /* \"#utility.yul\":3270:3273   */\n      dup4\n        /* \"#utility.yul\":3211:3278   */\n      tag_120\n      jump\t// in\n    tag_146:\n        /* \"#utility.yul\":3204:3278   */\n      swap2\n      pop\n        /* \"#utility.yul\":3287:3380   */\n      tag_147\n        /* \"#utility.yul\":3376:3379   */\n      dup3\n        /* \"#utility.yul\":3287:3380   */\n      tag_148\n      jump\t// in\n    tag_147:\n        /* \"#utility.yul\":3405:3407   */\n      0x20\n        /* \"#utility.yul\":3400:3403   */\n      dup3\n        /* \"#utility.yul\":3396:3408   */\n      add\n        /* \"#utility.yul\":3389:3408   */\n      swap1\n      pop\n        /* \"#utility.yul\":3048:3414   */\n      swap2\n      swap1\n      pop\n      jump\t// out\n        /* \"#utility.yul\":3420:3538   */\n    tag_149:\n        /* \"#utility.yul\":3507:3531   */\n      tag_151\n        /* \"#utility.yul\":3525:3530   */\n      dup2\n        /* \"#utility.yul\":3507:3531   */\n      tag_152\n      jump\t// in\n    tag_151:\n        /* \"#utility.yul\":3502:3505   */\n      dup3\n        /* \"#utility.yul\":3495:3532   */\n      mstore\n        /* \"#utility.yul\":3420:3538   */\n      pop\n      pop\n      jump\t// out\n        /* \"#utility.yul\":3544:3923   */\n    tag_45:\n        /* \"#utility.yul\":3728:3731   */\n      0x00\n        /* \"#utility.yul\":3750:3897   */\n      tag_154\n        /* \"#utility.yul\":3893:3896   */\n      dup3\n        /* \"#utility.yul\":3750:3897   */\n      tag_138\n      jump\t// in\n    tag_154:\n        /* \"#utility.yul\":3743:3897   */\n      swap2\n      pop\n        /* \"#utility.yul\":3914:3917   */\n      dup2\n        /* \"#utility.yul\":3907:3917   */\n      swap1\n      pop\n        /* \"#utility.yul\":3544:3923   */\n      swap2\n      swap1\n      pop\n      jump\t// out\n        /* \"#utility.yul\":3929:4348   */\n    tag_14:\n        /* \"#utility.yul\":4095:4099   */\n      0x00\n        /* \"#utility.yul\":4133:4135   */\n      0x20\n        /* \"#utility.yul\":4122:4131   */\n      dup3\n        /* \"#utility.yul\":4118:4136   */\n      add\n        /* \"#utility.yul\":4110:4136   */\n      swap1\n      pop\n        /* \"#utility.yul\":4182:4191   */\n      dup2\n        /* \"#utility.yul\":4176:4180   */\n      dup2\n        /* \"#utility.yul\":4172:4192   */\n      sub\n        /* \"#utility.yul\":4168:4169   */\n      0x00\n        /* \"#utility.yul\":4157:4166   */\n      dup4\n        /* \"#utility.yul\":4153:4170   */\n      add\n        /* \"#utility.yul\":4146:4193   */\n      mstore\n        /* \"#utility.yul\":4210:4341   */\n      tag_156\n        /* \"#utility.yul\":4336:4340   */\n      dup2\n        /* \"#utility.yul\":4210:4341   */\n      tag_117\n      jump\t// in\n    tag_156:\n        /* \"#utility.yul\":4202:4341   */\n      swap1\n      pop\n        /* \"#utility.yul\":3929:4348   */\n      swap2\n      swap1\n      pop\n      jump\t// out\n        /* \"#utility.yul\":4354:4773   */\n    tag_51:\n        /* \"#utility.yul\":4520:4524   */\n      0x00\n        /* \"#utility.yul\":4558:4560   */\n      0x20\n        /* \"#utility.yul\":4547:4556   */\n      dup3\n        /* \"#utility.yul\":4543:4561   */\n      add\n        /* \"#utility.yul\":4535:4561   */\n      swap1\n      pop\n        /* \"#utility.yul\":4607:4616   */\n      dup2\n        /* \"#utility.yul\":4601:4605   */\n      dup2\n        /* \"#utility.yul\":4597:4617   */\n      sub\n        /* \"#utility.yul\":4593:4594   */\n      0x00\n        /* \"#utility.yul\":4582:4591   */\n      dup4\n        /* \"#utility.yul\":4578:4595   */\n      add\n        /* \"#utility.yul\":4571:4618   */\n      mstore\n        /* \"#utility.yul\":4635:4766   */\n      tag_158\n        /* \"#utility.yul\":4761:4765   */\n      dup2\n        /* \"#utility.yul\":4635:4766   */\n      tag_123\n      jump\t// in\n    tag_158:\n        /* \"#utility.yul\":4627:4766   */\n      swap1\n      pop\n        /* \"#utility.yul\":4354:4773   */\n      swap2\n      swap1\n      pop\n      jump\t// out\n        /* \"#utility.yul\":4779:5198   */\n    tag_78:\n        /* \"#utility.yul\":4945:4949   */\n      0x00\n        /* \"#utility.yul\":4983:4985   */\n      0x20\n        /* \"#utility.yul\":4972:4981   */\n      dup3\n        /* \"#utility.yul\":4968:4986   */\n      add\n        /* \"#utility.yul\":4960:4986   */\n      swap1\n      pop\n        /* \"#utility.yul\":5032:5041   */\n      dup2\n        /* \"#utility.yul\":5026:5030   */\n      dup2\n        /* \"#utility.yul\":5022:5042   */\n      sub\n        /* \"#utility.yul\":5018:5019   */\n      0x00\n        /* \"#utility.yul\":5007:5016   */\n      dup4\n        /* \"#utility.yul\":5003:5020   */\n      add\n        /* \"#utility.yul\":4996:5043   */\n      mstore\n        /* \"#utility.yul\":5060:5191   */\n      tag_160\n        /* \"#utility.yul\":5186:5190   */\n      dup2\n        /* \"#utility.yul\":5060:5191   */\n      tag_128\n      jump\t// in\n    tag_160:\n        /* \"#utility.yul\":5052:5191   */\n      swap1\n      pop\n        /* \"#utility.yul\":4779:5198   */\n      swap2\n      swap1\n      pop\n      jump\t// out\n        /* \"#utility.yul\":5204:5623   */\n    tag_40:\n        /* \"#utility.yul\":5370:5374   */\n      0x00\n        /* \"#utility.yul\":5408:5410   */\n      0x20\n        /* \"#utility.yul\":5397:5406   */\n      dup3\n        /* \"#utility.yul\":5393:5411   */\n      add\n        /* \"#utility.yul\":5385:5411   */\n      swap1\n      pop\n        /* \"#utility.yul\":5457:5466   */\n      dup2\n        /* \"#utility.yul\":5451:5455   */\n      dup2\n        /* \"#utility.yul\":5447:5467   */\n      sub\n        /* \"#utility.yul\":5443:5444   */\n      0x00\n        /* \"#utility.yul\":5432:5441   */\n      dup4\n        /* \"#utility.yul\":5428:5445   */\n      add\n        /* \"#utility.yul\":5421:5468   */\n      mstore\n        /* \"#utility.yul\":5485:5616   */\n      tag_162\n        /* \"#utility.yul\":5611:5615   */\n      dup2\n        /* \"#utility.yul\":5485:5616   */\n      tag_133\n      jump\t// in\n    tag_162:\n        /* \"#utility.yul\":5477:5616   */\n      swap1\n      pop\n        /* \"#utility.yul\":5204:5623   */\n      swap2\n      swap1\n      pop\n      jump\t// out\n        /* \"#utility.yul\":5629:6048   */\n    tag_43:\n        /* \"#utility.yul\":5795:5799   */\n      0x00\n        /* \"#utility.yul\":5833:5835   */\n      0x20\n        /* \"#utility.yul\":5822:5831   */\n      dup3\n        /* \"#utility.yul\":5818:5836   */\n      add\n        /* \"#utility.yul\":5810:5836   */\n      swap1\n      pop\n        /* \"#utility.yul\":5882:5891   */\n      dup2\n        /* \"#utility.yul\":5876:5880   */\n      dup2\n        /* \"#utility.yul\":5872:5892   */\n      sub\n        /* \"#utility.yul\":5868:5869   */\n      0x00\n        /* \"#utility.yul\":5857:5866   */\n      dup4\n        /* \"#utility.yul\":5853:5870   */\n      add\n        /* \"#utility.yul\":5846:5893   */\n      mstore\n        /* \"#utility.yul\":5910:6041   */\n      tag_164\n        /* \"#utility.yul\":6036:6040   */\n      dup2\n        /* \"#utility.yul\":5910:6041   */\n      tag_144\n      jump\t// in\n    tag_164:\n        /* \"#utility.yul\":5902:6041   */\n      swap1\n      pop\n        /* \"#utility.yul\":5629:6048   */\n      swap2\n      swap1\n      pop\n      jump\t// out\n        /* \"#utility.yul\":6054:6276   */\n    tag_36:\n        /* \"#utility.yul\":6147:6151   */\n      0x00\n        /* \"#utility.yul\":6185:6187   */\n      0x20\n        /* \"#utility.yul\":6174:6183   */\n      dup3\n        /* \"#utility.yul\":6170:6188   */\n      add\n        /* \"#utility.yul\":6162:6188   */\n      swap1\n      pop\n        /* \"#utility.yul\":6198:6269   */\n      tag_166\n        /* \"#utility.yul\":6266:6267   */\n      0x00\n        /* \"#utility.yul\":6255:6264   */\n      dup4\n        /* \"#utility.yul\":6251:6268   */\n      add\n        /* \"#utility.yul\":6242:6248   */\n      dup5\n        /* \"#utility.yul\":6198:6269   */\n      tag_149\n      jump\t// in\n    tag_166:\n        /* \"#utility.yul\":6054:6276   */\n      swap3\n      swap2\n      pop\n      pop\n      jump\t// out\n        /* \"#utility.yul\":6363:6510   */\n    tag_141:\n        /* \"#utility.yul\":6464:6475   */\n      0x00\n        /* \"#utility.yul\":6501:6504   */\n      dup2\n        /* \"#utility.yul\":6486:6504   */\n      swap1\n      pop\n        /* \"#utility.yul\":6363:6510   */\n      swap3\n      swap2\n      pop\n      pop\n      jump\t// out\n        /* \"#utility.yul\":6516:6685   */\n    tag_120:\n        /* \"#utility.yul\":6600:6611   */\n      0x00\n        /* \"#utility.yul\":6634:6640   */\n      dup3\n        /* \"#utility.yul\":6629:6632   */\n      dup3\n        /* \"#utility.yul\":6622:6641   */\n      mstore\n        /* \"#utility.yul\":6674:6678   */\n      0x20\n        /* \"#utility.yul\":6669:6672   */\n      dup3\n        /* \"#utility.yul\":6665:6679   */\n      add\n        /* \"#utility.yul\":6650:6679   */\n      swap1\n      pop\n        /* \"#utility.yul\":6516:6685   */\n      swap3\n      swap2\n      pop\n      pop\n      jump\t// out\n        /* \"#utility.yul\":6691:6996   */\n    tag_69:\n        /* \"#utility.yul\":6731:6734   */\n      0x00\n        /* \"#utility.yul\":6750:6770   */\n      tag_172\n        /* \"#utility.yul\":6768:6769   */\n      dup3\n        /* \"#utility.yul\":6750:6770   */\n      tag_152\n      jump\t// in\n    tag_172:\n        /* \"#utility.yul\":6745:6770   */\n      swap2\n      pop\n        /* \"#utility.yul\":6784:6804   */\n      tag_173\n        /* \"#utility.yul\":6802:6803   */\n      dup4\n        /* \"#utility.yul\":6784:6804   */\n      tag_152\n      jump\t// in\n    tag_173:\n        /* \"#utility.yul\":6779:6804   */\n      swap3\n      pop\n        /* \"#utility.yul\":6938:6939   */\n      dup3\n        /* \"#utility.yul\":6870:6936   */\n      0xffffffffffffffffffffffffffffffffffffffffffffffffffffffffffffffff\n        /* \"#utility.yul\":6866:6940   */\n      sub\n        /* \"#utility.yul\":6863:6864   */\n      dup3\n        /* \"#utility.yul\":6860:6941   */\n      gt\n        /* \"#utility.yul\":6857:6964   */\n      iszero\n      tag_174\n      jumpi\n        /* \"#utility.yul\":6944:6962   */\n      tag_175\n      tag_176\n      jump\t// in\n    tag_175:\n        /* \"#utility.yul\":6857:6964   */\n    tag_174:\n        /* \"#utility.yul\":6988:6989   */\n      dup3\n        /* \"#utility.yul\":6985:6986   */\n      dup3\n        /* \"#utility.yul\":6981:6990   */\n      add\n        /* \"#utility.yul\":6974:6990   */\n      swap1\n      pop\n        /* \"#utility.yul\":6691:6996   */\n      swap3\n      swap2\n      pop\n      pop\n      jump\t// out\n        /* \"#utility.yul\":7002:7193   */\n    tag_53:\n        /* \"#utility.yul\":7042:7046   */\n      0x00\n        /* \"#utility.yul\":7062:7082   */\n      tag_178\n        /* \"#utility.yul\":7080:7081   */\n      dup3\n        /* \"#utility.yul\":7062:7082   */\n      tag_152\n      jump\t// in\n    tag_178:\n        /* \"#utility.yul\":7057:7082   */\n      swap2\n      pop\n        /* \"#utility.yul\":7096:7116   */\n      tag_179\n        /* \"#utility.yul\":7114:7115   */\n      dup4\n        /* \"#utility.yul\":7096:7116   */\n      tag_152\n      jump\t// in\n    tag_179:\n        /* \"#utility.yul\":7091:7116   */\n      swap3\n      pop\n        /* \"#utility.yul\":7135:7136   */\n      dup3\n        /* \"#utility.yul\":7132:7133   */\n      dup3\n        /* \"#utility.yul\":7129:7137   */\n      lt\n        /* \"#utility.yul\":7126:7160   */\n      iszero\n      tag_180\n      jumpi\n        /* \"#utility.yul\":7140:7158   */\n      tag_181\n      tag_176\n      jump\t// in\n    tag_181:\n        /* \"#utility.yul\":7126:7160   */\n    tag_180:\n        /* \"#utility.yul\":7185:7186   */\n      dup3\n        /* \"#utility.yul\":7182:7183   */\n      dup3\n        /* \"#utility.yul\":7178:7187   */\n      sub\n        /* \"#utility.yul\":7170:7187   */\n      swap1\n      pop\n        /* \"#utility.yul\":7002:7193   */\n      swap3\n      swap2\n      pop\n      pop\n      jump\t// out\n        /* \"#utility.yul\":7199:7303   */\n    tag_182:\n        /* \"#utility.yul\":7244:7251   */\n      0x00\n        /* \"#utility.yul\":7273:7297   */\n      tag_184\n        /* \"#utility.yul\":7291:7296   */\n      dup3\n        /* \"#utility.yul\":7273:7297   */\n      tag_185\n      jump\t// in\n    tag_184:\n        /* \"#utility.yul\":7262:7297   */\n      swap1\n      pop\n        /* \"#utility.yul\":7199:7303   */\n      swap2\n      swap1\n      pop\n      jump\t// out\n        /* \"#utility.yul\":7309:7385   */\n    tag_186:\n        /* \"#utility.yul\":7345:7352   */\n      0x00\n        /* \"#utility.yul\":7374:7379   */\n      dup2\n        /* \"#utility.yul\":7363:7379   */\n      swap1\n      pop\n        /* \"#utility.yul\":7309:7385   */\n      swap2\n      swap1\n      pop\n      jump\t// out\n        /* \"#utility.yul\":7391:7517   */\n    tag_185:\n        /* \"#utility.yul\":7428:7435   */\n      0x00\n        /* \"#utility.yul\":7468:7510   */\n      0xffffffffffffffffffffffffffffffffffffffff\n        /* \"#utility.yul\":7461:7466   */\n      dup3\n        /* \"#utility.yul\":7457:7511   */\n      and\n        /* \"#utility.yul\":7446:7511   */\n      swap1\n      pop\n        /* \"#utility.yul\":7391:7517   */\n      swap2\n      swap1\n      pop\n      jump\t// out\n        /* \"#utility.yul\":7523:7600   */\n    tag_152:\n        /* \"#utility.yul\":7560:7567   */\n      0x00\n        /* \"#utility.yul\":7589:7594   */\n      dup2\n        /* \"#utility.yul\":7578:7594   */\n      swap1\n      pop\n        /* \"#utility.yul\":7523:7600   */\n      swap2\n      swap1\n      pop\n      jump\t// out\n        /* \"#utility.yul\":7606:7839   */\n    tag_66:\n        /* \"#utility.yul\":7645:7648   */\n      0x00\n        /* \"#utility.yul\":7668:7692   */\n      tag_191\n        /* \"#utility.yul\":7686:7691   */\n      dup3\n        /* \"#utility.yul\":7668:7692   */\n      tag_152\n      jump\t// in\n    tag_191:\n        /* \"#utility.yul\":7659:7692   */\n      swap2\n      pop\n        /* \"#utility.yul\":7714:7780   */\n      0xffffffffffffffffffffffffffffffffffffffffffffffffffffffffffffffff\n        /* \"#utility.yul\":7707:7712   */\n      dup3\n        /* \"#utility.yul\":7704:7781   */\n      eq\n        /* \"#utility.yul\":7701:7804   */\n      iszero\n      tag_192\n      jumpi\n        /* \"#utility.yul\":7784:7802   */\n      tag_193\n      tag_176\n      jump\t// in\n    tag_193:\n        /* \"#utility.yul\":7701:7804   */\n    tag_192:\n        /* \"#utility.yul\":7831:7832   */\n      0x01\n        /* \"#utility.yul\":7824:7829   */\n      dup3\n        /* \"#utility.yul\":7820:7833   */\n      add\n        /* \"#utility.yul\":7813:7833   */\n      swap1\n      pop\n        /* \"#utility.yul\":7606:7839   */\n      swap2\n      swap1\n      pop\n      jump\t// out\n        /* \"#utility.yul\":7845:8025   */\n    tag_176:\n        /* \"#utility.yul\":7893:7970   */\n      0x4e487b7100000000000000000000000000000000000000000000000000000000\n        /* \"#utility.yul\":7890:7891   */\n      0x00\n        /* \"#utility.yul\":7883:7971   */\n      mstore\n        /* \"#utility.yul\":7990:7994   */\n      0x11\n        /* \"#utility.yul\":7987:7988   */\n      0x04\n        /* \"#utility.yul\":7980:7995   */\n      mstore\n        /* \"#utility.yul\":8014:8018   */\n      0x24\n        /* \"#utility.yul\":8011:8012   */\n      0x00\n        /* \"#utility.yul\":8004:8019   */\n      revert\n        /* \"#utility.yul\":8031:8211   */\n    tag_59:\n        /* \"#utility.yul\":8079:8156   */\n      0x4e487b7100000000000000000000000000000000000000000000000000000000\n        /* \"#utility.yul\":8076:8077   */\n      0x00\n        /* \"#utility.yul\":8069:8157   */\n      mstore\n        /* \"#utility.yul\":8176:8180   */\n      0x32\n        /* \"#utility.yul\":8173:8174   */\n      0x04\n        /* \"#utility.yul\":8166:8181   */\n      mstore\n        /* \"#utility.yul\":8200:8204   */\n      0x24\n        /* \"#utility.yul\":8197:8198   */\n      0x00\n        /* \"#utility.yul\":8190:8205   */\n      revert\n        /* \"#utility.yul\":8340:8457   */\n    tag_110:\n        /* \"#utility.yul\":8449:8450   */\n      0x00\n        /* \"#utility.yul\":8446:8447   */\n      dup1\n        /* \"#utility.yul\":8439:8451   */\n      revert\n        /* \"#utility.yul\":8463:8644   */\n    tag_122:\n        /* \"#utility.yul\":8603:8636   */\n      0x63616c6c206f662061206e6f6e2d6578697374656e742066756e6374696f6e00\n        /* \"#utility.yul\":8599:8600   */\n      0x00\n        /* \"#utility.yul\":8591:8597   */\n      dup3\n        /* \"#utility.yul\":8587:8601   */\n      add\n        /* \"#utility.yul\":8580:8637   */\n      mstore\n        /* \"#utility.yul\":8463:8644   */\n      pop\n      jump\t// out\n        /* \"#utility.yul\":8650:8820   */\n    tag_127:\n        /* \"#utility.yul\":8790:8812   */\n      0x4661696c656420746f2073656e64204574686572000000000000000000000000\n        /* \"#utility.yul\":8786:8787   */\n      0x00\n        /* \"#utility.yul\":8778:8784   */\n      dup3\n        /* \"#utility.yul\":8774:8788   */\n      add\n        /* \"#utility.yul\":8767:8813   */\n      mstore\n        /* \"#utility.yul\":8650:8820   */\n      pop\n      jump\t// out\n        /* \"#utility.yul\":8826:9046   */\n    tag_132:\n        /* \"#utility.yul\":8966:9000   */\n      0x596f7520646f6e27742068617665206574686572732073656e7420746f20796f\n        /* \"#utility.yul\":8962:8963   */\n      0x00\n        /* \"#utility.yul\":8954:8960   */\n      dup3\n        /* \"#utility.yul\":8950:8964   */\n      add\n        /* \"#utility.yul\":8943:9001   */\n      mstore\n        /* \"#utility.yul\":9035:9038   */\n      0x7500000000000000000000000000000000000000000000000000000000000000\n        /* \"#utility.yul\":9030:9032   */\n      0x20\n        /* \"#utility.yul\":9022:9028   */\n      dup3\n        /* \"#utility.yul\":9018:9033   */\n      add\n        /* \"#utility.yul\":9011:9039   */\n      mstore\n        /* \"#utility.yul\":8826:9046   */\n      pop\n      jump\t// out\n        /* \"#utility.yul\":9052:9345   */\n    tag_137:\n        /* \"#utility.yul\":9192:9226   */\n      0x526f6c6c6261636b206973206e6f7420617661696c61626c6520666f7220796f\n        /* \"#utility.yul\":9188:9189   */\n      0x00\n        /* \"#utility.yul\":9180:9186   */\n      dup3\n        /* \"#utility.yul\":9176:9190   */\n      add\n        /* \"#utility.yul\":9169:9227   */\n      mstore\n        /* \"#utility.yul\":9261:9295   */\n      0x752e20457468657273206d6967687420626520616c7265616479207769746864\n        /* \"#utility.yul\":9256:9258   */\n      0x20\n        /* \"#utility.yul\":9248:9254   */\n      dup3\n        /* \"#utility.yul\":9244:9259   */\n      add\n        /* \"#utility.yul\":9237:9296   */\n      mstore\n        /* \"#utility.yul\":9330:9337   */\n      0x7261776564000000000000000000000000000000000000000000000000000000\n        /* \"#utility.yul\":9325:9327   */\n      0x40\n        /* \"#utility.yul\":9317:9323   */\n      dup3\n        /* \"#utility.yul\":9313:9328   */\n      add\n        /* \"#utility.yul\":9306:9338   */\n      mstore\n        /* \"#utility.yul\":9052:9345   */\n      pop\n      jump\t// out\n        /* \"#utility.yul\":9351:9465   */\n    tag_143:\n      pop\n      jump\t// out\n        /* \"#utility.yul\":9471:9640   */\n    tag_148:\n        /* \"#utility.yul\":9611:9632   */\n      0x526f6c6c6261636b2076616c7565206973203000000000000000000000000000\n        /* \"#utility.yul\":9607:9608   */\n      0x00\n        /* \"#utility.yul\":9599:9605   */\n      dup3\n        /* \"#utility.yul\":9595:9609   */\n      add\n        /* \"#utility.yul\":9588:9633   */\n      mstore\n        /* \"#utility.yul\":9471:9640   */\n      pop\n      jump\t// out\n        /* \"#utility.yul\":9646:9784   */\n    tag_102:\n        /* \"#utility.yul\":9727:9759   */\n      tag_206\n        /* \"#utility.yul\":9753:9758   */\n      dup2\n        /* \"#utility.yul\":9727:9759   */\n      tag_182\n      jump\t// in\n    tag_206:\n        /* \"#utility.yul\":9720:9725   */\n      dup2\n        /* \"#utility.yul\":9717:9760   */\n      eq\n        /* \"#utility.yul\":9707:9778   */\n      tag_207\n      jumpi\n        /* \"#utility.yul\":9774:9775   */\n      0x00\n        /* \"#utility.yul\":9771:9772   */\n      dup1\n        /* \"#utility.yul\":9764:9776   */\n      revert\n        /* \"#utility.yul\":9707:9778   */\n    tag_207:\n        /* \"#utility.yul\":9646:9784   */\n      pop\n      jump\t// out\n        /* \"#utility.yul\":9790:9910   */\n    tag_106:\n        /* \"#utility.yul\":9862:9885   */\n      tag_209\n        /* \"#utility.yul\":9879:9884   */\n      dup2\n        /* \"#utility.yul\":9862:9885   */\n      tag_186\n      jump\t// in\n    tag_209:\n        /* \"#utility.yul\":9855:9860   */\n      dup2\n        /* \"#utility.yul\":9852:9886   */\n      eq\n        /* \"#utility.yul\":9842:9904   */\n      tag_210\n      jumpi\n        /* \"#utility.yul\":9900:9901   */\n      0x00\n        /* \"#utility.yul\":9897:9898   */\n      dup1\n        /* \"#utility.yul\":9890:9902   */\n      revert\n        /* \"#utility.yul\":9842:9904   */\n    tag_210:\n        /* \"#utility.yul\":9790:9910   */\n      pop\n      jump\t// out\n\n    auxdata: 0xa264697066735822122023634495c764dc2c7ebcf1b630ea8e7d1abe10d4aa977eaee326670f0258659a64736f6c63430008070033\n}\n",
				"bytecode": {
					"linkReferences": {},
					"object": "608060405234801561001057600080fd5b50611385806100206000396000f3fe6080604052600436106100595760003560e01c8063368438611461009757806348c981e2146100b357806348ff6b12146100cf5780637362377b146100f8578063d2472cb614610102578063ea46193e1461011957610060565b3661006057005b7f08c379a0afcc32b1a39302f7cb8073359698411ab5fd6e3edb2c02c0b5fba8aa60405161008d90610f8c565b60405180910390a1005b6100b160048036038101906100ac9190610e29565b610144565b005b6100cd60048036038101906100c89190610e29565b61068d565b005b3480156100db57600080fd5b506100f660048036038101906100f19190610e56565b610a2f565b005b610100610a33565b005b34801561010e57600080fd5b50610117610df5565b005b34801561012557600080fd5b5061012e610df7565b60405161013b919061102c565b60405180910390f35b6000339050600260008373ffffffffffffffffffffffffffffffffffffffff1673ffffffffffffffffffffffffffffffffffffffff16815260200190815260200160002060008273ffffffffffffffffffffffffffffffffffffffff1673ffffffffffffffffffffffffffffffffffffffff16815260200190815260200160002060009054906101000a900460ff16610212576040517f08c379a000000000000000000000000000000000000000000000000000000000815260040161020990610fec565b60405180910390fd5b6000600360008473ffffffffffffffffffffffffffffffffffffffff1673ffffffffffffffffffffffffffffffffffffffff16815260200190815260200160002060008373ffffffffffffffffffffffffffffffffffffffff1673ffffffffffffffffffffffffffffffffffffffff16815260200190815260200160002054905060008114156102d7576040517f08c379a00000000000000000000000000000000000000000000000000000000081526004016102ce9061100c565b60405180910390fd5b60008273ffffffffffffffffffffffffffffffffffffffff16826040516102fd90610f77565b60006040518083038185875af1925050503d806000811461033a576040519150601f19603f3d011682016040523d82523d6000602084013e61033f565b606091505b5050905080610383576040517f08c379a000000000000000000000000000000000000000000000000000000000815260040161037a90610fac565b60405180910390fd5b816000808673ffffffffffffffffffffffffffffffffffffffff1673ffffffffffffffffffffffffffffffffffffffff16815260200190815260200160002060008282546103d191906110b9565b92505081905550600360008573ffffffffffffffffffffffffffffffffffffffff1673ffffffffffffffffffffffffffffffffffffffff16815260200190815260200160002060008473ffffffffffffffffffffffffffffffffffffffff1673ffffffffffffffffffffffffffffffffffffffff168152602001908152602001600020600090556000600260008673ffffffffffffffffffffffffffffffffffffffff1673ffffffffffffffffffffffffffffffffffffffff16815260200190815260200160002060008573ffffffffffffffffffffffffffffffffffffffff1673ffffffffffffffffffffffffffffffffffffffff16815260200190815260200160002060006101000a81548160ff02191690831515021790555060005b600160008673ffffffffffffffffffffffffffffffffffffffff1673ffffffffffffffffffffffffffffffffffffffff16815260200190815260200160002080549050811015610686576000600160008773ffffffffffffffffffffffffffffffffffffffff1673ffffffffffffffffffffffffffffffffffffffff168152602001908152602001600020828154811061058d5761058c6111ab565b5b9060005260206000200160009054906101000a900473ffffffffffffffffffffffffffffffffffffffff1690508473ffffffffffffffffffffffffffffffffffffffff168173ffffffffffffffffffffffffffffffffffffffff16141561067257600160008773ffffffffffffffffffffffffffffffffffffffff1673ffffffffffffffffffffffffffffffffffffffff168152602001908152602001600020828154811061063f5761063e6111ab565b5b9060005260206000200160006101000a81549073ffffffffffffffffffffffffffffffffffffffff021916905550610686565b50808061067e90611133565b9150506104f0565b5050505050565b60003390506000349050806000808573ffffffffffffffffffffffffffffffffffffffff1673ffffffffffffffffffffffffffffffffffffffff16815260200190815260200160002060008282546106e59190611063565b92505081905550600260008473ffffffffffffffffffffffffffffffffffffffff1673ffffffffffffffffffffffffffffffffffffffff16815260200190815260200160002060008373ffffffffffffffffffffffffffffffffffffffff1673ffffffffffffffffffffffffffffffffffffffff16815260200190815260200160002060009054906101000a900460ff166107fd576000600360008573ffffffffffffffffffffffffffffffffffffffff1673ffffffffffffffffffffffffffffffffffffffff16815260200190815260200160002060008473ffffffffffffffffffffffffffffffffffffffff1673ffffffffffffffffffffffffffffffffffffffff168152602001908152602001600020819055505b80600360008573ffffffffffffffffffffffffffffffffffffffff1673ffffffffffffffffffffffffffffffffffffffff16815260200190815260200160002060008473ffffffffffffffffffffffffffffffffffffffff1673ffffffffffffffffffffffffffffffffffffffff16815260200190815260200160002060008282546108899190611063565b925050819055506001600260008573ffffffffffffffffffffffffffffffffffffffff1673ffffffffffffffffffffffffffffffffffffffff16815260200190815260200160002060008473ffffffffffffffffffffffffffffffffffffffff1673ffffffffffffffffffffffffffffffffffffffff16815260200190815260200160002060006101000a81548160ff021916908315150217905550600160008473ffffffffffffffffffffffffffffffffffffffff1673ffffffffffffffffffffffffffffffffffffffff168152602001908152602001600020829080600181540180825580915050600190039060005260206000200160009091909190916101000a81548173ffffffffffffffffffffffffffffffffffffffff021916908373ffffffffffffffffffffffffffffffffffffffff1602179055508273ffffffffffffffffffffffffffffffffffffffff168273ffffffffffffffffffffffffffffffffffffffff167fa343f361112b028dae2501770614271723be1d24c9f64fed2d4bd3ddf1c13e3583604051610a22919061102c565b60405180910390a3505050565b5050565b600033905060008060008373ffffffffffffffffffffffffffffffffffffffff1673ffffffffffffffffffffffffffffffffffffffff1681526020019081526020016000205490506000811415610abf576040517f08c379a0000000000000000000000000000000000000000000000000000000008152600401610ab690610fcc565b60405180910390fd5b60008273ffffffffffffffffffffffffffffffffffffffff1682604051610ae590610f77565b60006040518083038185875af1925050503d8060008114610b22576040519150601f19603f3d011682016040523d82523d6000602084013e610b27565b606091505b5050905080610b6b576040517f08c379a0000000000000000000000000000000000000000000000000000000008152600401610b6290610fac565b60405180910390fd5b6000808473ffffffffffffffffffffffffffffffffffffffff1673ffffffffffffffffffffffffffffffffffffffff1681526020019081526020016000206000905560005b600160008573ffffffffffffffffffffffffffffffffffffffff1673ffffffffffffffffffffffffffffffffffffffff16815260200190815260200160002080549050811015610da1576000600160008673ffffffffffffffffffffffffffffffffffffffff1673ffffffffffffffffffffffffffffffffffffffff1681526020019081526020016000208281548110610c4d57610c4c6111ab565b5b9060005260206000200160009054906101000a900473ffffffffffffffffffffffffffffffffffffffff1690506000600260008773ffffffffffffffffffffffffffffffffffffffff1673ffffffffffffffffffffffffffffffffffffffff16815260200190815260200160002060008373ffffffffffffffffffffffffffffffffffffffff1673ffffffffffffffffffffffffffffffffffffffff16815260200190815260200160002060006101000a81548160ff021916908315150217905550600160008673ffffffffffffffffffffffffffffffffffffffff1673ffffffffffffffffffffffffffffffffffffffff1681526020019081526020016000208281548110610d6057610d5f6111ab565b5b9060005260206000200160006101000a81549073ffffffffffffffffffffffffffffffffffffffff0219169055508080610d9990611133565b915050610bb0565b503373ffffffffffffffffffffffffffffffffffffffff167fa74fab966bfc29d4ea7866d609ac5d94324a5fe817362d6a9fee5d2f8df4675983604051610de8919061102c565b60405180910390a2505050565b565b600047905090565b600081359050610e0e81611321565b92915050565b600081359050610e2381611338565b92915050565b600060208284031215610e3f57610e3e6111da565b5b6000610e4d84828501610dff565b91505092915050565b60008060408385031215610e6d57610e6c6111da565b5b6000610e7b85828601610dff565b9250506020610e8c85828601610e14565b9150509250929050565b6000610ea3601f83611052565b9150610eae826111df565b602082019050919050565b6000610ec6601483611052565b9150610ed182611208565b602082019050919050565b6000610ee9602183611052565b9150610ef482611231565b604082019050919050565b6000610f0c604583611052565b9150610f1782611280565b606082019050919050565b6000610f2f600083611047565b9150610f3a826112f5565b600082019050919050565b6000610f52601383611052565b9150610f5d826112f8565b602082019050919050565b610f7181611129565b82525050565b6000610f8282610f22565b9150819050919050565b60006020820190508181036000830152610fa581610e96565b9050919050565b60006020820190508181036000830152610fc581610eb9565b9050919050565b60006020820190508181036000830152610fe581610edc565b9050919050565b6000602082019050818103600083015261100581610eff565b9050919050565b6000602082019050818103600083015261102581610f45565b9050919050565b60006020820190506110416000830184610f68565b92915050565b600081905092915050565b600082825260208201905092915050565b600061106e82611129565b915061107983611129565b9250827fffffffffffffffffffffffffffffffffffffffffffffffffffffffffffffffff038211156110ae576110ad61117c565b5b828201905092915050565b60006110c482611129565b91506110cf83611129565b9250828210156110e2576110e161117c565b5b828203905092915050565b60006110f882611109565b9050919050565b6000819050919050565b600073ffffffffffffffffffffffffffffffffffffffff82169050919050565b6000819050919050565b600061113e82611129565b91507fffffffffffffffffffffffffffffffffffffffffffffffffffffffffffffffff8214156111715761117061117c565b5b600182019050919050565b7f4e487b7100000000000000000000000000000000000000000000000000000000600052601160045260246000fd5b7f4e487b7100000000000000000000000000000000000000000000000000000000600052603260045260246000fd5b600080fd5b7f63616c6c206f662061206e6f6e2d6578697374656e742066756e6374696f6e00600082015250565b7f4661696c656420746f2073656e64204574686572000000000000000000000000600082015250565b7f596f7520646f6e27742068617665206574686572732073656e7420746f20796f60008201527f7500000000000000000000000000000000000000000000000000000000000000602082015250565b7f526f6c6c6261636b206973206e6f7420617661696c61626c6520666f7220796f60008201527f752e20457468657273206d6967687420626520616c726561647920776974686460208201527f7261776564000000000000000000000000000000000000000000000000000000604082015250565b50565b7f526f6c6c6261636b2076616c7565206973203000000000000000000000000000600082015250565b61132a816110ed565b811461133557600080fd5b50565b611341816110ff565b811461134c57600080fd5b5056fea264697066735822122023634495c764dc2c7ebcf1b630ea8e7d1abe10d4aa977eaee326670f0258659a64736f6c63430008070033",
					"opcodes": "PUSH1 0x80 PUSH1 0x40 MSTORE CALLVALUE DUP1 ISZERO PUSH2 0x10 JUMPI PUSH1 0x0 DUP1 REVERT JUMPDEST POP PUSH2 0x1385 DUP1 PUSH2 0x20 PUSH1 0x0 CODECOPY PUSH1 0x0 RETURN INVALID PUSH1 0x80 PUSH1 0x40 MSTORE PUSH1 0x4 CALLDATASIZE LT PUSH2 0x59 JUMPI PUSH1 0x0 CALLDATALOAD PUSH1 0xE0 SHR DUP1 PUSH4 0x36843861 EQ PUSH2 0x97 JUMPI DUP1 PUSH4 0x48C981E2 EQ PUSH2 0xB3 JUMPI DUP1 PUSH4 0x48FF6B12 EQ PUSH2 0xCF JUMPI DUP1 PUSH4 0x7362377B EQ PUSH2 0xF8 JUMPI DUP1 PUSH4 0xD2472CB6 EQ PUSH2 0x102 JUMPI DUP1 PUSH4 0xEA46193E EQ PUSH2 0x119 JUMPI PUSH2 0x60 JUMP JUMPDEST CALLDATASIZE PUSH2 0x60 JUMPI STOP JUMPDEST PUSH32 0x8C379A0AFCC32B1A39302F7CB8073359698411AB5FD6E3EDB2C02C0B5FBA8AA PUSH1 0x40 MLOAD PUSH2 0x8D SWAP1 PUSH2 0xF8C JUMP JUMPDEST PUSH1 0x40 MLOAD DUP1 SWAP2 SUB SWAP1 LOG1 STOP JUMPDEST PUSH2 0xB1 PUSH1 0x4 DUP1 CALLDATASIZE SUB DUP2 ADD SWAP1 PUSH2 0xAC SWAP2 SWAP1 PUSH2 0xE29 JUMP JUMPDEST PUSH2 0x144 JUMP JUMPDEST STOP JUMPDEST PUSH2 0xCD PUSH1 0x4 DUP1 CALLDATASIZE SUB DUP2 ADD SWAP1 PUSH2 0xC8 SWAP2 SWAP1 PUSH2 0xE29 JUMP JUMPDEST PUSH2 0x68D JUMP JUMPDEST STOP JUMPDEST CALLVALUE DUP1 ISZERO PUSH2 0xDB JUMPI PUSH1 0x0 DUP1 REVERT JUMPDEST POP PUSH2 0xF6 PUSH1 0x4 DUP1 CALLDATASIZE SUB DUP2 ADD SWAP1 PUSH2 0xF1 SWAP2 SWAP1 PUSH2 0xE56 JUMP JUMPDEST PUSH2 0xA2F JUMP JUMPDEST STOP JUMPDEST PUSH2 0x100 PUSH2 0xA33 JUMP JUMPDEST STOP JUMPDEST CALLVALUE DUP1 ISZERO PUSH2 0x10E JUMPI PUSH1 0x0 DUP1 REVERT JUMPDEST POP PUSH2 0x117 PUSH2 0xDF5 JUMP JUMPDEST STOP JUMPDEST CALLVALUE DUP1 ISZERO PUSH2 0x125 JUMPI PUSH1 0x0 DUP1 REVERT JUMPDEST POP PUSH2 0x12E PUSH2 0xDF7 JUMP JUMPDEST PUSH1 0x40 MLOAD PUSH2 0x13B SWAP2 SWAP1 PUSH2 0x102C JUMP JUMPDEST PUSH1 0x40 MLOAD DUP1 SWAP2 SUB SWAP1 RETURN JUMPDEST PUSH1 0x0 CALLER SWAP1 POP PUSH1 0x2 PUSH1 0x0 DUP4 PUSH20 0xFFFFFFFFFFFFFFFFFFFFFFFFFFFFFFFFFFFFFFFF AND PUSH20 0xFFFFFFFFFFFFFFFFFFFFFFFFFFFFFFFFFFFFFFFF AND DUP2 MSTORE PUSH1 0x20 ADD SWAP1 DUP2 MSTORE PUSH1 0x20 ADD PUSH1 0x0 KECCAK256 PUSH1 0x0 DUP3 PUSH20 0xFFFFFFFFFFFFFFFFFFFFFFFFFFFFFFFFFFFFFFFF AND PUSH20 0xFFFFFFFFFFFFFFFFFFFFFFFFFFFFFFFFFFFFFFFF AND DUP2 MSTORE PUSH1 0x20 ADD SWAP1 DUP2 MSTORE PUSH1 0x20 ADD PUSH1 0x0 KECCAK256 PUSH1 0x0 SWAP1 SLOAD SWAP1 PUSH2 0x100 EXP SWAP1 DIV PUSH1 0xFF AND PUSH2 0x212 JUMPI PUSH1 0x40 MLOAD PUSH32 0x8C379A000000000000000000000000000000000000000000000000000000000 DUP2 MSTORE PUSH1 0x4 ADD PUSH2 0x209 SWAP1 PUSH2 0xFEC JUMP JUMPDEST PUSH1 0x40 MLOAD DUP1 SWAP2 SUB SWAP1 REVERT JUMPDEST PUSH1 0x0 PUSH1 0x3 PUSH1 0x0 DUP5 PUSH20 0xFFFFFFFFFFFFFFFFFFFFFFFFFFFFFFFFFFFFFFFF AND PUSH20 0xFFFFFFFFFFFFFFFFFFFFFFFFFFFFFFFFFFFFFFFF AND DUP2 MSTORE PUSH1 0x20 ADD SWAP1 DUP2 MSTORE PUSH1 0x20 ADD PUSH1 0x0 KECCAK256 PUSH1 0x0 DUP4 PUSH20 0xFFFFFFFFFFFFFFFFFFFFFFFFFFFFFFFFFFFFFFFF AND PUSH20 0xFFFFFFFFFFFFFFFFFFFFFFFFFFFFFFFFFFFFFFFF AND DUP2 MSTORE PUSH1 0x20 ADD SWAP1 DUP2 MSTORE PUSH1 0x20 ADD PUSH1 0x0 KECCAK256 SLOAD SWAP1 POP PUSH1 0x0 DUP2 EQ ISZERO PUSH2 0x2D7 JUMPI PUSH1 0x40 MLOAD PUSH32 0x8C379A000000000000000000000000000000000000000000000000000000000 DUP2 MSTORE PUSH1 0x4 ADD PUSH2 0x2CE SWAP1 PUSH2 0x100C JUMP JUMPDEST PUSH1 0x40 MLOAD DUP1 SWAP2 SUB SWAP1 REVERT JUMPDEST PUSH1 0x0 DUP3 PUSH20 0xFFFFFFFFFFFFFFFFFFFFFFFFFFFFFFFFFFFFFFFF AND DUP3 PUSH1 0x40 MLOAD PUSH2 0x2FD SWAP1 PUSH2 0xF77 JUMP JUMPDEST PUSH1 0x0 PUSH1 0x40 MLOAD DUP1 DUP4 SUB DUP2 DUP6 DUP8 GAS CALL SWAP3 POP POP POP RETURNDATASIZE DUP1 PUSH1 0x0 DUP2 EQ PUSH2 0x33A JUMPI PUSH1 0x40 MLOAD SWAP2 POP PUSH1 0x1F NOT PUSH1 0x3F RETURNDATASIZE ADD AND DUP3 ADD PUSH1 0x40 MSTORE RETURNDATASIZE DUP3 MSTORE RETURNDATASIZE PUSH1 0x0 PUSH1 0x20 DUP5 ADD RETURNDATACOPY PUSH2 0x33F JUMP JUMPDEST PUSH1 0x60 SWAP2 POP JUMPDEST POP POP SWAP1 POP DUP1 PUSH2 0x383 JUMPI PUSH1 0x40 MLOAD PUSH32 0x8C379A000000000000000000000000000000000000000000000000000000000 DUP2 MSTORE PUSH1 0x4 ADD PUSH2 0x37A SWAP1 PUSH2 0xFAC JUMP JUMPDEST PUSH1 0x40 MLOAD DUP1 SWAP2 SUB SWAP1 REVERT JUMPDEST DUP2 PUSH1 0x0 DUP1 DUP7 PUSH20 0xFFFFFFFFFFFFFFFFFFFFFFFFFFFFFFFFFFFFFFFF AND PUSH20 0xFFFFFFFFFFFFFFFFFFFFFFFFFFFFFFFFFFFFFFFF AND DUP2 MSTORE PUSH1 0x20 ADD SWAP1 DUP2 MSTORE PUSH1 0x20 ADD PUSH1 0x0 KECCAK256 PUSH1 0x0 DUP3 DUP3 SLOAD PUSH2 0x3D1 SWAP2 SWAP1 PUSH2 0x10B9 JUMP JUMPDEST SWAP3 POP POP DUP2 SWAP1 SSTORE POP PUSH1 0x3 PUSH1 0x0 DUP6 PUSH20 0xFFFFFFFFFFFFFFFFFFFFFFFFFFFFFFFFFFFFFFFF AND PUSH20 0xFFFFFFFFFFFFFFFFFFFFFFFFFFFFFFFFFFFFFFFF AND DUP2 MSTORE PUSH1 0x20 ADD SWAP1 DUP2 MSTORE PUSH1 0x20 ADD PUSH1 0x0 KECCAK256 PUSH1 0x0 DUP5 PUSH20 0xFFFFFFFFFFFFFFFFFFFFFFFFFFFFFFFFFFFFFFFF AND PUSH20 0xFFFFFFFFFFFFFFFFFFFFFFFFFFFFFFFFFFFFFFFF AND DUP2 MSTORE PUSH1 0x20 ADD SWAP1 DUP2 MSTORE PUSH1 0x20 ADD PUSH1 0x0 KECCAK256 PUSH1 0x0 SWAP1 SSTORE PUSH1 0x0 PUSH1 0x2 PUSH1 0x0 DUP7 PUSH20 0xFFFFFFFFFFFFFFFFFFFFFFFFFFFFFFFFFFFFFFFF AND PUSH20 0xFFFFFFFFFFFFFFFFFFFFFFFFFFFFFFFFFFFFFFFF AND DUP2 MSTORE PUSH1 0x20 ADD SWAP1 DUP2 MSTORE PUSH1 0x20 ADD PUSH1 0x0 KECCAK256 PUSH1 0x0 DUP6 PUSH20 0xFFFFFFFFFFFFFFFFFFFFFFFFFFFFFFFFFFFFFFFF AND PUSH20 0xFFFFFFFFFFFFFFFFFFFFFFFFFFFFFFFFFFFFFFFF AND DUP2 MSTORE PUSH1 0x20 ADD SWAP1 DUP2 MSTORE PUSH1 0x20 ADD PUSH1 0x0 KECCAK256 PUSH1 0x0 PUSH2 0x100 EXP DUP2 SLOAD DUP2 PUSH1 0xFF MUL NOT AND SWAP1 DUP4 ISZERO ISZERO MUL OR SWAP1 SSTORE POP PUSH1 0x0 JUMPDEST PUSH1 0x1 PUSH1 0x0 DUP7 PUSH20 0xFFFFFFFFFFFFFFFFFFFFFFFFFFFFFFFFFFFFFFFF AND PUSH20 0xFFFFFFFFFFFFFFFFFFFFFFFFFFFFFFFFFFFFFFFF AND DUP2 MSTORE PUSH1 0x20 ADD SWAP1 DUP2 MSTORE PUSH1 0x20 ADD PUSH1 0x0 KECCAK256 DUP1 SLOAD SWAP1 POP DUP2 LT ISZERO PUSH2 0x686 JUMPI PUSH1 0x0 PUSH1 0x1 PUSH1 0x0 DUP8 PUSH20 0xFFFFFFFFFFFFFFFFFFFFFFFFFFFFFFFFFFFFFFFF AND PUSH20 0xFFFFFFFFFFFFFFFFFFFFFFFFFFFFFFFFFFFFFFFF AND DUP2 MSTORE PUSH1 0x20 ADD SWAP1 DUP2 MSTORE PUSH1 0x20 ADD PUSH1 0x0 KECCAK256 DUP3 DUP2 SLOAD DUP2 LT PUSH2 0x58D JUMPI PUSH2 0x58C PUSH2 0x11AB JUMP JUMPDEST JUMPDEST SWAP1 PUSH1 0x0 MSTORE PUSH1 0x20 PUSH1 0x0 KECCAK256 ADD PUSH1 0x0 SWAP1 SLOAD SWAP1 PUSH2 0x100 EXP SWAP1 DIV PUSH20 0xFFFFFFFFFFFFFFFFFFFFFFFFFFFFFFFFFFFFFFFF AND SWAP1 POP DUP5 PUSH20 0xFFFFFFFFFFFFFFFFFFFFFFFFFFFFFFFFFFFFFFFF AND DUP2 PUSH20 0xFFFFFFFFFFFFFFFFFFFFFFFFFFFFFFFFFFFFFFFF AND EQ ISZERO PUSH2 0x672 JUMPI PUSH1 0x1 PUSH1 0x0 DUP8 PUSH20 0xFFFFFFFFFFFFFFFFFFFFFFFFFFFFFFFFFFFFFFFF AND PUSH20 0xFFFFFFFFFFFFFFFFFFFFFFFFFFFFFFFFFFFFFFFF AND DUP2 MSTORE PUSH1 0x20 ADD SWAP1 DUP2 MSTORE PUSH1 0x20 ADD PUSH1 0x0 KECCAK256 DUP3 DUP2 SLOAD DUP2 LT PUSH2 0x63F JUMPI PUSH2 0x63E PUSH2 0x11AB JUMP JUMPDEST JUMPDEST SWAP1 PUSH1 0x0 MSTORE PUSH1 0x20 PUSH1 0x0 KECCAK256 ADD PUSH1 0x0 PUSH2 0x100 EXP DUP2 SLOAD SWAP1 PUSH20 0xFFFFFFFFFFFFFFFFFFFFFFFFFFFFFFFFFFFFFFFF MUL NOT AND SWAP1 SSTORE POP PUSH2 0x686 JUMP JUMPDEST POP DUP1 DUP1 PUSH2 0x67E SWAP1 PUSH2 0x1133 JUMP JUMPDEST SWAP2 POP POP PUSH2 0x4F0 JUMP JUMPDEST POP POP POP POP POP JUMP JUMPDEST PUSH1 0x0 CALLER SWAP1 POP PUSH1 0x0 CALLVALUE SWAP1 POP DUP1 PUSH1 0x0 DUP1 DUP6 PUSH20 0xFFFFFFFFFFFFFFFFFFFFFFFFFFFFFFFFFFFFFFFF AND PUSH20 0xFFFFFFFFFFFFFFFFFFFFFFFFFFFFFFFFFFFFFFFF AND DUP2 MSTORE PUSH1 0x20 ADD SWAP1 DUP2 MSTORE PUSH1 0x20 ADD PUSH1 0x0 KECCAK256 PUSH1 0x0 DUP3 DUP3 SLOAD PUSH2 0x6E5 SWAP2 SWAP1 PUSH2 0x1063 JUMP JUMPDEST SWAP3 POP POP DUP2 SWAP1 SSTORE POP PUSH1 0x2 PUSH1 0x0 DUP5 PUSH20 0xFFFFFFFFFFFFFFFFFFFFFFFFFFFFFFFFFFFFFFFF AND PUSH20 0xFFFFFFFFFFFFFFFFFFFFFFFFFFFFFFFFFFFFFFFF AND DUP2 MSTORE PUSH1 0x20 ADD SWAP1 DUP2 MSTORE PUSH1 0x20 ADD PUSH1 0x0 KECCAK256 PUSH1 0x0 DUP4 PUSH20 0xFFFFFFFFFFFFFFFFFFFFFFFFFFFFFFFFFFFFFFFF AND PUSH20 0xFFFFFFFFFFFFFFFFFFFFFFFFFFFFFFFFFFFFFFFF AND DUP2 MSTORE PUSH1 0x20 ADD SWAP1 DUP2 MSTORE PUSH1 0x20 ADD PUSH1 0x0 KECCAK256 PUSH1 0x0 SWAP1 SLOAD SWAP1 PUSH2 0x100 EXP SWAP1 DIV PUSH1 0xFF AND PUSH2 0x7FD JUMPI PUSH1 0x0 PUSH1 0x3 PUSH1 0x0 DUP6 PUSH20 0xFFFFFFFFFFFFFFFFFFFFFFFFFFFFFFFFFFFFFFFF AND PUSH20 0xFFFFFFFFFFFFFFFFFFFFFFFFFFFFFFFFFFFFFFFF AND DUP2 MSTORE PUSH1 0x20 ADD SWAP1 DUP2 MSTORE PUSH1 0x20 ADD PUSH1 0x0 KECCAK256 PUSH1 0x0 DUP5 PUSH20 0xFFFFFFFFFFFFFFFFFFFFFFFFFFFFFFFFFFFFFFFF AND PUSH20 0xFFFFFFFFFFFFFFFFFFFFFFFFFFFFFFFFFFFFFFFF AND DUP2 MSTORE PUSH1 0x20 ADD SWAP1 DUP2 MSTORE PUSH1 0x20 ADD PUSH1 0x0 KECCAK256 DUP2 SWAP1 SSTORE POP JUMPDEST DUP1 PUSH1 0x3 PUSH1 0x0 DUP6 PUSH20 0xFFFFFFFFFFFFFFFFFFFFFFFFFFFFFFFFFFFFFFFF AND PUSH20 0xFFFFFFFFFFFFFFFFFFFFFFFFFFFFFFFFFFFFFFFF AND DUP2 MSTORE PUSH1 0x20 ADD SWAP1 DUP2 MSTORE PUSH1 0x20 ADD PUSH1 0x0 KECCAK256 PUSH1 0x0 DUP5 PUSH20 0xFFFFFFFFFFFFFFFFFFFFFFFFFFFFFFFFFFFFFFFF AND PUSH20 0xFFFFFFFFFFFFFFFFFFFFFFFFFFFFFFFFFFFFFFFF AND DUP2 MSTORE PUSH1 0x20 ADD SWAP1 DUP2 MSTORE PUSH1 0x20 ADD PUSH1 0x0 KECCAK256 PUSH1 0x0 DUP3 DUP3 SLOAD PUSH2 0x889 SWAP2 SWAP1 PUSH2 0x1063 JUMP JUMPDEST SWAP3 POP POP DUP2 SWAP1 SSTORE POP PUSH1 0x1 PUSH1 0x2 PUSH1 0x0 DUP6 PUSH20 0xFFFFFFFFFFFFFFFFFFFFFFFFFFFFFFFFFFFFFFFF AND PUSH20 0xFFFFFFFFFFFFFFFFFFFFFFFFFFFFFFFFFFFFFFFF AND DUP2 MSTORE PUSH1 0x20 ADD SWAP1 DUP2 MSTORE PUSH1 0x20 ADD PUSH1 0x0 KECCAK256 PUSH1 0x0 DUP5 PUSH20 0xFFFFFFFFFFFFFFFFFFFFFFFFFFFFFFFFFFFFFFFF AND PUSH20 0xFFFFFFFFFFFFFFFFFFFFFFFFFFFFFFFFFFFFFFFF AND DUP2 MSTORE PUSH1 0x20 ADD SWAP1 DUP2 MSTORE PUSH1 0x20 ADD PUSH1 0x0 KECCAK256 PUSH1 0x0 PUSH2 0x100 EXP DUP2 SLOAD DUP2 PUSH1 0xFF MUL NOT AND SWAP1 DUP4 ISZERO ISZERO MUL OR SWAP1 SSTORE POP PUSH1 0x1 PUSH1 0x0 DUP5 PUSH20 0xFFFFFFFFFFFFFFFFFFFFFFFFFFFFFFFFFFFFFFFF AND PUSH20 0xFFFFFFFFFFFFFFFFFFFFFFFFFFFFFFFFFFFFFFFF AND DUP2 MSTORE PUSH1 0x20 ADD SWAP1 DUP2 MSTORE PUSH1 0x20 ADD PUSH1 0x0 KECCAK256 DUP3 SWAP1 DUP1 PUSH1 0x1 DUP2 SLOAD ADD DUP1 DUP3 SSTORE DUP1 SWAP2 POP POP PUSH1 0x1 SWAP1 SUB SWAP1 PUSH1 0x0 MSTORE PUSH1 0x20 PUSH1 0x0 KECCAK256 ADD PUSH1 0x0 SWAP1 SWAP2 SWAP1 SWAP2 SWAP1 SWAP2 PUSH2 0x100 EXP DUP2 SLOAD DUP2 PUSH20 0xFFFFFFFFFFFFFFFFFFFFFFFFFFFFFFFFFFFFFFFF MUL NOT AND SWAP1 DUP4 PUSH20 0xFFFFFFFFFFFFFFFFFFFFFFFFFFFFFFFFFFFFFFFF AND MUL OR SWAP1 SSTORE POP DUP3 PUSH20 0xFFFFFFFFFFFFFFFFFFFFFFFFFFFFFFFFFFFFFFFF AND DUP3 PUSH20 0xFFFFFFFFFFFFFFFFFFFFFFFFFFFFFFFFFFFFFFFF AND PUSH32 0xA343F361112B028DAE2501770614271723BE1D24C9F64FED2D4BD3DDF1C13E35 DUP4 PUSH1 0x40 MLOAD PUSH2 0xA22 SWAP2 SWAP1 PUSH2 0x102C JUMP JUMPDEST PUSH1 0x40 MLOAD DUP1 SWAP2 SUB SWAP1 LOG3 POP POP POP JUMP JUMPDEST POP POP JUMP JUMPDEST PUSH1 0x0 CALLER SWAP1 POP PUSH1 0x0 DUP1 PUSH1 0x0 DUP4 PUSH20 0xFFFFFFFFFFFFFFFFFFFFFFFFFFFFFFFFFFFFFFFF AND PUSH20 0xFFFFFFFFFFFFFFFFFFFFFFFFFFFFFFFFFFFFFFFF AND DUP2 MSTORE PUSH1 0x20 ADD SWAP1 DUP2 MSTORE PUSH1 0x20 ADD PUSH1 0x0 KECCAK256 SLOAD SWAP1 POP PUSH1 0x0 DUP2 EQ ISZERO PUSH2 0xABF JUMPI PUSH1 0x40 MLOAD PUSH32 0x8C379A000000000000000000000000000000000000000000000000000000000 DUP2 MSTORE PUSH1 0x4 ADD PUSH2 0xAB6 SWAP1 PUSH2 0xFCC JUMP JUMPDEST PUSH1 0x40 MLOAD DUP1 SWAP2 SUB SWAP1 REVERT JUMPDEST PUSH1 0x0 DUP3 PUSH20 0xFFFFFFFFFFFFFFFFFFFFFFFFFFFFFFFFFFFFFFFF AND DUP3 PUSH1 0x40 MLOAD PUSH2 0xAE5 SWAP1 PUSH2 0xF77 JUMP JUMPDEST PUSH1 0x0 PUSH1 0x40 MLOAD DUP1 DUP4 SUB DUP2 DUP6 DUP8 GAS CALL SWAP3 POP POP POP RETURNDATASIZE DUP1 PUSH1 0x0 DUP2 EQ PUSH2 0xB22 JUMPI PUSH1 0x40 MLOAD SWAP2 POP PUSH1 0x1F NOT PUSH1 0x3F RETURNDATASIZE ADD AND DUP3 ADD PUSH1 0x40 MSTORE RETURNDATASIZE DUP3 MSTORE RETURNDATASIZE PUSH1 0x0 PUSH1 0x20 DUP5 ADD RETURNDATACOPY PUSH2 0xB27 JUMP JUMPDEST PUSH1 0x60 SWAP2 POP JUMPDEST POP POP SWAP1 POP DUP1 PUSH2 0xB6B JUMPI PUSH1 0x40 MLOAD PUSH32 0x8C379A000000000000000000000000000000000000000000000000000000000 DUP2 MSTORE PUSH1 0x4 ADD PUSH2 0xB62 SWAP1 PUSH2 0xFAC JUMP JUMPDEST PUSH1 0x40 MLOAD DUP1 SWAP2 SUB SWAP1 REVERT JUMPDEST PUSH1 0x0 DUP1 DUP5 PUSH20 0xFFFFFFFFFFFFFFFFFFFFFFFFFFFFFFFFFFFFFFFF AND PUSH20 0xFFFFFFFFFFFFFFFFFFFFFFFFFFFFFFFFFFFFFFFF AND DUP2 MSTORE PUSH1 0x20 ADD SWAP1 DUP2 MSTORE PUSH1 0x20 ADD PUSH1 0x0 KECCAK256 PUSH1 0x0 SWAP1 SSTORE PUSH1 0x0 JUMPDEST PUSH1 0x1 PUSH1 0x0 DUP6 PUSH20 0xFFFFFFFFFFFFFFFFFFFFFFFFFFFFFFFFFFFFFFFF AND PUSH20 0xFFFFFFFFFFFFFFFFFFFFFFFFFFFFFFFFFFFFFFFF AND DUP2 MSTORE PUSH1 0x20 ADD SWAP1 DUP2 MSTORE PUSH1 0x20 ADD PUSH1 0x0 KECCAK256 DUP1 SLOAD SWAP1 POP DUP2 LT ISZERO PUSH2 0xDA1 JUMPI PUSH1 0x0 PUSH1 0x1 PUSH1 0x0 DUP7 PUSH20 0xFFFFFFFFFFFFFFFFFFFFFFFFFFFFFFFFFFFFFFFF AND PUSH20 0xFFFFFFFFFFFFFFFFFFFFFFFFFFFFFFFFFFFFFFFF AND DUP2 MSTORE PUSH1 0x20 ADD SWAP1 DUP2 MSTORE PUSH1 0x20 ADD PUSH1 0x0 KECCAK256 DUP3 DUP2 SLOAD DUP2 LT PUSH2 0xC4D JUMPI PUSH2 0xC4C PUSH2 0x11AB JUMP JUMPDEST JUMPDEST SWAP1 PUSH1 0x0 MSTORE PUSH1 0x20 PUSH1 0x0 KECCAK256 ADD PUSH1 0x0 SWAP1 SLOAD SWAP1 PUSH2 0x100 EXP SWAP1 DIV PUSH20 0xFFFFFFFFFFFFFFFFFFFFFFFFFFFFFFFFFFFFFFFF AND SWAP1 POP PUSH1 0x0 PUSH1 0x2 PUSH1 0x0 DUP8 PUSH20 0xFFFFFFFFFFFFFFFFFFFFFFFFFFFFFFFFFFFFFFFF AND PUSH20 0xFFFFFFFFFFFFFFFFFFFFFFFFFFFFFFFFFFFFFFFF AND DUP2 MSTORE PUSH1 0x20 ADD SWAP1 DUP2 MSTORE PUSH1 0x20 ADD PUSH1 0x0 KECCAK256 PUSH1 0x0 DUP4 PUSH20 0xFFFFFFFFFFFFFFFFFFFFFFFFFFFFFFFFFFFFFFFF AND PUSH20 0xFFFFFFFFFFFFFFFFFFFFFFFFFFFFFFFFFFFFFFFF AND DUP2 MSTORE PUSH1 0x20 ADD SWAP1 DUP2 MSTORE PUSH1 0x20 ADD PUSH1 0x0 KECCAK256 PUSH1 0x0 PUSH2 0x100 EXP DUP2 SLOAD DUP2 PUSH1 0xFF MUL NOT AND SWAP1 DUP4 ISZERO ISZERO MUL OR SWAP1 SSTORE POP PUSH1 0x1 PUSH1 0x0 DUP7 PUSH20 0xFFFFFFFFFFFFFFFFFFFFFFFFFFFFFFFFFFFFFFFF AND PUSH20 0xFFFFFFFFFFFFFFFFFFFFFFFFFFFFFFFFFFFFFFFF AND DUP2 MSTORE PUSH1 0x20 ADD SWAP1 DUP2 MSTORE PUSH1 0x20 ADD PUSH1 0x0 KECCAK256 DUP3 DUP2 SLOAD DUP2 LT PUSH2 0xD60 JUMPI PUSH2 0xD5F PUSH2 0x11AB JUMP JUMPDEST JUMPDEST SWAP1 PUSH1 0x0 MSTORE PUSH1 0x20 PUSH1 0x0 KECCAK256 ADD PUSH1 0x0 PUSH2 0x100 EXP DUP2 SLOAD SWAP1 PUSH20 0xFFFFFFFFFFFFFFFFFFFFFFFFFFFFFFFFFFFFFFFF MUL NOT AND SWAP1 SSTORE POP DUP1 DUP1 PUSH2 0xD99 SWAP1 PUSH2 0x1133 JUMP JUMPDEST SWAP2 POP POP PUSH2 0xBB0 JUMP JUMPDEST POP CALLER PUSH20 0xFFFFFFFFFFFFFFFFFFFFFFFFFFFFFFFFFFFFFFFF AND PUSH32 0xA74FAB966BFC29D4EA7866D609AC5D94324A5FE817362D6A9FEE5D2F8DF46759 DUP4 PUSH1 0x40 MLOAD PUSH2 0xDE8 SWAP2 SWAP1 PUSH2 0x102C JUMP JUMPDEST PUSH1 0x40 MLOAD DUP1 SWAP2 SUB SWAP1 LOG2 POP POP POP JUMP JUMPDEST JUMP JUMPDEST PUSH1 0x0 SELFBALANCE SWAP1 POP SWAP1 JUMP JUMPDEST PUSH1 0x0 DUP2 CALLDATALOAD SWAP1 POP PUSH2 0xE0E DUP2 PUSH2 0x1321 JUMP JUMPDEST SWAP3 SWAP2 POP POP JUMP JUMPDEST PUSH1 0x0 DUP2 CALLDATALOAD SWAP1 POP PUSH2 0xE23 DUP2 PUSH2 0x1338 JUMP JUMPDEST SWAP3 SWAP2 POP POP JUMP JUMPDEST PUSH1 0x0 PUSH1 0x20 DUP3 DUP5 SUB SLT ISZERO PUSH2 0xE3F JUMPI PUSH2 0xE3E PUSH2 0x11DA JUMP JUMPDEST JUMPDEST PUSH1 0x0 PUSH2 0xE4D DUP5 DUP3 DUP6 ADD PUSH2 0xDFF JUMP JUMPDEST SWAP2 POP POP SWAP3 SWAP2 POP POP JUMP JUMPDEST PUSH1 0x0 DUP1 PUSH1 0x40 DUP4 DUP6 SUB SLT ISZERO PUSH2 0xE6D JUMPI PUSH2 0xE6C PUSH2 0x11DA JUMP JUMPDEST JUMPDEST PUSH1 0x0 PUSH2 0xE7B DUP6 DUP3 DUP7 ADD PUSH2 0xDFF JUMP JUMPDEST SWAP3 POP POP PUSH1 0x20 PUSH2 0xE8C DUP6 DUP3 DUP7 ADD PUSH2 0xE14 JUMP JUMPDEST SWAP2 POP POP SWAP3 POP SWAP3 SWAP1 POP JUMP JUMPDEST PUSH1 0x0 PUSH2 0xEA3 PUSH1 0x1F DUP4 PUSH2 0x1052 JUMP JUMPDEST SWAP2 POP PUSH2 0xEAE DUP3 PUSH2 0x11DF JUMP JUMPDEST PUSH1 0x20 DUP3 ADD SWAP1 POP SWAP2 SWAP1 POP JUMP JUMPDEST PUSH1 0x0 PUSH2 0xEC6 PUSH1 0x14 DUP4 PUSH2 0x1052 JUMP JUMPDEST SWAP2 POP PUSH2 0xED1 DUP3 PUSH2 0x1208 JUMP JUMPDEST PUSH1 0x20 DUP3 ADD SWAP1 POP SWAP2 SWAP1 POP JUMP JUMPDEST PUSH1 0x0 PUSH2 0xEE9 PUSH1 0x21 DUP4 PUSH2 0x1052 JUMP JUMPDEST SWAP2 POP PUSH2 0xEF4 DUP3 PUSH2 0x1231 JUMP JUMPDEST PUSH1 0x40 DUP3 ADD SWAP1 POP SWAP2 SWAP1 POP JUMP JUMPDEST PUSH1 0x0 PUSH2 0xF0C PUSH1 0x45 DUP4 PUSH2 0x1052 JUMP JUMPDEST SWAP2 POP PUSH2 0xF17 DUP3 PUSH2 0x1280 JUMP JUMPDEST PUSH1 0x60 DUP3 ADD SWAP1 POP SWAP2 SWAP1 POP JUMP JUMPDEST PUSH1 0x0 PUSH2 0xF2F PUSH1 0x0 DUP4 PUSH2 0x1047 JUMP JUMPDEST SWAP2 POP PUSH2 0xF3A DUP3 PUSH2 0x12F5 JUMP JUMPDEST PUSH1 0x0 DUP3 ADD SWAP1 POP SWAP2 SWAP1 POP JUMP JUMPDEST PUSH1 0x0 PUSH2 0xF52 PUSH1 0x13 DUP4 PUSH2 0x1052 JUMP JUMPDEST SWAP2 POP PUSH2 0xF5D DUP3 PUSH2 0x12F8 JUMP JUMPDEST PUSH1 0x20 DUP3 ADD SWAP1 POP SWAP2 SWAP1 POP JUMP JUMPDEST PUSH2 0xF71 DUP2 PUSH2 0x1129 JUMP JUMPDEST DUP3 MSTORE POP POP JUMP JUMPDEST PUSH1 0x0 PUSH2 0xF82 DUP3 PUSH2 0xF22 JUMP JUMPDEST SWAP2 POP DUP2 SWAP1 POP SWAP2 SWAP1 POP JUMP JUMPDEST PUSH1 0x0 PUSH1 0x20 DUP3 ADD SWAP1 POP DUP2 DUP2 SUB PUSH1 0x0 DUP4 ADD MSTORE PUSH2 0xFA5 DUP2 PUSH2 0xE96 JUMP JUMPDEST SWAP1 POP SWAP2 SWAP1 POP JUMP JUMPDEST PUSH1 0x0 PUSH1 0x20 DUP3 ADD SWAP1 POP DUP2 DUP2 SUB PUSH1 0x0 DUP4 ADD MSTORE PUSH2 0xFC5 DUP2 PUSH2 0xEB9 JUMP JUMPDEST SWAP1 POP SWAP2 SWAP1 POP JUMP JUMPDEST PUSH1 0x0 PUSH1 0x20 DUP3 ADD SWAP1 POP DUP2 DUP2 SUB PUSH1 0x0 DUP4 ADD MSTORE PUSH2 0xFE5 DUP2 PUSH2 0xEDC JUMP JUMPDEST SWAP1 POP SWAP2 SWAP1 POP JUMP JUMPDEST PUSH1 0x0 PUSH1 0x20 DUP3 ADD SWAP1 POP DUP2 DUP2 SUB PUSH1 0x0 DUP4 ADD MSTORE PUSH2 0x1005 DUP2 PUSH2 0xEFF JUMP JUMPDEST SWAP1 POP SWAP2 SWAP1 POP JUMP JUMPDEST PUSH1 0x0 PUSH1 0x20 DUP3 ADD SWAP1 POP DUP2 DUP2 SUB PUSH1 0x0 DUP4 ADD MSTORE PUSH2 0x1025 DUP2 PUSH2 0xF45 JUMP JUMPDEST SWAP1 POP SWAP2 SWAP1 POP JUMP JUMPDEST PUSH1 0x0 PUSH1 0x20 DUP3 ADD SWAP1 POP PUSH2 0x1041 PUSH1 0x0 DUP4 ADD DUP5 PUSH2 0xF68 JUMP JUMPDEST SWAP3 SWAP2 POP POP JUMP JUMPDEST PUSH1 0x0 DUP2 SWAP1 POP SWAP3 SWAP2 POP POP JUMP JUMPDEST PUSH1 0x0 DUP3 DUP3 MSTORE PUSH1 0x20 DUP3 ADD SWAP1 POP SWAP3 SWAP2 POP POP JUMP JUMPDEST PUSH1 0x0 PUSH2 0x106E DUP3 PUSH2 0x1129 JUMP JUMPDEST SWAP2 POP PUSH2 0x1079 DUP4 PUSH2 0x1129 JUMP JUMPDEST SWAP3 POP DUP3 PUSH32 0xFFFFFFFFFFFFFFFFFFFFFFFFFFFFFFFFFFFFFFFFFFFFFFFFFFFFFFFFFFFFFFFF SUB DUP3 GT ISZERO PUSH2 0x10AE JUMPI PUSH2 0x10AD PUSH2 0x117C JUMP JUMPDEST JUMPDEST DUP3 DUP3 ADD SWAP1 POP SWAP3 SWAP2 POP POP JUMP JUMPDEST PUSH1 0x0 PUSH2 0x10C4 DUP3 PUSH2 0x1129 JUMP JUMPDEST SWAP2 POP PUSH2 0x10CF DUP4 PUSH2 0x1129 JUMP JUMPDEST SWAP3 POP DUP3 DUP3 LT ISZERO PUSH2 0x10E2 JUMPI PUSH2 0x10E1 PUSH2 0x117C JUMP JUMPDEST JUMPDEST DUP3 DUP3 SUB SWAP1 POP SWAP3 SWAP2 POP POP JUMP JUMPDEST PUSH1 0x0 PUSH2 0x10F8 DUP3 PUSH2 0x1109 JUMP JUMPDEST SWAP1 POP SWAP2 SWAP1 POP JUMP JUMPDEST PUSH1 0x0 DUP2 SWAP1 POP SWAP2 SWAP1 POP JUMP JUMPDEST PUSH1 0x0 PUSH20 0xFFFFFFFFFFFFFFFFFFFFFFFFFFFFFFFFFFFFFFFF DUP3 AND SWAP1 POP SWAP2 SWAP1 POP JUMP JUMPDEST PUSH1 0x0 DUP2 SWAP1 POP SWAP2 SWAP1 POP JUMP JUMPDEST PUSH1 0x0 PUSH2 0x113E DUP3 PUSH2 0x1129 JUMP JUMPDEST SWAP2 POP PUSH32 0xFFFFFFFFFFFFFFFFFFFFFFFFFFFFFFFFFFFFFFFFFFFFFFFFFFFFFFFFFFFFFFFF DUP3 EQ ISZERO PUSH2 0x1171 JUMPI PUSH2 0x1170 PUSH2 0x117C JUMP JUMPDEST JUMPDEST PUSH1 0x1 DUP3 ADD SWAP1 POP SWAP2 SWAP1 POP JUMP JUMPDEST PUSH32 0x4E487B7100000000000000000000000000000000000000000000000000000000 PUSH1 0x0 MSTORE PUSH1 0x11 PUSH1 0x4 MSTORE PUSH1 0x24 PUSH1 0x0 REVERT JUMPDEST PUSH32 0x4E487B7100000000000000000000000000000000000000000000000000000000 PUSH1 0x0 MSTORE PUSH1 0x32 PUSH1 0x4 MSTORE PUSH1 0x24 PUSH1 0x0 REVERT JUMPDEST PUSH1 0x0 DUP1 REVERT JUMPDEST PUSH32 0x63616C6C206F662061206E6F6E2D6578697374656E742066756E6374696F6E00 PUSH1 0x0 DUP3 ADD MSTORE POP JUMP JUMPDEST PUSH32 0x4661696C656420746F2073656E64204574686572000000000000000000000000 PUSH1 0x0 DUP3 ADD MSTORE POP JUMP JUMPDEST PUSH32 0x596F7520646F6E27742068617665206574686572732073656E7420746F20796F PUSH1 0x0 DUP3 ADD MSTORE PUSH32 0x7500000000000000000000000000000000000000000000000000000000000000 PUSH1 0x20 DUP3 ADD MSTORE POP JUMP JUMPDEST PUSH32 0x526F6C6C6261636B206973206E6F7420617661696C61626C6520666F7220796F PUSH1 0x0 DUP3 ADD MSTORE PUSH32 0x752E20457468657273206D6967687420626520616C7265616479207769746864 PUSH1 0x20 DUP3 ADD MSTORE PUSH32 0x7261776564000000000000000000000000000000000000000000000000000000 PUSH1 0x40 DUP3 ADD MSTORE POP JUMP JUMPDEST POP JUMP JUMPDEST PUSH32 0x526F6C6C6261636B2076616C7565206973203000000000000000000000000000 PUSH1 0x0 DUP3 ADD MSTORE POP JUMP JUMPDEST PUSH2 0x132A DUP2 PUSH2 0x10ED JUMP JUMPDEST DUP2 EQ PUSH2 0x1335 JUMPI PUSH1 0x0 DUP1 REVERT JUMPDEST POP JUMP JUMPDEST PUSH2 0x1341 DUP2 PUSH2 0x10FF JUMP JUMPDEST DUP2 EQ PUSH2 0x134C JUMPI PUSH1 0x0 DUP1 REVERT JUMPDEST POP JUMP INVALID LOG2 PUSH5 0x6970667358 0x22 SLT KECCAK256 0x23 PUSH4 0x4495C764 0xDC 0x2C PUSH31 0xBCF1B630EA8E7D1ABE10D4AA977EAEE326670F0258659A64736F6C63430008 SMOD STOP CALLER "
				},
				"gasEstimates": {
					"creation": {
						"codeDepositCost": "999400",
						"executionCost": "1041",
						"totalCost": "1000441"
					},
					"external": {
						"": "1997",
						"getEtherBalance()": "427",
						"rollbackEther(address)": "infinite",
						"sendEther(address)": "infinite",
						"sendGLD(address,int256)": "650",
						"withdrawEther()": "infinite",
						"withdrawGLD()": "210"
					},
					"internal": {
						"rollbackGLD(address payable)": "infinite"
					}
				},
				"methodIdentifiers": {
					"getEtherBalance()": "ea46193e",
					"rollbackEther(address)": "36843861",
					"sendEther(address)": "48c981e2",
					"sendGLD(address,int256)": "48ff6b12",
					"withdrawEther()": "7362377b",
					"withdrawGLD()": "d2472cb6"
				}
			},
			"storageLayout": {
				"storage": [
					{
						"astId": 5,
						"contract": "contracts/GLDEsrow.sol:GLDEscrow",
						"label": "receiverAddress",
						"offset": 0,
						"slot": "0",
						"type": "t_mapping(t_address,t_uint256)"
					},
					{
						"astId": 10,
						"contract": "contracts/GLDEsrow.sol:GLDEscrow",
						"label": "rollbackAddresses",
						"offset": 0,
						"slot": "1",
						"type": "t_mapping(t_address,t_array(t_address)dyn_storage)"
					},
					{
						"astId": 16,
						"contract": "contracts/GLDEsrow.sol:GLDEscrow",
						"label": "rollbackPossible",
						"offset": 0,
						"slot": "2",
						"type": "t_mapping(t_address,t_mapping(t_address,t_bool))"
					},
					{
						"astId": 22,
						"contract": "contracts/GLDEsrow.sol:GLDEscrow",
						"label": "rollbackValue",
						"offset": 0,
						"slot": "3",
						"type": "t_mapping(t_address,t_mapping(t_address,t_uint256))"
					}
				],
				"types": {
					"t_address": {
						"encoding": "inplace",
						"label": "address",
						"numberOfBytes": "20"
					},
					"t_array(t_address)dyn_storage": {
						"base": "t_address",
						"encoding": "dynamic_array",
						"label": "address[]",
						"numberOfBytes": "32"
					},
					"t_bool": {
						"encoding": "inplace",
						"label": "bool",
						"numberOfBytes": "1"
					},
					"t_mapping(t_address,t_array(t_address)dyn_storage)": {
						"encoding": "mapping",
						"key": "t_address",
						"label": "mapping(address => address[])",
						"numberOfBytes": "32",
						"value": "t_array(t_address)dyn_storage"
					},
					"t_mapping(t_address,t_bool)": {
						"encoding": "mapping",
						"key": "t_address",
						"label": "mapping(address => bool)",
						"numberOfBytes": "32",
						"value": "t_bool"
					},
					"t_mapping(t_address,t_mapping(t_address,t_bool))": {
						"encoding": "mapping",
						"key": "t_address",
						"label": "mapping(address => mapping(address => bool))",
						"numberOfBytes": "32",
						"value": "t_mapping(t_address,t_bool)"
					},
					"t_mapping(t_address,t_mapping(t_address,t_uint256))": {
						"encoding": "mapping",
						"key": "t_address",
						"label": "mapping(address => mapping(address => uint256))",
						"numberOfBytes": "32",
						"value": "t_mapping(t_address,t_uint256)"
					},
					"t_mapping(t_address,t_uint256)": {
						"encoding": "mapping",
						"key": "t_address",
						"label": "mapping(address => uint256)",
						"numberOfBytes": "32",
						"value": "t_uint256"
					},
					"t_uint256": {
						"encoding": "inplace",
						"label": "uint256",
						"numberOfBytes": "32"
					}
				}
			},
			"userdoc": {
				"kind": "user",
				"methods": {},
				"version": 1
			}
		}
	}
}