{
	"contracts/Escrow.sol": {
		"Escrow": {
			"abi": [
				{
					"anonymous": false,
					"inputs": [
						{
							"indexed": false,
							"internalType": "string",
							"name": "",
							"type": "string"
						}
					],
					"name": "Error",
					"type": "event"
				},
				{
					"anonymous": false,
					"inputs": [
						{
							"indexed": true,
							"internalType": "address",
							"name": "sender",
							"type": "address"
						},
						{
							"indexed": true,
							"internalType": "address",
							"name": "to",
							"type": "address"
						},
						{
							"indexed": false,
							"internalType": "uint256",
							"name": "value",
							"type": "uint256"
						}
					],
					"name": "LogRolledBack",
					"type": "event"
				},
				{
					"anonymous": false,
					"inputs": [
						{
							"indexed": true,
							"internalType": "address",
							"name": "sender",
							"type": "address"
						},
						{
							"indexed": true,
							"internalType": "address",
							"name": "to",
							"type": "address"
						},
						{
							"indexed": false,
							"internalType": "uint256",
							"name": "value",
							"type": "uint256"
						}
					],
					"name": "LogSend",
					"type": "event"
				},
				{
					"anonymous": false,
					"inputs": [
						{
							"indexed": true,
							"internalType": "address",
							"name": "to",
							"type": "address"
						},
						{
							"indexed": false,
							"internalType": "uint256",
							"name": "value",
							"type": "uint256"
						}
					],
					"name": "LogWithDraw",
					"type": "event"
				},
				{
					"stateMutability": "payable",
					"type": "fallback"
				},
				{
					"inputs": [],
					"name": "getEtBalance",
					"outputs": [
						{
							"internalType": "uint256",
							"name": "",
							"type": "uint256"
						}
					],
					"stateMutability": "view",
					"type": "function"
				},
				{
					"inputs": [
						{
							"internalType": "address payable",
							"name": "to",
							"type": "address"
						}
					],
					"name": "rollbackEther",
					"outputs": [],
					"stateMutability": "payable",
					"type": "function"
				},
				{
					"inputs": [
						{
							"internalType": "address payable",
							"name": "to",
							"type": "address"
						}
					],
					"name": "sendEther",
					"outputs": [],
					"stateMutability": "payable",
					"type": "function"
				},
				{
					"inputs": [],
					"name": "withdrawEther",
					"outputs": [],
					"stateMutability": "payable",
					"type": "function"
				},
				{
					"stateMutability": "payable",
					"type": "receive"
				}
			],
			"devdoc": {
				"kind": "dev",
				"methods": {},
				"version": 1
			},
			"evm": {
				"assembly": "    /* \"contracts/Escrow.sol\":64:2606  contract Escrow {\r... */\n  mstore(0x40, 0x80)\n  callvalue\n  dup1\n  iszero\n  tag_1\n  jumpi\n  0x00\n  dup1\n  revert\ntag_1:\n  pop\n  dataSize(sub_0)\n  dup1\n  dataOffset(sub_0)\n  0x00\n  codecopy\n  0x00\n  return\nstop\n\nsub_0: assembly {\n        /* \"contracts/Escrow.sol\":64:2606  contract Escrow {\r... */\n      mstore(0x40, 0x80)\n      jumpi(tag_1, lt(calldatasize, 0x04))\n      shr(0xe0, calldataload(0x00))\n      dup1\n      0x31aaf59a\n      eq\n      tag_3\n      jumpi\n      dup1\n      0x36843861\n      eq\n      tag_4\n      jumpi\n      dup1\n      0x48c981e2\n      eq\n      tag_5\n      jumpi\n      dup1\n      0x7362377b\n      eq\n      tag_6\n      jumpi\n      jump(tag_2)\n    tag_1:\n      jumpi(tag_2, calldatasize)\n      stop\n    tag_2:\n        /* \"contracts/Escrow.sol\":452:492  Error(\"call of a non-existent function\") */\n      0x08c379a0afcc32b1a39302f7cb8073359698411ab5fd6e3edb2c02c0b5fba8aa\n      mload(0x40)\n      tag_11\n      swap1\n      tag_12\n      jump\t// in\n    tag_11:\n      mload(0x40)\n      dup1\n      swap2\n      sub\n      swap1\n      log1\n        /* \"contracts/Escrow.sol\":64:2606  contract Escrow {\r... */\n      stop\n        /* \"contracts/Escrow.sol\":2508:2603  function getEtBalance() public view returns (uint256) {\r... */\n    tag_3:\n      callvalue\n      dup1\n      iszero\n      tag_13\n      jumpi\n      0x00\n      dup1\n      revert\n    tag_13:\n      pop\n      tag_14\n      tag_15\n      jump\t// in\n    tag_14:\n      mload(0x40)\n      tag_16\n      swap2\n      swap1\n      tag_17\n      jump\t// in\n    tag_16:\n      mload(0x40)\n      dup1\n      swap2\n      sub\n      swap1\n      return\n        /* \"contracts/Escrow.sol\":1716:2502  function rollbackEther(address payable to) external payable {\r... */\n    tag_4:\n      tag_18\n      0x04\n      dup1\n      calldatasize\n      sub\n      dup2\n      add\n      swap1\n      tag_19\n      swap2\n      swap1\n      tag_20\n      jump\t// in\n    tag_19:\n      tag_21\n      jump\t// in\n    tag_18:\n      stop\n        /* \"contracts/Escrow.sol\":747:1129  function sendEther(address payable to) external payable {\r... */\n    tag_5:\n      tag_22\n      0x04\n      dup1\n      calldatasize\n      sub\n      dup2\n      add\n      swap1\n      tag_23\n      swap2\n      swap1\n      tag_20\n      jump\t// in\n    tag_23:\n      tag_24\n      jump\t// in\n    tag_22:\n      stop\n        /* \"contracts/Escrow.sol\":1135:1710  function withdrawEther() external payable {\r... */\n    tag_6:\n      tag_25\n      tag_26\n      jump\t// in\n    tag_25:\n      stop\n        /* \"contracts/Escrow.sol\":2508:2603  function getEtBalance() public view returns (uint256) {\r... */\n    tag_15:\n        /* \"contracts/Escrow.sol\":2553:2560  uint256 */\n      0x00\n        /* \"contracts/Escrow.sol\":2576:2597  address(this).balance */\n      selfbalance\n        /* \"contracts/Escrow.sol\":2569:2597  return address(this).balance */\n      swap1\n      pop\n        /* \"contracts/Escrow.sol\":2508:2603  function getEtBalance() public view returns (uint256) {\r... */\n      swap1\n      jump\t// out\n        /* \"contracts/Escrow.sol\":1716:2502  function rollbackEther(address payable to) external payable {\r... */\n    tag_21:\n        /* \"contracts/Escrow.sol\":1783:1805  address payable sender */\n      0x00\n        /* \"contracts/Escrow.sol\":1816:1826  msg.sender */\n      caller\n        /* \"contracts/Escrow.sol\":1783:1827  address payable sender = payable(msg.sender) */\n      swap1\n      pop\n        /* \"contracts/Escrow.sol\":1850:1866  rollbackPossible */\n      0x02\n        /* \"contracts/Escrow.sol\":1850:1870  rollbackPossible[to] */\n      0x00\n        /* \"contracts/Escrow.sol\":1867:1869  to */\n      dup4\n        /* \"contracts/Escrow.sol\":1850:1870  rollbackPossible[to] */\n      0xffffffffffffffffffffffffffffffffffffffff\n      and\n      0xffffffffffffffffffffffffffffffffffffffff\n      and\n      dup2\n      mstore\n      0x20\n      add\n      swap1\n      dup2\n      mstore\n      0x20\n      add\n      0x00\n      keccak256\n        /* \"contracts/Escrow.sol\":1850:1878  rollbackPossible[to][sender] */\n      0x00\n        /* \"contracts/Escrow.sol\":1871:1877  sender */\n      dup3\n        /* \"contracts/Escrow.sol\":1850:1878  rollbackPossible[to][sender] */\n      0xffffffffffffffffffffffffffffffffffffffff\n      and\n      0xffffffffffffffffffffffffffffffffffffffff\n      and\n      dup2\n      mstore\n      0x20\n      add\n      swap1\n      dup2\n      mstore\n      0x20\n      add\n      0x00\n      keccak256\n      0x00\n      swap1\n      sload\n      swap1\n      0x0100\n      exp\n      swap1\n      div\n      0xff\n      and\n        /* \"contracts/Escrow.sol\":1834:1965  require(\r... */\n      tag_29\n      jumpi\n      mload(0x40)\n      0x08c379a000000000000000000000000000000000000000000000000000000000\n      dup2\n      mstore\n      0x04\n      add\n      tag_30\n      swap1\n      tag_31\n      jump\t// in\n    tag_30:\n      mload(0x40)\n      dup1\n      swap2\n      sub\n      swap1\n      revert\n    tag_29:\n        /* \"contracts/Escrow.sol\":1972:1986  uint256 _value */\n      0x00\n        /* \"contracts/Escrow.sol\":1989:2002  rollbackValue */\n      0x03\n        /* \"contracts/Escrow.sol\":1989:2006  rollbackValue[to] */\n      0x00\n        /* \"contracts/Escrow.sol\":2003:2005  to */\n      dup5\n        /* \"contracts/Escrow.sol\":1989:2006  rollbackValue[to] */\n      0xffffffffffffffffffffffffffffffffffffffff\n      and\n      0xffffffffffffffffffffffffffffffffffffffff\n      and\n      dup2\n      mstore\n      0x20\n      add\n      swap1\n      dup2\n      mstore\n      0x20\n      add\n      0x00\n      keccak256\n        /* \"contracts/Escrow.sol\":1989:2014  rollbackValue[to][sender] */\n      0x00\n        /* \"contracts/Escrow.sol\":2007:2013  sender */\n      dup4\n        /* \"contracts/Escrow.sol\":1989:2014  rollbackValue[to][sender] */\n      0xffffffffffffffffffffffffffffffffffffffff\n      and\n      0xffffffffffffffffffffffffffffffffffffffff\n      and\n      dup2\n      mstore\n      0x20\n      add\n      swap1\n      dup2\n      mstore\n      0x20\n      add\n      0x00\n      keccak256\n      sload\n        /* \"contracts/Escrow.sol\":1972:2014  uint256 _value = rollbackValue[to][sender] */\n      swap1\n      pop\n        /* \"contracts/Escrow.sol\":2039:2040  0 */\n      0x00\n        /* \"contracts/Escrow.sol\":2029:2035  _value */\n      dup2\n        /* \"contracts/Escrow.sol\":2029:2040  _value != 0 */\n      eq\n      iszero\n        /* \"contracts/Escrow.sol\":2021:2064  require(_value != 0, \"Rollback value is 0\") */\n      tag_32\n      jumpi\n      mload(0x40)\n      0x08c379a000000000000000000000000000000000000000000000000000000000\n      dup2\n      mstore\n      0x04\n      add\n      tag_33\n      swap1\n      tag_34\n      jump\t// in\n    tag_33:\n      mload(0x40)\n      dup1\n      swap2\n      sub\n      swap1\n      revert\n    tag_32:\n        /* \"contracts/Escrow.sol\":2072:2081  bool sent */\n      0x00\n        /* \"contracts/Escrow.sol\":2087:2093  sender */\n      dup3\n        /* \"contracts/Escrow.sol\":2087:2098  sender.call */\n      0xffffffffffffffffffffffffffffffffffffffff\n      and\n        /* \"contracts/Escrow.sol\":2106:2112  _value */\n      dup3\n        /* \"contracts/Escrow.sol\":2087:2117  sender.call{value: _value}(\"\") */\n      mload(0x40)\n      tag_35\n      swap1\n      tag_36\n      jump\t// in\n    tag_35:\n      0x00\n      mload(0x40)\n      dup1\n      dup4\n      sub\n      dup2\n      dup6\n      dup8\n      gas\n      call\n      swap3\n      pop\n      pop\n      pop\n      returndatasize\n      dup1\n      0x00\n      dup2\n      eq\n      tag_39\n      jumpi\n      mload(0x40)\n      swap2\n      pop\n      and(add(returndatasize, 0x3f), not(0x1f))\n      dup3\n      add\n      0x40\n      mstore\n      returndatasize\n      dup3\n      mstore\n      returndatasize\n      0x00\n      0x20\n      dup5\n      add\n      returndatacopy\n      jump(tag_38)\n    tag_39:\n      0x60\n      swap2\n      pop\n    tag_38:\n      pop\n        /* \"contracts/Escrow.sol\":2071:2117  (bool sent, ) = sender.call{value: _value}(\"\") */\n      pop\n      swap1\n      pop\n        /* \"contracts/Escrow.sol\":2132:2136  sent */\n      dup1\n        /* \"contracts/Escrow.sol\":2124:2161  require(sent, \"Failed to send Ether\") */\n      tag_40\n      jumpi\n      mload(0x40)\n      0x08c379a000000000000000000000000000000000000000000000000000000000\n      dup2\n      mstore\n      0x04\n      add\n      tag_41\n      swap1\n      tag_42\n      jump\t// in\n    tag_41:\n      mload(0x40)\n      dup1\n      swap2\n      sub\n      swap1\n      revert\n    tag_40:\n        /* \"contracts/Escrow.sol\":2191:2197  _value */\n      dup2\n        /* \"contracts/Escrow.sol\":2168:2183  receiverAddress */\n      0x00\n        /* \"contracts/Escrow.sol\":2168:2187  receiverAddress[to] */\n      dup1\n        /* \"contracts/Escrow.sol\":2184:2186  to */\n      dup7\n        /* \"contracts/Escrow.sol\":2168:2187  receiverAddress[to] */\n      0xffffffffffffffffffffffffffffffffffffffff\n      and\n      0xffffffffffffffffffffffffffffffffffffffff\n      and\n      dup2\n      mstore\n      0x20\n      add\n      swap1\n      dup2\n      mstore\n      0x20\n      add\n      0x00\n      keccak256\n      0x00\n        /* \"contracts/Escrow.sol\":2168:2197  receiverAddress[to] -= _value */\n      dup3\n      dup3\n      sload\n      tag_43\n      swap2\n      swap1\n      tag_44\n      jump\t// in\n    tag_43:\n      swap3\n      pop\n      pop\n      dup2\n      swap1\n      sstore\n      pop\n        /* \"contracts/Escrow.sol\":2211:2224  rollbackValue */\n      0x03\n        /* \"contracts/Escrow.sol\":2211:2228  rollbackValue[to] */\n      0x00\n        /* \"contracts/Escrow.sol\":2225:2227  to */\n      dup6\n        /* \"contracts/Escrow.sol\":2211:2228  rollbackValue[to] */\n      0xffffffffffffffffffffffffffffffffffffffff\n      and\n      0xffffffffffffffffffffffffffffffffffffffff\n      and\n      dup2\n      mstore\n      0x20\n      add\n      swap1\n      dup2\n      mstore\n      0x20\n      add\n      0x00\n      keccak256\n        /* \"contracts/Escrow.sol\":2211:2236  rollbackValue[to][sender] */\n      0x00\n        /* \"contracts/Escrow.sol\":2229:2235  sender */\n      dup5\n        /* \"contracts/Escrow.sol\":2211:2236  rollbackValue[to][sender] */\n      0xffffffffffffffffffffffffffffffffffffffff\n      and\n      0xffffffffffffffffffffffffffffffffffffffff\n      and\n      dup2\n      mstore\n      0x20\n      add\n      swap1\n      dup2\n      mstore\n      0x20\n      add\n      0x00\n      keccak256\n        /* \"contracts/Escrow.sol\":2204:2236  delete rollbackValue[to][sender] */\n      0x00\n      swap1\n      sstore\n        /* \"contracts/Escrow.sol\":2274:2279  false */\n      0x00\n        /* \"contracts/Escrow.sol\":2243:2259  rollbackPossible */\n      0x02\n        /* \"contracts/Escrow.sol\":2243:2263  rollbackPossible[to] */\n      0x00\n        /* \"contracts/Escrow.sol\":2260:2262  to */\n      dup7\n        /* \"contracts/Escrow.sol\":2243:2263  rollbackPossible[to] */\n      0xffffffffffffffffffffffffffffffffffffffff\n      and\n      0xffffffffffffffffffffffffffffffffffffffff\n      and\n      dup2\n      mstore\n      0x20\n      add\n      swap1\n      dup2\n      mstore\n      0x20\n      add\n      0x00\n      keccak256\n        /* \"contracts/Escrow.sol\":2243:2271  rollbackPossible[to][sender] */\n      0x00\n        /* \"contracts/Escrow.sol\":2264:2270  sender */\n      dup6\n        /* \"contracts/Escrow.sol\":2243:2271  rollbackPossible[to][sender] */\n      0xffffffffffffffffffffffffffffffffffffffff\n      and\n      0xffffffffffffffffffffffffffffffffffffffff\n      and\n      dup2\n      mstore\n      0x20\n      add\n      swap1\n      dup2\n      mstore\n      0x20\n      add\n      0x00\n      keccak256\n      0x00\n        /* \"contracts/Escrow.sol\":2243:2279  rollbackPossible[to][sender] = false */\n      0x0100\n      exp\n      dup2\n      sload\n      dup2\n      0xff\n      mul\n      not\n      and\n      swap1\n      dup4\n      iszero\n      iszero\n      mul\n      or\n      swap1\n      sstore\n      pop\n        /* \"contracts/Escrow.sol\":2291:2300  uint256 i */\n      0x00\n        /* \"contracts/Escrow.sol\":2286:2497  for (uint256 i = 0; i < rollbackAddresses[to].length; i++) {\r... */\n    tag_45:\n        /* \"contracts/Escrow.sol\":2310:2327  rollbackAddresses */\n      0x01\n        /* \"contracts/Escrow.sol\":2310:2331  rollbackAddresses[to] */\n      0x00\n        /* \"contracts/Escrow.sol\":2328:2330  to */\n      dup7\n        /* \"contracts/Escrow.sol\":2310:2331  rollbackAddresses[to] */\n      0xffffffffffffffffffffffffffffffffffffffff\n      and\n      0xffffffffffffffffffffffffffffffffffffffff\n      and\n      dup2\n      mstore\n      0x20\n      add\n      swap1\n      dup2\n      mstore\n      0x20\n      add\n      0x00\n      keccak256\n        /* \"contracts/Escrow.sol\":2310:2338  rollbackAddresses[to].length */\n      dup1\n      sload\n      swap1\n      pop\n        /* \"contracts/Escrow.sol\":2306:2307  i */\n      dup2\n        /* \"contracts/Escrow.sol\":2306:2338  i < rollbackAddresses[to].length */\n      lt\n        /* \"contracts/Escrow.sol\":2286:2497  for (uint256 i = 0; i < rollbackAddresses[to].length; i++) {\r... */\n      iszero\n      tag_46\n      jumpi\n        /* \"contracts/Escrow.sol\":2354:2366  address from */\n      0x00\n        /* \"contracts/Escrow.sol\":2369:2386  rollbackAddresses */\n      0x01\n        /* \"contracts/Escrow.sol\":2369:2390  rollbackAddresses[to] */\n      0x00\n        /* \"contracts/Escrow.sol\":2387:2389  to */\n      dup8\n        /* \"contracts/Escrow.sol\":2369:2390  rollbackAddresses[to] */\n      0xffffffffffffffffffffffffffffffffffffffff\n      and\n      0xffffffffffffffffffffffffffffffffffffffff\n      and\n      dup2\n      mstore\n      0x20\n      add\n      swap1\n      dup2\n      mstore\n      0x20\n      add\n      0x00\n      keccak256\n        /* \"contracts/Escrow.sol\":2391:2392  i */\n      dup3\n        /* \"contracts/Escrow.sol\":2369:2393  rollbackAddresses[to][i] */\n      dup2\n      sload\n      dup2\n      lt\n      tag_48\n      jumpi\n      tag_49\n      tag_50\n      jump\t// in\n    tag_49:\n    tag_48:\n      swap1\n      0x00\n      mstore\n      keccak256(0x00, 0x20)\n      add\n      0x00\n      swap1\n      sload\n      swap1\n      0x0100\n      exp\n      swap1\n      div\n      0xffffffffffffffffffffffffffffffffffffffff\n      and\n        /* \"contracts/Escrow.sol\":2354:2393  address from = rollbackAddresses[to][i] */\n      swap1\n      pop\n        /* \"contracts/Escrow.sol\":2414:2420  sender */\n      dup5\n        /* \"contracts/Escrow.sol\":2406:2420  from == sender */\n      0xffffffffffffffffffffffffffffffffffffffff\n      and\n        /* \"contracts/Escrow.sol\":2406:2410  from */\n      dup2\n        /* \"contracts/Escrow.sol\":2406:2420  from == sender */\n      0xffffffffffffffffffffffffffffffffffffffff\n      and\n      eq\n        /* \"contracts/Escrow.sol\":2402:2490  if (from == sender) {\r... */\n      iszero\n      tag_52\n      jumpi\n        /* \"contracts/Escrow.sol\":2440:2457  rollbackAddresses */\n      0x01\n        /* \"contracts/Escrow.sol\":2440:2461  rollbackAddresses[to] */\n      0x00\n        /* \"contracts/Escrow.sol\":2458:2460  to */\n      dup8\n        /* \"contracts/Escrow.sol\":2440:2461  rollbackAddresses[to] */\n      0xffffffffffffffffffffffffffffffffffffffff\n      and\n      0xffffffffffffffffffffffffffffffffffffffff\n      and\n      dup2\n      mstore\n      0x20\n      add\n      swap1\n      dup2\n      mstore\n      0x20\n      add\n      0x00\n      keccak256\n        /* \"contracts/Escrow.sol\":2462:2463  i */\n      dup3\n        /* \"contracts/Escrow.sol\":2440:2464  rollbackAddresses[to][i] */\n      dup2\n      sload\n      dup2\n      lt\n      tag_53\n      jumpi\n      tag_54\n      tag_50\n      jump\t// in\n    tag_54:\n    tag_53:\n      swap1\n      0x00\n      mstore\n      keccak256(0x00, 0x20)\n      add\n      0x00\n        /* \"contracts/Escrow.sol\":2433:2464  delete rollbackAddresses[to][i] */\n      0x0100\n      exp\n      dup2\n      sload\n      swap1\n      0xffffffffffffffffffffffffffffffffffffffff\n      mul\n      not\n      and\n      swap1\n      sstore\n        /* \"contracts/Escrow.sol\":2475:2480  break */\n      pop\n      jump(tag_46)\n        /* \"contracts/Escrow.sol\":2402:2490  if (from == sender) {\r... */\n    tag_52:\n        /* \"contracts/Escrow.sol\":2345:2497  {\r... */\n      pop\n        /* \"contracts/Escrow.sol\":2340:2343  i++ */\n      dup1\n      dup1\n      tag_56\n      swap1\n      tag_57\n      jump\t// in\n    tag_56:\n      swap2\n      pop\n      pop\n        /* \"contracts/Escrow.sol\":2286:2497  for (uint256 i = 0; i < rollbackAddresses[to].length; i++) {\r... */\n      jump(tag_45)\n    tag_46:\n      pop\n        /* \"contracts/Escrow.sol\":1776:2502  {\r... */\n      pop\n      pop\n      pop\n        /* \"contracts/Escrow.sol\":1716:2502  function rollbackEther(address payable to) external payable {\r... */\n      pop\n      jump\t// out\n        /* \"contracts/Escrow.sol\":747:1129  function sendEther(address payable to) external payable {\r... */\n    tag_24:\n        /* \"contracts/Escrow.sol\":810:822  address from */\n      0x00\n        /* \"contracts/Escrow.sol\":825:835  msg.sender */\n      caller\n        /* \"contracts/Escrow.sol\":810:835  address from = msg.sender */\n      swap1\n      pop\n        /* \"contracts/Escrow.sol\":842:855  uint256 value */\n      0x00\n        /* \"contracts/Escrow.sol\":858:867  msg.value */\n      callvalue\n        /* \"contracts/Escrow.sol\":842:867  uint256 value = msg.value */\n      swap1\n      pop\n        /* \"contracts/Escrow.sol\":897:902  value */\n      dup1\n        /* \"contracts/Escrow.sol\":874:889  receiverAddress */\n      0x00\n        /* \"contracts/Escrow.sol\":874:893  receiverAddress[to] */\n      dup1\n        /* \"contracts/Escrow.sol\":890:892  to */\n      dup6\n        /* \"contracts/Escrow.sol\":874:893  receiverAddress[to] */\n      0xffffffffffffffffffffffffffffffffffffffff\n      and\n      0xffffffffffffffffffffffffffffffffffffffff\n      and\n      dup2\n      mstore\n      0x20\n      add\n      swap1\n      dup2\n      mstore\n      0x20\n      add\n      0x00\n      keccak256\n      0x00\n        /* \"contracts/Escrow.sol\":874:902  receiverAddress[to] += value */\n      dup3\n      dup3\n      sload\n      tag_59\n      swap2\n      swap1\n      tag_60\n      jump\t// in\n    tag_59:\n      swap3\n      pop\n      pop\n      dup2\n      swap1\n      sstore\n      pop\n        /* \"contracts/Escrow.sol\":914:930  rollbackPossible */\n      0x02\n        /* \"contracts/Escrow.sol\":914:934  rollbackPossible[to] */\n      0x00\n        /* \"contracts/Escrow.sol\":931:933  to */\n      dup5\n        /* \"contracts/Escrow.sol\":914:934  rollbackPossible[to] */\n      0xffffffffffffffffffffffffffffffffffffffff\n      and\n      0xffffffffffffffffffffffffffffffffffffffff\n      and\n      dup2\n      mstore\n      0x20\n      add\n      swap1\n      dup2\n      mstore\n      0x20\n      add\n      0x00\n      keccak256\n        /* \"contracts/Escrow.sol\":914:940  rollbackPossible[to][from] */\n      0x00\n        /* \"contracts/Escrow.sol\":935:939  from */\n      dup4\n        /* \"contracts/Escrow.sol\":914:940  rollbackPossible[to][from] */\n      0xffffffffffffffffffffffffffffffffffffffff\n      and\n      0xffffffffffffffffffffffffffffffffffffffff\n      and\n      dup2\n      mstore\n      0x20\n      add\n      swap1\n      dup2\n      mstore\n      0x20\n      add\n      0x00\n      keccak256\n      0x00\n      swap1\n      sload\n      swap1\n      0x0100\n      exp\n      swap1\n      div\n      0xff\n      and\n        /* \"contracts/Escrow.sol\":909:969  if (!rollbackPossible[to][from]) rollbackValue[to][from] = 0 */\n      tag_61\n      jumpi\n        /* \"contracts/Escrow.sol\":968:969  0 */\n      0x00\n        /* \"contracts/Escrow.sol\":942:955  rollbackValue */\n      0x03\n        /* \"contracts/Escrow.sol\":942:959  rollbackValue[to] */\n      0x00\n        /* \"contracts/Escrow.sol\":956:958  to */\n      dup6\n        /* \"contracts/Escrow.sol\":942:959  rollbackValue[to] */\n      0xffffffffffffffffffffffffffffffffffffffff\n      and\n      0xffffffffffffffffffffffffffffffffffffffff\n      and\n      dup2\n      mstore\n      0x20\n      add\n      swap1\n      dup2\n      mstore\n      0x20\n      add\n      0x00\n      keccak256\n        /* \"contracts/Escrow.sol\":942:965  rollbackValue[to][from] */\n      0x00\n        /* \"contracts/Escrow.sol\":960:964  from */\n      dup5\n        /* \"contracts/Escrow.sol\":942:965  rollbackValue[to][from] */\n      0xffffffffffffffffffffffffffffffffffffffff\n      and\n      0xffffffffffffffffffffffffffffffffffffffff\n      and\n      dup2\n      mstore\n      0x20\n      add\n      swap1\n      dup2\n      mstore\n      0x20\n      add\n      0x00\n      keccak256\n        /* \"contracts/Escrow.sol\":942:969  rollbackValue[to][from] = 0 */\n      dup2\n      swap1\n      sstore\n      pop\n        /* \"contracts/Escrow.sol\":909:969  if (!rollbackPossible[to][from]) rollbackValue[to][from] = 0 */\n    tag_61:\n        /* \"contracts/Escrow.sol\":1003:1008  value */\n      dup1\n        /* \"contracts/Escrow.sol\":976:989  rollbackValue */\n      0x03\n        /* \"contracts/Escrow.sol\":976:993  rollbackValue[to] */\n      0x00\n        /* \"contracts/Escrow.sol\":990:992  to */\n      dup6\n        /* \"contracts/Escrow.sol\":976:993  rollbackValue[to] */\n      0xffffffffffffffffffffffffffffffffffffffff\n      and\n      0xffffffffffffffffffffffffffffffffffffffff\n      and\n      dup2\n      mstore\n      0x20\n      add\n      swap1\n      dup2\n      mstore\n      0x20\n      add\n      0x00\n      keccak256\n        /* \"contracts/Escrow.sol\":976:999  rollbackValue[to][from] */\n      0x00\n        /* \"contracts/Escrow.sol\":994:998  from */\n      dup5\n        /* \"contracts/Escrow.sol\":976:999  rollbackValue[to][from] */\n      0xffffffffffffffffffffffffffffffffffffffff\n      and\n      0xffffffffffffffffffffffffffffffffffffffff\n      and\n      dup2\n      mstore\n      0x20\n      add\n      swap1\n      dup2\n      mstore\n      0x20\n      add\n      0x00\n      keccak256\n      0x00\n        /* \"contracts/Escrow.sol\":976:1008  rollbackValue[to][from] += value */\n      dup3\n      dup3\n      sload\n      tag_62\n      swap2\n      swap1\n      tag_60\n      jump\t// in\n    tag_62:\n      swap3\n      pop\n      pop\n      dup2\n      swap1\n      sstore\n      pop\n        /* \"contracts/Escrow.sol\":1044:1048  true */\n      0x01\n        /* \"contracts/Escrow.sol\":1015:1031  rollbackPossible */\n      0x02\n        /* \"contracts/Escrow.sol\":1015:1035  rollbackPossible[to] */\n      0x00\n        /* \"contracts/Escrow.sol\":1032:1034  to */\n      dup6\n        /* \"contracts/Escrow.sol\":1015:1035  rollbackPossible[to] */\n      0xffffffffffffffffffffffffffffffffffffffff\n      and\n      0xffffffffffffffffffffffffffffffffffffffff\n      and\n      dup2\n      mstore\n      0x20\n      add\n      swap1\n      dup2\n      mstore\n      0x20\n      add\n      0x00\n      keccak256\n        /* \"contracts/Escrow.sol\":1015:1041  rollbackPossible[to][from] */\n      0x00\n        /* \"contracts/Escrow.sol\":1036:1040  from */\n      dup5\n        /* \"contracts/Escrow.sol\":1015:1041  rollbackPossible[to][from] */\n      0xffffffffffffffffffffffffffffffffffffffff\n      and\n      0xffffffffffffffffffffffffffffffffffffffff\n      and\n      dup2\n      mstore\n      0x20\n      add\n      swap1\n      dup2\n      mstore\n      0x20\n      add\n      0x00\n      keccak256\n      0x00\n        /* \"contracts/Escrow.sol\":1015:1048  rollbackPossible[to][from] = true */\n      0x0100\n      exp\n      dup2\n      sload\n      dup2\n      0xff\n      mul\n      not\n      and\n      swap1\n      dup4\n      iszero\n      iszero\n      mul\n      or\n      swap1\n      sstore\n      pop\n        /* \"contracts/Escrow.sol\":1055:1072  rollbackAddresses */\n      0x01\n        /* \"contracts/Escrow.sol\":1055:1076  rollbackAddresses[to] */\n      0x00\n        /* \"contracts/Escrow.sol\":1073:1075  to */\n      dup5\n        /* \"contracts/Escrow.sol\":1055:1076  rollbackAddresses[to] */\n      0xffffffffffffffffffffffffffffffffffffffff\n      and\n      0xffffffffffffffffffffffffffffffffffffffff\n      and\n      dup2\n      mstore\n      0x20\n      add\n      swap1\n      dup2\n      mstore\n      0x20\n      add\n      0x00\n      keccak256\n        /* \"contracts/Escrow.sol\":1082:1086  from */\n      dup3\n        /* \"contracts/Escrow.sol\":1055:1087  rollbackAddresses[to].push(from) */\n      swap1\n      dup1\n      0x01\n      dup2\n      sload\n      add\n      dup1\n      dup3\n      sstore\n      dup1\n      swap2\n      pop\n      pop\n      0x01\n      swap1\n      sub\n      swap1\n      0x00\n      mstore\n      keccak256(0x00, 0x20)\n      add\n      0x00\n      swap1\n      swap2\n      swap1\n      swap2\n      swap1\n      swap2\n      0x0100\n      exp\n      dup2\n      sload\n      dup2\n      0xffffffffffffffffffffffffffffffffffffffff\n      mul\n      not\n      and\n      swap1\n      dup4\n      0xffffffffffffffffffffffffffffffffffffffff\n      and\n      mul\n      or\n      swap1\n      sstore\n      pop\n        /* \"contracts/Escrow.sol\":1113:1115  to */\n      dup3\n        /* \"contracts/Escrow.sol\":1099:1123  LogSend(from, to, value) */\n      0xffffffffffffffffffffffffffffffffffffffff\n      and\n        /* \"contracts/Escrow.sol\":1107:1111  from */\n      dup3\n        /* \"contracts/Escrow.sol\":1099:1123  LogSend(from, to, value) */\n      0xffffffffffffffffffffffffffffffffffffffff\n      and\n      0xa343f361112b028dae2501770614271723be1d24c9f64fed2d4bd3ddf1c13e35\n        /* \"contracts/Escrow.sol\":1117:1122  value */\n      dup4\n        /* \"contracts/Escrow.sol\":1099:1123  LogSend(from, to, value) */\n      mload(0x40)\n      tag_64\n      swap2\n      swap1\n      tag_17\n      jump\t// in\n    tag_64:\n      mload(0x40)\n      dup1\n      swap2\n      sub\n      swap1\n      log3\n        /* \"contracts/Escrow.sol\":803:1129  {\r... */\n      pop\n      pop\n        /* \"contracts/Escrow.sol\":747:1129  function sendEther(address payable to) external payable {\r... */\n      pop\n      jump\t// out\n        /* \"contracts/Escrow.sol\":1135:1710  function withdrawEther() external payable {\r... */\n    tag_26:\n        /* \"contracts/Escrow.sol\":1184:1202  address payable to */\n      0x00\n        /* \"contracts/Escrow.sol\":1213:1223  msg.sender */\n      caller\n        /* \"contracts/Escrow.sol\":1184:1224  address payable to = payable(msg.sender) */\n      swap1\n      pop\n        /* \"contracts/Escrow.sol\":1231:1245  uint256 _value */\n      0x00\n        /* \"contracts/Escrow.sol\":1248:1263  receiverAddress */\n      dup1\n        /* \"contracts/Escrow.sol\":1248:1267  receiverAddress[to] */\n      0x00\n        /* \"contracts/Escrow.sol\":1264:1266  to */\n      dup4\n        /* \"contracts/Escrow.sol\":1248:1267  receiverAddress[to] */\n      0xffffffffffffffffffffffffffffffffffffffff\n      and\n      0xffffffffffffffffffffffffffffffffffffffff\n      and\n      dup2\n      mstore\n      0x20\n      add\n      swap1\n      dup2\n      mstore\n      0x20\n      add\n      0x00\n      keccak256\n      sload\n        /* \"contracts/Escrow.sol\":1231:1267  uint256 _value = receiverAddress[to] */\n      swap1\n      pop\n        /* \"contracts/Escrow.sol\":1292:1293  0 */\n      0x00\n        /* \"contracts/Escrow.sol\":1282:1288  _value */\n      dup2\n        /* \"contracts/Escrow.sol\":1282:1293  _value != 0 */\n      eq\n      iszero\n        /* \"contracts/Escrow.sol\":1274:1331  require(_value != 0, \"You don't have ethers sent to you\") */\n      tag_66\n      jumpi\n      mload(0x40)\n      0x08c379a000000000000000000000000000000000000000000000000000000000\n      dup2\n      mstore\n      0x04\n      add\n      tag_67\n      swap1\n      tag_68\n      jump\t// in\n    tag_67:\n      mload(0x40)\n      dup1\n      swap2\n      sub\n      swap1\n      revert\n    tag_66:\n        /* \"contracts/Escrow.sol\":1339:1348  bool sent */\n      0x00\n        /* \"contracts/Escrow.sol\":1354:1356  to */\n      dup3\n        /* \"contracts/Escrow.sol\":1354:1361  to.call */\n      0xffffffffffffffffffffffffffffffffffffffff\n      and\n        /* \"contracts/Escrow.sol\":1369:1375  _value */\n      dup3\n        /* \"contracts/Escrow.sol\":1354:1380  to.call{value: _value}(\"\") */\n      mload(0x40)\n      tag_69\n      swap1\n      tag_36\n      jump\t// in\n    tag_69:\n      0x00\n      mload(0x40)\n      dup1\n      dup4\n      sub\n      dup2\n      dup6\n      dup8\n      gas\n      call\n      swap3\n      pop\n      pop\n      pop\n      returndatasize\n      dup1\n      0x00\n      dup2\n      eq\n      tag_72\n      jumpi\n      mload(0x40)\n      swap2\n      pop\n      and(add(returndatasize, 0x3f), not(0x1f))\n      dup3\n      add\n      0x40\n      mstore\n      returndatasize\n      dup3\n      mstore\n      returndatasize\n      0x00\n      0x20\n      dup5\n      add\n      returndatacopy\n      jump(tag_71)\n    tag_72:\n      0x60\n      swap2\n      pop\n    tag_71:\n      pop\n        /* \"contracts/Escrow.sol\":1338:1380  (bool sent, ) = to.call{value: _value}(\"\") */\n      pop\n      swap1\n      pop\n        /* \"contracts/Escrow.sol\":1395:1399  sent */\n      dup1\n        /* \"contracts/Escrow.sol\":1387:1424  require(sent, \"Failed to send Ether\") */\n      tag_73\n      jumpi\n      mload(0x40)\n      0x08c379a000000000000000000000000000000000000000000000000000000000\n      dup2\n      mstore\n      0x04\n      add\n      tag_74\n      swap1\n      tag_42\n      jump\t// in\n    tag_74:\n      mload(0x40)\n      dup1\n      swap2\n      sub\n      swap1\n      revert\n    tag_73:\n        /* \"contracts/Escrow.sol\":1438:1453  receiverAddress */\n      0x00\n        /* \"contracts/Escrow.sol\":1438:1457  receiverAddress[to] */\n      dup1\n        /* \"contracts/Escrow.sol\":1454:1456  to */\n      dup5\n        /* \"contracts/Escrow.sol\":1438:1457  receiverAddress[to] */\n      0xffffffffffffffffffffffffffffffffffffffff\n      and\n      0xffffffffffffffffffffffffffffffffffffffff\n      and\n      dup2\n      mstore\n      0x20\n      add\n      swap1\n      dup2\n      mstore\n      0x20\n      add\n      0x00\n      keccak256\n        /* \"contracts/Escrow.sol\":1431:1457  delete receiverAddress[to] */\n      0x00\n      swap1\n      sstore\n        /* \"contracts/Escrow.sol\":1469:1478  uint256 i */\n      0x00\n        /* \"contracts/Escrow.sol\":1464:1662  for (uint256 i = 0; i < rollbackAddresses[to].length; i++) {\r... */\n    tag_75:\n        /* \"contracts/Escrow.sol\":1488:1505  rollbackAddresses */\n      0x01\n        /* \"contracts/Escrow.sol\":1488:1509  rollbackAddresses[to] */\n      0x00\n        /* \"contracts/Escrow.sol\":1506:1508  to */\n      dup6\n        /* \"contracts/Escrow.sol\":1488:1509  rollbackAddresses[to] */\n      0xffffffffffffffffffffffffffffffffffffffff\n      and\n      0xffffffffffffffffffffffffffffffffffffffff\n      and\n      dup2\n      mstore\n      0x20\n      add\n      swap1\n      dup2\n      mstore\n      0x20\n      add\n      0x00\n      keccak256\n        /* \"contracts/Escrow.sol\":1488:1516  rollbackAddresses[to].length */\n      dup1\n      sload\n      swap1\n      pop\n        /* \"contracts/Escrow.sol\":1484:1485  i */\n      dup2\n        /* \"contracts/Escrow.sol\":1484:1516  i < rollbackAddresses[to].length */\n      lt\n        /* \"contracts/Escrow.sol\":1464:1662  for (uint256 i = 0; i < rollbackAddresses[to].length; i++) {\r... */\n      iszero\n      tag_76\n      jumpi\n        /* \"contracts/Escrow.sol\":1532:1544  address from */\n      0x00\n        /* \"contracts/Escrow.sol\":1547:1564  rollbackAddresses */\n      0x01\n        /* \"contracts/Escrow.sol\":1547:1568  rollbackAddresses[to] */\n      0x00\n        /* \"contracts/Escrow.sol\":1565:1567  to */\n      dup7\n        /* \"contracts/Escrow.sol\":1547:1568  rollbackAddresses[to] */\n      0xffffffffffffffffffffffffffffffffffffffff\n      and\n      0xffffffffffffffffffffffffffffffffffffffff\n      and\n      dup2\n      mstore\n      0x20\n      add\n      swap1\n      dup2\n      mstore\n      0x20\n      add\n      0x00\n      keccak256\n        /* \"contracts/Escrow.sol\":1569:1570  i */\n      dup3\n        /* \"contracts/Escrow.sol\":1547:1571  rollbackAddresses[to][i] */\n      dup2\n      sload\n      dup2\n      lt\n      tag_78\n      jumpi\n      tag_79\n      tag_50\n      jump\t// in\n    tag_79:\n    tag_78:\n      swap1\n      0x00\n      mstore\n      keccak256(0x00, 0x20)\n      add\n      0x00\n      swap1\n      sload\n      swap1\n      0x0100\n      exp\n      swap1\n      div\n      0xffffffffffffffffffffffffffffffffffffffff\n      and\n        /* \"contracts/Escrow.sol\":1532:1571  address from = rollbackAddresses[to][i] */\n      swap1\n      pop\n        /* \"contracts/Escrow.sol\":1609:1614  false */\n      0x00\n        /* \"contracts/Escrow.sol\":1580:1596  rollbackPossible */\n      0x02\n        /* \"contracts/Escrow.sol\":1580:1600  rollbackPossible[to] */\n      0x00\n        /* \"contracts/Escrow.sol\":1597:1599  to */\n      dup8\n        /* \"contracts/Escrow.sol\":1580:1600  rollbackPossible[to] */\n      0xffffffffffffffffffffffffffffffffffffffff\n      and\n      0xffffffffffffffffffffffffffffffffffffffff\n      and\n      dup2\n      mstore\n      0x20\n      add\n      swap1\n      dup2\n      mstore\n      0x20\n      add\n      0x00\n      keccak256\n        /* \"contracts/Escrow.sol\":1580:1606  rollbackPossible[to][from] */\n      0x00\n        /* \"contracts/Escrow.sol\":1601:1605  from */\n      dup4\n        /* \"contracts/Escrow.sol\":1580:1606  rollbackPossible[to][from] */\n      0xffffffffffffffffffffffffffffffffffffffff\n      and\n      0xffffffffffffffffffffffffffffffffffffffff\n      and\n      dup2\n      mstore\n      0x20\n      add\n      swap1\n      dup2\n      mstore\n      0x20\n      add\n      0x00\n      keccak256\n      0x00\n        /* \"contracts/Escrow.sol\":1580:1614  rollbackPossible[to][from] = false */\n      0x0100\n      exp\n      dup2\n      sload\n      dup2\n      0xff\n      mul\n      not\n      and\n      swap1\n      dup4\n      iszero\n      iszero\n      mul\n      or\n      swap1\n      sstore\n      pop\n        /* \"contracts/Escrow.sol\":1630:1647  rollbackAddresses */\n      0x01\n        /* \"contracts/Escrow.sol\":1630:1651  rollbackAddresses[to] */\n      0x00\n        /* \"contracts/Escrow.sol\":1648:1650  to */\n      dup7\n        /* \"contracts/Escrow.sol\":1630:1651  rollbackAddresses[to] */\n      0xffffffffffffffffffffffffffffffffffffffff\n      and\n      0xffffffffffffffffffffffffffffffffffffffff\n      and\n      dup2\n      mstore\n      0x20\n      add\n      swap1\n      dup2\n      mstore\n      0x20\n      add\n      0x00\n      keccak256\n        /* \"contracts/Escrow.sol\":1652:1653  i */\n      dup3\n        /* \"contracts/Escrow.sol\":1630:1654  rollbackAddresses[to][i] */\n      dup2\n      sload\n      dup2\n      lt\n      tag_81\n      jumpi\n      tag_82\n      tag_50\n      jump\t// in\n    tag_82:\n    tag_81:\n      swap1\n      0x00\n      mstore\n      keccak256(0x00, 0x20)\n      add\n      0x00\n        /* \"contracts/Escrow.sol\":1623:1654  delete rollbackAddresses[to][i] */\n      0x0100\n      exp\n      dup2\n      sload\n      swap1\n      0xffffffffffffffffffffffffffffffffffffffff\n      mul\n      not\n      and\n      swap1\n      sstore\n        /* \"contracts/Escrow.sol\":1523:1662  {\r... */\n      pop\n        /* \"contracts/Escrow.sol\":1518:1521  i++ */\n      dup1\n      dup1\n      tag_84\n      swap1\n      tag_57\n      jump\t// in\n    tag_84:\n      swap2\n      pop\n      pop\n        /* \"contracts/Escrow.sol\":1464:1662  for (uint256 i = 0; i < rollbackAddresses[to].length; i++) {\r... */\n      jump(tag_75)\n    tag_76:\n      pop\n        /* \"contracts/Escrow.sol\":1685:1695  msg.sender */\n      caller\n        /* \"contracts/Escrow.sol\":1673:1704  LogWithDraw(msg.sender, _value) */\n      0xffffffffffffffffffffffffffffffffffffffff\n      and\n      0xa74fab966bfc29d4ea7866d609ac5d94324a5fe817362d6a9fee5d2f8df46759\n        /* \"contracts/Escrow.sol\":1697:1703  _value */\n      dup4\n        /* \"contracts/Escrow.sol\":1673:1704  LogWithDraw(msg.sender, _value) */\n      mload(0x40)\n      tag_85\n      swap2\n      swap1\n      tag_17\n      jump\t// in\n    tag_85:\n      mload(0x40)\n      dup1\n      swap2\n      sub\n      swap1\n      log2\n        /* \"contracts/Escrow.sol\":1177:1710  {\r... */\n      pop\n      pop\n      pop\n        /* \"contracts/Escrow.sol\":1135:1710  function withdrawEther() external payable {\r... */\n      jump\t// out\n        /* \"#utility.yul\":7:162   */\n    tag_87:\n        /* \"#utility.yul\":61:66   */\n      0x00\n        /* \"#utility.yul\":99:105   */\n      dup2\n        /* \"#utility.yul\":86:106   */\n      calldataload\n        /* \"#utility.yul\":77:106   */\n      swap1\n      pop\n        /* \"#utility.yul\":115:156   */\n      tag_89\n        /* \"#utility.yul\":150:155   */\n      dup2\n        /* \"#utility.yul\":115:156   */\n      tag_90\n      jump\t// in\n    tag_89:\n        /* \"#utility.yul\":7:162   */\n      swap3\n      swap2\n      pop\n      pop\n      jump\t// out\n        /* \"#utility.yul\":168:513   */\n    tag_20:\n        /* \"#utility.yul\":235:241   */\n      0x00\n        /* \"#utility.yul\":284:286   */\n      0x20\n        /* \"#utility.yul\":272:281   */\n      dup3\n        /* \"#utility.yul\":263:270   */\n      dup5\n        /* \"#utility.yul\":259:282   */\n      sub\n        /* \"#utility.yul\":255:287   */\n      slt\n        /* \"#utility.yul\":252:371   */\n      iszero\n      tag_92\n      jumpi\n        /* \"#utility.yul\":290:369   */\n      tag_93\n      tag_94\n      jump\t// in\n    tag_93:\n        /* \"#utility.yul\":252:371   */\n    tag_92:\n        /* \"#utility.yul\":410:411   */\n      0x00\n        /* \"#utility.yul\":435:496   */\n      tag_95\n        /* \"#utility.yul\":488:495   */\n      dup5\n        /* \"#utility.yul\":479:485   */\n      dup3\n        /* \"#utility.yul\":468:477   */\n      dup6\n        /* \"#utility.yul\":464:486   */\n      add\n        /* \"#utility.yul\":435:496   */\n      tag_87\n      jump\t// in\n    tag_95:\n        /* \"#utility.yul\":425:496   */\n      swap2\n      pop\n        /* \"#utility.yul\":381:506   */\n      pop\n        /* \"#utility.yul\":168:513   */\n      swap3\n      swap2\n      pop\n      pop\n      jump\t// out\n        /* \"#utility.yul\":519:885   */\n    tag_96:\n        /* \"#utility.yul\":661:664   */\n      0x00\n        /* \"#utility.yul\":682:749   */\n      tag_98\n        /* \"#utility.yul\":746:748   */\n      0x1f\n        /* \"#utility.yul\":741:744   */\n      dup4\n        /* \"#utility.yul\":682:749   */\n      tag_99\n      jump\t// in\n    tag_98:\n        /* \"#utility.yul\":675:749   */\n      swap2\n      pop\n        /* \"#utility.yul\":758:851   */\n      tag_100\n        /* \"#utility.yul\":847:850   */\n      dup3\n        /* \"#utility.yul\":758:851   */\n      tag_101\n      jump\t// in\n    tag_100:\n        /* \"#utility.yul\":876:878   */\n      0x20\n        /* \"#utility.yul\":871:874   */\n      dup3\n        /* \"#utility.yul\":867:879   */\n      add\n        /* \"#utility.yul\":860:879   */\n      swap1\n      pop\n        /* \"#utility.yul\":519:885   */\n      swap2\n      swap1\n      pop\n      jump\t// out\n        /* \"#utility.yul\":891:1257   */\n    tag_102:\n        /* \"#utility.yul\":1033:1036   */\n      0x00\n        /* \"#utility.yul\":1054:1121   */\n      tag_104\n        /* \"#utility.yul\":1118:1120   */\n      0x14\n        /* \"#utility.yul\":1113:1116   */\n      dup4\n        /* \"#utility.yul\":1054:1121   */\n      tag_99\n      jump\t// in\n    tag_104:\n        /* \"#utility.yul\":1047:1121   */\n      swap2\n      pop\n        /* \"#utility.yul\":1130:1223   */\n      tag_105\n        /* \"#utility.yul\":1219:1222   */\n      dup3\n        /* \"#utility.yul\":1130:1223   */\n      tag_106\n      jump\t// in\n    tag_105:\n        /* \"#utility.yul\":1248:1250   */\n      0x20\n        /* \"#utility.yul\":1243:1246   */\n      dup3\n        /* \"#utility.yul\":1239:1251   */\n      add\n        /* \"#utility.yul\":1232:1251   */\n      swap1\n      pop\n        /* \"#utility.yul\":891:1257   */\n      swap2\n      swap1\n      pop\n      jump\t// out\n        /* \"#utility.yul\":1263:1629   */\n    tag_107:\n        /* \"#utility.yul\":1405:1408   */\n      0x00\n        /* \"#utility.yul\":1426:1493   */\n      tag_109\n        /* \"#utility.yul\":1490:1492   */\n      0x21\n        /* \"#utility.yul\":1485:1488   */\n      dup4\n        /* \"#utility.yul\":1426:1493   */\n      tag_99\n      jump\t// in\n    tag_109:\n        /* \"#utility.yul\":1419:1493   */\n      swap2\n      pop\n        /* \"#utility.yul\":1502:1595   */\n      tag_110\n        /* \"#utility.yul\":1591:1594   */\n      dup3\n        /* \"#utility.yul\":1502:1595   */\n      tag_111\n      jump\t// in\n    tag_110:\n        /* \"#utility.yul\":1620:1622   */\n      0x40\n        /* \"#utility.yul\":1615:1618   */\n      dup3\n        /* \"#utility.yul\":1611:1623   */\n      add\n        /* \"#utility.yul\":1604:1623   */\n      swap1\n      pop\n        /* \"#utility.yul\":1263:1629   */\n      swap2\n      swap1\n      pop\n      jump\t// out\n        /* \"#utility.yul\":1635:2001   */\n    tag_112:\n        /* \"#utility.yul\":1777:1780   */\n      0x00\n        /* \"#utility.yul\":1798:1865   */\n      tag_114\n        /* \"#utility.yul\":1862:1864   */\n      0x45\n        /* \"#utility.yul\":1857:1860   */\n      dup4\n        /* \"#utility.yul\":1798:1865   */\n      tag_99\n      jump\t// in\n    tag_114:\n        /* \"#utility.yul\":1791:1865   */\n      swap2\n      pop\n        /* \"#utility.yul\":1874:1967   */\n      tag_115\n        /* \"#utility.yul\":1963:1966   */\n      dup3\n        /* \"#utility.yul\":1874:1967   */\n      tag_116\n      jump\t// in\n    tag_115:\n        /* \"#utility.yul\":1992:1994   */\n      0x60\n        /* \"#utility.yul\":1987:1990   */\n      dup3\n        /* \"#utility.yul\":1983:1995   */\n      add\n        /* \"#utility.yul\":1976:1995   */\n      swap1\n      pop\n        /* \"#utility.yul\":1635:2001   */\n      swap2\n      swap1\n      pop\n      jump\t// out\n        /* \"#utility.yul\":2007:2405   */\n    tag_117:\n        /* \"#utility.yul\":2166:2169   */\n      0x00\n        /* \"#utility.yul\":2187:2270   */\n      tag_119\n        /* \"#utility.yul\":2268:2269   */\n      0x00\n        /* \"#utility.yul\":2263:2266   */\n      dup4\n        /* \"#utility.yul\":2187:2270   */\n      tag_120\n      jump\t// in\n    tag_119:\n        /* \"#utility.yul\":2180:2270   */\n      swap2\n      pop\n        /* \"#utility.yul\":2279:2372   */\n      tag_121\n        /* \"#utility.yul\":2368:2371   */\n      dup3\n        /* \"#utility.yul\":2279:2372   */\n      tag_122\n      jump\t// in\n    tag_121:\n        /* \"#utility.yul\":2397:2398   */\n      0x00\n        /* \"#utility.yul\":2392:2395   */\n      dup3\n        /* \"#utility.yul\":2388:2399   */\n      add\n        /* \"#utility.yul\":2381:2399   */\n      swap1\n      pop\n        /* \"#utility.yul\":2007:2405   */\n      swap2\n      swap1\n      pop\n      jump\t// out\n        /* \"#utility.yul\":2411:2777   */\n    tag_123:\n        /* \"#utility.yul\":2553:2556   */\n      0x00\n        /* \"#utility.yul\":2574:2641   */\n      tag_125\n        /* \"#utility.yul\":2638:2640   */\n      0x13\n        /* \"#utility.yul\":2633:2636   */\n      dup4\n        /* \"#utility.yul\":2574:2641   */\n      tag_99\n      jump\t// in\n    tag_125:\n        /* \"#utility.yul\":2567:2641   */\n      swap2\n      pop\n        /* \"#utility.yul\":2650:2743   */\n      tag_126\n        /* \"#utility.yul\":2739:2742   */\n      dup3\n        /* \"#utility.yul\":2650:2743   */\n      tag_127\n      jump\t// in\n    tag_126:\n        /* \"#utility.yul\":2768:2770   */\n      0x20\n        /* \"#utility.yul\":2763:2766   */\n      dup3\n        /* \"#utility.yul\":2759:2771   */\n      add\n        /* \"#utility.yul\":2752:2771   */\n      swap1\n      pop\n        /* \"#utility.yul\":2411:2777   */\n      swap2\n      swap1\n      pop\n      jump\t// out\n        /* \"#utility.yul\":2783:2901   */\n    tag_128:\n        /* \"#utility.yul\":2870:2894   */\n      tag_130\n        /* \"#utility.yul\":2888:2893   */\n      dup2\n        /* \"#utility.yul\":2870:2894   */\n      tag_131\n      jump\t// in\n    tag_130:\n        /* \"#utility.yul\":2865:2868   */\n      dup3\n        /* \"#utility.yul\":2858:2895   */\n      mstore\n        /* \"#utility.yul\":2783:2901   */\n      pop\n      pop\n      jump\t// out\n        /* \"#utility.yul\":2907:3286   */\n    tag_36:\n        /* \"#utility.yul\":3091:3094   */\n      0x00\n        /* \"#utility.yul\":3113:3260   */\n      tag_133\n        /* \"#utility.yul\":3256:3259   */\n      dup3\n        /* \"#utility.yul\":3113:3260   */\n      tag_117\n      jump\t// in\n    tag_133:\n        /* \"#utility.yul\":3106:3260   */\n      swap2\n      pop\n        /* \"#utility.yul\":3277:3280   */\n      dup2\n        /* \"#utility.yul\":3270:3280   */\n      swap1\n      pop\n        /* \"#utility.yul\":2907:3286   */\n      swap2\n      swap1\n      pop\n      jump\t// out\n        /* \"#utility.yul\":3292:3711   */\n    tag_12:\n        /* \"#utility.yul\":3458:3462   */\n      0x00\n        /* \"#utility.yul\":3496:3498   */\n      0x20\n        /* \"#utility.yul\":3485:3494   */\n      dup3\n        /* \"#utility.yul\":3481:3499   */\n      add\n        /* \"#utility.yul\":3473:3499   */\n      swap1\n      pop\n        /* \"#utility.yul\":3545:3554   */\n      dup2\n        /* \"#utility.yul\":3539:3543   */\n      dup2\n        /* \"#utility.yul\":3535:3555   */\n      sub\n        /* \"#utility.yul\":3531:3532   */\n      0x00\n        /* \"#utility.yul\":3520:3529   */\n      dup4\n        /* \"#utility.yul\":3516:3533   */\n      add\n        /* \"#utility.yul\":3509:3556   */\n      mstore\n        /* \"#utility.yul\":3573:3704   */\n      tag_135\n        /* \"#utility.yul\":3699:3703   */\n      dup2\n        /* \"#utility.yul\":3573:3704   */\n      tag_96\n      jump\t// in\n    tag_135:\n        /* \"#utility.yul\":3565:3704   */\n      swap1\n      pop\n        /* \"#utility.yul\":3292:3711   */\n      swap2\n      swap1\n      pop\n      jump\t// out\n        /* \"#utility.yul\":3717:4136   */\n    tag_42:\n        /* \"#utility.yul\":3883:3887   */\n      0x00\n        /* \"#utility.yul\":3921:3923   */\n      0x20\n        /* \"#utility.yul\":3910:3919   */\n      dup3\n        /* \"#utility.yul\":3906:3924   */\n      add\n        /* \"#utility.yul\":3898:3924   */\n      swap1\n      pop\n        /* \"#utility.yul\":3970:3979   */\n      dup2\n        /* \"#utility.yul\":3964:3968   */\n      dup2\n        /* \"#utility.yul\":3960:3980   */\n      sub\n        /* \"#utility.yul\":3956:3957   */\n      0x00\n        /* \"#utility.yul\":3945:3954   */\n      dup4\n        /* \"#utility.yul\":3941:3958   */\n      add\n        /* \"#utility.yul\":3934:3981   */\n      mstore\n        /* \"#utility.yul\":3998:4129   */\n      tag_137\n        /* \"#utility.yul\":4124:4128   */\n      dup2\n        /* \"#utility.yul\":3998:4129   */\n      tag_102\n      jump\t// in\n    tag_137:\n        /* \"#utility.yul\":3990:4129   */\n      swap1\n      pop\n        /* \"#utility.yul\":3717:4136   */\n      swap2\n      swap1\n      pop\n      jump\t// out\n        /* \"#utility.yul\":4142:4561   */\n    tag_68:\n        /* \"#utility.yul\":4308:4312   */\n      0x00\n        /* \"#utility.yul\":4346:4348   */\n      0x20\n        /* \"#utility.yul\":4335:4344   */\n      dup3\n        /* \"#utility.yul\":4331:4349   */\n      add\n        /* \"#utility.yul\":4323:4349   */\n      swap1\n      pop\n        /* \"#utility.yul\":4395:4404   */\n      dup2\n        /* \"#utility.yul\":4389:4393   */\n      dup2\n        /* \"#utility.yul\":4385:4405   */\n      sub\n        /* \"#utility.yul\":4381:4382   */\n      0x00\n        /* \"#utility.yul\":4370:4379   */\n      dup4\n        /* \"#utility.yul\":4366:4383   */\n      add\n        /* \"#utility.yul\":4359:4406   */\n      mstore\n        /* \"#utility.yul\":4423:4554   */\n      tag_139\n        /* \"#utility.yul\":4549:4553   */\n      dup2\n        /* \"#utility.yul\":4423:4554   */\n      tag_107\n      jump\t// in\n    tag_139:\n        /* \"#utility.yul\":4415:4554   */\n      swap1\n      pop\n        /* \"#utility.yul\":4142:4561   */\n      swap2\n      swap1\n      pop\n      jump\t// out\n        /* \"#utility.yul\":4567:4986   */\n    tag_31:\n        /* \"#utility.yul\":4733:4737   */\n      0x00\n        /* \"#utility.yul\":4771:4773   */\n      0x20\n        /* \"#utility.yul\":4760:4769   */\n      dup3\n        /* \"#utility.yul\":4756:4774   */\n      add\n        /* \"#utility.yul\":4748:4774   */\n      swap1\n      pop\n        /* \"#utility.yul\":4820:4829   */\n      dup2\n        /* \"#utility.yul\":4814:4818   */\n      dup2\n        /* \"#utility.yul\":4810:4830   */\n      sub\n        /* \"#utility.yul\":4806:4807   */\n      0x00\n        /* \"#utility.yul\":4795:4804   */\n      dup4\n        /* \"#utility.yul\":4791:4808   */\n      add\n        /* \"#utility.yul\":4784:4831   */\n      mstore\n        /* \"#utility.yul\":4848:4979   */\n      tag_141\n        /* \"#utility.yul\":4974:4978   */\n      dup2\n        /* \"#utility.yul\":4848:4979   */\n      tag_112\n      jump\t// in\n    tag_141:\n        /* \"#utility.yul\":4840:4979   */\n      swap1\n      pop\n        /* \"#utility.yul\":4567:4986   */\n      swap2\n      swap1\n      pop\n      jump\t// out\n        /* \"#utility.yul\":4992:5411   */\n    tag_34:\n        /* \"#utility.yul\":5158:5162   */\n      0x00\n        /* \"#utility.yul\":5196:5198   */\n      0x20\n        /* \"#utility.yul\":5185:5194   */\n      dup3\n        /* \"#utility.yul\":5181:5199   */\n      add\n        /* \"#utility.yul\":5173:5199   */\n      swap1\n      pop\n        /* \"#utility.yul\":5245:5254   */\n      dup2\n        /* \"#utility.yul\":5239:5243   */\n      dup2\n        /* \"#utility.yul\":5235:5255   */\n      sub\n        /* \"#utility.yul\":5231:5232   */\n      0x00\n        /* \"#utility.yul\":5220:5229   */\n      dup4\n        /* \"#utility.yul\":5216:5233   */\n      add\n        /* \"#utility.yul\":5209:5256   */\n      mstore\n        /* \"#utility.yul\":5273:5404   */\n      tag_143\n        /* \"#utility.yul\":5399:5403   */\n      dup2\n        /* \"#utility.yul\":5273:5404   */\n      tag_123\n      jump\t// in\n    tag_143:\n        /* \"#utility.yul\":5265:5404   */\n      swap1\n      pop\n        /* \"#utility.yul\":4992:5411   */\n      swap2\n      swap1\n      pop\n      jump\t// out\n        /* \"#utility.yul\":5417:5639   */\n    tag_17:\n        /* \"#utility.yul\":5510:5514   */\n      0x00\n        /* \"#utility.yul\":5548:5550   */\n      0x20\n        /* \"#utility.yul\":5537:5546   */\n      dup3\n        /* \"#utility.yul\":5533:5551   */\n      add\n        /* \"#utility.yul\":5525:5551   */\n      swap1\n      pop\n        /* \"#utility.yul\":5561:5632   */\n      tag_145\n        /* \"#utility.yul\":5629:5630   */\n      0x00\n        /* \"#utility.yul\":5618:5627   */\n      dup4\n        /* \"#utility.yul\":5614:5631   */\n      add\n        /* \"#utility.yul\":5605:5611   */\n      dup5\n        /* \"#utility.yul\":5561:5632   */\n      tag_128\n      jump\t// in\n    tag_145:\n        /* \"#utility.yul\":5417:5639   */\n      swap3\n      swap2\n      pop\n      pop\n      jump\t// out\n        /* \"#utility.yul\":5726:5873   */\n    tag_120:\n        /* \"#utility.yul\":5827:5838   */\n      0x00\n        /* \"#utility.yul\":5864:5867   */\n      dup2\n        /* \"#utility.yul\":5849:5867   */\n      swap1\n      pop\n        /* \"#utility.yul\":5726:5873   */\n      swap3\n      swap2\n      pop\n      pop\n      jump\t// out\n        /* \"#utility.yul\":5879:6048   */\n    tag_99:\n        /* \"#utility.yul\":5963:5974   */\n      0x00\n        /* \"#utility.yul\":5997:6003   */\n      dup3\n        /* \"#utility.yul\":5992:5995   */\n      dup3\n        /* \"#utility.yul\":5985:6004   */\n      mstore\n        /* \"#utility.yul\":6037:6041   */\n      0x20\n        /* \"#utility.yul\":6032:6035   */\n      dup3\n        /* \"#utility.yul\":6028:6042   */\n      add\n        /* \"#utility.yul\":6013:6042   */\n      swap1\n      pop\n        /* \"#utility.yul\":5879:6048   */\n      swap3\n      swap2\n      pop\n      pop\n      jump\t// out\n        /* \"#utility.yul\":6054:6359   */\n    tag_60:\n        /* \"#utility.yul\":6094:6097   */\n      0x00\n        /* \"#utility.yul\":6113:6133   */\n      tag_151\n        /* \"#utility.yul\":6131:6132   */\n      dup3\n        /* \"#utility.yul\":6113:6133   */\n      tag_131\n      jump\t// in\n    tag_151:\n        /* \"#utility.yul\":6108:6133   */\n      swap2\n      pop\n        /* \"#utility.yul\":6147:6167   */\n      tag_152\n        /* \"#utility.yul\":6165:6166   */\n      dup4\n        /* \"#utility.yul\":6147:6167   */\n      tag_131\n      jump\t// in\n    tag_152:\n        /* \"#utility.yul\":6142:6167   */\n      swap3\n      pop\n        /* \"#utility.yul\":6301:6302   */\n      dup3\n        /* \"#utility.yul\":6233:6299   */\n      0xffffffffffffffffffffffffffffffffffffffffffffffffffffffffffffffff\n        /* \"#utility.yul\":6229:6303   */\n      sub\n        /* \"#utility.yul\":6226:6227   */\n      dup3\n        /* \"#utility.yul\":6223:6304   */\n      gt\n        /* \"#utility.yul\":6220:6327   */\n      iszero\n      tag_153\n      jumpi\n        /* \"#utility.yul\":6307:6325   */\n      tag_154\n      tag_155\n      jump\t// in\n    tag_154:\n        /* \"#utility.yul\":6220:6327   */\n    tag_153:\n        /* \"#utility.yul\":6351:6352   */\n      dup3\n        /* \"#utility.yul\":6348:6349   */\n      dup3\n        /* \"#utility.yul\":6344:6353   */\n      add\n        /* \"#utility.yul\":6337:6353   */\n      swap1\n      pop\n        /* \"#utility.yul\":6054:6359   */\n      swap3\n      swap2\n      pop\n      pop\n      jump\t// out\n        /* \"#utility.yul\":6365:6556   */\n    tag_44:\n        /* \"#utility.yul\":6405:6409   */\n      0x00\n        /* \"#utility.yul\":6425:6445   */\n      tag_157\n        /* \"#utility.yul\":6443:6444   */\n      dup3\n        /* \"#utility.yul\":6425:6445   */\n      tag_131\n      jump\t// in\n    tag_157:\n        /* \"#utility.yul\":6420:6445   */\n      swap2\n      pop\n        /* \"#utility.yul\":6459:6479   */\n      tag_158\n        /* \"#utility.yul\":6477:6478   */\n      dup4\n        /* \"#utility.yul\":6459:6479   */\n      tag_131\n      jump\t// in\n    tag_158:\n        /* \"#utility.yul\":6454:6479   */\n      swap3\n      pop\n        /* \"#utility.yul\":6498:6499   */\n      dup3\n        /* \"#utility.yul\":6495:6496   */\n      dup3\n        /* \"#utility.yul\":6492:6500   */\n      lt\n        /* \"#utility.yul\":6489:6523   */\n      iszero\n      tag_159\n      jumpi\n        /* \"#utility.yul\":6503:6521   */\n      tag_160\n      tag_155\n      jump\t// in\n    tag_160:\n        /* \"#utility.yul\":6489:6523   */\n    tag_159:\n        /* \"#utility.yul\":6548:6549   */\n      dup3\n        /* \"#utility.yul\":6545:6546   */\n      dup3\n        /* \"#utility.yul\":6541:6550   */\n      sub\n        /* \"#utility.yul\":6533:6550   */\n      swap1\n      pop\n        /* \"#utility.yul\":6365:6556   */\n      swap3\n      swap2\n      pop\n      pop\n      jump\t// out\n        /* \"#utility.yul\":6562:6666   */\n    tag_161:\n        /* \"#utility.yul\":6607:6614   */\n      0x00\n        /* \"#utility.yul\":6636:6660   */\n      tag_163\n        /* \"#utility.yul\":6654:6659   */\n      dup3\n        /* \"#utility.yul\":6636:6660   */\n      tag_164\n      jump\t// in\n    tag_163:\n        /* \"#utility.yul\":6625:6660   */\n      swap1\n      pop\n        /* \"#utility.yul\":6562:6666   */\n      swap2\n      swap1\n      pop\n      jump\t// out\n        /* \"#utility.yul\":6672:6798   */\n    tag_164:\n        /* \"#utility.yul\":6709:6716   */\n      0x00\n        /* \"#utility.yul\":6749:6791   */\n      0xffffffffffffffffffffffffffffffffffffffff\n        /* \"#utility.yul\":6742:6747   */\n      dup3\n        /* \"#utility.yul\":6738:6792   */\n      and\n        /* \"#utility.yul\":6727:6792   */\n      swap1\n      pop\n        /* \"#utility.yul\":6672:6798   */\n      swap2\n      swap1\n      pop\n      jump\t// out\n        /* \"#utility.yul\":6804:6881   */\n    tag_131:\n        /* \"#utility.yul\":6841:6848   */\n      0x00\n        /* \"#utility.yul\":6870:6875   */\n      dup2\n        /* \"#utility.yul\":6859:6875   */\n      swap1\n      pop\n        /* \"#utility.yul\":6804:6881   */\n      swap2\n      swap1\n      pop\n      jump\t// out\n        /* \"#utility.yul\":6887:7120   */\n    tag_57:\n        /* \"#utility.yul\":6926:6929   */\n      0x00\n        /* \"#utility.yul\":6949:6973   */\n      tag_168\n        /* \"#utility.yul\":6967:6972   */\n      dup3\n        /* \"#utility.yul\":6949:6973   */\n      tag_131\n      jump\t// in\n    tag_168:\n        /* \"#utility.yul\":6940:6973   */\n      swap2\n      pop\n        /* \"#utility.yul\":6995:7061   */\n      0xffffffffffffffffffffffffffffffffffffffffffffffffffffffffffffffff\n        /* \"#utility.yul\":6988:6993   */\n      dup3\n        /* \"#utility.yul\":6985:7062   */\n      eq\n        /* \"#utility.yul\":6982:7085   */\n      iszero\n      tag_169\n      jumpi\n        /* \"#utility.yul\":7065:7083   */\n      tag_170\n      tag_155\n      jump\t// in\n    tag_170:\n        /* \"#utility.yul\":6982:7085   */\n    tag_169:\n        /* \"#utility.yul\":7112:7113   */\n      0x01\n        /* \"#utility.yul\":7105:7110   */\n      dup3\n        /* \"#utility.yul\":7101:7114   */\n      add\n        /* \"#utility.yul\":7094:7114   */\n      swap1\n      pop\n        /* \"#utility.yul\":6887:7120   */\n      swap2\n      swap1\n      pop\n      jump\t// out\n        /* \"#utility.yul\":7126:7306   */\n    tag_155:\n        /* \"#utility.yul\":7174:7251   */\n      0x4e487b7100000000000000000000000000000000000000000000000000000000\n        /* \"#utility.yul\":7171:7172   */\n      0x00\n        /* \"#utility.yul\":7164:7252   */\n      mstore\n        /* \"#utility.yul\":7271:7275   */\n      0x11\n        /* \"#utility.yul\":7268:7269   */\n      0x04\n        /* \"#utility.yul\":7261:7276   */\n      mstore\n        /* \"#utility.yul\":7295:7299   */\n      0x24\n        /* \"#utility.yul\":7292:7293   */\n      0x00\n        /* \"#utility.yul\":7285:7300   */\n      revert\n        /* \"#utility.yul\":7312:7492   */\n    tag_50:\n        /* \"#utility.yul\":7360:7437   */\n      0x4e487b7100000000000000000000000000000000000000000000000000000000\n        /* \"#utility.yul\":7357:7358   */\n      0x00\n        /* \"#utility.yul\":7350:7438   */\n      mstore\n        /* \"#utility.yul\":7457:7461   */\n      0x32\n        /* \"#utility.yul\":7454:7455   */\n      0x04\n        /* \"#utility.yul\":7447:7462   */\n      mstore\n        /* \"#utility.yul\":7481:7485   */\n      0x24\n        /* \"#utility.yul\":7478:7479   */\n      0x00\n        /* \"#utility.yul\":7471:7486   */\n      revert\n        /* \"#utility.yul\":7621:7738   */\n    tag_94:\n        /* \"#utility.yul\":7730:7731   */\n      0x00\n        /* \"#utility.yul\":7727:7728   */\n      dup1\n        /* \"#utility.yul\":7720:7732   */\n      revert\n        /* \"#utility.yul\":7744:7925   */\n    tag_101:\n        /* \"#utility.yul\":7884:7917   */\n      0x63616c6c206f662061206e6f6e2d6578697374656e742066756e6374696f6e00\n        /* \"#utility.yul\":7880:7881   */\n      0x00\n        /* \"#utility.yul\":7872:7878   */\n      dup3\n        /* \"#utility.yul\":7868:7882   */\n      add\n        /* \"#utility.yul\":7861:7918   */\n      mstore\n        /* \"#utility.yul\":7744:7925   */\n      pop\n      jump\t// out\n        /* \"#utility.yul\":7931:8101   */\n    tag_106:\n        /* \"#utility.yul\":8071:8093   */\n      0x4661696c656420746f2073656e64204574686572000000000000000000000000\n        /* \"#utility.yul\":8067:8068   */\n      0x00\n        /* \"#utility.yul\":8059:8065   */\n      dup3\n        /* \"#utility.yul\":8055:8069   */\n      add\n        /* \"#utility.yul\":8048:8094   */\n      mstore\n        /* \"#utility.yul\":7931:8101   */\n      pop\n      jump\t// out\n        /* \"#utility.yul\":8107:8327   */\n    tag_111:\n        /* \"#utility.yul\":8247:8281   */\n      0x596f7520646f6e27742068617665206574686572732073656e7420746f20796f\n        /* \"#utility.yul\":8243:8244   */\n      0x00\n        /* \"#utility.yul\":8235:8241   */\n      dup3\n        /* \"#utility.yul\":8231:8245   */\n      add\n        /* \"#utility.yul\":8224:8282   */\n      mstore\n        /* \"#utility.yul\":8316:8319   */\n      0x7500000000000000000000000000000000000000000000000000000000000000\n        /* \"#utility.yul\":8311:8313   */\n      0x20\n        /* \"#utility.yul\":8303:8309   */\n      dup3\n        /* \"#utility.yul\":8299:8314   */\n      add\n        /* \"#utility.yul\":8292:8320   */\n      mstore\n        /* \"#utility.yul\":8107:8327   */\n      pop\n      jump\t// out\n        /* \"#utility.yul\":8333:8626   */\n    tag_116:\n        /* \"#utility.yul\":8473:8507   */\n      0x526f6c6c6261636b206973206e6f7420617661696c61626c6520666f7220796f\n        /* \"#utility.yul\":8469:8470   */\n      0x00\n        /* \"#utility.yul\":8461:8467   */\n      dup3\n        /* \"#utility.yul\":8457:8471   */\n      add\n        /* \"#utility.yul\":8450:8508   */\n      mstore\n        /* \"#utility.yul\":8542:8576   */\n      0x752e20457468657273206d6967687420626520616c7265616479207769746864\n        /* \"#utility.yul\":8537:8539   */\n      0x20\n        /* \"#utility.yul\":8529:8535   */\n      dup3\n        /* \"#utility.yul\":8525:8540   */\n      add\n        /* \"#utility.yul\":8518:8577   */\n      mstore\n        /* \"#utility.yul\":8611:8618   */\n      0x7261776564000000000000000000000000000000000000000000000000000000\n        /* \"#utility.yul\":8606:8608   */\n      0x40\n        /* \"#utility.yul\":8598:8604   */\n      dup3\n        /* \"#utility.yul\":8594:8609   */\n      add\n        /* \"#utility.yul\":8587:8619   */\n      mstore\n        /* \"#utility.yul\":8333:8626   */\n      pop\n      jump\t// out\n        /* \"#utility.yul\":8632:8746   */\n    tag_122:\n      pop\n      jump\t// out\n        /* \"#utility.yul\":8752:8921   */\n    tag_127:\n        /* \"#utility.yul\":8892:8913   */\n      0x526f6c6c6261636b2076616c7565206973203000000000000000000000000000\n        /* \"#utility.yul\":8888:8889   */\n      0x00\n        /* \"#utility.yul\":8880:8886   */\n      dup3\n        /* \"#utility.yul\":8876:8890   */\n      add\n        /* \"#utility.yul\":8869:8914   */\n      mstore\n        /* \"#utility.yul\":8752:8921   */\n      pop\n      jump\t// out\n        /* \"#utility.yul\":8927:9065   */\n    tag_90:\n        /* \"#utility.yul\":9008:9040   */\n      tag_183\n        /* \"#utility.yul\":9034:9039   */\n      dup2\n        /* \"#utility.yul\":9008:9040   */\n      tag_161\n      jump\t// in\n    tag_183:\n        /* \"#utility.yul\":9001:9006   */\n      dup2\n        /* \"#utility.yul\":8998:9041   */\n      eq\n        /* \"#utility.yul\":8988:9059   */\n      tag_184\n      jumpi\n        /* \"#utility.yul\":9055:9056   */\n      0x00\n        /* \"#utility.yul\":9052:9053   */\n      dup1\n        /* \"#utility.yul\":9045:9057   */\n      revert\n        /* \"#utility.yul\":8988:9059   */\n    tag_184:\n        /* \"#utility.yul\":8927:9065   */\n      pop\n      jump\t// out\n\n    auxdata: 0xa26469706673582212201df67ca084b5c756abcdac22c088ee78d94fbc2c0c0ef4ceb42de46458a564d864736f6c63430008070033\n}\n",
				"bytecode": {
					"linkReferences": {},
					"object": "608060405234801561001057600080fd5b506112b3806100206000396000f3fe6080604052600436106100435760003560e01c806331aaf59a1461008157806336843861146100ac57806348c981e2146100c85780637362377b146100e45761004a565b3661004a57005b7f08c379a0afcc32b1a39302f7cb8073359698411ab5fd6e3edb2c02c0b5fba8aa60405161007790610edb565b60405180910390a1005b34801561008d57600080fd5b506100966100ee565b6040516100a39190610f7b565b60405180910390f35b6100c660048036038101906100c19190610db8565b6100f6565b005b6100e260048036038101906100dd9190610db8565b61063f565b005b6100ec6109e1565b005b600047905090565b6000339050600260008373ffffffffffffffffffffffffffffffffffffffff1673ffffffffffffffffffffffffffffffffffffffff16815260200190815260200160002060008273ffffffffffffffffffffffffffffffffffffffff1673ffffffffffffffffffffffffffffffffffffffff16815260200190815260200160002060009054906101000a900460ff166101c4576040517f08c379a00000000000000000000000000000000000000000000000000000000081526004016101bb90610f3b565b60405180910390fd5b6000600360008473ffffffffffffffffffffffffffffffffffffffff1673ffffffffffffffffffffffffffffffffffffffff16815260200190815260200160002060008373ffffffffffffffffffffffffffffffffffffffff1673ffffffffffffffffffffffffffffffffffffffff1681526020019081526020016000205490506000811415610289576040517f08c379a000000000000000000000000000000000000000000000000000000000815260040161028090610f5b565b60405180910390fd5b60008273ffffffffffffffffffffffffffffffffffffffff16826040516102af90610ec6565b60006040518083038185875af1925050503d80600081146102ec576040519150601f19603f3d011682016040523d82523d6000602084013e6102f1565b606091505b5050905080610335576040517f08c379a000000000000000000000000000000000000000000000000000000000815260040161032c90610efb565b60405180910390fd5b816000808673ffffffffffffffffffffffffffffffffffffffff1673ffffffffffffffffffffffffffffffffffffffff16815260200190815260200160002060008282546103839190611008565b92505081905550600360008573ffffffffffffffffffffffffffffffffffffffff1673ffffffffffffffffffffffffffffffffffffffff16815260200190815260200160002060008473ffffffffffffffffffffffffffffffffffffffff1673ffffffffffffffffffffffffffffffffffffffff168152602001908152602001600020600090556000600260008673ffffffffffffffffffffffffffffffffffffffff1673ffffffffffffffffffffffffffffffffffffffff16815260200190815260200160002060008573ffffffffffffffffffffffffffffffffffffffff1673ffffffffffffffffffffffffffffffffffffffff16815260200190815260200160002060006101000a81548160ff02191690831515021790555060005b600160008673ffffffffffffffffffffffffffffffffffffffff1673ffffffffffffffffffffffffffffffffffffffff16815260200190815260200160002080549050811015610638576000600160008773ffffffffffffffffffffffffffffffffffffffff1673ffffffffffffffffffffffffffffffffffffffff168152602001908152602001600020828154811061053f5761053e6110f0565b5b9060005260206000200160009054906101000a900473ffffffffffffffffffffffffffffffffffffffff1690508473ffffffffffffffffffffffffffffffffffffffff168173ffffffffffffffffffffffffffffffffffffffff16141561062457600160008773ffffffffffffffffffffffffffffffffffffffff1673ffffffffffffffffffffffffffffffffffffffff16815260200190815260200160002082815481106105f1576105f06110f0565b5b9060005260206000200160006101000a81549073ffffffffffffffffffffffffffffffffffffffff021916905550610638565b50808061063090611078565b9150506104a2565b5050505050565b60003390506000349050806000808573ffffffffffffffffffffffffffffffffffffffff1673ffffffffffffffffffffffffffffffffffffffff16815260200190815260200160002060008282546106979190610fb2565b92505081905550600260008473ffffffffffffffffffffffffffffffffffffffff1673ffffffffffffffffffffffffffffffffffffffff16815260200190815260200160002060008373ffffffffffffffffffffffffffffffffffffffff1673ffffffffffffffffffffffffffffffffffffffff16815260200190815260200160002060009054906101000a900460ff166107af576000600360008573ffffffffffffffffffffffffffffffffffffffff1673ffffffffffffffffffffffffffffffffffffffff16815260200190815260200160002060008473ffffffffffffffffffffffffffffffffffffffff1673ffffffffffffffffffffffffffffffffffffffff168152602001908152602001600020819055505b80600360008573ffffffffffffffffffffffffffffffffffffffff1673ffffffffffffffffffffffffffffffffffffffff16815260200190815260200160002060008473ffffffffffffffffffffffffffffffffffffffff1673ffffffffffffffffffffffffffffffffffffffff168152602001908152602001600020600082825461083b9190610fb2565b925050819055506001600260008573ffffffffffffffffffffffffffffffffffffffff1673ffffffffffffffffffffffffffffffffffffffff16815260200190815260200160002060008473ffffffffffffffffffffffffffffffffffffffff1673ffffffffffffffffffffffffffffffffffffffff16815260200190815260200160002060006101000a81548160ff021916908315150217905550600160008473ffffffffffffffffffffffffffffffffffffffff1673ffffffffffffffffffffffffffffffffffffffff168152602001908152602001600020829080600181540180825580915050600190039060005260206000200160009091909190916101000a81548173ffffffffffffffffffffffffffffffffffffffff021916908373ffffffffffffffffffffffffffffffffffffffff1602179055508273ffffffffffffffffffffffffffffffffffffffff168273ffffffffffffffffffffffffffffffffffffffff167fa343f361112b028dae2501770614271723be1d24c9f64fed2d4bd3ddf1c13e35836040516109d49190610f7b565b60405180910390a3505050565b600033905060008060008373ffffffffffffffffffffffffffffffffffffffff1673ffffffffffffffffffffffffffffffffffffffff1681526020019081526020016000205490506000811415610a6d576040517f08c379a0000000000000000000000000000000000000000000000000000000008152600401610a6490610f1b565b60405180910390fd5b60008273ffffffffffffffffffffffffffffffffffffffff1682604051610a9390610ec6565b60006040518083038185875af1925050503d8060008114610ad0576040519150601f19603f3d011682016040523d82523d6000602084013e610ad5565b606091505b5050905080610b19576040517f08c379a0000000000000000000000000000000000000000000000000000000008152600401610b1090610efb565b60405180910390fd5b6000808473ffffffffffffffffffffffffffffffffffffffff1673ffffffffffffffffffffffffffffffffffffffff1681526020019081526020016000206000905560005b600160008573ffffffffffffffffffffffffffffffffffffffff1673ffffffffffffffffffffffffffffffffffffffff16815260200190815260200160002080549050811015610d4f576000600160008673ffffffffffffffffffffffffffffffffffffffff1673ffffffffffffffffffffffffffffffffffffffff1681526020019081526020016000208281548110610bfb57610bfa6110f0565b5b9060005260206000200160009054906101000a900473ffffffffffffffffffffffffffffffffffffffff1690506000600260008773ffffffffffffffffffffffffffffffffffffffff1673ffffffffffffffffffffffffffffffffffffffff16815260200190815260200160002060008373ffffffffffffffffffffffffffffffffffffffff1673ffffffffffffffffffffffffffffffffffffffff16815260200190815260200160002060006101000a81548160ff021916908315150217905550600160008673ffffffffffffffffffffffffffffffffffffffff1673ffffffffffffffffffffffffffffffffffffffff1681526020019081526020016000208281548110610d0e57610d0d6110f0565b5b9060005260206000200160006101000a81549073ffffffffffffffffffffffffffffffffffffffff0219169055508080610d4790611078565b915050610b5e565b503373ffffffffffffffffffffffffffffffffffffffff167fa74fab966bfc29d4ea7866d609ac5d94324a5fe817362d6a9fee5d2f8df4675983604051610d969190610f7b565b60405180910390a2505050565b600081359050610db281611266565b92915050565b600060208284031215610dce57610dcd61111f565b5b6000610ddc84828501610da3565b91505092915050565b6000610df2601f83610fa1565b9150610dfd82611124565b602082019050919050565b6000610e15601483610fa1565b9150610e208261114d565b602082019050919050565b6000610e38602183610fa1565b9150610e4382611176565b604082019050919050565b6000610e5b604583610fa1565b9150610e66826111c5565b606082019050919050565b6000610e7e600083610f96565b9150610e898261123a565b600082019050919050565b6000610ea1601383610fa1565b9150610eac8261123d565b602082019050919050565b610ec08161106e565b82525050565b6000610ed182610e71565b9150819050919050565b60006020820190508181036000830152610ef481610de5565b9050919050565b60006020820190508181036000830152610f1481610e08565b9050919050565b60006020820190508181036000830152610f3481610e2b565b9050919050565b60006020820190508181036000830152610f5481610e4e565b9050919050565b60006020820190508181036000830152610f7481610e94565b9050919050565b6000602082019050610f906000830184610eb7565b92915050565b600081905092915050565b600082825260208201905092915050565b6000610fbd8261106e565b9150610fc88361106e565b9250827fffffffffffffffffffffffffffffffffffffffffffffffffffffffffffffffff03821115610ffd57610ffc6110c1565b5b828201905092915050565b60006110138261106e565b915061101e8361106e565b925082821015611031576110306110c1565b5b828203905092915050565b60006110478261104e565b9050919050565b600073ffffffffffffffffffffffffffffffffffffffff82169050919050565b6000819050919050565b60006110838261106e565b91507fffffffffffffffffffffffffffffffffffffffffffffffffffffffffffffffff8214156110b6576110b56110c1565b5b600182019050919050565b7f4e487b7100000000000000000000000000000000000000000000000000000000600052601160045260246000fd5b7f4e487b7100000000000000000000000000000000000000000000000000000000600052603260045260246000fd5b600080fd5b7f63616c6c206f662061206e6f6e2d6578697374656e742066756e6374696f6e00600082015250565b7f4661696c656420746f2073656e64204574686572000000000000000000000000600082015250565b7f596f7520646f6e27742068617665206574686572732073656e7420746f20796f60008201527f7500000000000000000000000000000000000000000000000000000000000000602082015250565b7f526f6c6c6261636b206973206e6f7420617661696c61626c6520666f7220796f60008201527f752e20457468657273206d6967687420626520616c726561647920776974686460208201527f7261776564000000000000000000000000000000000000000000000000000000604082015250565b50565b7f526f6c6c6261636b2076616c7565206973203000000000000000000000000000600082015250565b61126f8161103c565b811461127a57600080fd5b5056fea26469706673582212201df67ca084b5c756abcdac22c088ee78d94fbc2c0c0ef4ceb42de46458a564d864736f6c63430008070033",
					"opcodes": "PUSH1 0x80 PUSH1 0x40 MSTORE CALLVALUE DUP1 ISZERO PUSH2 0x10 JUMPI PUSH1 0x0 DUP1 REVERT JUMPDEST POP PUSH2 0x12B3 DUP1 PUSH2 0x20 PUSH1 0x0 CODECOPY PUSH1 0x0 RETURN INVALID PUSH1 0x80 PUSH1 0x40 MSTORE PUSH1 0x4 CALLDATASIZE LT PUSH2 0x43 JUMPI PUSH1 0x0 CALLDATALOAD PUSH1 0xE0 SHR DUP1 PUSH4 0x31AAF59A EQ PUSH2 0x81 JUMPI DUP1 PUSH4 0x36843861 EQ PUSH2 0xAC JUMPI DUP1 PUSH4 0x48C981E2 EQ PUSH2 0xC8 JUMPI DUP1 PUSH4 0x7362377B EQ PUSH2 0xE4 JUMPI PUSH2 0x4A JUMP JUMPDEST CALLDATASIZE PUSH2 0x4A JUMPI STOP JUMPDEST PUSH32 0x8C379A0AFCC32B1A39302F7CB8073359698411AB5FD6E3EDB2C02C0B5FBA8AA PUSH1 0x40 MLOAD PUSH2 0x77 SWAP1 PUSH2 0xEDB JUMP JUMPDEST PUSH1 0x40 MLOAD DUP1 SWAP2 SUB SWAP1 LOG1 STOP JUMPDEST CALLVALUE DUP1 ISZERO PUSH2 0x8D JUMPI PUSH1 0x0 DUP1 REVERT JUMPDEST POP PUSH2 0x96 PUSH2 0xEE JUMP JUMPDEST PUSH1 0x40 MLOAD PUSH2 0xA3 SWAP2 SWAP1 PUSH2 0xF7B JUMP JUMPDEST PUSH1 0x40 MLOAD DUP1 SWAP2 SUB SWAP1 RETURN JUMPDEST PUSH2 0xC6 PUSH1 0x4 DUP1 CALLDATASIZE SUB DUP2 ADD SWAP1 PUSH2 0xC1 SWAP2 SWAP1 PUSH2 0xDB8 JUMP JUMPDEST PUSH2 0xF6 JUMP JUMPDEST STOP JUMPDEST PUSH2 0xE2 PUSH1 0x4 DUP1 CALLDATASIZE SUB DUP2 ADD SWAP1 PUSH2 0xDD SWAP2 SWAP1 PUSH2 0xDB8 JUMP JUMPDEST PUSH2 0x63F JUMP JUMPDEST STOP JUMPDEST PUSH2 0xEC PUSH2 0x9E1 JUMP JUMPDEST STOP JUMPDEST PUSH1 0x0 SELFBALANCE SWAP1 POP SWAP1 JUMP JUMPDEST PUSH1 0x0 CALLER SWAP1 POP PUSH1 0x2 PUSH1 0x0 DUP4 PUSH20 0xFFFFFFFFFFFFFFFFFFFFFFFFFFFFFFFFFFFFFFFF AND PUSH20 0xFFFFFFFFFFFFFFFFFFFFFFFFFFFFFFFFFFFFFFFF AND DUP2 MSTORE PUSH1 0x20 ADD SWAP1 DUP2 MSTORE PUSH1 0x20 ADD PUSH1 0x0 KECCAK256 PUSH1 0x0 DUP3 PUSH20 0xFFFFFFFFFFFFFFFFFFFFFFFFFFFFFFFFFFFFFFFF AND PUSH20 0xFFFFFFFFFFFFFFFFFFFFFFFFFFFFFFFFFFFFFFFF AND DUP2 MSTORE PUSH1 0x20 ADD SWAP1 DUP2 MSTORE PUSH1 0x20 ADD PUSH1 0x0 KECCAK256 PUSH1 0x0 SWAP1 SLOAD SWAP1 PUSH2 0x100 EXP SWAP1 DIV PUSH1 0xFF AND PUSH2 0x1C4 JUMPI PUSH1 0x40 MLOAD PUSH32 0x8C379A000000000000000000000000000000000000000000000000000000000 DUP2 MSTORE PUSH1 0x4 ADD PUSH2 0x1BB SWAP1 PUSH2 0xF3B JUMP JUMPDEST PUSH1 0x40 MLOAD DUP1 SWAP2 SUB SWAP1 REVERT JUMPDEST PUSH1 0x0 PUSH1 0x3 PUSH1 0x0 DUP5 PUSH20 0xFFFFFFFFFFFFFFFFFFFFFFFFFFFFFFFFFFFFFFFF AND PUSH20 0xFFFFFFFFFFFFFFFFFFFFFFFFFFFFFFFFFFFFFFFF AND DUP2 MSTORE PUSH1 0x20 ADD SWAP1 DUP2 MSTORE PUSH1 0x20 ADD PUSH1 0x0 KECCAK256 PUSH1 0x0 DUP4 PUSH20 0xFFFFFFFFFFFFFFFFFFFFFFFFFFFFFFFFFFFFFFFF AND PUSH20 0xFFFFFFFFFFFFFFFFFFFFFFFFFFFFFFFFFFFFFFFF AND DUP2 MSTORE PUSH1 0x20 ADD SWAP1 DUP2 MSTORE PUSH1 0x20 ADD PUSH1 0x0 KECCAK256 SLOAD SWAP1 POP PUSH1 0x0 DUP2 EQ ISZERO PUSH2 0x289 JUMPI PUSH1 0x40 MLOAD PUSH32 0x8C379A000000000000000000000000000000000000000000000000000000000 DUP2 MSTORE PUSH1 0x4 ADD PUSH2 0x280 SWAP1 PUSH2 0xF5B JUMP JUMPDEST PUSH1 0x40 MLOAD DUP1 SWAP2 SUB SWAP1 REVERT JUMPDEST PUSH1 0x0 DUP3 PUSH20 0xFFFFFFFFFFFFFFFFFFFFFFFFFFFFFFFFFFFFFFFF AND DUP3 PUSH1 0x40 MLOAD PUSH2 0x2AF SWAP1 PUSH2 0xEC6 JUMP JUMPDEST PUSH1 0x0 PUSH1 0x40 MLOAD DUP1 DUP4 SUB DUP2 DUP6 DUP8 GAS CALL SWAP3 POP POP POP RETURNDATASIZE DUP1 PUSH1 0x0 DUP2 EQ PUSH2 0x2EC JUMPI PUSH1 0x40 MLOAD SWAP2 POP PUSH1 0x1F NOT PUSH1 0x3F RETURNDATASIZE ADD AND DUP3 ADD PUSH1 0x40 MSTORE RETURNDATASIZE DUP3 MSTORE RETURNDATASIZE PUSH1 0x0 PUSH1 0x20 DUP5 ADD RETURNDATACOPY PUSH2 0x2F1 JUMP JUMPDEST PUSH1 0x60 SWAP2 POP JUMPDEST POP POP SWAP1 POP DUP1 PUSH2 0x335 JUMPI PUSH1 0x40 MLOAD PUSH32 0x8C379A000000000000000000000000000000000000000000000000000000000 DUP2 MSTORE PUSH1 0x4 ADD PUSH2 0x32C SWAP1 PUSH2 0xEFB JUMP JUMPDEST PUSH1 0x40 MLOAD DUP1 SWAP2 SUB SWAP1 REVERT JUMPDEST DUP2 PUSH1 0x0 DUP1 DUP7 PUSH20 0xFFFFFFFFFFFFFFFFFFFFFFFFFFFFFFFFFFFFFFFF AND PUSH20 0xFFFFFFFFFFFFFFFFFFFFFFFFFFFFFFFFFFFFFFFF AND DUP2 MSTORE PUSH1 0x20 ADD SWAP1 DUP2 MSTORE PUSH1 0x20 ADD PUSH1 0x0 KECCAK256 PUSH1 0x0 DUP3 DUP3 SLOAD PUSH2 0x383 SWAP2 SWAP1 PUSH2 0x1008 JUMP JUMPDEST SWAP3 POP POP DUP2 SWAP1 SSTORE POP PUSH1 0x3 PUSH1 0x0 DUP6 PUSH20 0xFFFFFFFFFFFFFFFFFFFFFFFFFFFFFFFFFFFFFFFF AND PUSH20 0xFFFFFFFFFFFFFFFFFFFFFFFFFFFFFFFFFFFFFFFF AND DUP2 MSTORE PUSH1 0x20 ADD SWAP1 DUP2 MSTORE PUSH1 0x20 ADD PUSH1 0x0 KECCAK256 PUSH1 0x0 DUP5 PUSH20 0xFFFFFFFFFFFFFFFFFFFFFFFFFFFFFFFFFFFFFFFF AND PUSH20 0xFFFFFFFFFFFFFFFFFFFFFFFFFFFFFFFFFFFFFFFF AND DUP2 MSTORE PUSH1 0x20 ADD SWAP1 DUP2 MSTORE PUSH1 0x20 ADD PUSH1 0x0 KECCAK256 PUSH1 0x0 SWAP1 SSTORE PUSH1 0x0 PUSH1 0x2 PUSH1 0x0 DUP7 PUSH20 0xFFFFFFFFFFFFFFFFFFFFFFFFFFFFFFFFFFFFFFFF AND PUSH20 0xFFFFFFFFFFFFFFFFFFFFFFFFFFFFFFFFFFFFFFFF AND DUP2 MSTORE PUSH1 0x20 ADD SWAP1 DUP2 MSTORE PUSH1 0x20 ADD PUSH1 0x0 KECCAK256 PUSH1 0x0 DUP6 PUSH20 0xFFFFFFFFFFFFFFFFFFFFFFFFFFFFFFFFFFFFFFFF AND PUSH20 0xFFFFFFFFFFFFFFFFFFFFFFFFFFFFFFFFFFFFFFFF AND DUP2 MSTORE PUSH1 0x20 ADD SWAP1 DUP2 MSTORE PUSH1 0x20 ADD PUSH1 0x0 KECCAK256 PUSH1 0x0 PUSH2 0x100 EXP DUP2 SLOAD DUP2 PUSH1 0xFF MUL NOT AND SWAP1 DUP4 ISZERO ISZERO MUL OR SWAP1 SSTORE POP PUSH1 0x0 JUMPDEST PUSH1 0x1 PUSH1 0x0 DUP7 PUSH20 0xFFFFFFFFFFFFFFFFFFFFFFFFFFFFFFFFFFFFFFFF AND PUSH20 0xFFFFFFFFFFFFFFFFFFFFFFFFFFFFFFFFFFFFFFFF AND DUP2 MSTORE PUSH1 0x20 ADD SWAP1 DUP2 MSTORE PUSH1 0x20 ADD PUSH1 0x0 KECCAK256 DUP1 SLOAD SWAP1 POP DUP2 LT ISZERO PUSH2 0x638 JUMPI PUSH1 0x0 PUSH1 0x1 PUSH1 0x0 DUP8 PUSH20 0xFFFFFFFFFFFFFFFFFFFFFFFFFFFFFFFFFFFFFFFF AND PUSH20 0xFFFFFFFFFFFFFFFFFFFFFFFFFFFFFFFFFFFFFFFF AND DUP2 MSTORE PUSH1 0x20 ADD SWAP1 DUP2 MSTORE PUSH1 0x20 ADD PUSH1 0x0 KECCAK256 DUP3 DUP2 SLOAD DUP2 LT PUSH2 0x53F JUMPI PUSH2 0x53E PUSH2 0x10F0 JUMP JUMPDEST JUMPDEST SWAP1 PUSH1 0x0 MSTORE PUSH1 0x20 PUSH1 0x0 KECCAK256 ADD PUSH1 0x0 SWAP1 SLOAD SWAP1 PUSH2 0x100 EXP SWAP1 DIV PUSH20 0xFFFFFFFFFFFFFFFFFFFFFFFFFFFFFFFFFFFFFFFF AND SWAP1 POP DUP5 PUSH20 0xFFFFFFFFFFFFFFFFFFFFFFFFFFFFFFFFFFFFFFFF AND DUP2 PUSH20 0xFFFFFFFFFFFFFFFFFFFFFFFFFFFFFFFFFFFFFFFF AND EQ ISZERO PUSH2 0x624 JUMPI PUSH1 0x1 PUSH1 0x0 DUP8 PUSH20 0xFFFFFFFFFFFFFFFFFFFFFFFFFFFFFFFFFFFFFFFF AND PUSH20 0xFFFFFFFFFFFFFFFFFFFFFFFFFFFFFFFFFFFFFFFF AND DUP2 MSTORE PUSH1 0x20 ADD SWAP1 DUP2 MSTORE PUSH1 0x20 ADD PUSH1 0x0 KECCAK256 DUP3 DUP2 SLOAD DUP2 LT PUSH2 0x5F1 JUMPI PUSH2 0x5F0 PUSH2 0x10F0 JUMP JUMPDEST JUMPDEST SWAP1 PUSH1 0x0 MSTORE PUSH1 0x20 PUSH1 0x0 KECCAK256 ADD PUSH1 0x0 PUSH2 0x100 EXP DUP2 SLOAD SWAP1 PUSH20 0xFFFFFFFFFFFFFFFFFFFFFFFFFFFFFFFFFFFFFFFF MUL NOT AND SWAP1 SSTORE POP PUSH2 0x638 JUMP JUMPDEST POP DUP1 DUP1 PUSH2 0x630 SWAP1 PUSH2 0x1078 JUMP JUMPDEST SWAP2 POP POP PUSH2 0x4A2 JUMP JUMPDEST POP POP POP POP POP JUMP JUMPDEST PUSH1 0x0 CALLER SWAP1 POP PUSH1 0x0 CALLVALUE SWAP1 POP DUP1 PUSH1 0x0 DUP1 DUP6 PUSH20 0xFFFFFFFFFFFFFFFFFFFFFFFFFFFFFFFFFFFFFFFF AND PUSH20 0xFFFFFFFFFFFFFFFFFFFFFFFFFFFFFFFFFFFFFFFF AND DUP2 MSTORE PUSH1 0x20 ADD SWAP1 DUP2 MSTORE PUSH1 0x20 ADD PUSH1 0x0 KECCAK256 PUSH1 0x0 DUP3 DUP3 SLOAD PUSH2 0x697 SWAP2 SWAP1 PUSH2 0xFB2 JUMP JUMPDEST SWAP3 POP POP DUP2 SWAP1 SSTORE POP PUSH1 0x2 PUSH1 0x0 DUP5 PUSH20 0xFFFFFFFFFFFFFFFFFFFFFFFFFFFFFFFFFFFFFFFF AND PUSH20 0xFFFFFFFFFFFFFFFFFFFFFFFFFFFFFFFFFFFFFFFF AND DUP2 MSTORE PUSH1 0x20 ADD SWAP1 DUP2 MSTORE PUSH1 0x20 ADD PUSH1 0x0 KECCAK256 PUSH1 0x0 DUP4 PUSH20 0xFFFFFFFFFFFFFFFFFFFFFFFFFFFFFFFFFFFFFFFF AND PUSH20 0xFFFFFFFFFFFFFFFFFFFFFFFFFFFFFFFFFFFFFFFF AND DUP2 MSTORE PUSH1 0x20 ADD SWAP1 DUP2 MSTORE PUSH1 0x20 ADD PUSH1 0x0 KECCAK256 PUSH1 0x0 SWAP1 SLOAD SWAP1 PUSH2 0x100 EXP SWAP1 DIV PUSH1 0xFF AND PUSH2 0x7AF JUMPI PUSH1 0x0 PUSH1 0x3 PUSH1 0x0 DUP6 PUSH20 0xFFFFFFFFFFFFFFFFFFFFFFFFFFFFFFFFFFFFFFFF AND PUSH20 0xFFFFFFFFFFFFFFFFFFFFFFFFFFFFFFFFFFFFFFFF AND DUP2 MSTORE PUSH1 0x20 ADD SWAP1 DUP2 MSTORE PUSH1 0x20 ADD PUSH1 0x0 KECCAK256 PUSH1 0x0 DUP5 PUSH20 0xFFFFFFFFFFFFFFFFFFFFFFFFFFFFFFFFFFFFFFFF AND PUSH20 0xFFFFFFFFFFFFFFFFFFFFFFFFFFFFFFFFFFFFFFFF AND DUP2 MSTORE PUSH1 0x20 ADD SWAP1 DUP2 MSTORE PUSH1 0x20 ADD PUSH1 0x0 KECCAK256 DUP2 SWAP1 SSTORE POP JUMPDEST DUP1 PUSH1 0x3 PUSH1 0x0 DUP6 PUSH20 0xFFFFFFFFFFFFFFFFFFFFFFFFFFFFFFFFFFFFFFFF AND PUSH20 0xFFFFFFFFFFFFFFFFFFFFFFFFFFFFFFFFFFFFFFFF AND DUP2 MSTORE PUSH1 0x20 ADD SWAP1 DUP2 MSTORE PUSH1 0x20 ADD PUSH1 0x0 KECCAK256 PUSH1 0x0 DUP5 PUSH20 0xFFFFFFFFFFFFFFFFFFFFFFFFFFFFFFFFFFFFFFFF AND PUSH20 0xFFFFFFFFFFFFFFFFFFFFFFFFFFFFFFFFFFFFFFFF AND DUP2 MSTORE PUSH1 0x20 ADD SWAP1 DUP2 MSTORE PUSH1 0x20 ADD PUSH1 0x0 KECCAK256 PUSH1 0x0 DUP3 DUP3 SLOAD PUSH2 0x83B SWAP2 SWAP1 PUSH2 0xFB2 JUMP JUMPDEST SWAP3 POP POP DUP2 SWAP1 SSTORE POP PUSH1 0x1 PUSH1 0x2 PUSH1 0x0 DUP6 PUSH20 0xFFFFFFFFFFFFFFFFFFFFFFFFFFFFFFFFFFFFFFFF AND PUSH20 0xFFFFFFFFFFFFFFFFFFFFFFFFFFFFFFFFFFFFFFFF AND DUP2 MSTORE PUSH1 0x20 ADD SWAP1 DUP2 MSTORE PUSH1 0x20 ADD PUSH1 0x0 KECCAK256 PUSH1 0x0 DUP5 PUSH20 0xFFFFFFFFFFFFFFFFFFFFFFFFFFFFFFFFFFFFFFFF AND PUSH20 0xFFFFFFFFFFFFFFFFFFFFFFFFFFFFFFFFFFFFFFFF AND DUP2 MSTORE PUSH1 0x20 ADD SWAP1 DUP2 MSTORE PUSH1 0x20 ADD PUSH1 0x0 KECCAK256 PUSH1 0x0 PUSH2 0x100 EXP DUP2 SLOAD DUP2 PUSH1 0xFF MUL NOT AND SWAP1 DUP4 ISZERO ISZERO MUL OR SWAP1 SSTORE POP PUSH1 0x1 PUSH1 0x0 DUP5 PUSH20 0xFFFFFFFFFFFFFFFFFFFFFFFFFFFFFFFFFFFFFFFF AND PUSH20 0xFFFFFFFFFFFFFFFFFFFFFFFFFFFFFFFFFFFFFFFF AND DUP2 MSTORE PUSH1 0x20 ADD SWAP1 DUP2 MSTORE PUSH1 0x20 ADD PUSH1 0x0 KECCAK256 DUP3 SWAP1 DUP1 PUSH1 0x1 DUP2 SLOAD ADD DUP1 DUP3 SSTORE DUP1 SWAP2 POP POP PUSH1 0x1 SWAP1 SUB SWAP1 PUSH1 0x0 MSTORE PUSH1 0x20 PUSH1 0x0 KECCAK256 ADD PUSH1 0x0 SWAP1 SWAP2 SWAP1 SWAP2 SWAP1 SWAP2 PUSH2 0x100 EXP DUP2 SLOAD DUP2 PUSH20 0xFFFFFFFFFFFFFFFFFFFFFFFFFFFFFFFFFFFFFFFF MUL NOT AND SWAP1 DUP4 PUSH20 0xFFFFFFFFFFFFFFFFFFFFFFFFFFFFFFFFFFFFFFFF AND MUL OR SWAP1 SSTORE POP DUP3 PUSH20 0xFFFFFFFFFFFFFFFFFFFFFFFFFFFFFFFFFFFFFFFF AND DUP3 PUSH20 0xFFFFFFFFFFFFFFFFFFFFFFFFFFFFFFFFFFFFFFFF AND PUSH32 0xA343F361112B028DAE2501770614271723BE1D24C9F64FED2D4BD3DDF1C13E35 DUP4 PUSH1 0x40 MLOAD PUSH2 0x9D4 SWAP2 SWAP1 PUSH2 0xF7B JUMP JUMPDEST PUSH1 0x40 MLOAD DUP1 SWAP2 SUB SWAP1 LOG3 POP POP POP JUMP JUMPDEST PUSH1 0x0 CALLER SWAP1 POP PUSH1 0x0 DUP1 PUSH1 0x0 DUP4 PUSH20 0xFFFFFFFFFFFFFFFFFFFFFFFFFFFFFFFFFFFFFFFF AND PUSH20 0xFFFFFFFFFFFFFFFFFFFFFFFFFFFFFFFFFFFFFFFF AND DUP2 MSTORE PUSH1 0x20 ADD SWAP1 DUP2 MSTORE PUSH1 0x20 ADD PUSH1 0x0 KECCAK256 SLOAD SWAP1 POP PUSH1 0x0 DUP2 EQ ISZERO PUSH2 0xA6D JUMPI PUSH1 0x40 MLOAD PUSH32 0x8C379A000000000000000000000000000000000000000000000000000000000 DUP2 MSTORE PUSH1 0x4 ADD PUSH2 0xA64 SWAP1 PUSH2 0xF1B JUMP JUMPDEST PUSH1 0x40 MLOAD DUP1 SWAP2 SUB SWAP1 REVERT JUMPDEST PUSH1 0x0 DUP3 PUSH20 0xFFFFFFFFFFFFFFFFFFFFFFFFFFFFFFFFFFFFFFFF AND DUP3 PUSH1 0x40 MLOAD PUSH2 0xA93 SWAP1 PUSH2 0xEC6 JUMP JUMPDEST PUSH1 0x0 PUSH1 0x40 MLOAD DUP1 DUP4 SUB DUP2 DUP6 DUP8 GAS CALL SWAP3 POP POP POP RETURNDATASIZE DUP1 PUSH1 0x0 DUP2 EQ PUSH2 0xAD0 JUMPI PUSH1 0x40 MLOAD SWAP2 POP PUSH1 0x1F NOT PUSH1 0x3F RETURNDATASIZE ADD AND DUP3 ADD PUSH1 0x40 MSTORE RETURNDATASIZE DUP3 MSTORE RETURNDATASIZE PUSH1 0x0 PUSH1 0x20 DUP5 ADD RETURNDATACOPY PUSH2 0xAD5 JUMP JUMPDEST PUSH1 0x60 SWAP2 POP JUMPDEST POP POP SWAP1 POP DUP1 PUSH2 0xB19 JUMPI PUSH1 0x40 MLOAD PUSH32 0x8C379A000000000000000000000000000000000000000000000000000000000 DUP2 MSTORE PUSH1 0x4 ADD PUSH2 0xB10 SWAP1 PUSH2 0xEFB JUMP JUMPDEST PUSH1 0x40 MLOAD DUP1 SWAP2 SUB SWAP1 REVERT JUMPDEST PUSH1 0x0 DUP1 DUP5 PUSH20 0xFFFFFFFFFFFFFFFFFFFFFFFFFFFFFFFFFFFFFFFF AND PUSH20 0xFFFFFFFFFFFFFFFFFFFFFFFFFFFFFFFFFFFFFFFF AND DUP2 MSTORE PUSH1 0x20 ADD SWAP1 DUP2 MSTORE PUSH1 0x20 ADD PUSH1 0x0 KECCAK256 PUSH1 0x0 SWAP1 SSTORE PUSH1 0x0 JUMPDEST PUSH1 0x1 PUSH1 0x0 DUP6 PUSH20 0xFFFFFFFFFFFFFFFFFFFFFFFFFFFFFFFFFFFFFFFF AND PUSH20 0xFFFFFFFFFFFFFFFFFFFFFFFFFFFFFFFFFFFFFFFF AND DUP2 MSTORE PUSH1 0x20 ADD SWAP1 DUP2 MSTORE PUSH1 0x20 ADD PUSH1 0x0 KECCAK256 DUP1 SLOAD SWAP1 POP DUP2 LT ISZERO PUSH2 0xD4F JUMPI PUSH1 0x0 PUSH1 0x1 PUSH1 0x0 DUP7 PUSH20 0xFFFFFFFFFFFFFFFFFFFFFFFFFFFFFFFFFFFFFFFF AND PUSH20 0xFFFFFFFFFFFFFFFFFFFFFFFFFFFFFFFFFFFFFFFF AND DUP2 MSTORE PUSH1 0x20 ADD SWAP1 DUP2 MSTORE PUSH1 0x20 ADD PUSH1 0x0 KECCAK256 DUP3 DUP2 SLOAD DUP2 LT PUSH2 0xBFB JUMPI PUSH2 0xBFA PUSH2 0x10F0 JUMP JUMPDEST JUMPDEST SWAP1 PUSH1 0x0 MSTORE PUSH1 0x20 PUSH1 0x0 KECCAK256 ADD PUSH1 0x0 SWAP1 SLOAD SWAP1 PUSH2 0x100 EXP SWAP1 DIV PUSH20 0xFFFFFFFFFFFFFFFFFFFFFFFFFFFFFFFFFFFFFFFF AND SWAP1 POP PUSH1 0x0 PUSH1 0x2 PUSH1 0x0 DUP8 PUSH20 0xFFFFFFFFFFFFFFFFFFFFFFFFFFFFFFFFFFFFFFFF AND PUSH20 0xFFFFFFFFFFFFFFFFFFFFFFFFFFFFFFFFFFFFFFFF AND DUP2 MSTORE PUSH1 0x20 ADD SWAP1 DUP2 MSTORE PUSH1 0x20 ADD PUSH1 0x0 KECCAK256 PUSH1 0x0 DUP4 PUSH20 0xFFFFFFFFFFFFFFFFFFFFFFFFFFFFFFFFFFFFFFFF AND PUSH20 0xFFFFFFFFFFFFFFFFFFFFFFFFFFFFFFFFFFFFFFFF AND DUP2 MSTORE PUSH1 0x20 ADD SWAP1 DUP2 MSTORE PUSH1 0x20 ADD PUSH1 0x0 KECCAK256 PUSH1 0x0 PUSH2 0x100 EXP DUP2 SLOAD DUP2 PUSH1 0xFF MUL NOT AND SWAP1 DUP4 ISZERO ISZERO MUL OR SWAP1 SSTORE POP PUSH1 0x1 PUSH1 0x0 DUP7 PUSH20 0xFFFFFFFFFFFFFFFFFFFFFFFFFFFFFFFFFFFFFFFF AND PUSH20 0xFFFFFFFFFFFFFFFFFFFFFFFFFFFFFFFFFFFFFFFF AND DUP2 MSTORE PUSH1 0x20 ADD SWAP1 DUP2 MSTORE PUSH1 0x20 ADD PUSH1 0x0 KECCAK256 DUP3 DUP2 SLOAD DUP2 LT PUSH2 0xD0E JUMPI PUSH2 0xD0D PUSH2 0x10F0 JUMP JUMPDEST JUMPDEST SWAP1 PUSH1 0x0 MSTORE PUSH1 0x20 PUSH1 0x0 KECCAK256 ADD PUSH1 0x0 PUSH2 0x100 EXP DUP2 SLOAD SWAP1 PUSH20 0xFFFFFFFFFFFFFFFFFFFFFFFFFFFFFFFFFFFFFFFF MUL NOT AND SWAP1 SSTORE POP DUP1 DUP1 PUSH2 0xD47 SWAP1 PUSH2 0x1078 JUMP JUMPDEST SWAP2 POP POP PUSH2 0xB5E JUMP JUMPDEST POP CALLER PUSH20 0xFFFFFFFFFFFFFFFFFFFFFFFFFFFFFFFFFFFFFFFF AND PUSH32 0xA74FAB966BFC29D4EA7866D609AC5D94324A5FE817362D6A9FEE5D2F8DF46759 DUP4 PUSH1 0x40 MLOAD PUSH2 0xD96 SWAP2 SWAP1 PUSH2 0xF7B JUMP JUMPDEST PUSH1 0x40 MLOAD DUP1 SWAP2 SUB SWAP1 LOG2 POP POP POP JUMP JUMPDEST PUSH1 0x0 DUP2 CALLDATALOAD SWAP1 POP PUSH2 0xDB2 DUP2 PUSH2 0x1266 JUMP JUMPDEST SWAP3 SWAP2 POP POP JUMP JUMPDEST PUSH1 0x0 PUSH1 0x20 DUP3 DUP5 SUB SLT ISZERO PUSH2 0xDCE JUMPI PUSH2 0xDCD PUSH2 0x111F JUMP JUMPDEST JUMPDEST PUSH1 0x0 PUSH2 0xDDC DUP5 DUP3 DUP6 ADD PUSH2 0xDA3 JUMP JUMPDEST SWAP2 POP POP SWAP3 SWAP2 POP POP JUMP JUMPDEST PUSH1 0x0 PUSH2 0xDF2 PUSH1 0x1F DUP4 PUSH2 0xFA1 JUMP JUMPDEST SWAP2 POP PUSH2 0xDFD DUP3 PUSH2 0x1124 JUMP JUMPDEST PUSH1 0x20 DUP3 ADD SWAP1 POP SWAP2 SWAP1 POP JUMP JUMPDEST PUSH1 0x0 PUSH2 0xE15 PUSH1 0x14 DUP4 PUSH2 0xFA1 JUMP JUMPDEST SWAP2 POP PUSH2 0xE20 DUP3 PUSH2 0x114D JUMP JUMPDEST PUSH1 0x20 DUP3 ADD SWAP1 POP SWAP2 SWAP1 POP JUMP JUMPDEST PUSH1 0x0 PUSH2 0xE38 PUSH1 0x21 DUP4 PUSH2 0xFA1 JUMP JUMPDEST SWAP2 POP PUSH2 0xE43 DUP3 PUSH2 0x1176 JUMP JUMPDEST PUSH1 0x40 DUP3 ADD SWAP1 POP SWAP2 SWAP1 POP JUMP JUMPDEST PUSH1 0x0 PUSH2 0xE5B PUSH1 0x45 DUP4 PUSH2 0xFA1 JUMP JUMPDEST SWAP2 POP PUSH2 0xE66 DUP3 PUSH2 0x11C5 JUMP JUMPDEST PUSH1 0x60 DUP3 ADD SWAP1 POP SWAP2 SWAP1 POP JUMP JUMPDEST PUSH1 0x0 PUSH2 0xE7E PUSH1 0x0 DUP4 PUSH2 0xF96 JUMP JUMPDEST SWAP2 POP PUSH2 0xE89 DUP3 PUSH2 0x123A JUMP JUMPDEST PUSH1 0x0 DUP3 ADD SWAP1 POP SWAP2 SWAP1 POP JUMP JUMPDEST PUSH1 0x0 PUSH2 0xEA1 PUSH1 0x13 DUP4 PUSH2 0xFA1 JUMP JUMPDEST SWAP2 POP PUSH2 0xEAC DUP3 PUSH2 0x123D JUMP JUMPDEST PUSH1 0x20 DUP3 ADD SWAP1 POP SWAP2 SWAP1 POP JUMP JUMPDEST PUSH2 0xEC0 DUP2 PUSH2 0x106E JUMP JUMPDEST DUP3 MSTORE POP POP JUMP JUMPDEST PUSH1 0x0 PUSH2 0xED1 DUP3 PUSH2 0xE71 JUMP JUMPDEST SWAP2 POP DUP2 SWAP1 POP SWAP2 SWAP1 POP JUMP JUMPDEST PUSH1 0x0 PUSH1 0x20 DUP3 ADD SWAP1 POP DUP2 DUP2 SUB PUSH1 0x0 DUP4 ADD MSTORE PUSH2 0xEF4 DUP2 PUSH2 0xDE5 JUMP JUMPDEST SWAP1 POP SWAP2 SWAP1 POP JUMP JUMPDEST PUSH1 0x0 PUSH1 0x20 DUP3 ADD SWAP1 POP DUP2 DUP2 SUB PUSH1 0x0 DUP4 ADD MSTORE PUSH2 0xF14 DUP2 PUSH2 0xE08 JUMP JUMPDEST SWAP1 POP SWAP2 SWAP1 POP JUMP JUMPDEST PUSH1 0x0 PUSH1 0x20 DUP3 ADD SWAP1 POP DUP2 DUP2 SUB PUSH1 0x0 DUP4 ADD MSTORE PUSH2 0xF34 DUP2 PUSH2 0xE2B JUMP JUMPDEST SWAP1 POP SWAP2 SWAP1 POP JUMP JUMPDEST PUSH1 0x0 PUSH1 0x20 DUP3 ADD SWAP1 POP DUP2 DUP2 SUB PUSH1 0x0 DUP4 ADD MSTORE PUSH2 0xF54 DUP2 PUSH2 0xE4E JUMP JUMPDEST SWAP1 POP SWAP2 SWAP1 POP JUMP JUMPDEST PUSH1 0x0 PUSH1 0x20 DUP3 ADD SWAP1 POP DUP2 DUP2 SUB PUSH1 0x0 DUP4 ADD MSTORE PUSH2 0xF74 DUP2 PUSH2 0xE94 JUMP JUMPDEST SWAP1 POP SWAP2 SWAP1 POP JUMP JUMPDEST PUSH1 0x0 PUSH1 0x20 DUP3 ADD SWAP1 POP PUSH2 0xF90 PUSH1 0x0 DUP4 ADD DUP5 PUSH2 0xEB7 JUMP JUMPDEST SWAP3 SWAP2 POP POP JUMP JUMPDEST PUSH1 0x0 DUP2 SWAP1 POP SWAP3 SWAP2 POP POP JUMP JUMPDEST PUSH1 0x0 DUP3 DUP3 MSTORE PUSH1 0x20 DUP3 ADD SWAP1 POP SWAP3 SWAP2 POP POP JUMP JUMPDEST PUSH1 0x0 PUSH2 0xFBD DUP3 PUSH2 0x106E JUMP JUMPDEST SWAP2 POP PUSH2 0xFC8 DUP4 PUSH2 0x106E JUMP JUMPDEST SWAP3 POP DUP3 PUSH32 0xFFFFFFFFFFFFFFFFFFFFFFFFFFFFFFFFFFFFFFFFFFFFFFFFFFFFFFFFFFFFFFFF SUB DUP3 GT ISZERO PUSH2 0xFFD JUMPI PUSH2 0xFFC PUSH2 0x10C1 JUMP JUMPDEST JUMPDEST DUP3 DUP3 ADD SWAP1 POP SWAP3 SWAP2 POP POP JUMP JUMPDEST PUSH1 0x0 PUSH2 0x1013 DUP3 PUSH2 0x106E JUMP JUMPDEST SWAP2 POP PUSH2 0x101E DUP4 PUSH2 0x106E JUMP JUMPDEST SWAP3 POP DUP3 DUP3 LT ISZERO PUSH2 0x1031 JUMPI PUSH2 0x1030 PUSH2 0x10C1 JUMP JUMPDEST JUMPDEST DUP3 DUP3 SUB SWAP1 POP SWAP3 SWAP2 POP POP JUMP JUMPDEST PUSH1 0x0 PUSH2 0x1047 DUP3 PUSH2 0x104E JUMP JUMPDEST SWAP1 POP SWAP2 SWAP1 POP JUMP JUMPDEST PUSH1 0x0 PUSH20 0xFFFFFFFFFFFFFFFFFFFFFFFFFFFFFFFFFFFFFFFF DUP3 AND SWAP1 POP SWAP2 SWAP1 POP JUMP JUMPDEST PUSH1 0x0 DUP2 SWAP1 POP SWAP2 SWAP1 POP JUMP JUMPDEST PUSH1 0x0 PUSH2 0x1083 DUP3 PUSH2 0x106E JUMP JUMPDEST SWAP2 POP PUSH32 0xFFFFFFFFFFFFFFFFFFFFFFFFFFFFFFFFFFFFFFFFFFFFFFFFFFFFFFFFFFFFFFFF DUP3 EQ ISZERO PUSH2 0x10B6 JUMPI PUSH2 0x10B5 PUSH2 0x10C1 JUMP JUMPDEST JUMPDEST PUSH1 0x1 DUP3 ADD SWAP1 POP SWAP2 SWAP1 POP JUMP JUMPDEST PUSH32 0x4E487B7100000000000000000000000000000000000000000000000000000000 PUSH1 0x0 MSTORE PUSH1 0x11 PUSH1 0x4 MSTORE PUSH1 0x24 PUSH1 0x0 REVERT JUMPDEST PUSH32 0x4E487B7100000000000000000000000000000000000000000000000000000000 PUSH1 0x0 MSTORE PUSH1 0x32 PUSH1 0x4 MSTORE PUSH1 0x24 PUSH1 0x0 REVERT JUMPDEST PUSH1 0x0 DUP1 REVERT JUMPDEST PUSH32 0x63616C6C206F662061206E6F6E2D6578697374656E742066756E6374696F6E00 PUSH1 0x0 DUP3 ADD MSTORE POP JUMP JUMPDEST PUSH32 0x4661696C656420746F2073656E64204574686572000000000000000000000000 PUSH1 0x0 DUP3 ADD MSTORE POP JUMP JUMPDEST PUSH32 0x596F7520646F6E27742068617665206574686572732073656E7420746F20796F PUSH1 0x0 DUP3 ADD MSTORE PUSH32 0x7500000000000000000000000000000000000000000000000000000000000000 PUSH1 0x20 DUP3 ADD MSTORE POP JUMP JUMPDEST PUSH32 0x526F6C6C6261636B206973206E6F7420617661696C61626C6520666F7220796F PUSH1 0x0 DUP3 ADD MSTORE PUSH32 0x752E20457468657273206D6967687420626520616C7265616479207769746864 PUSH1 0x20 DUP3 ADD MSTORE PUSH32 0x7261776564000000000000000000000000000000000000000000000000000000 PUSH1 0x40 DUP3 ADD MSTORE POP JUMP JUMPDEST POP JUMP JUMPDEST PUSH32 0x526F6C6C6261636B2076616C7565206973203000000000000000000000000000 PUSH1 0x0 DUP3 ADD MSTORE POP JUMP JUMPDEST PUSH2 0x126F DUP2 PUSH2 0x103C JUMP JUMPDEST DUP2 EQ PUSH2 0x127A JUMPI PUSH1 0x0 DUP1 REVERT JUMPDEST POP JUMP INVALID LOG2 PUSH5 0x6970667358 0x22 SLT KECCAK256 SAR 0xF6 PUSH29 0xA084B5C756ABCDAC22C088EE78D94FBC2C0C0EF4CEB42DE46458A564D8 PUSH5 0x736F6C6343 STOP ADDMOD SMOD STOP CALLER "
				},
				"gasEstimates": {
					"creation": {
						"codeDepositCost": "957400",
						"executionCost": "994",
						"totalCost": "958394"
					},
					"external": {
						"": "1953",
						"getEtBalance()": "317",
						"rollbackEther(address)": "infinite",
						"sendEther(address)": "infinite",
						"withdrawEther()": "infinite"
					}
				},
				"methodIdentifiers": {
					"getEtBalance()": "31aaf59a",
					"rollbackEther(address)": "36843861",
					"sendEther(address)": "48c981e2",
					"withdrawEther()": "7362377b"
				}
			},
			"storageLayout": {
				"storage": [
					{
						"astId": 5,
						"contract": "contracts/Escrow.sol:Escrow",
						"label": "receiverAddress",
						"offset": 0,
						"slot": "0",
						"type": "t_mapping(t_address,t_uint256)"
					},
					{
						"astId": 10,
						"contract": "contracts/Escrow.sol:Escrow",
						"label": "rollbackAddresses",
						"offset": 0,
						"slot": "1",
						"type": "t_mapping(t_address,t_array(t_address)dyn_storage)"
					},
					{
						"astId": 16,
						"contract": "contracts/Escrow.sol:Escrow",
						"label": "rollbackPossible",
						"offset": 0,
						"slot": "2",
						"type": "t_mapping(t_address,t_mapping(t_address,t_bool))"
					},
					{
						"astId": 22,
						"contract": "contracts/Escrow.sol:Escrow",
						"label": "rollbackValue",
						"offset": 0,
						"slot": "3",
						"type": "t_mapping(t_address,t_mapping(t_address,t_uint256))"
					}
				],
				"types": {
					"t_address": {
						"encoding": "inplace",
						"label": "address",
						"numberOfBytes": "20"
					},
					"t_array(t_address)dyn_storage": {
						"base": "t_address",
						"encoding": "dynamic_array",
						"label": "address[]",
						"numberOfBytes": "32"
					},
					"t_bool": {
						"encoding": "inplace",
						"label": "bool",
						"numberOfBytes": "1"
					},
					"t_mapping(t_address,t_array(t_address)dyn_storage)": {
						"encoding": "mapping",
						"key": "t_address",
						"label": "mapping(address => address[])",
						"numberOfBytes": "32",
						"value": "t_array(t_address)dyn_storage"
					},
					"t_mapping(t_address,t_bool)": {
						"encoding": "mapping",
						"key": "t_address",
						"label": "mapping(address => bool)",
						"numberOfBytes": "32",
						"value": "t_bool"
					},
					"t_mapping(t_address,t_mapping(t_address,t_bool))": {
						"encoding": "mapping",
						"key": "t_address",
						"label": "mapping(address => mapping(address => bool))",
						"numberOfBytes": "32",
						"value": "t_mapping(t_address,t_bool)"
					},
					"t_mapping(t_address,t_mapping(t_address,t_uint256))": {
						"encoding": "mapping",
						"key": "t_address",
						"label": "mapping(address => mapping(address => uint256))",
						"numberOfBytes": "32",
						"value": "t_mapping(t_address,t_uint256)"
					},
					"t_mapping(t_address,t_uint256)": {
						"encoding": "mapping",
						"key": "t_address",
						"label": "mapping(address => uint256)",
						"numberOfBytes": "32",
						"value": "t_uint256"
					},
					"t_uint256": {
						"encoding": "inplace",
						"label": "uint256",
						"numberOfBytes": "32"
					}
				}
			},
			"userdoc": {
				"kind": "user",
				"methods": {},
				"version": 1
			}
		}
	}
}