{
  "_format": "hh-sol-artifact-1",
  "contractName": "Exchange",
  "sourceName": "contracts/Exchange.sol",
  "abi": [
    {
      "inputs": [
        {
          "internalType": "contract ERC20",
          "name": "_token",
          "type": "address"
        },
        {
          "internalType": "address",
          "name": "_factoryAddress",
          "type": "address"
        }
      ],
      "stateMutability": "nonpayable",
      "type": "constructor"
    },
    {
      "anonymous": false,
      "inputs": [
        {
          "indexed": true,
          "internalType": "address",
          "name": "owner",
          "type": "address"
        },
        {
          "indexed": true,
          "internalType": "address",
          "name": "spender",
          "type": "address"
        },
        {
          "indexed": false,
          "internalType": "uint256",
          "name": "value",
          "type": "uint256"
        }
      ],
      "name": "Approval",
      "type": "event"
    },
    {
      "anonymous": false,
      "inputs": [
        {
          "indexed": true,
          "internalType": "address",
          "name": "from",
          "type": "address"
        },
        {
          "indexed": true,
          "internalType": "address",
          "name": "to",
          "type": "address"
        },
        {
          "indexed": false,
          "internalType": "uint256",
          "name": "value",
          "type": "uint256"
        }
      ],
      "name": "Transfer",
      "type": "event"
    },
    {
      "inputs": [
        {
          "internalType": "uint256",
          "name": "_tokenAmount",
          "type": "uint256"
        }
      ],
      "name": "addLiquidity",
      "outputs": [
        {
          "internalType": "uint256",
          "name": "",
          "type": "uint256"
        }
      ],
      "stateMutability": "payable",
      "type": "function"
    },
    {
      "inputs": [
        {
          "internalType": "address",
          "name": "owner",
          "type": "address"
        },
        {
          "internalType": "address",
          "name": "spender",
          "type": "address"
        }
      ],
      "name": "allowance",
      "outputs": [
        {
          "internalType": "uint256",
          "name": "",
          "type": "uint256"
        }
      ],
      "stateMutability": "view",
      "type": "function"
    },
    {
      "inputs": [
        {
          "internalType": "address",
          "name": "spender",
          "type": "address"
        },
        {
          "internalType": "uint256",
          "name": "amount",
          "type": "uint256"
        }
      ],
      "name": "approve",
      "outputs": [
        {
          "internalType": "bool",
          "name": "",
          "type": "bool"
        }
      ],
      "stateMutability": "nonpayable",
      "type": "function"
    },
    {
      "inputs": [
        {
          "internalType": "address",
          "name": "account",
          "type": "address"
        }
      ],
      "name": "balanceOf",
      "outputs": [
        {
          "internalType": "uint256",
          "name": "",
          "type": "uint256"
        }
      ],
      "stateMutability": "view",
      "type": "function"
    },
    {
      "inputs": [],
      "name": "decimals",
      "outputs": [
        {
          "internalType": "uint8",
          "name": "",
          "type": "uint8"
        }
      ],
      "stateMutability": "view",
      "type": "function"
    },
    {
      "inputs": [
        {
          "internalType": "address",
          "name": "spender",
          "type": "address"
        },
        {
          "internalType": "uint256",
          "name": "subtractedValue",
          "type": "uint256"
        }
      ],
      "name": "decreaseAllowance",
      "outputs": [
        {
          "internalType": "bool",
          "name": "",
          "type": "bool"
        }
      ],
      "stateMutability": "nonpayable",
      "type": "function"
    },
    {
      "inputs": [
        {
          "internalType": "uint256",
          "name": "_minTokens",
          "type": "uint256"
        }
      ],
      "name": "ethToTokenSwap",
      "outputs": [],
      "stateMutability": "payable",
      "type": "function"
    },
    {
      "inputs": [
        {
          "internalType": "uint256",
          "name": "_minTokens",
          "type": "uint256"
        },
        {
          "internalType": "address",
          "name": "_recipient",
          "type": "address"
        }
      ],
      "name": "ethToTokenTransfer",
      "outputs": [],
      "stateMutability": "payable",
      "type": "function"
    },
    {
      "inputs": [],
      "name": "factoryAddress",
      "outputs": [
        {
          "internalType": "address",
          "name": "",
          "type": "address"
        }
      ],
      "stateMutability": "view",
      "type": "function"
    },
    {
      "inputs": [
        {
          "internalType": "uint256",
          "name": "_tokenSold",
          "type": "uint256"
        }
      ],
      "name": "getEthAmount",
      "outputs": [
        {
          "internalType": "uint256",
          "name": "",
          "type": "uint256"
        }
      ],
      "stateMutability": "view",
      "type": "function"
    },
    {
      "inputs": [],
      "name": "getReserve",
      "outputs": [
        {
          "internalType": "uint256",
          "name": "",
          "type": "uint256"
        }
      ],
      "stateMutability": "view",
      "type": "function"
    },
    {
      "inputs": [
        {
          "internalType": "uint256",
          "name": "_ethSold",
          "type": "uint256"
        }
      ],
      "name": "getTokenAmount",
      "outputs": [
        {
          "internalType": "uint256",
          "name": "",
          "type": "uint256"
        }
      ],
      "stateMutability": "view",
      "type": "function"
    },
    {
      "inputs": [
        {
          "internalType": "address",
          "name": "spender",
          "type": "address"
        },
        {
          "internalType": "uint256",
          "name": "addedValue",
          "type": "uint256"
        }
      ],
      "name": "increaseAllowance",
      "outputs": [
        {
          "internalType": "bool",
          "name": "",
          "type": "bool"
        }
      ],
      "stateMutability": "nonpayable",
      "type": "function"
    },
    {
      "inputs": [],
      "name": "name",
      "outputs": [
        {
          "internalType": "string",
          "name": "",
          "type": "string"
        }
      ],
      "stateMutability": "view",
      "type": "function"
    },
    {
      "inputs": [
        {
          "internalType": "uint256",
          "name": "_amount",
          "type": "uint256"
        }
      ],
      "name": "removeLiquidity",
      "outputs": [
        {
          "internalType": "uint256",
          "name": "",
          "type": "uint256"
        },
        {
          "internalType": "uint256",
          "name": "",
          "type": "uint256"
        }
      ],
      "stateMutability": "nonpayable",
      "type": "function"
    },
    {
      "inputs": [],
      "name": "symbol",
      "outputs": [
        {
          "internalType": "string",
          "name": "",
          "type": "string"
        }
      ],
      "stateMutability": "view",
      "type": "function"
    },
    {
      "inputs": [],
      "name": "token",
      "outputs": [
        {
          "internalType": "contract ERC20",
          "name": "",
          "type": "address"
        }
      ],
      "stateMutability": "view",
      "type": "function"
    },
    {
      "inputs": [
        {
          "internalType": "uint256",
          "name": "_tokensSold",
          "type": "uint256"
        },
        {
          "internalType": "uint256",
          "name": "_minEth",
          "type": "uint256"
        }
      ],
      "name": "tokenToEthSwap",
      "outputs": [],
      "stateMutability": "nonpayable",
      "type": "function"
    },
    {
      "inputs": [
        {
          "internalType": "uint256",
          "name": "_tokensSold",
          "type": "uint256"
        },
        {
          "internalType": "uint256",
          "name": "_minTokensBought",
          "type": "uint256"
        },
        {
          "internalType": "address",
          "name": "_tokenAddress",
          "type": "address"
        }
      ],
      "name": "tokenToTokenSwap",
      "outputs": [],
      "stateMutability": "nonpayable",
      "type": "function"
    },
    {
      "inputs": [],
      "name": "totalSupply",
      "outputs": [
        {
          "internalType": "uint256",
          "name": "",
          "type": "uint256"
        }
      ],
      "stateMutability": "view",
      "type": "function"
    },
    {
      "inputs": [
        {
          "internalType": "address",
          "name": "to",
          "type": "address"
        },
        {
          "internalType": "uint256",
          "name": "amount",
          "type": "uint256"
        }
      ],
      "name": "transfer",
      "outputs": [
        {
          "internalType": "bool",
          "name": "",
          "type": "bool"
        }
      ],
      "stateMutability": "nonpayable",
      "type": "function"
    },
    {
      "inputs": [
        {
          "internalType": "address",
          "name": "from",
          "type": "address"
        },
        {
          "internalType": "address",
          "name": "to",
          "type": "address"
        },
        {
          "internalType": "uint256",
          "name": "amount",
          "type": "uint256"
        }
      ],
      "name": "transferFrom",
      "outputs": [
        {
          "internalType": "bool",
          "name": "",
          "type": "bool"
        }
      ],
      "stateMutability": "nonpayable",
      "type": "function"
    }
  ],
  "bytecode": "0x60806040523480156200001157600080fd5b50604051620030413803806200304183398181016040528101906200003791906200023f565b6040518060400160405280600881526020017f4d756e69737761700000000000000000000000000000000000000000000000008152506040518060400160405280600481526020017f4d554e49000000000000000000000000000000000000000000000000000000008152508160039080519060200190620000bb92919062000161565b508060049080519060200190620000d492919062000161565b50505081600560006101000a81548173ffffffffffffffffffffffffffffffffffffffff021916908373ffffffffffffffffffffffffffffffffffffffff16021790555080600660006101000a81548173ffffffffffffffffffffffffffffffffffffffff021916908373ffffffffffffffffffffffffffffffffffffffff160217905550505062000361565b8280546200016f90620002c8565b90600052602060002090601f016020900481019282620001935760008555620001df565b82601f10620001ae57805160ff1916838001178555620001df565b82800160010185558215620001df579182015b82811115620001de578251825591602001919060010190620001c1565b5b509050620001ee9190620001f2565b5090565b5b808211156200020d576000816000905550600101620001f3565b5090565b60008151905062000222816200032d565b92915050565b600081519050620002398162000347565b92915050565b600080604083850312156200025357600080fd5b6000620002638582860162000228565b9250506020620002768582860162000211565b9150509250929050565b60006200028d82620002a8565b9050919050565b6000620002a18262000280565b9050919050565b600073ffffffffffffffffffffffffffffffffffffffff82169050919050565b60006002820490506001821680620002e157607f821691505b60208210811415620002f857620002f7620002fe565b5b50919050565b7f4e487b7100000000000000000000000000000000000000000000000000000000600052602260045260246000fd5b620003388162000280565b81146200034457600080fd5b50565b620003528162000294565b81146200035e57600080fd5b50565b612cd080620003716000396000f3fe6080604052600436106101355760003560e01c806395d89b41116100ab578063c2507ac11161006f578063c2507ac114610471578063dd62ed3e146104ae578063e0486c8a146104eb578063f7a7e32414610514578063f979dcd71461053d578063fc0c546a1461055957610135565b806395d89b4114610363578063966dae0e1461038e5780639c8f9f23146103b9578063a457c2d7146103f7578063a9059cbb1461043457610135565b8063389d9a40116100fd578063389d9a4014610235578063395093511461025157806351c6590a1461028e57806359bf5d39146102be57806370a08231146102e95780638fc7a25d1461032657610135565b806306fdde031461013a578063095ea7b31461016557806318160ddd146101a257806323b872dd146101cd578063313ce5671461020a575b600080fd5b34801561014657600080fd5b5061014f610584565b60405161015c91906122ac565b60405180910390f35b34801561017157600080fd5b5061018c60048036038101906101879190611d83565b610616565b6040516101999190612276565b60405180910390f35b3480156101ae57600080fd5b506101b7610639565b6040516101c4919061250e565b60405180910390f35b3480156101d957600080fd5b506101f460048036038101906101ef9190611d34565b610643565b6040516102019190612276565b60405180910390f35b34801561021657600080fd5b5061021f610672565b60405161022c919061257b565b60405180910390f35b61024f600480360381019061024a9190611e3a565b61067b565b005b34801561025d57600080fd5b5061027860048036038101906102739190611d83565b610689565b6040516102859190612276565b60405180910390f35b6102a860048036038101906102a39190611de8565b6106c0565b6040516102b5919061250e565b60405180910390f35b3480156102ca57600080fd5b506102d3610900565b6040516102e0919061250e565b60405180910390f35b3480156102f557600080fd5b50610310600480360381019061030b9190611ca6565b6109b2565b60405161031d919061250e565b60405180910390f35b34801561033257600080fd5b5061034d60048036038101906103489190611de8565b6109fa565b60405161035a919061250e565b60405180910390f35b34801561036f57600080fd5b50610378610a57565b60405161038591906122ac565b60405180910390f35b34801561039a57600080fd5b506103a3610ae9565b6040516103b091906121fb565b60405180910390f35b3480156103c557600080fd5b506103e060048036038101906103db9190611de8565b610b0f565b6040516103ee929190612552565b60405180910390f35b34801561040357600080fd5b5061041e60048036038101906104199190611d83565b610cae565b60405161042b9190612276565b60405180910390f35b34801561044057600080fd5b5061045b60048036038101906104569190611d83565b610d25565b6040516104689190612276565b60405180910390f35b34801561047d57600080fd5b5061049860048036038101906104939190611de8565b610d48565b6040516104a5919061250e565b60405180910390f35b3480156104ba57600080fd5b506104d560048036038101906104d09190611cf8565b610da5565b6040516104e2919061250e565b60405180910390f35b3480156104f757600080fd5b50610512600480360381019061050d9190611e76565b610e2c565b005b34801561052057600080fd5b5061053b60048036038101906105369190611eb2565b610f89565b005b61055760048036038101906105529190611de8565b611225565b005b34801561056557600080fd5b5061056e611232565b60405161057b9190612291565b60405180910390f35b60606003805461059390612773565b80601f01602080910402602001604051908101604052809291908181526020018280546105bf90612773565b801561060c5780601f106105e15761010080835404028352916020019161060c565b820191906000526020600020905b8154815290600101906020018083116105ef57829003601f168201915b5050505050905090565b600080610621611258565b905061062e818585611260565b600191505092915050565b6000600254905090565b60008061064e611258565b905061065b85828561142b565b6106668585856114b7565b60019150509392505050565b60006012905090565b6106858282611738565b5050565b600080610694611258565b90506106b58185856106a68589610da5565b6106b091906125b2565b611260565b600191505092915050565b6000806106cb610900565b141561079b57600560009054906101000a900473ffffffffffffffffffffffffffffffffffffffff1673ffffffffffffffffffffffffffffffffffffffff166323b872dd3330856040518463ffffffff1660e01b815260040161073093929190612216565b602060405180830381600087803b15801561074a57600080fd5b505af115801561075e573d6000803e3d6000fd5b505050506040513d601f19601f820116820180604052508101906107829190611dbf565b5060004790506107923382611857565b809150506108fb565b600034476107a99190612693565b905060006107b5610900565b905060008282346107c69190612639565b6107d09190612608565b905080851015610815576040517f08c379a000000000000000000000000000000000000000000000000000000000815260040161080c9061234e565b60405180910390fd5b600560009054906101000a900473ffffffffffffffffffffffffffffffffffffffff1673ffffffffffffffffffffffffffffffffffffffff166323b872dd3330846040518463ffffffff1660e01b815260040161087493929190612216565b602060405180830381600087803b15801561088e57600080fd5b505af11580156108a2573d6000803e3d6000fd5b505050506040513d601f19601f820116820180604052508101906108c69190611dbf565b50600083346108d3610639565b6108dd9190612639565b6108e79190612608565b90506108f33382611857565b809450505050505b919050565b6000600560009054906101000a900473ffffffffffffffffffffffffffffffffffffffff1673ffffffffffffffffffffffffffffffffffffffff166370a08231306040518263ffffffff1660e01b815260040161095d91906121fb565b60206040518083038186803b15801561097557600080fd5b505afa158015610989573d6000803e3d6000fd5b505050506040513d601f19601f820116820180604052508101906109ad9190611e11565b905090565b60008060008373ffffffffffffffffffffffffffffffffffffffff1673ffffffffffffffffffffffffffffffffffffffff168152602001908152602001600020549050919050565b6000808211610a3e576040517f08c379a0000000000000000000000000000000000000000000000000000000008152600401610a359061244e565b60405180910390fd5b610a5082610a4a610900565b476119b7565b9050919050565b606060048054610a6690612773565b80601f0160208091040260200160405190810160405280929190818152602001828054610a9290612773565b8015610adf5780601f10610ab457610100808354040283529160200191610adf565b820191906000526020600020905b815481529060010190602001808311610ac257829003601f168201915b5050505050905090565b600660009054906101000a900473ffffffffffffffffffffffffffffffffffffffff1681565b60008060008311610b55576040517f08c379a0000000000000000000000000000000000000000000000000000000008152600401610b4c9061236e565b60405180910390fd5b6000610b5f610639565b8447610b6b9190612639565b610b759190612608565b90506000610b81610639565b85610b8a610900565b610b949190612639565b610b9e9190612608565b9050610baa3386611a5c565b3373ffffffffffffffffffffffffffffffffffffffff166108fc839081150290604051600060405180830381858888f19350505050158015610bf0573d6000803e3d6000fd5b50600560009054906101000a900473ffffffffffffffffffffffffffffffffffffffff1673ffffffffffffffffffffffffffffffffffffffff1663a9059cbb33836040518363ffffffff1660e01b8152600401610c4e92919061224d565b602060405180830381600087803b158015610c6857600080fd5b505af1158015610c7c573d6000803e3d6000fd5b505050506040513d601f19601f82011682018060405250810190610ca09190611dbf565b508181935093505050915091565b600080610cb9611258565b90506000610cc78286610da5565b905083811015610d0c576040517f08c379a0000000000000000000000000000000000000000000000000000000008152600401610d03906124ce565b60405180910390fd5b610d198286868403611260565b60019250505092915050565b600080610d30611258565b9050610d3d8185856114b7565b600191505092915050565b6000808211610d8c576040517f08c379a0000000000000000000000000000000000000000000000000000000008152600401610d839061242e565b60405180910390fd5b610d9e8247610d99610900565b6119b7565b9050919050565b6000600160008473ffffffffffffffffffffffffffffffffffffffff1673ffffffffffffffffffffffffffffffffffffffff16815260200190815260200160002060008373ffffffffffffffffffffffffffffffffffffffff1673ffffffffffffffffffffffffffffffffffffffff16815260200190815260200160002054905092915050565b6000610e36610900565b90506000610e458483476119b7565b905082811015610e8a576040517f08c379a0000000000000000000000000000000000000000000000000000000008152600401610e819061240e565b60405180910390fd5b600560009054906101000a900473ffffffffffffffffffffffffffffffffffffffff1673ffffffffffffffffffffffffffffffffffffffff166323b872dd3330876040518463ffffffff1660e01b8152600401610ee993929190612216565b602060405180830381600087803b158015610f0357600080fd5b505af1158015610f17573d6000803e3d6000fd5b505050506040513d601f19601f82011682018060405250810190610f3b9190611dbf565b503373ffffffffffffffffffffffffffffffffffffffff166108fc829081150290604051600060405180830381858888f19350505050158015610f82573d6000803e3d6000fd5b5050505050565b6000600660009054906101000a900473ffffffffffffffffffffffffffffffffffffffff1673ffffffffffffffffffffffffffffffffffffffff166306f2bf62836040518263ffffffff1660e01b8152600401610fe691906121fb565b602060405180830381600087803b15801561100057600080fd5b505af1158015611014573d6000803e3d6000fd5b505050506040513d601f19601f820116820180604052508101906110389190611ccf565b90503073ffffffffffffffffffffffffffffffffffffffff168173ffffffffffffffffffffffffffffffffffffffff16141580156110a35750600073ffffffffffffffffffffffffffffffffffffffff168173ffffffffffffffffffffffffffffffffffffffff1614155b6110e2576040517f08c379a00000000000000000000000000000000000000000000000000000000081526004016110d9906123ee565b60405180910390fd5b60006110ec610900565b905060006110fb8683476119b7565b9050600560009054906101000a900473ffffffffffffffffffffffffffffffffffffffff1673ffffffffffffffffffffffffffffffffffffffff166323b872dd3330896040518463ffffffff1660e01b815260040161115c93929190612216565b602060405180830381600087803b15801561117657600080fd5b505af115801561118a573d6000803e3d6000fd5b505050506040513d601f19601f820116820180604052508101906111ae9190611dbf565b508273ffffffffffffffffffffffffffffffffffffffff1663389d9a408287336040518463ffffffff1660e01b81526004016111eb929190612529565b6000604051808303818588803b15801561120457600080fd5b505af1158015611218573d6000803e3d6000fd5b5050505050505050505050565b61122f8133611738565b50565b600560009054906101000a900473ffffffffffffffffffffffffffffffffffffffff1681565b600033905090565b600073ffffffffffffffffffffffffffffffffffffffff168373ffffffffffffffffffffffffffffffffffffffff1614156112d0576040517f08c379a00000000000000000000000000000000000000000000000000000000081526004016112c7906124ae565b60405180910390fd5b600073ffffffffffffffffffffffffffffffffffffffff168273ffffffffffffffffffffffffffffffffffffffff161415611340576040517f08c379a00000000000000000000000000000000000000000000000000000000081526004016113379061232e565b60405180910390fd5b80600160008573ffffffffffffffffffffffffffffffffffffffff1673ffffffffffffffffffffffffffffffffffffffff16815260200190815260200160002060008473ffffffffffffffffffffffffffffffffffffffff1673ffffffffffffffffffffffffffffffffffffffff168152602001908152602001600020819055508173ffffffffffffffffffffffffffffffffffffffff168373ffffffffffffffffffffffffffffffffffffffff167f8c5be1e5ebec7d5bd14f71427d1e84f3dd0314c0f7b2291e5b200ac8c7c3b9258360405161141e919061250e565b60405180910390a3505050565b60006114378484610da5565b90507fffffffffffffffffffffffffffffffffffffffffffffffffffffffffffffffff81146114b157818110156114a3576040517f08c379a000000000000000000000000000000000000000000000000000000000815260040161149a906123ae565b60405180910390fd5b6114b08484848403611260565b5b50505050565b600073ffffffffffffffffffffffffffffffffffffffff168373ffffffffffffffffffffffffffffffffffffffff161415611527576040517f08c379a000000000000000000000000000000000000000000000000000000000815260040161151e9061248e565b60405180910390fd5b600073ffffffffffffffffffffffffffffffffffffffff168273ffffffffffffffffffffffffffffffffffffffff161415611597576040517f08c379a000000000000000000000000000000000000000000000000000000000815260040161158e906122ce565b60405180910390fd5b6115a2838383611c33565b60008060008573ffffffffffffffffffffffffffffffffffffffff1673ffffffffffffffffffffffffffffffffffffffff16815260200190815260200160002054905081811015611628576040517f08c379a000000000000000000000000000000000000000000000000000000000815260040161161f906123ce565b60405180910390fd5b8181036000808673ffffffffffffffffffffffffffffffffffffffff1673ffffffffffffffffffffffffffffffffffffffff16815260200190815260200160002081905550816000808573ffffffffffffffffffffffffffffffffffffffff1673ffffffffffffffffffffffffffffffffffffffff16815260200190815260200160002060008282546116bb91906125b2565b925050819055508273ffffffffffffffffffffffffffffffffffffffff168473ffffffffffffffffffffffffffffffffffffffff167fddf252ad1be2c89b69c2b068fc378daa952ba7f163c4a11628f55a4df523b3ef8460405161171f919061250e565b60405180910390a3611732848484611c38565b50505050565b6000611742610900565b9050600061175c3434476117569190612693565b846119b7565b9050838110156117a1576040517f08c379a00000000000000000000000000000000000000000000000000000000081526004016117989061238e565b60405180910390fd5b600560009054906101000a900473ffffffffffffffffffffffffffffffffffffffff1673ffffffffffffffffffffffffffffffffffffffff1663a9059cbb84836040518363ffffffff1660e01b81526004016117fe92919061224d565b602060405180830381600087803b15801561181857600080fd5b505af115801561182c573d6000803e3d6000fd5b505050506040513d601f19601f820116820180604052508101906118509190611dbf565b5050505050565b600073ffffffffffffffffffffffffffffffffffffffff168273ffffffffffffffffffffffffffffffffffffffff1614156118c7576040517f08c379a00000000000000000000000000000000000000000000000000000000081526004016118be906124ee565b60405180910390fd5b6118d360008383611c33565b80600260008282546118e591906125b2565b92505081905550806000808473ffffffffffffffffffffffffffffffffffffffff1673ffffffffffffffffffffffffffffffffffffffff168152602001908152602001600020600082825461193a91906125b2565b925050819055508173ffffffffffffffffffffffffffffffffffffffff16600073ffffffffffffffffffffffffffffffffffffffff167fddf252ad1be2c89b69c2b068fc378daa952ba7f163c4a11628f55a4df523b3ef8360405161199f919061250e565b60405180910390a36119b360008383611c38565b5050565b600080831180156119c85750600082115b611a07576040517f08c379a00000000000000000000000000000000000000000000000000000000081526004016119fe9061230e565b60405180910390fd5b6000606385611a169190612639565b905060008382611a269190612639565b9050600082606487611a389190612639565b611a4291906125b2565b90508082611a509190612608565b93505050509392505050565b600073ffffffffffffffffffffffffffffffffffffffff168273ffffffffffffffffffffffffffffffffffffffff161415611acc576040517f08c379a0000000000000000000000000000000000000000000000000000000008152600401611ac39061246e565b60405180910390fd5b611ad882600083611c33565b60008060008473ffffffffffffffffffffffffffffffffffffffff1673ffffffffffffffffffffffffffffffffffffffff16815260200190815260200160002054905081811015611b5e576040517f08c379a0000000000000000000000000000000000000000000000000000000008152600401611b55906122ee565b60405180910390fd5b8181036000808573ffffffffffffffffffffffffffffffffffffffff1673ffffffffffffffffffffffffffffffffffffffff168152602001908152602001600020819055508160026000828254611bb59190612693565b92505081905550600073ffffffffffffffffffffffffffffffffffffffff168373ffffffffffffffffffffffffffffffffffffffff167fddf252ad1be2c89b69c2b068fc378daa952ba7f163c4a11628f55a4df523b3ef84604051611c1a919061250e565b60405180910390a3611c2e83600084611c38565b505050565b505050565b505050565b600081359050611c4c81612c55565b92915050565b600081519050611c6181612c55565b92915050565b600081519050611c7681612c6c565b92915050565b600081359050611c8b81612c83565b92915050565b600081519050611ca081612c83565b92915050565b600060208284031215611cb857600080fd5b6000611cc684828501611c3d565b91505092915050565b600060208284031215611ce157600080fd5b6000611cef84828501611c52565b91505092915050565b60008060408385031215611d0b57600080fd5b6000611d1985828601611c3d565b9250506020611d2a85828601611c3d565b9150509250929050565b600080600060608486031215611d4957600080fd5b6000611d5786828701611c3d565b9350506020611d6886828701611c3d565b9250506040611d7986828701611c7c565b9150509250925092565b60008060408385031215611d9657600080fd5b6000611da485828601611c3d565b9250506020611db585828601611c7c565b9150509250929050565b600060208284031215611dd157600080fd5b6000611ddf84828501611c67565b91505092915050565b600060208284031215611dfa57600080fd5b6000611e0884828501611c7c565b91505092915050565b600060208284031215611e2357600080fd5b6000611e3184828501611c91565b91505092915050565b60008060408385031215611e4d57600080fd5b6000611e5b85828601611c7c565b9250506020611e6c85828601611c3d565b9150509250929050565b60008060408385031215611e8957600080fd5b6000611e9785828601611c7c565b9250506020611ea885828601611c7c565b9150509250929050565b600080600060608486031215611ec757600080fd5b6000611ed586828701611c7c565b9350506020611ee686828701611c7c565b9250506040611ef786828701611c3d565b9150509250925092565b611f0a816126c7565b82525050565b611f19816126d9565b82525050565b611f288161271c565b82525050565b6000611f3982612596565b611f4381856125a1565b9350611f53818560208601612740565b611f5c81612832565b840191505092915050565b6000611f746023836125a1565b9150611f7f82612843565b604082019050919050565b6000611f976022836125a1565b9150611fa282612892565b604082019050919050565b6000611fba6010836125a1565b9150611fc5826128e1565b602082019050919050565b6000611fdd6022836125a1565b9150611fe88261290a565b604082019050919050565b60006120006019836125a1565b915061200b82612959565b602082019050919050565b6000612023600e836125a1565b915061202e82612982565b602082019050919050565b60006120466012836125a1565b9150612051826129ab565b602082019050919050565b6000612069601d836125a1565b9150612074826129d4565b602082019050919050565b600061208c6026836125a1565b9150612097826129fd565b604082019050919050565b60006120af601a836125a1565b91506120ba82612a4c565b602082019050919050565b60006120d26012836125a1565b91506120dd82612a75565b602082019050919050565b60006120f56014836125a1565b915061210082612a9e565b602082019050919050565b60006121186016836125a1565b915061212382612ac7565b602082019050919050565b600061213b6021836125a1565b915061214682612af0565b604082019050919050565b600061215e6025836125a1565b915061216982612b3f565b604082019050919050565b60006121816024836125a1565b915061218c82612b8e565b604082019050919050565b60006121a46025836125a1565b91506121af82612bdd565b604082019050919050565b60006121c7601f836125a1565b91506121d282612c2c565b602082019050919050565b6121e681612705565b82525050565b6121f58161270f565b82525050565b60006020820190506122106000830184611f01565b92915050565b600060608201905061222b6000830186611f01565b6122386020830185611f01565b61224560408301846121dd565b949350505050565b60006040820190506122626000830185611f01565b61226f60208301846121dd565b9392505050565b600060208201905061228b6000830184611f10565b92915050565b60006020820190506122a66000830184611f1f565b92915050565b600060208201905081810360008301526122c68184611f2e565b905092915050565b600060208201905081810360008301526122e781611f67565b9050919050565b6000602082019050818103600083015261230781611f8a565b9050919050565b6000602082019050818103600083015261232781611fad565b9050919050565b6000602082019050818103600083015261234781611fd0565b9050919050565b6000602082019050818103600083015261236781611ff3565b9050919050565b6000602082019050818103600083015261238781612016565b9050919050565b600060208201905081810360008301526123a781612039565b9050919050565b600060208201905081810360008301526123c78161205c565b9050919050565b600060208201905081810360008301526123e78161207f565b9050919050565b60006020820190508181036000830152612407816120a2565b9050919050565b60006020820190508181036000830152612427816120c5565b9050919050565b60006020820190508181036000830152612447816120e8565b9050919050565b600060208201905081810360008301526124678161210b565b9050919050565b600060208201905081810360008301526124878161212e565b9050919050565b600060208201905081810360008301526124a781612151565b9050919050565b600060208201905081810360008301526124c781612174565b9050919050565b600060208201905081810360008301526124e781612197565b9050919050565b60006020820190508181036000830152612507816121ba565b9050919050565b600060208201905061252360008301846121dd565b92915050565b600060408201905061253e60008301856121dd565b61254b6020830184611f01565b9392505050565b600060408201905061256760008301856121dd565b61257460208301846121dd565b9392505050565b600060208201905061259060008301846121ec565b92915050565b600081519050919050565b600082825260208201905092915050565b60006125bd82612705565b91506125c883612705565b9250827fffffffffffffffffffffffffffffffffffffffffffffffffffffffffffffffff038211156125fd576125fc6127a5565b5b828201905092915050565b600061261382612705565b915061261e83612705565b92508261262e5761262d6127d4565b5b828204905092915050565b600061264482612705565b915061264f83612705565b9250817fffffffffffffffffffffffffffffffffffffffffffffffffffffffffffffffff0483118215151615612688576126876127a5565b5b828202905092915050565b600061269e82612705565b91506126a983612705565b9250828210156126bc576126bb6127a5565b5b828203905092915050565b60006126d2826126e5565b9050919050565b60008115159050919050565b600073ffffffffffffffffffffffffffffffffffffffff82169050919050565b6000819050919050565b600060ff82169050919050565b60006127278261272e565b9050919050565b6000612739826126e5565b9050919050565b60005b8381101561275e578082015181840152602081019050612743565b8381111561276d576000848401525b50505050565b6000600282049050600182168061278b57607f821691505b6020821081141561279f5761279e612803565b5b50919050565b7f4e487b7100000000000000000000000000000000000000000000000000000000600052601160045260246000fd5b7f4e487b7100000000000000000000000000000000000000000000000000000000600052601260045260246000fd5b7f4e487b7100000000000000000000000000000000000000000000000000000000600052602260045260246000fd5b6000601f19601f8301169050919050565b7f45524332303a207472616e7366657220746f20746865207a65726f206164647260008201527f6573730000000000000000000000000000000000000000000000000000000000602082015250565b7f45524332303a206275726e20616d6f756e7420657863656564732062616c616e60008201527f6365000000000000000000000000000000000000000000000000000000000000602082015250565b7f496e76616c696420726573657276657300000000000000000000000000000000600082015250565b7f45524332303a20617070726f766520746f20746865207a65726f20616464726560008201527f7373000000000000000000000000000000000000000000000000000000000000602082015250565b7f496e73756666696369656e7420746f6b656e20616d6f756e7400000000000000600082015250565b7f496e76616c696420616d6f756e74000000000000000000000000000000000000600082015250565b7f496e73756666696369616e742065746865720000000000000000000000000000600082015250565b7f45524332303a20696e73756666696369656e7420616c6c6f77616e6365000000600082015250565b7f45524332303a207472616e7366657220616d6f756e742065786365656473206260008201527f616c616e63650000000000000000000000000000000000000000000000000000602082015250565b7f546869732065786368616e676520646f65732774206578697374000000000000600082015250565b7f496e737566696369616e7420746f6b656e730000000000000000000000000000600082015250565b7f657468536f6c6420697320746f6f20736d616c6c000000000000000000000000600082015250565b7f746f6b656e536f6c6420697320746f6f20736d616c6c00000000000000000000600082015250565b7f45524332303a206275726e2066726f6d20746865207a65726f2061646472657360008201527f7300000000000000000000000000000000000000000000000000000000000000602082015250565b7f45524332303a207472616e736665722066726f6d20746865207a65726f20616460008201527f6472657373000000000000000000000000000000000000000000000000000000602082015250565b7f45524332303a20617070726f76652066726f6d20746865207a65726f2061646460008201527f7265737300000000000000000000000000000000000000000000000000000000602082015250565b7f45524332303a2064656372656173656420616c6c6f77616e63652062656c6f7760008201527f207a65726f000000000000000000000000000000000000000000000000000000602082015250565b7f45524332303a206d696e7420746f20746865207a65726f206164647265737300600082015250565b612c5e816126c7565b8114612c6957600080fd5b50565b612c75816126d9565b8114612c8057600080fd5b50565b612c8c81612705565b8114612c9757600080fd5b5056fea2646970667358221220c72abab6315d2579988aa597a57e5382a12c0a3b9d035a486f1a98d4468ef65564736f6c63430008040033",
  "linkReferences": {},
  "deployedLinkReferences": {}
}